{
  "contractName": "MyContractChanges",
  "abi": [
    {
      "inputs": [
        {
          "internalType": "address",
          "name": "sender",
          "type": "address"
        },
        {
          "internalType": "uint256",
          "name": "tokenId",
          "type": "uint256"
        },
        {
          "internalType": "address",
          "name": "owner",
          "type": "address"
        }
      ],
      "name": "ERC721IncorrectOwner",
      "type": "error"
    },
    {
      "inputs": [
        {
          "internalType": "address",
          "name": "operator",
          "type": "address"
        },
        {
          "internalType": "uint256",
          "name": "tokenId",
          "type": "uint256"
        }
      ],
      "name": "ERC721InsufficientApproval",
      "type": "error"
    },
    {
      "inputs": [
        {
          "internalType": "address",
          "name": "approver",
          "type": "address"
        }
      ],
      "name": "ERC721InvalidApprover",
      "type": "error"
    },
    {
      "inputs": [
        {
          "internalType": "address",
          "name": "operator",
          "type": "address"
        }
      ],
      "name": "ERC721InvalidOperator",
      "type": "error"
    },
    {
      "inputs": [
        {
          "internalType": "address",
          "name": "owner",
          "type": "address"
        }
      ],
      "name": "ERC721InvalidOwner",
      "type": "error"
    },
    {
      "inputs": [
        {
          "internalType": "address",
          "name": "receiver",
          "type": "address"
        }
      ],
      "name": "ERC721InvalidReceiver",
      "type": "error"
    },
    {
      "inputs": [
        {
          "internalType": "address",
          "name": "sender",
          "type": "address"
        }
      ],
      "name": "ERC721InvalidSender",
      "type": "error"
    },
    {
      "inputs": [
        {
          "internalType": "uint256",
          "name": "tokenId",
          "type": "uint256"
        }
      ],
      "name": "ERC721NonexistentToken",
      "type": "error"
    },
    {
      "anonymous": false,
      "inputs": [
        {
          "indexed": true,
          "internalType": "address",
          "name": "owner",
          "type": "address"
        },
        {
          "indexed": true,
          "internalType": "address",
          "name": "approved",
          "type": "address"
        },
        {
          "indexed": true,
          "internalType": "uint256",
          "name": "tokenId",
          "type": "uint256"
        }
      ],
      "name": "Approval",
      "type": "event"
    },
    {
      "anonymous": false,
      "inputs": [
        {
          "indexed": true,
          "internalType": "uint256",
          "name": "tokenId",
          "type": "uint256"
        },
        {
          "indexed": true,
          "internalType": "address",
          "name": "employer",
          "type": "address"
        },
        {
          "indexed": false,
          "internalType": "uint256",
          "name": "salary",
          "type": "uint256"
        },
        {
          "indexed": false,
          "internalType": "uint256",
          "name": "newSalary",
          "type": "uint256"
        },
        {
          "indexed": false,
          "internalType": "uint256",
          "name": "timestamp",
          "type": "uint256"
        }
      ],
      "name": "ApprovalChanges",
      "type": "event"
    },
    {
      "anonymous": false,
      "inputs": [
        {
          "indexed": true,
          "internalType": "address",
          "name": "owner",
          "type": "address"
        },
        {
          "indexed": true,
          "internalType": "address",
          "name": "operator",
          "type": "address"
        },
        {
          "indexed": false,
          "internalType": "bool",
          "name": "approved",
          "type": "bool"
        }
      ],
      "name": "ApprovalForAll",
      "type": "event"
    },
    {
      "anonymous": false,
      "inputs": [
        {
          "indexed": true,
          "internalType": "uint256",
          "name": "tokenId",
          "type": "uint256"
        },
        {
          "indexed": true,
          "internalType": "address",
          "name": "employer",
          "type": "address"
        },
        {
          "indexed": false,
          "internalType": "uint256",
          "name": "salary",
          "type": "uint256"
        },
        {
          "indexed": false,
          "internalType": "uint256",
          "name": "timestamp",
          "type": "uint256"
        }
      ],
      "name": "ContractCancelled",
      "type": "event"
    },
    {
      "anonymous": false,
      "inputs": [
        {
          "indexed": true,
          "internalType": "uint256",
          "name": "tokenId",
          "type": "uint256"
        },
        {
          "indexed": false,
          "internalType": "uint256",
          "name": "salary",
          "type": "uint256"
        },
        {
          "indexed": true,
          "internalType": "address",
          "name": "worker",
          "type": "address"
        },
        {
          "indexed": false,
          "internalType": "uint256",
          "name": "timestamp",
          "type": "uint256"
        }
      ],
      "name": "SalaryReleased",
      "type": "event"
    },
    {
      "anonymous": false,
      "inputs": [
        {
          "indexed": false,
          "internalType": "uint256",
          "name": "tokenId",
          "type": "uint256"
        },
        {
          "indexed": true,
          "internalType": "address",
          "name": "employer",
          "type": "address"
        },
        {
          "indexed": false,
          "internalType": "uint256",
          "name": "salary",
          "type": "uint256"
        },
        {
          "indexed": false,
          "internalType": "uint256",
          "name": "timestamp",
          "type": "uint256"
        }
      ],
      "name": "TokenMinted",
      "type": "event"
    },
    {
      "anonymous": false,
      "inputs": [
        {
          "indexed": true,
          "internalType": "address",
          "name": "from",
          "type": "address"
        },
        {
          "indexed": true,
          "internalType": "address",
          "name": "to",
          "type": "address"
        },
        {
          "indexed": true,
          "internalType": "uint256",
          "name": "tokenId",
          "type": "uint256"
        }
      ],
      "name": "Transfer",
      "type": "event"
    },
    {
      "inputs": [
        {
          "internalType": "address",
          "name": "",
          "type": "address"
        },
        {
          "internalType": "uint256",
          "name": "",
          "type": "uint256"
        }
      ],
      "name": "activeContractsOfWorker",
      "outputs": [
        {
          "internalType": "uint256",
          "name": "",
          "type": "uint256"
        }
      ],
      "stateMutability": "view",
      "type": "function"
    },
    {
      "inputs": [
        {
          "internalType": "address",
          "name": "to",
          "type": "address"
        },
        {
          "internalType": "uint256",
          "name": "tokenId",
          "type": "uint256"
        }
      ],
      "name": "approve",
      "outputs": [],
      "stateMutability": "nonpayable",
      "type": "function"
    },
    {
      "inputs": [
        {
          "internalType": "address",
          "name": "owner",
          "type": "address"
        }
      ],
      "name": "balanceOf",
      "outputs": [
        {
          "internalType": "uint256",
          "name": "",
          "type": "uint256"
        }
      ],
      "stateMutability": "view",
      "type": "function"
    },
    {
      "inputs": [
        {
          "internalType": "uint256",
          "name": "_tokenID",
          "type": "uint256"
        }
      ],
      "name": "cancelContract",
      "outputs": [],
      "stateMutability": "nonpayable",
      "type": "function"
    },
    {
      "inputs": [
        {
          "internalType": "uint256",
          "name": "",
          "type": "uint256"
        }
      ],
      "name": "changeProposals",
      "outputs": [
        {
          "internalType": "string",
          "name": "newTitle",
          "type": "string"
        },
        {
          "internalType": "uint256",
          "name": "newSalary",
          "type": "uint256"
        },
        {
          "internalType": "uint256",
          "name": "newDuration",
          "type": "uint256"
        },
        {
          "internalType": "string",
          "name": "newDescription",
          "type": "string"
        },
        {
          "internalType": "bool",
          "name": "isPaused",
          "type": "bool"
        },
        {
          "internalType": "bool",
          "name": "isPending",
          "type": "bool"
        }
      ],
      "stateMutability": "view",
      "type": "function"
    },
    {
      "inputs": [
        {
          "internalType": "uint256",
          "name": "",
          "type": "uint256"
        }
      ],
      "name": "contractDetails",
      "outputs": [
        {
          "internalType": "uint256",
          "name": "salary",
          "type": "uint256"
        },
        {
          "internalType": "uint256",
          "name": "startDate",
          "type": "uint256"
        },
        {
          "internalType": "uint256",
          "name": "duration",
          "type": "uint256"
        },
        {
          "internalType": "string",
          "name": "title",
          "type": "string"
        },
        {
          "internalType": "string",
          "name": "description",
          "type": "string"
        },
        {
          "internalType": "bool",
          "name": "isSigned",
          "type": "bool"
        },
        {
          "internalType": "address",
          "name": "worker",
          "type": "address"
        },
        {
          "internalType": "bool",
          "name": "isFinished",
          "type": "bool"
        },
        {
          "internalType": "bool",
          "name": "isReleased",
          "type": "bool"
        },
        {
          "internalType": "bool",
          "name": "isPaused",
          "type": "bool"
        },
        {
          "internalType": "uint256",
          "name": "pauseTime",
          "type": "uint256"
        },
        {
          "internalType": "uint256",
          "name": "pauseDuration",
          "type": "uint256"
        }
      ],
      "stateMutability": "view",
      "type": "function"
    },
    {
      "inputs": [
        {
          "internalType": "address",
          "name": "",
          "type": "address"
        },
        {
          "internalType": "uint256",
          "name": "",
          "type": "uint256"
        }
      ],
      "name": "contractsOwner",
      "outputs": [
        {
          "internalType": "uint256",
          "name": "",
          "type": "uint256"
        }
      ],
      "stateMutability": "view",
      "type": "function"
    },
    {
      "inputs": [
        {
          "internalType": "uint256",
          "name": "_tokenID",
          "type": "uint256"
        }
      ],
      "name": "finalizeContract",
      "outputs": [],
      "stateMutability": "nonpayable",
      "type": "function"
    },
    {
      "inputs": [
        {
          "internalType": "uint256",
          "name": "tokenId",
          "type": "uint256"
        }
      ],
      "name": "getApproved",
      "outputs": [
        {
          "internalType": "address",
          "name": "",
          "type": "address"
        }
      ],
      "stateMutability": "view",
      "type": "function"
    },
    {
      "inputs": [
        {
          "internalType": "address",
          "name": "owner",
          "type": "address"
        },
        {
          "internalType": "address",
          "name": "operator",
          "type": "address"
        }
      ],
      "name": "isApprovedForAll",
      "outputs": [
        {
          "internalType": "bool",
          "name": "",
          "type": "bool"
        }
      ],
      "stateMutability": "view",
      "type": "function"
    },
    {
      "inputs": [
        {
          "internalType": "uint256",
          "name": "_tokenID",
          "type": "uint256"
        }
      ],
      "name": "isContractFinished",
      "outputs": [
        {
          "internalType": "bool",
          "name": "",
          "type": "bool"
        }
      ],
      "stateMutability": "view",
      "type": "function"
    },
    {
      "inputs": [
        {
          "internalType": "address",
          "name": "_to",
          "type": "address"
        },
        {
          "internalType": "uint256",
          "name": "_salary",
          "type": "uint256"
        },
        {
          "internalType": "uint256",
          "name": "_duration",
          "type": "uint256"
        },
        {
          "internalType": "string",
          "name": "_description",
          "type": "string"
        },
        {
          "internalType": "string",
          "name": "_title",
          "type": "string"
        }
      ],
      "name": "mint",
      "outputs": [
        {
          "internalType": "uint256",
          "name": "",
          "type": "uint256"
        }
      ],
      "stateMutability": "payable",
      "type": "function"
    },
    {
      "inputs": [],
      "name": "name",
      "outputs": [
        {
          "internalType": "string",
          "name": "",
          "type": "string"
        }
      ],
      "stateMutability": "view",
      "type": "function"
    },
    {
      "inputs": [
        {
          "internalType": "uint256",
          "name": "tokenId",
          "type": "uint256"
        }
      ],
      "name": "ownerOf",
      "outputs": [
        {
          "internalType": "address",
          "name": "",
          "type": "address"
        }
      ],
      "stateMutability": "view",
      "type": "function"
    },
    {
      "inputs": [
        {
          "internalType": "uint256",
          "name": "_tokenID",
          "type": "uint256"
        }
      ],
      "name": "releaseSalary",
      "outputs": [],
      "stateMutability": "payable",
      "type": "function"
    },
    {
      "inputs": [
        {
          "internalType": "address",
          "name": "from",
          "type": "address"
        },
        {
          "internalType": "address",
          "name": "to",
          "type": "address"
        },
        {
          "internalType": "uint256",
          "name": "tokenId",
          "type": "uint256"
        }
      ],
      "name": "safeTransferFrom",
      "outputs": [],
      "stateMutability": "nonpayable",
      "type": "function"
    },
    {
      "inputs": [
        {
          "internalType": "address",
          "name": "from",
          "type": "address"
        },
        {
          "internalType": "address",
          "name": "to",
          "type": "address"
        },
        {
          "internalType": "uint256",
          "name": "tokenId",
          "type": "uint256"
        },
        {
          "internalType": "bytes",
          "name": "data",
          "type": "bytes"
        }
      ],
      "name": "safeTransferFrom",
      "outputs": [],
      "stateMutability": "nonpayable",
      "type": "function"
    },
    {
      "inputs": [
        {
          "internalType": "address",
          "name": "operator",
          "type": "address"
        },
        {
          "internalType": "bool",
          "name": "approved",
          "type": "bool"
        }
      ],
      "name": "setApprovalForAll",
      "outputs": [],
      "stateMutability": "nonpayable",
      "type": "function"
    },
    {
      "inputs": [
        {
          "internalType": "uint256",
          "name": "_tokenID",
          "type": "uint256"
        }
      ],
      "name": "signContract",
      "outputs": [],
      "stateMutability": "nonpayable",
      "type": "function"
    },
    {
      "inputs": [
        {
          "internalType": "bytes4",
          "name": "interfaceId",
          "type": "bytes4"
        }
      ],
      "name": "supportsInterface",
      "outputs": [
        {
          "internalType": "bool",
          "name": "",
          "type": "bool"
        }
      ],
      "stateMutability": "view",
      "type": "function"
    },
    {
      "inputs": [],
      "name": "symbol",
      "outputs": [
        {
          "internalType": "string",
          "name": "",
          "type": "string"
        }
      ],
      "stateMutability": "view",
      "type": "function"
    },
    {
      "inputs": [],
      "name": "tokenID",
      "outputs": [
        {
          "internalType": "uint256",
          "name": "",
          "type": "uint256"
        }
      ],
      "stateMutability": "view",
      "type": "function"
    },
    {
      "inputs": [
        {
          "internalType": "uint256",
          "name": "",
          "type": "uint256"
        },
        {
          "internalType": "address",
          "name": "",
          "type": "address"
        }
      ],
      "name": "tokenManagers",
      "outputs": [
        {
          "internalType": "bool",
          "name": "",
          "type": "bool"
        }
      ],
      "stateMutability": "view",
      "type": "function"
    },
    {
      "inputs": [
        {
          "internalType": "uint256",
          "name": "",
          "type": "uint256"
        },
        {
          "internalType": "uint256",
          "name": "",
          "type": "uint256"
        }
      ],
      "name": "tokenManagersList",
      "outputs": [
        {
          "internalType": "address",
          "name": "",
          "type": "address"
        }
      ],
      "stateMutability": "view",
      "type": "function"
    },
    {
      "inputs": [
        {
          "internalType": "uint256",
          "name": "tokenId",
          "type": "uint256"
        }
      ],
      "name": "tokenURI",
      "outputs": [
        {
          "internalType": "string",
          "name": "",
          "type": "string"
        }
      ],
      "stateMutability": "view",
      "type": "function"
    },
    {
      "inputs": [
        {
          "internalType": "address",
          "name": "from",
          "type": "address"
        },
        {
          "internalType": "address",
          "name": "to",
          "type": "address"
        },
        {
          "internalType": "uint256",
          "name": "tokenId",
          "type": "uint256"
        }
      ],
      "name": "transferFrom",
      "outputs": [],
      "stateMutability": "nonpayable",
      "type": "function"
    },
    {
      "inputs": [
        {
          "internalType": "address",
          "name": "",
          "type": "address"
        },
        {
          "internalType": "uint256",
          "name": "",
          "type": "uint256"
        }
      ],
      "name": "unsignedContractsOfWorker",
      "outputs": [
        {
          "internalType": "uint256",
          "name": "",
          "type": "uint256"
        }
      ],
      "stateMutability": "view",
      "type": "function"
    },
    {
      "inputs": [
        {
          "internalType": "uint256",
          "name": "_tokenID",
          "type": "uint256"
        }
      ],
      "name": "pauseContract",
      "outputs": [],
      "stateMutability": "nonpayable",
      "type": "function"
    },
    {
      "inputs": [
        {
          "internalType": "uint256",
          "name": "_tokenID",
          "type": "uint256"
        }
      ],
      "name": "unPauseContract",
      "outputs": [],
      "stateMutability": "nonpayable",
      "type": "function"
    },
    {
      "inputs": [
        {
          "internalType": "uint256",
          "name": "_tokenId",
          "type": "uint256"
        },
        {
          "internalType": "address",
          "name": "_newManager",
          "type": "address"
        }
      ],
      "name": "assignManagerToToken",
      "outputs": [],
      "stateMutability": "nonpayable",
      "type": "function"
    },
    {
      "inputs": [
        {
          "internalType": "uint256",
          "name": "_tokenId",
          "type": "uint256"
        },
        {
          "internalType": "address",
          "name": "_manager",
          "type": "address"
        }
      ],
      "name": "revokeManagerFromToken",
      "outputs": [],
      "stateMutability": "nonpayable",
      "type": "function"
    },
    {
      "inputs": [
        {
          "internalType": "uint256",
          "name": "_tokenID",
          "type": "uint256"
        },
        {
          "internalType": "string",
          "name": "_newTitle",
          "type": "string"
        },
        {
          "internalType": "uint256",
          "name": "_newSalary",
          "type": "uint256"
        },
        {
          "internalType": "uint256",
          "name": "_newDuration",
          "type": "uint256"
        },
        {
          "internalType": "string",
          "name": "_newDescription",
          "type": "string"
        },
        {
          "internalType": "bool",
          "name": "_isPaused",
          "type": "bool"
        }
      ],
      "name": "proposeChange",
      "outputs": [],
      "stateMutability": "payable",
      "type": "function"
    },
    {
      "inputs": [
        {
          "internalType": "uint256",
          "name": "_tokenID",
          "type": "uint256"
        }
      ],
      "name": "rejectChange",
      "outputs": [],
      "stateMutability": "nonpayable",
      "type": "function"
    },
    {
      "inputs": [
        {
          "internalType": "uint256",
          "name": "_tokenID",
          "type": "uint256"
        }
      ],
      "name": "applyChange",
      "outputs": [],
      "stateMutability": "payable",
      "type": "function"
    }
  ],
  "bytecode": "0x608060405234801562000010575f80fd5b506040518060400160405280600781526020017f4d79546f6b656e000000000000000000000000000000000000000000000000008152506040518060400160405280600381526020017f4d544b0000000000000000000000000000000000000000000000000000000000815250815f90816200008d91906200030c565b5080600190816200009f91906200030c565b505050620003f0565b5f81519050919050565b7f4e487b71000000000000000000000000000000000000000000000000000000005f52604160045260245ffd5b7f4e487b71000000000000000000000000000000000000000000000000000000005f52602260045260245ffd5b5f60028204905060018216806200012457607f821691505b6020821081036200013a5762000139620000df565b5b50919050565b5f819050815f5260205f209050919050565b5f6020601f8301049050919050565b5f82821b905092915050565b5f600883026200019e7fffffffffffffffffffffffffffffffffffffffffffffffffffffffffffffffff8262000161565b620001aa868362000161565b95508019841693508086168417925050509392505050565b5f819050919050565b5f819050919050565b5f620001f4620001ee620001e884620001c2565b620001cb565b620001c2565b9050919050565b5f819050919050565b6200020f83620001d4565b620002276200021e82620001fb565b8484546200016d565b825550505050565b5f90565b6200023d6200022f565b6200024a81848462000204565b505050565b5b818110156200027157620002655f8262000233565b60018101905062000250565b5050565b601f821115620002c0576200028a8162000140565b620002958462000152565b81016020851015620002a5578190505b620002bd620002b48562000152565b8301826200024f565b50505b505050565b5f82821c905092915050565b5f620002e25f1984600802620002c5565b1980831691505092915050565b5f620002fc8383620002d1565b9150826002028217905092915050565b6200031782620000a8565b67ffffffffffffffff811115620003335762000332620000b2565b5b6200033f82546200010c565b6200034c82828562000275565b5f60209050601f83116001811462000382575f84156200036d578287015190505b620003798582620002ef565b865550620003e8565b601f198416620003928662000140565b5f5b82811015620003bb5784890151825560018201915060208501945060208101905062000394565b86831015620003db5784890151620003d7601f891682620002d1565b8355505b6001600288020188555050505b505050505050565b61560780620003fe5f395ff3fe6080604052600436106101f8575f3560e01c80636352211e1161010c578063b88d4fde1161009f578063c87b56dd1161006e578063c87b56dd1461074d578063e1b1462014610789578063e2c07c7b146107c5578063e985e9c5146107e1578063fc5a4efe1461081d576101f8565b8063b88d4fde14610685578063bc3a8e9e146106ad578063bce87156146106e9578063c2852f3814610725576101f8565b80639537e8d1116100db5780639537e8d1146105e157806395d89b4114610609578063a22cb46514610633578063a5c42ef11461065b576101f8565b80636352211e146105115780636d0136181461054d57806370a082311461057d57806389b83d3e146105b9576101f8565b80632907eb161161018f578063409283d01161015e578063409283d01461044d57806342842e0e1461046957806345f18460146104915780634ec3e2aa146104cd5780634f73d79d146104f5576101f8565b80632907eb1614610366578063294a79311461038e5780633330a55f146103ca57806336a2d6f514610411576101f8565b8063095ea7b3116101cb578063095ea7b3146102c65780632355e217146102ee57806323b872dd14610316578063280474501461033e576101f8565b806301ffc9a7146101fc578063045b6a4e1461023857806306fdde0314610260578063081812fc1461028a575b5f80fd5b348015610207575f80fd5b50610222600480360381019061021d9190613ed4565b61085e565b60405161022f9190613f19565b60405180910390f35b348015610243575f80fd5b5061025e60048036038101906102599190613fbf565b61093f565b005b34801561026b575f80fd5b50610274610a6e565b6040516102819190614087565b60405180910390f35b348015610295575f80fd5b506102b060048036038101906102ab91906140a7565b610afd565b6040516102bd91906140e1565b60405180910390f35b3480156102d1575f80fd5b506102ec60048036038101906102e791906140fa565b610b18565b005b3480156102f9575f80fd5b50610314600480360381019061030f9190613fbf565b610b2e565b005b348015610321575f80fd5b5061033c60048036038101906103379190614138565b610cc4565b005b348015610349575f80fd5b50610364600480360381019061035f91906140a7565b610dc3565b005b348015610371575f80fd5b5061038c600480360381019061038791906140a7565b610ef4565b005b348015610399575f80fd5b506103b460048036038101906103af9190613fbf565b6110d8565b6040516103c19190613f19565b60405180910390f35b3480156103d5575f80fd5b506103f060048036038101906103eb91906140a7565b611102565b6040516104089c9b9a99989796959493929190614197565b60405180910390f35b34801561041c575f80fd5b506104376004803603810190610432919061425d565b6112bd565b60405161044491906140e1565b60405180910390f35b610467600480360381019061046291906140a7565b611305565b005b348015610474575f80fd5b5061048f600480360381019061048a9190614138565b61167c565b005b34801561049c575f80fd5b506104b760048036038101906104b291906140fa565b61169b565b6040516104c4919061429b565b60405180910390f35b3480156104d8575f80fd5b506104f360048036038101906104ee91906140a7565b6116c6565b005b61050f600480360381019061050a919061440a565b611915565b005b34801561051c575f80fd5b50610537600480360381019061053291906140a7565b611ab1565b60405161054491906140e1565b60405180910390f35b610567600480360381019061056291906144cb565b611ac2565b604051610574919061429b565b60405180910390f35b348015610588575f80fd5b506105a3600480360381019061059e919061457a565b611ec5565b6040516105b0919061429b565b60405180910390f35b3480156105c4575f80fd5b506105df60048036038101906105da91906140a7565b611f7b565b005b3480156105ec575f80fd5b50610607600480360381019061060291906140a7565b6120fc565b005b348015610614575f80fd5b5061061d6124e8565b60405161062a9190614087565b60405180910390f35b34801561063e575f80fd5b50610659600480360381019061065491906145a5565b612578565b005b348015610666575f80fd5b5061066f61258e565b60405161067c919061429b565b60405180910390f35b348015610690575f80fd5b506106ab60048036038101906106a69190614681565b612594565b005b3480156106b8575f80fd5b506106d360048036038101906106ce91906140fa565b6125b1565b6040516106e0919061429b565b60405180910390f35b3480156106f4575f80fd5b5061070f600480360381019061070a91906140a7565b6125dc565b60405161071c9190613f19565b60405180910390f35b348015610730575f80fd5b5061074b600480360381019061074691906140a7565b61267f565b005b348015610758575f80fd5b50610773600480360381019061076e91906140a7565b6127d8565b6040516107809190614087565b60405180910390f35b348015610794575f80fd5b506107af60048036038101906107aa91906140fa565b61283e565b6040516107bc919061429b565b60405180910390f35b6107df60048036038101906107da91906140a7565b612869565b005b3480156107ec575f80fd5b5061080760048036038101906108029190614701565b612b9b565b6040516108149190613f19565b60405180910390f35b348015610828575f80fd5b50610843600480360381019061083e91906140a7565b612c29565b6040516108559695949392919061473f565b60405180910390f35b5f7f80ac58cd000000000000000000000000000000000000000000000000000000007bffffffffffffffffffffffffffffffffffffffffffffffffffffffff1916827bffffffffffffffffffffffffffffffffffffffffffffffffffffffff1916148061092857507f5b5e139f000000000000000000000000000000000000000000000000000000007bffffffffffffffffffffffffffffffffffffffffffffffffffffffff1916827bffffffffffffffffffffffffffffffffffffffffffffffffffffffff1916145b80610938575061093782612d86565b5b9050919050565b5f5b600c5f8481526020019081526020015f20805490508110156109fc578173ffffffffffffffffffffffffffffffffffffffff16600c5f8581526020019081526020015f208281548110610997576109966147ac565b5b905f5260205f20015f9054906101000a900473ffffffffffffffffffffffffffffffffffffffff1673ffffffffffffffffffffffffffffffffffffffff16036109e9576109e48382612def565b6109fc565b80806109f490614806565b915050610941565b505f60085f8481526020019081526020015f205f8373ffffffffffffffffffffffffffffffffffffffff1673ffffffffffffffffffffffffffffffffffffffff1681526020019081526020015f205f6101000a81548160ff021916908315150217905550610a6a8282612f19565b5050565b60605f8054610a7c9061487a565b80601f0160208091040260200160405190810160405280929190818152602001828054610aa89061487a565b8015610af35780601f10610aca57610100808354040283529160200191610af3565b820191905f5260205f20905b815481529060010190602001808311610ad657829003601f168201915b5050505050905090565b5f610b078261314f565b50610b11826131d5565b9050919050565b610b2a8282610b2561320e565b613215565b5050565b60085f8381526020019081526020015f205f8273ffffffffffffffffffffffffffffffffffffffff1673ffffffffffffffffffffffffffffffffffffffff1681526020019081526020015f205f9054906101000a900460ff16610cc057600160085f8481526020019081526020015f205f8373ffffffffffffffffffffffffffffffffffffffff1673ffffffffffffffffffffffffffffffffffffffff1681526020019081526020015f205f6101000a81548160ff021916908315150217905550600c5f8381526020019081526020015f2081908060018154018082558091505060019003905f5260205f20015f9091909190916101000a81548173ffffffffffffffffffffffffffffffffffffffff021916908373ffffffffffffffffffffffffffffffffffffffff16021790555060095f8273ffffffffffffffffffffffffffffffffffffffff1673ffffffffffffffffffffffffffffffffffffffff1681526020019081526020015f2082908060018154018082558091505060019003905f5260205f20015f90919091909150555b5050565b5f73ffffffffffffffffffffffffffffffffffffffff168273ffffffffffffffffffffffffffffffffffffffff1603610d34575f6040517f64a0ae92000000000000000000000000000000000000000000000000000000008152600401610d2b91906140e1565b60405180910390fd5b5f610d478383610d4261320e565b613227565b90508373ffffffffffffffffffffffffffffffffffffffff168173ffffffffffffffffffffffffffffffffffffffff1614610dbd578382826040517f64283d7b000000000000000000000000000000000000000000000000000000008152600401610db4939291906148aa565b60405180910390fd5b50505050565b60075f8281526020019081526020015f206005015f9054906101000a900460ff1615610e24576040517f08c379a0000000000000000000000000000000000000000000000000000000008152600401610e1b90614929565b60405180910390fd5b5f610e2e82611ab1565b90505f60075f8481526020019081526020015f205f015490508173ffffffffffffffffffffffffffffffffffffffff166108fc8290811502906040515f60405180830381858888f19350505050158015610e8a573d5f803e3d5ffd5b50610e958383612f19565b610e9e83613432565b8173ffffffffffffffffffffffffffffffffffffffff16837fd5b7aefe81821953c4523af4718564cb7c9e62f3d5bab1c08438f03ac35085e08342604051610ee7929190614947565b60405180910390a3505050565b6001151560085f8381526020019081526020015f205f3373ffffffffffffffffffffffffffffffffffffffff1673ffffffffffffffffffffffffffffffffffffffff1681526020019081526020015f205f9054906101000a900460ff16151514610f93576040517f08c379a0000000000000000000000000000000000000000000000000000000008152600401610f8a906149de565b60405180910390fd5b60075f8281526020019081526020015f206005015f9054906101000a900460ff16610ff3576040517f08c379a0000000000000000000000000000000000000000000000000000000008152600401610fea90614a46565b60405180910390fd5b5f151560075f8381526020019081526020015f2060050160159054906101000a900460ff1615151461105a576040517f08c379a000000000000000000000000000000000000000000000000000000000815260040161105190614aae565b60405180910390fd5b5f1515611066826125dc565b1515146110a8576040517f08c379a000000000000000000000000000000000000000000000000000000000815260040161109f90614b16565b60405180910390fd5b600160075f8381526020019081526020015f2060050160156101000a81548160ff02191690831515021790555050565b6008602052815f5260405f20602052805f5260405f205f915091509054906101000a900460ff1681565b6007602052805f5260405f205f91509050805f0154908060010154908060020154908060030180546111339061487a565b80601f016020809104026020016040519081016040528092919081815260200182805461115f9061487a565b80156111aa5780601f10611181576101008083540402835291602001916111aa565b820191905f5260205f20905b81548152906001019060200180831161118d57829003601f168201915b5050505050908060040180546111bf9061487a565b80601f01602080910402602001604051908101604052809291908181526020018280546111eb9061487a565b80156112365780601f1061120d57610100808354040283529160200191611236565b820191905f5260205f20905b81548152906001019060200180831161121957829003601f168201915b505050505090806005015f9054906101000a900460ff16908060050160019054906101000a900473ffffffffffffffffffffffffffffffffffffffff16908060050160159054906101000a900460ff16908060050160169054906101000a900460ff16908060050160179054906101000a900460ff1690806006015490806007015490508c565b600c602052815f5260405f2081815481106112d6575f80fd5b905f5260205f20015f915091509054906101000a900473ffffffffffffffffffffffffffffffffffffffff1681565b5f600d5f8381526020019081526020015f206040518060c00160405290815f820180546113319061487a565b80601f016020809104026020016040519081016040528092919081815260200182805461135d9061487a565b80156113a85780601f1061137f576101008083540402835291602001916113a8565b820191905f5260205f20905b81548152906001019060200180831161138b57829003601f168201915b5050505050815260200160018201548152602001600282015481526020016003820180546113d59061487a565b80601f01602080910402602001604051908101604052809291908181526020018280546114019061487a565b801561144c5780601f106114235761010080835404028352916020019161144c565b820191905f5260205f20905b81548152906001019060200180831161142f57829003601f168201915b50505050508152602001600482015f9054906101000a900460ff161515151581526020016004820160019054906101000a900460ff16151515158152505090505f60075f8481526020019081526020015f205f015490508082602001511015611515575f8260200151826114c09190614b34565b90505f6114cc85611ab1565b90508073ffffffffffffffffffffffffffffffffffffffff166108fc8390811502906040515f60405180830381858888f19350505050158015611511573d5f803e3d5ffd5b5050505b815f015160075f8581526020019081526020015f2060030190816115399190614d04565b50816020015160075f8581526020019081526020015f205f0181905550816040015160075f8581526020019081526020015f2060020181905550816060015160075f8581526020019081526020015f2060040190816115989190614d04565b5060075f8481526020019081526020015f2060050160179054906101000a900460ff16151582608001511515146115ec578160800151156115e1576115dc8361267f565b6115eb565b6115ea83611f7b565b5b5b5f600d5f8581526020019081526020015f2060040160016101000a81548160ff02191690831515021790555061162183611ab1565b73ffffffffffffffffffffffffffffffffffffffff16837feae34dfcd93cfebf9280a6861befb7759d5cd39c50230ea4236c640577b57e918385602001514260405161166f93929190614dd3565b60405180910390a3505050565b61169683838360405180602001604052805f815250612594565b505050565b600b602052815f5260405f2081815481106116b4575f80fd5b905f5260205f20015f91509150505481565b5f600d5f8381526020019081526020015f206040518060c00160405290815f820180546116f29061487a565b80601f016020809104026020016040519081016040528092919081815260200182805461171e9061487a565b80156117695780601f1061174057610100808354040283529160200191611769565b820191905f5260205f20905b81548152906001019060200180831161174c57829003601f168201915b5050505050815260200160018201548152602001600282015481526020016003820180546117969061487a565b80601f01602080910402602001604051908101604052809291908181526020018280546117c29061487a565b801561180d5780601f106117e45761010080835404028352916020019161180d565b820191905f5260205f20905b8154815290600101906020018083116117f057829003601f168201915b50505050508152602001600482015f9054906101000a900460ff161515151581526020016004820160019054906101000a900460ff161515151581525050905060075f8381526020019081526020015f205f0154816020015111156118e5575f60075f8481526020019081526020015f205f015482602001516118909190614b34565b90505f61189c84611ab1565b90508073ffffffffffffffffffffffffffffffffffffffff166108fc8390811502906040515f60405180830381858888f193505050501580156118e1573d5f803e3d5ffd5b5050505b5f600d5f8481526020019081526020015f2060040160016101000a81548160ff0219169083151502179055505050565b5f60075f8881526020019081526020015f205f01549050808511156119e5575f81866119419190614b34565b905080341015611986576040517f08c379a000000000000000000000000000000000000000000000000000000000815260040161197d90614e78565b60405180910390fd5b5f81346119939190614b34565b90505f8111156119e2573373ffffffffffffffffffffffffffffffffffffffff166108fc8290811502906040515f60405180830381858888f193505050501580156119e0573d5f803e3d5ffd5b505b50505b6040518060c00160405280878152602001868152602001858152602001848152602001831515815260200160011515815250600d5f8981526020019081526020015f205f820151815f019081611a3b9190614d04565b5060208201518160010155604082015181600201556060820151816003019081611a659190614d04565b506080820151816004015f6101000a81548160ff02191690831515021790555060a08201518160040160016101000a81548160ff02191690831515021790555090505050505050505050565b5f611abb8261314f565b9050919050565b5f84341015611b06576040517f08c379a0000000000000000000000000000000000000000000000000000000008152600401611afd90614f06565b60405180910390fd5b60065f815480929190611b1890614806565b9190505550611b29336006546134b4565b5f8534611b369190614b34565b90505f811115611b85573373ffffffffffffffffffffffffffffffffffffffff166108fc8290811502906040515f60405180830381858888f19350505050158015611b83573d5f803e3d5ffd5b505b5f6040518061018001604052808881526020014281526020018781526020018581526020018681526020015f151581526020018973ffffffffffffffffffffffffffffffffffffffff1681526020015f151581526020015f151581526020015f151581526020015f81526020015f81525090508060075f60065481526020019081526020015f205f820151815f015560208201518160010155604082015181600201556060820151816003019081611c3d9190614d04565b506080820151816004019081611c539190614d04565b5060a0820151816005015f6101000a81548160ff02191690831515021790555060c08201518160050160016101000a81548173ffffffffffffffffffffffffffffffffffffffff021916908373ffffffffffffffffffffffffffffffffffffffff16021790555060e08201518160050160156101000a81548160ff0219169083151502179055506101008201518160050160166101000a81548160ff0219169083151502179055506101208201518160050160176101000a81548160ff02191690831515021790555061014082015181600601556101608201518160070155905050600160085f60065481526020019081526020015f205f3373ffffffffffffffffffffffffffffffffffffffff1673ffffffffffffffffffffffffffffffffffffffff1681526020019081526020015f205f6101000a81548160ff02191690831515021790555060095f3373ffffffffffffffffffffffffffffffffffffffff1673ffffffffffffffffffffffffffffffffffffffff1681526020019081526020015f20600654908060018154018082558091505060019003905f5260205f20015f9091909190915055600b5f8973ffffffffffffffffffffffffffffffffffffffff1673ffffffffffffffffffffffffffffffffffffffff1681526020019081526020015f20600654908060018154018082558091505060019003905f5260205f20015f90919091909150553373ffffffffffffffffffffffffffffffffffffffff167f81fd5f457056a8b19e623dc52551a385bfcafd0914d3942446ecab71d19b123b6006548942604051611ead93929190614dd3565b60405180910390a26006549250505095945050505050565b5f8073ffffffffffffffffffffffffffffffffffffffff168273ffffffffffffffffffffffffffffffffffffffff1603611f36575f6040517f89c62b64000000000000000000000000000000000000000000000000000000008152600401611f2d91906140e1565b60405180910390fd5b60035f8373ffffffffffffffffffffffffffffffffffffffff1673ffffffffffffffffffffffffffffffffffffffff1681526020019081526020015f20549050919050565b60075f8281526020019081526020015f206005015f9054906101000a900460ff16611fdb576040517f08c379a0000000000000000000000000000000000000000000000000000000008152600401611fd290614a46565b60405180910390fd5b60075f8281526020019081526020015f2060050160179054906101000a900460ff1661203c576040517f08c379a000000000000000000000000000000000000000000000000000000000815260040161203390614f6e565b60405180910390fd5b5f60075f8381526020019081526020015f20600601544261205d9190614b34565b90508060075f8481526020019081526020015f206002015f8282546120829190614f8c565b925050819055508060075f8481526020019081526020015f206007015f8282546120ac9190614f8c565b925050819055505f60075f8481526020019081526020015f20600601819055505f60075f8481526020019081526020015f2060050160176101000a81548160ff0219169083151502179055505050565b3073ffffffffffffffffffffffffffffffffffffffff16636352211e826040518263ffffffff1660e01b8152600401612135919061429b565b602060405180830381865afa92505050801561216f57506040513d601f19601f8201168201806040525081019061216c9190614fd3565b60015b6121ae576040517f08c379a00000000000000000000000000000000000000000000000000000000081526004016121a590615048565b60405180910390fd5b505f151560085f8381526020019081526020015f205f3373ffffffffffffffffffffffffffffffffffffffff1673ffffffffffffffffffffffffffffffffffffffff1681526020019081526020015f205f9054906101000a900460ff1615151461224d576040517f08c379a0000000000000000000000000000000000000000000000000000000008152600401612244906150d6565b60405180910390fd5b60075f8281526020019081526020015f2060050160019054906101000a900473ffffffffffffffffffffffffffffffffffffffff1673ffffffffffffffffffffffffffffffffffffffff163373ffffffffffffffffffffffffffffffffffffffff16146122ef576040517f08c379a00000000000000000000000000000000000000000000000000000000081526004016122e690615164565b60405180910390fd5b60075f8281526020019081526020015f206005015f9054906101000a900460ff1615612350576040517f08c379a000000000000000000000000000000000000000000000000000000000815260040161234790614929565b60405180910390fd5b5f151560075f8381526020019081526020015f2060050160159054906101000a900460ff161515146123b7576040517f08c379a00000000000000000000000000000000000000000000000000000000081526004016123ae906151cc565b60405180910390fd5b5f15156123c3826125dc565b151514612405576040517f08c379a00000000000000000000000000000000000000000000000000000000081526004016123fc90614b16565b60405180910390fd5b600160075f8381526020019081526020015f206005015f6101000a81548160ff0219169083151502179055503360075f8381526020019081526020015f2060050160016101000a81548173ffffffffffffffffffffffffffffffffffffffff021916908373ffffffffffffffffffffffffffffffffffffffff160217905550600a5f3373ffffffffffffffffffffffffffffffffffffffff1673ffffffffffffffffffffffffffffffffffffffff1681526020019081526020015f2081908060018154018082558091505060019003905f5260205f20015f909190919091505550565b6060600180546124f79061487a565b80601f01602080910402602001604051908101604052809291908181526020018280546125239061487a565b801561256e5780601f106125455761010080835404028352916020019161256e565b820191905f5260205f20905b81548152906001019060200180831161255157829003601f168201915b5050505050905090565b61258a61258361320e565b83836135a7565b5050565b60065481565b61259f848484610cc4565b6125ab84848484613710565b50505050565b600a602052815f5260405f2081815481106125ca575f80fd5b905f5260205f20015f91509150505481565b5f6001151560075f8481526020019081526020015f2060050160159054906101000a900460ff16151503612613576001905061267a565b60075f8381526020019081526020015f206007015460075f8481526020019081526020015f206002015460075f8581526020019081526020015f206001015461265c9190614f8c565b6126669190614f8c565b421115612676576001905061267a565b5f90505b919050565b60075f8281526020019081526020015f206005015f9054906101000a900460ff166126df576040517f08c379a00000000000000000000000000000000000000000000000000000000081526004016126d690614a46565b60405180910390fd5b5f15156126eb826125dc565b15151461272d576040517f08c379a000000000000000000000000000000000000000000000000000000000815260040161272490614b16565b60405180910390fd5b60075f8281526020019081526020015f2060050160179054906101000a900460ff161561278f576040517f08c379a000000000000000000000000000000000000000000000000000000000815260040161278690615234565b60405180910390fd5b600160075f8381526020019081526020015f2060050160176101000a81548160ff0219169083151502179055504260075f8381526020019081526020015f206006018190555050565b60606127e38261314f565b505f6127ed6138c2565b90505f81511161280b5760405180602001604052805f815250612836565b80612815846138d8565b60405160200161282692919061528c565b6040516020818303038152906040525b915050919050565b6009602052815f5260405f208181548110612857575f80fd5b905f5260205f20015f91509150505481565b60075f8281526020019081526020015f206005015f9054906101000a900460ff166128c9576040517f08c379a00000000000000000000000000000000000000000000000000000000081526004016128c090614a46565b60405180910390fd5b5f151560075f8381526020019081526020015f2060050160169054906101000a900460ff16151514612930576040517f08c379a0000000000000000000000000000000000000000000000000000000008152600401612927906152f9565b60405180910390fd5b6001151560085f8381526020019081526020015f205f3373ffffffffffffffffffffffffffffffffffffffff1673ffffffffffffffffffffffffffffffffffffffff1681526020019081526020015f205f9054906101000a900460ff161515146129cf576040517f08c379a00000000000000000000000000000000000000000000000000000000081526004016129c690615387565b60405180910390fd5b600115156129dc826125dc565b151514612a1e576040517f08c379a0000000000000000000000000000000000000000000000000000000008152600401612a15906153ef565b60405180910390fd5b5f151560075f8381526020019081526020015f2060050160179054906101000a900460ff16151514612a85576040517f08c379a0000000000000000000000000000000000000000000000000000000008152600401612a7c90615457565b60405180910390fd5b5f60075f8381526020019081526020015f2060050160019054906101000a900473ffffffffffffffffffffffffffffffffffffffff1690505f60075f8481526020019081526020015f205f015490508173ffffffffffffffffffffffffffffffffffffffff166108fc8290811502906040515f60405180830381858888f19350505050158015612b17573d5f803e3d5ffd5b50600160075f8581526020019081526020015f2060050160166101000a81548160ff0219169083151502179055508173ffffffffffffffffffffffffffffffffffffffff16837fc14d774ce55db64bde5b7fbf6e205f559dcbbc25bb04f7b2b004cfa6570e85b98342604051612b8e929190614947565b60405180910390a3505050565b5f60055f8473ffffffffffffffffffffffffffffffffffffffff1673ffffffffffffffffffffffffffffffffffffffff1681526020019081526020015f205f8373ffffffffffffffffffffffffffffffffffffffff1673ffffffffffffffffffffffffffffffffffffffff1681526020019081526020015f205f9054906101000a900460ff16905092915050565b600d602052805f5260405f205f91509050805f018054612c489061487a565b80601f0160208091040260200160405190810160405280929190818152602001828054612c749061487a565b8015612cbf5780601f10612c9657610100808354040283529160200191612cbf565b820191905f5260205f20905b815481529060010190602001808311612ca257829003601f168201915b505050505090806001015490806002015490806003018054612ce09061487a565b80601f0160208091040260200160405190810160405280929190818152602001828054612d0c9061487a565b8015612d575780601f10612d2e57610100808354040283529160200191612d57565b820191905f5260205f20905b815481529060010190602001808311612d3a57829003601f168201915b505050505090806004015f9054906101000a900460ff16908060040160019054906101000a900460ff16905086565b5f7f01ffc9a7000000000000000000000000000000000000000000000000000000007bffffffffffffffffffffffffffffffffffffffffffffffffffffffff1916827bffffffffffffffffffffffffffffffffffffffffffffffffffffffff1916149050919050565b600c5f8381526020019081526020015f206001600c5f8581526020019081526020015f2080549050612e219190614b34565b81548110612e3257612e316147ac565b5b905f5260205f20015f9054906101000a900473ffffffffffffffffffffffffffffffffffffffff16600c5f8481526020019081526020015f208281548110612e7d57612e7c6147ac565b5b905f5260205f20015f6101000a81548173ffffffffffffffffffffffffffffffffffffffff021916908373ffffffffffffffffffffffffffffffffffffffff160217905550600c5f8381526020019081526020015f20805480612ee357612ee2615475565b5b600190038181905f5260205f20015f6101000a81549073ffffffffffffffffffffffffffffffffffffffff021916905590555050565b5f80600160095f8573ffffffffffffffffffffffffffffffffffffffff1673ffffffffffffffffffffffffffffffffffffffff1681526020019081526020015f2080549050612f689190614b34565b90505f5b60095f8573ffffffffffffffffffffffffffffffffffffffff1673ffffffffffffffffffffffffffffffffffffffff1681526020019081526020015f208054905081101561302d578460095f8673ffffffffffffffffffffffffffffffffffffffff1673ffffffffffffffffffffffffffffffffffffffff1681526020019081526020015f208281548110613004576130036147ac565b5b905f5260205f2001540361301a5780925061302d565b808061302590614806565b915050612f6c565b508082146130e95760095f8473ffffffffffffffffffffffffffffffffffffffff1673ffffffffffffffffffffffffffffffffffffffff1681526020019081526020015f208181548110613084576130836147ac565b5b905f5260205f20015460095f8573ffffffffffffffffffffffffffffffffffffffff1673ffffffffffffffffffffffffffffffffffffffff1681526020019081526020015f2083815481106130dc576130db6147ac565b5b905f5260205f2001819055505b60095f8473ffffffffffffffffffffffffffffffffffffffff1673ffffffffffffffffffffffffffffffffffffffff1681526020019081526020015f2080548061313657613135615475565b5b600190038181905f5260205f20015f9055905550505050565b5f8061315a836139a2565b90505f73ffffffffffffffffffffffffffffffffffffffff168173ffffffffffffffffffffffffffffffffffffffff16036131cc57826040517f7e2732890000000000000000000000000000000000000000000000000000000081526004016131c3919061429b565b60405180910390fd5b80915050919050565b5f60045f8381526020019081526020015f205f9054906101000a900473ffffffffffffffffffffffffffffffffffffffff169050919050565b5f33905090565b61322283838360016139db565b505050565b5f80613232846139a2565b90505f73ffffffffffffffffffffffffffffffffffffffff168373ffffffffffffffffffffffffffffffffffffffff161461327357613272818486613b9a565b5b5f73ffffffffffffffffffffffffffffffffffffffff168173ffffffffffffffffffffffffffffffffffffffff16146132fe576132b25f855f806139db565b600160035f8373ffffffffffffffffffffffffffffffffffffffff1673ffffffffffffffffffffffffffffffffffffffff1681526020019081526020015f205f82825403925050819055505b5f73ffffffffffffffffffffffffffffffffffffffff168573ffffffffffffffffffffffffffffffffffffffff161461337d57600160035f8773ffffffffffffffffffffffffffffffffffffffff1673ffffffffffffffffffffffffffffffffffffffff1681526020019081526020015f205f82825401925050819055505b8460025f8681526020019081526020015f205f6101000a81548173ffffffffffffffffffffffffffffffffffffffff021916908373ffffffffffffffffffffffffffffffffffffffff160217905550838573ffffffffffffffffffffffffffffffffffffffff168273ffffffffffffffffffffffffffffffffffffffff167fddf252ad1be2c89b69c2b068fc378daa952ba7f163c4a11628f55a4df523b3ef60405160405180910390a4809150509392505050565b5f61343e5f835f613227565b90505f73ffffffffffffffffffffffffffffffffffffffff168173ffffffffffffffffffffffffffffffffffffffff16036134b057816040517f7e2732890000000000000000000000000000000000000000000000000000000081526004016134a7919061429b565b60405180910390fd5b5050565b5f73ffffffffffffffffffffffffffffffffffffffff168273ffffffffffffffffffffffffffffffffffffffff1603613524575f6040517f64a0ae9200000000000000000000000000000000000000000000000000000000815260040161351b91906140e1565b60405180910390fd5b5f61353083835f613227565b90505f73ffffffffffffffffffffffffffffffffffffffff168173ffffffffffffffffffffffffffffffffffffffff16146135a2575f6040517f73c6ac6e00000000000000000000000000000000000000000000000000000000815260040161359991906140e1565b60405180910390fd5b505050565b5f73ffffffffffffffffffffffffffffffffffffffff168273ffffffffffffffffffffffffffffffffffffffff160361361757816040517f5b08ba1800000000000000000000000000000000000000000000000000000000815260040161360e91906140e1565b60405180910390fd5b8060055f8573ffffffffffffffffffffffffffffffffffffffff1673ffffffffffffffffffffffffffffffffffffffff1681526020019081526020015f205f8473ffffffffffffffffffffffffffffffffffffffff1673ffffffffffffffffffffffffffffffffffffffff1681526020019081526020015f205f6101000a81548160ff0219169083151502179055508173ffffffffffffffffffffffffffffffffffffffff168373ffffffffffffffffffffffffffffffffffffffff167f17307eab39ab6107e8899845ad3d59bd9653f200f220920489ca2b5937696c31836040516137039190613f19565b60405180910390a3505050565b5f8373ffffffffffffffffffffffffffffffffffffffff163b11156138bc578273ffffffffffffffffffffffffffffffffffffffff1663150b7a0261375361320e565b8685856040518563ffffffff1660e01b815260040161377594939291906154f4565b6020604051808303815f875af19250505080156137b057506040513d601f19601f820116820180604052508101906137ad9190615552565b60015b613831573d805f81146137de576040519150601f19603f3d011682016040523d82523d5f602084013e6137e3565b606091505b505f81510361382957836040517f64a0ae9200000000000000000000000000000000000000000000000000000000815260040161382091906140e1565b60405180910390fd5b805181602001fd5b63150b7a0260e01b7bffffffffffffffffffffffffffffffffffffffffffffffffffffffff1916817bffffffffffffffffffffffffffffffffffffffffffffffffffffffff1916146138ba57836040517f64a0ae920000000000000000000000000000000000000000000000000000000081526004016138b191906140e1565b60405180910390fd5b505b50505050565b606060405180602001604052805f815250905090565b60605f60016138e684613c5d565b0190505f8167ffffffffffffffff811115613904576139036142bc565b5b6040519080825280601f01601f1916602001820160405280156139365781602001600182028036833780820191505090505b5090505f82602001820190505b600115613997578080600190039150507f3031323334353637383961626364656600000000000000000000000000000000600a86061a8153600a858161398c5761398b61557d565b5b0494505f8503613943575b819350505050919050565b5f60025f8381526020019081526020015f205f9054906101000a900473ffffffffffffffffffffffffffffffffffffffff169050919050565b8080613a1357505f73ffffffffffffffffffffffffffffffffffffffff168273ffffffffffffffffffffffffffffffffffffffff1614155b15613b45575f613a228461314f565b90505f73ffffffffffffffffffffffffffffffffffffffff168373ffffffffffffffffffffffffffffffffffffffff1614158015613a8c57508273ffffffffffffffffffffffffffffffffffffffff168173ffffffffffffffffffffffffffffffffffffffff1614155b8015613a9f5750613a9d8184612b9b565b155b15613ae157826040517fa9fbf51f000000000000000000000000000000000000000000000000000000008152600401613ad891906140e1565b60405180910390fd5b8115613b4357838573ffffffffffffffffffffffffffffffffffffffff168273ffffffffffffffffffffffffffffffffffffffff167f8c5be1e5ebec7d5bd14f71427d1e84f3dd0314c0f7b2291e5b200ac8c7c3b92560405160405180910390a45b505b8360045f8581526020019081526020015f205f6101000a81548173ffffffffffffffffffffffffffffffffffffffff021916908373ffffffffffffffffffffffffffffffffffffffff16021790555050505050565b613ba5838383613dae565b613c58575f73ffffffffffffffffffffffffffffffffffffffff168373ffffffffffffffffffffffffffffffffffffffff1603613c1957806040517f7e273289000000000000000000000000000000000000000000000000000000008152600401613c10919061429b565b60405180910390fd5b81816040517f177e802f000000000000000000000000000000000000000000000000000000008152600401613c4f9291906155aa565b60405180910390fd5b505050565b5f805f90507a184f03e93ff9f4daa797ed6e38ed64bf6a1f0100000000000000008310613cb9577a184f03e93ff9f4daa797ed6e38ed64bf6a1f0100000000000000008381613caf57613cae61557d565b5b0492506040810190505b6d04ee2d6d415b85acef81000000008310613cf6576d04ee2d6d415b85acef81000000008381613cec57613ceb61557d565b5b0492506020810190505b662386f26fc100008310613d2557662386f26fc100008381613d1b57613d1a61557d565b5b0492506010810190505b6305f5e1008310613d4e576305f5e1008381613d4457613d4361557d565b5b0492506008810190505b6127108310613d73576127108381613d6957613d6861557d565b5b0492506004810190505b60648310613d965760648381613d8c57613d8b61557d565b5b0492506002810190505b600a8310613da5576001810190505b80915050919050565b5f8073ffffffffffffffffffffffffffffffffffffffff168373ffffffffffffffffffffffffffffffffffffffff1614158015613e6557508273ffffffffffffffffffffffffffffffffffffffff168473ffffffffffffffffffffffffffffffffffffffff161480613e265750613e258484612b9b565b5b80613e6457508273ffffffffffffffffffffffffffffffffffffffff16613e4c836131d5565b73ffffffffffffffffffffffffffffffffffffffff16145b5b90509392505050565b5f604051905090565b5f80fd5b5f80fd5b5f7fffffffff0000000000000000000000000000000000000000000000000000000082169050919050565b613eb381613e7f565b8114613ebd575f80fd5b50565b5f81359050613ece81613eaa565b92915050565b5f60208284031215613ee957613ee8613e77565b5b5f613ef684828501613ec0565b91505092915050565b5f8115159050919050565b613f1381613eff565b82525050565b5f602082019050613f2c5f830184613f0a565b92915050565b5f819050919050565b613f4481613f32565b8114613f4e575f80fd5b50565b5f81359050613f5f81613f3b565b92915050565b5f73ffffffffffffffffffffffffffffffffffffffff82169050919050565b5f613f8e82613f65565b9050919050565b613f9e81613f84565b8114613fa8575f80fd5b50565b5f81359050613fb981613f95565b92915050565b5f8060408385031215613fd557613fd4613e77565b5b5f613fe285828601613f51565b9250506020613ff385828601613fab565b9150509250929050565b5f81519050919050565b5f82825260208201905092915050565b5f5b83811015614034578082015181840152602081019050614019565b5f8484015250505050565b5f601f19601f8301169050919050565b5f61405982613ffd565b6140638185614007565b9350614073818560208601614017565b61407c8161403f565b840191505092915050565b5f6020820190508181035f83015261409f818461404f565b905092915050565b5f602082840312156140bc576140bb613e77565b5b5f6140c984828501613f51565b91505092915050565b6140db81613f84565b82525050565b5f6020820190506140f45f8301846140d2565b92915050565b5f80604083850312156141105761410f613e77565b5b5f61411d85828601613fab565b925050602061412e85828601613f51565b9150509250929050565b5f805f6060848603121561414f5761414e613e77565b5b5f61415c86828701613fab565b935050602061416d86828701613fab565b925050604061417e86828701613f51565b9150509250925092565b61419181613f32565b82525050565b5f610180820190506141ab5f83018f614188565b6141b8602083018e614188565b6141c5604083018d614188565b81810360608301526141d7818c61404f565b905081810360808301526141eb818b61404f565b90506141fa60a083018a613f0a565b61420760c08301896140d2565b61421460e0830188613f0a565b614222610100830187613f0a565b614230610120830186613f0a565b61423e610140830185614188565b61424c610160830184614188565b9d9c50505050505050505050505050565b5f806040838503121561427357614272613e77565b5b5f61428085828601613f51565b925050602061429185828601613f51565b9150509250929050565b5f6020820190506142ae5f830184614188565b92915050565b5f80fd5b5f80fd5b7f4e487b71000000000000000000000000000000000000000000000000000000005f52604160045260245ffd5b6142f28261403f565b810181811067ffffffffffffffff82111715614311576143106142bc565b5b80604052505050565b5f614323613e6e565b905061432f82826142e9565b919050565b5f67ffffffffffffffff82111561434e5761434d6142bc565b5b6143578261403f565b9050602081019050919050565b828183375f83830152505050565b5f61438461437f84614334565b61431a565b9050828152602081018484840111156143a05761439f6142b8565b5b6143ab848285614364565b509392505050565b5f82601f8301126143c7576143c66142b4565b5b81356143d7848260208601614372565b91505092915050565b6143e981613eff565b81146143f3575f80fd5b50565b5f81359050614404816143e0565b92915050565b5f805f805f8060c0878903121561442457614423613e77565b5b5f61443189828a01613f51565b965050602087013567ffffffffffffffff81111561445257614451613e7b565b5b61445e89828a016143b3565b955050604061446f89828a01613f51565b945050606061448089828a01613f51565b935050608087013567ffffffffffffffff8111156144a1576144a0613e7b565b5b6144ad89828a016143b3565b92505060a06144be89828a016143f6565b9150509295509295509295565b5f805f805f60a086880312156144e4576144e3613e77565b5b5f6144f188828901613fab565b955050602061450288828901613f51565b945050604061451388828901613f51565b935050606086013567ffffffffffffffff81111561453457614533613e7b565b5b614540888289016143b3565b925050608086013567ffffffffffffffff81111561456157614560613e7b565b5b61456d888289016143b3565b9150509295509295909350565b5f6020828403121561458f5761458e613e77565b5b5f61459c84828501613fab565b91505092915050565b5f80604083850312156145bb576145ba613e77565b5b5f6145c885828601613fab565b92505060206145d9858286016143f6565b9150509250929050565b5f67ffffffffffffffff8211156145fd576145fc6142bc565b5b6146068261403f565b9050602081019050919050565b5f614625614620846145e3565b61431a565b905082815260208101848484011115614641576146406142b8565b5b61464c848285614364565b509392505050565b5f82601f830112614668576146676142b4565b5b8135614678848260208601614613565b91505092915050565b5f805f806080858703121561469957614698613e77565b5b5f6146a687828801613fab565b94505060206146b787828801613fab565b93505060406146c887828801613f51565b925050606085013567ffffffffffffffff8111156146e9576146e8613e7b565b5b6146f587828801614654565b91505092959194509250565b5f806040838503121561471757614716613e77565b5b5f61472485828601613fab565b925050602061473585828601613fab565b9150509250929050565b5f60c0820190508181035f830152614757818961404f565b90506147666020830188614188565b6147736040830187614188565b8181036060830152614785818661404f565b90506147946080830185613f0a565b6147a160a0830184613f0a565b979650505050505050565b7f4e487b71000000000000000000000000000000000000000000000000000000005f52603260045260245ffd5b7f4e487b71000000000000000000000000000000000000000000000000000000005f52601160045260245ffd5b5f61481082613f32565b91507fffffffffffffffffffffffffffffffffffffffffffffffffffffffffffffffff8203614842576148416147d9565b5b600182019050919050565b7f4e487b71000000000000000000000000000000000000000000000000000000005f52602260045260245ffd5b5f600282049050600182168061489157607f821691505b6020821081036148a4576148a361484d565b5b50919050565b5f6060820190506148bd5f8301866140d2565b6148ca6020830185614188565b6148d760408301846140d2565b949350505050565b7f456c20636f6e747261746f207961206861207369646f206669726d61646f00005f82015250565b5f614913601e83614007565b915061491e826148df565b602082019050919050565b5f6020820190508181035f83015261494081614907565b9050919050565b5f60408201905061495a5f830185614188565b6149676020830184614188565b9392505050565b7f536f6c6f20756e206d616e616765722070756564652066696e616c697a6172205f8201527f756e20636f6e747261746f000000000000000000000000000000000000000000602082015250565b5f6149c8602b83614007565b91506149d38261496e565b604082019050919050565b5f6020820190508181035f8301526149f5816149bc565b9050919050565b7f456c20636f6e747261746f206e6f206861207369646f206669726d61646f00005f82015250565b5f614a30601e83614007565b9150614a3b826149fc565b602082019050919050565b5f6020820190508181035f830152614a5d81614a24565b9050919050565b7f456c20636f6e747261746f2079612068612066696e616c697a61646f000000005f82015250565b5f614a98601c83614007565b9150614aa382614a64565b602082019050919050565b5f6020820190508181035f830152614ac581614a8c565b9050919050565b7f456c20636f6e747261746f20686120657870697261646f0000000000000000005f82015250565b5f614b00601783614007565b9150614b0b82614acc565b602082019050919050565b5f6020820190508181035f830152614b2d81614af4565b9050919050565b5f614b3e82613f32565b9150614b4983613f32565b9250828203905081811115614b6157614b606147d9565b5b92915050565b5f819050815f5260205f209050919050565b5f6020601f8301049050919050565b5f82821b905092915050565b5f60088302614bc37fffffffffffffffffffffffffffffffffffffffffffffffffffffffffffffffff82614b88565b614bcd8683614b88565b95508019841693508086168417925050509392505050565b5f819050919050565b5f614c08614c03614bfe84613f32565b614be5565b613f32565b9050919050565b5f819050919050565b614c2183614bee565b614c35614c2d82614c0f565b848454614b94565b825550505050565b5f90565b614c49614c3d565b614c54818484614c18565b505050565b5b81811015614c7757614c6c5f82614c41565b600181019050614c5a565b5050565b601f821115614cbc57614c8d81614b67565b614c9684614b79565b81016020851015614ca5578190505b614cb9614cb185614b79565b830182614c59565b50505b505050565b5f82821c905092915050565b5f614cdc5f1984600802614cc1565b1980831691505092915050565b5f614cf48383614ccd565b9150826002028217905092915050565b614d0d82613ffd565b67ffffffffffffffff811115614d2657614d256142bc565b5b614d30825461487a565b614d3b828285614c7b565b5f60209050601f831160018114614d6c575f8415614d5a578287015190505b614d648582614ce9565b865550614dcb565b601f198416614d7a86614b67565b5f5b82811015614da157848901518255600182019150602085019450602081019050614d7c565b86831015614dbe5784890151614dba601f891682614ccd565b8355505b6001600288020188555050505b505050505050565b5f606082019050614de65f830186614188565b614df36020830185614188565b614e006040830184614188565b949350505050565b7f466f6e646f7320696e737566696369656e7465732070617261206375627269725f8201527f20656c20696e6372656d656e746f2064656c2073616c6172696f000000000000602082015250565b5f614e62603a83614007565b9150614e6d82614e08565b604082019050919050565b5f6020820190508181035f830152614e8f81614e56565b9050919050565b7f4465646520656e7669617220656c2073616c6172696f20636f6d6f2076616c6f5f8201527f722064656c20636f6e747261746f000000000000000000000000000000000000602082015250565b5f614ef0602e83614007565b9150614efb82614e96565b604082019050919050565b5f6020820190508181035f830152614f1d81614ee4565b9050919050565b7f456c20636f6e747261746f206e6f2065737461207061757361646f00000000005f82015250565b5f614f58601b83614007565b9150614f6382614f24565b602082019050919050565b5f6020820190508181035f830152614f8581614f4c565b9050919050565b5f614f9682613f32565b9150614fa183613f32565b9250828201905080821115614fb957614fb86147d9565b5b92915050565b5f81519050614fcd81613f95565b92915050565b5f60208284031215614fe857614fe7613e77565b5b5f614ff584828501614fbf565b91505092915050565b7f456c20746f6b656e206e6f206578697374652e000000000000000000000000005f82015250565b5f615032601383614007565b915061503d82614ffe565b602082019050919050565b5f6020820190508181035f83015261505f81615026565b9050919050565b7f4e6f20707565646573206669726d61722074752070726f70696f20636f6e74725f8201527f61746f0000000000000000000000000000000000000000000000000000000000602082015250565b5f6150c0602383614007565b91506150cb82615066565b604082019050919050565b5f6020820190508181035f8301526150ed816150b4565b9050919050565b7f536f6c6f20656c2074726162616a61646f72207075656465206669726d6172205f8201527f656c20636f6e747261746f000000000000000000000000000000000000000000602082015250565b5f61514e602b83614007565b9150615159826150f4565b604082019050919050565b5f6020820190508181035f83015261517b81615142565b9050919050565b7f456c20636f6e747261746f2068612066696e616c697a61646f000000000000005f82015250565b5f6151b6601983614007565b91506151c182615182565b602082019050919050565b5f6020820190508181035f8301526151e3816151aa565b9050919050565b7f456c20636f6e747261746f2079612065737461207061757361646f00000000005f82015250565b5f61521e601b83614007565b9150615229826151ea565b602082019050919050565b5f6020820190508181035f83015261524b81615212565b9050919050565b5f81905092915050565b5f61526682613ffd565b6152708185615252565b9350615280818560208601614017565b80840191505092915050565b5f615297828561525c565b91506152a3828461525c565b91508190509392505050565b7f456c2073616c6172696f207961206861207369646f206c6962657261646f00005f82015250565b5f6152e3601e83614007565b91506152ee826152af565b602082019050919050565b5f6020820190508181035f830152615310816152d7565b9050919050565b7f536f6c6f20756e206d616e61676572207075656465206c69626572617220656c5f8201527f2073616c6172696f000000000000000000000000000000000000000000000000602082015250565b5f615371602883614007565b915061537c82615317565b604082019050919050565b5f6020820190508181035f83015261539e81615365565b9050919050565b7f456c20636f6e747261746f206e6f20686120657870697261646f0000000000005f82015250565b5f6153d9601a83614007565b91506153e4826153a5565b602082019050919050565b5f6020820190508181035f830152615406816153cd565b9050919050565b7f456c20636f6e747261746f2065737461207061757361646f00000000000000005f82015250565b5f615441601883614007565b915061544c8261540d565b602082019050919050565b5f6020820190508181035f83015261546e81615435565b9050919050565b7f4e487b71000000000000000000000000000000000000000000000000000000005f52603160045260245ffd5b5f81519050919050565b5f82825260208201905092915050565b5f6154c6826154a2565b6154d081856154ac565b93506154e0818560208601614017565b6154e98161403f565b840191505092915050565b5f6080820190506155075f8301876140d2565b61551460208301866140d2565b6155216040830185614188565b818103606083015261553381846154bc565b905095945050505050565b5f8151905061554c81613eaa565b92915050565b5f6020828403121561556757615566613e77565b5b5f6155748482850161553e565b91505092915050565b7f4e487b71000000000000000000000000000000000000000000000000000000005f52601260045260245ffd5b5f6040820190506155bd5f8301856140d2565b6155ca6020830184614188565b939250505056fea2646970667358221220e3852f8df72a615f087fee8f3fdd44dade90640d33efed0cf635697dc31eae3564736f6c63430008140033",
  "immutableReferences": {},
  "source": "// SPDX-License-Identifier: MIT\r\npragma solidity ^0.8.20;\r\n\r\nimport \"./MyContractManagement.sol\";\r\n\r\ncontract MyContractChanges is MyContractManagement {\r\n\r\n        struct ChangeProposal {\r\n            string newTitle;\r\n            uint256 newSalary;\r\n            uint256 newDuration;\r\n            string newDescription;\r\n            bool isPaused;\r\n            bool isPending;\r\n    }\r\n\r\n    mapping(uint256 => address[]) public tokenManagersList;\r\n    mapping(uint256 => ChangeProposal) public changeProposals;\r\n\r\n    event ApprovalChanges(\r\n        uint256 indexed tokenId,\r\n        address indexed employer,\r\n        uint256 salary,\r\n        uint256 newSalary,\r\n        uint256 timestamp\r\n    );\r\n\r\n\r\n        function pauseContract(uint256 _tokenID) public {\r\n        require(\r\n            contractDetails[_tokenID].isSigned,\r\n            \"El contrato no ha sido firmado\"\r\n        );\r\n        require(\r\n            isContractFinished(_tokenID) == false,\r\n            \"El contrato ha expirado\"\r\n        );\r\n        require(\r\n            !contractDetails[_tokenID].isPaused,\r\n            \"El contrato ya esta pausado\"\r\n        );\r\n\r\n        contractDetails[_tokenID].isPaused = true;\r\n        contractDetails[_tokenID].pauseTime = block.timestamp;\r\n    }\r\n\r\n    function unPauseContract(uint256 _tokenID) public {\r\n        require(\r\n            contractDetails[_tokenID].isSigned,\r\n            \"El contrato no ha sido firmado\"\r\n        );\r\n        require(\r\n            contractDetails[_tokenID].isPaused,\r\n            \"El contrato no esta pausado\"\r\n        );\r\n\r\n        uint256 pauseDuration = block.timestamp -\r\n            contractDetails[_tokenID].pauseTime;\r\n\r\n        contractDetails[_tokenID].duration += pauseDuration;\r\n        contractDetails[_tokenID].pauseDuration += pauseDuration;\r\n        contractDetails[_tokenID].pauseTime = 0;\r\n        contractDetails[_tokenID].isPaused = false;\r\n    }\r\n\r\n    function assignManagerToToken(\r\n        uint256 _tokenId,\r\n        address _newManager\r\n    ) public {\r\n        if (!tokenManagers[_tokenId][_newManager]) {\r\n            tokenManagers[_tokenId][_newManager] = true;\r\n            tokenManagersList[_tokenId].push(_newManager);\r\n            contractsOwner[_newManager].push(_tokenId);\r\n        }\r\n    }\r\n\r\n    function revokeManagerFromToken(uint256 _tokenId, address _manager) public {\r\n        for (uint256 i = 0; i < tokenManagersList[_tokenId].length; i++) {\r\n            if (tokenManagersList[_tokenId][i] == _manager) {\r\n                removeManagerFromList(_tokenId, i);\r\n                break;\r\n            }\r\n        }\r\n        tokenManagers[_tokenId][_manager] = false;\r\n        removeContractFromOwner(_tokenId, _manager);\r\n    }\r\n\r\n    function removeManagerFromList(uint256 _tokenId, uint256 _index) private {\r\n        tokenManagersList[_tokenId][_index] = tokenManagersList[_tokenId][\r\n            tokenManagersList[_tokenId].length - 1\r\n        ];\r\n        tokenManagersList[_tokenId].pop();\r\n    }\r\n\r\nfunction proposeChange(\r\n        uint256 _tokenID,\r\n        string memory _newTitle,\r\n        uint256 _newSalary,\r\n        uint256 _newDuration,\r\n        string memory _newDescription,\r\n        bool _isPaused\r\n    ) public payable {\r\n        uint256 currentSalary = contractDetails[_tokenID].salary;\r\n        if (_newSalary > currentSalary) {\r\n            uint256 salaryDifference = _newSalary - currentSalary;\r\n            require(\r\n                msg.value >= salaryDifference,\r\n                \"Fondos insuficientes para cubrir el incremento del salario\"\r\n            );\r\n\r\n            uint256 excessAmount = msg.value - salaryDifference;\r\n            if (excessAmount > 0) {\r\n                payable(msg.sender).transfer(excessAmount);\r\n            }\r\n        }\r\n\r\n        changeProposals[_tokenID] = ChangeProposal({\r\n            newTitle: _newTitle,\r\n            newSalary: _newSalary,\r\n            newDuration: _newDuration,\r\n            newDescription: _newDescription,\r\n            isPaused: _isPaused,\r\n            isPending: true\r\n        });\r\n    }\r\n\r\n    \r\n    function rejectChange(uint256 _tokenID) public {\r\n        ChangeProposal memory proposedChange = changeProposals[_tokenID];\r\n\r\n        if (proposedChange.newSalary > contractDetails[_tokenID].salary) {\r\n            uint256 salaryDifference = proposedChange.newSalary -\r\n                contractDetails[_tokenID].salary;\r\n            address owner = ownerOf(_tokenID);\r\n            payable(owner).transfer(salaryDifference);\r\n        }\r\n\r\n        changeProposals[_tokenID].isPending = false;\r\n    }\r\n\r\n    \r\n    function applyChange(uint256 _tokenID) public payable {\r\n        ChangeProposal memory proposedChange = changeProposals[_tokenID];\r\n        uint256 salary = contractDetails[_tokenID].salary;\r\n\r\n        if (proposedChange.newSalary < salary) {\r\n            uint256 refundAmount = salary - proposedChange.newSalary;\r\n            address owner = ownerOf(_tokenID);\r\n            payable(owner).transfer(refundAmount);\r\n        }\r\n\r\n        contractDetails[_tokenID].title = proposedChange.newTitle;\r\n        contractDetails[_tokenID].salary = proposedChange.newSalary;\r\n        contractDetails[_tokenID].duration = proposedChange.newDuration;\r\n        contractDetails[_tokenID].description = proposedChange.newDescription;\r\n\r\n        if (proposedChange.isPaused != contractDetails[_tokenID].isPaused) {\r\n            if (proposedChange.isPaused) {\r\n                pauseContract(_tokenID);\r\n            } else {\r\n                unPauseContract(_tokenID);\r\n            }\r\n        }\r\n\r\n        changeProposals[_tokenID].isPending = false;\r\n\r\n        emit ApprovalChanges(\r\n            _tokenID,\r\n            ownerOf(_tokenID),\r\n            salary,\r\n            proposedChange.newSalary,\r\n            block.timestamp\r\n        );\r\n    }\r\n}",
  "sourcePath": "E:\\AppContract\\ubu-contractme\\Code\\SmartContract\\contracts\\MyContractChanges.sol",
  "compiler": {
    "name": "solc",
    "version": "0.8.20+commit.a1b79de6.Emscripten.clang"
  },
  "schemaVersion": "3.4.16",
  "updatedAt": "2024-02-23T16:57:44.054Z",
  "devdoc": {
    "errors": {
      "ERC721IncorrectOwner(address,uint256,address)": [
        {
          "details": "Indicates an error related to the ownership over a particular token. Used in transfers.",
          "params": {
            "owner": "Address of the current owner of a token.",
            "sender": "Address whose tokens are being transferred.",
            "tokenId": "Identifier number of a token."
          }
        }
      ],
      "ERC721InsufficientApproval(address,uint256)": [
        {
          "details": "Indicates a failure with the `operator`s approval. Used in transfers.",
          "params": {
            "operator": "Address that may be allowed to operate on tokens without being their owner.",
            "tokenId": "Identifier number of a token."
          }
        }
      ],
      "ERC721InvalidApprover(address)": [
        {
          "details": "Indicates a failure with the `approver` of a token to be approved. Used in approvals.",
          "params": {
            "approver": "Address initiating an approval operation."
          }
        }
      ],
      "ERC721InvalidOperator(address)": [
        {
          "details": "Indicates a failure with the `operator` to be approved. Used in approvals.",
          "params": {
            "operator": "Address that may be allowed to operate on tokens without being their owner."
          }
        }
      ],
      "ERC721InvalidOwner(address)": [
        {
          "details": "Indicates that an address can't be an owner. For example, `address(0)` is a forbidden owner in EIP-20. Used in balance queries.",
          "params": {
            "owner": "Address of the current owner of a token."
          }
        }
      ],
      "ERC721InvalidReceiver(address)": [
        {
          "details": "Indicates a failure with the token `receiver`. Used in transfers.",
          "params": {
            "receiver": "Address to which tokens are being transferred."
          }
        }
      ],
      "ERC721InvalidSender(address)": [
        {
          "details": "Indicates a failure with the token `sender`. Used in transfers.",
          "params": {
            "sender": "Address whose tokens are being transferred."
          }
        }
      ],
      "ERC721NonexistentToken(uint256)": [
        {
          "details": "Indicates a `tokenId` whose `owner` is the zero address.",
          "params": {
            "tokenId": "Identifier number of a token."
          }
        }
      ]
    },
    "events": {
      "Approval(address,address,uint256)": {
        "details": "Emitted when `owner` enables `approved` to manage the `tokenId` token."
      },
      "ApprovalForAll(address,address,bool)": {
        "details": "Emitted when `owner` enables or disables (`approved`) `operator` to manage all of its assets."
      },
      "Transfer(address,address,uint256)": {
        "details": "Emitted when `tokenId` token is transferred from `from` to `to`."
      }
    },
    "kind": "dev",
    "methods": {
      "approve(address,uint256)": {
        "details": "See {IERC721-approve}."
      },
      "balanceOf(address)": {
        "details": "See {IERC721-balanceOf}."
      },
      "getApproved(uint256)": {
        "details": "See {IERC721-getApproved}."
      },
      "isApprovedForAll(address,address)": {
        "details": "See {IERC721-isApprovedForAll}."
      },
      "name()": {
        "details": "See {IERC721Metadata-name}."
      },
      "ownerOf(uint256)": {
        "details": "See {IERC721-ownerOf}."
      },
      "safeTransferFrom(address,address,uint256)": {
        "details": "See {IERC721-safeTransferFrom}."
      },
      "safeTransferFrom(address,address,uint256,bytes)": {
        "details": "See {IERC721-safeTransferFrom}."
      },
      "setApprovalForAll(address,bool)": {
        "details": "See {IERC721-setApprovalForAll}."
      },
      "supportsInterface(bytes4)": {
        "details": "See {IERC165-supportsInterface}."
      },
      "symbol()": {
        "details": "See {IERC721Metadata-symbol}."
      },
      "tokenURI(uint256)": {
        "details": "See {IERC721Metadata-tokenURI}."
      },
      "transferFrom(address,address,uint256)": {
        "details": "See {IERC721-transferFrom}."
      }
    },
    "version": 1
  },
  "userdoc": {
    "kind": "user",
    "methods": {},
    "version": 1
  }
}