{
  "contractName": "MyContract",
  "abi": [
    {
      "inputs": [],
      "stateMutability": "nonpayable",
      "type": "constructor"
    },
    {
      "inputs": [
        {
          "internalType": "address",
          "name": "sender",
          "type": "address"
        },
        {
          "internalType": "uint256",
          "name": "tokenId",
          "type": "uint256"
        },
        {
          "internalType": "address",
          "name": "owner",
          "type": "address"
        }
      ],
      "name": "ERC721IncorrectOwner",
      "type": "error"
    },
    {
      "inputs": [
        {
          "internalType": "address",
          "name": "operator",
          "type": "address"
        },
        {
          "internalType": "uint256",
          "name": "tokenId",
          "type": "uint256"
        }
      ],
      "name": "ERC721InsufficientApproval",
      "type": "error"
    },
    {
      "inputs": [
        {
          "internalType": "address",
          "name": "approver",
          "type": "address"
        }
      ],
      "name": "ERC721InvalidApprover",
      "type": "error"
    },
    {
      "inputs": [
        {
          "internalType": "address",
          "name": "operator",
          "type": "address"
        }
      ],
      "name": "ERC721InvalidOperator",
      "type": "error"
    },
    {
      "inputs": [
        {
          "internalType": "address",
          "name": "owner",
          "type": "address"
        }
      ],
      "name": "ERC721InvalidOwner",
      "type": "error"
    },
    {
      "inputs": [
        {
          "internalType": "address",
          "name": "receiver",
          "type": "address"
        }
      ],
      "name": "ERC721InvalidReceiver",
      "type": "error"
    },
    {
      "inputs": [
        {
          "internalType": "address",
          "name": "sender",
          "type": "address"
        }
      ],
      "name": "ERC721InvalidSender",
      "type": "error"
    },
    {
      "inputs": [
        {
          "internalType": "uint256",
          "name": "tokenId",
          "type": "uint256"
        }
      ],
      "name": "ERC721NonexistentToken",
      "type": "error"
    },
    {
      "anonymous": false,
      "inputs": [
        {
          "indexed": true,
          "internalType": "address",
          "name": "owner",
          "type": "address"
        },
        {
          "indexed": true,
          "internalType": "address",
          "name": "approved",
          "type": "address"
        },
        {
          "indexed": true,
          "internalType": "uint256",
          "name": "tokenId",
          "type": "uint256"
        }
      ],
      "name": "Approval",
      "type": "event"
    },
    {
      "anonymous": false,
      "inputs": [
        {
          "indexed": true,
          "internalType": "address",
          "name": "owner",
          "type": "address"
        },
        {
          "indexed": true,
          "internalType": "address",
          "name": "operator",
          "type": "address"
        },
        {
          "indexed": false,
          "internalType": "bool",
          "name": "approved",
          "type": "bool"
        }
      ],
      "name": "ApprovalForAll",
      "type": "event"
    },
    {
      "anonymous": false,
      "inputs": [
        {
          "indexed": true,
          "internalType": "address",
          "name": "from",
          "type": "address"
        },
        {
          "indexed": true,
          "internalType": "address",
          "name": "to",
          "type": "address"
        },
        {
          "indexed": true,
          "internalType": "uint256",
          "name": "tokenId",
          "type": "uint256"
        }
      ],
      "name": "Transfer",
      "type": "event"
    },
    {
      "inputs": [
        {
          "internalType": "address",
          "name": "",
          "type": "address"
        },
        {
          "internalType": "uint256",
          "name": "",
          "type": "uint256"
        }
      ],
      "name": "activeContractsOfWorker",
      "outputs": [
        {
          "internalType": "uint256",
          "name": "",
          "type": "uint256"
        }
      ],
      "stateMutability": "view",
      "type": "function"
    },
    {
      "inputs": [
        {
          "internalType": "address",
          "name": "to",
          "type": "address"
        },
        {
          "internalType": "uint256",
          "name": "tokenId",
          "type": "uint256"
        }
      ],
      "name": "approve",
      "outputs": [],
      "stateMutability": "nonpayable",
      "type": "function"
    },
    {
      "inputs": [
        {
          "internalType": "address",
          "name": "owner",
          "type": "address"
        }
      ],
      "name": "balanceOf",
      "outputs": [
        {
          "internalType": "uint256",
          "name": "",
          "type": "uint256"
        }
      ],
      "stateMutability": "view",
      "type": "function"
    },
    {
      "inputs": [
        {
          "internalType": "uint256",
          "name": "",
          "type": "uint256"
        }
      ],
      "name": "changeProposals",
      "outputs": [
        {
          "internalType": "string",
          "name": "newTitle",
          "type": "string"
        },
        {
          "internalType": "uint256",
          "name": "newSalary",
          "type": "uint256"
        },
        {
          "internalType": "uint256",
          "name": "newDuration",
          "type": "uint256"
        },
        {
          "internalType": "string",
          "name": "newDescription",
          "type": "string"
        },
        {
          "internalType": "bool",
          "name": "isPaused",
          "type": "bool"
        },
        {
          "internalType": "bool",
          "name": "isPending",
          "type": "bool"
        }
      ],
      "stateMutability": "view",
      "type": "function"
    },
    {
      "inputs": [
        {
          "internalType": "uint256",
          "name": "",
          "type": "uint256"
        }
      ],
      "name": "contractDetails",
      "outputs": [
        {
          "internalType": "uint256",
          "name": "salary",
          "type": "uint256"
        },
        {
          "internalType": "uint256",
          "name": "startDate",
          "type": "uint256"
        },
        {
          "internalType": "uint256",
          "name": "duration",
          "type": "uint256"
        },
        {
          "internalType": "string",
          "name": "title",
          "type": "string"
        },
        {
          "internalType": "string",
          "name": "description",
          "type": "string"
        },
        {
          "internalType": "bool",
          "name": "isSigned",
          "type": "bool"
        },
        {
          "internalType": "address",
          "name": "worker",
          "type": "address"
        },
        {
          "internalType": "bool",
          "name": "isFinished",
          "type": "bool"
        },
        {
          "internalType": "bool",
          "name": "isReleased",
          "type": "bool"
        },
        {
          "internalType": "bool",
          "name": "isPaused",
          "type": "bool"
        },
        {
          "internalType": "uint256",
          "name": "pauseTime",
          "type": "uint256"
        },
        {
          "internalType": "uint256",
          "name": "pauseDuration",
          "type": "uint256"
        }
      ],
      "stateMutability": "view",
      "type": "function"
    },
    {
      "inputs": [
        {
          "internalType": "address",
          "name": "",
          "type": "address"
        },
        {
          "internalType": "uint256",
          "name": "",
          "type": "uint256"
        }
      ],
      "name": "contractsOwner",
      "outputs": [
        {
          "internalType": "uint256",
          "name": "",
          "type": "uint256"
        }
      ],
      "stateMutability": "view",
      "type": "function"
    },
    {
      "inputs": [
        {
          "internalType": "uint256",
          "name": "tokenId",
          "type": "uint256"
        }
      ],
      "name": "getApproved",
      "outputs": [
        {
          "internalType": "address",
          "name": "",
          "type": "address"
        }
      ],
      "stateMutability": "view",
      "type": "function"
    },
    {
      "inputs": [
        {
          "internalType": "address",
          "name": "owner",
          "type": "address"
        },
        {
          "internalType": "address",
          "name": "operator",
          "type": "address"
        }
      ],
      "name": "isApprovedForAll",
      "outputs": [
        {
          "internalType": "bool",
          "name": "",
          "type": "bool"
        }
      ],
      "stateMutability": "view",
      "type": "function"
    },
    {
      "inputs": [],
      "name": "name",
      "outputs": [
        {
          "internalType": "string",
          "name": "",
          "type": "string"
        }
      ],
      "stateMutability": "view",
      "type": "function"
    },
    {
      "inputs": [
        {
          "internalType": "uint256",
          "name": "tokenId",
          "type": "uint256"
        }
      ],
      "name": "ownerOf",
      "outputs": [
        {
          "internalType": "address",
          "name": "",
          "type": "address"
        }
      ],
      "stateMutability": "view",
      "type": "function"
    },
    {
      "inputs": [
        {
          "internalType": "address",
          "name": "from",
          "type": "address"
        },
        {
          "internalType": "address",
          "name": "to",
          "type": "address"
        },
        {
          "internalType": "uint256",
          "name": "tokenId",
          "type": "uint256"
        }
      ],
      "name": "safeTransferFrom",
      "outputs": [],
      "stateMutability": "nonpayable",
      "type": "function"
    },
    {
      "inputs": [
        {
          "internalType": "address",
          "name": "from",
          "type": "address"
        },
        {
          "internalType": "address",
          "name": "to",
          "type": "address"
        },
        {
          "internalType": "uint256",
          "name": "tokenId",
          "type": "uint256"
        },
        {
          "internalType": "bytes",
          "name": "data",
          "type": "bytes"
        }
      ],
      "name": "safeTransferFrom",
      "outputs": [],
      "stateMutability": "nonpayable",
      "type": "function"
    },
    {
      "inputs": [
        {
          "internalType": "address",
          "name": "operator",
          "type": "address"
        },
        {
          "internalType": "bool",
          "name": "approved",
          "type": "bool"
        }
      ],
      "name": "setApprovalForAll",
      "outputs": [],
      "stateMutability": "nonpayable",
      "type": "function"
    },
    {
      "inputs": [
        {
          "internalType": "bytes4",
          "name": "interfaceId",
          "type": "bytes4"
        }
      ],
      "name": "supportsInterface",
      "outputs": [
        {
          "internalType": "bool",
          "name": "",
          "type": "bool"
        }
      ],
      "stateMutability": "view",
      "type": "function"
    },
    {
      "inputs": [],
      "name": "symbol",
      "outputs": [
        {
          "internalType": "string",
          "name": "",
          "type": "string"
        }
      ],
      "stateMutability": "view",
      "type": "function"
    },
    {
      "inputs": [],
      "name": "tokenID",
      "outputs": [
        {
          "internalType": "uint256",
          "name": "",
          "type": "uint256"
        }
      ],
      "stateMutability": "view",
      "type": "function"
    },
    {
      "inputs": [
        {
          "internalType": "uint256",
          "name": "",
          "type": "uint256"
        },
        {
          "internalType": "address",
          "name": "",
          "type": "address"
        }
      ],
      "name": "tokenManagers",
      "outputs": [
        {
          "internalType": "bool",
          "name": "",
          "type": "bool"
        }
      ],
      "stateMutability": "view",
      "type": "function"
    },
    {
      "inputs": [
        {
          "internalType": "uint256",
          "name": "",
          "type": "uint256"
        },
        {
          "internalType": "uint256",
          "name": "",
          "type": "uint256"
        }
      ],
      "name": "tokenManagersList",
      "outputs": [
        {
          "internalType": "address",
          "name": "",
          "type": "address"
        }
      ],
      "stateMutability": "view",
      "type": "function"
    },
    {
      "inputs": [
        {
          "internalType": "uint256",
          "name": "tokenId",
          "type": "uint256"
        }
      ],
      "name": "tokenURI",
      "outputs": [
        {
          "internalType": "string",
          "name": "",
          "type": "string"
        }
      ],
      "stateMutability": "view",
      "type": "function"
    },
    {
      "inputs": [
        {
          "internalType": "address",
          "name": "from",
          "type": "address"
        },
        {
          "internalType": "address",
          "name": "to",
          "type": "address"
        },
        {
          "internalType": "uint256",
          "name": "tokenId",
          "type": "uint256"
        }
      ],
      "name": "transferFrom",
      "outputs": [],
      "stateMutability": "nonpayable",
      "type": "function"
    },
    {
      "inputs": [
        {
          "internalType": "address",
          "name": "",
          "type": "address"
        },
        {
          "internalType": "uint256",
          "name": "",
          "type": "uint256"
        }
      ],
      "name": "unsignedContractsOfWorker",
      "outputs": [
        {
          "internalType": "uint256",
          "name": "",
          "type": "uint256"
        }
      ],
      "stateMutability": "view",
      "type": "function"
    },
    {
      "inputs": [
        {
          "internalType": "uint256",
          "name": "_tokenID",
          "type": "uint256"
        }
      ],
      "name": "isContractFinished",
      "outputs": [
        {
          "internalType": "bool",
          "name": "",
          "type": "bool"
        }
      ],
      "stateMutability": "view",
      "type": "function"
    }
  ],
  "bytecode": "0x608060405234801562000010575f80fd5b506040518060400160405280600781526020017f4d79546f6b656e000000000000000000000000000000000000000000000000008152506040518060400160405280600381526020017f4d544b0000000000000000000000000000000000000000000000000000000000815250815f90816200008d91906200030c565b5080600190816200009f91906200030c565b505050620003f0565b5f81519050919050565b7f4e487b71000000000000000000000000000000000000000000000000000000005f52604160045260245ffd5b7f4e487b71000000000000000000000000000000000000000000000000000000005f52602260045260245ffd5b5f60028204905060018216806200012457607f821691505b6020821081036200013a5762000139620000df565b5b50919050565b5f819050815f5260205f209050919050565b5f6020601f8301049050919050565b5f82821b905092915050565b5f600883026200019e7fffffffffffffffffffffffffffffffffffffffffffffffffffffffffffffffff8262000161565b620001aa868362000161565b95508019841693508086168417925050509392505050565b5f819050919050565b5f819050919050565b5f620001f4620001ee620001e884620001c2565b620001cb565b620001c2565b9050919050565b5f819050919050565b6200020f83620001d4565b620002276200021e82620001fb565b8484546200016d565b825550505050565b5f90565b6200023d6200022f565b6200024a81848462000204565b505050565b5b818110156200027157620002655f8262000233565b60018101905062000250565b5050565b601f821115620002c0576200028a8162000140565b620002958462000152565b81016020851015620002a5578190505b620002bd620002b48562000152565b8301826200024f565b50505b505050565b5f82821c905092915050565b5f620002e25f1984600802620002c5565b1980831691505092915050565b5f620002fc8383620002d1565b9150826002028217905092915050565b6200031782620000a8565b67ffffffffffffffff811115620003335762000332620000b2565b5b6200033f82546200010c565b6200034c82828562000275565b5f60209050601f83116001811462000382575f84156200036d578287015190505b620003798582620002ef565b865550620003e8565b601f198416620003928662000140565b5f5b82811015620003bb5784890151825560018201915060208501945060208101905062000394565b86831015620003db5784890151620003d7601f891682620002d1565b8355505b6001600288020188555050505b505050505050565b61261c80620003fe5f395ff3fe608060405234801561000f575f80fd5b5060043610610140575f3560e01c806370a08231116100b6578063bc3a8e9e1161007a578063bc3a8e9e146103b5578063bce87156146103e5578063c87b56dd14610415578063e1b1462014610445578063e985e9c514610475578063fc5a4efe146104a557610140565b806370a082311461031157806395d89b4114610341578063a22cb4651461035f578063a5c42ef11461037b578063b88d4fde1461039957610140565b8063294a793111610108578063294a7931146101fa5780633330a55f1461022a57806336a2d6f51461026557806342842e0e1461029557806345f18460146102b15780636352211e146102e157610140565b806301ffc9a71461014457806306fdde0314610174578063081812fc14610192578063095ea7b3146101c257806323b872dd146101de575b5f80fd5b61015e60048036038101906101599190611bf7565b6104da565b60405161016b9190611c3c565b60405180910390f35b61017c6105bb565b6040516101899190611cdf565b60405180910390f35b6101ac60048036038101906101a79190611d32565b61064a565b6040516101b99190611d9c565b60405180910390f35b6101dc60048036038101906101d79190611ddf565b610665565b005b6101f860048036038101906101f39190611e1d565b61067b565b005b610214600480360381019061020f9190611e6d565b61077a565b6040516102219190611c3c565b60405180910390f35b610244600480360381019061023f9190611d32565b6107a4565b60405161025c9c9b9a99989796959493929190611eba565b60405180910390f35b61027f600480360381019061027a9190611f80565b61095f565b60405161028c9190611d9c565b60405180910390f35b6102af60048036038101906102aa9190611e1d565b6109a7565b005b6102cb60048036038101906102c69190611ddf565b6109c6565b6040516102d89190611fbe565b60405180910390f35b6102fb60048036038101906102f69190611d32565b6109f1565b6040516103089190611d9c565b60405180910390f35b61032b60048036038101906103269190611fd7565b610a02565b6040516103389190611fbe565b60405180910390f35b610349610ab8565b6040516103569190611cdf565b60405180910390f35b6103796004803603810190610374919061202c565b610b48565b005b610383610b5e565b6040516103909190611fbe565b60405180910390f35b6103b360048036038101906103ae9190612196565b610b64565b005b6103cf60048036038101906103ca9190611ddf565b610b81565b6040516103dc9190611fbe565b60405180910390f35b6103ff60048036038101906103fa9190611d32565b610bac565b60405161040c9190611c3c565b60405180910390f35b61042f600480360381019061042a9190611d32565b610d02565b60405161043c9190611cdf565b60405180910390f35b61045f600480360381019061045a9190611ddf565b610d68565b60405161046c9190611fbe565b60405180910390f35b61048f600480360381019061048a9190612216565b610d93565b60405161049c9190611c3c565b60405180910390f35b6104bf60048036038101906104ba9190611d32565b610e21565b6040516104d196959493929190612254565b60405180910390f35b5f7f80ac58cd000000000000000000000000000000000000000000000000000000007bffffffffffffffffffffffffffffffffffffffffffffffffffffffff1916827bffffffffffffffffffffffffffffffffffffffffffffffffffffffff191614806105a457507f5b5e139f000000000000000000000000000000000000000000000000000000007bffffffffffffffffffffffffffffffffffffffffffffffffffffffff1916827bffffffffffffffffffffffffffffffffffffffffffffffffffffffff1916145b806105b457506105b382610f7e565b5b9050919050565b60605f80546105c9906122ee565b80601f01602080910402602001604051908101604052809291908181526020018280546105f5906122ee565b80156106405780601f1061061757610100808354040283529160200191610640565b820191905f5260205f20905b81548152906001019060200180831161062357829003601f168201915b5050505050905090565b5f61065482610fe7565b5061065e8261106d565b9050919050565b61067782826106726110a6565b6110ad565b5050565b5f73ffffffffffffffffffffffffffffffffffffffff168273ffffffffffffffffffffffffffffffffffffffff16036106eb575f6040517f64a0ae920000000000000000000000000000000000000000000000000000000081526004016106e29190611d9c565b60405180910390fd5b5f6106fe83836106f96110a6565b6110bf565b90508373ffffffffffffffffffffffffffffffffffffffff168173ffffffffffffffffffffffffffffffffffffffff1614610774578382826040517f64283d7b00000000000000000000000000000000000000000000000000000000815260040161076b9392919061231e565b60405180910390fd5b50505050565b6008602052815f5260405f20602052805f5260405f205f915091509054906101000a900460ff1681565b6006602052805f5260405f205f91509050805f0154908060010154908060020154908060030180546107d5906122ee565b80601f0160208091040260200160405190810160405280929190818152602001828054610801906122ee565b801561084c5780601f106108235761010080835404028352916020019161084c565b820191905f5260205f20905b81548152906001019060200180831161082f57829003601f168201915b505050505090806004018054610861906122ee565b80601f016020809104026020016040519081016040528092919081815260200182805461088d906122ee565b80156108d85780601f106108af576101008083540402835291602001916108d8565b820191905f5260205f20905b8154815290600101906020018083116108bb57829003601f168201915b505050505090806005015f9054906101000a900460ff16908060050160019054906101000a900473ffffffffffffffffffffffffffffffffffffffff16908060050160159054906101000a900460ff16908060050160169054906101000a900460ff16908060050160179054906101000a900460ff1690806006015490806007015490508c565b600c602052815f5260405f208181548110610978575f80fd5b905f5260205f20015f915091509054906101000a900473ffffffffffffffffffffffffffffffffffffffff1681565b6109c183838360405180602001604052805f815250610b64565b505050565b600b602052815f5260405f2081815481106109df575f80fd5b905f5260205f20015f91509150505481565b5f6109fb82610fe7565b9050919050565b5f8073ffffffffffffffffffffffffffffffffffffffff168273ffffffffffffffffffffffffffffffffffffffff1603610a73575f6040517f89c62b64000000000000000000000000000000000000000000000000000000008152600401610a6a9190611d9c565b60405180910390fd5b60035f8373ffffffffffffffffffffffffffffffffffffffff1673ffffffffffffffffffffffffffffffffffffffff1681526020019081526020015f20549050919050565b606060018054610ac7906122ee565b80601f0160208091040260200160405190810160405280929190818152602001828054610af3906122ee565b8015610b3e5780601f10610b1557610100808354040283529160200191610b3e565b820191905f5260205f20905b815481529060010190602001808311610b2157829003601f168201915b5050505050905090565b610b5a610b536110a6565b83836112ca565b5050565b600d5481565b610b6f84848461067b565b610b7b84848484611433565b50505050565b600a602052815f5260405f208181548110610b9a575f80fd5b905f5260205f20015f91509150505481565b5f3073ffffffffffffffffffffffffffffffffffffffff16636352211e836040518263ffffffff1660e01b8152600401610be69190611fbe565b602060405180830381865afa925050508015610c2057506040513d601f19601f82011682018060405250810190610c1d9190612367565b60015b610c5f576040517f08c379a0000000000000000000000000000000000000000000000000000000008152600401610c56906123dc565b60405180910390fd5b506001151560065f8481526020019081526020015f2060050160159054906101000a900460ff16151503610c965760019050610cfd565b60065f8381526020019081526020015f206007015460065f8481526020019081526020015f206002015460065f8581526020019081526020015f2060010154610cdf9190612427565b610ce99190612427565b421115610cf95760019050610cfd565b5f90505b919050565b6060610d0d82610fe7565b505f610d176115e5565b90505f815111610d355760405180602001604052805f815250610d60565b80610d3f846115fb565b604051602001610d50929190612494565b6040516020818303038152906040525b915050919050565b6009602052815f5260405f208181548110610d81575f80fd5b905f5260205f20015f91509150505481565b5f60055f8473ffffffffffffffffffffffffffffffffffffffff1673ffffffffffffffffffffffffffffffffffffffff1681526020019081526020015f205f8373ffffffffffffffffffffffffffffffffffffffff1673ffffffffffffffffffffffffffffffffffffffff1681526020019081526020015f205f9054906101000a900460ff16905092915050565b6007602052805f5260405f205f91509050805f018054610e40906122ee565b80601f0160208091040260200160405190810160405280929190818152602001828054610e6c906122ee565b8015610eb75780601f10610e8e57610100808354040283529160200191610eb7565b820191905f5260205f20905b815481529060010190602001808311610e9a57829003601f168201915b505050505090806001015490806002015490806003018054610ed8906122ee565b80601f0160208091040260200160405190810160405280929190818152602001828054610f04906122ee565b8015610f4f5780601f10610f2657610100808354040283529160200191610f4f565b820191905f5260205f20905b815481529060010190602001808311610f3257829003601f168201915b505050505090806004015f9054906101000a900460ff16908060040160019054906101000a900460ff16905086565b5f7f01ffc9a7000000000000000000000000000000000000000000000000000000007bffffffffffffffffffffffffffffffffffffffffffffffffffffffff1916827bffffffffffffffffffffffffffffffffffffffffffffffffffffffff1916149050919050565b5f80610ff2836116c5565b90505f73ffffffffffffffffffffffffffffffffffffffff168173ffffffffffffffffffffffffffffffffffffffff160361106457826040517f7e27328900000000000000000000000000000000000000000000000000000000815260040161105b9190611fbe565b60405180910390fd5b80915050919050565b5f60045f8381526020019081526020015f205f9054906101000a900473ffffffffffffffffffffffffffffffffffffffff169050919050565b5f33905090565b6110ba83838360016116fe565b505050565b5f806110ca846116c5565b90505f73ffffffffffffffffffffffffffffffffffffffff168373ffffffffffffffffffffffffffffffffffffffff161461110b5761110a8184866118bd565b5b5f73ffffffffffffffffffffffffffffffffffffffff168173ffffffffffffffffffffffffffffffffffffffff16146111965761114a5f855f806116fe565b600160035f8373ffffffffffffffffffffffffffffffffffffffff1673ffffffffffffffffffffffffffffffffffffffff1681526020019081526020015f205f82825403925050819055505b5f73ffffffffffffffffffffffffffffffffffffffff168573ffffffffffffffffffffffffffffffffffffffff161461121557600160035f8773ffffffffffffffffffffffffffffffffffffffff1673ffffffffffffffffffffffffffffffffffffffff1681526020019081526020015f205f82825401925050819055505b8460025f8681526020019081526020015f205f6101000a81548173ffffffffffffffffffffffffffffffffffffffff021916908373ffffffffffffffffffffffffffffffffffffffff160217905550838573ffffffffffffffffffffffffffffffffffffffff168273ffffffffffffffffffffffffffffffffffffffff167fddf252ad1be2c89b69c2b068fc378daa952ba7f163c4a11628f55a4df523b3ef60405160405180910390a4809150509392505050565b5f73ffffffffffffffffffffffffffffffffffffffff168273ffffffffffffffffffffffffffffffffffffffff160361133a57816040517f5b08ba180000000000000000000000000000000000000000000000000000000081526004016113319190611d9c565b60405180910390fd5b8060055f8573ffffffffffffffffffffffffffffffffffffffff1673ffffffffffffffffffffffffffffffffffffffff1681526020019081526020015f205f8473ffffffffffffffffffffffffffffffffffffffff1673ffffffffffffffffffffffffffffffffffffffff1681526020019081526020015f205f6101000a81548160ff0219169083151502179055508173ffffffffffffffffffffffffffffffffffffffff168373ffffffffffffffffffffffffffffffffffffffff167f17307eab39ab6107e8899845ad3d59bd9653f200f220920489ca2b5937696c31836040516114269190611c3c565b60405180910390a3505050565b5f8373ffffffffffffffffffffffffffffffffffffffff163b11156115df578273ffffffffffffffffffffffffffffffffffffffff1663150b7a026114766110a6565b8685856040518563ffffffff1660e01b81526004016114989493929190612509565b6020604051808303815f875af19250505080156114d357506040513d601f19601f820116820180604052508101906114d09190612567565b60015b611554573d805f8114611501576040519150601f19603f3d011682016040523d82523d5f602084013e611506565b606091505b505f81510361154c57836040517f64a0ae920000000000000000000000000000000000000000000000000000000081526004016115439190611d9c565b60405180910390fd5b805181602001fd5b63150b7a0260e01b7bffffffffffffffffffffffffffffffffffffffffffffffffffffffff1916817bffffffffffffffffffffffffffffffffffffffffffffffffffffffff1916146115dd57836040517f64a0ae920000000000000000000000000000000000000000000000000000000081526004016115d49190611d9c565b60405180910390fd5b505b50505050565b606060405180602001604052805f815250905090565b60605f600161160984611980565b0190505f8167ffffffffffffffff81111561162757611626612072565b5b6040519080825280601f01601f1916602001820160405280156116595781602001600182028036833780820191505090505b5090505f82602001820190505b6001156116ba578080600190039150507f3031323334353637383961626364656600000000000000000000000000000000600a86061a8153600a85816116af576116ae612592565b5b0494505f8503611666575b819350505050919050565b5f60025f8381526020019081526020015f205f9054906101000a900473ffffffffffffffffffffffffffffffffffffffff169050919050565b808061173657505f73ffffffffffffffffffffffffffffffffffffffff168273ffffffffffffffffffffffffffffffffffffffff1614155b15611868575f61174584610fe7565b90505f73ffffffffffffffffffffffffffffffffffffffff168373ffffffffffffffffffffffffffffffffffffffff16141580156117af57508273ffffffffffffffffffffffffffffffffffffffff168173ffffffffffffffffffffffffffffffffffffffff1614155b80156117c257506117c08184610d93565b155b1561180457826040517fa9fbf51f0000000000000000000000000000000000000000000000000000000081526004016117fb9190611d9c565b60405180910390fd5b811561186657838573ffffffffffffffffffffffffffffffffffffffff168273ffffffffffffffffffffffffffffffffffffffff167f8c5be1e5ebec7d5bd14f71427d1e84f3dd0314c0f7b2291e5b200ac8c7c3b92560405160405180910390a45b505b8360045f8581526020019081526020015f205f6101000a81548173ffffffffffffffffffffffffffffffffffffffff021916908373ffffffffffffffffffffffffffffffffffffffff16021790555050505050565b6118c8838383611ad1565b61197b575f73ffffffffffffffffffffffffffffffffffffffff168373ffffffffffffffffffffffffffffffffffffffff160361193c57806040517f7e2732890000000000000000000000000000000000000000000000000000000081526004016119339190611fbe565b60405180910390fd5b81816040517f177e802f0000000000000000000000000000000000000000000000000000000081526004016119729291906125bf565b60405180910390fd5b505050565b5f805f90507a184f03e93ff9f4daa797ed6e38ed64bf6a1f01000000000000000083106119dc577a184f03e93ff9f4daa797ed6e38ed64bf6a1f01000000000000000083816119d2576119d1612592565b5b0492506040810190505b6d04ee2d6d415b85acef81000000008310611a19576d04ee2d6d415b85acef81000000008381611a0f57611a0e612592565b5b0492506020810190505b662386f26fc100008310611a4857662386f26fc100008381611a3e57611a3d612592565b5b0492506010810190505b6305f5e1008310611a71576305f5e1008381611a6757611a66612592565b5b0492506008810190505b6127108310611a96576127108381611a8c57611a8b612592565b5b0492506004810190505b60648310611ab95760648381611aaf57611aae612592565b5b0492506002810190505b600a8310611ac8576001810190505b80915050919050565b5f8073ffffffffffffffffffffffffffffffffffffffff168373ffffffffffffffffffffffffffffffffffffffff1614158015611b8857508273ffffffffffffffffffffffffffffffffffffffff168473ffffffffffffffffffffffffffffffffffffffff161480611b495750611b488484610d93565b5b80611b8757508273ffffffffffffffffffffffffffffffffffffffff16611b6f8361106d565b73ffffffffffffffffffffffffffffffffffffffff16145b5b90509392505050565b5f604051905090565b5f80fd5b5f80fd5b5f7fffffffff0000000000000000000000000000000000000000000000000000000082169050919050565b611bd681611ba2565b8114611be0575f80fd5b50565b5f81359050611bf181611bcd565b92915050565b5f60208284031215611c0c57611c0b611b9a565b5b5f611c1984828501611be3565b91505092915050565b5f8115159050919050565b611c3681611c22565b82525050565b5f602082019050611c4f5f830184611c2d565b92915050565b5f81519050919050565b5f82825260208201905092915050565b5f5b83811015611c8c578082015181840152602081019050611c71565b5f8484015250505050565b5f601f19601f8301169050919050565b5f611cb182611c55565b611cbb8185611c5f565b9350611ccb818560208601611c6f565b611cd481611c97565b840191505092915050565b5f6020820190508181035f830152611cf78184611ca7565b905092915050565b5f819050919050565b611d1181611cff565b8114611d1b575f80fd5b50565b5f81359050611d2c81611d08565b92915050565b5f60208284031215611d4757611d46611b9a565b5b5f611d5484828501611d1e565b91505092915050565b5f73ffffffffffffffffffffffffffffffffffffffff82169050919050565b5f611d8682611d5d565b9050919050565b611d9681611d7c565b82525050565b5f602082019050611daf5f830184611d8d565b92915050565b611dbe81611d7c565b8114611dc8575f80fd5b50565b5f81359050611dd981611db5565b92915050565b5f8060408385031215611df557611df4611b9a565b5b5f611e0285828601611dcb565b9250506020611e1385828601611d1e565b9150509250929050565b5f805f60608486031215611e3457611e33611b9a565b5b5f611e4186828701611dcb565b9350506020611e5286828701611dcb565b9250506040611e6386828701611d1e565b9150509250925092565b5f8060408385031215611e8357611e82611b9a565b5b5f611e9085828601611d1e565b9250506020611ea185828601611dcb565b9150509250929050565b611eb481611cff565b82525050565b5f61018082019050611ece5f83018f611eab565b611edb602083018e611eab565b611ee8604083018d611eab565b8181036060830152611efa818c611ca7565b90508181036080830152611f0e818b611ca7565b9050611f1d60a083018a611c2d565b611f2a60c0830189611d8d565b611f3760e0830188611c2d565b611f45610100830187611c2d565b611f53610120830186611c2d565b611f61610140830185611eab565b611f6f610160830184611eab565b9d9c50505050505050505050505050565b5f8060408385031215611f9657611f95611b9a565b5b5f611fa385828601611d1e565b9250506020611fb485828601611d1e565b9150509250929050565b5f602082019050611fd15f830184611eab565b92915050565b5f60208284031215611fec57611feb611b9a565b5b5f611ff984828501611dcb565b91505092915050565b61200b81611c22565b8114612015575f80fd5b50565b5f8135905061202681612002565b92915050565b5f806040838503121561204257612041611b9a565b5b5f61204f85828601611dcb565b925050602061206085828601612018565b9150509250929050565b5f80fd5b5f80fd5b7f4e487b71000000000000000000000000000000000000000000000000000000005f52604160045260245ffd5b6120a882611c97565b810181811067ffffffffffffffff821117156120c7576120c6612072565b5b80604052505050565b5f6120d9611b91565b90506120e5828261209f565b919050565b5f67ffffffffffffffff82111561210457612103612072565b5b61210d82611c97565b9050602081019050919050565b828183375f83830152505050565b5f61213a612135846120ea565b6120d0565b9050828152602081018484840111156121565761215561206e565b5b61216184828561211a565b509392505050565b5f82601f83011261217d5761217c61206a565b5b813561218d848260208601612128565b91505092915050565b5f805f80608085870312156121ae576121ad611b9a565b5b5f6121bb87828801611dcb565b94505060206121cc87828801611dcb565b93505060406121dd87828801611d1e565b925050606085013567ffffffffffffffff8111156121fe576121fd611b9e565b5b61220a87828801612169565b91505092959194509250565b5f806040838503121561222c5761222b611b9a565b5b5f61223985828601611dcb565b925050602061224a85828601611dcb565b9150509250929050565b5f60c0820190508181035f83015261226c8189611ca7565b905061227b6020830188611eab565b6122886040830187611eab565b818103606083015261229a8186611ca7565b90506122a96080830185611c2d565b6122b660a0830184611c2d565b979650505050505050565b7f4e487b71000000000000000000000000000000000000000000000000000000005f52602260045260245ffd5b5f600282049050600182168061230557607f821691505b602082108103612318576123176122c1565b5b50919050565b5f6060820190506123315f830186611d8d565b61233e6020830185611eab565b61234b6040830184611d8d565b949350505050565b5f8151905061236181611db5565b92915050565b5f6020828403121561237c5761237b611b9a565b5b5f61238984828501612353565b91505092915050565b7f456c20746f6b656e206e6f206578697374652e000000000000000000000000005f82015250565b5f6123c6601383611c5f565b91506123d182612392565b602082019050919050565b5f6020820190508181035f8301526123f3816123ba565b9050919050565b7f4e487b71000000000000000000000000000000000000000000000000000000005f52601160045260245ffd5b5f61243182611cff565b915061243c83611cff565b9250828201905080821115612454576124536123fa565b5b92915050565b5f81905092915050565b5f61246e82611c55565b612478818561245a565b9350612488818560208601611c6f565b80840191505092915050565b5f61249f8285612464565b91506124ab8284612464565b91508190509392505050565b5f81519050919050565b5f82825260208201905092915050565b5f6124db826124b7565b6124e581856124c1565b93506124f5818560208601611c6f565b6124fe81611c97565b840191505092915050565b5f60808201905061251c5f830187611d8d565b6125296020830186611d8d565b6125366040830185611eab565b818103606083015261254881846124d1565b905095945050505050565b5f8151905061256181611bcd565b92915050565b5f6020828403121561257c5761257b611b9a565b5b5f61258984828501612553565b91505092915050565b7f4e487b71000000000000000000000000000000000000000000000000000000005f52601260045260245ffd5b5f6040820190506125d25f830185611d8d565b6125df6020830184611eab565b939250505056fea26469706673582212202c929721910d90b8e74c28b31f19d3c83254f808967f20e583017778775edaae64736f6c63430008140033",
  "immutableReferences": {},
  "source": "// SPDX-License-Identifier: MIT\r\npragma solidity ^0.8.20;\r\n\r\nimport \"@openzeppelin/contracts/token/ERC721/ERC721.sol\";\r\n\r\ncontract MyContract is ERC721 {\r\n\r\n    struct ContractDetails {\r\n        uint256 salary;\r\n        uint256 startDate;\r\n        uint256 duration;\r\n        string title;\r\n        string description;\r\n        bool isSigned;\r\n        address worker;\r\n        bool isFinished;\r\n        bool isReleased;\r\n        bool isPaused;\r\n        uint256 pauseTime;\r\n        uint256 pauseDuration;\r\n    }\r\n\r\n    struct ChangeProposal {\r\n        string newTitle;\r\n        uint256 newSalary;\r\n        uint256 newDuration;\r\n        string newDescription;\r\n        bool isPaused;\r\n        bool isPending;\r\n    }\r\n\r\n    mapping(uint256 => ContractDetails) public contractDetails;\r\n    mapping(uint256 => ChangeProposal) public changeProposals;\r\n    mapping(uint256 => mapping(address => bool)) public tokenManagers;\r\n    mapping(address => uint256[]) public contractsOwner;\r\n    mapping(address => uint256[]) public activeContractsOfWorker;\r\n    mapping(address => uint256[]) public unsignedContractsOfWorker;\r\n    mapping(uint256 => address[]) public tokenManagersList;\r\n    uint256 public tokenID;\r\n\r\n\r\n    function isContractFinished(uint256 _tokenID) public view returns (bool) {\r\n        try this.ownerOf(_tokenID) {} catch {\r\n            revert(\"El token no existe.\"); \r\n        }\r\n        \r\n        if (contractDetails[_tokenID].isFinished == true) {\r\n            return true;\r\n        }\r\n        if (\r\n            block.timestamp >\r\n            contractDetails[_tokenID].startDate +\r\n                contractDetails[_tokenID].duration +\r\n                contractDetails[_tokenID].pauseDuration\r\n        ) {\r\n            return true;\r\n        }\r\n        return false;\r\n    }\r\n\r\n\r\n    function removeContractFromOwner(\r\n        uint256 _tokenID,\r\n        address _owner\r\n    ) internal {\r\n        try this.ownerOf(_tokenID) {} catch {\r\n            revert(\"El token no existe.\"); \r\n        }\r\n        require(\r\n            ownerOf(_tokenID) == _owner,\r\n            \"El propietario no coincide con el propietario del token\"\r\n        );\r\n\r\n        uint256 contractIndex;\r\n        uint256 lastContractIndex = contractsOwner[_owner].length - 1;\r\n\r\n        for (uint i = 0; i < contractsOwner[_owner].length; i++) {\r\n            if (contractsOwner[_owner][i] == _tokenID) {\r\n                contractIndex = i;\r\n                break;\r\n            }\r\n        }\r\n\r\n        if (contractIndex != lastContractIndex) {\r\n            contractsOwner[_owner][contractIndex] = contractsOwner[_owner][\r\n                lastContractIndex\r\n            ];\r\n        }\r\n        contractsOwner[_owner].pop();\r\n    }\r\n\r\n    constructor() ERC721(\"MyToken\", \"MTK\") {}\r\n}\r\n",
  "sourcePath": "E:\\AppContract\\ubu-contractme\\Code\\SmartContract\\contracts\\MyContract.sol",
  "compiler": {
    "name": "solc",
    "version": "0.8.20+commit.a1b79de6.Emscripten.clang"
  },
  "schemaVersion": "3.4.16",
  "updatedAt": "2024-02-25T19:55:14.442Z",
  "devdoc": {
    "errors": {
      "ERC721IncorrectOwner(address,uint256,address)": [
        {
          "details": "Indicates an error related to the ownership over a particular token. Used in transfers.",
          "params": {
            "owner": "Address of the current owner of a token.",
            "sender": "Address whose tokens are being transferred.",
            "tokenId": "Identifier number of a token."
          }
        }
      ],
      "ERC721InsufficientApproval(address,uint256)": [
        {
          "details": "Indicates a failure with the `operator`s approval. Used in transfers.",
          "params": {
            "operator": "Address that may be allowed to operate on tokens without being their owner.",
            "tokenId": "Identifier number of a token."
          }
        }
      ],
      "ERC721InvalidApprover(address)": [
        {
          "details": "Indicates a failure with the `approver` of a token to be approved. Used in approvals.",
          "params": {
            "approver": "Address initiating an approval operation."
          }
        }
      ],
      "ERC721InvalidOperator(address)": [
        {
          "details": "Indicates a failure with the `operator` to be approved. Used in approvals.",
          "params": {
            "operator": "Address that may be allowed to operate on tokens without being their owner."
          }
        }
      ],
      "ERC721InvalidOwner(address)": [
        {
          "details": "Indicates that an address can't be an owner. For example, `address(0)` is a forbidden owner in EIP-20. Used in balance queries.",
          "params": {
            "owner": "Address of the current owner of a token."
          }
        }
      ],
      "ERC721InvalidReceiver(address)": [
        {
          "details": "Indicates a failure with the token `receiver`. Used in transfers.",
          "params": {
            "receiver": "Address to which tokens are being transferred."
          }
        }
      ],
      "ERC721InvalidSender(address)": [
        {
          "details": "Indicates a failure with the token `sender`. Used in transfers.",
          "params": {
            "sender": "Address whose tokens are being transferred."
          }
        }
      ],
      "ERC721NonexistentToken(uint256)": [
        {
          "details": "Indicates a `tokenId` whose `owner` is the zero address.",
          "params": {
            "tokenId": "Identifier number of a token."
          }
        }
      ]
    },
    "events": {
      "Approval(address,address,uint256)": {
        "details": "Emitted when `owner` enables `approved` to manage the `tokenId` token."
      },
      "ApprovalForAll(address,address,bool)": {
        "details": "Emitted when `owner` enables or disables (`approved`) `operator` to manage all of its assets."
      },
      "Transfer(address,address,uint256)": {
        "details": "Emitted when `tokenId` token is transferred from `from` to `to`."
      }
    },
    "kind": "dev",
    "methods": {
      "approve(address,uint256)": {
        "details": "See {IERC721-approve}."
      },
      "balanceOf(address)": {
        "details": "See {IERC721-balanceOf}."
      },
      "getApproved(uint256)": {
        "details": "See {IERC721-getApproved}."
      },
      "isApprovedForAll(address,address)": {
        "details": "See {IERC721-isApprovedForAll}."
      },
      "name()": {
        "details": "See {IERC721Metadata-name}."
      },
      "ownerOf(uint256)": {
        "details": "See {IERC721-ownerOf}."
      },
      "safeTransferFrom(address,address,uint256)": {
        "details": "See {IERC721-safeTransferFrom}."
      },
      "safeTransferFrom(address,address,uint256,bytes)": {
        "details": "See {IERC721-safeTransferFrom}."
      },
      "setApprovalForAll(address,bool)": {
        "details": "See {IERC721-setApprovalForAll}."
      },
      "supportsInterface(bytes4)": {
        "details": "See {IERC165-supportsInterface}."
      },
      "symbol()": {
        "details": "See {IERC721Metadata-symbol}."
      },
      "tokenURI(uint256)": {
        "details": "See {IERC721Metadata-tokenURI}."
      },
      "transferFrom(address,address,uint256)": {
        "details": "See {IERC721-transferFrom}."
      }
    },
    "version": 1
  },
  "userdoc": {
    "kind": "user",
    "methods": {},
    "version": 1
  }
}