{
  "contractName": "MyContract",
  "abi": [
    {
      "inputs": [],
      "stateMutability": "nonpayable",
      "type": "constructor"
    },
    {
      "inputs": [],
      "name": "AccessControlBadConfirmation",
      "type": "error"
    },
    {
      "inputs": [
        {
          "internalType": "address",
          "name": "account",
          "type": "address"
        },
        {
          "internalType": "bytes32",
          "name": "neededRole",
          "type": "bytes32"
        }
      ],
      "name": "AccessControlUnauthorizedAccount",
      "type": "error"
    },
    {
      "inputs": [
        {
          "internalType": "address",
          "name": "sender",
          "type": "address"
        },
        {
          "internalType": "uint256",
          "name": "tokenId",
          "type": "uint256"
        },
        {
          "internalType": "address",
          "name": "owner",
          "type": "address"
        }
      ],
      "name": "ERC721IncorrectOwner",
      "type": "error"
    },
    {
      "inputs": [
        {
          "internalType": "address",
          "name": "operator",
          "type": "address"
        },
        {
          "internalType": "uint256",
          "name": "tokenId",
          "type": "uint256"
        }
      ],
      "name": "ERC721InsufficientApproval",
      "type": "error"
    },
    {
      "inputs": [
        {
          "internalType": "address",
          "name": "approver",
          "type": "address"
        }
      ],
      "name": "ERC721InvalidApprover",
      "type": "error"
    },
    {
      "inputs": [
        {
          "internalType": "address",
          "name": "operator",
          "type": "address"
        }
      ],
      "name": "ERC721InvalidOperator",
      "type": "error"
    },
    {
      "inputs": [
        {
          "internalType": "address",
          "name": "owner",
          "type": "address"
        }
      ],
      "name": "ERC721InvalidOwner",
      "type": "error"
    },
    {
      "inputs": [
        {
          "internalType": "address",
          "name": "receiver",
          "type": "address"
        }
      ],
      "name": "ERC721InvalidReceiver",
      "type": "error"
    },
    {
      "inputs": [
        {
          "internalType": "address",
          "name": "sender",
          "type": "address"
        }
      ],
      "name": "ERC721InvalidSender",
      "type": "error"
    },
    {
      "inputs": [
        {
          "internalType": "uint256",
          "name": "tokenId",
          "type": "uint256"
        }
      ],
      "name": "ERC721NonexistentToken",
      "type": "error"
    },
    {
      "anonymous": false,
      "inputs": [
        {
          "indexed": true,
          "internalType": "address",
          "name": "owner",
          "type": "address"
        },
        {
          "indexed": true,
          "internalType": "address",
          "name": "approved",
          "type": "address"
        },
        {
          "indexed": true,
          "internalType": "uint256",
          "name": "tokenId",
          "type": "uint256"
        }
      ],
      "name": "Approval",
      "type": "event"
    },
    {
      "anonymous": false,
      "inputs": [
        {
          "indexed": true,
          "internalType": "address",
          "name": "owner",
          "type": "address"
        },
        {
          "indexed": true,
          "internalType": "address",
          "name": "operator",
          "type": "address"
        },
        {
          "indexed": false,
          "internalType": "bool",
          "name": "approved",
          "type": "bool"
        }
      ],
      "name": "ApprovalForAll",
      "type": "event"
    },
    {
      "anonymous": false,
      "inputs": [
        {
          "indexed": true,
          "internalType": "uint256",
          "name": "tokenId",
          "type": "uint256"
        }
      ],
      "name": "ContractCancelled",
      "type": "event"
    },
    {
      "anonymous": false,
      "inputs": [
        {
          "indexed": true,
          "internalType": "uint256",
          "name": "tokenId",
          "type": "uint256"
        },
        {
          "indexed": false,
          "internalType": "address",
          "name": "worker",
          "type": "address"
        }
      ],
      "name": "ContractSigned",
      "type": "event"
    },
    {
      "anonymous": false,
      "inputs": [
        {
          "indexed": true,
          "internalType": "bytes32",
          "name": "role",
          "type": "bytes32"
        },
        {
          "indexed": true,
          "internalType": "bytes32",
          "name": "previousAdminRole",
          "type": "bytes32"
        },
        {
          "indexed": true,
          "internalType": "bytes32",
          "name": "newAdminRole",
          "type": "bytes32"
        }
      ],
      "name": "RoleAdminChanged",
      "type": "event"
    },
    {
      "anonymous": false,
      "inputs": [
        {
          "indexed": true,
          "internalType": "bytes32",
          "name": "role",
          "type": "bytes32"
        },
        {
          "indexed": true,
          "internalType": "address",
          "name": "account",
          "type": "address"
        },
        {
          "indexed": true,
          "internalType": "address",
          "name": "sender",
          "type": "address"
        }
      ],
      "name": "RoleGranted",
      "type": "event"
    },
    {
      "anonymous": false,
      "inputs": [
        {
          "indexed": true,
          "internalType": "bytes32",
          "name": "role",
          "type": "bytes32"
        },
        {
          "indexed": true,
          "internalType": "address",
          "name": "account",
          "type": "address"
        },
        {
          "indexed": true,
          "internalType": "address",
          "name": "sender",
          "type": "address"
        }
      ],
      "name": "RoleRevoked",
      "type": "event"
    },
    {
      "anonymous": false,
      "inputs": [
        {
          "indexed": true,
          "internalType": "uint256",
          "name": "tokenId",
          "type": "uint256"
        },
        {
          "indexed": false,
          "internalType": "uint256",
          "name": "salary",
          "type": "uint256"
        }
      ],
      "name": "SalaryReleased",
      "type": "event"
    },
    {
      "anonymous": false,
      "inputs": [
        {
          "indexed": false,
          "internalType": "uint256",
          "name": "tokenId",
          "type": "uint256"
        }
      ],
      "name": "TokenMinted",
      "type": "event"
    },
    {
      "anonymous": false,
      "inputs": [
        {
          "indexed": true,
          "internalType": "address",
          "name": "from",
          "type": "address"
        },
        {
          "indexed": true,
          "internalType": "address",
          "name": "to",
          "type": "address"
        },
        {
          "indexed": true,
          "internalType": "uint256",
          "name": "tokenId",
          "type": "uint256"
        }
      ],
      "name": "Transfer",
      "type": "event"
    },
    {
      "inputs": [],
      "name": "CONTRACT_MANAGER_ROLE",
      "outputs": [
        {
          "internalType": "bytes32",
          "name": "",
          "type": "bytes32"
        }
      ],
      "stateMutability": "view",
      "type": "function",
      "constant": true
    },
    {
      "inputs": [],
      "name": "DEFAULT_ADMIN_ROLE",
      "outputs": [
        {
          "internalType": "bytes32",
          "name": "",
          "type": "bytes32"
        }
      ],
      "stateMutability": "view",
      "type": "function",
      "constant": true
    },
    {
      "inputs": [
        {
          "internalType": "address",
          "name": "to",
          "type": "address"
        },
        {
          "internalType": "uint256",
          "name": "tokenId",
          "type": "uint256"
        }
      ],
      "name": "approve",
      "outputs": [],
      "stateMutability": "nonpayable",
      "type": "function"
    },
    {
      "inputs": [
        {
          "internalType": "address",
          "name": "owner",
          "type": "address"
        }
      ],
      "name": "balanceOf",
      "outputs": [
        {
          "internalType": "uint256",
          "name": "",
          "type": "uint256"
        }
      ],
      "stateMutability": "view",
      "type": "function",
      "constant": true
    },
    {
      "inputs": [
        {
          "internalType": "uint256",
          "name": "",
          "type": "uint256"
        }
      ],
      "name": "contractDetails",
      "outputs": [
        {
          "internalType": "uint256",
          "name": "salary",
          "type": "uint256"
        },
        {
          "internalType": "uint256",
          "name": "startDate",
          "type": "uint256"
        },
        {
          "internalType": "uint256",
          "name": "duration",
          "type": "uint256"
        },
        {
          "internalType": "string",
          "name": "description",
          "type": "string"
        },
        {
          "internalType": "bool",
          "name": "isSigned",
          "type": "bool"
        },
        {
          "internalType": "address",
          "name": "worker",
          "type": "address"
        },
        {
          "internalType": "bool",
          "name": "isFinished",
          "type": "bool"
        },
        {
          "internalType": "bool",
          "name": "isPaused",
          "type": "bool"
        },
        {
          "internalType": "uint256",
          "name": "pauseTime",
          "type": "uint256"
        },
        {
          "internalType": "uint256",
          "name": "pauseDuration",
          "type": "uint256"
        }
      ],
      "stateMutability": "view",
      "type": "function",
      "constant": true
    },
    {
      "inputs": [
        {
          "internalType": "uint256",
          "name": "tokenId",
          "type": "uint256"
        }
      ],
      "name": "getApproved",
      "outputs": [
        {
          "internalType": "address",
          "name": "",
          "type": "address"
        }
      ],
      "stateMutability": "view",
      "type": "function",
      "constant": true
    },
    {
      "inputs": [
        {
          "internalType": "bytes32",
          "name": "role",
          "type": "bytes32"
        }
      ],
      "name": "getRoleAdmin",
      "outputs": [
        {
          "internalType": "bytes32",
          "name": "",
          "type": "bytes32"
        }
      ],
      "stateMutability": "view",
      "type": "function",
      "constant": true
    },
    {
      "inputs": [
        {
          "internalType": "bytes32",
          "name": "role",
          "type": "bytes32"
        },
        {
          "internalType": "address",
          "name": "account",
          "type": "address"
        }
      ],
      "name": "grantRole",
      "outputs": [],
      "stateMutability": "nonpayable",
      "type": "function"
    },
    {
      "inputs": [
        {
          "internalType": "bytes32",
          "name": "role",
          "type": "bytes32"
        },
        {
          "internalType": "address",
          "name": "account",
          "type": "address"
        }
      ],
      "name": "hasRole",
      "outputs": [
        {
          "internalType": "bool",
          "name": "",
          "type": "bool"
        }
      ],
      "stateMutability": "view",
      "type": "function",
      "constant": true
    },
    {
      "inputs": [
        {
          "internalType": "address",
          "name": "owner",
          "type": "address"
        },
        {
          "internalType": "address",
          "name": "operator",
          "type": "address"
        }
      ],
      "name": "isApprovedForAll",
      "outputs": [
        {
          "internalType": "bool",
          "name": "",
          "type": "bool"
        }
      ],
      "stateMutability": "view",
      "type": "function",
      "constant": true
    },
    {
      "inputs": [],
      "name": "name",
      "outputs": [
        {
          "internalType": "string",
          "name": "",
          "type": "string"
        }
      ],
      "stateMutability": "view",
      "type": "function",
      "constant": true
    },
    {
      "inputs": [
        {
          "internalType": "uint256",
          "name": "tokenId",
          "type": "uint256"
        }
      ],
      "name": "ownerOf",
      "outputs": [
        {
          "internalType": "address",
          "name": "",
          "type": "address"
        }
      ],
      "stateMutability": "view",
      "type": "function",
      "constant": true
    },
    {
      "inputs": [
        {
          "internalType": "bytes32",
          "name": "role",
          "type": "bytes32"
        },
        {
          "internalType": "address",
          "name": "callerConfirmation",
          "type": "address"
        }
      ],
      "name": "renounceRole",
      "outputs": [],
      "stateMutability": "nonpayable",
      "type": "function"
    },
    {
      "inputs": [
        {
          "internalType": "bytes32",
          "name": "role",
          "type": "bytes32"
        },
        {
          "internalType": "address",
          "name": "account",
          "type": "address"
        }
      ],
      "name": "revokeRole",
      "outputs": [],
      "stateMutability": "nonpayable",
      "type": "function"
    },
    {
      "inputs": [
        {
          "internalType": "address",
          "name": "from",
          "type": "address"
        },
        {
          "internalType": "address",
          "name": "to",
          "type": "address"
        },
        {
          "internalType": "uint256",
          "name": "tokenId",
          "type": "uint256"
        }
      ],
      "name": "safeTransferFrom",
      "outputs": [],
      "stateMutability": "nonpayable",
      "type": "function"
    },
    {
      "inputs": [
        {
          "internalType": "address",
          "name": "from",
          "type": "address"
        },
        {
          "internalType": "address",
          "name": "to",
          "type": "address"
        },
        {
          "internalType": "uint256",
          "name": "tokenId",
          "type": "uint256"
        },
        {
          "internalType": "bytes",
          "name": "data",
          "type": "bytes"
        }
      ],
      "name": "safeTransferFrom",
      "outputs": [],
      "stateMutability": "nonpayable",
      "type": "function"
    },
    {
      "inputs": [
        {
          "internalType": "address",
          "name": "operator",
          "type": "address"
        },
        {
          "internalType": "bool",
          "name": "approved",
          "type": "bool"
        }
      ],
      "name": "setApprovalForAll",
      "outputs": [],
      "stateMutability": "nonpayable",
      "type": "function"
    },
    {
      "inputs": [],
      "name": "symbol",
      "outputs": [
        {
          "internalType": "string",
          "name": "",
          "type": "string"
        }
      ],
      "stateMutability": "view",
      "type": "function",
      "constant": true
    },
    {
      "inputs": [
        {
          "internalType": "uint256",
          "name": "tokenId",
          "type": "uint256"
        }
      ],
      "name": "tokenURI",
      "outputs": [
        {
          "internalType": "string",
          "name": "",
          "type": "string"
        }
      ],
      "stateMutability": "view",
      "type": "function",
      "constant": true
    },
    {
      "inputs": [
        {
          "internalType": "address",
          "name": "from",
          "type": "address"
        },
        {
          "internalType": "address",
          "name": "to",
          "type": "address"
        },
        {
          "internalType": "uint256",
          "name": "tokenId",
          "type": "uint256"
        }
      ],
      "name": "transferFrom",
      "outputs": [],
      "stateMutability": "nonpayable",
      "type": "function"
    },
    {
      "inputs": [
        {
          "internalType": "bytes4",
          "name": "interfaceId",
          "type": "bytes4"
        }
      ],
      "name": "supportsInterface",
      "outputs": [
        {
          "internalType": "bool",
          "name": "",
          "type": "bool"
        }
      ],
      "stateMutability": "view",
      "type": "function",
      "constant": true
    },
    {
      "inputs": [
        {
          "internalType": "address",
          "name": "_to",
          "type": "address"
        },
        {
          "internalType": "uint256",
          "name": "_salary",
          "type": "uint256"
        },
        {
          "internalType": "uint256",
          "name": "_duration",
          "type": "uint256"
        },
        {
          "internalType": "string",
          "name": "_description",
          "type": "string"
        }
      ],
      "name": "mint",
      "outputs": [
        {
          "internalType": "uint256",
          "name": "",
          "type": "uint256"
        }
      ],
      "stateMutability": "payable",
      "type": "function",
      "payable": true
    },
    {
      "inputs": [
        {
          "internalType": "uint256",
          "name": "_tokenID",
          "type": "uint256"
        }
      ],
      "name": "signContract",
      "outputs": [],
      "stateMutability": "nonpayable",
      "type": "function"
    },
    {
      "inputs": [
        {
          "internalType": "uint256",
          "name": "_tokenID",
          "type": "uint256"
        }
      ],
      "name": "releaseSalary",
      "outputs": [],
      "stateMutability": "payable",
      "type": "function",
      "payable": true
    },
    {
      "inputs": [
        {
          "internalType": "uint256",
          "name": "_tokenID",
          "type": "uint256"
        }
      ],
      "name": "finalizeContract",
      "outputs": [],
      "stateMutability": "nonpayable",
      "type": "function"
    },
    {
      "inputs": [
        {
          "internalType": "uint256",
          "name": "_tokenID",
          "type": "uint256"
        }
      ],
      "name": "pauseContract",
      "outputs": [],
      "stateMutability": "nonpayable",
      "type": "function"
    },
    {
      "inputs": [
        {
          "internalType": "uint256",
          "name": "_tokenID",
          "type": "uint256"
        }
      ],
      "name": "unPauseContract",
      "outputs": [],
      "stateMutability": "nonpayable",
      "type": "function"
    },
    {
      "inputs": [
        {
          "internalType": "uint256",
          "name": "_tokenID",
          "type": "uint256"
        }
      ],
      "name": "cancelContract",
      "outputs": [],
      "stateMutability": "nonpayable",
      "type": "function"
    },
    {
      "inputs": [
        {
          "internalType": "address",
          "name": "_newManager",
          "type": "address"
        }
      ],
      "name": "assignManager",
      "outputs": [],
      "stateMutability": "nonpayable",
      "type": "function"
    },
    {
      "inputs": [
        {
          "internalType": "address",
          "name": "_manager",
          "type": "address"
        }
      ],
      "name": "revokeManager",
      "outputs": [],
      "stateMutability": "nonpayable",
      "type": "function"
    }
  ],
  "bytecode": "0x608060405234801562000010575f80fd5b506040518060400160405280600781526020017f4d79546f6b656e000000000000000000000000000000000000000000000000008152506040518060400160405280600381526020017f4d544b0000000000000000000000000000000000000000000000000000000000815250815f90816200008d9190620004a6565b5080600190816200009f9190620004a6565b505050620000d47f8135f02737a6b32709c1f229001b55183df0d6abcb3022e8bae091ad43fd9e6d33620000db60201b60201c565b506200058a565b5f620000ee8383620001d760201b60201c565b620001cd57600160065f8581526020019081526020015f205f015f8473ffffffffffffffffffffffffffffffffffffffff1673ffffffffffffffffffffffffffffffffffffffff1681526020019081526020015f205f6101000a81548160ff021916908315150217905550620001696200023b60201b60201c565b73ffffffffffffffffffffffffffffffffffffffff168273ffffffffffffffffffffffffffffffffffffffff16847f2f8788117e7eff1d82e926ec794901d17c78024a50270940304540a733656f0d60405160405180910390a460019050620001d1565b5f90505b92915050565b5f60065f8481526020019081526020015f205f015f8373ffffffffffffffffffffffffffffffffffffffff1673ffffffffffffffffffffffffffffffffffffffff1681526020019081526020015f205f9054906101000a900460ff16905092915050565b5f33905090565b5f81519050919050565b7f4e487b71000000000000000000000000000000000000000000000000000000005f52604160045260245ffd5b7f4e487b71000000000000000000000000000000000000000000000000000000005f52602260045260245ffd5b5f6002820490506001821680620002be57607f821691505b602082108103620002d457620002d362000279565b5b50919050565b5f819050815f5260205f209050919050565b5f6020601f8301049050919050565b5f82821b905092915050565b5f60088302620003387fffffffffffffffffffffffffffffffffffffffffffffffffffffffffffffffff82620002fb565b620003448683620002fb565b95508019841693508086168417925050509392505050565b5f819050919050565b5f819050919050565b5f6200038e6200038862000382846200035c565b62000365565b6200035c565b9050919050565b5f819050919050565b620003a9836200036e565b620003c1620003b88262000395565b84845462000307565b825550505050565b5f90565b620003d7620003c9565b620003e48184846200039e565b505050565b5b818110156200040b57620003ff5f82620003cd565b600181019050620003ea565b5050565b601f8211156200045a576200042481620002da565b6200042f84620002ec565b810160208510156200043f578190505b620004576200044e85620002ec565b830182620003e9565b50505b505050565b5f82821c905092915050565b5f6200047c5f19846008026200045f565b1980831691505092915050565b5f6200049683836200046b565b9150826002028217905092915050565b620004b18262000242565b67ffffffffffffffff811115620004cd57620004cc6200024c565b5b620004d98254620002a6565b620004e68282856200040f565b5f60209050601f8311600181146200051c575f841562000507578287015190505b62000513858262000489565b86555062000582565b601f1984166200052c86620002da565b5f5b8281101562000555578489015182556001820191506020850194506020810190506200052e565b8683101562000575578489015162000571601f8916826200046b565b8355505b6001600288020188555050505b505050505050565b614d1280620005985f395ff3fe6080604052600436106101cc575f3560e01c806370a08231116100f6578063a22cb46511610094578063c87b56dd11610063578063c87b56dd14610685578063d547741f146106c1578063e2c07c7b146106e9578063e985e9c514610705576101cc565b8063a22cb465146105dd578063b88d4fde14610605578063bb7fde711461062d578063c2852f381461065d576101cc565b80639537e8d1116100d05780639537e8d11461053757806395d89b411461055f5780639d28b50614610589578063a217fddf146105b3576101cc565b806370a082311461049757806389b83d3e146104d357806391d14854146104fb576101cc565b80632907eb161161016e57806336568abe1161013d57806336568abe146103e3578063377e32e61461040b57806342842e0e146104335780636352211e1461045b576101cc565b80632907eb16146103265780632d2dcc481461034e5780632f2ff15d146103765780633330a55f1461039e576101cc565b8063095ea7b3116101aa578063095ea7b31461027257806323b872dd1461029a578063248a9ca3146102c257806328047450146102fe576101cc565b806301ffc9a7146101d057806306fdde031461020c578063081812fc14610236575b5f80fd5b3480156101db575f80fd5b506101f660048036038101906101f191906134bc565b610741565b6040516102039190613501565b60405180910390f35b348015610217575f80fd5b50610220610762565b60405161022d91906135a4565b60405180910390f35b348015610241575f80fd5b5061025c600480360381019061025791906135f7565b6107f1565b6040516102699190613661565b60405180910390f35b34801561027d575f80fd5b50610298600480360381019061029391906136a4565b61080c565b005b3480156102a5575f80fd5b506102c060048036038101906102bb91906136e2565b610822565b005b3480156102cd575f80fd5b506102e860048036038101906102e39190613765565b610921565b6040516102f5919061379f565b60405180910390f35b348015610309575f80fd5b50610324600480360381019061031f91906135f7565b61093e565b005b348015610331575f80fd5b5061034c600480360381019061034791906135f7565b610b55565b005b348015610359575f80fd5b50610374600480360381019061036f91906137b8565b610ddd565b005b348015610381575f80fd5b5061039c600480360381019061039791906137e3565b610e73565b005b3480156103a9575f80fd5b506103c460048036038101906103bf91906135f7565b610e95565b6040516103da9a99989796959493929190613830565b60405180910390f35b3480156103ee575f80fd5b50610409600480360381019061040491906137e3565b610fb1565b005b348015610416575f80fd5b50610431600480360381019061042c91906137b8565b61102c565b005b34801561043e575f80fd5b50610459600480360381019061045491906136e2565b6110c2565b005b348015610466575f80fd5b50610481600480360381019061047c91906135f7565b6110e1565b60405161048e9190613661565b60405180910390f35b3480156104a2575f80fd5b506104bd60048036038101906104b891906137b8565b6110f2565b6040516104ca91906138d1565b60405180910390f35b3480156104de575f80fd5b506104f960048036038101906104f491906135f7565b6111a8565b005b348015610506575f80fd5b50610521600480360381019061051c91906137e3565b611443565b60405161052e9190613501565b60405180910390f35b348015610542575f80fd5b5061055d600480360381019061055891906135f7565b6114a7565b005b34801561056a575f80fd5b5061057361185e565b60405161058091906135a4565b60405180910390f35b348015610594575f80fd5b5061059d6118ee565b6040516105aa919061379f565b60405180910390f35b3480156105be575f80fd5b506105c7611912565b6040516105d4919061379f565b60405180910390f35b3480156105e8575f80fd5b5061060360048036038101906105fe9190613914565b611918565b005b348015610610575f80fd5b5061062b60048036038101906106269190613a7e565b61192e565b005b61064760048036038101906106429190613b9c565b61194b565b60405161065491906138d1565b60405180910390f35b348015610668575f80fd5b50610683600480360381019061067e91906135f7565b611c2f565b005b348015610690575f80fd5b506106ab60048036038101906106a691906135f7565b611ecc565b6040516106b891906135a4565b60405180910390f35b3480156106cc575f80fd5b506106e760048036038101906106e291906137e3565b611f32565b005b61070360048036038101906106fe91906135f7565b611f54565b005b348015610710575f80fd5b5061072b60048036038101906107269190613c1c565b6122ad565b6040516107389190613501565b60405180910390f35b5f61074b8261233b565b8061075b575061075a8261241c565b5b9050919050565b60605f805461077090613c87565b80601f016020809104026020016040519081016040528092919081815260200182805461079c90613c87565b80156107e75780601f106107be576101008083540402835291602001916107e7565b820191905f5260205f20905b8154815290600101906020018083116107ca57829003601f168201915b5050505050905090565b5f6107fb82612495565b506108058261251b565b9050919050565b61081e8282610819612554565b61255b565b5050565b5f73ffffffffffffffffffffffffffffffffffffffff168273ffffffffffffffffffffffffffffffffffffffff1603610892575f6040517f64a0ae920000000000000000000000000000000000000000000000000000000081526004016108899190613661565b60405180910390fd5b5f6108a583836108a0612554565b61256d565b90508373ffffffffffffffffffffffffffffffffffffffff168173ffffffffffffffffffffffffffffffffffffffff161461091b578382826040517f64283d7b00000000000000000000000000000000000000000000000000000000815260040161091293929190613cb7565b60405180910390fd5b50505050565b5f60065f8381526020019081526020015f20600101549050919050565b3073ffffffffffffffffffffffffffffffffffffffff16636352211e826040518263ffffffff1660e01b815260040161097791906138d1565b602060405180830381865afa9250505080156109b157506040513d601f19601f820116820180604052508101906109ae9190613d00565b60015b6109f0576040517f08c379a00000000000000000000000000000000000000000000000000000000081526004016109e790613d75565b60405180910390fd5b50610a1b7f8135f02737a6b32709c1f229001b55183df0d6abcb3022e8bae091ad43fd9e6d33611443565b610a5a576040517f08c379a0000000000000000000000000000000000000000000000000000000008152600401610a5190613e03565b60405180910390fd5b60085f8281526020019081526020015f206004015f9054906101000a900460ff1615610abb576040517f08c379a0000000000000000000000000000000000000000000000000000000008152600401610ab290613e6b565b60405180910390fd5b5f3390505f60085f8481526020019081526020015f205f015490508173ffffffffffffffffffffffffffffffffffffffff166108fc8290811502906040515f60405180830381858888f19350505050158015610b19573d5f803e3d5ffd5b50610b2383612778565b827f2d5f5ed000d42aa6f6fc13400f7d7161cd1bea793fec354b11e3451f9f2b07c360405160405180910390a2505050565b3073ffffffffffffffffffffffffffffffffffffffff16636352211e826040518263ffffffff1660e01b8152600401610b8e91906138d1565b602060405180830381865afa925050508015610bc857506040513d601f19601f82011682018060405250810190610bc59190613d00565b60015b610c07576040517f08c379a0000000000000000000000000000000000000000000000000000000008152600401610bfe90613d75565b60405180910390fd5b50610c327f8135f02737a6b32709c1f229001b55183df0d6abcb3022e8bae091ad43fd9e6d33611443565b610c71576040517f08c379a0000000000000000000000000000000000000000000000000000000008152600401610c6890613ef9565b60405180910390fd5b60085f8281526020019081526020015f206004015f9054906101000a900460ff16610cd1576040517f08c379a0000000000000000000000000000000000000000000000000000000008152600401610cc890613f61565b60405180910390fd5b5f151560085f8381526020019081526020015f2060040160159054906101000a900460ff16151514610d38576040517f08c379a0000000000000000000000000000000000000000000000000000000008152600401610d2f90613fc9565b60405180910390fd5b4260085f8381526020019081526020015f206002015460085f8481526020019081526020015f2060010154610d6d9190614014565b11610dad576040517f08c379a0000000000000000000000000000000000000000000000000000000008152600401610da490614091565b60405180910390fd5b600160085f8381526020019081526020015f2060040160156101000a81548160ff02191690831515021790555050565b610e077f8135f02737a6b32709c1f229001b55183df0d6abcb3022e8bae091ad43fd9e6d33611443565b610e46576040517f08c379a0000000000000000000000000000000000000000000000000000000008152600401610e3d9061411f565b60405180910390fd5b610e707f8135f02737a6b32709c1f229001b55183df0d6abcb3022e8bae091ad43fd9e6d82610e73565b50565b610e7c82610921565b610e85816127fa565b610e8f838361280e565b50505050565b6008602052805f5260405f205f91509050805f015490806001015490806002015490806003018054610ec690613c87565b80601f0160208091040260200160405190810160405280929190818152602001828054610ef290613c87565b8015610f3d5780601f10610f1457610100808354040283529160200191610f3d565b820191905f5260205f20905b815481529060010190602001808311610f2057829003601f168201915b505050505090806004015f9054906101000a900460ff16908060040160019054906101000a900473ffffffffffffffffffffffffffffffffffffffff16908060040160159054906101000a900460ff16908060040160169054906101000a900460ff1690806005015490806006015490508a565b610fb9612554565b73ffffffffffffffffffffffffffffffffffffffff168173ffffffffffffffffffffffffffffffffffffffff161461101d576040517f6697b23200000000000000000000000000000000000000000000000000000000815260040160405180910390fd5b61102782826128f8565b505050565b6110567f8135f02737a6b32709c1f229001b55183df0d6abcb3022e8bae091ad43fd9e6d33611443565b611095576040517f08c379a000000000000000000000000000000000000000000000000000000000815260040161108c906141ad565b60405180910390fd5b6110bf7f8135f02737a6b32709c1f229001b55183df0d6abcb3022e8bae091ad43fd9e6d82611f32565b50565b6110dc83838360405180602001604052805f81525061192e565b505050565b5f6110eb82612495565b9050919050565b5f8073ffffffffffffffffffffffffffffffffffffffff168273ffffffffffffffffffffffffffffffffffffffff1603611163575f6040517f89c62b6400000000000000000000000000000000000000000000000000000000815260040161115a9190613661565b60405180910390fd5b60035f8373ffffffffffffffffffffffffffffffffffffffff1673ffffffffffffffffffffffffffffffffffffffff1681526020019081526020015f20549050919050565b3073ffffffffffffffffffffffffffffffffffffffff16636352211e826040518263ffffffff1660e01b81526004016111e191906138d1565b602060405180830381865afa92505050801561121b57506040513d601f19601f820116820180604052508101906112189190613d00565b60015b61125a576040517f08c379a000000000000000000000000000000000000000000000000000000000815260040161125190613d75565b60405180910390fd5b506112857f8135f02737a6b32709c1f229001b55183df0d6abcb3022e8bae091ad43fd9e6d33611443565b6112c4576040517f08c379a00000000000000000000000000000000000000000000000000000000081526004016112bb9061423b565b60405180910390fd5b60085f8281526020019081526020015f206004015f9054906101000a900460ff16611324576040517f08c379a000000000000000000000000000000000000000000000000000000000815260040161131b90613f61565b60405180910390fd5b60085f8281526020019081526020015f2060040160169054906101000a900460ff16611385576040517f08c379a000000000000000000000000000000000000000000000000000000000815260040161137c906142a3565b60405180910390fd5b60085f8281526020019081526020015f2060050154426113a591906142c1565b60085f8381526020019081526020015f206006018190555060085f8281526020019081526020015f206006015460085f8381526020019081526020015f206002015f8282546113f49190614014565b925050819055505f60085f8381526020019081526020015f20600501819055505f60085f8381526020019081526020015f2060040160166101000a81548160ff02191690831515021790555050565b5f60065f8481526020019081526020015f205f015f8373ffffffffffffffffffffffffffffffffffffffff1673ffffffffffffffffffffffffffffffffffffffff1681526020019081526020015f205f9054906101000a900460ff16905092915050565b3073ffffffffffffffffffffffffffffffffffffffff16636352211e826040518263ffffffff1660e01b81526004016114e091906138d1565b602060405180830381865afa92505050801561151a57506040513d601f19601f820116820180604052508101906115179190613d00565b60015b611559576040517f08c379a000000000000000000000000000000000000000000000000000000000815260040161155090613d75565b60405180910390fd5b506115847f8135f02737a6b32709c1f229001b55183df0d6abcb3022e8bae091ad43fd9e6d33611443565b156115c4576040517f08c379a00000000000000000000000000000000000000000000000000000000081526004016115bb90614364565b60405180910390fd5b60085f8281526020019081526020015f2060040160019054906101000a900473ffffffffffffffffffffffffffffffffffffffff1673ffffffffffffffffffffffffffffffffffffffff163373ffffffffffffffffffffffffffffffffffffffff1614611666576040517f08c379a000000000000000000000000000000000000000000000000000000000815260040161165d906143f2565b60405180910390fd5b60085f8281526020019081526020015f206004015f9054906101000a900460ff16156116c7576040517f08c379a00000000000000000000000000000000000000000000000000000000081526004016116be90613e6b565b60405180910390fd5b5f151560085f8381526020019081526020015f2060040160159054906101000a900460ff1615151461172e576040517f08c379a00000000000000000000000000000000000000000000000000000000081526004016117259061445a565b60405180910390fd5b4260085f8381526020019081526020015f206002015460085f8481526020019081526020015f20600101546117639190614014565b10156117a4576040517f08c379a000000000000000000000000000000000000000000000000000000000815260040161179b906144c2565b60405180910390fd5b600160085f8381526020019081526020015f206004015f6101000a81548160ff0219169083151502179055503360085f8381526020019081526020015f2060040160016101000a81548173ffffffffffffffffffffffffffffffffffffffff021916908373ffffffffffffffffffffffffffffffffffffffff160217905550807fcd3b1fcca80f9caae633c3e13546995d3810e561957af92839f070c46571942c336040516118539190613661565b60405180910390a250565b60606001805461186d90613c87565b80601f016020809104026020016040519081016040528092919081815260200182805461189990613c87565b80156118e45780601f106118bb576101008083540402835291602001916118e4565b820191905f5260205f20905b8154815290600101906020018083116118c757829003601f168201915b5050505050905090565b7f8135f02737a6b32709c1f229001b55183df0d6abcb3022e8bae091ad43fd9e6d81565b5f801b81565b61192a611923612554565b83836129e2565b5050565b611939848484610822565b61194584848484612b4b565b50505050565b5f8334101561198f576040517f08c379a000000000000000000000000000000000000000000000000000000000815260040161198690614550565b60405180910390fd5b5f15156119bc7f8135f02737a6b32709c1f229001b55183df0d6abcb3022e8bae091ad43fd9e6d87611443565b1515146119fe576040517f08c379a00000000000000000000000000000000000000000000000000000000081526004016119f5906145de565b60405180910390fd5b60075f815480929190611a10906145fc565b9190505550611a2133600754612cfd565b5f8434611a2e91906142c1565b90505f811115611a7d573373ffffffffffffffffffffffffffffffffffffffff166108fc8290811502906040515f60405180830381858888f19350505050158015611a7b573d5f803e3d5ffd5b505b5f6040518061014001604052808781526020014281526020018681526020018581526020015f151581526020018873ffffffffffffffffffffffffffffffffffffffff1681526020015f151581526020015f151581526020015f81526020015f81525090508060085f60075481526020019081526020015f205f820151815f015560208201518160010155604082015181600201556060820151816003019081611b2791906147e0565b506080820151816004015f6101000a81548160ff02191690831515021790555060a08201518160040160016101000a81548173ffffffffffffffffffffffffffffffffffffffff021916908373ffffffffffffffffffffffffffffffffffffffff16021790555060c08201518160040160156101000a81548160ff02191690831515021790555060e08201518160040160166101000a81548160ff021916908315150217905550610100820151816005015561012082015181600601559050507ff00d28232b285f24f2e38415deb2ceb31069e70d4505838b3911b4f02058502e600754604051611c1891906138d1565b60405180910390a160075492505050949350505050565b3073ffffffffffffffffffffffffffffffffffffffff16636352211e826040518263ffffffff1660e01b8152600401611c6891906138d1565b602060405180830381865afa925050508015611ca257506040513d601f19601f82011682018060405250810190611c9f9190613d00565b60015b611ce1576040517f08c379a0000000000000000000000000000000000000000000000000000000008152600401611cd890613d75565b60405180910390fd5b50611d0c7f8135f02737a6b32709c1f229001b55183df0d6abcb3022e8bae091ad43fd9e6d33611443565b611d4b576040517f08c379a0000000000000000000000000000000000000000000000000000000008152600401611d429061491f565b60405180910390fd5b60085f8281526020019081526020015f206004015f9054906101000a900460ff16611dab576040517f08c379a0000000000000000000000000000000000000000000000000000000008152600401611da290613f61565b60405180910390fd5b4260085f8381526020019081526020015f206002015460085f8481526020019081526020015f2060010154611de09190614014565b1015611e21576040517f08c379a0000000000000000000000000000000000000000000000000000000008152600401611e18906144c2565b60405180910390fd5b60085f8281526020019081526020015f2060040160169054906101000a900460ff1615611e83576040517f08c379a0000000000000000000000000000000000000000000000000000000008152600401611e7a90614987565b60405180910390fd5b600160085f8381526020019081526020015f2060040160166101000a81548160ff0219169083151502179055504260085f8381526020019081526020015f206005018190555050565b6060611ed782612495565b505f611ee1612df0565b90505f815111611eff5760405180602001604052805f815250611f2a565b80611f0984612e06565b604051602001611f1a9291906149df565b6040516020818303038152906040525b915050919050565b611f3b82610921565b611f44816127fa565b611f4e83836128f8565b50505050565b3073ffffffffffffffffffffffffffffffffffffffff16636352211e826040518263ffffffff1660e01b8152600401611f8d91906138d1565b602060405180830381865afa925050508015611fc757506040513d601f19601f82011682018060405250810190611fc49190613d00565b60015b612006576040517f08c379a0000000000000000000000000000000000000000000000000000000008152600401611ffd90613d75565b60405180910390fd5b5060085f8281526020019081526020015f206004015f9054906101000a900460ff16612067576040517f08c379a000000000000000000000000000000000000000000000000000000000815260040161205e90613f61565b60405180910390fd5b6120917f8135f02737a6b32709c1f229001b55183df0d6abcb3022e8bae091ad43fd9e6d33611443565b6120d0576040517f08c379a00000000000000000000000000000000000000000000000000000000081526004016120c790614a72565b60405180910390fd5b6001151560085f8381526020019081526020015f2060040160159054906101000a900460ff161515148061213757504260085f8381526020019081526020015f206002015460085f8481526020019081526020015f20600101546121349190614014565b11155b612176576040517f08c379a000000000000000000000000000000000000000000000000000000000815260040161216d90614b00565b60405180910390fd5b5f151560085f8381526020019081526020015f2060040160169054906101000a900460ff161515146121dd576040517f08c379a00000000000000000000000000000000000000000000000000000000081526004016121d490614b68565b60405180910390fd5b5f60085f8381526020019081526020015f2060040160019054906101000a900473ffffffffffffffffffffffffffffffffffffffff1690505f60085f8481526020019081526020015f205f015490508173ffffffffffffffffffffffffffffffffffffffff166108fc8290811502906040515f60405180830381858888f1935050505015801561226f573d5f803e3d5ffd5b50827f2b52860c5e15aa76ac91d132433549dfe5214c66e36bdb998622ab221c7477c0826040516122a091906138d1565b60405180910390a2505050565b5f60055f8473ffffffffffffffffffffffffffffffffffffffff1673ffffffffffffffffffffffffffffffffffffffff1681526020019081526020015f205f8373ffffffffffffffffffffffffffffffffffffffff1673ffffffffffffffffffffffffffffffffffffffff1681526020019081526020015f205f9054906101000a900460ff16905092915050565b5f7f80ac58cd000000000000000000000000000000000000000000000000000000007bffffffffffffffffffffffffffffffffffffffffffffffffffffffff1916827bffffffffffffffffffffffffffffffffffffffffffffffffffffffff1916148061240557507f5b5e139f000000000000000000000000000000000000000000000000000000007bffffffffffffffffffffffffffffffffffffffffffffffffffffffff1916827bffffffffffffffffffffffffffffffffffffffffffffffffffffffff1916145b80612415575061241482612ed0565b5b9050919050565b5f7f7965db0b000000000000000000000000000000000000000000000000000000007bffffffffffffffffffffffffffffffffffffffffffffffffffffffff1916827bffffffffffffffffffffffffffffffffffffffffffffffffffffffff1916148061248e575061248d8261233b565b5b9050919050565b5f806124a083612f39565b90505f73ffffffffffffffffffffffffffffffffffffffff168173ffffffffffffffffffffffffffffffffffffffff160361251257826040517f7e27328900000000000000000000000000000000000000000000000000000000815260040161250991906138d1565b60405180910390fd5b80915050919050565b5f60045f8381526020019081526020015f205f9054906101000a900473ffffffffffffffffffffffffffffffffffffffff169050919050565b5f33905090565b6125688383836001612f72565b505050565b5f8061257884612f39565b90505f73ffffffffffffffffffffffffffffffffffffffff168373ffffffffffffffffffffffffffffffffffffffff16146125b9576125b8818486613131565b5b5f73ffffffffffffffffffffffffffffffffffffffff168173ffffffffffffffffffffffffffffffffffffffff1614612644576125f85f855f80612f72565b600160035f8373ffffffffffffffffffffffffffffffffffffffff1673ffffffffffffffffffffffffffffffffffffffff1681526020019081526020015f205f82825403925050819055505b5f73ffffffffffffffffffffffffffffffffffffffff168573ffffffffffffffffffffffffffffffffffffffff16146126c357600160035f8773ffffffffffffffffffffffffffffffffffffffff1673ffffffffffffffffffffffffffffffffffffffff1681526020019081526020015f205f82825401925050819055505b8460025f8681526020019081526020015f205f6101000a81548173ffffffffffffffffffffffffffffffffffffffff021916908373ffffffffffffffffffffffffffffffffffffffff160217905550838573ffffffffffffffffffffffffffffffffffffffff168273ffffffffffffffffffffffffffffffffffffffff167fddf252ad1be2c89b69c2b068fc378daa952ba7f163c4a11628f55a4df523b3ef60405160405180910390a4809150509392505050565b5f6127845f835f61256d565b90505f73ffffffffffffffffffffffffffffffffffffffff168173ffffffffffffffffffffffffffffffffffffffff16036127f657816040517f7e2732890000000000000000000000000000000000000000000000000000000081526004016127ed91906138d1565b60405180910390fd5b5050565b61280b81612806612554565b6131f4565b50565b5f6128198383611443565b6128ee57600160065f8581526020019081526020015f205f015f8473ffffffffffffffffffffffffffffffffffffffff1673ffffffffffffffffffffffffffffffffffffffff1681526020019081526020015f205f6101000a81548160ff02191690831515021790555061288b612554565b73ffffffffffffffffffffffffffffffffffffffff168273ffffffffffffffffffffffffffffffffffffffff16847f2f8788117e7eff1d82e926ec794901d17c78024a50270940304540a733656f0d60405160405180910390a4600190506128f2565b5f90505b92915050565b5f6129038383611443565b156129d8575f60065f8581526020019081526020015f205f015f8473ffffffffffffffffffffffffffffffffffffffff1673ffffffffffffffffffffffffffffffffffffffff1681526020019081526020015f205f6101000a81548160ff021916908315150217905550612975612554565b73ffffffffffffffffffffffffffffffffffffffff168273ffffffffffffffffffffffffffffffffffffffff16847ff6391f5c32d9c69d2a47ea670b442974b53935d1edc7fd64eb21e047a839171b60405160405180910390a4600190506129dc565b5f90505b92915050565b5f73ffffffffffffffffffffffffffffffffffffffff168273ffffffffffffffffffffffffffffffffffffffff1603612a5257816040517f5b08ba18000000000000000000000000000000000000000000000000000000008152600401612a499190613661565b60405180910390fd5b8060055f8573ffffffffffffffffffffffffffffffffffffffff1673ffffffffffffffffffffffffffffffffffffffff1681526020019081526020015f205f8473ffffffffffffffffffffffffffffffffffffffff1673ffffffffffffffffffffffffffffffffffffffff1681526020019081526020015f205f6101000a81548160ff0219169083151502179055508173ffffffffffffffffffffffffffffffffffffffff168373ffffffffffffffffffffffffffffffffffffffff167f17307eab39ab6107e8899845ad3d59bd9653f200f220920489ca2b5937696c3183604051612b3e9190613501565b60405180910390a3505050565b5f8373ffffffffffffffffffffffffffffffffffffffff163b1115612cf7578273ffffffffffffffffffffffffffffffffffffffff1663150b7a02612b8e612554565b8685856040518563ffffffff1660e01b8152600401612bb09493929190614bd8565b6020604051808303815f875af1925050508015612beb57506040513d601f19601f82011682018060405250810190612be89190614c36565b60015b612c6c573d805f8114612c19576040519150601f19603f3d011682016040523d82523d5f602084013e612c1e565b606091505b505f815103612c6457836040517f64a0ae92000000000000000000000000000000000000000000000000000000008152600401612c5b9190613661565b60405180910390fd5b805181602001fd5b63150b7a0260e01b7bffffffffffffffffffffffffffffffffffffffffffffffffffffffff1916817bffffffffffffffffffffffffffffffffffffffffffffffffffffffff191614612cf557836040517f64a0ae92000000000000000000000000000000000000000000000000000000008152600401612cec9190613661565b60405180910390fd5b505b50505050565b5f73ffffffffffffffffffffffffffffffffffffffff168273ffffffffffffffffffffffffffffffffffffffff1603612d6d575f6040517f64a0ae92000000000000000000000000000000000000000000000000000000008152600401612d649190613661565b60405180910390fd5b5f612d7983835f61256d565b90505f73ffffffffffffffffffffffffffffffffffffffff168173ffffffffffffffffffffffffffffffffffffffff1614612deb575f6040517f73c6ac6e000000000000000000000000000000000000000000000000000000008152600401612de29190613661565b60405180910390fd5b505050565b606060405180602001604052805f815250905090565b60605f6001612e1484613245565b0190505f8167ffffffffffffffff811115612e3257612e3161395a565b5b6040519080825280601f01601f191660200182016040528015612e645781602001600182028036833780820191505090505b5090505f82602001820190505b600115612ec5578080600190039150507f3031323334353637383961626364656600000000000000000000000000000000600a86061a8153600a8581612eba57612eb9614c61565b5b0494505f8503612e71575b819350505050919050565b5f7f01ffc9a7000000000000000000000000000000000000000000000000000000007bffffffffffffffffffffffffffffffffffffffffffffffffffffffff1916827bffffffffffffffffffffffffffffffffffffffffffffffffffffffff1916149050919050565b5f60025f8381526020019081526020015f205f9054906101000a900473ffffffffffffffffffffffffffffffffffffffff169050919050565b8080612faa57505f73ffffffffffffffffffffffffffffffffffffffff168273ffffffffffffffffffffffffffffffffffffffff1614155b156130dc575f612fb984612495565b90505f73ffffffffffffffffffffffffffffffffffffffff168373ffffffffffffffffffffffffffffffffffffffff161415801561302357508273ffffffffffffffffffffffffffffffffffffffff168173ffffffffffffffffffffffffffffffffffffffff1614155b8015613036575061303481846122ad565b155b1561307857826040517fa9fbf51f00000000000000000000000000000000000000000000000000000000815260040161306f9190613661565b60405180910390fd5b81156130da57838573ffffffffffffffffffffffffffffffffffffffff168273ffffffffffffffffffffffffffffffffffffffff167f8c5be1e5ebec7d5bd14f71427d1e84f3dd0314c0f7b2291e5b200ac8c7c3b92560405160405180910390a45b505b8360045f8581526020019081526020015f205f6101000a81548173ffffffffffffffffffffffffffffffffffffffff021916908373ffffffffffffffffffffffffffffffffffffffff16021790555050505050565b61313c838383613396565b6131ef575f73ffffffffffffffffffffffffffffffffffffffff168373ffffffffffffffffffffffffffffffffffffffff16036131b057806040517f7e2732890000000000000000000000000000000000000000000000000000000081526004016131a791906138d1565b60405180910390fd5b81816040517f177e802f0000000000000000000000000000000000000000000000000000000081526004016131e6929190614c8e565b60405180910390fd5b505050565b6131fe8282611443565b6132415780826040517fe2517d3f000000000000000000000000000000000000000000000000000000008152600401613238929190614cb5565b60405180910390fd5b5050565b5f805f90507a184f03e93ff9f4daa797ed6e38ed64bf6a1f01000000000000000083106132a1577a184f03e93ff9f4daa797ed6e38ed64bf6a1f010000000000000000838161329757613296614c61565b5b0492506040810190505b6d04ee2d6d415b85acef810000000083106132de576d04ee2d6d415b85acef810000000083816132d4576132d3614c61565b5b0492506020810190505b662386f26fc10000831061330d57662386f26fc10000838161330357613302614c61565b5b0492506010810190505b6305f5e1008310613336576305f5e100838161332c5761332b614c61565b5b0492506008810190505b612710831061335b57612710838161335157613350614c61565b5b0492506004810190505b6064831061337e576064838161337457613373614c61565b5b0492506002810190505b600a831061338d576001810190505b80915050919050565b5f8073ffffffffffffffffffffffffffffffffffffffff168373ffffffffffffffffffffffffffffffffffffffff161415801561344d57508273ffffffffffffffffffffffffffffffffffffffff168473ffffffffffffffffffffffffffffffffffffffff16148061340e575061340d84846122ad565b5b8061344c57508273ffffffffffffffffffffffffffffffffffffffff166134348361251b565b73ffffffffffffffffffffffffffffffffffffffff16145b5b90509392505050565b5f604051905090565b5f80fd5b5f80fd5b5f7fffffffff0000000000000000000000000000000000000000000000000000000082169050919050565b61349b81613467565b81146134a5575f80fd5b50565b5f813590506134b681613492565b92915050565b5f602082840312156134d1576134d061345f565b5b5f6134de848285016134a8565b91505092915050565b5f8115159050919050565b6134fb816134e7565b82525050565b5f6020820190506135145f8301846134f2565b92915050565b5f81519050919050565b5f82825260208201905092915050565b5f5b83811015613551578082015181840152602081019050613536565b5f8484015250505050565b5f601f19601f8301169050919050565b5f6135768261351a565b6135808185613524565b9350613590818560208601613534565b6135998161355c565b840191505092915050565b5f6020820190508181035f8301526135bc818461356c565b905092915050565b5f819050919050565b6135d6816135c4565b81146135e0575f80fd5b50565b5f813590506135f1816135cd565b92915050565b5f6020828403121561360c5761360b61345f565b5b5f613619848285016135e3565b91505092915050565b5f73ffffffffffffffffffffffffffffffffffffffff82169050919050565b5f61364b82613622565b9050919050565b61365b81613641565b82525050565b5f6020820190506136745f830184613652565b92915050565b61368381613641565b811461368d575f80fd5b50565b5f8135905061369e8161367a565b92915050565b5f80604083850312156136ba576136b961345f565b5b5f6136c785828601613690565b92505060206136d8858286016135e3565b9150509250929050565b5f805f606084860312156136f9576136f861345f565b5b5f61370686828701613690565b935050602061371786828701613690565b9250506040613728868287016135e3565b9150509250925092565b5f819050919050565b61374481613732565b811461374e575f80fd5b50565b5f8135905061375f8161373b565b92915050565b5f6020828403121561377a5761377961345f565b5b5f61378784828501613751565b91505092915050565b61379981613732565b82525050565b5f6020820190506137b25f830184613790565b92915050565b5f602082840312156137cd576137cc61345f565b5b5f6137da84828501613690565b91505092915050565b5f80604083850312156137f9576137f861345f565b5b5f61380685828601613751565b925050602061381785828601613690565b9150509250929050565b61382a816135c4565b82525050565b5f610140820190506138445f83018d613821565b613851602083018c613821565b61385e604083018b613821565b8181036060830152613870818a61356c565b905061387f60808301896134f2565b61388c60a0830188613652565b61389960c08301876134f2565b6138a660e08301866134f2565b6138b4610100830185613821565b6138c2610120830184613821565b9b9a5050505050505050505050565b5f6020820190506138e45f830184613821565b92915050565b6138f3816134e7565b81146138fd575f80fd5b50565b5f8135905061390e816138ea565b92915050565b5f806040838503121561392a5761392961345f565b5b5f61393785828601613690565b925050602061394885828601613900565b9150509250929050565b5f80fd5b5f80fd5b7f4e487b71000000000000000000000000000000000000000000000000000000005f52604160045260245ffd5b6139908261355c565b810181811067ffffffffffffffff821117156139af576139ae61395a565b5b80604052505050565b5f6139c1613456565b90506139cd8282613987565b919050565b5f67ffffffffffffffff8211156139ec576139eb61395a565b5b6139f58261355c565b9050602081019050919050565b828183375f83830152505050565b5f613a22613a1d846139d2565b6139b8565b905082815260208101848484011115613a3e57613a3d613956565b5b613a49848285613a02565b509392505050565b5f82601f830112613a6557613a64613952565b5b8135613a75848260208601613a10565b91505092915050565b5f805f8060808587031215613a9657613a9561345f565b5b5f613aa387828801613690565b9450506020613ab487828801613690565b9350506040613ac5878288016135e3565b925050606085013567ffffffffffffffff811115613ae657613ae5613463565b5b613af287828801613a51565b91505092959194509250565b5f67ffffffffffffffff821115613b1857613b1761395a565b5b613b218261355c565b9050602081019050919050565b5f613b40613b3b84613afe565b6139b8565b905082815260208101848484011115613b5c57613b5b613956565b5b613b67848285613a02565b509392505050565b5f82601f830112613b8357613b82613952565b5b8135613b93848260208601613b2e565b91505092915050565b5f805f8060808587031215613bb457613bb361345f565b5b5f613bc187828801613690565b9450506020613bd2878288016135e3565b9350506040613be3878288016135e3565b925050606085013567ffffffffffffffff811115613c0457613c03613463565b5b613c1087828801613b6f565b91505092959194509250565b5f8060408385031215613c3257613c3161345f565b5b5f613c3f85828601613690565b9250506020613c5085828601613690565b9150509250929050565b7f4e487b71000000000000000000000000000000000000000000000000000000005f52602260045260245ffd5b5f6002820490506001821680613c9e57607f821691505b602082108103613cb157613cb0613c5a565b5b50919050565b5f606082019050613cca5f830186613652565b613cd76020830185613821565b613ce46040830184613652565b949350505050565b5f81519050613cfa8161367a565b92915050565b5f60208284031215613d1557613d1461345f565b5b5f613d2284828501613cec565b91505092915050565b7f456c20746f6b656e206e6f206578697374652e000000000000000000000000005f82015250565b5f613d5f601383613524565b9150613d6a82613d2b565b602082019050919050565b5f6020820190508181035f830152613d8c81613d53565b9050919050565b7f536f6c6f20756e206d616e616765722070756564652063616e63656c617220755f8201527f6e20636f6e747261746f00000000000000000000000000000000000000000000602082015250565b5f613ded602a83613524565b9150613df882613d93565b604082019050919050565b5f6020820190508181035f830152613e1a81613de1565b9050919050565b7f456c20636f6e747261746f207961206861207369646f206669726d61646f00005f82015250565b5f613e55601e83613524565b9150613e6082613e21565b602082019050919050565b5f6020820190508181035f830152613e8281613e49565b9050919050565b7f536f6c6f20756e206d616e616765722070756564652066696e616c697a6172205f8201527f756e20636f6e747261746f000000000000000000000000000000000000000000602082015250565b5f613ee3602b83613524565b9150613eee82613e89565b604082019050919050565b5f6020820190508181035f830152613f1081613ed7565b9050919050565b7f456c20636f6e747261746f206e6f206861207369646f206669726d61646f00005f82015250565b5f613f4b601e83613524565b9150613f5682613f17565b602082019050919050565b5f6020820190508181035f830152613f7881613f3f565b9050919050565b7f456c20636f6e747261746f2079612068612066696e616c697a61646f000000005f82015250565b5f613fb3601c83613524565b9150613fbe82613f7f565b602082019050919050565b5f6020820190508181035f830152613fe081613fa7565b9050919050565b7f4e487b71000000000000000000000000000000000000000000000000000000005f52601160045260245ffd5b5f61401e826135c4565b9150614029836135c4565b925082820190508082111561404157614040613fe7565b5b92915050565b7f456c20636f6e747261746f20796120686120657870697261646f0000000000005f82015250565b5f61407b601a83613524565b915061408682614047565b602082019050919050565b5f6020820190508181035f8301526140a88161406f565b9050919050565b7f536f6c6f20756e206d616e6167657220707565646520617369676e6172206f745f8201527f726f206d616e6167657200000000000000000000000000000000000000000000602082015250565b5f614109602a83613524565b9150614114826140af565b604082019050919050565b5f6020820190508181035f830152614136816140fd565b9050919050565b7f536f6c6f20756e206d616e61676572207075656465207265766f636172206f745f8201527f726f206d616e6167657200000000000000000000000000000000000000000000602082015250565b5f614197602a83613524565b91506141a28261413d565b604082019050919050565b5f6020820190508181035f8301526141c48161418b565b9050919050565b7f536f6c6f20756e206d616e61676572207075656465207265616e7564617220755f8201527f6e20636f6e747261746f00000000000000000000000000000000000000000000602082015250565b5f614225602a83613524565b9150614230826141cb565b604082019050919050565b5f6020820190508181035f83015261425281614219565b9050919050565b7f456c20636f6e747261746f206e6f2065737461207061757361646f00000000005f82015250565b5f61428d601b83613524565b915061429882614259565b602082019050919050565b5f6020820190508181035f8301526142ba81614281565b9050919050565b5f6142cb826135c4565b91506142d6836135c4565b92508282039050818111156142ee576142ed613fe7565b5b92915050565b7f4e6f20707565646573206669726d61722074752070726f70696f20636f6e74725f8201527f61746f0000000000000000000000000000000000000000000000000000000000602082015250565b5f61434e602383613524565b9150614359826142f4565b604082019050919050565b5f6020820190508181035f83015261437b81614342565b9050919050565b7f536f6c6f20656c2074726162616a61646f72207075656465206669726d6172205f8201527f656c20636f6e747261746f000000000000000000000000000000000000000000602082015250565b5f6143dc602b83613524565b91506143e782614382565b604082019050919050565b5f6020820190508181035f830152614409816143d0565b9050919050565b7f456c20636f6e747261746f2068612066696e616c697a61646f000000000000005f82015250565b5f614444601983613524565b915061444f82614410565b602082019050919050565b5f6020820190508181035f83015261447181614438565b9050919050565b7f456c20636f6e747261746f20686120657870697261646f0000000000000000005f82015250565b5f6144ac601783613524565b91506144b782614478565b602082019050919050565b5f6020820190508181035f8301526144d9816144a0565b9050919050565b7f4465646520656e7669617220656c2073616c6172696f20636f6d6f2076616c6f5f8201527f722064656c20636f6e747261746f000000000000000000000000000000000000602082015250565b5f61453a602e83613524565b9150614545826144e0565b604082019050919050565b5f6020820190508181035f8301526145678161452e565b9050919050565b7f456c2074726162616a61646f72206e6f2070756564652073657220756e206d615f8201527f6e616765722064656c20636f6e747261746f0000000000000000000000000000602082015250565b5f6145c8603283613524565b91506145d38261456e565b604082019050919050565b5f6020820190508181035f8301526145f5816145bc565b9050919050565b5f614606826135c4565b91507fffffffffffffffffffffffffffffffffffffffffffffffffffffffffffffffff820361463857614637613fe7565b5b600182019050919050565b5f819050815f5260205f209050919050565b5f6020601f8301049050919050565b5f82821b905092915050565b5f6008830261469f7fffffffffffffffffffffffffffffffffffffffffffffffffffffffffffffffff82614664565b6146a98683614664565b95508019841693508086168417925050509392505050565b5f819050919050565b5f6146e46146df6146da846135c4565b6146c1565b6135c4565b9050919050565b5f819050919050565b6146fd836146ca565b614711614709826146eb565b848454614670565b825550505050565b5f90565b614725614719565b6147308184846146f4565b505050565b5b81811015614753576147485f8261471d565b600181019050614736565b5050565b601f8211156147985761476981614643565b61477284614655565b81016020851015614781578190505b61479561478d85614655565b830182614735565b50505b505050565b5f82821c905092915050565b5f6147b85f198460080261479d565b1980831691505092915050565b5f6147d083836147a9565b9150826002028217905092915050565b6147e98261351a565b67ffffffffffffffff8111156148025761480161395a565b5b61480c8254613c87565b614817828285614757565b5f60209050601f831160018114614848575f8415614836578287015190505b61484085826147c5565b8655506148a7565b601f19841661485686614643565b5f5b8281101561487d57848901518255600182019150602085019450602081019050614858565b8683101561489a5784890151614896601f8916826147a9565b8355505b6001600288020188555050505b505050505050565b7f536f6c6f20756e206d616e616765722070756564652070617573617220756e205f8201527f636f6e747261746f000000000000000000000000000000000000000000000000602082015250565b5f614909602883613524565b9150614914826148af565b604082019050919050565b5f6020820190508181035f830152614936816148fd565b9050919050565b7f456c20636f6e747261746f2079612065737461207061757361646f00000000005f82015250565b5f614971601b83613524565b915061497c8261493d565b602082019050919050565b5f6020820190508181035f83015261499e81614965565b9050919050565b5f81905092915050565b5f6149b98261351a565b6149c381856149a5565b93506149d3818560208601613534565b80840191505092915050565b5f6149ea82856149af565b91506149f682846149af565b91508190509392505050565b7f536f6c6f20756e206d616e61676572207075656465206c69626572617220656c5f8201527f2073616c6172696f000000000000000000000000000000000000000000000000602082015250565b5f614a5c602883613524565b9150614a6782614a02565b604082019050919050565b5f6020820190508181035f830152614a8981614a50565b9050919050565b7f456c20636f6e747261746f206e6f20686120657870697261646f2061756e206f5f8201527f206e6f2068612066696e616c697a61646f000000000000000000000000000000602082015250565b5f614aea603183613524565b9150614af582614a90565b604082019050919050565b5f6020820190508181035f830152614b1781614ade565b9050919050565b7f456c20636f6e747261746f2065737461207061757361646f00000000000000005f82015250565b5f614b52601883613524565b9150614b5d82614b1e565b602082019050919050565b5f6020820190508181035f830152614b7f81614b46565b9050919050565b5f81519050919050565b5f82825260208201905092915050565b5f614baa82614b86565b614bb48185614b90565b9350614bc4818560208601613534565b614bcd8161355c565b840191505092915050565b5f608082019050614beb5f830187613652565b614bf86020830186613652565b614c056040830185613821565b8181036060830152614c178184614ba0565b905095945050505050565b5f81519050614c3081613492565b92915050565b5f60208284031215614c4b57614c4a61345f565b5b5f614c5884828501614c22565b91505092915050565b7f4e487b71000000000000000000000000000000000000000000000000000000005f52601260045260245ffd5b5f604082019050614ca15f830185613652565b614cae6020830184613821565b9392505050565b5f604082019050614cc85f830185613652565b614cd56020830184613790565b939250505056fea2646970667358221220f7d1c73191d3f8c9e363b4cb33b6c3c96414e0bf7cab79ced981173dc4acf51264736f6c63430008140033",
  "immutableReferences": {},
  "source": "// SPDX-License-Identifier: MIT\r\npragma solidity ^0.8.20;\r\n\r\nimport \"@openzeppelin/contracts/token/ERC721/ERC721.sol\";\r\nimport \"@openzeppelin/contracts/access/AccessControl.sol\";\r\n\r\ncontract MyContract is ERC721, AccessControl {\r\n    uint256 tokenID;\r\n    mapping(uint256 => ContractDetails) public contractDetails;\r\n    struct ContractDetails {\r\n        uint256 salary;\r\n        uint256 startDate;\r\n        uint256 duration;\r\n        string description;\r\n        bool isSigned;\r\n        address worker;\r\n        bool isFinished;\r\n        bool isPaused;\r\n        uint256 pauseTime;\r\n        uint256 pauseDuration;\r\n    }\r\n    event ContractSigned(uint256 indexed tokenId, address worker);\r\n    event SalaryReleased(uint256 indexed tokenId, uint256 salary);\r\n    event TokenMinted(uint256 tokenId);\r\n    event ContractCancelled(uint256 indexed tokenId);\r\n\r\n    bytes32 public constant CONTRACT_MANAGER_ROLE =\r\n        keccak256(\"CONTRACT_MANAGER_ROLE\");\r\n\r\n    constructor() ERC721(\"MyToken\", \"MTK\") {\r\n        _grantRole(CONTRACT_MANAGER_ROLE, msg.sender);\r\n        (CONTRACT_MANAGER_ROLE, msg.sender);\r\n    }\r\n\r\n    function supportsInterface(\r\n        bytes4 interfaceId\r\n    ) public view override(ERC721, AccessControl) returns (bool) {\r\n        return\r\n            ERC721.supportsInterface(interfaceId) ||\r\n            AccessControl.supportsInterface(interfaceId);\r\n    }\r\n\r\n    function mint(\r\n        address _to,\r\n        uint256 _salary,\r\n        uint256 _duration,\r\n        string memory _description\r\n    ) public payable returns (uint256) {\r\n        require(\r\n            msg.value >= _salary,\r\n            \"Dede enviar el salario como valor del contrato\"\r\n        );\r\n        require(\r\n            hasRole(CONTRACT_MANAGER_ROLE, _to) == false,\r\n            \"El trabajador no puede ser un manager del contrato\"\r\n        );\r\n        tokenID++;\r\n        _mint(msg.sender, tokenID);\r\n        uint256 remainder = msg.value - _salary;\r\n        if (remainder > 0) {\r\n            payable(msg.sender).transfer(remainder);\r\n        }\r\n\r\n        ContractDetails memory newContract = ContractDetails({\r\n            salary: _salary,\r\n            startDate: block.timestamp, // en segundos\r\n            duration: _duration,\r\n            description: _description,\r\n            isSigned: false,\r\n            worker: _to,\r\n            isFinished: false,\r\n            isPaused: false,\r\n            pauseTime: 0,\r\n            pauseDuration: 0\r\n        });\r\n\r\n        contractDetails[tokenID] = newContract;\r\n        emit TokenMinted(tokenID);\r\n\r\n        return tokenID;\r\n    }\r\n\r\n    function signContract(uint256 _tokenID) public {\r\n        try this.ownerOf(_tokenID) {} catch {\r\n            revert(\"El token no existe.\"); // he intentado hacerlo con _exists pero no me ha funcionado\r\n        }\r\n        require(\r\n            !hasRole(CONTRACT_MANAGER_ROLE, msg.sender),\r\n            \"No puedes firmar tu propio contrato\"\r\n        );\r\n        require(\r\n            msg.sender == contractDetails[_tokenID].worker,\r\n            \"Solo el trabajador puede firmar el contrato\"\r\n        );\r\n        require(\r\n            !contractDetails[_tokenID].isSigned,\r\n            \"El contrato ya ha sido firmado\"\r\n        );\r\n        require(\r\n            contractDetails[_tokenID].isFinished == false,\r\n            \"El contrato ha finalizado\"\r\n        );\r\n        require(\r\n            contractDetails[_tokenID].startDate +\r\n                contractDetails[_tokenID].duration >=\r\n                block.timestamp,\r\n            \"El contrato ha expirado\"\r\n        );\r\n\r\n        contractDetails[_tokenID].isSigned = true;\r\n        contractDetails[_tokenID].worker = msg.sender;\r\n        emit ContractSigned(_tokenID, msg.sender);\r\n    }\r\n\r\n    function releaseSalary(uint256 _tokenID) public payable {\r\n        try this.ownerOf(_tokenID) {} catch {\r\n            revert(\"El token no existe.\"); // he intentado hacerlo con _exists pero no me ha funcionado\r\n        }\r\n        require(\r\n            contractDetails[_tokenID].isSigned,\r\n            \"El contrato no ha sido firmado\"\r\n        );\r\n        require(\r\n            hasRole(CONTRACT_MANAGER_ROLE, msg.sender),\r\n            \"Solo un manager puede liberar el salario\"\r\n        );\r\n        require(\r\n            contractDetails[_tokenID].isFinished == true ||\r\n                contractDetails[_tokenID].startDate +\r\n                    contractDetails[_tokenID].duration <=\r\n                block.timestamp,\r\n            \"El contrato no ha expirado aun o no ha finalizado\"\r\n        );\r\n        require(\r\n            contractDetails[_tokenID].isPaused == false,\r\n            \"El contrato esta pausado\"\r\n        );\r\n\r\n        address payable worker = payable(contractDetails[_tokenID].worker);\r\n        uint256 salary = contractDetails[_tokenID].salary;\r\n        worker.transfer(salary);\r\n        emit SalaryReleased(_tokenID, salary);\r\n    }\r\n\r\n    function finalizeContract(uint256 _tokenID) public {\r\n        try this.ownerOf(_tokenID) {} catch {\r\n            revert(\"El token no existe.\"); // he intentado hacerlo con _exists pero no me ha funcionado\r\n        }\r\n        require(\r\n            hasRole(CONTRACT_MANAGER_ROLE, msg.sender),\r\n            \"Solo un manager puede finalizar un contrato\"\r\n        );\r\n        require(\r\n            contractDetails[_tokenID].isSigned,\r\n            \"El contrato no ha sido firmado\"\r\n        );\r\n        require(\r\n            contractDetails[_tokenID].isFinished == false,\r\n            \"El contrato ya ha finalizado\"\r\n        );\r\n        require(\r\n            contractDetails[_tokenID].startDate +\r\n                contractDetails[_tokenID].duration >\r\n                block.timestamp,\r\n            \"El contrato ya ha expirado\"\r\n        );\r\n\r\n        contractDetails[_tokenID].isFinished = true;\r\n    }\r\n\r\n    function pauseContract(uint256 _tokenID) public {\r\n        try this.ownerOf(_tokenID) {} catch {\r\n            revert(\"El token no existe.\"); // he intentado hacerlo con _exists pero no me ha funcionado\r\n        }\r\n        require(\r\n            hasRole(CONTRACT_MANAGER_ROLE, msg.sender),\r\n            \"Solo un manager puede pausar un contrato\"\r\n        );\r\n        require(\r\n            contractDetails[_tokenID].isSigned,\r\n            \"El contrato no ha sido firmado\"\r\n        );\r\n        require(\r\n            contractDetails[_tokenID].startDate +\r\n                contractDetails[_tokenID].duration >=\r\n                block.timestamp,\r\n            \"El contrato ha expirado\"\r\n        );\r\n        require(\r\n            !contractDetails[_tokenID].isPaused,\r\n            \"El contrato ya esta pausado\"\r\n        );\r\n\r\n        contractDetails[_tokenID].isPaused = true;\r\n        contractDetails[_tokenID].pauseTime = block.timestamp;\r\n    }\r\n\r\n    function unPauseContract(uint256 _tokenID) public {\r\n        try this.ownerOf(_tokenID) {} catch {\r\n            revert(\"El token no existe.\"); // he intentado hacerlo con _exists pero no me ha funcionado\r\n        }\r\n        require(\r\n            hasRole(CONTRACT_MANAGER_ROLE, msg.sender),\r\n            \"Solo un manager puede reanudar un contrato\"\r\n        );\r\n        require(\r\n            contractDetails[_tokenID].isSigned,\r\n            \"El contrato no ha sido firmado\"\r\n        );\r\n        require(\r\n            contractDetails[_tokenID].isPaused,\r\n            \"El contrato no esta pausado\"\r\n        );\r\n\r\n        contractDetails[_tokenID].pauseDuration =\r\n            block.timestamp -\r\n            contractDetails[_tokenID].pauseTime;\r\n\r\n        contractDetails[_tokenID].duration += contractDetails[_tokenID]\r\n            .pauseDuration;\r\n\r\n        contractDetails[_tokenID].pauseTime = 0;\r\n        contractDetails[_tokenID].isPaused = false;\r\n    }\r\n\r\n    function cancelContract(uint256 _tokenID) public {\r\n        try this.ownerOf(_tokenID) {} catch {\r\n            revert(\"El token no existe.\"); // he intentado hacerlo con _exists pero no me ha funcionado\r\n        }\r\n        require(\r\n            hasRole(CONTRACT_MANAGER_ROLE, msg.sender),\r\n            \"Solo un manager puede cancelar un contrato\"\r\n        );\r\n        require(\r\n            !contractDetails[_tokenID].isSigned,\r\n            \"El contrato ya ha sido firmado\"\r\n        );\r\n\r\n        address payable owner = payable(msg.sender);\r\n        uint256 salary = contractDetails[_tokenID].salary;\r\n        owner.transfer(salary);\r\n        _burn(_tokenID);\r\n        emit ContractCancelled(_tokenID);\r\n    }\r\n\r\n    function assignManager(address _newManager) public {\r\n        require(\r\n            hasRole(CONTRACT_MANAGER_ROLE, msg.sender),\r\n            \"Solo un manager puede asignar otro manager\"\r\n        );\r\n        grantRole(CONTRACT_MANAGER_ROLE, _newManager);\r\n    }\r\n\r\n    function revokeManager(address _manager) public {\r\n        require(\r\n            hasRole(CONTRACT_MANAGER_ROLE, msg.sender),\r\n            \"Solo un manager puede revocar otro manager\"\r\n        );\r\n        revokeRole(CONTRACT_MANAGER_ROLE, _manager);\r\n    }\r\n\r\n    //Funcion para modificar un contrato que no haya sido firmado\r\n    //Funcion para modificar un contrato que haya sido firmado con la aprobacin del trabajador\r\n    //funcion para abrir un disputa en un contrato activo. Tanto como trabajador como como empleador\r\n    //funcion para analis: que permita saber el salario medio, el numero de contratos firmados, el numero de contratos activos, el numero de contratos cancelados, el numero de contratos finalizados, el numero de contratos en disputa, el numero de contratos que han expirado\r\n    //Fucnion que penalice a un trabajador que no haya cumplido con el contrato\r\n}\r\n",
  "sourcePath": "E:\\AppContract\\ubu-contractme\\Code\\SmartContract\\contracts\\MyContract.sol",
  "compiler": {
    "name": "solc",
    "version": "0.8.20+commit.a1b79de6.Emscripten.clang"
  },
  "schemaVersion": "3.4.16",
  "updatedAt": "2023-12-22T19:00:19.357Z",
  "networkType": "ethereum",
  "devdoc": {
    "errors": {
      "AccessControlBadConfirmation()": [
        {
          "details": "The caller of a function is not the expected one. NOTE: Don't confuse with {AccessControlUnauthorizedAccount}."
        }
      ],
      "AccessControlUnauthorizedAccount(address,bytes32)": [
        {
          "details": "The `account` is missing a role."
        }
      ],
      "ERC721IncorrectOwner(address,uint256,address)": [
        {
          "details": "Indicates an error related to the ownership over a particular token. Used in transfers.",
          "params": {
            "owner": "Address of the current owner of a token.",
            "sender": "Address whose tokens are being transferred.",
            "tokenId": "Identifier number of a token."
          }
        }
      ],
      "ERC721InsufficientApproval(address,uint256)": [
        {
          "details": "Indicates a failure with the `operator`s approval. Used in transfers.",
          "params": {
            "operator": "Address that may be allowed to operate on tokens without being their owner.",
            "tokenId": "Identifier number of a token."
          }
        }
      ],
      "ERC721InvalidApprover(address)": [
        {
          "details": "Indicates a failure with the `approver` of a token to be approved. Used in approvals.",
          "params": {
            "approver": "Address initiating an approval operation."
          }
        }
      ],
      "ERC721InvalidOperator(address)": [
        {
          "details": "Indicates a failure with the `operator` to be approved. Used in approvals.",
          "params": {
            "operator": "Address that may be allowed to operate on tokens without being their owner."
          }
        }
      ],
      "ERC721InvalidOwner(address)": [
        {
          "details": "Indicates that an address can't be an owner. For example, `address(0)` is a forbidden owner in EIP-20. Used in balance queries.",
          "params": {
            "owner": "Address of the current owner of a token."
          }
        }
      ],
      "ERC721InvalidReceiver(address)": [
        {
          "details": "Indicates a failure with the token `receiver`. Used in transfers.",
          "params": {
            "receiver": "Address to which tokens are being transferred."
          }
        }
      ],
      "ERC721InvalidSender(address)": [
        {
          "details": "Indicates a failure with the token `sender`. Used in transfers.",
          "params": {
            "sender": "Address whose tokens are being transferred."
          }
        }
      ],
      "ERC721NonexistentToken(uint256)": [
        {
          "details": "Indicates a `tokenId` whose `owner` is the zero address.",
          "params": {
            "tokenId": "Identifier number of a token."
          }
        }
      ]
    },
    "events": {
      "Approval(address,address,uint256)": {
        "details": "Emitted when `owner` enables `approved` to manage the `tokenId` token."
      },
      "ApprovalForAll(address,address,bool)": {
        "details": "Emitted when `owner` enables or disables (`approved`) `operator` to manage all of its assets."
      },
      "RoleAdminChanged(bytes32,bytes32,bytes32)": {
        "details": "Emitted when `newAdminRole` is set as ``role``'s admin role, replacing `previousAdminRole` `DEFAULT_ADMIN_ROLE` is the starting admin for all roles, despite {RoleAdminChanged} not being emitted signaling this."
      },
      "RoleGranted(bytes32,address,address)": {
        "details": "Emitted when `account` is granted `role`. `sender` is the account that originated the contract call, an admin role bearer except when using {AccessControl-_setupRole}."
      },
      "RoleRevoked(bytes32,address,address)": {
        "details": "Emitted when `account` is revoked `role`. `sender` is the account that originated the contract call:   - if using `revokeRole`, it is the admin role bearer   - if using `renounceRole`, it is the role bearer (i.e. `account`)"
      },
      "Transfer(address,address,uint256)": {
        "details": "Emitted when `tokenId` token is transferred from `from` to `to`."
      }
    },
    "kind": "dev",
    "methods": {
      "approve(address,uint256)": {
        "details": "See {IERC721-approve}."
      },
      "balanceOf(address)": {
        "details": "See {IERC721-balanceOf}."
      },
      "getApproved(uint256)": {
        "details": "See {IERC721-getApproved}."
      },
      "getRoleAdmin(bytes32)": {
        "details": "Returns the admin role that controls `role`. See {grantRole} and {revokeRole}. To change a role's admin, use {_setRoleAdmin}."
      },
      "grantRole(bytes32,address)": {
        "details": "Grants `role` to `account`. If `account` had not been already granted `role`, emits a {RoleGranted} event. Requirements: - the caller must have ``role``'s admin role. May emit a {RoleGranted} event."
      },
      "hasRole(bytes32,address)": {
        "details": "Returns `true` if `account` has been granted `role`."
      },
      "isApprovedForAll(address,address)": {
        "details": "See {IERC721-isApprovedForAll}."
      },
      "name()": {
        "details": "See {IERC721Metadata-name}."
      },
      "ownerOf(uint256)": {
        "details": "See {IERC721-ownerOf}."
      },
      "renounceRole(bytes32,address)": {
        "details": "Revokes `role` from the calling account. Roles are often managed via {grantRole} and {revokeRole}: this function's purpose is to provide a mechanism for accounts to lose their privileges if they are compromised (such as when a trusted device is misplaced). If the calling account had been revoked `role`, emits a {RoleRevoked} event. Requirements: - the caller must be `callerConfirmation`. May emit a {RoleRevoked} event."
      },
      "revokeRole(bytes32,address)": {
        "details": "Revokes `role` from `account`. If `account` had been granted `role`, emits a {RoleRevoked} event. Requirements: - the caller must have ``role``'s admin role. May emit a {RoleRevoked} event."
      },
      "safeTransferFrom(address,address,uint256)": {
        "details": "See {IERC721-safeTransferFrom}."
      },
      "safeTransferFrom(address,address,uint256,bytes)": {
        "details": "See {IERC721-safeTransferFrom}."
      },
      "setApprovalForAll(address,bool)": {
        "details": "See {IERC721-setApprovalForAll}."
      },
      "symbol()": {
        "details": "See {IERC721Metadata-symbol}."
      },
      "tokenURI(uint256)": {
        "details": "See {IERC721Metadata-tokenURI}."
      },
      "transferFrom(address,address,uint256)": {
        "details": "See {IERC721-transferFrom}."
      }
    },
    "version": 1
  },
  "userdoc": {
    "kind": "user",
    "methods": {},
    "version": 1
  }
}