{
  "contractName": "MyContract",
  "abi": [
    {
      "inputs": [],
      "stateMutability": "nonpayable",
      "type": "constructor"
    },
    {
      "inputs": [
        {
          "internalType": "address",
          "name": "sender",
          "type": "address"
        },
        {
          "internalType": "uint256",
          "name": "tokenId",
          "type": "uint256"
        },
        {
          "internalType": "address",
          "name": "owner",
          "type": "address"
        }
      ],
      "name": "ERC721IncorrectOwner",
      "type": "error"
    },
    {
      "inputs": [
        {
          "internalType": "address",
          "name": "operator",
          "type": "address"
        },
        {
          "internalType": "uint256",
          "name": "tokenId",
          "type": "uint256"
        }
      ],
      "name": "ERC721InsufficientApproval",
      "type": "error"
    },
    {
      "inputs": [
        {
          "internalType": "address",
          "name": "approver",
          "type": "address"
        }
      ],
      "name": "ERC721InvalidApprover",
      "type": "error"
    },
    {
      "inputs": [
        {
          "internalType": "address",
          "name": "operator",
          "type": "address"
        }
      ],
      "name": "ERC721InvalidOperator",
      "type": "error"
    },
    {
      "inputs": [
        {
          "internalType": "address",
          "name": "owner",
          "type": "address"
        }
      ],
      "name": "ERC721InvalidOwner",
      "type": "error"
    },
    {
      "inputs": [
        {
          "internalType": "address",
          "name": "receiver",
          "type": "address"
        }
      ],
      "name": "ERC721InvalidReceiver",
      "type": "error"
    },
    {
      "inputs": [
        {
          "internalType": "address",
          "name": "sender",
          "type": "address"
        }
      ],
      "name": "ERC721InvalidSender",
      "type": "error"
    },
    {
      "inputs": [
        {
          "internalType": "uint256",
          "name": "tokenId",
          "type": "uint256"
        }
      ],
      "name": "ERC721NonexistentToken",
      "type": "error"
    },
    {
      "anonymous": false,
      "inputs": [
        {
          "indexed": true,
          "internalType": "address",
          "name": "owner",
          "type": "address"
        },
        {
          "indexed": true,
          "internalType": "address",
          "name": "approved",
          "type": "address"
        },
        {
          "indexed": true,
          "internalType": "uint256",
          "name": "tokenId",
          "type": "uint256"
        }
      ],
      "name": "Approval",
      "type": "event"
    },
    {
      "anonymous": false,
      "inputs": [
        {
          "indexed": true,
          "internalType": "address",
          "name": "owner",
          "type": "address"
        },
        {
          "indexed": true,
          "internalType": "address",
          "name": "operator",
          "type": "address"
        },
        {
          "indexed": false,
          "internalType": "bool",
          "name": "approved",
          "type": "bool"
        }
      ],
      "name": "ApprovalForAll",
      "type": "event"
    },
    {
      "anonymous": false,
      "inputs": [
        {
          "indexed": true,
          "internalType": "uint256",
          "name": "tokenId",
          "type": "uint256"
        }
      ],
      "name": "ContractCancelled",
      "type": "event"
    },
    {
      "anonymous": false,
      "inputs": [
        {
          "indexed": true,
          "internalType": "uint256",
          "name": "tokenId",
          "type": "uint256"
        }
      ],
      "name": "ContractFinalized",
      "type": "event"
    },
    {
      "anonymous": false,
      "inputs": [
        {
          "indexed": true,
          "internalType": "uint256",
          "name": "tokenId",
          "type": "uint256"
        },
        {
          "indexed": false,
          "internalType": "address",
          "name": "worker",
          "type": "address"
        }
      ],
      "name": "ContractSigned",
      "type": "event"
    },
    {
      "anonymous": false,
      "inputs": [
        {
          "indexed": false,
          "internalType": "uint256",
          "name": "currentSalary",
          "type": "uint256"
        },
        {
          "indexed": false,
          "internalType": "uint256",
          "name": "newSalary",
          "type": "uint256"
        },
        {
          "indexed": false,
          "internalType": "uint256",
          "name": "salaryDifference",
          "type": "uint256"
        },
        {
          "indexed": false,
          "internalType": "uint256",
          "name": "msgValue",
          "type": "uint256"
        }
      ],
      "name": "Debug",
      "type": "event"
    },
    {
      "anonymous": false,
      "inputs": [
        {
          "indexed": true,
          "internalType": "uint256",
          "name": "tokenId",
          "type": "uint256"
        },
        {
          "indexed": false,
          "internalType": "uint256",
          "name": "salary",
          "type": "uint256"
        }
      ],
      "name": "SalaryReleased",
      "type": "event"
    },
    {
      "anonymous": false,
      "inputs": [
        {
          "indexed": false,
          "internalType": "uint256",
          "name": "tokenId",
          "type": "uint256"
        }
      ],
      "name": "TokenMinted",
      "type": "event"
    },
    {
      "anonymous": false,
      "inputs": [
        {
          "indexed": true,
          "internalType": "address",
          "name": "from",
          "type": "address"
        },
        {
          "indexed": true,
          "internalType": "address",
          "name": "to",
          "type": "address"
        },
        {
          "indexed": true,
          "internalType": "uint256",
          "name": "tokenId",
          "type": "uint256"
        }
      ],
      "name": "Transfer",
      "type": "event"
    },
    {
      "inputs": [
        {
          "internalType": "address",
          "name": "to",
          "type": "address"
        },
        {
          "internalType": "uint256",
          "name": "tokenId",
          "type": "uint256"
        }
      ],
      "name": "approve",
      "outputs": [],
      "stateMutability": "nonpayable",
      "type": "function"
    },
    {
      "inputs": [
        {
          "internalType": "address",
          "name": "owner",
          "type": "address"
        }
      ],
      "name": "balanceOf",
      "outputs": [
        {
          "internalType": "uint256",
          "name": "",
          "type": "uint256"
        }
      ],
      "stateMutability": "view",
      "type": "function",
      "constant": true
    },
    {
      "inputs": [
        {
          "internalType": "uint256",
          "name": "",
          "type": "uint256"
        }
      ],
      "name": "changeProposals",
      "outputs": [
        {
          "internalType": "string",
          "name": "newTitle",
          "type": "string"
        },
        {
          "internalType": "uint256",
          "name": "newSalary",
          "type": "uint256"
        },
        {
          "internalType": "uint256",
          "name": "newDuration",
          "type": "uint256"
        },
        {
          "internalType": "string",
          "name": "newDescription",
          "type": "string"
        },
        {
          "internalType": "bool",
          "name": "isPaused",
          "type": "bool"
        },
        {
          "internalType": "bool",
          "name": "isPending",
          "type": "bool"
        }
      ],
      "stateMutability": "view",
      "type": "function",
      "constant": true
    },
    {
      "inputs": [
        {
          "internalType": "uint256",
          "name": "",
          "type": "uint256"
        }
      ],
      "name": "contractDetails",
      "outputs": [
        {
          "internalType": "uint256",
          "name": "salary",
          "type": "uint256"
        },
        {
          "internalType": "uint256",
          "name": "startDate",
          "type": "uint256"
        },
        {
          "internalType": "uint256",
          "name": "duration",
          "type": "uint256"
        },
        {
          "internalType": "string",
          "name": "title",
          "type": "string"
        },
        {
          "internalType": "string",
          "name": "description",
          "type": "string"
        },
        {
          "internalType": "bool",
          "name": "isSigned",
          "type": "bool"
        },
        {
          "internalType": "address",
          "name": "worker",
          "type": "address"
        },
        {
          "internalType": "bool",
          "name": "isFinished",
          "type": "bool"
        },
        {
          "internalType": "bool",
          "name": "isReleased",
          "type": "bool"
        },
        {
          "internalType": "bool",
          "name": "isPaused",
          "type": "bool"
        },
        {
          "internalType": "uint256",
          "name": "pauseTime",
          "type": "uint256"
        },
        {
          "internalType": "uint256",
          "name": "pauseDuration",
          "type": "uint256"
        }
      ],
      "stateMutability": "view",
      "type": "function",
      "constant": true
    },
    {
      "inputs": [
        {
          "internalType": "uint256",
          "name": "tokenId",
          "type": "uint256"
        }
      ],
      "name": "getApproved",
      "outputs": [
        {
          "internalType": "address",
          "name": "",
          "type": "address"
        }
      ],
      "stateMutability": "view",
      "type": "function",
      "constant": true
    },
    {
      "inputs": [
        {
          "internalType": "address",
          "name": "owner",
          "type": "address"
        },
        {
          "internalType": "address",
          "name": "operator",
          "type": "address"
        }
      ],
      "name": "isApprovedForAll",
      "outputs": [
        {
          "internalType": "bool",
          "name": "",
          "type": "bool"
        }
      ],
      "stateMutability": "view",
      "type": "function",
      "constant": true
    },
    {
      "inputs": [],
      "name": "name",
      "outputs": [
        {
          "internalType": "string",
          "name": "",
          "type": "string"
        }
      ],
      "stateMutability": "view",
      "type": "function",
      "constant": true
    },
    {
      "inputs": [
        {
          "internalType": "uint256",
          "name": "tokenId",
          "type": "uint256"
        }
      ],
      "name": "ownerOf",
      "outputs": [
        {
          "internalType": "address",
          "name": "",
          "type": "address"
        }
      ],
      "stateMutability": "view",
      "type": "function",
      "constant": true
    },
    {
      "inputs": [
        {
          "internalType": "address",
          "name": "from",
          "type": "address"
        },
        {
          "internalType": "address",
          "name": "to",
          "type": "address"
        },
        {
          "internalType": "uint256",
          "name": "tokenId",
          "type": "uint256"
        }
      ],
      "name": "safeTransferFrom",
      "outputs": [],
      "stateMutability": "nonpayable",
      "type": "function"
    },
    {
      "inputs": [
        {
          "internalType": "address",
          "name": "from",
          "type": "address"
        },
        {
          "internalType": "address",
          "name": "to",
          "type": "address"
        },
        {
          "internalType": "uint256",
          "name": "tokenId",
          "type": "uint256"
        },
        {
          "internalType": "bytes",
          "name": "data",
          "type": "bytes"
        }
      ],
      "name": "safeTransferFrom",
      "outputs": [],
      "stateMutability": "nonpayable",
      "type": "function"
    },
    {
      "inputs": [
        {
          "internalType": "address",
          "name": "operator",
          "type": "address"
        },
        {
          "internalType": "bool",
          "name": "approved",
          "type": "bool"
        }
      ],
      "name": "setApprovalForAll",
      "outputs": [],
      "stateMutability": "nonpayable",
      "type": "function"
    },
    {
      "inputs": [
        {
          "internalType": "bytes4",
          "name": "interfaceId",
          "type": "bytes4"
        }
      ],
      "name": "supportsInterface",
      "outputs": [
        {
          "internalType": "bool",
          "name": "",
          "type": "bool"
        }
      ],
      "stateMutability": "view",
      "type": "function",
      "constant": true
    },
    {
      "inputs": [],
      "name": "symbol",
      "outputs": [
        {
          "internalType": "string",
          "name": "",
          "type": "string"
        }
      ],
      "stateMutability": "view",
      "type": "function",
      "constant": true
    },
    {
      "inputs": [
        {
          "internalType": "uint256",
          "name": "",
          "type": "uint256"
        },
        {
          "internalType": "address",
          "name": "",
          "type": "address"
        }
      ],
      "name": "tokenManagers",
      "outputs": [
        {
          "internalType": "bool",
          "name": "",
          "type": "bool"
        }
      ],
      "stateMutability": "view",
      "type": "function",
      "constant": true
    },
    {
      "inputs": [
        {
          "internalType": "uint256",
          "name": "tokenId",
          "type": "uint256"
        }
      ],
      "name": "tokenURI",
      "outputs": [
        {
          "internalType": "string",
          "name": "",
          "type": "string"
        }
      ],
      "stateMutability": "view",
      "type": "function",
      "constant": true
    },
    {
      "inputs": [
        {
          "internalType": "address",
          "name": "from",
          "type": "address"
        },
        {
          "internalType": "address",
          "name": "to",
          "type": "address"
        },
        {
          "internalType": "uint256",
          "name": "tokenId",
          "type": "uint256"
        }
      ],
      "name": "transferFrom",
      "outputs": [],
      "stateMutability": "nonpayable",
      "type": "function"
    },
    {
      "inputs": [
        {
          "internalType": "address",
          "name": "_to",
          "type": "address"
        },
        {
          "internalType": "uint256",
          "name": "_salary",
          "type": "uint256"
        },
        {
          "internalType": "uint256",
          "name": "_duration",
          "type": "uint256"
        },
        {
          "internalType": "string",
          "name": "_description",
          "type": "string"
        },
        {
          "internalType": "string",
          "name": "_title",
          "type": "string"
        }
      ],
      "name": "mint",
      "outputs": [
        {
          "internalType": "uint256",
          "name": "",
          "type": "uint256"
        }
      ],
      "stateMutability": "payable",
      "type": "function",
      "payable": true
    },
    {
      "inputs": [
        {
          "internalType": "uint256",
          "name": "_tokenID",
          "type": "uint256"
        }
      ],
      "name": "signContract",
      "outputs": [],
      "stateMutability": "nonpayable",
      "type": "function"
    },
    {
      "inputs": [
        {
          "internalType": "uint256",
          "name": "_tokenID",
          "type": "uint256"
        }
      ],
      "name": "releaseSalary",
      "outputs": [],
      "stateMutability": "payable",
      "type": "function",
      "payable": true
    },
    {
      "inputs": [
        {
          "internalType": "uint256",
          "name": "_tokenID",
          "type": "uint256"
        }
      ],
      "name": "finalizeContract",
      "outputs": [],
      "stateMutability": "nonpayable",
      "type": "function"
    },
    {
      "inputs": [
        {
          "internalType": "uint256",
          "name": "_tokenID",
          "type": "uint256"
        }
      ],
      "name": "pauseContract",
      "outputs": [],
      "stateMutability": "nonpayable",
      "type": "function"
    },
    {
      "inputs": [
        {
          "internalType": "uint256",
          "name": "_tokenID",
          "type": "uint256"
        }
      ],
      "name": "unPauseContract",
      "outputs": [],
      "stateMutability": "nonpayable",
      "type": "function"
    },
    {
      "inputs": [
        {
          "internalType": "uint256",
          "name": "_tokenID",
          "type": "uint256"
        }
      ],
      "name": "cancelContract",
      "outputs": [],
      "stateMutability": "nonpayable",
      "type": "function"
    },
    {
      "inputs": [
        {
          "internalType": "uint256",
          "name": "_tokenId",
          "type": "uint256"
        },
        {
          "internalType": "address",
          "name": "_newManager",
          "type": "address"
        }
      ],
      "name": "assignManagerToToken",
      "outputs": [],
      "stateMutability": "nonpayable",
      "type": "function"
    },
    {
      "inputs": [
        {
          "internalType": "uint256",
          "name": "_tokenId",
          "type": "uint256"
        },
        {
          "internalType": "address",
          "name": "_manager",
          "type": "address"
        }
      ],
      "name": "revokeManagerFromToken",
      "outputs": [],
      "stateMutability": "nonpayable",
      "type": "function"
    },
    {
      "inputs": [
        {
          "internalType": "uint256",
          "name": "_tokenId",
          "type": "uint256"
        },
        {
          "internalType": "address",
          "name": "_manager",
          "type": "address"
        }
      ],
      "name": "isManagerOfToken",
      "outputs": [
        {
          "internalType": "bool",
          "name": "",
          "type": "bool"
        }
      ],
      "stateMutability": "view",
      "type": "function",
      "constant": true
    },
    {
      "inputs": [
        {
          "internalType": "uint256",
          "name": "_tokenID",
          "type": "uint256"
        },
        {
          "internalType": "string",
          "name": "_newTitle",
          "type": "string"
        },
        {
          "internalType": "uint256",
          "name": "_newSalary",
          "type": "uint256"
        },
        {
          "internalType": "uint256",
          "name": "_newDuration",
          "type": "uint256"
        },
        {
          "internalType": "string",
          "name": "_newDescription",
          "type": "string"
        },
        {
          "internalType": "bool",
          "name": "_isPaused",
          "type": "bool"
        }
      ],
      "name": "proposeChange",
      "outputs": [],
      "stateMutability": "payable",
      "type": "function",
      "payable": true
    },
    {
      "inputs": [
        {
          "internalType": "uint256",
          "name": "_tokenID",
          "type": "uint256"
        }
      ],
      "name": "rejectChange",
      "outputs": [],
      "stateMutability": "nonpayable",
      "type": "function"
    },
    {
      "inputs": [
        {
          "internalType": "uint256",
          "name": "_tokenID",
          "type": "uint256"
        }
      ],
      "name": "applyChange",
      "outputs": [],
      "stateMutability": "payable",
      "type": "function",
      "payable": true
    },
    {
      "inputs": [
        {
          "internalType": "address",
          "name": "_address",
          "type": "address"
        }
      ],
      "name": "getContractsFromOwner",
      "outputs": [
        {
          "internalType": "uint256[]",
          "name": "",
          "type": "uint256[]"
        }
      ],
      "stateMutability": "view",
      "type": "function",
      "constant": true
    },
    {
      "inputs": [
        {
          "internalType": "address",
          "name": "_address",
          "type": "address"
        }
      ],
      "name": "getContractsOfWorker",
      "outputs": [
        {
          "internalType": "uint256[]",
          "name": "",
          "type": "uint256[]"
        }
      ],
      "stateMutability": "view",
      "type": "function",
      "constant": true
    },
    {
      "inputs": [
        {
          "internalType": "uint256",
          "name": "_tokenID",
          "type": "uint256"
        }
      ],
      "name": "isContractFinished",
      "outputs": [
        {
          "internalType": "bool",
          "name": "",
          "type": "bool"
        }
      ],
      "stateMutability": "view",
      "type": "function",
      "constant": true
    },
    {
      "inputs": [
        {
          "internalType": "uint256",
          "name": "_tokenID",
          "type": "uint256"
        }
      ],
      "name": "isContractSigned",
      "outputs": [
        {
          "internalType": "bool",
          "name": "",
          "type": "bool"
        }
      ],
      "stateMutability": "view",
      "type": "function",
      "constant": true
    },
    {
      "inputs": [
        {
          "internalType": "uint256",
          "name": "_tokenID",
          "type": "uint256"
        }
      ],
      "name": "getOwnerOfContract",
      "outputs": [
        {
          "internalType": "address",
          "name": "",
          "type": "address"
        }
      ],
      "stateMutability": "view",
      "type": "function",
      "constant": true
    }
  ],
  "bytecode": "0x608060405234801562000010575f80fd5b506040518060400160405280600781526020017f4d79546f6b656e000000000000000000000000000000000000000000000000008152506040518060400160405280600381526020017f4d544b0000000000000000000000000000000000000000000000000000000000815250815f90816200008d91906200030c565b5080600190816200009f91906200030c565b505050620003f0565b5f81519050919050565b7f4e487b71000000000000000000000000000000000000000000000000000000005f52604160045260245ffd5b7f4e487b71000000000000000000000000000000000000000000000000000000005f52602260045260245ffd5b5f60028204905060018216806200012457607f821691505b6020821081036200013a5762000139620000df565b5b50919050565b5f819050815f5260205f209050919050565b5f6020601f8301049050919050565b5f82821b905092915050565b5f600883026200019e7fffffffffffffffffffffffffffffffffffffffffffffffffffffffffffffffff8262000161565b620001aa868362000161565b95508019841693508086168417925050509392505050565b5f819050919050565b5f819050919050565b5f620001f4620001ee620001e884620001c2565b620001cb565b620001c2565b9050919050565b5f819050919050565b6200020f83620001d4565b620002276200021e82620001fb565b8484546200016d565b825550505050565b5f90565b6200023d6200022f565b6200024a81848462000204565b505050565b5b818110156200027157620002655f8262000233565b60018101905062000250565b5050565b601f821115620002c0576200028a8162000140565b620002958462000152565b81016020851015620002a5578190505b620002bd620002b48562000152565b8301826200024f565b50505b505050565b5f82821c905092915050565b5f620002e25f1984600802620002c5565b1980831691505092915050565b5f620002fc8383620002d1565b9150826002028217905092915050565b6200031782620000a8565b67ffffffffffffffff811115620003335762000332620000b2565b5b6200033f82546200010c565b6200034c82828562000275565b5f60209050601f83116001811462000382575f84156200036d578287015190505b620003798582620002ef565b865550620003e8565b601f198416620003928662000140565b5f5b82811015620003bb5784890151825560018201915060208501945060208101905062000394565b86831015620003db5784890151620003d7601f891682620002d1565b8355505b6001600288020188555050505b505050505050565b615c1b80620003fe5f395ff3fe6080604052600436106101f8575f3560e01c80636352211e1161010c578063a22cb4651161009f578063c87b56dd1161006e578063c87b56dd1461075f578063d053b4511461079b578063e2c07c7b146107d7578063e985e9c5146107f3578063fc5a4efe1461082f576101f8565b8063a22cb465146106ab578063b88d4fde146106d3578063bce87156146106fb578063c2852f3814610737576101f8565b806390d16ce4116100db57806390d16ce4146105e157806393a43c191461061d5780639537e8d11461065957806395d89b4114610681576101f8565b80636352211e146105115780636d0136181461054d57806370a082311461057d57806389b83d3e146105b9576101f8565b8063280474501161018f5780633330a55f1161015e5780633330a55f14610442578063409283d01461048957806342842e0e146104a55780634ec3e2aa146104cd5780634f73d79d146104f5576101f8565b8063280474501461037a5780632907eb16146103a2578063294a7931146103ca57806331432e4514610406576101f8565b8063095ea7b3116101cb578063095ea7b3146102c65780632355e217146102ee57806323b872dd1461031657806323e0f2371461033e576101f8565b806301ffc9a7146101fc578063045b6a4e1461023857806306fdde0314610260578063081812fc1461028a575b5f80fd5b348015610207575f80fd5b50610222600480360381019061021d9190614299565b610870565b60405161022f91906142de565b60405180910390f35b348015610243575f80fd5b5061025e60048036038101906102599190614384565b610951565b005b34801561026b575f80fd5b50610274610a50565b604051610281919061444c565b60405180910390f35b348015610295575f80fd5b506102b060048036038101906102ab919061446c565b610adf565b6040516102bd91906144a6565b60405180910390f35b3480156102d1575f80fd5b506102ec60048036038101906102e791906144bf565b610afa565b005b3480156102f9575f80fd5b50610314600480360381019061030f9190614384565b610b10565b005b348015610321575f80fd5b5061033c600480360381019061033791906144fd565b610c73565b005b348015610349575f80fd5b50610364600480360381019061035f919061446c565b610d72565b60405161037191906144a6565b60405180910390f35b348015610385575f80fd5b506103a0600480360381019061039b919061446c565b610d83565b005b3480156103ad575f80fd5b506103c860048036038101906103c3919061446c565b610fda565b005b3480156103d5575f80fd5b506103f060048036038101906103eb9190614384565b61129e565b6040516103fd91906142de565b60405180910390f35b348015610411575f80fd5b5061042c60048036038101906104279190614384565b6112c8565b60405161043991906142de565b60405180910390f35b34801561044d575f80fd5b506104686004803603810190610463919061446c565b61132a565b6040516104809c9b9a9998979695949392919061455c565b60405180910390f35b6104a3600480360381019061049e919061446c565b6114e5565b005b3480156104b0575f80fd5b506104cb60048036038101906104c691906144fd565b611873565b005b3480156104d8575f80fd5b506104f360048036038101906104ee919061446c565b611892565b005b61050f600480360381019061050a9190614778565b611b49565b005b34801561051c575f80fd5b506105376004803603810190610532919061446c565b611ce5565b60405161054491906144a6565b60405180910390f35b61056760048036038101906105629190614839565b611cf6565b60405161057491906148e8565b60405180910390f35b348015610588575f80fd5b506105a3600480360381019061059e9190614901565b61207b565b6040516105b091906148e8565b60405180910390f35b3480156105c4575f80fd5b506105df60048036038101906105da919061446c565b612131565b005b3480156105ec575f80fd5b5061060760048036038101906106029190614901565b612373565b60405161061491906149e3565b60405180910390f35b348015610628575f80fd5b50610643600480360381019061063e919061446c565b612406565b60405161065091906142de565b60405180910390f35b348015610664575f80fd5b5061067f600480360381019061067a919061446c565b61242f565b005b34801561068c575f80fd5b50610695612853565b6040516106a2919061444c565b60405180910390f35b3480156106b6575f80fd5b506106d160048036038101906106cc9190614a03565b6128e3565b005b3480156106de575f80fd5b506106f960048036038101906106f49190614adf565b6128f9565b005b348015610706575f80fd5b50610721600480360381019061071c919061446c565b612916565b60405161072e91906142de565b60405180910390f35b348015610742575f80fd5b5061075d6004803603810190610758919061446c565b6129b9565b005b34801561076a575f80fd5b506107856004803603810190610780919061446c565b612bc5565b604051610792919061444c565b60405180910390f35b3480156107a6575f80fd5b506107c160048036038101906107bc9190614901565b612c2b565b6040516107ce91906149e3565b60405180910390f35b6107f160048036038101906107ec919061446c565b612cbe565b005b3480156107fe575f80fd5b5061081960048036038101906108149190614b5f565b61308a565b60405161082691906142de565b60405180910390f35b34801561083a575f80fd5b506108556004803603810190610850919061446c565b613118565b60405161086796959493929190614b9d565b60405180910390f35b5f7f80ac58cd000000000000000000000000000000000000000000000000000000007bffffffffffffffffffffffffffffffffffffffffffffffffffffffff1916827bffffffffffffffffffffffffffffffffffffffffffffffffffffffff1916148061093a57507f5b5e139f000000000000000000000000000000000000000000000000000000007bffffffffffffffffffffffffffffffffffffffffffffffffffffffff1916827bffffffffffffffffffffffffffffffffffffffffffffffffffffffff1916145b8061094a575061094982613275565b5b9050919050565b60075f8381526020019081526020015f205f3373ffffffffffffffffffffffffffffffffffffffff1673ffffffffffffffffffffffffffffffffffffffff1681526020019081526020015f205f9054906101000a900460ff166109e9576040517f08c379a00000000000000000000000000000000000000000000000000000000081526004016109e090614c7a565b60405180910390fd5b5f60075f8481526020019081526020015f205f8373ffffffffffffffffffffffffffffffffffffffff1673ffffffffffffffffffffffffffffffffffffffff1681526020019081526020015f205f6101000a81548160ff0219169083151502179055505050565b60605f8054610a5e90614cc5565b80601f0160208091040260200160405190810160405280929190818152602001828054610a8a90614cc5565b8015610ad55780601f10610aac57610100808354040283529160200191610ad5565b820191905f5260205f20905b815481529060010190602001808311610ab857829003601f168201915b5050505050905090565b5f610ae9826132de565b50610af382613364565b9050919050565b610b0c8282610b0761339d565b6133a4565b5050565b60075f8381526020019081526020015f205f3373ffffffffffffffffffffffffffffffffffffffff1673ffffffffffffffffffffffffffffffffffffffff1681526020019081526020015f205f9054906101000a900460ff16610ba8576040517f08c379a0000000000000000000000000000000000000000000000000000000008152600401610b9f90614d65565b60405180910390fd5b600160075f8481526020019081526020015f205f8373ffffffffffffffffffffffffffffffffffffffff1673ffffffffffffffffffffffffffffffffffffffff1681526020019081526020015f205f6101000a81548160ff02191690831515021790555060095f8273ffffffffffffffffffffffffffffffffffffffff1673ffffffffffffffffffffffffffffffffffffffff1681526020019081526020015f20600654908060018154018082558091505060019003905f5260205f20015f90919091909150555050565b5f73ffffffffffffffffffffffffffffffffffffffff168273ffffffffffffffffffffffffffffffffffffffff1603610ce3575f6040517f64a0ae92000000000000000000000000000000000000000000000000000000008152600401610cda91906144a6565b60405180910390fd5b5f610cf68383610cf161339d565b6133b6565b90508373ffffffffffffffffffffffffffffffffffffffff168173ffffffffffffffffffffffffffffffffffffffff1614610d6c578382826040517f64283d7b000000000000000000000000000000000000000000000000000000008152600401610d6393929190614d83565b60405180910390fd5b50505050565b5f610d7c82611ce5565b9050919050565b3073ffffffffffffffffffffffffffffffffffffffff16636352211e826040518263ffffffff1660e01b8152600401610dbc91906148e8565b602060405180830381865afa925050508015610df657506040513d601f19601f82011682018060405250810190610df39190614dcc565b60015b610e35576040517f08c379a0000000000000000000000000000000000000000000000000000000008152600401610e2c90614e41565b60405180910390fd5b506001151560075f8381526020019081526020015f205f3373ffffffffffffffffffffffffffffffffffffffff1673ffffffffffffffffffffffffffffffffffffffff1681526020019081526020015f205f9054906101000a900460ff16151514610ed5576040517f08c379a0000000000000000000000000000000000000000000000000000000008152600401610ecc90614ecf565b60405180910390fd5b60085f8281526020019081526020015f206005015f9054906101000a900460ff1615610f36576040517f08c379a0000000000000000000000000000000000000000000000000000000008152600401610f2d90614f37565b60405180910390fd5b5f3390505f60085f8481526020019081526020015f205f015490508173ffffffffffffffffffffffffffffffffffffffff166108fc8290811502906040515f60405180830381858888f19350505050158015610f94573d5f803e3d5ffd5b50610f9e836135c1565b610fa88333613643565b827f2d5f5ed000d42aa6f6fc13400f7d7161cd1bea793fec354b11e3451f9f2b07c360405160405180910390a2505050565b3073ffffffffffffffffffffffffffffffffffffffff16636352211e826040518263ffffffff1660e01b815260040161101391906148e8565b602060405180830381865afa92505050801561104d57506040513d601f19601f8201168201806040525081019061104a9190614dcc565b60015b61108c576040517f08c379a000000000000000000000000000000000000000000000000000000000815260040161108390614e41565b60405180910390fd5b506001151560075f8381526020019081526020015f205f3373ffffffffffffffffffffffffffffffffffffffff1673ffffffffffffffffffffffffffffffffffffffff1681526020019081526020015f205f9054906101000a900460ff1615151461112c576040517f08c379a000000000000000000000000000000000000000000000000000000000815260040161112390614fc5565b60405180910390fd5b60085f8281526020019081526020015f206005015f9054906101000a900460ff1661118c576040517f08c379a00000000000000000000000000000000000000000000000000000000081526004016111839061502d565b60405180910390fd5b5f151560085f8381526020019081526020015f2060050160159054906101000a900460ff161515146111f3576040517f08c379a00000000000000000000000000000000000000000000000000000000081526004016111ea90615095565b60405180910390fd5b5f15156111ff82612916565b151514611241576040517f08c379a0000000000000000000000000000000000000000000000000000000008152600401611238906150fd565b60405180910390fd5b600160085f8381526020019081526020015f2060050160156101000a81548160ff021916908315150217905550807fc54419e57952d1437d40dd5b59e2a646b3b90caf014c939e27c87ea597a3ace560405160405180910390a250565b6007602052815f5260405f20602052805f5260405f205f915091509054906101000a900460ff1681565b5f60075f8481526020019081526020015f205f8373ffffffffffffffffffffffffffffffffffffffff1673ffffffffffffffffffffffffffffffffffffffff1681526020019081526020015f205f9054906101000a900460ff16905092915050565b6008602052805f5260405f205f91509050805f01549080600101549080600201549080600301805461135b90614cc5565b80601f016020809104026020016040519081016040528092919081815260200182805461138790614cc5565b80156113d25780601f106113a9576101008083540402835291602001916113d2565b820191905f5260205f20905b8154815290600101906020018083116113b557829003601f168201915b5050505050908060040180546113e790614cc5565b80601f016020809104026020016040519081016040528092919081815260200182805461141390614cc5565b801561145e5780601f106114355761010080835404028352916020019161145e565b820191905f5260205f20905b81548152906001019060200180831161144157829003601f168201915b505050505090806005015f9054906101000a900460ff16908060050160019054906101000a900473ffffffffffffffffffffffffffffffffffffffff16908060050160159054906101000a900460ff16908060050160169054906101000a900460ff16908060050160179054906101000a900460ff1690806006015490806007015490508c565b60011515600b5f8381526020019081526020015f2060040160019054906101000a900460ff1615151461154d576040517f08c379a000000000000000000000000000000000000000000000000000000000815260040161154490615165565b60405180910390fd5b5f600b5f8381526020019081526020015f206040518060c00160405290815f8201805461157990614cc5565b80601f01602080910402602001604051908101604052809291908181526020018280546115a590614cc5565b80156115f05780601f106115c7576101008083540402835291602001916115f0565b820191905f5260205f20905b8154815290600101906020018083116115d357829003601f168201915b50505050508152602001600182015481526020016002820154815260200160038201805461161d90614cc5565b80601f016020809104026020016040519081016040528092919081815260200182805461164990614cc5565b80156116945780601f1061166b57610100808354040283529160200191611694565b820191905f5260205f20905b81548152906001019060200180831161167757829003601f168201915b50505050508152602001600482015f9054906101000a900460ff161515151581526020016004820160019054906101000a900460ff161515151581525050905060085f8381526020019081526020015f205f01548160200151101561176c575f816020015160085f8581526020019081526020015f205f015461171791906151b0565b90505f61172384611ce5565b90508073ffffffffffffffffffffffffffffffffffffffff166108fc8390811502906040515f60405180830381858888f19350505050158015611768573d5f803e3d5ffd5b5050505b805f015160085f8481526020019081526020015f2060030190816117909190615380565b50806020015160085f8481526020019081526020015f205f0181905550806040015160085f8481526020019081526020015f2060020181905550806060015160085f8481526020019081526020015f2060040190816117ef9190615380565b5060085f8381526020019081526020015f2060050160179054906101000a900460ff16151581608001511515146118435780608001511561183857611833826129b9565b611842565b61184182612131565b5b5b5f600b5f8481526020019081526020015f2060040160016101000a81548160ff0219169083151502179055505050565b61188d83838360405180602001604052805f8152506128f9565b505050565b60011515600b5f8381526020019081526020015f2060040160019054906101000a900460ff161515146118fa576040517f08c379a00000000000000000000000000000000000000000000000000000000081526004016118f190615165565b60405180910390fd5b5f600b5f8381526020019081526020015f206040518060c00160405290815f8201805461192690614cc5565b80601f016020809104026020016040519081016040528092919081815260200182805461195290614cc5565b801561199d5780601f106119745761010080835404028352916020019161199d565b820191905f5260205f20905b81548152906001019060200180831161198057829003601f168201915b5050505050815260200160018201548152602001600282015481526020016003820180546119ca90614cc5565b80601f01602080910402602001604051908101604052809291908181526020018280546119f690614cc5565b8015611a415780601f10611a1857610100808354040283529160200191611a41565b820191905f5260205f20905b815481529060010190602001808311611a2457829003601f168201915b50505050508152602001600482015f9054906101000a900460ff161515151581526020016004820160019054906101000a900460ff161515151581525050905060085f8381526020019081526020015f205f015481602001511115611b19575f60085f8481526020019081526020015f205f01548260200151611ac491906151b0565b90505f611ad084611ce5565b90508073ffffffffffffffffffffffffffffffffffffffff166108fc8390811502906040515f60405180830381858888f19350505050158015611b15573d5f803e3d5ffd5b5050505b5f600b5f8481526020019081526020015f2060040160016101000a81548160ff0219169083151502179055505050565b5f60085f8881526020019081526020015f205f0154905080851115611c19575f8186611b7591906151b0565b905080341015611bba576040517f08c379a0000000000000000000000000000000000000000000000000000000008152600401611bb1906154bf565b60405180910390fd5b5f8134611bc791906151b0565b90505f811115611c16573373ffffffffffffffffffffffffffffffffffffffff166108fc8290811502906040515f60405180830381858888f19350505050158015611c14573d5f803e3d5ffd5b505b50505b6040518060c00160405280878152602001868152602001858152602001848152602001831515815260200160011515815250600b5f8981526020019081526020015f205f820151815f019081611c6f9190615380565b5060208201518160010155604082015181600201556060820151816003019081611c999190615380565b506080820151816004015f6101000a81548160ff02191690831515021790555060a08201518160040160016101000a81548160ff02191690831515021790555090505050505050505050565b5f611cef826132de565b9050919050565b5f84341015611d3a576040517f08c379a0000000000000000000000000000000000000000000000000000000008152600401611d319061554d565b60405180910390fd5b60065f815480929190611d4c9061556b565b9190505550611d5d33600654613879565b5f8534611d6a91906151b0565b90505f811115611db9573373ffffffffffffffffffffffffffffffffffffffff166108fc8290811502906040515f60405180830381858888f19350505050158015611db7573d5f803e3d5ffd5b505b5f6040518061018001604052808881526020014281526020018781526020018581526020018681526020015f151581526020018973ffffffffffffffffffffffffffffffffffffffff1681526020015f151581526020015f151581526020015f151581526020015f81526020015f81525090508060085f60065481526020019081526020015f205f820151815f015560208201518160010155604082015181600201556060820151816003019081611e719190615380565b506080820151816004019081611e879190615380565b5060a0820151816005015f6101000a81548160ff02191690831515021790555060c08201518160050160016101000a81548173ffffffffffffffffffffffffffffffffffffffff021916908373ffffffffffffffffffffffffffffffffffffffff16021790555060e08201518160050160156101000a81548160ff0219169083151502179055506101008201518160050160166101000a81548160ff0219169083151502179055506101208201518160050160176101000a81548160ff02191690831515021790555061014082015181600601556101608201518160070155905050600160075f60065481526020019081526020015f205f3373ffffffffffffffffffffffffffffffffffffffff1673ffffffffffffffffffffffffffffffffffffffff1681526020019081526020015f205f6101000a81548160ff02191690831515021790555060095f3373ffffffffffffffffffffffffffffffffffffffff1673ffffffffffffffffffffffffffffffffffffffff1681526020019081526020015f20600654908060018154018082558091505060019003905f5260205f20015f90919091909150557ff00d28232b285f24f2e38415deb2ceb31069e70d4505838b3911b4f02058502e60065460405161206391906148e8565b60405180910390a16006549250505095945050505050565b5f8073ffffffffffffffffffffffffffffffffffffffff168273ffffffffffffffffffffffffffffffffffffffff16036120ec575f6040517f89c62b640000000000000000000000000000000000000000000000000000000081526004016120e391906144a6565b60405180910390fd5b60035f8373ffffffffffffffffffffffffffffffffffffffff1673ffffffffffffffffffffffffffffffffffffffff1681526020019081526020015f20549050919050565b3073ffffffffffffffffffffffffffffffffffffffff16636352211e826040518263ffffffff1660e01b815260040161216a91906148e8565b602060405180830381865afa9250505080156121a457506040513d601f19601f820116820180604052508101906121a19190614dcc565b60015b6121e3576040517f08c379a00000000000000000000000000000000000000000000000000000000081526004016121da90614e41565b60405180910390fd5b5060085f8281526020019081526020015f206005015f9054906101000a900460ff16612244576040517f08c379a000000000000000000000000000000000000000000000000000000000815260040161223b9061502d565b60405180910390fd5b60085f8281526020019081526020015f2060050160179054906101000a900460ff166122a5576040517f08c379a000000000000000000000000000000000000000000000000000000000815260040161229c906155fc565b60405180910390fd5b5f15156122b182612916565b1515146122f3576040517f08c379a00000000000000000000000000000000000000000000000000000000081526004016122ea906150fd565b60405180910390fd5b60085f8281526020019081526020015f20600601544261231391906151b0565b60085f8381526020019081526020015f20600701819055505f60085f8381526020019081526020015f20600601819055505f60085f8381526020019081526020015f2060050160176101000a81548160ff02191690831515021790555050565b606060095f8373ffffffffffffffffffffffffffffffffffffffff1673ffffffffffffffffffffffffffffffffffffffff1681526020019081526020015f208054806020026020016040519081016040528092919081815260200182805480156123fa57602002820191905f5260205f20905b8154815260200190600101908083116123e6575b50505050509050919050565b5f60085f8381526020019081526020015f206005015f9054906101000a900460ff169050919050565b3073ffffffffffffffffffffffffffffffffffffffff16636352211e826040518263ffffffff1660e01b815260040161246891906148e8565b602060405180830381865afa9250505080156124a257506040513d601f19601f8201168201806040525081019061249f9190614dcc565b60015b6124e1576040517f08c379a00000000000000000000000000000000000000000000000000000000081526004016124d890614e41565b60405180910390fd5b505f151560075f8381526020019081526020015f205f3373ffffffffffffffffffffffffffffffffffffffff1673ffffffffffffffffffffffffffffffffffffffff1681526020019081526020015f205f9054906101000a900460ff16151514612580576040517f08c379a00000000000000000000000000000000000000000000000000000000081526004016125779061568a565b60405180910390fd5b60085f8281526020019081526020015f2060050160019054906101000a900473ffffffffffffffffffffffffffffffffffffffff1673ffffffffffffffffffffffffffffffffffffffff163373ffffffffffffffffffffffffffffffffffffffff1614612622576040517f08c379a000000000000000000000000000000000000000000000000000000000815260040161261990615718565b60405180910390fd5b60085f8281526020019081526020015f206005015f9054906101000a900460ff1615612683576040517f08c379a000000000000000000000000000000000000000000000000000000000815260040161267a90614f37565b60405180910390fd5b5f151560085f8381526020019081526020015f2060050160159054906101000a900460ff161515146126ea576040517f08c379a00000000000000000000000000000000000000000000000000000000081526004016126e190615780565b60405180910390fd5b5f15156126f682612916565b151514612738576040517f08c379a000000000000000000000000000000000000000000000000000000000815260040161272f906150fd565b60405180910390fd5b600160085f8381526020019081526020015f206005015f6101000a81548160ff0219169083151502179055503360085f8381526020019081526020015f2060050160016101000a81548173ffffffffffffffffffffffffffffffffffffffff021916908373ffffffffffffffffffffffffffffffffffffffff160217905550600a5f3373ffffffffffffffffffffffffffffffffffffffff1673ffffffffffffffffffffffffffffffffffffffff1681526020019081526020015f2081908060018154018082558091505060019003905f5260205f20015f9091909190915055807fcd3b1fcca80f9caae633c3e13546995d3810e561957af92839f070c46571942c3360405161284891906144a6565b60405180910390a250565b60606001805461286290614cc5565b80601f016020809104026020016040519081016040528092919081815260200182805461288e90614cc5565b80156128d95780601f106128b0576101008083540402835291602001916128d9565b820191905f5260205f20905b8154815290600101906020018083116128bc57829003601f168201915b5050505050905090565b6128f56128ee61339d565b838361396c565b5050565b612904848484610c73565b61291084848484613ad5565b50505050565b5f6001151560085f8481526020019081526020015f2060050160159054906101000a900460ff1615150361294d57600190506129b4565b60085f8381526020019081526020015f206007015460085f8481526020019081526020015f206002015460085f8581526020019081526020015f2060010154612996919061579e565b6129a0919061579e565b4211156129b057600190506129b4565b5f90505b919050565b3073ffffffffffffffffffffffffffffffffffffffff16636352211e826040518263ffffffff1660e01b81526004016129f291906148e8565b602060405180830381865afa925050508015612a2c57506040513d601f19601f82011682018060405250810190612a299190614dcc565b60015b612a6b576040517f08c379a0000000000000000000000000000000000000000000000000000000008152600401612a6290614e41565b60405180910390fd5b5060085f8281526020019081526020015f206005015f9054906101000a900460ff16612acc576040517f08c379a0000000000000000000000000000000000000000000000000000000008152600401612ac39061502d565b60405180910390fd5b5f1515612ad882612916565b151514612b1a576040517f08c379a0000000000000000000000000000000000000000000000000000000008152600401612b11906150fd565b60405180910390fd5b60085f8281526020019081526020015f2060050160179054906101000a900460ff1615612b7c576040517f08c379a0000000000000000000000000000000000000000000000000000000008152600401612b739061581b565b60405180910390fd5b600160085f8381526020019081526020015f2060050160176101000a81548160ff0219169083151502179055504260085f8381526020019081526020015f206006018190555050565b6060612bd0826132de565b505f612bda613c87565b90505f815111612bf85760405180602001604052805f815250612c23565b80612c0284613c9d565b604051602001612c13929190615873565b6040516020818303038152906040525b915050919050565b6060600a5f8373ffffffffffffffffffffffffffffffffffffffff1673ffffffffffffffffffffffffffffffffffffffff1681526020019081526020015f20805480602002602001604051908101604052809291908181526020018280548015612cb257602002820191905f5260205f20905b815481526020019060010190808311612c9e575b50505050509050919050565b3073ffffffffffffffffffffffffffffffffffffffff16636352211e826040518263ffffffff1660e01b8152600401612cf791906148e8565b602060405180830381865afa925050508015612d3157506040513d601f19601f82011682018060405250810190612d2e9190614dcc565b60015b612d70576040517f08c379a0000000000000000000000000000000000000000000000000000000008152600401612d6790614e41565b60405180910390fd5b5060085f8281526020019081526020015f206005015f9054906101000a900460ff16612dd1576040517f08c379a0000000000000000000000000000000000000000000000000000000008152600401612dc89061502d565b60405180910390fd5b5f151560085f8381526020019081526020015f2060050160169054906101000a900460ff16151514612e38576040517f08c379a0000000000000000000000000000000000000000000000000000000008152600401612e2f906158e0565b60405180910390fd5b6001151560075f8381526020019081526020015f205f3373ffffffffffffffffffffffffffffffffffffffff1673ffffffffffffffffffffffffffffffffffffffff1681526020019081526020015f205f9054906101000a900460ff16151514612ed7576040517f08c379a0000000000000000000000000000000000000000000000000000000008152600401612ece9061596e565b60405180910390fd5b60011515612ee482612916565b151514612f26576040517f08c379a0000000000000000000000000000000000000000000000000000000008152600401612f1d906159d6565b60405180910390fd5b5f151560085f8381526020019081526020015f2060050160179054906101000a900460ff16151514612f8d576040517f08c379a0000000000000000000000000000000000000000000000000000000008152600401612f8490615a3e565b60405180910390fd5b5f60085f8381526020019081526020015f2060050160019054906101000a900473ffffffffffffffffffffffffffffffffffffffff1690505f60085f8481526020019081526020015f205f015490508173ffffffffffffffffffffffffffffffffffffffff166108fc8290811502906040515f60405180830381858888f1935050505015801561301f573d5f803e3d5ffd5b50600160085f8581526020019081526020015f2060050160166101000a81548160ff021916908315150217905550827f2b52860c5e15aa76ac91d132433549dfe5214c66e36bdb998622ab221c7477c08260405161307d91906148e8565b60405180910390a2505050565b5f60055f8473ffffffffffffffffffffffffffffffffffffffff1673ffffffffffffffffffffffffffffffffffffffff1681526020019081526020015f205f8373ffffffffffffffffffffffffffffffffffffffff1673ffffffffffffffffffffffffffffffffffffffff1681526020019081526020015f205f9054906101000a900460ff16905092915050565b600b602052805f5260405f205f91509050805f01805461313790614cc5565b80601f016020809104026020016040519081016040528092919081815260200182805461316390614cc5565b80156131ae5780601f10613185576101008083540402835291602001916131ae565b820191905f5260205f20905b81548152906001019060200180831161319157829003601f168201915b5050505050908060010154908060020154908060030180546131cf90614cc5565b80601f01602080910402602001604051908101604052809291908181526020018280546131fb90614cc5565b80156132465780601f1061321d57610100808354040283529160200191613246565b820191905f5260205f20905b81548152906001019060200180831161322957829003601f168201915b505050505090806004015f9054906101000a900460ff16908060040160019054906101000a900460ff16905086565b5f7f01ffc9a7000000000000000000000000000000000000000000000000000000007bffffffffffffffffffffffffffffffffffffffffffffffffffffffff1916827bffffffffffffffffffffffffffffffffffffffffffffffffffffffff1916149050919050565b5f806132e983613d67565b90505f73ffffffffffffffffffffffffffffffffffffffff168173ffffffffffffffffffffffffffffffffffffffff160361335b57826040517f7e27328900000000000000000000000000000000000000000000000000000000815260040161335291906148e8565b60405180910390fd5b80915050919050565b5f60045f8381526020019081526020015f205f9054906101000a900473ffffffffffffffffffffffffffffffffffffffff169050919050565b5f33905090565b6133b18383836001613da0565b505050565b5f806133c184613d67565b90505f73ffffffffffffffffffffffffffffffffffffffff168373ffffffffffffffffffffffffffffffffffffffff161461340257613401818486613f5f565b5b5f73ffffffffffffffffffffffffffffffffffffffff168173ffffffffffffffffffffffffffffffffffffffff161461348d576134415f855f80613da0565b600160035f8373ffffffffffffffffffffffffffffffffffffffff1673ffffffffffffffffffffffffffffffffffffffff1681526020019081526020015f205f82825403925050819055505b5f73ffffffffffffffffffffffffffffffffffffffff168573ffffffffffffffffffffffffffffffffffffffff161461350c57600160035f8773ffffffffffffffffffffffffffffffffffffffff1673ffffffffffffffffffffffffffffffffffffffff1681526020019081526020015f205f82825401925050819055505b8460025f8681526020019081526020015f205f6101000a81548173ffffffffffffffffffffffffffffffffffffffff021916908373ffffffffffffffffffffffffffffffffffffffff160217905550838573ffffffffffffffffffffffffffffffffffffffff168273ffffffffffffffffffffffffffffffffffffffff167fddf252ad1be2c89b69c2b068fc378daa952ba7f163c4a11628f55a4df523b3ef60405160405180910390a4809150509392505050565b5f6135cd5f835f6133b6565b90505f73ffffffffffffffffffffffffffffffffffffffff168173ffffffffffffffffffffffffffffffffffffffff160361363f57816040517f7e27328900000000000000000000000000000000000000000000000000000000815260040161363691906148e8565b60405180910390fd5b5050565b5f80600160095f8573ffffffffffffffffffffffffffffffffffffffff1673ffffffffffffffffffffffffffffffffffffffff1681526020019081526020015f208054905061369291906151b0565b90505f5b60095f8573ffffffffffffffffffffffffffffffffffffffff1673ffffffffffffffffffffffffffffffffffffffff1681526020019081526020015f2080549050811015613757578460095f8673ffffffffffffffffffffffffffffffffffffffff1673ffffffffffffffffffffffffffffffffffffffff1681526020019081526020015f20828154811061372e5761372d615a5c565b5b905f5260205f2001540361374457809250613757565b808061374f9061556b565b915050613696565b508082146138135760095f8473ffffffffffffffffffffffffffffffffffffffff1673ffffffffffffffffffffffffffffffffffffffff1681526020019081526020015f2081815481106137ae576137ad615a5c565b5b905f5260205f20015460095f8573ffffffffffffffffffffffffffffffffffffffff1673ffffffffffffffffffffffffffffffffffffffff1681526020019081526020015f20838154811061380657613805615a5c565b5b905f5260205f2001819055505b60095f8473ffffffffffffffffffffffffffffffffffffffff1673ffffffffffffffffffffffffffffffffffffffff1681526020019081526020015f208054806138605761385f615a89565b5b600190038181905f5260205f20015f9055905550505050565b5f73ffffffffffffffffffffffffffffffffffffffff168273ffffffffffffffffffffffffffffffffffffffff16036138e9575f6040517f64a0ae920000000000000000000000000000000000000000000000000000000081526004016138e091906144a6565b60405180910390fd5b5f6138f583835f6133b6565b90505f73ffffffffffffffffffffffffffffffffffffffff168173ffffffffffffffffffffffffffffffffffffffff1614613967575f6040517f73c6ac6e00000000000000000000000000000000000000000000000000000000815260040161395e91906144a6565b60405180910390fd5b505050565b5f73ffffffffffffffffffffffffffffffffffffffff168273ffffffffffffffffffffffffffffffffffffffff16036139dc57816040517f5b08ba180000000000000000000000000000000000000000000000000000000081526004016139d391906144a6565b60405180910390fd5b8060055f8573ffffffffffffffffffffffffffffffffffffffff1673ffffffffffffffffffffffffffffffffffffffff1681526020019081526020015f205f8473ffffffffffffffffffffffffffffffffffffffff1673ffffffffffffffffffffffffffffffffffffffff1681526020019081526020015f205f6101000a81548160ff0219169083151502179055508173ffffffffffffffffffffffffffffffffffffffff168373ffffffffffffffffffffffffffffffffffffffff167f17307eab39ab6107e8899845ad3d59bd9653f200f220920489ca2b5937696c3183604051613ac891906142de565b60405180910390a3505050565b5f8373ffffffffffffffffffffffffffffffffffffffff163b1115613c81578273ffffffffffffffffffffffffffffffffffffffff1663150b7a02613b1861339d565b8685856040518563ffffffff1660e01b8152600401613b3a9493929190615b08565b6020604051808303815f875af1925050508015613b7557506040513d601f19601f82011682018060405250810190613b729190615b66565b60015b613bf6573d805f8114613ba3576040519150601f19603f3d011682016040523d82523d5f602084013e613ba8565b606091505b505f815103613bee57836040517f64a0ae92000000000000000000000000000000000000000000000000000000008152600401613be591906144a6565b60405180910390fd5b805181602001fd5b63150b7a0260e01b7bffffffffffffffffffffffffffffffffffffffffffffffffffffffff1916817bffffffffffffffffffffffffffffffffffffffffffffffffffffffff191614613c7f57836040517f64a0ae92000000000000000000000000000000000000000000000000000000008152600401613c7691906144a6565b60405180910390fd5b505b50505050565b606060405180602001604052805f815250905090565b60605f6001613cab84614022565b0190505f8167ffffffffffffffff811115613cc957613cc861462a565b5b6040519080825280601f01601f191660200182016040528015613cfb5781602001600182028036833780820191505090505b5090505f82602001820190505b600115613d5c578080600190039150507f3031323334353637383961626364656600000000000000000000000000000000600a86061a8153600a8581613d5157613d50615b91565b5b0494505f8503613d08575b819350505050919050565b5f60025f8381526020019081526020015f205f9054906101000a900473ffffffffffffffffffffffffffffffffffffffff169050919050565b8080613dd857505f73ffffffffffffffffffffffffffffffffffffffff168273ffffffffffffffffffffffffffffffffffffffff1614155b15613f0a575f613de7846132de565b90505f73ffffffffffffffffffffffffffffffffffffffff168373ffffffffffffffffffffffffffffffffffffffff1614158015613e5157508273ffffffffffffffffffffffffffffffffffffffff168173ffffffffffffffffffffffffffffffffffffffff1614155b8015613e645750613e62818461308a565b155b15613ea657826040517fa9fbf51f000000000000000000000000000000000000000000000000000000008152600401613e9d91906144a6565b60405180910390fd5b8115613f0857838573ffffffffffffffffffffffffffffffffffffffff168273ffffffffffffffffffffffffffffffffffffffff167f8c5be1e5ebec7d5bd14f71427d1e84f3dd0314c0f7b2291e5b200ac8c7c3b92560405160405180910390a45b505b8360045f8581526020019081526020015f205f6101000a81548173ffffffffffffffffffffffffffffffffffffffff021916908373ffffffffffffffffffffffffffffffffffffffff16021790555050505050565b613f6a838383614173565b61401d575f73ffffffffffffffffffffffffffffffffffffffff168373ffffffffffffffffffffffffffffffffffffffff1603613fde57806040517f7e273289000000000000000000000000000000000000000000000000000000008152600401613fd591906148e8565b60405180910390fd5b81816040517f177e802f000000000000000000000000000000000000000000000000000000008152600401614014929190615bbe565b60405180910390fd5b505050565b5f805f90507a184f03e93ff9f4daa797ed6e38ed64bf6a1f010000000000000000831061407e577a184f03e93ff9f4daa797ed6e38ed64bf6a1f010000000000000000838161407457614073615b91565b5b0492506040810190505b6d04ee2d6d415b85acef810000000083106140bb576d04ee2d6d415b85acef810000000083816140b1576140b0615b91565b5b0492506020810190505b662386f26fc1000083106140ea57662386f26fc1000083816140e0576140df615b91565b5b0492506010810190505b6305f5e1008310614113576305f5e100838161410957614108615b91565b5b0492506008810190505b612710831061413857612710838161412e5761412d615b91565b5b0492506004810190505b6064831061415b576064838161415157614150615b91565b5b0492506002810190505b600a831061416a576001810190505b80915050919050565b5f8073ffffffffffffffffffffffffffffffffffffffff168373ffffffffffffffffffffffffffffffffffffffff161415801561422a57508273ffffffffffffffffffffffffffffffffffffffff168473ffffffffffffffffffffffffffffffffffffffff1614806141eb57506141ea848461308a565b5b8061422957508273ffffffffffffffffffffffffffffffffffffffff1661421183613364565b73ffffffffffffffffffffffffffffffffffffffff16145b5b90509392505050565b5f604051905090565b5f80fd5b5f80fd5b5f7fffffffff0000000000000000000000000000000000000000000000000000000082169050919050565b61427881614244565b8114614282575f80fd5b50565b5f813590506142938161426f565b92915050565b5f602082840312156142ae576142ad61423c565b5b5f6142bb84828501614285565b91505092915050565b5f8115159050919050565b6142d8816142c4565b82525050565b5f6020820190506142f15f8301846142cf565b92915050565b5f819050919050565b614309816142f7565b8114614313575f80fd5b50565b5f8135905061432481614300565b92915050565b5f73ffffffffffffffffffffffffffffffffffffffff82169050919050565b5f6143538261432a565b9050919050565b61436381614349565b811461436d575f80fd5b50565b5f8135905061437e8161435a565b92915050565b5f806040838503121561439a5761439961423c565b5b5f6143a785828601614316565b92505060206143b885828601614370565b9150509250929050565b5f81519050919050565b5f82825260208201905092915050565b5f5b838110156143f95780820151818401526020810190506143de565b5f8484015250505050565b5f601f19601f8301169050919050565b5f61441e826143c2565b61442881856143cc565b93506144388185602086016143dc565b61444181614404565b840191505092915050565b5f6020820190508181035f8301526144648184614414565b905092915050565b5f602082840312156144815761448061423c565b5b5f61448e84828501614316565b91505092915050565b6144a081614349565b82525050565b5f6020820190506144b95f830184614497565b92915050565b5f80604083850312156144d5576144d461423c565b5b5f6144e285828601614370565b92505060206144f385828601614316565b9150509250929050565b5f805f606084860312156145145761451361423c565b5b5f61452186828701614370565b935050602061453286828701614370565b925050604061454386828701614316565b9150509250925092565b614556816142f7565b82525050565b5f610180820190506145705f83018f61454d565b61457d602083018e61454d565b61458a604083018d61454d565b818103606083015261459c818c614414565b905081810360808301526145b0818b614414565b90506145bf60a083018a6142cf565b6145cc60c0830189614497565b6145d960e08301886142cf565b6145e76101008301876142cf565b6145f56101208301866142cf565b61460361014083018561454d565b61461161016083018461454d565b9d9c50505050505050505050505050565b5f80fd5b5f80fd5b7f4e487b71000000000000000000000000000000000000000000000000000000005f52604160045260245ffd5b61466082614404565b810181811067ffffffffffffffff8211171561467f5761467e61462a565b5b80604052505050565b5f614691614233565b905061469d8282614657565b919050565b5f67ffffffffffffffff8211156146bc576146bb61462a565b5b6146c582614404565b9050602081019050919050565b828183375f83830152505050565b5f6146f26146ed846146a2565b614688565b90508281526020810184848401111561470e5761470d614626565b5b6147198482856146d2565b509392505050565b5f82601f83011261473557614734614622565b5b81356147458482602086016146e0565b91505092915050565b614757816142c4565b8114614761575f80fd5b50565b5f813590506147728161474e565b92915050565b5f805f805f8060c087890312156147925761479161423c565b5b5f61479f89828a01614316565b965050602087013567ffffffffffffffff8111156147c0576147bf614240565b5b6147cc89828a01614721565b95505060406147dd89828a01614316565b94505060606147ee89828a01614316565b935050608087013567ffffffffffffffff81111561480f5761480e614240565b5b61481b89828a01614721565b92505060a061482c89828a01614764565b9150509295509295509295565b5f805f805f60a086880312156148525761485161423c565b5b5f61485f88828901614370565b955050602061487088828901614316565b945050604061488188828901614316565b935050606086013567ffffffffffffffff8111156148a2576148a1614240565b5b6148ae88828901614721565b925050608086013567ffffffffffffffff8111156148cf576148ce614240565b5b6148db88828901614721565b9150509295509295909350565b5f6020820190506148fb5f83018461454d565b92915050565b5f602082840312156149165761491561423c565b5b5f61492384828501614370565b91505092915050565b5f81519050919050565b5f82825260208201905092915050565b5f819050602082019050919050565b61495e816142f7565b82525050565b5f61496f8383614955565b60208301905092915050565b5f602082019050919050565b5f6149918261492c565b61499b8185614936565b93506149a683614946565b805f5b838110156149d65781516149bd8882614964565b97506149c88361497b565b9250506001810190506149a9565b5085935050505092915050565b5f6020820190508181035f8301526149fb8184614987565b905092915050565b5f8060408385031215614a1957614a1861423c565b5b5f614a2685828601614370565b9250506020614a3785828601614764565b9150509250929050565b5f67ffffffffffffffff821115614a5b57614a5a61462a565b5b614a6482614404565b9050602081019050919050565b5f614a83614a7e84614a41565b614688565b905082815260208101848484011115614a9f57614a9e614626565b5b614aaa8482856146d2565b509392505050565b5f82601f830112614ac657614ac5614622565b5b8135614ad6848260208601614a71565b91505092915050565b5f805f8060808587031215614af757614af661423c565b5b5f614b0487828801614370565b9450506020614b1587828801614370565b9350506040614b2687828801614316565b925050606085013567ffffffffffffffff811115614b4757614b46614240565b5b614b5387828801614ab2565b91505092959194509250565b5f8060408385031215614b7557614b7461423c565b5b5f614b8285828601614370565b9250506020614b9385828601614370565b9150509250929050565b5f60c0820190508181035f830152614bb58189614414565b9050614bc4602083018861454d565b614bd1604083018761454d565b8181036060830152614be38186614414565b9050614bf260808301856142cf565b614bff60a08301846142cf565b979650505050505050565b7f536f6c6f20756e206d616e61676572206465206573746520636f6e747261746f5f8201527f207075656465207265766f636172206f74726f206d616e616765720000000000602082015250565b5f614c64603b836143cc565b9150614c6f82614c0a565b604082019050919050565b5f6020820190508181035f830152614c9181614c58565b9050919050565b7f4e487b71000000000000000000000000000000000000000000000000000000005f52602260045260245ffd5b5f6002820490506001821680614cdc57607f821691505b602082108103614cef57614cee614c98565b5b50919050565b7f536f6c6f20756e206d616e61676572206465206573746520636f6e747261746f5f8201527f20707565646520617369676e6172206f74726f206d616e616765720000000000602082015250565b5f614d4f603b836143cc565b9150614d5a82614cf5565b604082019050919050565b5f6020820190508181035f830152614d7c81614d43565b9050919050565b5f606082019050614d965f830186614497565b614da3602083018561454d565b614db06040830184614497565b949350505050565b5f81519050614dc68161435a565b92915050565b5f60208284031215614de157614de061423c565b5b5f614dee84828501614db8565b91505092915050565b7f456c20746f6b656e206e6f206578697374652e000000000000000000000000005f82015250565b5f614e2b6013836143cc565b9150614e3682614df7565b602082019050919050565b5f6020820190508181035f830152614e5881614e1f565b9050919050565b7f536f6c6f20756e206d616e616765722070756564652063616e63656c617220755f8201527f6e20636f6e747261746f00000000000000000000000000000000000000000000602082015250565b5f614eb9602a836143cc565b9150614ec482614e5f565b604082019050919050565b5f6020820190508181035f830152614ee681614ead565b9050919050565b7f456c20636f6e747261746f207961206861207369646f206669726d61646f00005f82015250565b5f614f21601e836143cc565b9150614f2c82614eed565b602082019050919050565b5f6020820190508181035f830152614f4e81614f15565b9050919050565b7f536f6c6f20756e206d616e616765722070756564652066696e616c697a6172205f8201527f756e20636f6e747261746f000000000000000000000000000000000000000000602082015250565b5f614faf602b836143cc565b9150614fba82614f55565b604082019050919050565b5f6020820190508181035f830152614fdc81614fa3565b9050919050565b7f456c20636f6e747261746f206e6f206861207369646f206669726d61646f00005f82015250565b5f615017601e836143cc565b915061502282614fe3565b602082019050919050565b5f6020820190508181035f8301526150448161500b565b9050919050565b7f456c20636f6e747261746f2079612068612066696e616c697a61646f000000005f82015250565b5f61507f601c836143cc565b915061508a8261504b565b602082019050919050565b5f6020820190508181035f8301526150ac81615073565b9050919050565b7f456c20636f6e747261746f20686120657870697261646f0000000000000000005f82015250565b5f6150e76017836143cc565b91506150f2826150b3565b602082019050919050565b5f6020820190508181035f830152615114816150db565b9050919050565b7f4e6f206861792063616d62696f732070726f70756573746f73000000000000005f82015250565b5f61514f6019836143cc565b915061515a8261511b565b602082019050919050565b5f6020820190508181035f83015261517c81615143565b9050919050565b7f4e487b71000000000000000000000000000000000000000000000000000000005f52601160045260245ffd5b5f6151ba826142f7565b91506151c5836142f7565b92508282039050818111156151dd576151dc615183565b5b92915050565b5f819050815f5260205f209050919050565b5f6020601f8301049050919050565b5f82821b905092915050565b5f6008830261523f7fffffffffffffffffffffffffffffffffffffffffffffffffffffffffffffffff82615204565b6152498683615204565b95508019841693508086168417925050509392505050565b5f819050919050565b5f61528461527f61527a846142f7565b615261565b6142f7565b9050919050565b5f819050919050565b61529d8361526a565b6152b16152a98261528b565b848454615210565b825550505050565b5f90565b6152c56152b9565b6152d0818484615294565b505050565b5b818110156152f3576152e85f826152bd565b6001810190506152d6565b5050565b601f82111561533857615309816151e3565b615312846151f5565b81016020851015615321578190505b61533561532d856151f5565b8301826152d5565b50505b505050565b5f82821c905092915050565b5f6153585f198460080261533d565b1980831691505092915050565b5f6153708383615349565b9150826002028217905092915050565b615389826143c2565b67ffffffffffffffff8111156153a2576153a161462a565b5b6153ac8254614cc5565b6153b78282856152f7565b5f60209050601f8311600181146153e8575f84156153d6578287015190505b6153e08582615365565b865550615447565b601f1984166153f6866151e3565b5f5b8281101561541d578489015182556001820191506020850194506020810190506153f8565b8683101561543a5784890151615436601f891682615349565b8355505b6001600288020188555050505b505050505050565b7f466f6e646f7320696e737566696369656e7465732070617261206375627269725f8201527f20656c20696e6372656d656e746f2064656c2073616c6172696f000000000000602082015250565b5f6154a9603a836143cc565b91506154b48261544f565b604082019050919050565b5f6020820190508181035f8301526154d68161549d565b9050919050565b7f4465646520656e7669617220656c2073616c6172696f20636f6d6f2076616c6f5f8201527f722064656c20636f6e747261746f000000000000000000000000000000000000602082015250565b5f615537602e836143cc565b9150615542826154dd565b604082019050919050565b5f6020820190508181035f8301526155648161552b565b9050919050565b5f615575826142f7565b91507fffffffffffffffffffffffffffffffffffffffffffffffffffffffffffffffff82036155a7576155a6615183565b5b600182019050919050565b7f456c20636f6e747261746f206e6f2065737461207061757361646f00000000005f82015250565b5f6155e6601b836143cc565b91506155f1826155b2565b602082019050919050565b5f6020820190508181035f830152615613816155da565b9050919050565b7f4e6f20707565646573206669726d61722074752070726f70696f20636f6e74725f8201527f61746f0000000000000000000000000000000000000000000000000000000000602082015250565b5f6156746023836143cc565b915061567f8261561a565b604082019050919050565b5f6020820190508181035f8301526156a181615668565b9050919050565b7f536f6c6f20656c2074726162616a61646f72207075656465206669726d6172205f8201527f656c20636f6e747261746f000000000000000000000000000000000000000000602082015250565b5f615702602b836143cc565b915061570d826156a8565b604082019050919050565b5f6020820190508181035f83015261572f816156f6565b9050919050565b7f456c20636f6e747261746f2068612066696e616c697a61646f000000000000005f82015250565b5f61576a6019836143cc565b915061577582615736565b602082019050919050565b5f6020820190508181035f8301526157978161575e565b9050919050565b5f6157a8826142f7565b91506157b3836142f7565b92508282019050808211156157cb576157ca615183565b5b92915050565b7f456c20636f6e747261746f2079612065737461207061757361646f00000000005f82015250565b5f615805601b836143cc565b9150615810826157d1565b602082019050919050565b5f6020820190508181035f830152615832816157f9565b9050919050565b5f81905092915050565b5f61584d826143c2565b6158578185615839565b93506158678185602086016143dc565b80840191505092915050565b5f61587e8285615843565b915061588a8284615843565b91508190509392505050565b7f456c2073616c6172696f207961206861207369646f206c6962657261646f00005f82015250565b5f6158ca601e836143cc565b91506158d582615896565b602082019050919050565b5f6020820190508181035f8301526158f7816158be565b9050919050565b7f536f6c6f20756e206d616e61676572207075656465206c69626572617220656c5f8201527f2073616c6172696f000000000000000000000000000000000000000000000000602082015250565b5f6159586028836143cc565b9150615963826158fe565b604082019050919050565b5f6020820190508181035f8301526159858161594c565b9050919050565b7f456c20636f6e747261746f206e6f20686120657870697261646f0000000000005f82015250565b5f6159c0601a836143cc565b91506159cb8261598c565b602082019050919050565b5f6020820190508181035f8301526159ed816159b4565b9050919050565b7f456c20636f6e747261746f2065737461207061757361646f00000000000000005f82015250565b5f615a286018836143cc565b9150615a33826159f4565b602082019050919050565b5f6020820190508181035f830152615a5581615a1c565b9050919050565b7f4e487b71000000000000000000000000000000000000000000000000000000005f52603260045260245ffd5b7f4e487b71000000000000000000000000000000000000000000000000000000005f52603160045260245ffd5b5f81519050919050565b5f82825260208201905092915050565b5f615ada82615ab6565b615ae48185615ac0565b9350615af48185602086016143dc565b615afd81614404565b840191505092915050565b5f608082019050615b1b5f830187614497565b615b286020830186614497565b615b35604083018561454d565b8181036060830152615b478184615ad0565b905095945050505050565b5f81519050615b608161426f565b92915050565b5f60208284031215615b7b57615b7a61423c565b5b5f615b8884828501615b52565b91505092915050565b7f4e487b71000000000000000000000000000000000000000000000000000000005f52601260045260245ffd5b5f604082019050615bd15f830185614497565b615bde602083018461454d565b939250505056fea264697066735822122069d400d3bfd3e30adffa0f5a9d5c513c20e5c861a01d998dc4145c6a8c55068e64736f6c63430008140033",
  "immutableReferences": {},
  "source": "// SPDX-License-Identifier: MIT\r\npragma solidity ^0.8.20;\r\n\r\nimport \"@openzeppelin/contracts/token/ERC721/ERC721.sol\";\r\n\r\ncontract MyContract is ERC721 {\r\n    uint256 tokenID;\r\n    mapping(uint256 => mapping(address => bool)) public tokenManagers;\r\n    mapping(uint256 => ContractDetails) public contractDetails;\r\n    mapping(address => uint256[]) private contractsOwner;\r\n    mapping(address => uint256[]) private activeContractsOfWorker;\r\n    mapping(uint256 => ChangeProposal) public changeProposals;\r\n\r\n    struct ContractDetails {\r\n        uint256 salary;\r\n        uint256 startDate;\r\n        uint256 duration;\r\n        string title;\r\n        string description;\r\n        bool isSigned;\r\n        address worker;\r\n        bool isFinished;\r\n        bool isReleased;\r\n        bool isPaused;\r\n        uint256 pauseTime;\r\n        uint256 pauseDuration;\r\n    }\r\n\r\n    struct ChangeProposal {\r\n        string newTitle;\r\n        uint256 newSalary;\r\n        uint256 newDuration;\r\n        string newDescription;\r\n        bool isPaused;\r\n        bool isPending;\r\n    }\r\n\r\n    event ContractSigned(uint256 indexed tokenId, address worker);\r\n    event SalaryReleased(uint256 indexed tokenId, uint256 salary);\r\n    event TokenMinted(uint256 tokenId);\r\n    event ContractCancelled(uint256 indexed tokenId);\r\n    event ContractFinalized(uint256 indexed tokenId);\r\n    event Debug(\r\n        uint256 currentSalary,\r\n        uint256 newSalary,\r\n        uint256 salaryDifference,\r\n        uint256 msgValue\r\n    );\r\n\r\n    constructor() ERC721(\"MyToken\", \"MTK\") {}\r\n\r\n    function mint(\r\n        address _to,\r\n        uint256 _salary,\r\n        uint256 _duration,\r\n        string memory _description,\r\n        string memory _title\r\n    ) public payable returns (uint256) {\r\n        require(\r\n            msg.value >= _salary,\r\n            \"Dede enviar el salario como valor del contrato\"\r\n        );\r\n        tokenID++;\r\n        _mint(msg.sender, tokenID);\r\n        uint256 remainder = msg.value - _salary;\r\n        if (remainder > 0) {\r\n            payable(msg.sender).transfer(remainder);\r\n        }\r\n\r\n        ContractDetails memory newContract = ContractDetails({\r\n            salary: _salary,\r\n            startDate: block.timestamp,\r\n            duration: _duration,\r\n            title: _title,\r\n            description: _description,\r\n            isSigned: false,\r\n            worker: _to,\r\n            isFinished: false,\r\n            isReleased: false,\r\n            isPaused: false,\r\n            pauseTime: 0,\r\n            pauseDuration: 0\r\n        });\r\n\r\n        contractDetails[tokenID] = newContract;\r\n        tokenManagers[tokenID][msg.sender] = true;\r\n        contractsOwner[msg.sender].push(tokenID);\r\n        emit TokenMinted(tokenID);\r\n\r\n        return tokenID;\r\n    }\r\n\r\n    function signContract(uint256 _tokenID) public {\r\n        try this.ownerOf(_tokenID) {} catch {\r\n            revert(\"El token no existe.\"); // he intentado hacerlo con _exists pero no me ha funcionado\r\n        }\r\n        require(\r\n            tokenManagers[_tokenID][msg.sender] == false,\r\n            \"No puedes firmar tu propio contrato\"\r\n        );\r\n        require(\r\n            msg.sender == contractDetails[_tokenID].worker,\r\n            \"Solo el trabajador puede firmar el contrato\"\r\n        );\r\n        require(\r\n            !contractDetails[_tokenID].isSigned,\r\n            \"El contrato ya ha sido firmado\"\r\n        );\r\n        require(\r\n            contractDetails[_tokenID].isFinished == false,\r\n            \"El contrato ha finalizado\"\r\n        );\r\n        require(\r\n            isContractFinished(_tokenID) == false,\r\n            \"El contrato ha expirado\"\r\n        );\r\n\r\n        contractDetails[_tokenID].isSigned = true;\r\n        contractDetails[_tokenID].worker = msg.sender;\r\n        activeContractsOfWorker[msg.sender].push(_tokenID);\r\n        emit ContractSigned(_tokenID, msg.sender);\r\n    }\r\n\r\n    function releaseSalary(uint256 _tokenID) public payable {\r\n        try this.ownerOf(_tokenID) {} catch {\r\n            revert(\"El token no existe.\"); // he intentado hacerlo con _exists pero no me ha funcionado\r\n        }\r\n        require(\r\n            contractDetails[_tokenID].isSigned,\r\n            \"El contrato no ha sido firmado\"\r\n        );\r\n        require(\r\n            contractDetails[_tokenID].isReleased == false,\r\n            \"El salario ya ha sido liberado\"\r\n        );\r\n        require(\r\n            tokenManagers[_tokenID][msg.sender] == true,\r\n            \"Solo un manager puede liberar el salario\"\r\n        );\r\n        require(\r\n            isContractFinished(_tokenID) == true,\r\n            \"El contrato no ha expirado\"\r\n        );\r\n        require(\r\n            contractDetails[_tokenID].isPaused == false,\r\n            \"El contrato esta pausado\"\r\n        );\r\n\r\n        address payable worker = payable(contractDetails[_tokenID].worker);\r\n        uint256 salary = contractDetails[_tokenID].salary;\r\n        worker.transfer(salary);\r\n        contractDetails[_tokenID].isReleased = true;\r\n        emit SalaryReleased(_tokenID, salary);\r\n    }\r\n\r\n    function finalizeContract(uint256 _tokenID) public {\r\n        try this.ownerOf(_tokenID) {} catch {\r\n            revert(\"El token no existe.\"); // he intentado hacerlo con _exists pero no me ha funcionado\r\n        }\r\n        require(\r\n            tokenManagers[_tokenID][msg.sender] == true,\r\n            \"Solo un manager puede finalizar un contrato\"\r\n        );\r\n        require(\r\n            contractDetails[_tokenID].isSigned,\r\n            \"El contrato no ha sido firmado\"\r\n        );\r\n        require(\r\n            contractDetails[_tokenID].isFinished == false,\r\n            \"El contrato ya ha finalizado\"\r\n        );\r\n        require(\r\n            isContractFinished(_tokenID) == false,\r\n            \"El contrato ha expirado\"\r\n        );\r\n\r\n        contractDetails[_tokenID].isFinished = true;\r\n        emit ContractFinalized(_tokenID);\r\n    }\r\n\r\n    function pauseContract(uint256 _tokenID) public {\r\n        try this.ownerOf(_tokenID) {} catch {\r\n            revert(\"El token no existe.\"); // he intentado hacerlo con _exists pero no me ha funcionado\r\n        }\r\n        require(\r\n            contractDetails[_tokenID].isSigned,\r\n            \"El contrato no ha sido firmado\"\r\n        );\r\n        require(\r\n            isContractFinished(_tokenID) == false,\r\n            \"El contrato ha expirado\"\r\n        );\r\n        require(\r\n            !contractDetails[_tokenID].isPaused,\r\n            \"El contrato ya esta pausado\"\r\n        );\r\n\r\n        contractDetails[_tokenID].isPaused = true;\r\n        contractDetails[_tokenID].pauseTime = block.timestamp;\r\n    }\r\n\r\n    function unPauseContract(uint256 _tokenID) public {\r\n        try this.ownerOf(_tokenID) {} catch {\r\n            revert(\"El token no existe.\"); // he intentado hacerlo con _exists pero no me ha funcionado\r\n        }\r\n        require(\r\n            contractDetails[_tokenID].isSigned,\r\n            \"El contrato no ha sido firmado\"\r\n        );\r\n        require(\r\n            contractDetails[_tokenID].isPaused,\r\n            \"El contrato no esta pausado\"\r\n        );\r\n        require(\r\n            isContractFinished(_tokenID) == false,\r\n            \"El contrato ha expirado\"\r\n        );\r\n\r\n        contractDetails[_tokenID].pauseDuration =\r\n            block.timestamp -\r\n            contractDetails[_tokenID].pauseTime;\r\n\r\n        contractDetails[_tokenID].pauseTime = 0;\r\n        contractDetails[_tokenID].isPaused = false;\r\n    }\r\n\r\n    function cancelContract(uint256 _tokenID) public {\r\n        try this.ownerOf(_tokenID) {} catch {\r\n            revert(\"El token no existe.\"); // he intentado hacerlo con _exists pero no me ha funcionado\r\n        }\r\n        require(\r\n            tokenManagers[_tokenID][msg.sender] == true,\r\n            \"Solo un manager puede cancelar un contrato\"\r\n        );\r\n        require(\r\n            !contractDetails[_tokenID].isSigned,\r\n            \"El contrato ya ha sido firmado\"\r\n        );\r\n\r\n        address payable owner = payable(msg.sender);\r\n        uint256 salary = contractDetails[_tokenID].salary;\r\n        owner.transfer(salary);\r\n        _burn(_tokenID);\r\n        removeContractFromOwner(_tokenID, msg.sender);\r\n        emit ContractCancelled(_tokenID);\r\n    }\r\n\r\n    function removeContractFromOwner(\r\n        uint256 _tokenId,\r\n        address _owner\r\n    ) internal {\r\n        uint256 contractIndex;\r\n        uint256 lastContractIndex = contractsOwner[_owner].length - 1;\r\n        for (uint i = 0; i < contractsOwner[_owner].length; i++) {\r\n            if (contractsOwner[_owner][i] == _tokenId) {\r\n                contractIndex = i;\r\n                break;\r\n            }\r\n        }\r\n\r\n        if (contractIndex != lastContractIndex) {\r\n            contractsOwner[_owner][contractIndex] = contractsOwner[_owner][\r\n                lastContractIndex\r\n            ];\r\n        }\r\n        contractsOwner[_owner].pop();\r\n    }\r\n\r\n    function assignManagerToToken(\r\n        uint256 _tokenId,\r\n        address _newManager\r\n    ) public {\r\n        require(\r\n            tokenManagers[_tokenId][msg.sender],\r\n            \"Solo un manager de este contrato puede asignar otro manager\"\r\n        );\r\n        tokenManagers[_tokenId][_newManager] = true;\r\n        contractsOwner[_newManager].push(tokenID);\r\n    }\r\n\r\n    function revokeManagerFromToken(uint256 _tokenId, address _manager) public {\r\n        require(\r\n            tokenManagers[_tokenId][msg.sender],\r\n            \"Solo un manager de este contrato puede revocar otro manager\"\r\n        );\r\n        tokenManagers[_tokenId][_manager] = false;\r\n    }\r\n\r\n    function isManagerOfToken(\r\n        uint256 _tokenId,\r\n        address _manager\r\n    ) public view returns (bool) {\r\n        return tokenManagers[_tokenId][_manager];\r\n    }\r\n\r\n    //funcion para proponer un cambio en un contrato\r\n    function proposeChange(\r\n        uint256 _tokenID,\r\n        string memory _newTitle,\r\n        uint256 _newSalary,\r\n        uint256 _newDuration,\r\n        string memory _newDescription,\r\n        bool _isPaused\r\n    ) public payable {\r\n        uint256 currentSalary = contractDetails[_tokenID].salary;\r\n        if (_newSalary > currentSalary) {\r\n            uint256 salaryDifference = _newSalary - currentSalary;\r\n            require(\r\n                msg.value >= salaryDifference,\r\n                \"Fondos insuficientes para cubrir el incremento del salario\"\r\n            );\r\n\r\n            uint256 excessAmount = msg.value - salaryDifference;\r\n            if (excessAmount > 0) {\r\n                payable(msg.sender).transfer(excessAmount);\r\n            }\r\n        }\r\n\r\n        changeProposals[_tokenID] = ChangeProposal({\r\n            newTitle: _newTitle,\r\n            newSalary: _newSalary,\r\n            newDuration: _newDuration,\r\n            newDescription: _newDescription,\r\n            isPaused: _isPaused,\r\n            isPending: true\r\n        });\r\n    }\r\n\r\n    //funcion para rechazar un cambio propuesto\r\n    function rejectChange(uint256 _tokenID) public {\r\n        require(\r\n            changeProposals[_tokenID].isPending == true,\r\n            \"No hay cambios propuestos\"\r\n        );\r\n        ChangeProposal memory proposedChange = changeProposals[_tokenID];\r\n\r\n        if (proposedChange.newSalary > contractDetails[_tokenID].salary) {\r\n            uint256 salaryDifference = proposedChange.newSalary -\r\n                contractDetails[_tokenID].salary;\r\n            address owner = ownerOf(_tokenID);\r\n            payable(owner).transfer(salaryDifference);\r\n        }\r\n\r\n        changeProposals[_tokenID].isPending = false;\r\n    }\r\n\r\n    //Funcion para modificar un contrato que no haya sido firmado\r\n    function applyChange(uint256 _tokenID) public payable {\r\n        require(\r\n            changeProposals[_tokenID].isPending == true,\r\n            \"No hay cambios propuestos\"\r\n        );\r\n        ChangeProposal memory proposedChange = changeProposals[_tokenID];\r\n\r\n        if (proposedChange.newSalary < contractDetails[_tokenID].salary) {\r\n            uint256 refundAmount = contractDetails[_tokenID].salary -\r\n                proposedChange.newSalary;\r\n            address owner = ownerOf(_tokenID);\r\n            payable(owner).transfer(refundAmount);\r\n        }\r\n\r\n        contractDetails[_tokenID].title = proposedChange.newTitle;\r\n        contractDetails[_tokenID].salary = proposedChange.newSalary;\r\n        contractDetails[_tokenID].duration = proposedChange.newDuration;\r\n        contractDetails[_tokenID].description = proposedChange.newDescription;\r\n\r\n        if (proposedChange.isPaused != contractDetails[_tokenID].isPaused) {\r\n            if (proposedChange.isPaused) {\r\n                pauseContract(_tokenID);\r\n            } else {\r\n                unPauseContract(_tokenID);\r\n            }\r\n        }\r\n\r\n        changeProposals[_tokenID].isPending = false;\r\n    }\r\n\r\n    function getContractsFromOwner(\r\n        address _address\r\n    ) public view returns (uint256[] memory) {\r\n        return contractsOwner[_address];\r\n    }\r\n\r\n    function getContractsOfWorker(\r\n        address _address\r\n    ) public view returns (uint256[] memory) {\r\n        return activeContractsOfWorker[_address];\r\n    }\r\n\r\n    function isContractFinished(uint256 _tokenID) public view returns (bool) {\r\n        if (contractDetails[_tokenID].isFinished == true) {\r\n            return true;\r\n        }\r\n\r\n        if (\r\n            block.timestamp >\r\n            contractDetails[_tokenID].startDate +\r\n                contractDetails[_tokenID].duration +\r\n                contractDetails[_tokenID].pauseDuration\r\n        ) {\r\n            return true;\r\n        }\r\n\r\n        return false;\r\n    }\r\n\r\n    function isContractSigned(uint256 _tokenID) public view returns (bool) {\r\n        return contractDetails[_tokenID].isSigned;\r\n    }\r\n\r\n    function getOwnerOfContract(\r\n        uint256 _tokenID\r\n    ) public view returns (address) {\r\n        return ownerOf(_tokenID);\r\n    }\r\n}\r\n",
  "sourcePath": "E:\\AppContract\\ubu-contractme\\Code\\SmartContract\\contracts\\MyContract.sol",
  "compiler": {
    "name": "solc",
    "version": "0.8.20+commit.a1b79de6.Emscripten.clang"
  },
  "schemaVersion": "3.4.16",
  "updatedAt": "2024-01-28T17:34:06.469Z",
  "networkType": "ethereum",
  "devdoc": {
    "errors": {
      "ERC721IncorrectOwner(address,uint256,address)": [
        {
          "details": "Indicates an error related to the ownership over a particular token. Used in transfers.",
          "params": {
            "owner": "Address of the current owner of a token.",
            "sender": "Address whose tokens are being transferred.",
            "tokenId": "Identifier number of a token."
          }
        }
      ],
      "ERC721InsufficientApproval(address,uint256)": [
        {
          "details": "Indicates a failure with the `operator`s approval. Used in transfers.",
          "params": {
            "operator": "Address that may be allowed to operate on tokens without being their owner.",
            "tokenId": "Identifier number of a token."
          }
        }
      ],
      "ERC721InvalidApprover(address)": [
        {
          "details": "Indicates a failure with the `approver` of a token to be approved. Used in approvals.",
          "params": {
            "approver": "Address initiating an approval operation."
          }
        }
      ],
      "ERC721InvalidOperator(address)": [
        {
          "details": "Indicates a failure with the `operator` to be approved. Used in approvals.",
          "params": {
            "operator": "Address that may be allowed to operate on tokens without being their owner."
          }
        }
      ],
      "ERC721InvalidOwner(address)": [
        {
          "details": "Indicates that an address can't be an owner. For example, `address(0)` is a forbidden owner in EIP-20. Used in balance queries.",
          "params": {
            "owner": "Address of the current owner of a token."
          }
        }
      ],
      "ERC721InvalidReceiver(address)": [
        {
          "details": "Indicates a failure with the token `receiver`. Used in transfers.",
          "params": {
            "receiver": "Address to which tokens are being transferred."
          }
        }
      ],
      "ERC721InvalidSender(address)": [
        {
          "details": "Indicates a failure with the token `sender`. Used in transfers.",
          "params": {
            "sender": "Address whose tokens are being transferred."
          }
        }
      ],
      "ERC721NonexistentToken(uint256)": [
        {
          "details": "Indicates a `tokenId` whose `owner` is the zero address.",
          "params": {
            "tokenId": "Identifier number of a token."
          }
        }
      ]
    },
    "events": {
      "Approval(address,address,uint256)": {
        "details": "Emitted when `owner` enables `approved` to manage the `tokenId` token."
      },
      "ApprovalForAll(address,address,bool)": {
        "details": "Emitted when `owner` enables or disables (`approved`) `operator` to manage all of its assets."
      },
      "Transfer(address,address,uint256)": {
        "details": "Emitted when `tokenId` token is transferred from `from` to `to`."
      }
    },
    "kind": "dev",
    "methods": {
      "approve(address,uint256)": {
        "details": "See {IERC721-approve}."
      },
      "balanceOf(address)": {
        "details": "See {IERC721-balanceOf}."
      },
      "getApproved(uint256)": {
        "details": "See {IERC721-getApproved}."
      },
      "isApprovedForAll(address,address)": {
        "details": "See {IERC721-isApprovedForAll}."
      },
      "name()": {
        "details": "See {IERC721Metadata-name}."
      },
      "ownerOf(uint256)": {
        "details": "See {IERC721-ownerOf}."
      },
      "safeTransferFrom(address,address,uint256)": {
        "details": "See {IERC721-safeTransferFrom}."
      },
      "safeTransferFrom(address,address,uint256,bytes)": {
        "details": "See {IERC721-safeTransferFrom}."
      },
      "setApprovalForAll(address,bool)": {
        "details": "See {IERC721-setApprovalForAll}."
      },
      "supportsInterface(bytes4)": {
        "details": "See {IERC165-supportsInterface}."
      },
      "symbol()": {
        "details": "See {IERC721Metadata-symbol}."
      },
      "tokenURI(uint256)": {
        "details": "See {IERC721Metadata-tokenURI}."
      },
      "transferFrom(address,address,uint256)": {
        "details": "See {IERC721-transferFrom}."
      }
    },
    "version": 1
  },
  "userdoc": {
    "kind": "user",
    "methods": {},
    "version": 1
  }
}