{
  "contractName": "MyContract",
  "abi": [
    {
      "inputs": [],
      "stateMutability": "nonpayable",
      "type": "constructor"
    },
    {
      "inputs": [
        {
          "internalType": "address",
          "name": "sender",
          "type": "address"
        },
        {
          "internalType": "uint256",
          "name": "tokenId",
          "type": "uint256"
        },
        {
          "internalType": "address",
          "name": "owner",
          "type": "address"
        }
      ],
      "name": "ERC721IncorrectOwner",
      "type": "error"
    },
    {
      "inputs": [
        {
          "internalType": "address",
          "name": "operator",
          "type": "address"
        },
        {
          "internalType": "uint256",
          "name": "tokenId",
          "type": "uint256"
        }
      ],
      "name": "ERC721InsufficientApproval",
      "type": "error"
    },
    {
      "inputs": [
        {
          "internalType": "address",
          "name": "approver",
          "type": "address"
        }
      ],
      "name": "ERC721InvalidApprover",
      "type": "error"
    },
    {
      "inputs": [
        {
          "internalType": "address",
          "name": "operator",
          "type": "address"
        }
      ],
      "name": "ERC721InvalidOperator",
      "type": "error"
    },
    {
      "inputs": [
        {
          "internalType": "address",
          "name": "owner",
          "type": "address"
        }
      ],
      "name": "ERC721InvalidOwner",
      "type": "error"
    },
    {
      "inputs": [
        {
          "internalType": "address",
          "name": "receiver",
          "type": "address"
        }
      ],
      "name": "ERC721InvalidReceiver",
      "type": "error"
    },
    {
      "inputs": [
        {
          "internalType": "address",
          "name": "sender",
          "type": "address"
        }
      ],
      "name": "ERC721InvalidSender",
      "type": "error"
    },
    {
      "inputs": [
        {
          "internalType": "uint256",
          "name": "tokenId",
          "type": "uint256"
        }
      ],
      "name": "ERC721NonexistentToken",
      "type": "error"
    },
    {
      "anonymous": false,
      "inputs": [
        {
          "indexed": true,
          "internalType": "address",
          "name": "owner",
          "type": "address"
        },
        {
          "indexed": true,
          "internalType": "address",
          "name": "approved",
          "type": "address"
        },
        {
          "indexed": true,
          "internalType": "uint256",
          "name": "tokenId",
          "type": "uint256"
        }
      ],
      "name": "Approval",
      "type": "event"
    },
    {
      "anonymous": false,
      "inputs": [
        {
          "indexed": true,
          "internalType": "address",
          "name": "owner",
          "type": "address"
        },
        {
          "indexed": true,
          "internalType": "address",
          "name": "operator",
          "type": "address"
        },
        {
          "indexed": false,
          "internalType": "bool",
          "name": "approved",
          "type": "bool"
        }
      ],
      "name": "ApprovalForAll",
      "type": "event"
    },
    {
      "anonymous": false,
      "inputs": [
        {
          "indexed": true,
          "internalType": "address",
          "name": "from",
          "type": "address"
        },
        {
          "indexed": true,
          "internalType": "address",
          "name": "to",
          "type": "address"
        },
        {
          "indexed": true,
          "internalType": "uint256",
          "name": "tokenId",
          "type": "uint256"
        }
      ],
      "name": "Transfer",
      "type": "event"
    },
    {
      "inputs": [
        {
          "internalType": "address",
          "name": "",
          "type": "address"
        },
        {
          "internalType": "uint256",
          "name": "",
          "type": "uint256"
        }
      ],
      "name": "activeContractsOfWorker",
      "outputs": [
        {
          "internalType": "uint256",
          "name": "",
          "type": "uint256"
        }
      ],
      "stateMutability": "view",
      "type": "function"
    },
    {
      "inputs": [
        {
          "internalType": "address",
          "name": "to",
          "type": "address"
        },
        {
          "internalType": "uint256",
          "name": "tokenId",
          "type": "uint256"
        }
      ],
      "name": "approve",
      "outputs": [],
      "stateMutability": "nonpayable",
      "type": "function"
    },
    {
      "inputs": [
        {
          "internalType": "address",
          "name": "owner",
          "type": "address"
        }
      ],
      "name": "balanceOf",
      "outputs": [
        {
          "internalType": "uint256",
          "name": "",
          "type": "uint256"
        }
      ],
      "stateMutability": "view",
      "type": "function"
    },
    {
      "inputs": [
        {
          "internalType": "uint256",
          "name": "",
          "type": "uint256"
        }
      ],
      "name": "changeProposals",
      "outputs": [
        {
          "internalType": "string",
          "name": "newTitle",
          "type": "string"
        },
        {
          "internalType": "uint256",
          "name": "newSalary",
          "type": "uint256"
        },
        {
          "internalType": "uint256",
          "name": "newDuration",
          "type": "uint256"
        },
        {
          "internalType": "string",
          "name": "newDescription",
          "type": "string"
        },
        {
          "internalType": "bool",
          "name": "isPaused",
          "type": "bool"
        },
        {
          "internalType": "bool",
          "name": "isPending",
          "type": "bool"
        }
      ],
      "stateMutability": "view",
      "type": "function"
    },
    {
      "inputs": [
        {
          "internalType": "uint256",
          "name": "",
          "type": "uint256"
        }
      ],
      "name": "contractDetails",
      "outputs": [
        {
          "internalType": "uint256",
          "name": "salary",
          "type": "uint256"
        },
        {
          "internalType": "uint256",
          "name": "startDate",
          "type": "uint256"
        },
        {
          "internalType": "uint256",
          "name": "duration",
          "type": "uint256"
        },
        {
          "internalType": "string",
          "name": "title",
          "type": "string"
        },
        {
          "internalType": "string",
          "name": "description",
          "type": "string"
        },
        {
          "internalType": "bool",
          "name": "isSigned",
          "type": "bool"
        },
        {
          "internalType": "address",
          "name": "worker",
          "type": "address"
        },
        {
          "internalType": "bool",
          "name": "isFinished",
          "type": "bool"
        },
        {
          "internalType": "bool",
          "name": "isReleased",
          "type": "bool"
        },
        {
          "internalType": "bool",
          "name": "isPaused",
          "type": "bool"
        },
        {
          "internalType": "uint256",
          "name": "pauseTime",
          "type": "uint256"
        },
        {
          "internalType": "uint256",
          "name": "pauseDuration",
          "type": "uint256"
        }
      ],
      "stateMutability": "view",
      "type": "function"
    },
    {
      "inputs": [
        {
          "internalType": "address",
          "name": "",
          "type": "address"
        },
        {
          "internalType": "uint256",
          "name": "",
          "type": "uint256"
        }
      ],
      "name": "contractsOwner",
      "outputs": [
        {
          "internalType": "uint256",
          "name": "",
          "type": "uint256"
        }
      ],
      "stateMutability": "view",
      "type": "function"
    },
    {
      "inputs": [
        {
          "internalType": "uint256",
          "name": "tokenId",
          "type": "uint256"
        }
      ],
      "name": "getApproved",
      "outputs": [
        {
          "internalType": "address",
          "name": "",
          "type": "address"
        }
      ],
      "stateMutability": "view",
      "type": "function"
    },
    {
      "inputs": [
        {
          "internalType": "address",
          "name": "owner",
          "type": "address"
        },
        {
          "internalType": "address",
          "name": "operator",
          "type": "address"
        }
      ],
      "name": "isApprovedForAll",
      "outputs": [
        {
          "internalType": "bool",
          "name": "",
          "type": "bool"
        }
      ],
      "stateMutability": "view",
      "type": "function"
    },
    {
      "inputs": [],
      "name": "name",
      "outputs": [
        {
          "internalType": "string",
          "name": "",
          "type": "string"
        }
      ],
      "stateMutability": "view",
      "type": "function"
    },
    {
      "inputs": [
        {
          "internalType": "uint256",
          "name": "tokenId",
          "type": "uint256"
        }
      ],
      "name": "ownerOf",
      "outputs": [
        {
          "internalType": "address",
          "name": "",
          "type": "address"
        }
      ],
      "stateMutability": "view",
      "type": "function"
    },
    {
      "inputs": [
        {
          "internalType": "address",
          "name": "from",
          "type": "address"
        },
        {
          "internalType": "address",
          "name": "to",
          "type": "address"
        },
        {
          "internalType": "uint256",
          "name": "tokenId",
          "type": "uint256"
        }
      ],
      "name": "safeTransferFrom",
      "outputs": [],
      "stateMutability": "nonpayable",
      "type": "function"
    },
    {
      "inputs": [
        {
          "internalType": "address",
          "name": "from",
          "type": "address"
        },
        {
          "internalType": "address",
          "name": "to",
          "type": "address"
        },
        {
          "internalType": "uint256",
          "name": "tokenId",
          "type": "uint256"
        },
        {
          "internalType": "bytes",
          "name": "data",
          "type": "bytes"
        }
      ],
      "name": "safeTransferFrom",
      "outputs": [],
      "stateMutability": "nonpayable",
      "type": "function"
    },
    {
      "inputs": [
        {
          "internalType": "address",
          "name": "operator",
          "type": "address"
        },
        {
          "internalType": "bool",
          "name": "approved",
          "type": "bool"
        }
      ],
      "name": "setApprovalForAll",
      "outputs": [],
      "stateMutability": "nonpayable",
      "type": "function"
    },
    {
      "inputs": [
        {
          "internalType": "bytes4",
          "name": "interfaceId",
          "type": "bytes4"
        }
      ],
      "name": "supportsInterface",
      "outputs": [
        {
          "internalType": "bool",
          "name": "",
          "type": "bool"
        }
      ],
      "stateMutability": "view",
      "type": "function"
    },
    {
      "inputs": [],
      "name": "symbol",
      "outputs": [
        {
          "internalType": "string",
          "name": "",
          "type": "string"
        }
      ],
      "stateMutability": "view",
      "type": "function"
    },
    {
      "inputs": [],
      "name": "tokenID",
      "outputs": [
        {
          "internalType": "uint256",
          "name": "",
          "type": "uint256"
        }
      ],
      "stateMutability": "view",
      "type": "function"
    },
    {
      "inputs": [
        {
          "internalType": "uint256",
          "name": "",
          "type": "uint256"
        },
        {
          "internalType": "address",
          "name": "",
          "type": "address"
        }
      ],
      "name": "tokenManagers",
      "outputs": [
        {
          "internalType": "bool",
          "name": "",
          "type": "bool"
        }
      ],
      "stateMutability": "view",
      "type": "function"
    },
    {
      "inputs": [
        {
          "internalType": "uint256",
          "name": "",
          "type": "uint256"
        },
        {
          "internalType": "uint256",
          "name": "",
          "type": "uint256"
        }
      ],
      "name": "tokenManagersList",
      "outputs": [
        {
          "internalType": "address",
          "name": "",
          "type": "address"
        }
      ],
      "stateMutability": "view",
      "type": "function"
    },
    {
      "inputs": [
        {
          "internalType": "uint256",
          "name": "tokenId",
          "type": "uint256"
        }
      ],
      "name": "tokenURI",
      "outputs": [
        {
          "internalType": "string",
          "name": "",
          "type": "string"
        }
      ],
      "stateMutability": "view",
      "type": "function"
    },
    {
      "inputs": [
        {
          "internalType": "address",
          "name": "from",
          "type": "address"
        },
        {
          "internalType": "address",
          "name": "to",
          "type": "address"
        },
        {
          "internalType": "uint256",
          "name": "tokenId",
          "type": "uint256"
        }
      ],
      "name": "transferFrom",
      "outputs": [],
      "stateMutability": "nonpayable",
      "type": "function"
    },
    {
      "inputs": [
        {
          "internalType": "address",
          "name": "",
          "type": "address"
        },
        {
          "internalType": "uint256",
          "name": "",
          "type": "uint256"
        }
      ],
      "name": "unsignedContractsOfWorker",
      "outputs": [
        {
          "internalType": "uint256",
          "name": "",
          "type": "uint256"
        }
      ],
      "stateMutability": "view",
      "type": "function"
    },
    {
      "inputs": [
        {
          "internalType": "uint256",
          "name": "_tokenID",
          "type": "uint256"
        }
      ],
      "name": "isContractFinished",
      "outputs": [
        {
          "internalType": "bool",
          "name": "",
          "type": "bool"
        }
      ],
      "stateMutability": "view",
      "type": "function"
    }
  ],
  "bytecode": "0x608060405234801562000010575f80fd5b506040518060400160405280600781526020016626bcaa37b5b2b760c91b815250604051806040016040528060038152602001624d544b60e81b815250815f90816200005d919062000115565b5060016200006c828262000115565b505050620001dd565b634e487b7160e01b5f52604160045260245ffd5b600181811c908216806200009e57607f821691505b602082108103620000bd57634e487b7160e01b5f52602260045260245ffd5b50919050565b601f82111562000110575f81815260208120601f850160051c81016020861015620000eb5750805b601f850160051c820191505b818110156200010c57828155600101620000f7565b5050505b505050565b81516001600160401b0381111562000131576200013162000075565b620001498162000142845462000089565b84620000c3565b602080601f8311600181146200017f575f8415620001675750858301515b5f19600386901b1c1916600185901b1785556200010c565b5f85815260208120601f198616915b82811015620001af578886015182559484019460019091019084016200018e565b5085821015620001cd57878501515f19600388901b60f8161c191681555b5050505050600190811b01905550565b6115a680620001eb5f395ff3fe608060405234801561000f575f80fd5b506004361061013d575f3560e01c806370a08231116100b4578063bc3a8e9e11610079578063bc3a8e9e146102cd578063bce87156146102e0578063c87b56dd146102f3578063e1b1462014610306578063e985e9c514610319578063fc5a4efe1461032c575f80fd5b806370a082311461028357806395d89b4114610296578063a22cb4651461029e578063a5c42ef1146102b1578063b88d4fde146102ba575f80fd5b8063294a793111610105578063294a7931146101d15780633330a55f146101fe57806336a2d6f51461022957806342842e0e1461023c57806345f184601461024f5780636352211e14610270575f80fd5b806301ffc9a71461014157806306fdde0314610169578063081812fc1461017e578063095ea7b3146101a957806323b872dd146101be575b5f80fd5b61015461014f3660046110e0565b610351565b60405190151581526020015b60405180910390f35b6101716103a2565b6040516101609190611148565b61019161018c36600461115a565b610431565b6040516001600160a01b039091168152602001610160565b6101bc6101b7366004611185565b610458565b005b6101bc6101cc3660046111af565b610467565b6101546101df3660046111ed565b600860209081525f928352604080842090915290825290205460ff1681565b61021161020c36600461115a565b6104f5565b6040516101609c9b9a9998979695949392919061121b565b6101916102373660046112aa565b610676565b6101bc61024a3660046111af565b6106aa565b61026261025d366004611185565b6106c9565b604051908152602001610160565b61019161027e36600461115a565b6106f4565b6102626102913660046112ca565b6106fe565b610171610743565b6101bc6102ac3660046112e5565b610752565b610262600d5481565b6101bc6102c8366004611329565b61075d565b6102626102db366004611185565b610774565b6101546102ee36600461115a565b61078d565b61017161030136600461115a565b61089e565b610262610314366004611185565b61090f565b610154610327366004611402565b610928565b61033f61033a36600461115a565b610955565b6040516101609695949392919061142e565b5f6001600160e01b031982166380ac58cd60e01b148061038157506001600160e01b03198216635b5e139f60e01b145b8061039c57506301ffc9a760e01b6001600160e01b03198316145b92915050565b60605f80546103b090611479565b80601f01602080910402602001604051908101604052809291908181526020018280546103dc90611479565b80156104275780601f106103fe57610100808354040283529160200191610427565b820191905f5260205f20905b81548152906001019060200180831161040a57829003601f168201915b5050505050905090565b5f61043b82610a9a565b505f828152600460205260409020546001600160a01b031661039c565b610463828233610ad2565b5050565b6001600160a01b03821661049557604051633250574960e11b81525f60048201526024015b60405180910390fd5b5f6104a1838333610adf565b9050836001600160a01b0316816001600160a01b0316146104ef576040516364283d7b60e01b81526001600160a01b038086166004830152602482018490528216604482015260640161048c565b50505050565b60066020525f908152604090208054600182015460028301546003840180549394929391929161052490611479565b80601f016020809104026020016040519081016040528092919081815260200182805461055090611479565b801561059b5780601f106105725761010080835404028352916020019161059b565b820191905f5260205f20905b81548152906001019060200180831161057e57829003601f168201915b5050505050908060040180546105b090611479565b80601f01602080910402602001604051908101604052809291908181526020018280546105dc90611479565b80156106275780601f106105fe57610100808354040283529160200191610627565b820191905f5260205f20905b81548152906001019060200180831161060a57829003601f168201915b50505060058401546006850154600790950154939460ff808316956001600160a01b036101008504169550600160a81b840482169450600160b01b8404821693600160b81b900490911691908c565b600c602052815f5260405f20818154811061068f575f80fd5b5f918252602090912001546001600160a01b03169150829050565b6106c483838360405180602001604052805f81525061075d565b505050565b600b602052815f5260405f2081815481106106e2575f80fd5b905f5260205f20015f91509150505481565b5f61039c82610a9a565b5f6001600160a01b038216610728576040516322718ad960e21b81525f600482015260240161048c565b506001600160a01b03165f9081526003602052604090205490565b6060600180546103b090611479565b610463338383610bd1565b610768848484610467565b6104ef84848484610c6f565b600a602052815f5260405f2081815481106106e2575f80fd5b6040516331a9108f60e11b8152600481018290525f903090636352211e90602401602060405180830381865afa9250505080156107e7575060408051601f3d908101601f191682019092526107e4918101906114b1565b60015b6108295760405162461bcd60e51b815260206004820152601360248201527222b6103a37b5b2b71037379032bc34b9ba329760691b604482015260640161048c565b505f82815260066020526040902060050154600160a81b900460ff16151560010361085657506001919050565b5f82815260066020526040902060078101546002820154600190920154909161087e916114cc565b61088891906114cc565b42111561089757506001919050565b505f919050565b60606108a982610a9a565b505f6108bf60408051602081019091525f815290565b90505f8151116108dd5760405180602001604052805f815250610908565b806108e784610d95565b6040516020016108f89291906114eb565b6040516020818303038152906040525b9392505050565b6009602052815f5260405f2081815481106106e2575f80fd5b6001600160a01b039182165f90815260056020908152604080832093909416825291909152205460ff1690565b60076020525f908152604090208054819061096f90611479565b80601f016020809104026020016040519081016040528092919081815260200182805461099b90611479565b80156109e65780601f106109bd576101008083540402835291602001916109e6565b820191905f5260205f20905b8154815290600101906020018083116109c957829003601f168201915b505050505090806001015490806002015490806003018054610a0790611479565b80601f0160208091040260200160405190810160405280929190818152602001828054610a3390611479565b8015610a7e5780601f10610a5557610100808354040283529160200191610a7e565b820191905f5260205f20905b815481529060010190602001808311610a6157829003601f168201915b5050506004909301549192505060ff8082169161010090041686565b5f818152600260205260408120546001600160a01b03168061039c57604051637e27328960e01b81526004810184905260240161048c565b6106c48383836001610e25565b5f828152600260205260408120546001600160a01b0390811690831615610b0b57610b0b818486610f29565b6001600160a01b03811615610b4557610b265f855f80610e25565b6001600160a01b0381165f90815260036020526040902080545f190190555b6001600160a01b03851615610b73576001600160a01b0385165f908152600360205260409020805460010190555b5f8481526002602052604080822080546001600160a01b0319166001600160a01b0389811691821790925591518793918516917fddf252ad1be2c89b69c2b068fc378daa952ba7f163c4a11628f55a4df523b3ef91a4949350505050565b6001600160a01b038216610c0357604051630b61174360e31b81526001600160a01b038316600482015260240161048c565b6001600160a01b038381165f81815260056020908152604080832094871680845294825291829020805460ff191686151590811790915591519182527f17307eab39ab6107e8899845ad3d59bd9653f200f220920489ca2b5937696c31910160405180910390a3505050565b6001600160a01b0383163b156104ef57604051630a85bd0160e11b81526001600160a01b0384169063150b7a0290610cb1903390889087908790600401611519565b6020604051808303815f875af1925050508015610ceb575060408051601f3d908101601f19168201909252610ce891810190611555565b60015b610d52573d808015610d18576040519150601f19603f3d011682016040523d82523d5f602084013e610d1d565b606091505b5080515f03610d4a57604051633250574960e11b81526001600160a01b038516600482015260240161048c565b805181602001fd5b6001600160e01b03198116630a85bd0160e11b14610d8e57604051633250574960e11b81526001600160a01b038516600482015260240161048c565b5050505050565b60605f610da183610f8d565b60010190505f8167ffffffffffffffff811115610dc057610dc0611315565b6040519080825280601f01601f191660200182016040528015610dea576020820181803683370190505b5090508181016020015b5f19016f181899199a1a9b1b9c1cb0b131b232b360811b600a86061a8153600a8504945084610df457509392505050565b8080610e3957506001600160a01b03821615155b15610efa575f610e4884610a9a565b90506001600160a01b03831615801590610e745750826001600160a01b0316816001600160a01b031614155b8015610e875750610e858184610928565b155b15610eb05760405163a9fbf51f60e01b81526001600160a01b038416600482015260240161048c565b8115610ef85783856001600160a01b0316826001600160a01b03167f8c5be1e5ebec7d5bd14f71427d1e84f3dd0314c0f7b2291e5b200ac8c7c3b92560405160405180910390a45b505b50505f90815260046020526040902080546001600160a01b0319166001600160a01b0392909216919091179055565b610f34838383611064565b6106c4576001600160a01b038316610f6257604051637e27328960e01b81526004810182905260240161048c565b60405163177e802f60e01b81526001600160a01b03831660048201526024810182905260440161048c565b5f8072184f03e93ff9f4daa797ed6e38ed64bf6a1f0160401b8310610fcb5772184f03e93ff9f4daa797ed6e38ed64bf6a1f0160401b830492506040015b6d04ee2d6d415b85acef81000000008310610ff7576d04ee2d6d415b85acef8100000000830492506020015b662386f26fc10000831061101557662386f26fc10000830492506010015b6305f5e100831061102d576305f5e100830492506008015b612710831061104157612710830492506004015b60648310611053576064830492506002015b600a831061039c5760010192915050565b5f6001600160a01b038316158015906110c05750826001600160a01b0316846001600160a01b0316148061109d575061109d8484610928565b806110c057505f828152600460205260409020546001600160a01b038481169116145b949350505050565b6001600160e01b0319811681146110dd575f80fd5b50565b5f602082840312156110f0575f80fd5b8135610908816110c8565b5f5b838110156111155781810151838201526020016110fd565b50505f910152565b5f81518084526111348160208601602086016110fb565b601f01601f19169290920160200192915050565b602081525f610908602083018461111d565b5f6020828403121561116a575f80fd5b5035919050565b6001600160a01b03811681146110dd575f80fd5b5f8060408385031215611196575f80fd5b82356111a181611171565b946020939093013593505050565b5f805f606084860312156111c1575f80fd5b83356111cc81611171565b925060208401356111dc81611171565b929592945050506040919091013590565b5f80604083850312156111fe575f80fd5b82359150602083013561121081611171565b809150509250929050565b5f6101808e83528d60208401528c60408401528060608401526112408184018d61111d565b90508281036080840152611254818c61111d565b8a151560a08501526001600160a01b038a1660c085015288151560e085015287151561010085015291506112859050565b84151561012083015261014082019390935261016001529a9950505050505050505050565b5f80604083850312156112bb575f80fd5b50508035926020909101359150565b5f602082840312156112da575f80fd5b813561090881611171565b5f80604083850312156112f6575f80fd5b823561130181611171565b915060208301358015158114611210575f80fd5b634e487b7160e01b5f52604160045260245ffd5b5f805f806080858703121561133c575f80fd5b843561134781611171565b9350602085013561135781611171565b925060408501359150606085013567ffffffffffffffff8082111561137a575f80fd5b818701915087601f83011261138d575f80fd5b81358181111561139f5761139f611315565b604051601f8201601f19908116603f011681019083821181831017156113c7576113c7611315565b816040528281528a60208487010111156113df575f80fd5b826020860160208301375f60208483010152809550505050505092959194509250565b5f8060408385031215611413575f80fd5b823561141e81611171565b9150602083013561121081611171565b60c081525f61144060c083018961111d565b876020840152866040840152828103606084015261145e818761111d565b9415156080840152505090151560a090910152949350505050565b600181811c9082168061148d57607f821691505b6020821081036114ab57634e487b7160e01b5f52602260045260245ffd5b50919050565b5f602082840312156114c1575f80fd5b815161090881611171565b8082018082111561039c57634e487b7160e01b5f52601160045260245ffd5b5f83516114fc8184602088016110fb565b8351908301906115108183602088016110fb565b01949350505050565b6001600160a01b03858116825284166020820152604081018390526080606082018190525f9061154b9083018461111d565b9695505050505050565b5f60208284031215611565575f80fd5b8151610908816110c856fea26469706673582212202c83a87b7ad3dc2596c010c7c9677c7964ff184ea08db6fdfed0c7d64ebbc9ec64736f6c63430008140033",
  "immutableReferences": {},
  "source": "// SPDX-License-Identifier: MIT\r\npragma solidity ^0.8.20;\r\n\r\nimport \"@openzeppelin/contracts/token/ERC721/ERC721.sol\";\r\n\r\ncontract MyContract is ERC721 {\r\n    struct ContractDetails {\r\n        uint256 salary;\r\n        uint256 startDate;\r\n        uint256 duration;\r\n        string title;\r\n        string description;\r\n        bool isSigned;\r\n        address worker;\r\n        bool isFinished;\r\n        bool isReleased;\r\n        bool isPaused;\r\n        uint256 pauseTime;\r\n        uint256 pauseDuration;\r\n    }\r\n\r\n    struct ChangeProposal {\r\n        string newTitle;\r\n        uint256 newSalary;\r\n        uint256 newDuration;\r\n        string newDescription;\r\n        bool isPaused;\r\n        bool isPending;\r\n    }\r\n\r\n    mapping(uint256 => ContractDetails) public contractDetails;\r\n    mapping(uint256 => ChangeProposal) public changeProposals;\r\n    mapping(uint256 => mapping(address => bool)) public tokenManagers;\r\n    mapping(address => uint256[]) public contractsOwner;\r\n    mapping(address => uint256[]) public activeContractsOfWorker;\r\n    mapping(address => uint256[]) public unsignedContractsOfWorker;\r\n    mapping(uint256 => address[]) public tokenManagersList;\r\n    uint256 public tokenID;\r\n\r\n    function isContractFinished(uint256 _tokenID) public view returns (bool) {\r\n        try this.ownerOf(_tokenID) {} catch {\r\n            revert(\"El token no existe.\");\r\n        }\r\n\r\n        if (contractDetails[_tokenID].isFinished == true) {\r\n            return true;\r\n        }\r\n        if (\r\n            block.timestamp >\r\n            contractDetails[_tokenID].startDate +\r\n                contractDetails[_tokenID].duration +\r\n                contractDetails[_tokenID].pauseDuration\r\n        ) {\r\n            return true;\r\n        }\r\n        return false;\r\n    }\r\n\r\n    function removeContractFromOwner(\r\n        uint256 _tokenID,\r\n        address _owner\r\n    ) internal {\r\n        try this.ownerOf(_tokenID) {} catch {\r\n            revert(\"El token no existe.\");\r\n        }\r\n\r\n        uint256 contractIndex;\r\n        uint256 lastContractIndex = contractsOwner[_owner].length - 1;\r\n\r\n        for (uint i = 0; i < contractsOwner[_owner].length; i++) {\r\n            if (contractsOwner[_owner][i] == _tokenID) {\r\n                contractIndex = i;\r\n                break;\r\n            }\r\n        }\r\n\r\n        if (contractIndex != lastContractIndex) {\r\n            contractsOwner[_owner][contractIndex] = contractsOwner[_owner][\r\n                lastContractIndex\r\n            ];\r\n        }\r\n        contractsOwner[_owner].pop();\r\n    }\r\n\r\n    constructor() ERC721(\"MyToken\", \"MTK\") {}\r\n}\r\n",
  "sourcePath": "E:\\ubu-contractme\\Code\\SmartContract\\contracts\\MyContract.sol",
  "compiler": {
    "name": "solc",
    "version": "0.8.20+commit.a1b79de6.Emscripten.clang"
  },
  "schemaVersion": "3.4.16",
  "updatedAt": "2024-05-11T18:24:00.281Z",
  "devdoc": {
    "errors": {
      "ERC721IncorrectOwner(address,uint256,address)": [
        {
          "details": "Indicates an error related to the ownership over a particular token. Used in transfers.",
          "params": {
            "owner": "Address of the current owner of a token.",
            "sender": "Address whose tokens are being transferred.",
            "tokenId": "Identifier number of a token."
          }
        }
      ],
      "ERC721InsufficientApproval(address,uint256)": [
        {
          "details": "Indicates a failure with the `operator`s approval. Used in transfers.",
          "params": {
            "operator": "Address that may be allowed to operate on tokens without being their owner.",
            "tokenId": "Identifier number of a token."
          }
        }
      ],
      "ERC721InvalidApprover(address)": [
        {
          "details": "Indicates a failure with the `approver` of a token to be approved. Used in approvals.",
          "params": {
            "approver": "Address initiating an approval operation."
          }
        }
      ],
      "ERC721InvalidOperator(address)": [
        {
          "details": "Indicates a failure with the `operator` to be approved. Used in approvals.",
          "params": {
            "operator": "Address that may be allowed to operate on tokens without being their owner."
          }
        }
      ],
      "ERC721InvalidOwner(address)": [
        {
          "details": "Indicates that an address can't be an owner. For example, `address(0)` is a forbidden owner in EIP-20. Used in balance queries.",
          "params": {
            "owner": "Address of the current owner of a token."
          }
        }
      ],
      "ERC721InvalidReceiver(address)": [
        {
          "details": "Indicates a failure with the token `receiver`. Used in transfers.",
          "params": {
            "receiver": "Address to which tokens are being transferred."
          }
        }
      ],
      "ERC721InvalidSender(address)": [
        {
          "details": "Indicates a failure with the token `sender`. Used in transfers.",
          "params": {
            "sender": "Address whose tokens are being transferred."
          }
        }
      ],
      "ERC721NonexistentToken(uint256)": [
        {
          "details": "Indicates a `tokenId` whose `owner` is the zero address.",
          "params": {
            "tokenId": "Identifier number of a token."
          }
        }
      ]
    },
    "events": {
      "Approval(address,address,uint256)": {
        "details": "Emitted when `owner` enables `approved` to manage the `tokenId` token."
      },
      "ApprovalForAll(address,address,bool)": {
        "details": "Emitted when `owner` enables or disables (`approved`) `operator` to manage all of its assets."
      },
      "Transfer(address,address,uint256)": {
        "details": "Emitted when `tokenId` token is transferred from `from` to `to`."
      }
    },
    "kind": "dev",
    "methods": {
      "approve(address,uint256)": {
        "details": "See {IERC721-approve}."
      },
      "balanceOf(address)": {
        "details": "See {IERC721-balanceOf}."
      },
      "getApproved(uint256)": {
        "details": "See {IERC721-getApproved}."
      },
      "isApprovedForAll(address,address)": {
        "details": "See {IERC721-isApprovedForAll}."
      },
      "name()": {
        "details": "See {IERC721Metadata-name}."
      },
      "ownerOf(uint256)": {
        "details": "See {IERC721-ownerOf}."
      },
      "safeTransferFrom(address,address,uint256)": {
        "details": "See {IERC721-safeTransferFrom}."
      },
      "safeTransferFrom(address,address,uint256,bytes)": {
        "details": "See {IERC721-safeTransferFrom}."
      },
      "setApprovalForAll(address,bool)": {
        "details": "See {IERC721-setApprovalForAll}."
      },
      "supportsInterface(bytes4)": {
        "details": "See {IERC165-supportsInterface}."
      },
      "symbol()": {
        "details": "See {IERC721Metadata-symbol}."
      },
      "tokenURI(uint256)": {
        "details": "See {IERC721Metadata-tokenURI}."
      },
      "transferFrom(address,address,uint256)": {
        "details": "See {IERC721-transferFrom}."
      }
    },
    "version": 1
  },
  "userdoc": {
    "kind": "user",
    "methods": {},
    "version": 1
  }
}