{
  "contractName": "MyContract",
  "abi": [
    {
      "inputs": [],
      "stateMutability": "nonpayable",
      "type": "constructor"
    },
    {
      "inputs": [
        {
          "internalType": "address",
          "name": "sender",
          "type": "address"
        },
        {
          "internalType": "uint256",
          "name": "tokenId",
          "type": "uint256"
        },
        {
          "internalType": "address",
          "name": "owner",
          "type": "address"
        }
      ],
      "name": "ERC721IncorrectOwner",
      "type": "error"
    },
    {
      "inputs": [
        {
          "internalType": "address",
          "name": "operator",
          "type": "address"
        },
        {
          "internalType": "uint256",
          "name": "tokenId",
          "type": "uint256"
        }
      ],
      "name": "ERC721InsufficientApproval",
      "type": "error"
    },
    {
      "inputs": [
        {
          "internalType": "address",
          "name": "approver",
          "type": "address"
        }
      ],
      "name": "ERC721InvalidApprover",
      "type": "error"
    },
    {
      "inputs": [
        {
          "internalType": "address",
          "name": "operator",
          "type": "address"
        }
      ],
      "name": "ERC721InvalidOperator",
      "type": "error"
    },
    {
      "inputs": [
        {
          "internalType": "address",
          "name": "owner",
          "type": "address"
        }
      ],
      "name": "ERC721InvalidOwner",
      "type": "error"
    },
    {
      "inputs": [
        {
          "internalType": "address",
          "name": "receiver",
          "type": "address"
        }
      ],
      "name": "ERC721InvalidReceiver",
      "type": "error"
    },
    {
      "inputs": [
        {
          "internalType": "address",
          "name": "sender",
          "type": "address"
        }
      ],
      "name": "ERC721InvalidSender",
      "type": "error"
    },
    {
      "inputs": [
        {
          "internalType": "uint256",
          "name": "tokenId",
          "type": "uint256"
        }
      ],
      "name": "ERC721NonexistentToken",
      "type": "error"
    },
    {
      "anonymous": false,
      "inputs": [
        {
          "indexed": true,
          "internalType": "address",
          "name": "owner",
          "type": "address"
        },
        {
          "indexed": true,
          "internalType": "address",
          "name": "approved",
          "type": "address"
        },
        {
          "indexed": true,
          "internalType": "uint256",
          "name": "tokenId",
          "type": "uint256"
        }
      ],
      "name": "Approval",
      "type": "event"
    },
    {
      "anonymous": false,
      "inputs": [
        {
          "indexed": true,
          "internalType": "address",
          "name": "owner",
          "type": "address"
        },
        {
          "indexed": true,
          "internalType": "address",
          "name": "operator",
          "type": "address"
        },
        {
          "indexed": false,
          "internalType": "bool",
          "name": "approved",
          "type": "bool"
        }
      ],
      "name": "ApprovalForAll",
      "type": "event"
    },
    {
      "anonymous": false,
      "inputs": [
        {
          "indexed": true,
          "internalType": "uint256",
          "name": "tokenId",
          "type": "uint256"
        }
      ],
      "name": "ContractCancelled",
      "type": "event"
    },
    {
      "anonymous": false,
      "inputs": [
        {
          "indexed": true,
          "internalType": "uint256",
          "name": "tokenId",
          "type": "uint256"
        }
      ],
      "name": "ContractFinalized",
      "type": "event"
    },
    {
      "anonymous": false,
      "inputs": [
        {
          "indexed": true,
          "internalType": "uint256",
          "name": "tokenId",
          "type": "uint256"
        },
        {
          "indexed": false,
          "internalType": "address",
          "name": "worker",
          "type": "address"
        }
      ],
      "name": "ContractSigned",
      "type": "event"
    },
    {
      "anonymous": false,
      "inputs": [
        {
          "indexed": false,
          "internalType": "uint256",
          "name": "currentSalary",
          "type": "uint256"
        },
        {
          "indexed": false,
          "internalType": "uint256",
          "name": "newSalary",
          "type": "uint256"
        },
        {
          "indexed": false,
          "internalType": "uint256",
          "name": "salaryDifference",
          "type": "uint256"
        },
        {
          "indexed": false,
          "internalType": "uint256",
          "name": "msgValue",
          "type": "uint256"
        }
      ],
      "name": "Debug",
      "type": "event"
    },
    {
      "anonymous": false,
      "inputs": [
        {
          "indexed": true,
          "internalType": "uint256",
          "name": "tokenId",
          "type": "uint256"
        },
        {
          "indexed": false,
          "internalType": "uint256",
          "name": "salary",
          "type": "uint256"
        }
      ],
      "name": "SalaryReleased",
      "type": "event"
    },
    {
      "anonymous": false,
      "inputs": [
        {
          "indexed": false,
          "internalType": "uint256",
          "name": "tokenId",
          "type": "uint256"
        }
      ],
      "name": "TokenMinted",
      "type": "event"
    },
    {
      "anonymous": false,
      "inputs": [
        {
          "indexed": true,
          "internalType": "address",
          "name": "from",
          "type": "address"
        },
        {
          "indexed": true,
          "internalType": "address",
          "name": "to",
          "type": "address"
        },
        {
          "indexed": true,
          "internalType": "uint256",
          "name": "tokenId",
          "type": "uint256"
        }
      ],
      "name": "Transfer",
      "type": "event"
    },
    {
      "inputs": [
        {
          "internalType": "address",
          "name": "to",
          "type": "address"
        },
        {
          "internalType": "uint256",
          "name": "tokenId",
          "type": "uint256"
        }
      ],
      "name": "approve",
      "outputs": [],
      "stateMutability": "nonpayable",
      "type": "function"
    },
    {
      "inputs": [
        {
          "internalType": "address",
          "name": "owner",
          "type": "address"
        }
      ],
      "name": "balanceOf",
      "outputs": [
        {
          "internalType": "uint256",
          "name": "",
          "type": "uint256"
        }
      ],
      "stateMutability": "view",
      "type": "function",
      "constant": true
    },
    {
      "inputs": [
        {
          "internalType": "uint256",
          "name": "",
          "type": "uint256"
        }
      ],
      "name": "changeProposals",
      "outputs": [
        {
          "internalType": "string",
          "name": "newTitle",
          "type": "string"
        },
        {
          "internalType": "uint256",
          "name": "newSalary",
          "type": "uint256"
        },
        {
          "internalType": "uint256",
          "name": "newDuration",
          "type": "uint256"
        },
        {
          "internalType": "string",
          "name": "newDescription",
          "type": "string"
        },
        {
          "internalType": "bool",
          "name": "isPaused",
          "type": "bool"
        },
        {
          "internalType": "bool",
          "name": "isPending",
          "type": "bool"
        }
      ],
      "stateMutability": "view",
      "type": "function",
      "constant": true
    },
    {
      "inputs": [
        {
          "internalType": "uint256",
          "name": "",
          "type": "uint256"
        }
      ],
      "name": "contractDetails",
      "outputs": [
        {
          "internalType": "uint256",
          "name": "salary",
          "type": "uint256"
        },
        {
          "internalType": "uint256",
          "name": "startDate",
          "type": "uint256"
        },
        {
          "internalType": "uint256",
          "name": "duration",
          "type": "uint256"
        },
        {
          "internalType": "string",
          "name": "title",
          "type": "string"
        },
        {
          "internalType": "string",
          "name": "description",
          "type": "string"
        },
        {
          "internalType": "bool",
          "name": "isSigned",
          "type": "bool"
        },
        {
          "internalType": "address",
          "name": "worker",
          "type": "address"
        },
        {
          "internalType": "bool",
          "name": "isFinished",
          "type": "bool"
        },
        {
          "internalType": "bool",
          "name": "isReleased",
          "type": "bool"
        },
        {
          "internalType": "bool",
          "name": "isPaused",
          "type": "bool"
        },
        {
          "internalType": "uint256",
          "name": "pauseTime",
          "type": "uint256"
        },
        {
          "internalType": "uint256",
          "name": "pauseDuration",
          "type": "uint256"
        }
      ],
      "stateMutability": "view",
      "type": "function",
      "constant": true
    },
    {
      "inputs": [
        {
          "internalType": "uint256",
          "name": "tokenId",
          "type": "uint256"
        }
      ],
      "name": "getApproved",
      "outputs": [
        {
          "internalType": "address",
          "name": "",
          "type": "address"
        }
      ],
      "stateMutability": "view",
      "type": "function",
      "constant": true
    },
    {
      "inputs": [
        {
          "internalType": "address",
          "name": "owner",
          "type": "address"
        },
        {
          "internalType": "address",
          "name": "operator",
          "type": "address"
        }
      ],
      "name": "isApprovedForAll",
      "outputs": [
        {
          "internalType": "bool",
          "name": "",
          "type": "bool"
        }
      ],
      "stateMutability": "view",
      "type": "function",
      "constant": true
    },
    {
      "inputs": [],
      "name": "name",
      "outputs": [
        {
          "internalType": "string",
          "name": "",
          "type": "string"
        }
      ],
      "stateMutability": "view",
      "type": "function",
      "constant": true
    },
    {
      "inputs": [
        {
          "internalType": "uint256",
          "name": "tokenId",
          "type": "uint256"
        }
      ],
      "name": "ownerOf",
      "outputs": [
        {
          "internalType": "address",
          "name": "",
          "type": "address"
        }
      ],
      "stateMutability": "view",
      "type": "function",
      "constant": true
    },
    {
      "inputs": [
        {
          "internalType": "address",
          "name": "from",
          "type": "address"
        },
        {
          "internalType": "address",
          "name": "to",
          "type": "address"
        },
        {
          "internalType": "uint256",
          "name": "tokenId",
          "type": "uint256"
        }
      ],
      "name": "safeTransferFrom",
      "outputs": [],
      "stateMutability": "nonpayable",
      "type": "function"
    },
    {
      "inputs": [
        {
          "internalType": "address",
          "name": "from",
          "type": "address"
        },
        {
          "internalType": "address",
          "name": "to",
          "type": "address"
        },
        {
          "internalType": "uint256",
          "name": "tokenId",
          "type": "uint256"
        },
        {
          "internalType": "bytes",
          "name": "data",
          "type": "bytes"
        }
      ],
      "name": "safeTransferFrom",
      "outputs": [],
      "stateMutability": "nonpayable",
      "type": "function"
    },
    {
      "inputs": [
        {
          "internalType": "address",
          "name": "operator",
          "type": "address"
        },
        {
          "internalType": "bool",
          "name": "approved",
          "type": "bool"
        }
      ],
      "name": "setApprovalForAll",
      "outputs": [],
      "stateMutability": "nonpayable",
      "type": "function"
    },
    {
      "inputs": [
        {
          "internalType": "bytes4",
          "name": "interfaceId",
          "type": "bytes4"
        }
      ],
      "name": "supportsInterface",
      "outputs": [
        {
          "internalType": "bool",
          "name": "",
          "type": "bool"
        }
      ],
      "stateMutability": "view",
      "type": "function",
      "constant": true
    },
    {
      "inputs": [],
      "name": "symbol",
      "outputs": [
        {
          "internalType": "string",
          "name": "",
          "type": "string"
        }
      ],
      "stateMutability": "view",
      "type": "function",
      "constant": true
    },
    {
      "inputs": [
        {
          "internalType": "uint256",
          "name": "",
          "type": "uint256"
        },
        {
          "internalType": "address",
          "name": "",
          "type": "address"
        }
      ],
      "name": "tokenManagers",
      "outputs": [
        {
          "internalType": "bool",
          "name": "",
          "type": "bool"
        }
      ],
      "stateMutability": "view",
      "type": "function",
      "constant": true
    },
    {
      "inputs": [
        {
          "internalType": "uint256",
          "name": "tokenId",
          "type": "uint256"
        }
      ],
      "name": "tokenURI",
      "outputs": [
        {
          "internalType": "string",
          "name": "",
          "type": "string"
        }
      ],
      "stateMutability": "view",
      "type": "function",
      "constant": true
    },
    {
      "inputs": [
        {
          "internalType": "address",
          "name": "from",
          "type": "address"
        },
        {
          "internalType": "address",
          "name": "to",
          "type": "address"
        },
        {
          "internalType": "uint256",
          "name": "tokenId",
          "type": "uint256"
        }
      ],
      "name": "transferFrom",
      "outputs": [],
      "stateMutability": "nonpayable",
      "type": "function"
    },
    {
      "inputs": [
        {
          "internalType": "address",
          "name": "_to",
          "type": "address"
        },
        {
          "internalType": "uint256",
          "name": "_salary",
          "type": "uint256"
        },
        {
          "internalType": "uint256",
          "name": "_duration",
          "type": "uint256"
        },
        {
          "internalType": "string",
          "name": "_description",
          "type": "string"
        },
        {
          "internalType": "string",
          "name": "_title",
          "type": "string"
        }
      ],
      "name": "mint",
      "outputs": [
        {
          "internalType": "uint256",
          "name": "",
          "type": "uint256"
        }
      ],
      "stateMutability": "payable",
      "type": "function",
      "payable": true
    },
    {
      "inputs": [
        {
          "internalType": "uint256",
          "name": "_tokenID",
          "type": "uint256"
        }
      ],
      "name": "signContract",
      "outputs": [],
      "stateMutability": "nonpayable",
      "type": "function"
    },
    {
      "inputs": [
        {
          "internalType": "uint256",
          "name": "_tokenID",
          "type": "uint256"
        }
      ],
      "name": "releaseSalary",
      "outputs": [],
      "stateMutability": "payable",
      "type": "function",
      "payable": true
    },
    {
      "inputs": [
        {
          "internalType": "uint256",
          "name": "_tokenID",
          "type": "uint256"
        }
      ],
      "name": "finalizeContract",
      "outputs": [],
      "stateMutability": "nonpayable",
      "type": "function"
    },
    {
      "inputs": [
        {
          "internalType": "uint256",
          "name": "_tokenID",
          "type": "uint256"
        }
      ],
      "name": "pauseContract",
      "outputs": [],
      "stateMutability": "nonpayable",
      "type": "function"
    },
    {
      "inputs": [
        {
          "internalType": "uint256",
          "name": "_tokenID",
          "type": "uint256"
        }
      ],
      "name": "unPauseContract",
      "outputs": [],
      "stateMutability": "nonpayable",
      "type": "function"
    },
    {
      "inputs": [
        {
          "internalType": "uint256",
          "name": "_tokenID",
          "type": "uint256"
        }
      ],
      "name": "cancelContract",
      "outputs": [],
      "stateMutability": "nonpayable",
      "type": "function"
    },
    {
      "inputs": [
        {
          "internalType": "uint256",
          "name": "_tokenId",
          "type": "uint256"
        },
        {
          "internalType": "address",
          "name": "_newManager",
          "type": "address"
        }
      ],
      "name": "assignManagerToToken",
      "outputs": [],
      "stateMutability": "nonpayable",
      "type": "function"
    },
    {
      "inputs": [
        {
          "internalType": "uint256",
          "name": "_tokenId",
          "type": "uint256"
        },
        {
          "internalType": "address",
          "name": "_manager",
          "type": "address"
        }
      ],
      "name": "revokeManagerFromToken",
      "outputs": [],
      "stateMutability": "nonpayable",
      "type": "function"
    },
    {
      "inputs": [
        {
          "internalType": "uint256",
          "name": "_tokenId",
          "type": "uint256"
        }
      ],
      "name": "getManagersOfToken",
      "outputs": [
        {
          "internalType": "address[]",
          "name": "",
          "type": "address[]"
        }
      ],
      "stateMutability": "view",
      "type": "function",
      "constant": true
    },
    {
      "inputs": [
        {
          "internalType": "uint256",
          "name": "_tokenId",
          "type": "uint256"
        },
        {
          "internalType": "address",
          "name": "_manager",
          "type": "address"
        }
      ],
      "name": "isManagerOfToken",
      "outputs": [
        {
          "internalType": "bool",
          "name": "",
          "type": "bool"
        }
      ],
      "stateMutability": "view",
      "type": "function",
      "constant": true
    },
    {
      "inputs": [
        {
          "internalType": "uint256",
          "name": "_tokenID",
          "type": "uint256"
        },
        {
          "internalType": "string",
          "name": "_newTitle",
          "type": "string"
        },
        {
          "internalType": "uint256",
          "name": "_newSalary",
          "type": "uint256"
        },
        {
          "internalType": "uint256",
          "name": "_newDuration",
          "type": "uint256"
        },
        {
          "internalType": "string",
          "name": "_newDescription",
          "type": "string"
        },
        {
          "internalType": "bool",
          "name": "_isPaused",
          "type": "bool"
        }
      ],
      "name": "proposeChange",
      "outputs": [],
      "stateMutability": "payable",
      "type": "function",
      "payable": true
    },
    {
      "inputs": [
        {
          "internalType": "uint256",
          "name": "_tokenID",
          "type": "uint256"
        }
      ],
      "name": "rejectChange",
      "outputs": [],
      "stateMutability": "nonpayable",
      "type": "function"
    },
    {
      "inputs": [
        {
          "internalType": "uint256",
          "name": "_tokenID",
          "type": "uint256"
        }
      ],
      "name": "applyChange",
      "outputs": [],
      "stateMutability": "payable",
      "type": "function",
      "payable": true
    },
    {
      "inputs": [
        {
          "internalType": "address",
          "name": "_address",
          "type": "address"
        }
      ],
      "name": "getContractsFromOwner",
      "outputs": [
        {
          "internalType": "uint256[]",
          "name": "",
          "type": "uint256[]"
        }
      ],
      "stateMutability": "view",
      "type": "function",
      "constant": true
    },
    {
      "inputs": [
        {
          "internalType": "address",
          "name": "_address",
          "type": "address"
        }
      ],
      "name": "getContractsOfWorker",
      "outputs": [
        {
          "internalType": "uint256[]",
          "name": "",
          "type": "uint256[]"
        }
      ],
      "stateMutability": "view",
      "type": "function",
      "constant": true
    },
    {
      "inputs": [
        {
          "internalType": "address",
          "name": "worker",
          "type": "address"
        }
      ],
      "name": "getUnsignedContractsOfWorker",
      "outputs": [
        {
          "internalType": "uint256[]",
          "name": "",
          "type": "uint256[]"
        }
      ],
      "stateMutability": "view",
      "type": "function",
      "constant": true
    },
    {
      "inputs": [
        {
          "internalType": "uint256",
          "name": "_tokenId",
          "type": "uint256"
        }
      ],
      "name": "tokenExists",
      "outputs": [
        {
          "internalType": "bool",
          "name": "",
          "type": "bool"
        }
      ],
      "stateMutability": "view",
      "type": "function",
      "constant": true
    },
    {
      "inputs": [
        {
          "internalType": "uint256",
          "name": "_tokenID",
          "type": "uint256"
        }
      ],
      "name": "isContractFinished",
      "outputs": [
        {
          "internalType": "bool",
          "name": "",
          "type": "bool"
        }
      ],
      "stateMutability": "view",
      "type": "function",
      "constant": true
    },
    {
      "inputs": [
        {
          "internalType": "uint256",
          "name": "_tokenID",
          "type": "uint256"
        }
      ],
      "name": "isContractSigned",
      "outputs": [
        {
          "internalType": "bool",
          "name": "",
          "type": "bool"
        }
      ],
      "stateMutability": "view",
      "type": "function",
      "constant": true
    },
    {
      "inputs": [
        {
          "internalType": "uint256",
          "name": "_tokenID",
          "type": "uint256"
        }
      ],
      "name": "getOwnerOfContract",
      "outputs": [
        {
          "internalType": "address",
          "name": "",
          "type": "address"
        }
      ],
      "stateMutability": "view",
      "type": "function",
      "constant": true
    }
  ],
  "bytecode": "0x608060405234801562000010575f80fd5b506040518060400160405280600781526020017f4d79546f6b656e000000000000000000000000000000000000000000000000008152506040518060400160405280600381526020017f4d544b0000000000000000000000000000000000000000000000000000000000815250815f90816200008d91906200030c565b5080600190816200009f91906200030c565b505050620003f0565b5f81519050919050565b7f4e487b71000000000000000000000000000000000000000000000000000000005f52604160045260245ffd5b7f4e487b71000000000000000000000000000000000000000000000000000000005f52602260045260245ffd5b5f60028204905060018216806200012457607f821691505b6020821081036200013a5762000139620000df565b5b50919050565b5f819050815f5260205f209050919050565b5f6020601f8301049050919050565b5f82821b905092915050565b5f600883026200019e7fffffffffffffffffffffffffffffffffffffffffffffffffffffffffffffffff8262000161565b620001aa868362000161565b95508019841693508086168417925050509392505050565b5f819050919050565b5f819050919050565b5f620001f4620001ee620001e884620001c2565b620001cb565b620001c2565b9050919050565b5f819050919050565b6200020f83620001d4565b620002276200021e82620001fb565b8484546200016d565b825550505050565b5f90565b6200023d6200022f565b6200024a81848462000204565b505050565b5b818110156200027157620002655f8262000233565b60018101905062000250565b5050565b601f821115620002c0576200028a8162000140565b620002958462000152565b81016020851015620002a5578190505b620002bd620002b48562000152565b8301826200024f565b50505b505050565b5f82821c905092915050565b5f620002e25f1984600802620002c5565b1980831691505092915050565b5f620002fc8383620002d1565b9150826002028217905092915050565b6200031782620000a8565b67ffffffffffffffff811115620003335762000332620000b2565b5b6200033f82546200010c565b6200034c82828562000275565b5f60209050601f83116001811462000382575f84156200036d578287015190505b620003798582620002ef565b865550620003e8565b601f198416620003928662000140565b5f5b82811015620003bb5784890151825560018201915060208501945060208101905062000394565b86831015620003db5784890151620003d7601f891682620002d1565b8355505b6001600288020188555050505b505050505050565b615f8880620003fe5f395ff3fe608060405260043610610218575f3560e01c80634f73d79d1161012257806395d89b41116100aa578063c87b56dd1161006e578063c87b56dd14610833578063d053b4511461086f578063e2c07c7b146108ab578063e985e9c5146108c7578063fc5a4efe1461090357610218565b806395d89b4114610755578063a22cb4651461077f578063b88d4fde146107a7578063bce87156146107cf578063c2852f381461080b57610218565b806370a08231116100f157806370a082311461065157806389b83d3e1461068d57806390d16ce4146106b557806393a43c19146106f15780639537e8d11461072d57610218565b80634f73d79d1461058d57806353765744146105a95780636352211e146105e55780636d0136181461062157610218565b806323e0f237116101a557806331432e451161017457806331432e451461049e5780633330a55f146104da578063409283d01461052157806342842e0e1461053d5780634ec3e2aa1461056557610218565b806323e0f237146103d657806328047450146104125780632907eb161461043a578063294a79311461046257610218565b8063081812fc116101ec578063081812fc146102e6578063095ea7b31461032257806323133e4c1461034a5780632355e2171461038657806323b872dd146103ae57610218565b8062923f9e1461021c57806301ffc9a714610258578063045b6a4e1461029457806306fdde03146102bc575b5f80fd5b348015610227575f80fd5b50610242600480360381019061023d919061471f565b610944565b60405161024f9190614764565b60405180910390f35b348015610263575f80fd5b5061027e600480360381019061027991906147d2565b6109cf565b60405161028b9190614764565b60405180910390f35b34801561029f575f80fd5b506102ba60048036038101906102b59190614857565b610ab0565b005b3480156102c7575f80fd5b506102d0610bdf565b6040516102dd919061491f565b60405180910390f35b3480156102f1575f80fd5b5061030c6004803603810190610307919061471f565b610c6e565b604051610319919061494e565b60405180910390f35b34801561032d575f80fd5b5061034860048036038101906103439190614967565b610c89565b005b348015610355575f80fd5b50610370600480360381019061036b91906149a5565b610c9f565b60405161037d9190614a87565b60405180910390f35b348015610391575f80fd5b506103ac60048036038101906103a79190614857565b610ec3565b005b3480156103b9575f80fd5b506103d460048036038101906103cf9190614aa7565b611059565b005b3480156103e1575f80fd5b506103fc60048036038101906103f7919061471f565b611158565b604051610409919061494e565b60405180910390f35b34801561041d575f80fd5b506104386004803603810190610433919061471f565b611169565b005b348015610445575f80fd5b50610460600480360381019061045b919061471f565b611329565b005b34801561046d575f80fd5b5061048860048036038101906104839190614857565b6115ed565b6040516104959190614764565b60405180910390f35b3480156104a9575f80fd5b506104c460048036038101906104bf9190614857565b611617565b6040516104d19190614764565b60405180910390f35b3480156104e5575f80fd5b5061050060048036038101906104fb919061471f565b611679565b6040516105189c9b9a99989796959493929190614b06565b60405180910390f35b61053b6004803603810190610536919061471f565b611834565b005b348015610548575f80fd5b50610563600480360381019061055e9190614aa7565b611b5a565b005b348015610570575f80fd5b5061058b6004803603810190610586919061471f565b611b79565b005b6105a760048036038101906105a29190614d22565b611dc8565b005b3480156105b4575f80fd5b506105cf60048036038101906105ca919061471f565b611f64565b6040516105dc9190614e9a565b60405180910390f35b3480156105f0575f80fd5b5061060b6004803603810190610606919061471f565b612000565b604051610618919061494e565b60405180910390f35b61063b60048036038101906106369190614eba565b612011565b6040516106489190614f69565b60405180910390f35b34801561065c575f80fd5b50610677600480360381019061067291906149a5565b6123f9565b6040516106849190614f69565b60405180910390f35b348015610698575f80fd5b506106b360048036038101906106ae919061471f565b6124af565b005b3480156106c0575f80fd5b506106db60048036038101906106d691906149a5565b6126f1565b6040516106e89190614a87565b60405180910390f35b3480156106fc575f80fd5b506107176004803603810190610712919061471f565b612784565b6040516107249190614764565b60405180910390f35b348015610738575f80fd5b50610753600480360381019061074e919061471f565b6127ad565b005b348015610760575f80fd5b50610769612bd1565b604051610776919061491f565b60405180910390f35b34801561078a575f80fd5b506107a560048036038101906107a09190614f82565b612c61565b005b3480156107b2575f80fd5b506107cd60048036038101906107c8919061505e565b612c77565b005b3480156107da575f80fd5b506107f560048036038101906107f0919061471f565b612c94565b6040516108029190614764565b60405180910390f35b348015610816575f80fd5b50610831600480360381019061082c919061471f565b612d37565b005b34801561083e575f80fd5b506108596004803603810190610854919061471f565b612f43565b604051610866919061491f565b60405180910390f35b34801561087a575f80fd5b50610895600480360381019061089091906149a5565b612fa9565b6040516108a29190614a87565b60405180910390f35b6108c560048036038101906108c0919061471f565b61303c565b005b3480156108d2575f80fd5b506108ed60048036038101906108e891906150de565b613408565b6040516108fa9190614764565b60405180910390f35b34801561090e575f80fd5b506109296004803603810190610924919061471f565b613496565b60405161093b9695949392919061511c565b60405180910390f35b5f3073ffffffffffffffffffffffffffffffffffffffff16636352211e836040518263ffffffff1660e01b815260040161097e9190614f69565b602060405180830381865afa9250505080156109b857506040513d601f19601f820116820180604052508101906109b5919061519d565b60015b6109c4575f90506109ca565b50600190505b919050565b5f7f80ac58cd000000000000000000000000000000000000000000000000000000007bffffffffffffffffffffffffffffffffffffffffffffffffffffffff1916827bffffffffffffffffffffffffffffffffffffffffffffffffffffffff19161480610a9957507f5b5e139f000000000000000000000000000000000000000000000000000000007bffffffffffffffffffffffffffffffffffffffffffffffffffffffff1916827bffffffffffffffffffffffffffffffffffffffffffffffffffffffff1916145b80610aa95750610aa8826135f3565b5b9050919050565b5f5b60085f8481526020019081526020015f2080549050811015610b6d578173ffffffffffffffffffffffffffffffffffffffff1660085f8581526020019081526020015f208281548110610b0857610b076151c8565b5b905f5260205f20015f9054906101000a900473ffffffffffffffffffffffffffffffffffffffff1673ffffffffffffffffffffffffffffffffffffffff1603610b5a57610b55838261365c565b610b6d565b8080610b6590615222565b915050610ab2565b505f60075f8481526020019081526020015f205f8373ffffffffffffffffffffffffffffffffffffffff1673ffffffffffffffffffffffffffffffffffffffff1681526020019081526020015f205f6101000a81548160ff021916908315150217905550610bdb8282613786565b5050565b60605f8054610bed90615296565b80601f0160208091040260200160405190810160405280929190818152602001828054610c1990615296565b8015610c645780601f10610c3b57610100808354040283529160200191610c64565b820191905f5260205f20905b815481529060010190602001808311610c4757829003601f168201915b5050505050905090565b5f610c78826139bc565b50610c8282613a42565b9050919050565b610c9b8282610c96613a7b565b613a82565b5050565b60605f600c5f8473ffffffffffffffffffffffffffffffffffffffff1673ffffffffffffffffffffffffffffffffffffffff1681526020019081526020015f208054905090505f8167ffffffffffffffff811115610d0057610cff614bd4565b5b604051908082528060200260200182016040528015610d2e5781602001602082028036833780820191505090505b5090505f805b83811015610e12575f600c5f8873ffffffffffffffffffffffffffffffffffffffff1673ffffffffffffffffffffffffffffffffffffffff1681526020019081526020015f208281548110610d8c57610d8b6151c8565b5b905f5260205f200154905060095f8281526020019081526020015f206005015f9054906101000a900460ff16158015610dca5750610dc981610944565b5b15610dfe5780848481518110610de357610de26151c8565b5b6020026020010181815250508280610dfa90615222565b9350505b508080610e0a90615222565b915050610d34565b505f8167ffffffffffffffff811115610e2e57610e2d614bd4565b5b604051908082528060200260200182016040528015610e5c5781602001602082028036833780820191505090505b5090505f5b82811015610eb657838181518110610e7c57610e7b6151c8565b5b6020026020010151828281518110610e9757610e966151c8565b5b6020026020010181815250508080610eae90615222565b915050610e61565b5080945050505050919050565b60075f8381526020019081526020015f205f8273ffffffffffffffffffffffffffffffffffffffff1673ffffffffffffffffffffffffffffffffffffffff1681526020019081526020015f205f9054906101000a900460ff1661105557600160075f8481526020019081526020015f205f8373ffffffffffffffffffffffffffffffffffffffff1673ffffffffffffffffffffffffffffffffffffffff1681526020019081526020015f205f6101000a81548160ff02191690831515021790555060085f8381526020019081526020015f2081908060018154018082558091505060019003905f5260205f20015f9091909190916101000a81548173ffffffffffffffffffffffffffffffffffffffff021916908373ffffffffffffffffffffffffffffffffffffffff160217905550600a5f8273ffffffffffffffffffffffffffffffffffffffff1673ffffffffffffffffffffffffffffffffffffffff1681526020019081526020015f2082908060018154018082558091505060019003905f5260205f20015f90919091909150555b5050565b5f73ffffffffffffffffffffffffffffffffffffffff168273ffffffffffffffffffffffffffffffffffffffff16036110c9575f6040517f64a0ae920000000000000000000000000000000000000000000000000000000081526004016110c0919061494e565b60405180910390fd5b5f6110dc83836110d7613a7b565b613a94565b90508373ffffffffffffffffffffffffffffffffffffffff168173ffffffffffffffffffffffffffffffffffffffff1614611152578382826040517f64283d7b000000000000000000000000000000000000000000000000000000008152600401611149939291906152c6565b60405180910390fd5b50505050565b5f61116282612000565b9050919050565b3073ffffffffffffffffffffffffffffffffffffffff16636352211e826040518263ffffffff1660e01b81526004016111a29190614f69565b602060405180830381865afa9250505080156111dc57506040513d601f19601f820116820180604052508101906111d9919061519d565b60015b61121b576040517f08c379a000000000000000000000000000000000000000000000000000000000815260040161121290615345565b60405180910390fd5b5060095f8281526020019081526020015f206005015f9054906101000a900460ff161561127d576040517f08c379a0000000000000000000000000000000000000000000000000000000008152600401611274906153ad565b60405180910390fd5b5f61128782612000565b90505f60095f8481526020019081526020015f205f015490508173ffffffffffffffffffffffffffffffffffffffff166108fc8290811502906040515f60405180830381858888f193505050501580156112e3573d5f803e3d5ffd5b506112ee8383613786565b6112f783613c9f565b827f2d5f5ed000d42aa6f6fc13400f7d7161cd1bea793fec354b11e3451f9f2b07c360405160405180910390a2505050565b3073ffffffffffffffffffffffffffffffffffffffff16636352211e826040518263ffffffff1660e01b81526004016113629190614f69565b602060405180830381865afa92505050801561139c57506040513d601f19601f82011682018060405250810190611399919061519d565b60015b6113db576040517f08c379a00000000000000000000000000000000000000000000000000000000081526004016113d290615345565b60405180910390fd5b506001151560075f8381526020019081526020015f205f3373ffffffffffffffffffffffffffffffffffffffff1673ffffffffffffffffffffffffffffffffffffffff1681526020019081526020015f205f9054906101000a900460ff1615151461147b576040517f08c379a00000000000000000000000000000000000000000000000000000000081526004016114729061543b565b60405180910390fd5b60095f8281526020019081526020015f206005015f9054906101000a900460ff166114db576040517f08c379a00000000000000000000000000000000000000000000000000000000081526004016114d2906154a3565b60405180910390fd5b5f151560095f8381526020019081526020015f2060050160159054906101000a900460ff16151514611542576040517f08c379a00000000000000000000000000000000000000000000000000000000081526004016115399061550b565b60405180910390fd5b5f151561154e82612c94565b151514611590576040517f08c379a000000000000000000000000000000000000000000000000000000000815260040161158790615573565b60405180910390fd5b600160095f8381526020019081526020015f2060050160156101000a81548160ff021916908315150217905550807fc54419e57952d1437d40dd5b59e2a646b3b90caf014c939e27c87ea597a3ace560405160405180910390a250565b6007602052815f5260405f20602052805f5260405f205f915091509054906101000a900460ff1681565b5f60075f8481526020019081526020015f205f8373ffffffffffffffffffffffffffffffffffffffff1673ffffffffffffffffffffffffffffffffffffffff1681526020019081526020015f205f9054906101000a900460ff16905092915050565b6009602052805f5260405f205f91509050805f0154908060010154908060020154908060030180546116aa90615296565b80601f01602080910402602001604051908101604052809291908181526020018280546116d690615296565b80156117215780601f106116f857610100808354040283529160200191611721565b820191905f5260205f20905b81548152906001019060200180831161170457829003601f168201915b50505050509080600401805461173690615296565b80601f016020809104026020016040519081016040528092919081815260200182805461176290615296565b80156117ad5780601f10611784576101008083540402835291602001916117ad565b820191905f5260205f20905b81548152906001019060200180831161179057829003601f168201915b505050505090806005015f9054906101000a900460ff16908060050160019054906101000a900473ffffffffffffffffffffffffffffffffffffffff16908060050160159054906101000a900460ff16908060050160169054906101000a900460ff16908060050160179054906101000a900460ff1690806006015490806007015490508c565b5f600d5f8381526020019081526020015f206040518060c00160405290815f8201805461186090615296565b80601f016020809104026020016040519081016040528092919081815260200182805461188c90615296565b80156118d75780601f106118ae576101008083540402835291602001916118d7565b820191905f5260205f20905b8154815290600101906020018083116118ba57829003601f168201915b50505050508152602001600182015481526020016002820154815260200160038201805461190490615296565b80601f016020809104026020016040519081016040528092919081815260200182805461193090615296565b801561197b5780601f106119525761010080835404028352916020019161197b565b820191905f5260205f20905b81548152906001019060200180831161195e57829003601f168201915b50505050508152602001600482015f9054906101000a900460ff161515151581526020016004820160019054906101000a900460ff161515151581525050905060095f8381526020019081526020015f205f015481602001511015611a53575f816020015160095f8581526020019081526020015f205f01546119fe9190615591565b90505f611a0a84612000565b90508073ffffffffffffffffffffffffffffffffffffffff166108fc8390811502906040515f60405180830381858888f19350505050158015611a4f573d5f803e3d5ffd5b5050505b805f015160095f8481526020019081526020015f206003019081611a779190615761565b50806020015160095f8481526020019081526020015f205f0181905550806040015160095f8481526020019081526020015f2060020181905550806060015160095f8481526020019081526020015f206004019081611ad69190615761565b5060095f8381526020019081526020015f2060050160179054906101000a900460ff1615158160800151151514611b2a57806080015115611b1f57611b1a82612d37565b611b29565b611b28826124af565b5b5b5f600d5f8481526020019081526020015f2060040160016101000a81548160ff0219169083151502179055505050565b611b7483838360405180602001604052805f815250612c77565b505050565b5f600d5f8381526020019081526020015f206040518060c00160405290815f82018054611ba590615296565b80601f0160208091040260200160405190810160405280929190818152602001828054611bd190615296565b8015611c1c5780601f10611bf357610100808354040283529160200191611c1c565b820191905f5260205f20905b815481529060010190602001808311611bff57829003601f168201915b505050505081526020016001820154815260200160028201548152602001600382018054611c4990615296565b80601f0160208091040260200160405190810160405280929190818152602001828054611c7590615296565b8015611cc05780601f10611c9757610100808354040283529160200191611cc0565b820191905f5260205f20905b815481529060010190602001808311611ca357829003601f168201915b50505050508152602001600482015f9054906101000a900460ff161515151581526020016004820160019054906101000a900460ff161515151581525050905060095f8381526020019081526020015f205f015481602001511115611d98575f60095f8481526020019081526020015f205f01548260200151611d439190615591565b90505f611d4f84612000565b90508073ffffffffffffffffffffffffffffffffffffffff166108fc8390811502906040515f60405180830381858888f19350505050158015611d94573d5f803e3d5ffd5b5050505b5f600d5f8481526020019081526020015f2060040160016101000a81548160ff0219169083151502179055505050565b5f60095f8881526020019081526020015f205f0154905080851115611e98575f8186611df49190615591565b905080341015611e39576040517f08c379a0000000000000000000000000000000000000000000000000000000008152600401611e30906158a0565b60405180910390fd5b5f8134611e469190615591565b90505f811115611e95573373ffffffffffffffffffffffffffffffffffffffff166108fc8290811502906040515f60405180830381858888f19350505050158015611e93573d5f803e3d5ffd5b505b50505b6040518060c00160405280878152602001868152602001858152602001848152602001831515815260200160011515815250600d5f8981526020019081526020015f205f820151815f019081611eee9190615761565b5060208201518160010155604082015181600201556060820151816003019081611f189190615761565b506080820151816004015f6101000a81548160ff02191690831515021790555060a08201518160040160016101000a81548160ff02191690831515021790555090505050505050505050565b606060085f8381526020019081526020015f20805480602002602001604051908101604052809291908181526020018280548015611ff457602002820191905f5260205f20905b815f9054906101000a900473ffffffffffffffffffffffffffffffffffffffff1673ffffffffffffffffffffffffffffffffffffffff1681526020019060010190808311611fab575b50505050509050919050565b5f61200a826139bc565b9050919050565b5f84341015612055576040517f08c379a000000000000000000000000000000000000000000000000000000000815260040161204c9061592e565b60405180910390fd5b60065f81548092919061206790615222565b919050555061207833600654613d21565b5f85346120859190615591565b90505f8111156120d4573373ffffffffffffffffffffffffffffffffffffffff166108fc8290811502906040515f60405180830381858888f193505050501580156120d2573d5f803e3d5ffd5b505b5f6040518061018001604052808881526020014281526020018781526020018581526020018681526020015f151581526020018973ffffffffffffffffffffffffffffffffffffffff1681526020015f151581526020015f151581526020015f151581526020015f81526020015f81525090508060095f60065481526020019081526020015f205f820151815f01556020820151816001015560408201518160020155606082015181600301908161218c9190615761565b5060808201518160040190816121a29190615761565b5060a0820151816005015f6101000a81548160ff02191690831515021790555060c08201518160050160016101000a81548173ffffffffffffffffffffffffffffffffffffffff021916908373ffffffffffffffffffffffffffffffffffffffff16021790555060e08201518160050160156101000a81548160ff0219169083151502179055506101008201518160050160166101000a81548160ff0219169083151502179055506101208201518160050160176101000a81548160ff02191690831515021790555061014082015181600601556101608201518160070155905050600160075f60065481526020019081526020015f205f3373ffffffffffffffffffffffffffffffffffffffff1673ffffffffffffffffffffffffffffffffffffffff1681526020019081526020015f205f6101000a81548160ff021916908315150217905550600a5f3373ffffffffffffffffffffffffffffffffffffffff1673ffffffffffffffffffffffffffffffffffffffff1681526020019081526020015f20600654908060018154018082558091505060019003905f5260205f20015f9091909190915055600c5f8973ffffffffffffffffffffffffffffffffffffffff1673ffffffffffffffffffffffffffffffffffffffff1681526020019081526020015f20600654908060018154018082558091505060019003905f5260205f20015f90919091909150557ff00d28232b285f24f2e38415deb2ceb31069e70d4505838b3911b4f02058502e6006546040516123e19190614f69565b60405180910390a16006549250505095945050505050565b5f8073ffffffffffffffffffffffffffffffffffffffff168273ffffffffffffffffffffffffffffffffffffffff160361246a575f6040517f89c62b64000000000000000000000000000000000000000000000000000000008152600401612461919061494e565b60405180910390fd5b60035f8373ffffffffffffffffffffffffffffffffffffffff1673ffffffffffffffffffffffffffffffffffffffff1681526020019081526020015f20549050919050565b3073ffffffffffffffffffffffffffffffffffffffff16636352211e826040518263ffffffff1660e01b81526004016124e89190614f69565b602060405180830381865afa92505050801561252257506040513d601f19601f8201168201806040525081019061251f919061519d565b60015b612561576040517f08c379a000000000000000000000000000000000000000000000000000000000815260040161255890615345565b60405180910390fd5b5060095f8281526020019081526020015f206005015f9054906101000a900460ff166125c2576040517f08c379a00000000000000000000000000000000000000000000000000000000081526004016125b9906154a3565b60405180910390fd5b60095f8281526020019081526020015f2060050160179054906101000a900460ff16612623576040517f08c379a000000000000000000000000000000000000000000000000000000000815260040161261a90615996565b60405180910390fd5b5f151561262f82612c94565b151514612671576040517f08c379a000000000000000000000000000000000000000000000000000000000815260040161266890615573565b60405180910390fd5b60095f8281526020019081526020015f2060060154426126919190615591565b60095f8381526020019081526020015f20600701819055505f60095f8381526020019081526020015f20600601819055505f60095f8381526020019081526020015f2060050160176101000a81548160ff02191690831515021790555050565b6060600a5f8373ffffffffffffffffffffffffffffffffffffffff1673ffffffffffffffffffffffffffffffffffffffff1681526020019081526020015f2080548060200260200160405190810160405280929190818152602001828054801561277857602002820191905f5260205f20905b815481526020019060010190808311612764575b50505050509050919050565b5f60095f8381526020019081526020015f206005015f9054906101000a900460ff169050919050565b3073ffffffffffffffffffffffffffffffffffffffff16636352211e826040518263ffffffff1660e01b81526004016127e69190614f69565b602060405180830381865afa92505050801561282057506040513d601f19601f8201168201806040525081019061281d919061519d565b60015b61285f576040517f08c379a000000000000000000000000000000000000000000000000000000000815260040161285690615345565b60405180910390fd5b505f151560075f8381526020019081526020015f205f3373ffffffffffffffffffffffffffffffffffffffff1673ffffffffffffffffffffffffffffffffffffffff1681526020019081526020015f205f9054906101000a900460ff161515146128fe576040517f08c379a00000000000000000000000000000000000000000000000000000000081526004016128f590615a24565b60405180910390fd5b60095f8281526020019081526020015f2060050160019054906101000a900473ffffffffffffffffffffffffffffffffffffffff1673ffffffffffffffffffffffffffffffffffffffff163373ffffffffffffffffffffffffffffffffffffffff16146129a0576040517f08c379a000000000000000000000000000000000000000000000000000000000815260040161299790615ab2565b60405180910390fd5b60095f8281526020019081526020015f206005015f9054906101000a900460ff1615612a01576040517f08c379a00000000000000000000000000000000000000000000000000000000081526004016129f8906153ad565b60405180910390fd5b5f151560095f8381526020019081526020015f2060050160159054906101000a900460ff16151514612a68576040517f08c379a0000000000000000000000000000000000000000000000000000000008152600401612a5f90615b1a565b60405180910390fd5b5f1515612a7482612c94565b151514612ab6576040517f08c379a0000000000000000000000000000000000000000000000000000000008152600401612aad90615573565b60405180910390fd5b600160095f8381526020019081526020015f206005015f6101000a81548160ff0219169083151502179055503360095f8381526020019081526020015f2060050160016101000a81548173ffffffffffffffffffffffffffffffffffffffff021916908373ffffffffffffffffffffffffffffffffffffffff160217905550600b5f3373ffffffffffffffffffffffffffffffffffffffff1673ffffffffffffffffffffffffffffffffffffffff1681526020019081526020015f2081908060018154018082558091505060019003905f5260205f20015f9091909190915055807fcd3b1fcca80f9caae633c3e13546995d3810e561957af92839f070c46571942c33604051612bc6919061494e565b60405180910390a250565b606060018054612be090615296565b80601f0160208091040260200160405190810160405280929190818152602001828054612c0c90615296565b8015612c575780601f10612c2e57610100808354040283529160200191612c57565b820191905f5260205f20905b815481529060010190602001808311612c3a57829003601f168201915b5050505050905090565b612c73612c6c613a7b565b8383613e14565b5050565b612c82848484611059565b612c8e84848484613f7d565b50505050565b5f6001151560095f8481526020019081526020015f2060050160159054906101000a900460ff16151503612ccb5760019050612d32565b60095f8381526020019081526020015f206007015460095f8481526020019081526020015f206002015460095f8581526020019081526020015f2060010154612d149190615b38565b612d1e9190615b38565b421115612d2e5760019050612d32565b5f90505b919050565b3073ffffffffffffffffffffffffffffffffffffffff16636352211e826040518263ffffffff1660e01b8152600401612d709190614f69565b602060405180830381865afa925050508015612daa57506040513d601f19601f82011682018060405250810190612da7919061519d565b60015b612de9576040517f08c379a0000000000000000000000000000000000000000000000000000000008152600401612de090615345565b60405180910390fd5b5060095f8281526020019081526020015f206005015f9054906101000a900460ff16612e4a576040517f08c379a0000000000000000000000000000000000000000000000000000000008152600401612e41906154a3565b60405180910390fd5b5f1515612e5682612c94565b151514612e98576040517f08c379a0000000000000000000000000000000000000000000000000000000008152600401612e8f90615573565b60405180910390fd5b60095f8281526020019081526020015f2060050160179054906101000a900460ff1615612efa576040517f08c379a0000000000000000000000000000000000000000000000000000000008152600401612ef190615bb5565b60405180910390fd5b600160095f8381526020019081526020015f2060050160176101000a81548160ff0219169083151502179055504260095f8381526020019081526020015f206006018190555050565b6060612f4e826139bc565b505f612f5861412f565b90505f815111612f765760405180602001604052805f815250612fa1565b80612f8084614145565b604051602001612f91929190615c0d565b6040516020818303038152906040525b915050919050565b6060600b5f8373ffffffffffffffffffffffffffffffffffffffff1673ffffffffffffffffffffffffffffffffffffffff1681526020019081526020015f2080548060200260200160405190810160405280929190818152602001828054801561303057602002820191905f5260205f20905b81548152602001906001019080831161301c575b50505050509050919050565b3073ffffffffffffffffffffffffffffffffffffffff16636352211e826040518263ffffffff1660e01b81526004016130759190614f69565b602060405180830381865afa9250505080156130af57506040513d601f19601f820116820180604052508101906130ac919061519d565b60015b6130ee576040517f08c379a00000000000000000000000000000000000000000000000000000000081526004016130e590615345565b60405180910390fd5b5060095f8281526020019081526020015f206005015f9054906101000a900460ff1661314f576040517f08c379a0000000000000000000000000000000000000000000000000000000008152600401613146906154a3565b60405180910390fd5b5f151560095f8381526020019081526020015f2060050160169054906101000a900460ff161515146131b6576040517f08c379a00000000000000000000000000000000000000000000000000000000081526004016131ad90615c7a565b60405180910390fd5b6001151560075f8381526020019081526020015f205f3373ffffffffffffffffffffffffffffffffffffffff1673ffffffffffffffffffffffffffffffffffffffff1681526020019081526020015f205f9054906101000a900460ff16151514613255576040517f08c379a000000000000000000000000000000000000000000000000000000000815260040161324c90615d08565b60405180910390fd5b6001151561326282612c94565b1515146132a4576040517f08c379a000000000000000000000000000000000000000000000000000000000815260040161329b90615d70565b60405180910390fd5b5f151560095f8381526020019081526020015f2060050160179054906101000a900460ff1615151461330b576040517f08c379a000000000000000000000000000000000000000000000000000000000815260040161330290615dd8565b60405180910390fd5b5f60095f8381526020019081526020015f2060050160019054906101000a900473ffffffffffffffffffffffffffffffffffffffff1690505f60095f8481526020019081526020015f205f015490508173ffffffffffffffffffffffffffffffffffffffff166108fc8290811502906040515f60405180830381858888f1935050505015801561339d573d5f803e3d5ffd5b50600160095f8581526020019081526020015f2060050160166101000a81548160ff021916908315150217905550827f2b52860c5e15aa76ac91d132433549dfe5214c66e36bdb998622ab221c7477c0826040516133fb9190614f69565b60405180910390a2505050565b5f60055f8473ffffffffffffffffffffffffffffffffffffffff1673ffffffffffffffffffffffffffffffffffffffff1681526020019081526020015f205f8373ffffffffffffffffffffffffffffffffffffffff1673ffffffffffffffffffffffffffffffffffffffff1681526020019081526020015f205f9054906101000a900460ff16905092915050565b600d602052805f5260405f205f91509050805f0180546134b590615296565b80601f01602080910402602001604051908101604052809291908181526020018280546134e190615296565b801561352c5780601f106135035761010080835404028352916020019161352c565b820191905f5260205f20905b81548152906001019060200180831161350f57829003601f168201915b50505050509080600101549080600201549080600301805461354d90615296565b80601f016020809104026020016040519081016040528092919081815260200182805461357990615296565b80156135c45780601f1061359b576101008083540402835291602001916135c4565b820191905f5260205f20905b8154815290600101906020018083116135a757829003601f168201915b505050505090806004015f9054906101000a900460ff16908060040160019054906101000a900460ff16905086565b5f7f01ffc9a7000000000000000000000000000000000000000000000000000000007bffffffffffffffffffffffffffffffffffffffffffffffffffffffff1916827bffffffffffffffffffffffffffffffffffffffffffffffffffffffff1916149050919050565b60085f8381526020019081526020015f20600160085f8581526020019081526020015f208054905061368e9190615591565b8154811061369f5761369e6151c8565b5b905f5260205f20015f9054906101000a900473ffffffffffffffffffffffffffffffffffffffff1660085f8481526020019081526020015f2082815481106136ea576136e96151c8565b5b905f5260205f20015f6101000a81548173ffffffffffffffffffffffffffffffffffffffff021916908373ffffffffffffffffffffffffffffffffffffffff16021790555060085f8381526020019081526020015f208054806137505761374f615df6565b5b600190038181905f5260205f20015f6101000a81549073ffffffffffffffffffffffffffffffffffffffff021916905590555050565b5f806001600a5f8573ffffffffffffffffffffffffffffffffffffffff1673ffffffffffffffffffffffffffffffffffffffff1681526020019081526020015f20805490506137d59190615591565b90505f5b600a5f8573ffffffffffffffffffffffffffffffffffffffff1673ffffffffffffffffffffffffffffffffffffffff1681526020019081526020015f208054905081101561389a5784600a5f8673ffffffffffffffffffffffffffffffffffffffff1673ffffffffffffffffffffffffffffffffffffffff1681526020019081526020015f208281548110613871576138706151c8565b5b905f5260205f200154036138875780925061389a565b808061389290615222565b9150506137d9565b5080821461395657600a5f8473ffffffffffffffffffffffffffffffffffffffff1673ffffffffffffffffffffffffffffffffffffffff1681526020019081526020015f2081815481106138f1576138f06151c8565b5b905f5260205f200154600a5f8573ffffffffffffffffffffffffffffffffffffffff1673ffffffffffffffffffffffffffffffffffffffff1681526020019081526020015f208381548110613949576139486151c8565b5b905f5260205f2001819055505b600a5f8473ffffffffffffffffffffffffffffffffffffffff1673ffffffffffffffffffffffffffffffffffffffff1681526020019081526020015f208054806139a3576139a2615df6565b5b600190038181905f5260205f20015f9055905550505050565b5f806139c78361420f565b90505f73ffffffffffffffffffffffffffffffffffffffff168173ffffffffffffffffffffffffffffffffffffffff1603613a3957826040517f7e273289000000000000000000000000000000000000000000000000000000008152600401613a309190614f69565b60405180910390fd5b80915050919050565b5f60045f8381526020019081526020015f205f9054906101000a900473ffffffffffffffffffffffffffffffffffffffff169050919050565b5f33905090565b613a8f8383836001614248565b505050565b5f80613a9f8461420f565b90505f73ffffffffffffffffffffffffffffffffffffffff168373ffffffffffffffffffffffffffffffffffffffff1614613ae057613adf818486614407565b5b5f73ffffffffffffffffffffffffffffffffffffffff168173ffffffffffffffffffffffffffffffffffffffff1614613b6b57613b1f5f855f80614248565b600160035f8373ffffffffffffffffffffffffffffffffffffffff1673ffffffffffffffffffffffffffffffffffffffff1681526020019081526020015f205f82825403925050819055505b5f73ffffffffffffffffffffffffffffffffffffffff168573ffffffffffffffffffffffffffffffffffffffff1614613bea57600160035f8773ffffffffffffffffffffffffffffffffffffffff1673ffffffffffffffffffffffffffffffffffffffff1681526020019081526020015f205f82825401925050819055505b8460025f8681526020019081526020015f205f6101000a81548173ffffffffffffffffffffffffffffffffffffffff021916908373ffffffffffffffffffffffffffffffffffffffff160217905550838573ffffffffffffffffffffffffffffffffffffffff168273ffffffffffffffffffffffffffffffffffffffff167fddf252ad1be2c89b69c2b068fc378daa952ba7f163c4a11628f55a4df523b3ef60405160405180910390a4809150509392505050565b5f613cab5f835f613a94565b90505f73ffffffffffffffffffffffffffffffffffffffff168173ffffffffffffffffffffffffffffffffffffffff1603613d1d57816040517f7e273289000000000000000000000000000000000000000000000000000000008152600401613d149190614f69565b60405180910390fd5b5050565b5f73ffffffffffffffffffffffffffffffffffffffff168273ffffffffffffffffffffffffffffffffffffffff1603613d91575f6040517f64a0ae92000000000000000000000000000000000000000000000000000000008152600401613d88919061494e565b60405180910390fd5b5f613d9d83835f613a94565b90505f73ffffffffffffffffffffffffffffffffffffffff168173ffffffffffffffffffffffffffffffffffffffff1614613e0f575f6040517f73c6ac6e000000000000000000000000000000000000000000000000000000008152600401613e06919061494e565b60405180910390fd5b505050565b5f73ffffffffffffffffffffffffffffffffffffffff168273ffffffffffffffffffffffffffffffffffffffff1603613e8457816040517f5b08ba18000000000000000000000000000000000000000000000000000000008152600401613e7b919061494e565b60405180910390fd5b8060055f8573ffffffffffffffffffffffffffffffffffffffff1673ffffffffffffffffffffffffffffffffffffffff1681526020019081526020015f205f8473ffffffffffffffffffffffffffffffffffffffff1673ffffffffffffffffffffffffffffffffffffffff1681526020019081526020015f205f6101000a81548160ff0219169083151502179055508173ffffffffffffffffffffffffffffffffffffffff168373ffffffffffffffffffffffffffffffffffffffff167f17307eab39ab6107e8899845ad3d59bd9653f200f220920489ca2b5937696c3183604051613f709190614764565b60405180910390a3505050565b5f8373ffffffffffffffffffffffffffffffffffffffff163b1115614129578273ffffffffffffffffffffffffffffffffffffffff1663150b7a02613fc0613a7b565b8685856040518563ffffffff1660e01b8152600401613fe29493929190615e75565b6020604051808303815f875af192505050801561401d57506040513d601f19601f8201168201806040525081019061401a9190615ed3565b60015b61409e573d805f811461404b576040519150601f19603f3d011682016040523d82523d5f602084013e614050565b606091505b505f81510361409657836040517f64a0ae9200000000000000000000000000000000000000000000000000000000815260040161408d919061494e565b60405180910390fd5b805181602001fd5b63150b7a0260e01b7bffffffffffffffffffffffffffffffffffffffffffffffffffffffff1916817bffffffffffffffffffffffffffffffffffffffffffffffffffffffff19161461412757836040517f64a0ae9200000000000000000000000000000000000000000000000000000000815260040161411e919061494e565b60405180910390fd5b505b50505050565b606060405180602001604052805f815250905090565b60605f6001614153846144ca565b0190505f8167ffffffffffffffff81111561417157614170614bd4565b5b6040519080825280601f01601f1916602001820160405280156141a35781602001600182028036833780820191505090505b5090505f82602001820190505b600115614204578080600190039150507f3031323334353637383961626364656600000000000000000000000000000000600a86061a8153600a85816141f9576141f8615efe565b5b0494505f85036141b0575b819350505050919050565b5f60025f8381526020019081526020015f205f9054906101000a900473ffffffffffffffffffffffffffffffffffffffff169050919050565b808061428057505f73ffffffffffffffffffffffffffffffffffffffff168273ffffffffffffffffffffffffffffffffffffffff1614155b156143b2575f61428f846139bc565b90505f73ffffffffffffffffffffffffffffffffffffffff168373ffffffffffffffffffffffffffffffffffffffff16141580156142f957508273ffffffffffffffffffffffffffffffffffffffff168173ffffffffffffffffffffffffffffffffffffffff1614155b801561430c575061430a8184613408565b155b1561434e57826040517fa9fbf51f000000000000000000000000000000000000000000000000000000008152600401614345919061494e565b60405180910390fd5b81156143b057838573ffffffffffffffffffffffffffffffffffffffff168273ffffffffffffffffffffffffffffffffffffffff167f8c5be1e5ebec7d5bd14f71427d1e84f3dd0314c0f7b2291e5b200ac8c7c3b92560405160405180910390a45b505b8360045f8581526020019081526020015f205f6101000a81548173ffffffffffffffffffffffffffffffffffffffff021916908373ffffffffffffffffffffffffffffffffffffffff16021790555050505050565b61441283838361461b565b6144c5575f73ffffffffffffffffffffffffffffffffffffffff168373ffffffffffffffffffffffffffffffffffffffff160361448657806040517f7e27328900000000000000000000000000000000000000000000000000000000815260040161447d9190614f69565b60405180910390fd5b81816040517f177e802f0000000000000000000000000000000000000000000000000000000081526004016144bc929190615f2b565b60405180910390fd5b505050565b5f805f90507a184f03e93ff9f4daa797ed6e38ed64bf6a1f0100000000000000008310614526577a184f03e93ff9f4daa797ed6e38ed64bf6a1f010000000000000000838161451c5761451b615efe565b5b0492506040810190505b6d04ee2d6d415b85acef81000000008310614563576d04ee2d6d415b85acef8100000000838161455957614558615efe565b5b0492506020810190505b662386f26fc10000831061459257662386f26fc10000838161458857614587615efe565b5b0492506010810190505b6305f5e10083106145bb576305f5e10083816145b1576145b0615efe565b5b0492506008810190505b61271083106145e05761271083816145d6576145d5615efe565b5b0492506004810190505b6064831061460357606483816145f9576145f8615efe565b5b0492506002810190505b600a8310614612576001810190505b80915050919050565b5f8073ffffffffffffffffffffffffffffffffffffffff168373ffffffffffffffffffffffffffffffffffffffff16141580156146d257508273ffffffffffffffffffffffffffffffffffffffff168473ffffffffffffffffffffffffffffffffffffffff16148061469357506146928484613408565b5b806146d157508273ffffffffffffffffffffffffffffffffffffffff166146b983613a42565b73ffffffffffffffffffffffffffffffffffffffff16145b5b90509392505050565b5f604051905090565b5f80fd5b5f80fd5b5f819050919050565b6146fe816146ec565b8114614708575f80fd5b50565b5f81359050614719816146f5565b92915050565b5f60208284031215614734576147336146e4565b5b5f6147418482850161470b565b91505092915050565b5f8115159050919050565b61475e8161474a565b82525050565b5f6020820190506147775f830184614755565b92915050565b5f7fffffffff0000000000000000000000000000000000000000000000000000000082169050919050565b6147b18161477d565b81146147bb575f80fd5b50565b5f813590506147cc816147a8565b92915050565b5f602082840312156147e7576147e66146e4565b5b5f6147f4848285016147be565b91505092915050565b5f73ffffffffffffffffffffffffffffffffffffffff82169050919050565b5f614826826147fd565b9050919050565b6148368161481c565b8114614840575f80fd5b50565b5f813590506148518161482d565b92915050565b5f806040838503121561486d5761486c6146e4565b5b5f61487a8582860161470b565b925050602061488b85828601614843565b9150509250929050565b5f81519050919050565b5f82825260208201905092915050565b5f5b838110156148cc5780820151818401526020810190506148b1565b5f8484015250505050565b5f601f19601f8301169050919050565b5f6148f182614895565b6148fb818561489f565b935061490b8185602086016148af565b614914816148d7565b840191505092915050565b5f6020820190508181035f83015261493781846148e7565b905092915050565b6149488161481c565b82525050565b5f6020820190506149615f83018461493f565b92915050565b5f806040838503121561497d5761497c6146e4565b5b5f61498a85828601614843565b925050602061499b8582860161470b565b9150509250929050565b5f602082840312156149ba576149b96146e4565b5b5f6149c784828501614843565b91505092915050565b5f81519050919050565b5f82825260208201905092915050565b5f819050602082019050919050565b614a02816146ec565b82525050565b5f614a1383836149f9565b60208301905092915050565b5f602082019050919050565b5f614a35826149d0565b614a3f81856149da565b9350614a4a836149ea565b805f5b83811015614a7a578151614a618882614a08565b9750614a6c83614a1f565b925050600181019050614a4d565b5085935050505092915050565b5f6020820190508181035f830152614a9f8184614a2b565b905092915050565b5f805f60608486031215614abe57614abd6146e4565b5b5f614acb86828701614843565b9350506020614adc86828701614843565b9250506040614aed8682870161470b565b9150509250925092565b614b00816146ec565b82525050565b5f61018082019050614b1a5f83018f614af7565b614b27602083018e614af7565b614b34604083018d614af7565b8181036060830152614b46818c6148e7565b90508181036080830152614b5a818b6148e7565b9050614b6960a083018a614755565b614b7660c083018961493f565b614b8360e0830188614755565b614b91610100830187614755565b614b9f610120830186614755565b614bad610140830185614af7565b614bbb610160830184614af7565b9d9c50505050505050505050505050565b5f80fd5b5f80fd5b7f4e487b71000000000000000000000000000000000000000000000000000000005f52604160045260245ffd5b614c0a826148d7565b810181811067ffffffffffffffff82111715614c2957614c28614bd4565b5b80604052505050565b5f614c3b6146db565b9050614c478282614c01565b919050565b5f67ffffffffffffffff821115614c6657614c65614bd4565b5b614c6f826148d7565b9050602081019050919050565b828183375f83830152505050565b5f614c9c614c9784614c4c565b614c32565b905082815260208101848484011115614cb857614cb7614bd0565b5b614cc3848285614c7c565b509392505050565b5f82601f830112614cdf57614cde614bcc565b5b8135614cef848260208601614c8a565b91505092915050565b614d018161474a565b8114614d0b575f80fd5b50565b5f81359050614d1c81614cf8565b92915050565b5f805f805f8060c08789031215614d3c57614d3b6146e4565b5b5f614d4989828a0161470b565b965050602087013567ffffffffffffffff811115614d6a57614d696146e8565b5b614d7689828a01614ccb565b9550506040614d8789828a0161470b565b9450506060614d9889828a0161470b565b935050608087013567ffffffffffffffff811115614db957614db86146e8565b5b614dc589828a01614ccb565b92505060a0614dd689828a01614d0e565b9150509295509295509295565b5f81519050919050565b5f82825260208201905092915050565b5f819050602082019050919050565b614e158161481c565b82525050565b5f614e268383614e0c565b60208301905092915050565b5f602082019050919050565b5f614e4882614de3565b614e528185614ded565b9350614e5d83614dfd565b805f5b83811015614e8d578151614e748882614e1b565b9750614e7f83614e32565b925050600181019050614e60565b5085935050505092915050565b5f6020820190508181035f830152614eb28184614e3e565b905092915050565b5f805f805f60a08688031215614ed357614ed26146e4565b5b5f614ee088828901614843565b9550506020614ef18882890161470b565b9450506040614f028882890161470b565b935050606086013567ffffffffffffffff811115614f2357614f226146e8565b5b614f2f88828901614ccb565b925050608086013567ffffffffffffffff811115614f5057614f4f6146e8565b5b614f5c88828901614ccb565b9150509295509295909350565b5f602082019050614f7c5f830184614af7565b92915050565b5f8060408385031215614f9857614f976146e4565b5b5f614fa585828601614843565b9250506020614fb685828601614d0e565b9150509250929050565b5f67ffffffffffffffff821115614fda57614fd9614bd4565b5b614fe3826148d7565b9050602081019050919050565b5f615002614ffd84614fc0565b614c32565b90508281526020810184848401111561501e5761501d614bd0565b5b615029848285614c7c565b509392505050565b5f82601f83011261504557615044614bcc565b5b8135615055848260208601614ff0565b91505092915050565b5f805f8060808587031215615076576150756146e4565b5b5f61508387828801614843565b945050602061509487828801614843565b93505060406150a58782880161470b565b925050606085013567ffffffffffffffff8111156150c6576150c56146e8565b5b6150d287828801615031565b91505092959194509250565b5f80604083850312156150f4576150f36146e4565b5b5f61510185828601614843565b925050602061511285828601614843565b9150509250929050565b5f60c0820190508181035f83015261513481896148e7565b90506151436020830188614af7565b6151506040830187614af7565b818103606083015261516281866148e7565b90506151716080830185614755565b61517e60a0830184614755565b979650505050505050565b5f815190506151978161482d565b92915050565b5f602082840312156151b2576151b16146e4565b5b5f6151bf84828501615189565b91505092915050565b7f4e487b71000000000000000000000000000000000000000000000000000000005f52603260045260245ffd5b7f4e487b71000000000000000000000000000000000000000000000000000000005f52601160045260245ffd5b5f61522c826146ec565b91507fffffffffffffffffffffffffffffffffffffffffffffffffffffffffffffffff820361525e5761525d6151f5565b5b600182019050919050565b7f4e487b71000000000000000000000000000000000000000000000000000000005f52602260045260245ffd5b5f60028204905060018216806152ad57607f821691505b6020821081036152c0576152bf615269565b5b50919050565b5f6060820190506152d95f83018661493f565b6152e66020830185614af7565b6152f3604083018461493f565b949350505050565b7f456c20746f6b656e206e6f206578697374652e000000000000000000000000005f82015250565b5f61532f60138361489f565b915061533a826152fb565b602082019050919050565b5f6020820190508181035f83015261535c81615323565b9050919050565b7f456c20636f6e747261746f207961206861207369646f206669726d61646f00005f82015250565b5f615397601e8361489f565b91506153a282615363565b602082019050919050565b5f6020820190508181035f8301526153c48161538b565b9050919050565b7f536f6c6f20756e206d616e616765722070756564652066696e616c697a6172205f8201527f756e20636f6e747261746f000000000000000000000000000000000000000000602082015250565b5f615425602b8361489f565b9150615430826153cb565b604082019050919050565b5f6020820190508181035f83015261545281615419565b9050919050565b7f456c20636f6e747261746f206e6f206861207369646f206669726d61646f00005f82015250565b5f61548d601e8361489f565b915061549882615459565b602082019050919050565b5f6020820190508181035f8301526154ba81615481565b9050919050565b7f456c20636f6e747261746f2079612068612066696e616c697a61646f000000005f82015250565b5f6154f5601c8361489f565b9150615500826154c1565b602082019050919050565b5f6020820190508181035f830152615522816154e9565b9050919050565b7f456c20636f6e747261746f20686120657870697261646f0000000000000000005f82015250565b5f61555d60178361489f565b915061556882615529565b602082019050919050565b5f6020820190508181035f83015261558a81615551565b9050919050565b5f61559b826146ec565b91506155a6836146ec565b92508282039050818111156155be576155bd6151f5565b5b92915050565b5f819050815f5260205f209050919050565b5f6020601f8301049050919050565b5f82821b905092915050565b5f600883026156207fffffffffffffffffffffffffffffffffffffffffffffffffffffffffffffffff826155e5565b61562a86836155e5565b95508019841693508086168417925050509392505050565b5f819050919050565b5f61566561566061565b846146ec565b615642565b6146ec565b9050919050565b5f819050919050565b61567e8361564b565b61569261568a8261566c565b8484546155f1565b825550505050565b5f90565b6156a661569a565b6156b1818484615675565b505050565b5b818110156156d4576156c95f8261569e565b6001810190506156b7565b5050565b601f821115615719576156ea816155c4565b6156f3846155d6565b81016020851015615702578190505b61571661570e856155d6565b8301826156b6565b50505b505050565b5f82821c905092915050565b5f6157395f198460080261571e565b1980831691505092915050565b5f615751838361572a565b9150826002028217905092915050565b61576a82614895565b67ffffffffffffffff81111561578357615782614bd4565b5b61578d8254615296565b6157988282856156d8565b5f60209050601f8311600181146157c9575f84156157b7578287015190505b6157c18582615746565b865550615828565b601f1984166157d7866155c4565b5f5b828110156157fe578489015182556001820191506020850194506020810190506157d9565b8683101561581b5784890151615817601f89168261572a565b8355505b6001600288020188555050505b505050505050565b7f466f6e646f7320696e737566696369656e7465732070617261206375627269725f8201527f20656c20696e6372656d656e746f2064656c2073616c6172696f000000000000602082015250565b5f61588a603a8361489f565b915061589582615830565b604082019050919050565b5f6020820190508181035f8301526158b78161587e565b9050919050565b7f4465646520656e7669617220656c2073616c6172696f20636f6d6f2076616c6f5f8201527f722064656c20636f6e747261746f000000000000000000000000000000000000602082015250565b5f615918602e8361489f565b9150615923826158be565b604082019050919050565b5f6020820190508181035f8301526159458161590c565b9050919050565b7f456c20636f6e747261746f206e6f2065737461207061757361646f00000000005f82015250565b5f615980601b8361489f565b915061598b8261594c565b602082019050919050565b5f6020820190508181035f8301526159ad81615974565b9050919050565b7f4e6f20707565646573206669726d61722074752070726f70696f20636f6e74725f8201527f61746f0000000000000000000000000000000000000000000000000000000000602082015250565b5f615a0e60238361489f565b9150615a19826159b4565b604082019050919050565b5f6020820190508181035f830152615a3b81615a02565b9050919050565b7f536f6c6f20656c2074726162616a61646f72207075656465206669726d6172205f8201527f656c20636f6e747261746f000000000000000000000000000000000000000000602082015250565b5f615a9c602b8361489f565b9150615aa782615a42565b604082019050919050565b5f6020820190508181035f830152615ac981615a90565b9050919050565b7f456c20636f6e747261746f2068612066696e616c697a61646f000000000000005f82015250565b5f615b0460198361489f565b9150615b0f82615ad0565b602082019050919050565b5f6020820190508181035f830152615b3181615af8565b9050919050565b5f615b42826146ec565b9150615b4d836146ec565b9250828201905080821115615b6557615b646151f5565b5b92915050565b7f456c20636f6e747261746f2079612065737461207061757361646f00000000005f82015250565b5f615b9f601b8361489f565b9150615baa82615b6b565b602082019050919050565b5f6020820190508181035f830152615bcc81615b93565b9050919050565b5f81905092915050565b5f615be782614895565b615bf18185615bd3565b9350615c018185602086016148af565b80840191505092915050565b5f615c188285615bdd565b9150615c248284615bdd565b91508190509392505050565b7f456c2073616c6172696f207961206861207369646f206c6962657261646f00005f82015250565b5f615c64601e8361489f565b9150615c6f82615c30565b602082019050919050565b5f6020820190508181035f830152615c9181615c58565b9050919050565b7f536f6c6f20756e206d616e61676572207075656465206c69626572617220656c5f8201527f2073616c6172696f000000000000000000000000000000000000000000000000602082015250565b5f615cf260288361489f565b9150615cfd82615c98565b604082019050919050565b5f6020820190508181035f830152615d1f81615ce6565b9050919050565b7f456c20636f6e747261746f206e6f20686120657870697261646f0000000000005f82015250565b5f615d5a601a8361489f565b9150615d6582615d26565b602082019050919050565b5f6020820190508181035f830152615d8781615d4e565b9050919050565b7f456c20636f6e747261746f2065737461207061757361646f00000000000000005f82015250565b5f615dc260188361489f565b9150615dcd82615d8e565b602082019050919050565b5f6020820190508181035f830152615def81615db6565b9050919050565b7f4e487b71000000000000000000000000000000000000000000000000000000005f52603160045260245ffd5b5f81519050919050565b5f82825260208201905092915050565b5f615e4782615e23565b615e518185615e2d565b9350615e618185602086016148af565b615e6a816148d7565b840191505092915050565b5f608082019050615e885f83018761493f565b615e95602083018661493f565b615ea26040830185614af7565b8181036060830152615eb48184615e3d565b905095945050505050565b5f81519050615ecd816147a8565b92915050565b5f60208284031215615ee857615ee76146e4565b5b5f615ef584828501615ebf565b91505092915050565b7f4e487b71000000000000000000000000000000000000000000000000000000005f52601260045260245ffd5b5f604082019050615f3e5f83018561493f565b615f4b6020830184614af7565b939250505056fea264697066735822122019ad0aab3d6dc89d0b60a720eb9b1689b9aebd4cde261e76420edd9f455261e864736f6c63430008140033",
  "immutableReferences": {},
  "source": "// SPDX-License-Identifier: MIT\r\npragma solidity ^0.8.20;\r\n\r\nimport \"@openzeppelin/contracts/token/ERC721/ERC721.sol\";\r\n\r\ncontract MyContract is ERC721 {\r\n    uint256 tokenID;\r\n    mapping(uint256 => mapping(address => bool)) public tokenManagers;\r\n    mapping(uint256 => address[]) private tokenManagersList;\r\n    mapping(uint256 => ContractDetails) public contractDetails;\r\n    mapping(address => uint256[]) private contractsOwner;\r\n    mapping(address => uint256[]) private activeContractsOfWorker;\r\n    mapping(address => uint256[]) private unsignedContractsOfWorker;\r\n    mapping(uint256 => ChangeProposal) public changeProposals;\r\n\r\n    struct ContractDetails {\r\n        uint256 salary;\r\n        uint256 startDate;\r\n        uint256 duration;\r\n        string title;\r\n        string description;\r\n        bool isSigned;\r\n        address worker;\r\n        bool isFinished;\r\n        bool isReleased;\r\n        bool isPaused;\r\n        uint256 pauseTime;\r\n        uint256 pauseDuration;\r\n    }\r\n\r\n    struct ChangeProposal {\r\n        string newTitle;\r\n        uint256 newSalary;\r\n        uint256 newDuration;\r\n        string newDescription;\r\n        bool isPaused;\r\n        bool isPending;\r\n    }\r\n\r\n    event ContractSigned(uint256 indexed tokenId, address worker);\r\n    event SalaryReleased(uint256 indexed tokenId, uint256 salary);\r\n    event TokenMinted(uint256 tokenId);\r\n    event ContractCancelled(uint256 indexed tokenId);\r\n    event ContractFinalized(uint256 indexed tokenId);\r\n    event Debug(\r\n        uint256 currentSalary,\r\n        uint256 newSalary,\r\n        uint256 salaryDifference,\r\n        uint256 msgValue\r\n    );\r\n\r\n    constructor() ERC721(\"MyToken\", \"MTK\") {}\r\n\r\n    function mint(\r\n        address _to,\r\n        uint256 _salary,\r\n        uint256 _duration,\r\n        string memory _description,\r\n        string memory _title\r\n    ) public payable returns (uint256) {\r\n        require(\r\n            msg.value >= _salary,\r\n            \"Dede enviar el salario como valor del contrato\"\r\n        );\r\n        tokenID++;\r\n        _mint(msg.sender, tokenID);\r\n        uint256 remainder = msg.value - _salary;\r\n        if (remainder > 0) {\r\n            payable(msg.sender).transfer(remainder);\r\n        }\r\n\r\n        ContractDetails memory newContract = ContractDetails({\r\n            salary: _salary,\r\n            startDate: block.timestamp,\r\n            duration: _duration,\r\n            title: _title,\r\n            description: _description,\r\n            isSigned: false,\r\n            worker: _to,\r\n            isFinished: false,\r\n            isReleased: false,\r\n            isPaused: false,\r\n            pauseTime: 0,\r\n            pauseDuration: 0\r\n        });\r\n\r\n        contractDetails[tokenID] = newContract;\r\n        tokenManagers[tokenID][msg.sender] = true;\r\n        contractsOwner[msg.sender].push(tokenID);\r\n        unsignedContractsOfWorker[_to].push(tokenID);\r\n        emit TokenMinted(tokenID);\r\n\r\n        return tokenID;\r\n    }\r\n\r\n    function signContract(uint256 _tokenID) public {\r\n        try this.ownerOf(_tokenID) {} catch {\r\n            revert(\"El token no existe.\"); // he intentado hacerlo con _exists pero no me ha funcionado\r\n        }\r\n        require(\r\n            tokenManagers[_tokenID][msg.sender] == false,\r\n            \"No puedes firmar tu propio contrato\"\r\n        );\r\n        require(\r\n            msg.sender == contractDetails[_tokenID].worker,\r\n            \"Solo el trabajador puede firmar el contrato\"\r\n        );\r\n        require(\r\n            !contractDetails[_tokenID].isSigned,\r\n            \"El contrato ya ha sido firmado\"\r\n        );\r\n        require(\r\n            contractDetails[_tokenID].isFinished == false,\r\n            \"El contrato ha finalizado\"\r\n        );\r\n        require(\r\n            isContractFinished(_tokenID) == false,\r\n            \"El contrato ha expirado\"\r\n        );\r\n\r\n        contractDetails[_tokenID].isSigned = true;\r\n        contractDetails[_tokenID].worker = msg.sender;\r\n        activeContractsOfWorker[msg.sender].push(_tokenID);\r\n        emit ContractSigned(_tokenID, msg.sender);\r\n    }\r\n\r\n    function releaseSalary(uint256 _tokenID) public payable {\r\n        try this.ownerOf(_tokenID) {} catch {\r\n            revert(\"El token no existe.\"); // he intentado hacerlo con _exists pero no me ha funcionado\r\n        }\r\n        require(\r\n            contractDetails[_tokenID].isSigned,\r\n            \"El contrato no ha sido firmado\"\r\n        );\r\n        require(\r\n            contractDetails[_tokenID].isReleased == false,\r\n            \"El salario ya ha sido liberado\"\r\n        );\r\n        require(\r\n            tokenManagers[_tokenID][msg.sender] == true,\r\n            \"Solo un manager puede liberar el salario\"\r\n        );\r\n        require(\r\n            isContractFinished(_tokenID) == true,\r\n            \"El contrato no ha expirado\"\r\n        );\r\n        require(\r\n            contractDetails[_tokenID].isPaused == false,\r\n            \"El contrato esta pausado\"\r\n        );\r\n\r\n        address payable worker = payable(contractDetails[_tokenID].worker);\r\n        uint256 salary = contractDetails[_tokenID].salary;\r\n        worker.transfer(salary);\r\n        contractDetails[_tokenID].isReleased = true;\r\n        emit SalaryReleased(_tokenID, salary);\r\n    }\r\n\r\n    function finalizeContract(uint256 _tokenID) public {\r\n        try this.ownerOf(_tokenID) {} catch {\r\n            revert(\"El token no existe.\"); // he intentado hacerlo con _exists pero no me ha funcionado\r\n        }\r\n        require(\r\n            tokenManagers[_tokenID][msg.sender] == true,\r\n            \"Solo un manager puede finalizar un contrato\"\r\n        );\r\n        require(\r\n            contractDetails[_tokenID].isSigned,\r\n            \"El contrato no ha sido firmado\"\r\n        );\r\n        require(\r\n            contractDetails[_tokenID].isFinished == false,\r\n            \"El contrato ya ha finalizado\"\r\n        );\r\n        require(\r\n            isContractFinished(_tokenID) == false,\r\n            \"El contrato ha expirado\"\r\n        );\r\n\r\n        contractDetails[_tokenID].isFinished = true;\r\n        emit ContractFinalized(_tokenID);\r\n    }\r\n\r\n    function pauseContract(uint256 _tokenID) public {\r\n        try this.ownerOf(_tokenID) {} catch {\r\n            revert(\"El token no existe.\"); // he intentado hacerlo con _exists pero no me ha funcionado\r\n        }\r\n        require(\r\n            contractDetails[_tokenID].isSigned,\r\n            \"El contrato no ha sido firmado\"\r\n        );\r\n        require(\r\n            isContractFinished(_tokenID) == false,\r\n            \"El contrato ha expirado\"\r\n        );\r\n        require(\r\n            !contractDetails[_tokenID].isPaused,\r\n            \"El contrato ya esta pausado\"\r\n        );\r\n\r\n        contractDetails[_tokenID].isPaused = true;\r\n        contractDetails[_tokenID].pauseTime = block.timestamp;\r\n    }\r\n\r\n    function unPauseContract(uint256 _tokenID) public {\r\n        try this.ownerOf(_tokenID) {} catch {\r\n            revert(\"El token no existe.\"); // he intentado hacerlo con _exists pero no me ha funcionado\r\n        }\r\n        require(\r\n            contractDetails[_tokenID].isSigned,\r\n            \"El contrato no ha sido firmado\"\r\n        );\r\n        require(\r\n            contractDetails[_tokenID].isPaused,\r\n            \"El contrato no esta pausado\"\r\n        );\r\n        require(\r\n            isContractFinished(_tokenID) == false,\r\n            \"El contrato ha expirado\"\r\n        );\r\n\r\n        contractDetails[_tokenID].pauseDuration =\r\n            block.timestamp -\r\n            contractDetails[_tokenID].pauseTime;\r\n\r\n        contractDetails[_tokenID].pauseTime = 0;\r\n        contractDetails[_tokenID].isPaused = false;\r\n    }\r\n\r\n    function cancelContract(uint256 _tokenID) public {\r\n        try this.ownerOf(_tokenID) {} catch {\r\n            revert(\"El token no existe.\"); // he intentado hacerlo con _exists pero no me ha funcionado\r\n        }\r\n        require(\r\n            !contractDetails[_tokenID].isSigned,\r\n            \"El contrato ya ha sido firmado\"\r\n        );\r\n\r\n        address payable owner = payable(ownerOf(_tokenID));\r\n        uint256 salary = contractDetails[_tokenID].salary;\r\n        owner.transfer(salary);\r\n        removeContractFromOwner(_tokenID, owner);\r\n        _burn(_tokenID);\r\n        emit ContractCancelled(_tokenID);\r\n    }\r\n\r\n    function removeContractFromOwner(\r\n        uint256 _tokenId,\r\n        address _owner\r\n    ) internal {\r\n        uint256 contractIndex;\r\n        uint256 lastContractIndex = contractsOwner[_owner].length - 1;\r\n\r\n        for (uint i = 0; i < contractsOwner[_owner].length; i++) {\r\n            if (contractsOwner[_owner][i] == _tokenId) {\r\n                contractIndex = i;\r\n                break;\r\n            }\r\n        }\r\n\r\n        if (contractIndex != lastContractIndex) {\r\n            contractsOwner[_owner][contractIndex] = contractsOwner[_owner][\r\n                lastContractIndex\r\n            ];\r\n        }\r\n        contractsOwner[_owner].pop();\r\n    }\r\n\r\n    function assignManagerToToken(\r\n        uint256 _tokenId,\r\n        address _newManager\r\n    ) public {\r\n        if (!tokenManagers[_tokenId][_newManager]) {\r\n            tokenManagers[_tokenId][_newManager] = true;\r\n            tokenManagersList[_tokenId].push(_newManager);\r\n            contractsOwner[_newManager].push(_tokenId);\r\n        }\r\n    }\r\n\r\n    function revokeManagerFromToken(uint256 _tokenId, address _manager) public {\r\n        for (uint256 i = 0; i < tokenManagersList[_tokenId].length; i++) {\r\n            if (tokenManagersList[_tokenId][i] == _manager) {\r\n                removeManagerFromList(_tokenId, i);\r\n                break;\r\n            }\r\n        }\r\n        tokenManagers[_tokenId][_manager] = false;\r\n        removeContractFromOwner(_tokenId, _manager);\r\n    }\r\n\r\n    function removeManagerFromList(uint256 _tokenId, uint256 _index) private {\r\n        tokenManagersList[_tokenId][_index] = tokenManagersList[_tokenId][tokenManagersList[_tokenId].length - 1];\r\n        tokenManagersList[_tokenId].pop();\r\n    }\r\n\r\n    function getManagersOfToken(uint256 _tokenId) public view returns (address[] memory) {\r\n        return tokenManagersList[_tokenId];\r\n    }\r\n\r\n\r\n    function isManagerOfToken(\r\n        uint256 _tokenId,\r\n        address _manager\r\n    ) public view returns (bool) {\r\n        return tokenManagers[_tokenId][_manager];\r\n    }\r\n\r\n    //funcion para proponer un cambio en un contrato\r\n    function proposeChange(\r\n        uint256 _tokenID,\r\n        string memory _newTitle,\r\n        uint256 _newSalary,\r\n        uint256 _newDuration,\r\n        string memory _newDescription,\r\n        bool _isPaused\r\n    ) public payable {\r\n        uint256 currentSalary = contractDetails[_tokenID].salary;\r\n        if (_newSalary > currentSalary) {\r\n            uint256 salaryDifference = _newSalary - currentSalary;\r\n            require(\r\n                msg.value >= salaryDifference,\r\n                \"Fondos insuficientes para cubrir el incremento del salario\"\r\n            );\r\n\r\n            uint256 excessAmount = msg.value - salaryDifference;\r\n            if (excessAmount > 0) {\r\n                payable(msg.sender).transfer(excessAmount);\r\n            }\r\n        }\r\n\r\n        changeProposals[_tokenID] = ChangeProposal({\r\n            newTitle: _newTitle,\r\n            newSalary: _newSalary,\r\n            newDuration: _newDuration,\r\n            newDescription: _newDescription,\r\n            isPaused: _isPaused,\r\n            isPending: true\r\n        });\r\n    }\r\n\r\n    //funcion para rechazar un cambio propuesto\r\n    function rejectChange(uint256 _tokenID) public {\r\n        ChangeProposal memory proposedChange = changeProposals[_tokenID];\r\n\r\n        if (proposedChange.newSalary > contractDetails[_tokenID].salary) {\r\n            uint256 salaryDifference = proposedChange.newSalary -\r\n                contractDetails[_tokenID].salary;\r\n            address owner = ownerOf(_tokenID);\r\n            payable(owner).transfer(salaryDifference);\r\n        }\r\n\r\n        changeProposals[_tokenID].isPending = false;\r\n    }\r\n\r\n    //Funcion para modificar un contrato que no haya sido firmado\r\n    function applyChange(uint256 _tokenID) public payable {\r\n        ChangeProposal memory proposedChange = changeProposals[_tokenID];\r\n\r\n        if (proposedChange.newSalary < contractDetails[_tokenID].salary) {\r\n            uint256 refundAmount = contractDetails[_tokenID].salary -\r\n                proposedChange.newSalary;\r\n            address owner = ownerOf(_tokenID);\r\n            payable(owner).transfer(refundAmount);\r\n        }\r\n\r\n        contractDetails[_tokenID].title = proposedChange.newTitle;\r\n        contractDetails[_tokenID].salary = proposedChange.newSalary;\r\n        contractDetails[_tokenID].duration = proposedChange.newDuration;\r\n        contractDetails[_tokenID].description = proposedChange.newDescription;\r\n\r\n        if (proposedChange.isPaused != contractDetails[_tokenID].isPaused) {\r\n            if (proposedChange.isPaused) {\r\n                pauseContract(_tokenID);\r\n            } else {\r\n                unPauseContract(_tokenID);\r\n            }\r\n        }\r\n\r\n        changeProposals[_tokenID].isPending = false;\r\n    }\r\n\r\n    function getContractsFromOwner(\r\n        address _address\r\n    ) public view returns (uint256[] memory) {\r\n        return contractsOwner[_address];\r\n    }\r\n\r\n    function getContractsOfWorker(\r\n        address _address\r\n    ) public view returns (uint256[] memory) {\r\n        return activeContractsOfWorker[_address];\r\n    }\r\n\r\n    function getUnsignedContractsOfWorker(\r\n        address worker\r\n    ) public view returns (uint256[] memory) {\r\n        uint256 totalContracts = unsignedContractsOfWorker[worker].length;\r\n        uint256[] memory tempContracts = new uint256[](totalContracts);\r\n        uint256 count = 0;\r\n\r\n        for (uint256 i = 0; i < totalContracts; i++) {\r\n            uint256 contractId = unsignedContractsOfWorker[worker][i];\r\n\r\n            if (\r\n                !contractDetails[contractId].isSigned && tokenExists(contractId)\r\n            ) {\r\n                tempContracts[count] = contractId;\r\n                count++;\r\n            }\r\n        }\r\n\r\n        uint256[] memory result = new uint256[](count);\r\n        for (uint256 j = 0; j < count; j++) {\r\n            result[j] = tempContracts[j];\r\n        }\r\n\r\n        return result;\r\n    }\r\n\r\n    function tokenExists(uint256 _tokenId) public view returns (bool) {\r\n        try this.ownerOf(_tokenId) {\r\n            return true;\r\n        } catch {\r\n            return false;\r\n        }\r\n    }\r\n\r\n    function isContractFinished(uint256 _tokenID) public view returns (bool) {\r\n        if (contractDetails[_tokenID].isFinished == true) {\r\n            return true;\r\n        }\r\n\r\n        if (\r\n            block.timestamp >\r\n            contractDetails[_tokenID].startDate +\r\n                contractDetails[_tokenID].duration +\r\n                contractDetails[_tokenID].pauseDuration\r\n        ) {\r\n            return true;\r\n        }\r\n\r\n        return false;\r\n    }\r\n\r\n    function isContractSigned(uint256 _tokenID) public view returns (bool) {\r\n        return contractDetails[_tokenID].isSigned;\r\n    }\r\n\r\n    function getOwnerOfContract(\r\n        uint256 _tokenID\r\n    ) public view returns (address) {\r\n        return ownerOf(_tokenID);\r\n    }\r\n}\r\n",
  "sourcePath": "E:\\AppContract\\ubu-contractme\\Code\\SmartContract\\contracts\\MyContract.sol",
  "compiler": {
    "name": "solc",
    "version": "0.8.20+commit.a1b79de6.Emscripten.clang"
  },
  "schemaVersion": "3.4.16",
  "updatedAt": "2024-02-16T18:21:25.843Z",
  "networkType": "ethereum",
  "devdoc": {
    "errors": {
      "ERC721IncorrectOwner(address,uint256,address)": [
        {
          "details": "Indicates an error related to the ownership over a particular token. Used in transfers.",
          "params": {
            "owner": "Address of the current owner of a token.",
            "sender": "Address whose tokens are being transferred.",
            "tokenId": "Identifier number of a token."
          }
        }
      ],
      "ERC721InsufficientApproval(address,uint256)": [
        {
          "details": "Indicates a failure with the `operator`s approval. Used in transfers.",
          "params": {
            "operator": "Address that may be allowed to operate on tokens without being their owner.",
            "tokenId": "Identifier number of a token."
          }
        }
      ],
      "ERC721InvalidApprover(address)": [
        {
          "details": "Indicates a failure with the `approver` of a token to be approved. Used in approvals.",
          "params": {
            "approver": "Address initiating an approval operation."
          }
        }
      ],
      "ERC721InvalidOperator(address)": [
        {
          "details": "Indicates a failure with the `operator` to be approved. Used in approvals.",
          "params": {
            "operator": "Address that may be allowed to operate on tokens without being their owner."
          }
        }
      ],
      "ERC721InvalidOwner(address)": [
        {
          "details": "Indicates that an address can't be an owner. For example, `address(0)` is a forbidden owner in EIP-20. Used in balance queries.",
          "params": {
            "owner": "Address of the current owner of a token."
          }
        }
      ],
      "ERC721InvalidReceiver(address)": [
        {
          "details": "Indicates a failure with the token `receiver`. Used in transfers.",
          "params": {
            "receiver": "Address to which tokens are being transferred."
          }
        }
      ],
      "ERC721InvalidSender(address)": [
        {
          "details": "Indicates a failure with the token `sender`. Used in transfers.",
          "params": {
            "sender": "Address whose tokens are being transferred."
          }
        }
      ],
      "ERC721NonexistentToken(uint256)": [
        {
          "details": "Indicates a `tokenId` whose `owner` is the zero address.",
          "params": {
            "tokenId": "Identifier number of a token."
          }
        }
      ]
    },
    "events": {
      "Approval(address,address,uint256)": {
        "details": "Emitted when `owner` enables `approved` to manage the `tokenId` token."
      },
      "ApprovalForAll(address,address,bool)": {
        "details": "Emitted when `owner` enables or disables (`approved`) `operator` to manage all of its assets."
      },
      "Transfer(address,address,uint256)": {
        "details": "Emitted when `tokenId` token is transferred from `from` to `to`."
      }
    },
    "kind": "dev",
    "methods": {
      "approve(address,uint256)": {
        "details": "See {IERC721-approve}."
      },
      "balanceOf(address)": {
        "details": "See {IERC721-balanceOf}."
      },
      "getApproved(uint256)": {
        "details": "See {IERC721-getApproved}."
      },
      "isApprovedForAll(address,address)": {
        "details": "See {IERC721-isApprovedForAll}."
      },
      "name()": {
        "details": "See {IERC721Metadata-name}."
      },
      "ownerOf(uint256)": {
        "details": "See {IERC721-ownerOf}."
      },
      "safeTransferFrom(address,address,uint256)": {
        "details": "See {IERC721-safeTransferFrom}."
      },
      "safeTransferFrom(address,address,uint256,bytes)": {
        "details": "See {IERC721-safeTransferFrom}."
      },
      "setApprovalForAll(address,bool)": {
        "details": "See {IERC721-setApprovalForAll}."
      },
      "supportsInterface(bytes4)": {
        "details": "See {IERC165-supportsInterface}."
      },
      "symbol()": {
        "details": "See {IERC721Metadata-symbol}."
      },
      "tokenURI(uint256)": {
        "details": "See {IERC721Metadata-tokenURI}."
      },
      "transferFrom(address,address,uint256)": {
        "details": "See {IERC721-transferFrom}."
      }
    },
    "version": 1
  },
  "userdoc": {
    "kind": "user",
    "methods": {},
    "version": 1
  }
}