{
  "contractName": "MyContract",
  "abi": [
    {
      "inputs": [],
      "stateMutability": "nonpayable",
      "type": "constructor"
    },
    {
      "inputs": [
        {
          "internalType": "address",
          "name": "sender",
          "type": "address"
        },
        {
          "internalType": "uint256",
          "name": "tokenId",
          "type": "uint256"
        },
        {
          "internalType": "address",
          "name": "owner",
          "type": "address"
        }
      ],
      "name": "ERC721IncorrectOwner",
      "type": "error"
    },
    {
      "inputs": [
        {
          "internalType": "address",
          "name": "operator",
          "type": "address"
        },
        {
          "internalType": "uint256",
          "name": "tokenId",
          "type": "uint256"
        }
      ],
      "name": "ERC721InsufficientApproval",
      "type": "error"
    },
    {
      "inputs": [
        {
          "internalType": "address",
          "name": "approver",
          "type": "address"
        }
      ],
      "name": "ERC721InvalidApprover",
      "type": "error"
    },
    {
      "inputs": [
        {
          "internalType": "address",
          "name": "operator",
          "type": "address"
        }
      ],
      "name": "ERC721InvalidOperator",
      "type": "error"
    },
    {
      "inputs": [
        {
          "internalType": "address",
          "name": "owner",
          "type": "address"
        }
      ],
      "name": "ERC721InvalidOwner",
      "type": "error"
    },
    {
      "inputs": [
        {
          "internalType": "address",
          "name": "receiver",
          "type": "address"
        }
      ],
      "name": "ERC721InvalidReceiver",
      "type": "error"
    },
    {
      "inputs": [
        {
          "internalType": "address",
          "name": "sender",
          "type": "address"
        }
      ],
      "name": "ERC721InvalidSender",
      "type": "error"
    },
    {
      "inputs": [
        {
          "internalType": "uint256",
          "name": "tokenId",
          "type": "uint256"
        }
      ],
      "name": "ERC721NonexistentToken",
      "type": "error"
    },
    {
      "anonymous": false,
      "inputs": [
        {
          "indexed": true,
          "internalType": "address",
          "name": "owner",
          "type": "address"
        },
        {
          "indexed": true,
          "internalType": "address",
          "name": "approved",
          "type": "address"
        },
        {
          "indexed": true,
          "internalType": "uint256",
          "name": "tokenId",
          "type": "uint256"
        }
      ],
      "name": "Approval",
      "type": "event"
    },
    {
      "anonymous": false,
      "inputs": [
        {
          "indexed": true,
          "internalType": "address",
          "name": "owner",
          "type": "address"
        },
        {
          "indexed": true,
          "internalType": "address",
          "name": "operator",
          "type": "address"
        },
        {
          "indexed": false,
          "internalType": "bool",
          "name": "approved",
          "type": "bool"
        }
      ],
      "name": "ApprovalForAll",
      "type": "event"
    },
    {
      "anonymous": false,
      "inputs": [
        {
          "indexed": true,
          "internalType": "uint256",
          "name": "tokenId",
          "type": "uint256"
        },
        {
          "indexed": false,
          "internalType": "address",
          "name": "worker",
          "type": "address"
        }
      ],
      "name": "ContractSigned",
      "type": "event"
    },
    {
      "anonymous": false,
      "inputs": [
        {
          "indexed": true,
          "internalType": "uint256",
          "name": "tokenId",
          "type": "uint256"
        },
        {
          "indexed": false,
          "internalType": "uint256",
          "name": "salary",
          "type": "uint256"
        }
      ],
      "name": "SalaryReleased",
      "type": "event"
    },
    {
      "anonymous": false,
      "inputs": [
        {
          "indexed": false,
          "internalType": "uint256",
          "name": "tokenId",
          "type": "uint256"
        }
      ],
      "name": "TokenMinted",
      "type": "event"
    },
    {
      "anonymous": false,
      "inputs": [
        {
          "indexed": true,
          "internalType": "address",
          "name": "from",
          "type": "address"
        },
        {
          "indexed": true,
          "internalType": "address",
          "name": "to",
          "type": "address"
        },
        {
          "indexed": true,
          "internalType": "uint256",
          "name": "tokenId",
          "type": "uint256"
        }
      ],
      "name": "Transfer",
      "type": "event"
    },
    {
      "inputs": [
        {
          "internalType": "address",
          "name": "to",
          "type": "address"
        },
        {
          "internalType": "uint256",
          "name": "tokenId",
          "type": "uint256"
        }
      ],
      "name": "approve",
      "outputs": [],
      "stateMutability": "nonpayable",
      "type": "function"
    },
    {
      "inputs": [
        {
          "internalType": "address",
          "name": "owner",
          "type": "address"
        }
      ],
      "name": "balanceOf",
      "outputs": [
        {
          "internalType": "uint256",
          "name": "",
          "type": "uint256"
        }
      ],
      "stateMutability": "view",
      "type": "function",
      "constant": true
    },
    {
      "inputs": [
        {
          "internalType": "uint256",
          "name": "",
          "type": "uint256"
        }
      ],
      "name": "contractDetails",
      "outputs": [
        {
          "internalType": "uint256",
          "name": "salary",
          "type": "uint256"
        },
        {
          "internalType": "uint256",
          "name": "startDate",
          "type": "uint256"
        },
        {
          "internalType": "uint256",
          "name": "duration",
          "type": "uint256"
        },
        {
          "internalType": "string",
          "name": "description",
          "type": "string"
        },
        {
          "internalType": "bool",
          "name": "isSigned",
          "type": "bool"
        },
        {
          "internalType": "address",
          "name": "worker",
          "type": "address"
        },
        {
          "internalType": "bool",
          "name": "isFinished",
          "type": "bool"
        },
        {
          "internalType": "bool",
          "name": "isPaused",
          "type": "bool"
        },
        {
          "internalType": "uint256",
          "name": "pauseTime",
          "type": "uint256"
        },
        {
          "internalType": "uint256",
          "name": "pauseDuration",
          "type": "uint256"
        }
      ],
      "stateMutability": "view",
      "type": "function",
      "constant": true
    },
    {
      "inputs": [
        {
          "internalType": "uint256",
          "name": "tokenId",
          "type": "uint256"
        }
      ],
      "name": "getApproved",
      "outputs": [
        {
          "internalType": "address",
          "name": "",
          "type": "address"
        }
      ],
      "stateMutability": "view",
      "type": "function",
      "constant": true
    },
    {
      "inputs": [
        {
          "internalType": "address",
          "name": "owner",
          "type": "address"
        },
        {
          "internalType": "address",
          "name": "operator",
          "type": "address"
        }
      ],
      "name": "isApprovedForAll",
      "outputs": [
        {
          "internalType": "bool",
          "name": "",
          "type": "bool"
        }
      ],
      "stateMutability": "view",
      "type": "function",
      "constant": true
    },
    {
      "inputs": [],
      "name": "name",
      "outputs": [
        {
          "internalType": "string",
          "name": "",
          "type": "string"
        }
      ],
      "stateMutability": "view",
      "type": "function",
      "constant": true
    },
    {
      "inputs": [
        {
          "internalType": "uint256",
          "name": "tokenId",
          "type": "uint256"
        }
      ],
      "name": "ownerOf",
      "outputs": [
        {
          "internalType": "address",
          "name": "",
          "type": "address"
        }
      ],
      "stateMutability": "view",
      "type": "function",
      "constant": true
    },
    {
      "inputs": [
        {
          "internalType": "address",
          "name": "from",
          "type": "address"
        },
        {
          "internalType": "address",
          "name": "to",
          "type": "address"
        },
        {
          "internalType": "uint256",
          "name": "tokenId",
          "type": "uint256"
        }
      ],
      "name": "safeTransferFrom",
      "outputs": [],
      "stateMutability": "nonpayable",
      "type": "function"
    },
    {
      "inputs": [
        {
          "internalType": "address",
          "name": "from",
          "type": "address"
        },
        {
          "internalType": "address",
          "name": "to",
          "type": "address"
        },
        {
          "internalType": "uint256",
          "name": "tokenId",
          "type": "uint256"
        },
        {
          "internalType": "bytes",
          "name": "data",
          "type": "bytes"
        }
      ],
      "name": "safeTransferFrom",
      "outputs": [],
      "stateMutability": "nonpayable",
      "type": "function"
    },
    {
      "inputs": [
        {
          "internalType": "address",
          "name": "operator",
          "type": "address"
        },
        {
          "internalType": "bool",
          "name": "approved",
          "type": "bool"
        }
      ],
      "name": "setApprovalForAll",
      "outputs": [],
      "stateMutability": "nonpayable",
      "type": "function"
    },
    {
      "inputs": [
        {
          "internalType": "bytes4",
          "name": "interfaceId",
          "type": "bytes4"
        }
      ],
      "name": "supportsInterface",
      "outputs": [
        {
          "internalType": "bool",
          "name": "",
          "type": "bool"
        }
      ],
      "stateMutability": "view",
      "type": "function",
      "constant": true
    },
    {
      "inputs": [],
      "name": "symbol",
      "outputs": [
        {
          "internalType": "string",
          "name": "",
          "type": "string"
        }
      ],
      "stateMutability": "view",
      "type": "function",
      "constant": true
    },
    {
      "inputs": [
        {
          "internalType": "uint256",
          "name": "tokenId",
          "type": "uint256"
        }
      ],
      "name": "tokenURI",
      "outputs": [
        {
          "internalType": "string",
          "name": "",
          "type": "string"
        }
      ],
      "stateMutability": "view",
      "type": "function",
      "constant": true
    },
    {
      "inputs": [
        {
          "internalType": "address",
          "name": "from",
          "type": "address"
        },
        {
          "internalType": "address",
          "name": "to",
          "type": "address"
        },
        {
          "internalType": "uint256",
          "name": "tokenId",
          "type": "uint256"
        }
      ],
      "name": "transferFrom",
      "outputs": [],
      "stateMutability": "nonpayable",
      "type": "function"
    },
    {
      "inputs": [
        {
          "internalType": "address",
          "name": "_to",
          "type": "address"
        },
        {
          "internalType": "uint256",
          "name": "_salary",
          "type": "uint256"
        },
        {
          "internalType": "uint256",
          "name": "_duration",
          "type": "uint256"
        },
        {
          "internalType": "string",
          "name": "_description",
          "type": "string"
        }
      ],
      "name": "mint",
      "outputs": [
        {
          "internalType": "uint256",
          "name": "",
          "type": "uint256"
        }
      ],
      "stateMutability": "payable",
      "type": "function",
      "payable": true
    },
    {
      "inputs": [
        {
          "internalType": "uint256",
          "name": "_tokenID",
          "type": "uint256"
        }
      ],
      "name": "signContract",
      "outputs": [],
      "stateMutability": "nonpayable",
      "type": "function"
    },
    {
      "inputs": [
        {
          "internalType": "uint256",
          "name": "_tokenID",
          "type": "uint256"
        }
      ],
      "name": "releaseSalary",
      "outputs": [],
      "stateMutability": "payable",
      "type": "function",
      "payable": true
    },
    {
      "inputs": [
        {
          "internalType": "uint256",
          "name": "_tokenID",
          "type": "uint256"
        }
      ],
      "name": "finalizeContract",
      "outputs": [],
      "stateMutability": "nonpayable",
      "type": "function"
    },
    {
      "inputs": [
        {
          "internalType": "uint256",
          "name": "_tokenID",
          "type": "uint256"
        }
      ],
      "name": "pauseContract",
      "outputs": [],
      "stateMutability": "nonpayable",
      "type": "function"
    },
    {
      "inputs": [
        {
          "internalType": "uint256",
          "name": "_tokenID",
          "type": "uint256"
        }
      ],
      "name": "unPauseContract",
      "outputs": [],
      "stateMutability": "nonpayable",
      "type": "function"
    }
  ],
  "bytecode": "0x608060405234801562000010575f80fd5b506040518060400160405280600781526020017f4d79546f6b656e000000000000000000000000000000000000000000000000008152506040518060400160405280600381526020017f4d544b0000000000000000000000000000000000000000000000000000000000815250815f90816200008d91906200030c565b5080600190816200009f91906200030c565b505050620003f0565b5f81519050919050565b7f4e487b71000000000000000000000000000000000000000000000000000000005f52604160045260245ffd5b7f4e487b71000000000000000000000000000000000000000000000000000000005f52602260045260245ffd5b5f60028204905060018216806200012457607f821691505b6020821081036200013a5762000139620000df565b5b50919050565b5f819050815f5260205f209050919050565b5f6020601f8301049050919050565b5f82821b905092915050565b5f600883026200019e7fffffffffffffffffffffffffffffffffffffffffffffffffffffffffffffffff8262000161565b620001aa868362000161565b95508019841693508086168417925050509392505050565b5f819050919050565b5f819050919050565b5f620001f4620001ee620001e884620001c2565b620001cb565b620001c2565b9050919050565b5f819050919050565b6200020f83620001d4565b620002276200021e82620001fb565b8484546200016d565b825550505050565b5f90565b6200023d6200022f565b6200024a81848462000204565b505050565b5b818110156200027157620002655f8262000233565b60018101905062000250565b5050565b601f821115620002c0576200028a8162000140565b620002958462000152565b81016020851015620002a5578190505b620002bd620002b48562000152565b8301826200024f565b50505b505050565b5f82821c905092915050565b5f620002e25f1984600802620002c5565b1980831691505092915050565b5f620002fc8383620002d1565b9150826002028217905092915050565b6200031782620000a8565b67ffffffffffffffff811115620003335762000332620000b2565b5b6200033f82546200010c565b6200034c82828562000275565b5f60209050601f83116001811462000382575f84156200036d578287015190505b620003798582620002ef565b865550620003e8565b601f198416620003928662000140565b5f5b82811015620003bb5784890151825560018201915060208501945060208101905062000394565b86831015620003db5784890151620003d7601f891682620002d1565b8355505b6001600288020188555050505b505050505050565b613f5480620003fe5f395ff3fe60806040526004361061011e575f3560e01c806389b83d3e1161009f578063bb7fde7111610063578063bb7fde71146103eb578063c2852f381461041b578063c87b56dd14610443578063e2c07c7b1461047f578063e985e9c51461049b5761011e565b806389b83d3e146103215780639537e8d11461034957806395d89b4114610371578063a22cb4651461039b578063b88d4fde146103c35761011e565b80632907eb16116100e65780632907eb16146102145780633330a55f1461023c57806342842e0e146102815780636352211e146102a957806370a08231146102e55761011e565b806301ffc9a71461012257806306fdde031461015e578063081812fc14610188578063095ea7b3146101c457806323b872dd146101ec575b5f80fd5b34801561012d575f80fd5b5061014860048036038101906101439190612a21565b6104d7565b6040516101559190612a66565b60405180910390f35b348015610169575f80fd5b506101726105b8565b60405161017f9190612b09565b60405180910390f35b348015610193575f80fd5b506101ae60048036038101906101a99190612b5c565b610647565b6040516101bb9190612bc6565b60405180910390f35b3480156101cf575f80fd5b506101ea60048036038101906101e59190612c09565b610662565b005b3480156101f7575f80fd5b50610212600480360381019061020d9190612c47565b610678565b005b34801561021f575f80fd5b5061023a60048036038101906102359190612b5c565b610777565b005b348015610247575f80fd5b50610262600480360381019061025d9190612b5c565b610a0c565b6040516102789a99989796959493929190612ca6565b60405180910390f35b34801561028c575f80fd5b506102a760048036038101906102a29190612c47565b610b28565b005b3480156102b4575f80fd5b506102cf60048036038101906102ca9190612b5c565b610b47565b6040516102dc9190612bc6565b60405180910390f35b3480156102f0575f80fd5b5061030b60048036038101906103069190612d47565b610b58565b6040516103189190612d72565b60405180910390f35b34801561032c575f80fd5b5061034760048036038101906103429190612b5c565b610c0e565b005b348015610354575f80fd5b5061036f600480360381019061036a9190612b5c565b610eb6565b005b34801561037c575f80fd5b50610385611279565b6040516103929190612b09565b60405180910390f35b3480156103a6575f80fd5b506103c160048036038101906103bc9190612db5565b611309565b005b3480156103ce575f80fd5b506103e960048036038101906103e49190612f1f565b61131f565b005b6104056004803603810190610400919061303d565b61133c565b6040516104129190612d72565b60405180910390f35b348015610426575f80fd5b50610441600480360381019061043c9190612b5c565b6115b1565b005b34801561044e575f80fd5b5061046960048036038101906104649190612b5c565b61185b565b6040516104769190612b09565b60405180910390f35b61049960048036038101906104949190612b5c565b6118c1565b005b3480156104a6575f80fd5b506104c160048036038101906104bc91906130bd565b611c27565b6040516104ce9190612a66565b60405180910390f35b5f7f80ac58cd000000000000000000000000000000000000000000000000000000007bffffffffffffffffffffffffffffffffffffffffffffffffffffffff1916827bffffffffffffffffffffffffffffffffffffffffffffffffffffffff191614806105a157507f5b5e139f000000000000000000000000000000000000000000000000000000007bffffffffffffffffffffffffffffffffffffffffffffffffffffffff1916827bffffffffffffffffffffffffffffffffffffffffffffffffffffffff1916145b806105b157506105b082611cb5565b5b9050919050565b60605f80546105c690613128565b80601f01602080910402602001604051908101604052809291908181526020018280546105f290613128565b801561063d5780601f106106145761010080835404028352916020019161063d565b820191905f5260205f20905b81548152906001019060200180831161062057829003601f168201915b5050505050905090565b5f61065182611d1e565b5061065b82611da4565b9050919050565b610674828261066f611ddd565b611de4565b5050565b5f73ffffffffffffffffffffffffffffffffffffffff168273ffffffffffffffffffffffffffffffffffffffff16036106e8575f6040517f64a0ae920000000000000000000000000000000000000000000000000000000081526004016106df9190612bc6565b60405180910390fd5b5f6106fb83836106f6611ddd565b611df6565b90508373ffffffffffffffffffffffffffffffffffffffff168173ffffffffffffffffffffffffffffffffffffffff1614610771578382826040517f64283d7b00000000000000000000000000000000000000000000000000000000815260040161076893929190613158565b60405180910390fd5b50505050565b3073ffffffffffffffffffffffffffffffffffffffff16636352211e826040518263ffffffff1660e01b81526004016107b09190612d72565b602060405180830381865afa9250505080156107ea57506040513d601f19601f820116820180604052508101906107e791906131a1565b60015b610829576040517f08c379a000000000000000000000000000000000000000000000000000000000815260040161082090613216565b60405180910390fd5b5061083381610b47565b73ffffffffffffffffffffffffffffffffffffffff163373ffffffffffffffffffffffffffffffffffffffff16146108a0576040517f08c379a0000000000000000000000000000000000000000000000000000000008152600401610897906132a4565b60405180910390fd5b60075f8281526020019081526020015f206004015f9054906101000a900460ff16610900576040517f08c379a00000000000000000000000000000000000000000000000000000000081526004016108f79061330c565b60405180910390fd5b5f151560075f8381526020019081526020015f2060040160159054906101000a900460ff16151514610967576040517f08c379a000000000000000000000000000000000000000000000000000000000815260040161095e90613374565b60405180910390fd5b4260075f8381526020019081526020015f206002015460075f8481526020019081526020015f206001015461099c91906133bf565b116109dc576040517f08c379a00000000000000000000000000000000000000000000000000000000081526004016109d39061343c565b60405180910390fd5b600160075f8381526020019081526020015f2060040160156101000a81548160ff02191690831515021790555050565b6007602052805f5260405f205f91509050805f015490806001015490806002015490806003018054610a3d90613128565b80601f0160208091040260200160405190810160405280929190818152602001828054610a6990613128565b8015610ab45780601f10610a8b57610100808354040283529160200191610ab4565b820191905f5260205f20905b815481529060010190602001808311610a9757829003601f168201915b505050505090806004015f9054906101000a900460ff16908060040160019054906101000a900473ffffffffffffffffffffffffffffffffffffffff16908060040160159054906101000a900460ff16908060040160169054906101000a900460ff1690806005015490806006015490508a565b610b4283838360405180602001604052805f81525061131f565b505050565b5f610b5182611d1e565b9050919050565b5f8073ffffffffffffffffffffffffffffffffffffffff168273ffffffffffffffffffffffffffffffffffffffff1603610bc9575f6040517f89c62b64000000000000000000000000000000000000000000000000000000008152600401610bc09190612bc6565b60405180910390fd5b60035f8373ffffffffffffffffffffffffffffffffffffffff1673ffffffffffffffffffffffffffffffffffffffff1681526020019081526020015f20549050919050565b3073ffffffffffffffffffffffffffffffffffffffff16636352211e826040518263ffffffff1660e01b8152600401610c479190612d72565b602060405180830381865afa925050508015610c8157506040513d601f19601f82011682018060405250810190610c7e91906131a1565b60015b610cc0576040517f08c379a0000000000000000000000000000000000000000000000000000000008152600401610cb790613216565b60405180910390fd5b50610cca81610b47565b73ffffffffffffffffffffffffffffffffffffffff163373ffffffffffffffffffffffffffffffffffffffff1614610d37576040517f08c379a0000000000000000000000000000000000000000000000000000000008152600401610d2e906134ca565b60405180910390fd5b60075f8281526020019081526020015f206004015f9054906101000a900460ff16610d97576040517f08c379a0000000000000000000000000000000000000000000000000000000008152600401610d8e9061330c565b60405180910390fd5b60075f8281526020019081526020015f2060040160169054906101000a900460ff16610df8576040517f08c379a0000000000000000000000000000000000000000000000000000000008152600401610def90613532565b60405180910390fd5b60075f8281526020019081526020015f206005015442610e189190613550565b60075f8381526020019081526020015f206006018190555060075f8281526020019081526020015f206006015460075f8381526020019081526020015f206002015f828254610e6791906133bf565b925050819055505f60075f8381526020019081526020015f20600501819055505f60075f8381526020019081526020015f2060040160166101000a81548160ff02191690831515021790555050565b3073ffffffffffffffffffffffffffffffffffffffff16636352211e826040518263ffffffff1660e01b8152600401610eef9190612d72565b602060405180830381865afa925050508015610f2957506040513d601f19601f82011682018060405250810190610f2691906131a1565b60015b610f68576040517f08c379a0000000000000000000000000000000000000000000000000000000008152600401610f5f90613216565b60405180910390fd5b50610f7281610b47565b73ffffffffffffffffffffffffffffffffffffffff163373ffffffffffffffffffffffffffffffffffffffff1603610fdf576040517f08c379a0000000000000000000000000000000000000000000000000000000008152600401610fd6906135f3565b60405180910390fd5b60075f8281526020019081526020015f2060040160019054906101000a900473ffffffffffffffffffffffffffffffffffffffff1673ffffffffffffffffffffffffffffffffffffffff163373ffffffffffffffffffffffffffffffffffffffff1614611081576040517f08c379a000000000000000000000000000000000000000000000000000000000815260040161107890613681565b60405180910390fd5b60075f8281526020019081526020015f206004015f9054906101000a900460ff16156110e2576040517f08c379a00000000000000000000000000000000000000000000000000000000081526004016110d9906136e9565b60405180910390fd5b5f151560075f8381526020019081526020015f2060040160159054906101000a900460ff16151514611149576040517f08c379a000000000000000000000000000000000000000000000000000000000815260040161114090613751565b60405180910390fd5b4260075f8381526020019081526020015f206002015460075f8481526020019081526020015f206001015461117e91906133bf565b10156111bf576040517f08c379a00000000000000000000000000000000000000000000000000000000081526004016111b6906137b9565b60405180910390fd5b600160075f8381526020019081526020015f206004015f6101000a81548160ff0219169083151502179055503360075f8381526020019081526020015f2060040160016101000a81548173ffffffffffffffffffffffffffffffffffffffff021916908373ffffffffffffffffffffffffffffffffffffffff160217905550807fcd3b1fcca80f9caae633c3e13546995d3810e561957af92839f070c46571942c3360405161126e9190612bc6565b60405180910390a250565b60606001805461128890613128565b80601f01602080910402602001604051908101604052809291908181526020018280546112b490613128565b80156112ff5780601f106112d6576101008083540402835291602001916112ff565b820191905f5260205f20905b8154815290600101906020018083116112e257829003601f168201915b5050505050905090565b61131b611314611ddd565b8383612001565b5050565b61132a848484610678565b6113368484848461216a565b50505050565b5f83341015611380576040517f08c379a000000000000000000000000000000000000000000000000000000000815260040161137790613847565b60405180910390fd5b60065f81548092919061139290613865565b91905055506113a33360065461231c565b5f84346113b09190613550565b90505f8111156113ff573373ffffffffffffffffffffffffffffffffffffffff166108fc8290811502906040515f60405180830381858888f193505050501580156113fd573d5f803e3d5ffd5b505b5f6040518061014001604052808781526020014281526020018681526020018581526020015f151581526020018873ffffffffffffffffffffffffffffffffffffffff1681526020015f151581526020015f151581526020015f81526020015f81525090508060075f60065481526020019081526020015f205f820151815f0155602082015181600101556040820151816002015560608201518160030190816114a99190613a49565b506080820151816004015f6101000a81548160ff02191690831515021790555060a08201518160040160016101000a81548173ffffffffffffffffffffffffffffffffffffffff021916908373ffffffffffffffffffffffffffffffffffffffff16021790555060c08201518160040160156101000a81548160ff02191690831515021790555060e08201518160040160166101000a81548160ff021916908315150217905550610100820151816005015561012082015181600601559050507ff00d28232b285f24f2e38415deb2ceb31069e70d4505838b3911b4f02058502e60065460405161159a9190612d72565b60405180910390a160065492505050949350505050565b3073ffffffffffffffffffffffffffffffffffffffff16636352211e826040518263ffffffff1660e01b81526004016115ea9190612d72565b602060405180830381865afa92505050801561162457506040513d601f19601f8201168201806040525081019061162191906131a1565b60015b611663576040517f08c379a000000000000000000000000000000000000000000000000000000000815260040161165a90613216565b60405180910390fd5b5061166d81610b47565b73ffffffffffffffffffffffffffffffffffffffff163373ffffffffffffffffffffffffffffffffffffffff16146116da576040517f08c379a00000000000000000000000000000000000000000000000000000000081526004016116d190613b88565b60405180910390fd5b60075f8281526020019081526020015f206004015f9054906101000a900460ff1661173a576040517f08c379a00000000000000000000000000000000000000000000000000000000081526004016117319061330c565b60405180910390fd5b4260075f8381526020019081526020015f206002015460075f8481526020019081526020015f206001015461176f91906133bf565b10156117b0576040517f08c379a00000000000000000000000000000000000000000000000000000000081526004016117a7906137b9565b60405180910390fd5b60075f8281526020019081526020015f2060040160169054906101000a900460ff1615611812576040517f08c379a000000000000000000000000000000000000000000000000000000000815260040161180990613bf0565b60405180910390fd5b600160075f8381526020019081526020015f2060040160166101000a81548160ff0219169083151502179055504260075f8381526020019081526020015f206005018190555050565b606061186682611d1e565b505f61187061240f565b90505f81511161188e5760405180602001604052805f8152506118b9565b8061189884612425565b6040516020016118a9929190613c48565b6040516020818303038152906040525b915050919050565b3073ffffffffffffffffffffffffffffffffffffffff16636352211e826040518263ffffffff1660e01b81526004016118fa9190612d72565b602060405180830381865afa92505050801561193457506040513d601f19601f8201168201806040525081019061193191906131a1565b60015b611973576040517f08c379a000000000000000000000000000000000000000000000000000000000815260040161196a90613216565b60405180910390fd5b5060075f8281526020019081526020015f206004015f9054906101000a900460ff166119d4576040517f08c379a00000000000000000000000000000000000000000000000000000000081526004016119cb9061330c565b60405180910390fd5b6119dd81610b47565b73ffffffffffffffffffffffffffffffffffffffff163373ffffffffffffffffffffffffffffffffffffffff1614611a4a576040517f08c379a0000000000000000000000000000000000000000000000000000000008152600401611a4190613cdb565b60405180910390fd5b6001151560075f8381526020019081526020015f2060040160159054906101000a900460ff1615151480611ab157504260075f8381526020019081526020015f206002015460075f8481526020019081526020015f2060010154611aae91906133bf565b11155b611af0576040517f08c379a0000000000000000000000000000000000000000000000000000000008152600401611ae790613d69565b60405180910390fd5b5f151560075f8381526020019081526020015f2060040160169054906101000a900460ff16151514611b57576040517f08c379a0000000000000000000000000000000000000000000000000000000008152600401611b4e90613dd1565b60405180910390fd5b5f60075f8381526020019081526020015f2060040160019054906101000a900473ffffffffffffffffffffffffffffffffffffffff1690505f60075f8481526020019081526020015f205f015490508173ffffffffffffffffffffffffffffffffffffffff166108fc8290811502906040515f60405180830381858888f19350505050158015611be9573d5f803e3d5ffd5b50827f2b52860c5e15aa76ac91d132433549dfe5214c66e36bdb998622ab221c7477c082604051611c1a9190612d72565b60405180910390a2505050565b5f60055f8473ffffffffffffffffffffffffffffffffffffffff1673ffffffffffffffffffffffffffffffffffffffff1681526020019081526020015f205f8373ffffffffffffffffffffffffffffffffffffffff1673ffffffffffffffffffffffffffffffffffffffff1681526020019081526020015f205f9054906101000a900460ff16905092915050565b5f7f01ffc9a7000000000000000000000000000000000000000000000000000000007bffffffffffffffffffffffffffffffffffffffffffffffffffffffff1916827bffffffffffffffffffffffffffffffffffffffffffffffffffffffff1916149050919050565b5f80611d29836124ef565b90505f73ffffffffffffffffffffffffffffffffffffffff168173ffffffffffffffffffffffffffffffffffffffff1603611d9b57826040517f7e273289000000000000000000000000000000000000000000000000000000008152600401611d929190612d72565b60405180910390fd5b80915050919050565b5f60045f8381526020019081526020015f205f9054906101000a900473ffffffffffffffffffffffffffffffffffffffff169050919050565b5f33905090565b611df18383836001612528565b505050565b5f80611e01846124ef565b90505f73ffffffffffffffffffffffffffffffffffffffff168373ffffffffffffffffffffffffffffffffffffffff1614611e4257611e418184866126e7565b5b5f73ffffffffffffffffffffffffffffffffffffffff168173ffffffffffffffffffffffffffffffffffffffff1614611ecd57611e815f855f80612528565b600160035f8373ffffffffffffffffffffffffffffffffffffffff1673ffffffffffffffffffffffffffffffffffffffff1681526020019081526020015f205f82825403925050819055505b5f73ffffffffffffffffffffffffffffffffffffffff168573ffffffffffffffffffffffffffffffffffffffff1614611f4c57600160035f8773ffffffffffffffffffffffffffffffffffffffff1673ffffffffffffffffffffffffffffffffffffffff1681526020019081526020015f205f82825401925050819055505b8460025f8681526020019081526020015f205f6101000a81548173ffffffffffffffffffffffffffffffffffffffff021916908373ffffffffffffffffffffffffffffffffffffffff160217905550838573ffffffffffffffffffffffffffffffffffffffff168273ffffffffffffffffffffffffffffffffffffffff167fddf252ad1be2c89b69c2b068fc378daa952ba7f163c4a11628f55a4df523b3ef60405160405180910390a4809150509392505050565b5f73ffffffffffffffffffffffffffffffffffffffff168273ffffffffffffffffffffffffffffffffffffffff160361207157816040517f5b08ba180000000000000000000000000000000000000000000000000000000081526004016120689190612bc6565b60405180910390fd5b8060055f8573ffffffffffffffffffffffffffffffffffffffff1673ffffffffffffffffffffffffffffffffffffffff1681526020019081526020015f205f8473ffffffffffffffffffffffffffffffffffffffff1673ffffffffffffffffffffffffffffffffffffffff1681526020019081526020015f205f6101000a81548160ff0219169083151502179055508173ffffffffffffffffffffffffffffffffffffffff168373ffffffffffffffffffffffffffffffffffffffff167f17307eab39ab6107e8899845ad3d59bd9653f200f220920489ca2b5937696c318360405161215d9190612a66565b60405180910390a3505050565b5f8373ffffffffffffffffffffffffffffffffffffffff163b1115612316578273ffffffffffffffffffffffffffffffffffffffff1663150b7a026121ad611ddd565b8685856040518563ffffffff1660e01b81526004016121cf9493929190613e41565b6020604051808303815f875af192505050801561220a57506040513d601f19601f820116820180604052508101906122079190613e9f565b60015b61228b573d805f8114612238576040519150601f19603f3d011682016040523d82523d5f602084013e61223d565b606091505b505f81510361228357836040517f64a0ae9200000000000000000000000000000000000000000000000000000000815260040161227a9190612bc6565b60405180910390fd5b805181602001fd5b63150b7a0260e01b7bffffffffffffffffffffffffffffffffffffffffffffffffffffffff1916817bffffffffffffffffffffffffffffffffffffffffffffffffffffffff19161461231457836040517f64a0ae9200000000000000000000000000000000000000000000000000000000815260040161230b9190612bc6565b60405180910390fd5b505b50505050565b5f73ffffffffffffffffffffffffffffffffffffffff168273ffffffffffffffffffffffffffffffffffffffff160361238c575f6040517f64a0ae920000000000000000000000000000000000000000000000000000000081526004016123839190612bc6565b60405180910390fd5b5f61239883835f611df6565b90505f73ffffffffffffffffffffffffffffffffffffffff168173ffffffffffffffffffffffffffffffffffffffff161461240a575f6040517f73c6ac6e0000000000000000000000000000000000000000000000000000000081526004016124019190612bc6565b60405180910390fd5b505050565b606060405180602001604052805f815250905090565b60605f6001612433846127aa565b0190505f8167ffffffffffffffff81111561245157612450612dfb565b5b6040519080825280601f01601f1916602001820160405280156124835781602001600182028036833780820191505090505b5090505f82602001820190505b6001156124e4578080600190039150507f3031323334353637383961626364656600000000000000000000000000000000600a86061a8153600a85816124d9576124d8613eca565b5b0494505f8503612490575b819350505050919050565b5f60025f8381526020019081526020015f205f9054906101000a900473ffffffffffffffffffffffffffffffffffffffff169050919050565b808061256057505f73ffffffffffffffffffffffffffffffffffffffff168273ffffffffffffffffffffffffffffffffffffffff1614155b15612692575f61256f84611d1e565b90505f73ffffffffffffffffffffffffffffffffffffffff168373ffffffffffffffffffffffffffffffffffffffff16141580156125d957508273ffffffffffffffffffffffffffffffffffffffff168173ffffffffffffffffffffffffffffffffffffffff1614155b80156125ec57506125ea8184611c27565b155b1561262e57826040517fa9fbf51f0000000000000000000000000000000000000000000000000000000081526004016126259190612bc6565b60405180910390fd5b811561269057838573ffffffffffffffffffffffffffffffffffffffff168273ffffffffffffffffffffffffffffffffffffffff167f8c5be1e5ebec7d5bd14f71427d1e84f3dd0314c0f7b2291e5b200ac8c7c3b92560405160405180910390a45b505b8360045f8581526020019081526020015f205f6101000a81548173ffffffffffffffffffffffffffffffffffffffff021916908373ffffffffffffffffffffffffffffffffffffffff16021790555050505050565b6126f28383836128fb565b6127a5575f73ffffffffffffffffffffffffffffffffffffffff168373ffffffffffffffffffffffffffffffffffffffff160361276657806040517f7e27328900000000000000000000000000000000000000000000000000000000815260040161275d9190612d72565b60405180910390fd5b81816040517f177e802f00000000000000000000000000000000000000000000000000000000815260040161279c929190613ef7565b60405180910390fd5b505050565b5f805f90507a184f03e93ff9f4daa797ed6e38ed64bf6a1f0100000000000000008310612806577a184f03e93ff9f4daa797ed6e38ed64bf6a1f01000000000000000083816127fc576127fb613eca565b5b0492506040810190505b6d04ee2d6d415b85acef81000000008310612843576d04ee2d6d415b85acef8100000000838161283957612838613eca565b5b0492506020810190505b662386f26fc10000831061287257662386f26fc10000838161286857612867613eca565b5b0492506010810190505b6305f5e100831061289b576305f5e100838161289157612890613eca565b5b0492506008810190505b61271083106128c05761271083816128b6576128b5613eca565b5b0492506004810190505b606483106128e357606483816128d9576128d8613eca565b5b0492506002810190505b600a83106128f2576001810190505b80915050919050565b5f8073ffffffffffffffffffffffffffffffffffffffff168373ffffffffffffffffffffffffffffffffffffffff16141580156129b257508273ffffffffffffffffffffffffffffffffffffffff168473ffffffffffffffffffffffffffffffffffffffff16148061297357506129728484611c27565b5b806129b157508273ffffffffffffffffffffffffffffffffffffffff1661299983611da4565b73ffffffffffffffffffffffffffffffffffffffff16145b5b90509392505050565b5f604051905090565b5f80fd5b5f80fd5b5f7fffffffff0000000000000000000000000000000000000000000000000000000082169050919050565b612a00816129cc565b8114612a0a575f80fd5b50565b5f81359050612a1b816129f7565b92915050565b5f60208284031215612a3657612a356129c4565b5b5f612a4384828501612a0d565b91505092915050565b5f8115159050919050565b612a6081612a4c565b82525050565b5f602082019050612a795f830184612a57565b92915050565b5f81519050919050565b5f82825260208201905092915050565b5f5b83811015612ab6578082015181840152602081019050612a9b565b5f8484015250505050565b5f601f19601f8301169050919050565b5f612adb82612a7f565b612ae58185612a89565b9350612af5818560208601612a99565b612afe81612ac1565b840191505092915050565b5f6020820190508181035f830152612b218184612ad1565b905092915050565b5f819050919050565b612b3b81612b29565b8114612b45575f80fd5b50565b5f81359050612b5681612b32565b92915050565b5f60208284031215612b7157612b706129c4565b5b5f612b7e84828501612b48565b91505092915050565b5f73ffffffffffffffffffffffffffffffffffffffff82169050919050565b5f612bb082612b87565b9050919050565b612bc081612ba6565b82525050565b5f602082019050612bd95f830184612bb7565b92915050565b612be881612ba6565b8114612bf2575f80fd5b50565b5f81359050612c0381612bdf565b92915050565b5f8060408385031215612c1f57612c1e6129c4565b5b5f612c2c85828601612bf5565b9250506020612c3d85828601612b48565b9150509250929050565b5f805f60608486031215612c5e57612c5d6129c4565b5b5f612c6b86828701612bf5565b9350506020612c7c86828701612bf5565b9250506040612c8d86828701612b48565b9150509250925092565b612ca081612b29565b82525050565b5f61014082019050612cba5f83018d612c97565b612cc7602083018c612c97565b612cd4604083018b612c97565b8181036060830152612ce6818a612ad1565b9050612cf56080830189612a57565b612d0260a0830188612bb7565b612d0f60c0830187612a57565b612d1c60e0830186612a57565b612d2a610100830185612c97565b612d38610120830184612c97565b9b9a5050505050505050505050565b5f60208284031215612d5c57612d5b6129c4565b5b5f612d6984828501612bf5565b91505092915050565b5f602082019050612d855f830184612c97565b92915050565b612d9481612a4c565b8114612d9e575f80fd5b50565b5f81359050612daf81612d8b565b92915050565b5f8060408385031215612dcb57612dca6129c4565b5b5f612dd885828601612bf5565b9250506020612de985828601612da1565b9150509250929050565b5f80fd5b5f80fd5b7f4e487b71000000000000000000000000000000000000000000000000000000005f52604160045260245ffd5b612e3182612ac1565b810181811067ffffffffffffffff82111715612e5057612e4f612dfb565b5b80604052505050565b5f612e626129bb565b9050612e6e8282612e28565b919050565b5f67ffffffffffffffff821115612e8d57612e8c612dfb565b5b612e9682612ac1565b9050602081019050919050565b828183375f83830152505050565b5f612ec3612ebe84612e73565b612e59565b905082815260208101848484011115612edf57612ede612df7565b5b612eea848285612ea3565b509392505050565b5f82601f830112612f0657612f05612df3565b5b8135612f16848260208601612eb1565b91505092915050565b5f805f8060808587031215612f3757612f366129c4565b5b5f612f4487828801612bf5565b9450506020612f5587828801612bf5565b9350506040612f6687828801612b48565b925050606085013567ffffffffffffffff811115612f8757612f866129c8565b5b612f9387828801612ef2565b91505092959194509250565b5f67ffffffffffffffff821115612fb957612fb8612dfb565b5b612fc282612ac1565b9050602081019050919050565b5f612fe1612fdc84612f9f565b612e59565b905082815260208101848484011115612ffd57612ffc612df7565b5b613008848285612ea3565b509392505050565b5f82601f83011261302457613023612df3565b5b8135613034848260208601612fcf565b91505092915050565b5f805f8060808587031215613055576130546129c4565b5b5f61306287828801612bf5565b945050602061307387828801612b48565b935050604061308487828801612b48565b925050606085013567ffffffffffffffff8111156130a5576130a46129c8565b5b6130b187828801613010565b91505092959194509250565b5f80604083850312156130d3576130d26129c4565b5b5f6130e085828601612bf5565b92505060206130f185828601612bf5565b9150509250929050565b7f4e487b71000000000000000000000000000000000000000000000000000000005f52602260045260245ffd5b5f600282049050600182168061313f57607f821691505b602082108103613152576131516130fb565b5b50919050565b5f60608201905061316b5f830186612bb7565b6131786020830185612c97565b6131856040830184612bb7565b949350505050565b5f8151905061319b81612bdf565b92915050565b5f602082840312156131b6576131b56129c4565b5b5f6131c38482850161318d565b91505092915050565b7f456c20746f6b656e206e6f206578697374652e000000000000000000000000005f82015250565b5f613200601383612a89565b915061320b826131cc565b602082019050919050565b5f6020820190508181035f83015261322d816131f4565b9050919050565b7f536f6c6f20656c2070726f706965746172696f2070756564652066696e616c695f8201527f7a617220656c20636f6e747261746f0000000000000000000000000000000000602082015250565b5f61328e602f83612a89565b915061329982613234565b604082019050919050565b5f6020820190508181035f8301526132bb81613282565b9050919050565b7f456c20636f6e747261746f206e6f206861207369646f206669726d61646f00005f82015250565b5f6132f6601e83612a89565b9150613301826132c2565b602082019050919050565b5f6020820190508181035f830152613323816132ea565b9050919050565b7f456c20636f6e747261746f2079612068612066696e616c697a61646f000000005f82015250565b5f61335e601c83612a89565b91506133698261332a565b602082019050919050565b5f6020820190508181035f83015261338b81613352565b9050919050565b7f4e487b71000000000000000000000000000000000000000000000000000000005f52601160045260245ffd5b5f6133c982612b29565b91506133d483612b29565b92508282019050808211156133ec576133eb613392565b5b92915050565b7f456c20636f6e747261746f20796120686120657870697261646f0000000000005f82015250565b5f613426601a83612a89565b9150613431826133f2565b602082019050919050565b5f6020820190508181035f8301526134538161341a565b9050919050565b7f536f6c6f20656c2070726f706965746172696f207075656465206465737061755f8201527f73617220656c20636f6e747261746f0000000000000000000000000000000000602082015250565b5f6134b4602f83612a89565b91506134bf8261345a565b604082019050919050565b5f6020820190508181035f8301526134e1816134a8565b9050919050565b7f456c20636f6e747261746f206e6f2065737461207061757361646f00000000005f82015250565b5f61351c601b83612a89565b9150613527826134e8565b602082019050919050565b5f6020820190508181035f83015261354981613510565b9050919050565b5f61355a82612b29565b915061356583612b29565b925082820390508181111561357d5761357c613392565b5b92915050565b7f4e6f20707565646573206669726d61722074752070726f70696f20636f6e74725f8201527f61746f0000000000000000000000000000000000000000000000000000000000602082015250565b5f6135dd602383612a89565b91506135e882613583565b604082019050919050565b5f6020820190508181035f83015261360a816135d1565b9050919050565b7f536f6c6f20656c2074726162616a61646f72207075656465206669726d6172205f8201527f656c20636f6e747261746f000000000000000000000000000000000000000000602082015250565b5f61366b602b83612a89565b915061367682613611565b604082019050919050565b5f6020820190508181035f8301526136988161365f565b9050919050565b7f456c20636f6e747261746f207961206861207369646f206669726d61646f00005f82015250565b5f6136d3601e83612a89565b91506136de8261369f565b602082019050919050565b5f6020820190508181035f830152613700816136c7565b9050919050565b7f456c20636f6e747261746f2068612066696e616c697a61646f000000000000005f82015250565b5f61373b601983612a89565b915061374682613707565b602082019050919050565b5f6020820190508181035f8301526137688161372f565b9050919050565b7f456c20636f6e747261746f20686120657870697261646f0000000000000000005f82015250565b5f6137a3601783612a89565b91506137ae8261376f565b602082019050919050565b5f6020820190508181035f8301526137d081613797565b9050919050565b7f4465646520656e7669617220656c2073616c6172696f20636f6d6f2076616c6f5f8201527f722064656c20636f6e747261746f000000000000000000000000000000000000602082015250565b5f613831602e83612a89565b915061383c826137d7565b604082019050919050565b5f6020820190508181035f83015261385e81613825565b9050919050565b5f61386f82612b29565b91507fffffffffffffffffffffffffffffffffffffffffffffffffffffffffffffffff82036138a1576138a0613392565b5b600182019050919050565b5f819050815f5260205f209050919050565b5f6020601f8301049050919050565b5f82821b905092915050565b5f600883026139087fffffffffffffffffffffffffffffffffffffffffffffffffffffffffffffffff826138cd565b61391286836138cd565b95508019841693508086168417925050509392505050565b5f819050919050565b5f61394d61394861394384612b29565b61392a565b612b29565b9050919050565b5f819050919050565b61396683613933565b61397a61397282613954565b8484546138d9565b825550505050565b5f90565b61398e613982565b61399981848461395d565b505050565b5b818110156139bc576139b15f82613986565b60018101905061399f565b5050565b601f821115613a01576139d2816138ac565b6139db846138be565b810160208510156139ea578190505b6139fe6139f6856138be565b83018261399e565b50505b505050565b5f82821c905092915050565b5f613a215f1984600802613a06565b1980831691505092915050565b5f613a398383613a12565b9150826002028217905092915050565b613a5282612a7f565b67ffffffffffffffff811115613a6b57613a6a612dfb565b5b613a758254613128565b613a808282856139c0565b5f60209050601f831160018114613ab1575f8415613a9f578287015190505b613aa98582613a2e565b865550613b10565b601f198416613abf866138ac565b5f5b82811015613ae657848901518255600182019150602085019450602081019050613ac1565b86831015613b035784890151613aff601f891682613a12565b8355505b6001600288020188555050505b505050505050565b7f536f6c6f20656c2070726f706965746172696f207075656465207061757361725f8201527f20656c20636f6e747261746f0000000000000000000000000000000000000000602082015250565b5f613b72602c83612a89565b9150613b7d82613b18565b604082019050919050565b5f6020820190508181035f830152613b9f81613b66565b9050919050565b7f456c20636f6e747261746f2079612065737461207061757361646f00000000005f82015250565b5f613bda601b83612a89565b9150613be582613ba6565b602082019050919050565b5f6020820190508181035f830152613c0781613bce565b9050919050565b5f81905092915050565b5f613c2282612a7f565b613c2c8185613c0e565b9350613c3c818560208601612a99565b80840191505092915050565b5f613c538285613c18565b9150613c5f8284613c18565b91508190509392505050565b7f536f6c6f20656c2070726f706965746172696f207075656465206c69626572615f8201527f7220656c2073616c6172696f0000000000000000000000000000000000000000602082015250565b5f613cc5602c83612a89565b9150613cd082613c6b565b604082019050919050565b5f6020820190508181035f830152613cf281613cb9565b9050919050565b7f456c20636f6e747261746f206e6f20686120657870697261646f2061756e206f5f8201527f206e6f2068612066696e616c697a61646f000000000000000000000000000000602082015250565b5f613d53603183612a89565b9150613d5e82613cf9565b604082019050919050565b5f6020820190508181035f830152613d8081613d47565b9050919050565b7f456c20636f6e747261746f2065737461207061757361646f00000000000000005f82015250565b5f613dbb601883612a89565b9150613dc682613d87565b602082019050919050565b5f6020820190508181035f830152613de881613daf565b9050919050565b5f81519050919050565b5f82825260208201905092915050565b5f613e1382613def565b613e1d8185613df9565b9350613e2d818560208601612a99565b613e3681612ac1565b840191505092915050565b5f608082019050613e545f830187612bb7565b613e616020830186612bb7565b613e6e6040830185612c97565b8181036060830152613e808184613e09565b905095945050505050565b5f81519050613e99816129f7565b92915050565b5f60208284031215613eb457613eb36129c4565b5b5f613ec184828501613e8b565b91505092915050565b7f4e487b71000000000000000000000000000000000000000000000000000000005f52601260045260245ffd5b5f604082019050613f0a5f830185612bb7565b613f176020830184612c97565b939250505056fea26469706673582212207d3e9cfc721e52f33b1f69cf4fe0a39e8288d35db7b774c4c74a42cb7c54673b64736f6c63430008140033",
  "immutableReferences": {},
  "source": "// SPDX-License-Identifier: MIT\r\npragma solidity ^0.8.20;\r\n\r\nimport \"@openzeppelin/contracts/token/ERC721/ERC721.sol\";\r\n\r\ncontract MyContract is ERC721 {\r\n    uint256 tokenID;\r\n    mapping(uint256 => ContractDetails) public contractDetails;\r\n    event ContractSigned(uint256 indexed tokenId, address worker);\r\n    event SalaryReleased(uint256 indexed tokenId, uint256 salary);\r\n    event TokenMinted(uint256 tokenId);\r\n    struct ContractDetails {\r\n        uint256 salary;\r\n        uint256 startDate;\r\n        uint256 duration;\r\n        string description;\r\n        bool isSigned;\r\n        address worker;\r\n        bool isFinished;\r\n        bool isPaused;\r\n        uint256 pauseTime;\r\n        uint256 pauseDuration;\r\n    }\r\n\r\n    constructor() ERC721(\"MyToken\", \"MTK\") {}\r\n\r\n    function mint(\r\n        address _to,\r\n        uint256 _salary,\r\n        uint256 _duration,\r\n        string memory _description\r\n    ) public payable returns (uint256) {\r\n        require(\r\n            msg.value >= _salary,\r\n            \"Dede enviar el salario como valor del contrato\"\r\n        );\r\n        tokenID++;\r\n        _mint(msg.sender, tokenID);\r\n        uint256 remainder = msg.value - _salary;\r\n        if (remainder > 0) {\r\n            payable(msg.sender).transfer(remainder);\r\n        }\r\n\r\n        ContractDetails memory newContract = ContractDetails({\r\n            salary: _salary,\r\n            startDate: block.timestamp, // en segundos\r\n            duration: _duration,\r\n            description: _description,\r\n            isSigned: false,\r\n            worker: _to,\r\n            isFinished: false,\r\n            isPaused: false,\r\n            pauseTime: 0,\r\n            pauseDuration: 0\r\n        });\r\n\r\n        contractDetails[tokenID] = newContract;\r\n        emit TokenMinted(tokenID);\r\n\r\n        return tokenID;\r\n    }\r\n\r\n    function signContract(uint256 _tokenID) public {\r\n        try this.ownerOf(_tokenID) {} catch {\r\n            revert(\"El token no existe.\"); // he intentado hacerlo con _exists pero no me ha funcionado\r\n        }\r\n        require(\r\n            msg.sender != ownerOf(_tokenID),\r\n            \"No puedes firmar tu propio contrato\"\r\n        );\r\n        require(\r\n            msg.sender == contractDetails[_tokenID].worker,\r\n            \"Solo el trabajador puede firmar el contrato\"\r\n        );\r\n        require(\r\n            !contractDetails[_tokenID].isSigned,\r\n            \"El contrato ya ha sido firmado\"\r\n        );\r\n        require(\r\n            contractDetails[_tokenID].isFinished == false,\r\n            \"El contrato ha finalizado\"\r\n        );\r\n        require(\r\n            contractDetails[_tokenID].startDate +\r\n                contractDetails[_tokenID].duration >=\r\n                block.timestamp,\r\n            \"El contrato ha expirado\"\r\n        );\r\n\r\n        contractDetails[_tokenID].isSigned = true;\r\n        contractDetails[_tokenID].worker = msg.sender;\r\n        emit ContractSigned(_tokenID, msg.sender);\r\n    }\r\n\r\n    function releaseSalary(uint256 _tokenID) public payable {\r\n        try this.ownerOf(_tokenID) {} catch {\r\n            revert(\"El token no existe.\"); // he intentado hacerlo con _exists pero no me ha funcionado\r\n        }\r\n        require(\r\n            contractDetails[_tokenID].isSigned,\r\n            \"El contrato no ha sido firmado\"\r\n        );\r\n        require(\r\n            msg.sender == ownerOf(_tokenID),\r\n            \"Solo el propietario puede liberar el salario\"\r\n        );\r\n        require(\r\n            contractDetails[_tokenID].isFinished == true ||\r\n                contractDetails[_tokenID].startDate +\r\n                    contractDetails[_tokenID].duration <=\r\n                block.timestamp,\r\n            \"El contrato no ha expirado aun o no ha finalizado\"\r\n        );\r\n        require(\r\n            contractDetails[_tokenID].isPaused == false,\r\n            \"El contrato esta pausado\"\r\n        );\r\n\r\n        address payable worker = payable(contractDetails[_tokenID].worker);\r\n        uint256 salary = contractDetails[_tokenID].salary;\r\n        worker.transfer(salary);\r\n        emit SalaryReleased(_tokenID, salary);\r\n    }\r\n\r\n    function finalizeContract(uint256 _tokenID) public {\r\n        try this.ownerOf(_tokenID) {} catch {\r\n            revert(\"El token no existe.\"); // he intentado hacerlo con _exists pero no me ha funcionado\r\n        }\r\n        require(\r\n            msg.sender == ownerOf(_tokenID),\r\n            \"Solo el propietario puede finalizar el contrato\"\r\n        );\r\n        require(\r\n            contractDetails[_tokenID].isSigned,\r\n            \"El contrato no ha sido firmado\"\r\n        );\r\n        require(\r\n            contractDetails[_tokenID].isFinished == false,\r\n            \"El contrato ya ha finalizado\"\r\n        );\r\n        require(\r\n            contractDetails[_tokenID].startDate +\r\n                contractDetails[_tokenID].duration >\r\n                block.timestamp,\r\n            \"El contrato ya ha expirado\"\r\n        );\r\n\r\n        contractDetails[_tokenID].isFinished = true;\r\n    }\r\n\r\n    function pauseContract(uint256 _tokenID) public {\r\n        try this.ownerOf(_tokenID) {} catch {\r\n            revert(\"El token no existe.\"); // he intentado hacerlo con _exists pero no me ha funcionado\r\n        }\r\n        require(\r\n            msg.sender == ownerOf(_tokenID),\r\n            \"Solo el propietario puede pausar el contrato\"\r\n        );\r\n        require(\r\n            contractDetails[_tokenID].isSigned,\r\n            \"El contrato no ha sido firmado\"\r\n        );\r\n        require(\r\n            contractDetails[_tokenID].startDate +\r\n                contractDetails[_tokenID].duration >=\r\n                block.timestamp,\r\n            \"El contrato ha expirado\"\r\n        );\r\n        require(\r\n            !contractDetails[_tokenID].isPaused,\r\n            \"El contrato ya esta pausado\"\r\n        );\r\n\r\n        contractDetails[_tokenID].isPaused = true;\r\n        contractDetails[_tokenID].pauseTime = block.timestamp;\r\n    }\r\n\r\n    function unPauseContract(uint256 _tokenID) public {\r\n        try this.ownerOf(_tokenID) {} catch {\r\n            revert(\"El token no existe.\"); // he intentado hacerlo con _exists pero no me ha funcionado\r\n        }\r\n        require(\r\n            msg.sender == ownerOf(_tokenID),\r\n            \"Solo el propietario puede despausar el contrato\"\r\n        );\r\n        require(\r\n            contractDetails[_tokenID].isSigned,\r\n            \"El contrato no ha sido firmado\"\r\n        );\r\n        require(\r\n            contractDetails[_tokenID].isPaused,\r\n            \"El contrato no esta pausado\"\r\n        );\r\n\r\n        contractDetails[_tokenID].pauseDuration =\r\n            block.timestamp -\r\n            contractDetails[_tokenID].pauseTime;\r\n\r\n        contractDetails[_tokenID].duration += contractDetails[_tokenID]\r\n            .pauseDuration;\r\n\r\n        contractDetails[_tokenID].pauseTime = 0;\r\n        contractDetails[_tokenID].isPaused = false;\r\n    }\r\n\r\n    //Funcion para dar permisos a otro dueo del contrato que pueda manejarlo en caso de que el dueo original no pueda\r\n    //Funcion para cancelar un contrato que no haya sido firmado\r\n    //Funcion para modificar un contrato que no haya sido firmado\r\n    //Funcion para modificar un contrato que haya sido firmado con la aprobacin del trabajador\r\n    //funcion para abrir un disputa en un contrato activo. Tanto como trabajador como como empleador\r\n    //funcion para analis: que permita saber el salario medio, el numero de contratos firmados, el numero de contratos activos, el numero de contratos cancelados, el numero de contratos finalizados, el numero de contratos en disputa, el numero de contratos que han expirado\r\n    //Fucnion que penalice a un trabajador que no haya cumplido con el contrato\r\n}\r\n",
  "sourcePath": "E:\\AppContract\\ubu-contractme\\Code\\SmartContract\\contracts\\MyContract.sol",
  "compiler": {
    "name": "solc",
    "version": "0.8.20+commit.a1b79de6.Emscripten.clang"
  },
  "schemaVersion": "3.4.16",
  "updatedAt": "2023-12-21T19:20:43.017Z",
  "networkType": "ethereum",
  "devdoc": {
    "errors": {
      "ERC721IncorrectOwner(address,uint256,address)": [
        {
          "details": "Indicates an error related to the ownership over a particular token. Used in transfers.",
          "params": {
            "owner": "Address of the current owner of a token.",
            "sender": "Address whose tokens are being transferred.",
            "tokenId": "Identifier number of a token."
          }
        }
      ],
      "ERC721InsufficientApproval(address,uint256)": [
        {
          "details": "Indicates a failure with the `operator`s approval. Used in transfers.",
          "params": {
            "operator": "Address that may be allowed to operate on tokens without being their owner.",
            "tokenId": "Identifier number of a token."
          }
        }
      ],
      "ERC721InvalidApprover(address)": [
        {
          "details": "Indicates a failure with the `approver` of a token to be approved. Used in approvals.",
          "params": {
            "approver": "Address initiating an approval operation."
          }
        }
      ],
      "ERC721InvalidOperator(address)": [
        {
          "details": "Indicates a failure with the `operator` to be approved. Used in approvals.",
          "params": {
            "operator": "Address that may be allowed to operate on tokens without being their owner."
          }
        }
      ],
      "ERC721InvalidOwner(address)": [
        {
          "details": "Indicates that an address can't be an owner. For example, `address(0)` is a forbidden owner in EIP-20. Used in balance queries.",
          "params": {
            "owner": "Address of the current owner of a token."
          }
        }
      ],
      "ERC721InvalidReceiver(address)": [
        {
          "details": "Indicates a failure with the token `receiver`. Used in transfers.",
          "params": {
            "receiver": "Address to which tokens are being transferred."
          }
        }
      ],
      "ERC721InvalidSender(address)": [
        {
          "details": "Indicates a failure with the token `sender`. Used in transfers.",
          "params": {
            "sender": "Address whose tokens are being transferred."
          }
        }
      ],
      "ERC721NonexistentToken(uint256)": [
        {
          "details": "Indicates a `tokenId` whose `owner` is the zero address.",
          "params": {
            "tokenId": "Identifier number of a token."
          }
        }
      ]
    },
    "events": {
      "Approval(address,address,uint256)": {
        "details": "Emitted when `owner` enables `approved` to manage the `tokenId` token."
      },
      "ApprovalForAll(address,address,bool)": {
        "details": "Emitted when `owner` enables or disables (`approved`) `operator` to manage all of its assets."
      },
      "Transfer(address,address,uint256)": {
        "details": "Emitted when `tokenId` token is transferred from `from` to `to`."
      }
    },
    "kind": "dev",
    "methods": {
      "approve(address,uint256)": {
        "details": "See {IERC721-approve}."
      },
      "balanceOf(address)": {
        "details": "See {IERC721-balanceOf}."
      },
      "getApproved(uint256)": {
        "details": "See {IERC721-getApproved}."
      },
      "isApprovedForAll(address,address)": {
        "details": "See {IERC721-isApprovedForAll}."
      },
      "name()": {
        "details": "See {IERC721Metadata-name}."
      },
      "ownerOf(uint256)": {
        "details": "See {IERC721-ownerOf}."
      },
      "safeTransferFrom(address,address,uint256)": {
        "details": "See {IERC721-safeTransferFrom}."
      },
      "safeTransferFrom(address,address,uint256,bytes)": {
        "details": "See {IERC721-safeTransferFrom}."
      },
      "setApprovalForAll(address,bool)": {
        "details": "See {IERC721-setApprovalForAll}."
      },
      "supportsInterface(bytes4)": {
        "details": "See {IERC165-supportsInterface}."
      },
      "symbol()": {
        "details": "See {IERC721Metadata-symbol}."
      },
      "tokenURI(uint256)": {
        "details": "See {IERC721Metadata-tokenURI}."
      },
      "transferFrom(address,address,uint256)": {
        "details": "See {IERC721-transferFrom}."
      }
    },
    "version": 1
  },
  "userdoc": {
    "kind": "user",
    "methods": {},
    "version": 1
  }
}