{
  "contractName": "MyContract",
  "abi": [
    {
      "inputs": [],
      "stateMutability": "nonpayable",
      "type": "constructor"
    },
    {
      "inputs": [
        {
          "internalType": "address",
          "name": "sender",
          "type": "address"
        },
        {
          "internalType": "uint256",
          "name": "tokenId",
          "type": "uint256"
        },
        {
          "internalType": "address",
          "name": "owner",
          "type": "address"
        }
      ],
      "name": "ERC721IncorrectOwner",
      "type": "error"
    },
    {
      "inputs": [
        {
          "internalType": "address",
          "name": "operator",
          "type": "address"
        },
        {
          "internalType": "uint256",
          "name": "tokenId",
          "type": "uint256"
        }
      ],
      "name": "ERC721InsufficientApproval",
      "type": "error"
    },
    {
      "inputs": [
        {
          "internalType": "address",
          "name": "approver",
          "type": "address"
        }
      ],
      "name": "ERC721InvalidApprover",
      "type": "error"
    },
    {
      "inputs": [
        {
          "internalType": "address",
          "name": "operator",
          "type": "address"
        }
      ],
      "name": "ERC721InvalidOperator",
      "type": "error"
    },
    {
      "inputs": [
        {
          "internalType": "address",
          "name": "owner",
          "type": "address"
        }
      ],
      "name": "ERC721InvalidOwner",
      "type": "error"
    },
    {
      "inputs": [
        {
          "internalType": "address",
          "name": "receiver",
          "type": "address"
        }
      ],
      "name": "ERC721InvalidReceiver",
      "type": "error"
    },
    {
      "inputs": [
        {
          "internalType": "address",
          "name": "sender",
          "type": "address"
        }
      ],
      "name": "ERC721InvalidSender",
      "type": "error"
    },
    {
      "inputs": [
        {
          "internalType": "uint256",
          "name": "tokenId",
          "type": "uint256"
        }
      ],
      "name": "ERC721NonexistentToken",
      "type": "error"
    },
    {
      "anonymous": false,
      "inputs": [
        {
          "indexed": true,
          "internalType": "address",
          "name": "owner",
          "type": "address"
        },
        {
          "indexed": true,
          "internalType": "address",
          "name": "approved",
          "type": "address"
        },
        {
          "indexed": true,
          "internalType": "uint256",
          "name": "tokenId",
          "type": "uint256"
        }
      ],
      "name": "Approval",
      "type": "event"
    },
    {
      "anonymous": false,
      "inputs": [
        {
          "indexed": true,
          "internalType": "address",
          "name": "owner",
          "type": "address"
        },
        {
          "indexed": true,
          "internalType": "address",
          "name": "operator",
          "type": "address"
        },
        {
          "indexed": false,
          "internalType": "bool",
          "name": "approved",
          "type": "bool"
        }
      ],
      "name": "ApprovalForAll",
      "type": "event"
    },
    {
      "anonymous": false,
      "inputs": [
        {
          "indexed": true,
          "internalType": "uint256",
          "name": "tokenId",
          "type": "uint256"
        }
      ],
      "name": "ContractCancelled",
      "type": "event"
    },
    {
      "anonymous": false,
      "inputs": [
        {
          "indexed": true,
          "internalType": "uint256",
          "name": "tokenId",
          "type": "uint256"
        },
        {
          "indexed": false,
          "internalType": "address",
          "name": "worker",
          "type": "address"
        }
      ],
      "name": "ContractSigned",
      "type": "event"
    },
    {
      "anonymous": false,
      "inputs": [
        {
          "indexed": true,
          "internalType": "uint256",
          "name": "tokenId",
          "type": "uint256"
        },
        {
          "indexed": false,
          "internalType": "uint256",
          "name": "salary",
          "type": "uint256"
        }
      ],
      "name": "SalaryReleased",
      "type": "event"
    },
    {
      "anonymous": false,
      "inputs": [
        {
          "indexed": false,
          "internalType": "uint256",
          "name": "tokenId",
          "type": "uint256"
        }
      ],
      "name": "TokenMinted",
      "type": "event"
    },
    {
      "anonymous": false,
      "inputs": [
        {
          "indexed": true,
          "internalType": "address",
          "name": "from",
          "type": "address"
        },
        {
          "indexed": true,
          "internalType": "address",
          "name": "to",
          "type": "address"
        },
        {
          "indexed": true,
          "internalType": "uint256",
          "name": "tokenId",
          "type": "uint256"
        }
      ],
      "name": "Transfer",
      "type": "event"
    },
    {
      "inputs": [
        {
          "internalType": "address",
          "name": "to",
          "type": "address"
        },
        {
          "internalType": "uint256",
          "name": "tokenId",
          "type": "uint256"
        }
      ],
      "name": "approve",
      "outputs": [],
      "stateMutability": "nonpayable",
      "type": "function"
    },
    {
      "inputs": [
        {
          "internalType": "address",
          "name": "owner",
          "type": "address"
        }
      ],
      "name": "balanceOf",
      "outputs": [
        {
          "internalType": "uint256",
          "name": "",
          "type": "uint256"
        }
      ],
      "stateMutability": "view",
      "type": "function",
      "constant": true
    },
    {
      "inputs": [
        {
          "internalType": "uint256",
          "name": "",
          "type": "uint256"
        }
      ],
      "name": "contractDetails",
      "outputs": [
        {
          "internalType": "uint256",
          "name": "salary",
          "type": "uint256"
        },
        {
          "internalType": "uint256",
          "name": "startDate",
          "type": "uint256"
        },
        {
          "internalType": "uint256",
          "name": "duration",
          "type": "uint256"
        },
        {
          "internalType": "string",
          "name": "description",
          "type": "string"
        },
        {
          "internalType": "bool",
          "name": "isSigned",
          "type": "bool"
        },
        {
          "internalType": "address",
          "name": "worker",
          "type": "address"
        },
        {
          "internalType": "bool",
          "name": "isFinished",
          "type": "bool"
        },
        {
          "internalType": "bool",
          "name": "isCancelled",
          "type": "bool"
        },
        {
          "internalType": "bool",
          "name": "isPaused",
          "type": "bool"
        },
        {
          "internalType": "uint256",
          "name": "pauseTime",
          "type": "uint256"
        },
        {
          "internalType": "uint256",
          "name": "pauseDuration",
          "type": "uint256"
        }
      ],
      "stateMutability": "view",
      "type": "function",
      "constant": true
    },
    {
      "inputs": [
        {
          "internalType": "uint256",
          "name": "tokenId",
          "type": "uint256"
        }
      ],
      "name": "getApproved",
      "outputs": [
        {
          "internalType": "address",
          "name": "",
          "type": "address"
        }
      ],
      "stateMutability": "view",
      "type": "function",
      "constant": true
    },
    {
      "inputs": [
        {
          "internalType": "address",
          "name": "owner",
          "type": "address"
        },
        {
          "internalType": "address",
          "name": "operator",
          "type": "address"
        }
      ],
      "name": "isApprovedForAll",
      "outputs": [
        {
          "internalType": "bool",
          "name": "",
          "type": "bool"
        }
      ],
      "stateMutability": "view",
      "type": "function",
      "constant": true
    },
    {
      "inputs": [],
      "name": "name",
      "outputs": [
        {
          "internalType": "string",
          "name": "",
          "type": "string"
        }
      ],
      "stateMutability": "view",
      "type": "function",
      "constant": true
    },
    {
      "inputs": [
        {
          "internalType": "uint256",
          "name": "tokenId",
          "type": "uint256"
        }
      ],
      "name": "ownerOf",
      "outputs": [
        {
          "internalType": "address",
          "name": "",
          "type": "address"
        }
      ],
      "stateMutability": "view",
      "type": "function",
      "constant": true
    },
    {
      "inputs": [
        {
          "internalType": "address",
          "name": "from",
          "type": "address"
        },
        {
          "internalType": "address",
          "name": "to",
          "type": "address"
        },
        {
          "internalType": "uint256",
          "name": "tokenId",
          "type": "uint256"
        }
      ],
      "name": "safeTransferFrom",
      "outputs": [],
      "stateMutability": "nonpayable",
      "type": "function"
    },
    {
      "inputs": [
        {
          "internalType": "address",
          "name": "from",
          "type": "address"
        },
        {
          "internalType": "address",
          "name": "to",
          "type": "address"
        },
        {
          "internalType": "uint256",
          "name": "tokenId",
          "type": "uint256"
        },
        {
          "internalType": "bytes",
          "name": "data",
          "type": "bytes"
        }
      ],
      "name": "safeTransferFrom",
      "outputs": [],
      "stateMutability": "nonpayable",
      "type": "function"
    },
    {
      "inputs": [
        {
          "internalType": "address",
          "name": "operator",
          "type": "address"
        },
        {
          "internalType": "bool",
          "name": "approved",
          "type": "bool"
        }
      ],
      "name": "setApprovalForAll",
      "outputs": [],
      "stateMutability": "nonpayable",
      "type": "function"
    },
    {
      "inputs": [
        {
          "internalType": "bytes4",
          "name": "interfaceId",
          "type": "bytes4"
        }
      ],
      "name": "supportsInterface",
      "outputs": [
        {
          "internalType": "bool",
          "name": "",
          "type": "bool"
        }
      ],
      "stateMutability": "view",
      "type": "function",
      "constant": true
    },
    {
      "inputs": [],
      "name": "symbol",
      "outputs": [
        {
          "internalType": "string",
          "name": "",
          "type": "string"
        }
      ],
      "stateMutability": "view",
      "type": "function",
      "constant": true
    },
    {
      "inputs": [
        {
          "internalType": "uint256",
          "name": "tokenId",
          "type": "uint256"
        }
      ],
      "name": "tokenURI",
      "outputs": [
        {
          "internalType": "string",
          "name": "",
          "type": "string"
        }
      ],
      "stateMutability": "view",
      "type": "function",
      "constant": true
    },
    {
      "inputs": [
        {
          "internalType": "address",
          "name": "from",
          "type": "address"
        },
        {
          "internalType": "address",
          "name": "to",
          "type": "address"
        },
        {
          "internalType": "uint256",
          "name": "tokenId",
          "type": "uint256"
        }
      ],
      "name": "transferFrom",
      "outputs": [],
      "stateMutability": "nonpayable",
      "type": "function"
    },
    {
      "inputs": [
        {
          "internalType": "address",
          "name": "_to",
          "type": "address"
        },
        {
          "internalType": "uint256",
          "name": "_salary",
          "type": "uint256"
        },
        {
          "internalType": "uint256",
          "name": "_duration",
          "type": "uint256"
        },
        {
          "internalType": "string",
          "name": "_description",
          "type": "string"
        }
      ],
      "name": "mint",
      "outputs": [
        {
          "internalType": "uint256",
          "name": "",
          "type": "uint256"
        }
      ],
      "stateMutability": "payable",
      "type": "function",
      "payable": true
    },
    {
      "inputs": [
        {
          "internalType": "uint256",
          "name": "_tokenID",
          "type": "uint256"
        }
      ],
      "name": "signContract",
      "outputs": [],
      "stateMutability": "nonpayable",
      "type": "function"
    },
    {
      "inputs": [
        {
          "internalType": "uint256",
          "name": "_tokenID",
          "type": "uint256"
        }
      ],
      "name": "releaseSalary",
      "outputs": [],
      "stateMutability": "payable",
      "type": "function",
      "payable": true
    },
    {
      "inputs": [
        {
          "internalType": "uint256",
          "name": "_tokenID",
          "type": "uint256"
        }
      ],
      "name": "finalizeContract",
      "outputs": [],
      "stateMutability": "nonpayable",
      "type": "function"
    },
    {
      "inputs": [
        {
          "internalType": "uint256",
          "name": "_tokenID",
          "type": "uint256"
        }
      ],
      "name": "pauseContract",
      "outputs": [],
      "stateMutability": "nonpayable",
      "type": "function"
    },
    {
      "inputs": [
        {
          "internalType": "uint256",
          "name": "_tokenID",
          "type": "uint256"
        }
      ],
      "name": "unPauseContract",
      "outputs": [],
      "stateMutability": "nonpayable",
      "type": "function"
    },
    {
      "inputs": [
        {
          "internalType": "uint256",
          "name": "_tokenID",
          "type": "uint256"
        }
      ],
      "name": "cancelContract",
      "outputs": [],
      "stateMutability": "nonpayable",
      "type": "function"
    }
  ],
  "bytecode": "0x608060405234801562000010575f80fd5b506040518060400160405280600781526020017f4d79546f6b656e000000000000000000000000000000000000000000000000008152506040518060400160405280600381526020017f4d544b0000000000000000000000000000000000000000000000000000000000815250815f90816200008d91906200030c565b5080600190816200009f91906200030c565b505050620003f0565b5f81519050919050565b7f4e487b71000000000000000000000000000000000000000000000000000000005f52604160045260245ffd5b7f4e487b71000000000000000000000000000000000000000000000000000000005f52602260045260245ffd5b5f60028204905060018216806200012457607f821691505b6020821081036200013a5762000139620000df565b5b50919050565b5f819050815f5260205f209050919050565b5f6020601f8301049050919050565b5f82821b905092915050565b5f600883026200019e7fffffffffffffffffffffffffffffffffffffffffffffffffffffffffffffffff8262000161565b620001aa868362000161565b95508019841693508086168417925050509392505050565b5f819050919050565b5f819050919050565b5f620001f4620001ee620001e884620001c2565b620001cb565b620001c2565b9050919050565b5f819050919050565b6200020f83620001d4565b620002276200021e82620001fb565b8484546200016d565b825550505050565b5f90565b6200023d6200022f565b6200024a81848462000204565b505050565b5b818110156200027157620002655f8262000233565b60018101905062000250565b5050565b601f821115620002c0576200028a8162000140565b620002958462000152565b81016020851015620002a5578190505b620002bd620002b48562000152565b8301826200024f565b50505b505050565b5f82821c905092915050565b5f620002e25f1984600802620002c5565b1980831691505092915050565b5f620002fc8383620002d1565b9150826002028217905092915050565b6200031782620000a8565b67ffffffffffffffff811115620003335762000332620000b2565b5b6200033f82546200010c565b6200034c82828562000275565b5f60209050601f83116001811462000382575f84156200036d578287015190505b620003798582620002ef565b865550620003e8565b601f198416620003928662000140565b5f5b82811015620003bb5784890151825560018201915060208501945060208101905062000394565b86831015620003db5784890151620003d7601f891682620002d1565b8355505b6001600288020188555050505b505050505050565b6143d680620003fe5f395ff3fe608060405260043610610129575f3560e01c806370a08231116100aa578063b88d4fde1161006e578063b88d4fde146103f7578063bb7fde711461041f578063c2852f381461044f578063c87b56dd14610477578063e2c07c7b146104b3578063e985e9c5146104cf57610129565b806370a082311461031957806389b83d3e146103555780639537e8d11461037d57806395d89b41146103a5578063a22cb465146103cf57610129565b806328047450116100f1578063280474501461021f5780632907eb16146102475780633330a55f1461026f57806342842e0e146102b55780636352211e146102dd57610129565b806301ffc9a71461012d57806306fdde0314610169578063081812fc14610193578063095ea7b3146101cf57806323b872dd146101f7575b5f80fd5b348015610138575f80fd5b50610153600480360381019061014e9190612d9e565b61050b565b6040516101609190612de3565b60405180910390f35b348015610174575f80fd5b5061017d6105ec565b60405161018a9190612e86565b60405180910390f35b34801561019e575f80fd5b506101b960048036038101906101b49190612ed9565b61067b565b6040516101c69190612f43565b60405180910390f35b3480156101da575f80fd5b506101f560048036038101906101f09190612f86565b610696565b005b348015610202575f80fd5b5061021d60048036038101906102189190612fc4565b6106ac565b005b34801561022a575f80fd5b5061024560048036038101906102409190612ed9565b6107ab565b005b348015610252575f80fd5b5061026d60048036038101906102689190612ed9565b610a36565b005b34801561027a575f80fd5b5061029560048036038101906102909190612ed9565b610ccb565b6040516102ac9b9a99989796959493929190613023565b60405180910390f35b3480156102c0575f80fd5b506102db60048036038101906102d69190612fc4565b610dfa565b005b3480156102e8575f80fd5b5061030360048036038101906102fe9190612ed9565b610e19565b6040516103109190612f43565b60405180910390f35b348015610324575f80fd5b5061033f600480360381019061033a91906130d3565b610e2a565b60405161034c91906130fe565b60405180910390f35b348015610360575f80fd5b5061037b60048036038101906103769190612ed9565b610ee0565b005b348015610388575f80fd5b506103a3600480360381019061039e9190612ed9565b611188565b005b3480156103b0575f80fd5b506103b961154b565b6040516103c69190612e86565b60405180910390f35b3480156103da575f80fd5b506103f560048036038101906103f09190613141565b6115db565b005b348015610402575f80fd5b5061041d600480360381019061041891906132ab565b6115f1565b005b610439600480360381019061043491906133c9565b61160e565b60405161044691906130fe565b60405180910390f35b34801561045a575f80fd5b5061047560048036038101906104709190612ed9565b6118ac565b005b348015610482575f80fd5b5061049d60048036038101906104989190612ed9565b611b56565b6040516104aa9190612e86565b60405180910390f35b6104cd60048036038101906104c89190612ed9565b611bbc565b005b3480156104da575f80fd5b506104f560048036038101906104f09190613449565b611f22565b6040516105029190612de3565b60405180910390f35b5f7f80ac58cd000000000000000000000000000000000000000000000000000000007bffffffffffffffffffffffffffffffffffffffffffffffffffffffff1916827bffffffffffffffffffffffffffffffffffffffffffffffffffffffff191614806105d557507f5b5e139f000000000000000000000000000000000000000000000000000000007bffffffffffffffffffffffffffffffffffffffffffffffffffffffff1916827bffffffffffffffffffffffffffffffffffffffffffffffffffffffff1916145b806105e557506105e482611fb0565b5b9050919050565b60605f80546105fa906134b4565b80601f0160208091040260200160405190810160405280929190818152602001828054610626906134b4565b80156106715780601f1061064857610100808354040283529160200191610671565b820191905f5260205f20905b81548152906001019060200180831161065457829003601f168201915b5050505050905090565b5f61068582612019565b5061068f8261209f565b9050919050565b6106a882826106a36120d8565b6120df565b5050565b5f73ffffffffffffffffffffffffffffffffffffffff168273ffffffffffffffffffffffffffffffffffffffff160361071c575f6040517f64a0ae920000000000000000000000000000000000000000000000000000000081526004016107139190612f43565b60405180910390fd5b5f61072f838361072a6120d8565b6120f1565b90508373ffffffffffffffffffffffffffffffffffffffff168173ffffffffffffffffffffffffffffffffffffffff16146107a5578382826040517f64283d7b00000000000000000000000000000000000000000000000000000000815260040161079c939291906134e4565b60405180910390fd5b50505050565b3073ffffffffffffffffffffffffffffffffffffffff16636352211e826040518263ffffffff1660e01b81526004016107e491906130fe565b602060405180830381865afa92505050801561081e57506040513d601f19601f8201168201806040525081019061081b919061352d565b60015b61085d576040517f08c379a0000000000000000000000000000000000000000000000000000000008152600401610854906135a2565b60405180910390fd5b5061086781610e19565b73ffffffffffffffffffffffffffffffffffffffff163373ffffffffffffffffffffffffffffffffffffffff16146108d4576040517f08c379a00000000000000000000000000000000000000000000000000000000081526004016108cb90613630565b60405180910390fd5b60075f8281526020019081526020015f206004015f9054906101000a900460ff1615610935576040517f08c379a000000000000000000000000000000000000000000000000000000000815260040161092c90613698565b60405180910390fd5b5f151560075f8381526020019081526020015f2060040160169054906101000a900460ff1615151461099c576040517f08c379a000000000000000000000000000000000000000000000000000000000815260040161099390613700565b60405180910390fd5b5f3390505f60075f8481526020019081526020015f205f015490508173ffffffffffffffffffffffffffffffffffffffff166108fc8290811502906040515f60405180830381858888f193505050501580156109fa573d5f803e3d5ffd5b50610a04836122fc565b827f2d5f5ed000d42aa6f6fc13400f7d7161cd1bea793fec354b11e3451f9f2b07c360405160405180910390a2505050565b3073ffffffffffffffffffffffffffffffffffffffff16636352211e826040518263ffffffff1660e01b8152600401610a6f91906130fe565b602060405180830381865afa925050508015610aa957506040513d601f19601f82011682018060405250810190610aa6919061352d565b60015b610ae8576040517f08c379a0000000000000000000000000000000000000000000000000000000008152600401610adf906135a2565b60405180910390fd5b50610af281610e19565b73ffffffffffffffffffffffffffffffffffffffff163373ffffffffffffffffffffffffffffffffffffffff1614610b5f576040517f08c379a0000000000000000000000000000000000000000000000000000000008152600401610b569061378e565b60405180910390fd5b60075f8281526020019081526020015f206004015f9054906101000a900460ff16610bbf576040517f08c379a0000000000000000000000000000000000000000000000000000000008152600401610bb6906137f6565b60405180910390fd5b5f151560075f8381526020019081526020015f2060040160159054906101000a900460ff16151514610c26576040517f08c379a0000000000000000000000000000000000000000000000000000000008152600401610c1d9061385e565b60405180910390fd5b4260075f8381526020019081526020015f206002015460075f8481526020019081526020015f2060010154610c5b91906138a9565b11610c9b576040517f08c379a0000000000000000000000000000000000000000000000000000000008152600401610c9290613926565b60405180910390fd5b600160075f8381526020019081526020015f2060040160156101000a81548160ff02191690831515021790555050565b6007602052805f5260405f205f91509050805f015490806001015490806002015490806003018054610cfc906134b4565b80601f0160208091040260200160405190810160405280929190818152602001828054610d28906134b4565b8015610d735780601f10610d4a57610100808354040283529160200191610d73565b820191905f5260205f20905b815481529060010190602001808311610d5657829003601f168201915b505050505090806004015f9054906101000a900460ff16908060040160019054906101000a900473ffffffffffffffffffffffffffffffffffffffff16908060040160159054906101000a900460ff16908060040160169054906101000a900460ff16908060040160179054906101000a900460ff1690806005015490806006015490508b565b610e1483838360405180602001604052805f8152506115f1565b505050565b5f610e2382612019565b9050919050565b5f8073ffffffffffffffffffffffffffffffffffffffff168273ffffffffffffffffffffffffffffffffffffffff1603610e9b575f6040517f89c62b64000000000000000000000000000000000000000000000000000000008152600401610e929190612f43565b60405180910390fd5b60035f8373ffffffffffffffffffffffffffffffffffffffff1673ffffffffffffffffffffffffffffffffffffffff1681526020019081526020015f20549050919050565b3073ffffffffffffffffffffffffffffffffffffffff16636352211e826040518263ffffffff1660e01b8152600401610f1991906130fe565b602060405180830381865afa925050508015610f5357506040513d601f19601f82011682018060405250810190610f50919061352d565b60015b610f92576040517f08c379a0000000000000000000000000000000000000000000000000000000008152600401610f89906135a2565b60405180910390fd5b50610f9c81610e19565b73ffffffffffffffffffffffffffffffffffffffff163373ffffffffffffffffffffffffffffffffffffffff1614611009576040517f08c379a0000000000000000000000000000000000000000000000000000000008152600401611000906139b4565b60405180910390fd5b60075f8281526020019081526020015f206004015f9054906101000a900460ff16611069576040517f08c379a0000000000000000000000000000000000000000000000000000000008152600401611060906137f6565b60405180910390fd5b60075f8281526020019081526020015f2060040160179054906101000a900460ff166110ca576040517f08c379a00000000000000000000000000000000000000000000000000000000081526004016110c190613a1c565b60405180910390fd5b60075f8281526020019081526020015f2060050154426110ea9190613a3a565b60075f8381526020019081526020015f206006018190555060075f8281526020019081526020015f206006015460075f8381526020019081526020015f206002015f82825461113991906138a9565b925050819055505f60075f8381526020019081526020015f20600501819055505f60075f8381526020019081526020015f2060040160176101000a81548160ff02191690831515021790555050565b3073ffffffffffffffffffffffffffffffffffffffff16636352211e826040518263ffffffff1660e01b81526004016111c191906130fe565b602060405180830381865afa9250505080156111fb57506040513d601f19601f820116820180604052508101906111f8919061352d565b60015b61123a576040517f08c379a0000000000000000000000000000000000000000000000000000000008152600401611231906135a2565b60405180910390fd5b5061124481610e19565b73ffffffffffffffffffffffffffffffffffffffff163373ffffffffffffffffffffffffffffffffffffffff16036112b1576040517f08c379a00000000000000000000000000000000000000000000000000000000081526004016112a890613add565b60405180910390fd5b60075f8281526020019081526020015f2060040160019054906101000a900473ffffffffffffffffffffffffffffffffffffffff1673ffffffffffffffffffffffffffffffffffffffff163373ffffffffffffffffffffffffffffffffffffffff1614611353576040517f08c379a000000000000000000000000000000000000000000000000000000000815260040161134a90613b6b565b60405180910390fd5b60075f8281526020019081526020015f206004015f9054906101000a900460ff16156113b4576040517f08c379a00000000000000000000000000000000000000000000000000000000081526004016113ab90613698565b60405180910390fd5b5f151560075f8381526020019081526020015f2060040160159054906101000a900460ff1615151461141b576040517f08c379a000000000000000000000000000000000000000000000000000000000815260040161141290613bd3565b60405180910390fd5b4260075f8381526020019081526020015f206002015460075f8481526020019081526020015f206001015461145091906138a9565b1015611491576040517f08c379a000000000000000000000000000000000000000000000000000000000815260040161148890613c3b565b60405180910390fd5b600160075f8381526020019081526020015f206004015f6101000a81548160ff0219169083151502179055503360075f8381526020019081526020015f2060040160016101000a81548173ffffffffffffffffffffffffffffffffffffffff021916908373ffffffffffffffffffffffffffffffffffffffff160217905550807fcd3b1fcca80f9caae633c3e13546995d3810e561957af92839f070c46571942c336040516115409190612f43565b60405180910390a250565b60606001805461155a906134b4565b80601f0160208091040260200160405190810160405280929190818152602001828054611586906134b4565b80156115d15780601f106115a8576101008083540402835291602001916115d1565b820191905f5260205f20905b8154815290600101906020018083116115b457829003601f168201915b5050505050905090565b6115ed6115e66120d8565b838361237e565b5050565b6115fc8484846106ac565b611608848484846124e7565b50505050565b5f83341015611652576040517f08c379a000000000000000000000000000000000000000000000000000000000815260040161164990613cc9565b60405180910390fd5b60065f81548092919061166490613ce7565b919050555061167533600654612699565b5f84346116829190613a3a565b90505f8111156116d1573373ffffffffffffffffffffffffffffffffffffffff166108fc8290811502906040515f60405180830381858888f193505050501580156116cf573d5f803e3d5ffd5b505b5f6040518061016001604052808781526020014281526020018681526020018581526020015f151581526020018873ffffffffffffffffffffffffffffffffffffffff1681526020015f151581526020015f151581526020015f151581526020015f81526020015f81525090508060075f60065481526020019081526020015f205f820151815f0155602082015181600101556040820151816002015560608201518160030190816117839190613ecb565b506080820151816004015f6101000a81548160ff02191690831515021790555060a08201518160040160016101000a81548173ffffffffffffffffffffffffffffffffffffffff021916908373ffffffffffffffffffffffffffffffffffffffff16021790555060c08201518160040160156101000a81548160ff02191690831515021790555060e08201518160040160166101000a81548160ff0219169083151502179055506101008201518160040160176101000a81548160ff021916908315150217905550610120820151816005015561014082015181600601559050507ff00d28232b285f24f2e38415deb2ceb31069e70d4505838b3911b4f02058502e60065460405161189591906130fe565b60405180910390a160065492505050949350505050565b3073ffffffffffffffffffffffffffffffffffffffff16636352211e826040518263ffffffff1660e01b81526004016118e591906130fe565b602060405180830381865afa92505050801561191f57506040513d601f19601f8201168201806040525081019061191c919061352d565b60015b61195e576040517f08c379a0000000000000000000000000000000000000000000000000000000008152600401611955906135a2565b60405180910390fd5b5061196881610e19565b73ffffffffffffffffffffffffffffffffffffffff163373ffffffffffffffffffffffffffffffffffffffff16146119d5576040517f08c379a00000000000000000000000000000000000000000000000000000000081526004016119cc9061400a565b60405180910390fd5b60075f8281526020019081526020015f206004015f9054906101000a900460ff16611a35576040517f08c379a0000000000000000000000000000000000000000000000000000000008152600401611a2c906137f6565b60405180910390fd5b4260075f8381526020019081526020015f206002015460075f8481526020019081526020015f2060010154611a6a91906138a9565b1015611aab576040517f08c379a0000000000000000000000000000000000000000000000000000000008152600401611aa290613c3b565b60405180910390fd5b60075f8281526020019081526020015f2060040160179054906101000a900460ff1615611b0d576040517f08c379a0000000000000000000000000000000000000000000000000000000008152600401611b0490614072565b60405180910390fd5b600160075f8381526020019081526020015f2060040160176101000a81548160ff0219169083151502179055504260075f8381526020019081526020015f206005018190555050565b6060611b6182612019565b505f611b6b61278c565b90505f815111611b895760405180602001604052805f815250611bb4565b80611b93846127a2565b604051602001611ba49291906140ca565b6040516020818303038152906040525b915050919050565b3073ffffffffffffffffffffffffffffffffffffffff16636352211e826040518263ffffffff1660e01b8152600401611bf591906130fe565b602060405180830381865afa925050508015611c2f57506040513d601f19601f82011682018060405250810190611c2c919061352d565b60015b611c6e576040517f08c379a0000000000000000000000000000000000000000000000000000000008152600401611c65906135a2565b60405180910390fd5b5060075f8281526020019081526020015f206004015f9054906101000a900460ff16611ccf576040517f08c379a0000000000000000000000000000000000000000000000000000000008152600401611cc6906137f6565b60405180910390fd5b611cd881610e19565b73ffffffffffffffffffffffffffffffffffffffff163373ffffffffffffffffffffffffffffffffffffffff1614611d45576040517f08c379a0000000000000000000000000000000000000000000000000000000008152600401611d3c9061415d565b60405180910390fd5b6001151560075f8381526020019081526020015f2060040160159054906101000a900460ff1615151480611dac57504260075f8381526020019081526020015f206002015460075f8481526020019081526020015f2060010154611da991906138a9565b11155b611deb576040517f08c379a0000000000000000000000000000000000000000000000000000000008152600401611de2906141eb565b60405180910390fd5b5f151560075f8381526020019081526020015f2060040160179054906101000a900460ff16151514611e52576040517f08c379a0000000000000000000000000000000000000000000000000000000008152600401611e4990614253565b60405180910390fd5b5f60075f8381526020019081526020015f2060040160019054906101000a900473ffffffffffffffffffffffffffffffffffffffff1690505f60075f8481526020019081526020015f205f015490508173ffffffffffffffffffffffffffffffffffffffff166108fc8290811502906040515f60405180830381858888f19350505050158015611ee4573d5f803e3d5ffd5b50827f2b52860c5e15aa76ac91d132433549dfe5214c66e36bdb998622ab221c7477c082604051611f1591906130fe565b60405180910390a2505050565b5f60055f8473ffffffffffffffffffffffffffffffffffffffff1673ffffffffffffffffffffffffffffffffffffffff1681526020019081526020015f205f8373ffffffffffffffffffffffffffffffffffffffff1673ffffffffffffffffffffffffffffffffffffffff1681526020019081526020015f205f9054906101000a900460ff16905092915050565b5f7f01ffc9a7000000000000000000000000000000000000000000000000000000007bffffffffffffffffffffffffffffffffffffffffffffffffffffffff1916827bffffffffffffffffffffffffffffffffffffffffffffffffffffffff1916149050919050565b5f806120248361286c565b90505f73ffffffffffffffffffffffffffffffffffffffff168173ffffffffffffffffffffffffffffffffffffffff160361209657826040517f7e27328900000000000000000000000000000000000000000000000000000000815260040161208d91906130fe565b60405180910390fd5b80915050919050565b5f60045f8381526020019081526020015f205f9054906101000a900473ffffffffffffffffffffffffffffffffffffffff169050919050565b5f33905090565b6120ec83838360016128a5565b505050565b5f806120fc8461286c565b90505f73ffffffffffffffffffffffffffffffffffffffff168373ffffffffffffffffffffffffffffffffffffffff161461213d5761213c818486612a64565b5b5f73ffffffffffffffffffffffffffffffffffffffff168173ffffffffffffffffffffffffffffffffffffffff16146121c85761217c5f855f806128a5565b600160035f8373ffffffffffffffffffffffffffffffffffffffff1673ffffffffffffffffffffffffffffffffffffffff1681526020019081526020015f205f82825403925050819055505b5f73ffffffffffffffffffffffffffffffffffffffff168573ffffffffffffffffffffffffffffffffffffffff161461224757600160035f8773ffffffffffffffffffffffffffffffffffffffff1673ffffffffffffffffffffffffffffffffffffffff1681526020019081526020015f205f82825401925050819055505b8460025f8681526020019081526020015f205f6101000a81548173ffffffffffffffffffffffffffffffffffffffff021916908373ffffffffffffffffffffffffffffffffffffffff160217905550838573ffffffffffffffffffffffffffffffffffffffff168273ffffffffffffffffffffffffffffffffffffffff167fddf252ad1be2c89b69c2b068fc378daa952ba7f163c4a11628f55a4df523b3ef60405160405180910390a4809150509392505050565b5f6123085f835f6120f1565b90505f73ffffffffffffffffffffffffffffffffffffffff168173ffffffffffffffffffffffffffffffffffffffff160361237a57816040517f7e27328900000000000000000000000000000000000000000000000000000000815260040161237191906130fe565b60405180910390fd5b5050565b5f73ffffffffffffffffffffffffffffffffffffffff168273ffffffffffffffffffffffffffffffffffffffff16036123ee57816040517f5b08ba180000000000000000000000000000000000000000000000000000000081526004016123e59190612f43565b60405180910390fd5b8060055f8573ffffffffffffffffffffffffffffffffffffffff1673ffffffffffffffffffffffffffffffffffffffff1681526020019081526020015f205f8473ffffffffffffffffffffffffffffffffffffffff1673ffffffffffffffffffffffffffffffffffffffff1681526020019081526020015f205f6101000a81548160ff0219169083151502179055508173ffffffffffffffffffffffffffffffffffffffff168373ffffffffffffffffffffffffffffffffffffffff167f17307eab39ab6107e8899845ad3d59bd9653f200f220920489ca2b5937696c31836040516124da9190612de3565b60405180910390a3505050565b5f8373ffffffffffffffffffffffffffffffffffffffff163b1115612693578273ffffffffffffffffffffffffffffffffffffffff1663150b7a0261252a6120d8565b8685856040518563ffffffff1660e01b815260040161254c94939291906142c3565b6020604051808303815f875af192505050801561258757506040513d601f19601f820116820180604052508101906125849190614321565b60015b612608573d805f81146125b5576040519150601f19603f3d011682016040523d82523d5f602084013e6125ba565b606091505b505f81510361260057836040517f64a0ae920000000000000000000000000000000000000000000000000000000081526004016125f79190612f43565b60405180910390fd5b805181602001fd5b63150b7a0260e01b7bffffffffffffffffffffffffffffffffffffffffffffffffffffffff1916817bffffffffffffffffffffffffffffffffffffffffffffffffffffffff19161461269157836040517f64a0ae920000000000000000000000000000000000000000000000000000000081526004016126889190612f43565b60405180910390fd5b505b50505050565b5f73ffffffffffffffffffffffffffffffffffffffff168273ffffffffffffffffffffffffffffffffffffffff1603612709575f6040517f64a0ae920000000000000000000000000000000000000000000000000000000081526004016127009190612f43565b60405180910390fd5b5f61271583835f6120f1565b90505f73ffffffffffffffffffffffffffffffffffffffff168173ffffffffffffffffffffffffffffffffffffffff1614612787575f6040517f73c6ac6e00000000000000000000000000000000000000000000000000000000815260040161277e9190612f43565b60405180910390fd5b505050565b606060405180602001604052805f815250905090565b60605f60016127b084612b27565b0190505f8167ffffffffffffffff8111156127ce576127cd613187565b5b6040519080825280601f01601f1916602001820160405280156128005781602001600182028036833780820191505090505b5090505f82602001820190505b600115612861578080600190039150507f3031323334353637383961626364656600000000000000000000000000000000600a86061a8153600a85816128565761285561434c565b5b0494505f850361280d575b819350505050919050565b5f60025f8381526020019081526020015f205f9054906101000a900473ffffffffffffffffffffffffffffffffffffffff169050919050565b80806128dd57505f73ffffffffffffffffffffffffffffffffffffffff168273ffffffffffffffffffffffffffffffffffffffff1614155b15612a0f575f6128ec84612019565b90505f73ffffffffffffffffffffffffffffffffffffffff168373ffffffffffffffffffffffffffffffffffffffff161415801561295657508273ffffffffffffffffffffffffffffffffffffffff168173ffffffffffffffffffffffffffffffffffffffff1614155b801561296957506129678184611f22565b155b156129ab57826040517fa9fbf51f0000000000000000000000000000000000000000000000000000000081526004016129a29190612f43565b60405180910390fd5b8115612a0d57838573ffffffffffffffffffffffffffffffffffffffff168273ffffffffffffffffffffffffffffffffffffffff167f8c5be1e5ebec7d5bd14f71427d1e84f3dd0314c0f7b2291e5b200ac8c7c3b92560405160405180910390a45b505b8360045f8581526020019081526020015f205f6101000a81548173ffffffffffffffffffffffffffffffffffffffff021916908373ffffffffffffffffffffffffffffffffffffffff16021790555050505050565b612a6f838383612c78565b612b22575f73ffffffffffffffffffffffffffffffffffffffff168373ffffffffffffffffffffffffffffffffffffffff1603612ae357806040517f7e273289000000000000000000000000000000000000000000000000000000008152600401612ada91906130fe565b60405180910390fd5b81816040517f177e802f000000000000000000000000000000000000000000000000000000008152600401612b19929190614379565b60405180910390fd5b505050565b5f805f90507a184f03e93ff9f4daa797ed6e38ed64bf6a1f0100000000000000008310612b83577a184f03e93ff9f4daa797ed6e38ed64bf6a1f0100000000000000008381612b7957612b7861434c565b5b0492506040810190505b6d04ee2d6d415b85acef81000000008310612bc0576d04ee2d6d415b85acef81000000008381612bb657612bb561434c565b5b0492506020810190505b662386f26fc100008310612bef57662386f26fc100008381612be557612be461434c565b5b0492506010810190505b6305f5e1008310612c18576305f5e1008381612c0e57612c0d61434c565b5b0492506008810190505b6127108310612c3d576127108381612c3357612c3261434c565b5b0492506004810190505b60648310612c605760648381612c5657612c5561434c565b5b0492506002810190505b600a8310612c6f576001810190505b80915050919050565b5f8073ffffffffffffffffffffffffffffffffffffffff168373ffffffffffffffffffffffffffffffffffffffff1614158015612d2f57508273ffffffffffffffffffffffffffffffffffffffff168473ffffffffffffffffffffffffffffffffffffffff161480612cf05750612cef8484611f22565b5b80612d2e57508273ffffffffffffffffffffffffffffffffffffffff16612d168361209f565b73ffffffffffffffffffffffffffffffffffffffff16145b5b90509392505050565b5f604051905090565b5f80fd5b5f80fd5b5f7fffffffff0000000000000000000000000000000000000000000000000000000082169050919050565b612d7d81612d49565b8114612d87575f80fd5b50565b5f81359050612d9881612d74565b92915050565b5f60208284031215612db357612db2612d41565b5b5f612dc084828501612d8a565b91505092915050565b5f8115159050919050565b612ddd81612dc9565b82525050565b5f602082019050612df65f830184612dd4565b92915050565b5f81519050919050565b5f82825260208201905092915050565b5f5b83811015612e33578082015181840152602081019050612e18565b5f8484015250505050565b5f601f19601f8301169050919050565b5f612e5882612dfc565b612e628185612e06565b9350612e72818560208601612e16565b612e7b81612e3e565b840191505092915050565b5f6020820190508181035f830152612e9e8184612e4e565b905092915050565b5f819050919050565b612eb881612ea6565b8114612ec2575f80fd5b50565b5f81359050612ed381612eaf565b92915050565b5f60208284031215612eee57612eed612d41565b5b5f612efb84828501612ec5565b91505092915050565b5f73ffffffffffffffffffffffffffffffffffffffff82169050919050565b5f612f2d82612f04565b9050919050565b612f3d81612f23565b82525050565b5f602082019050612f565f830184612f34565b92915050565b612f6581612f23565b8114612f6f575f80fd5b50565b5f81359050612f8081612f5c565b92915050565b5f8060408385031215612f9c57612f9b612d41565b5b5f612fa985828601612f72565b9250506020612fba85828601612ec5565b9150509250929050565b5f805f60608486031215612fdb57612fda612d41565b5b5f612fe886828701612f72565b9350506020612ff986828701612f72565b925050604061300a86828701612ec5565b9150509250925092565b61301d81612ea6565b82525050565b5f610160820190506130375f83018e613014565b613044602083018d613014565b613051604083018c613014565b8181036060830152613063818b612e4e565b9050613072608083018a612dd4565b61307f60a0830189612f34565b61308c60c0830188612dd4565b61309960e0830187612dd4565b6130a7610100830186612dd4565b6130b5610120830185613014565b6130c3610140830184613014565b9c9b505050505050505050505050565b5f602082840312156130e8576130e7612d41565b5b5f6130f584828501612f72565b91505092915050565b5f6020820190506131115f830184613014565b92915050565b61312081612dc9565b811461312a575f80fd5b50565b5f8135905061313b81613117565b92915050565b5f806040838503121561315757613156612d41565b5b5f61316485828601612f72565b92505060206131758582860161312d565b9150509250929050565b5f80fd5b5f80fd5b7f4e487b71000000000000000000000000000000000000000000000000000000005f52604160045260245ffd5b6131bd82612e3e565b810181811067ffffffffffffffff821117156131dc576131db613187565b5b80604052505050565b5f6131ee612d38565b90506131fa82826131b4565b919050565b5f67ffffffffffffffff82111561321957613218613187565b5b61322282612e3e565b9050602081019050919050565b828183375f83830152505050565b5f61324f61324a846131ff565b6131e5565b90508281526020810184848401111561326b5761326a613183565b5b61327684828561322f565b509392505050565b5f82601f8301126132925761329161317f565b5b81356132a284826020860161323d565b91505092915050565b5f805f80608085870312156132c3576132c2612d41565b5b5f6132d087828801612f72565b94505060206132e187828801612f72565b93505060406132f287828801612ec5565b925050606085013567ffffffffffffffff81111561331357613312612d45565b5b61331f8782880161327e565b91505092959194509250565b5f67ffffffffffffffff82111561334557613344613187565b5b61334e82612e3e565b9050602081019050919050565b5f61336d6133688461332b565b6131e5565b90508281526020810184848401111561338957613388613183565b5b61339484828561322f565b509392505050565b5f82601f8301126133b0576133af61317f565b5b81356133c084826020860161335b565b91505092915050565b5f805f80608085870312156133e1576133e0612d41565b5b5f6133ee87828801612f72565b94505060206133ff87828801612ec5565b935050604061341087828801612ec5565b925050606085013567ffffffffffffffff81111561343157613430612d45565b5b61343d8782880161339c565b91505092959194509250565b5f806040838503121561345f5761345e612d41565b5b5f61346c85828601612f72565b925050602061347d85828601612f72565b9150509250929050565b7f4e487b71000000000000000000000000000000000000000000000000000000005f52602260045260245ffd5b5f60028204905060018216806134cb57607f821691505b6020821081036134de576134dd613487565b5b50919050565b5f6060820190506134f75f830186612f34565b6135046020830185613014565b6135116040830184612f34565b949350505050565b5f8151905061352781612f5c565b92915050565b5f6020828403121561354257613541612d41565b5b5f61354f84828501613519565b91505092915050565b7f456c20746f6b656e206e6f206578697374652e000000000000000000000000005f82015250565b5f61358c601383612e06565b915061359782613558565b602082019050919050565b5f6020820190508181035f8301526135b981613580565b9050919050565b7f536f6c6f20656c2070726f706965746172696f2070756564652063616e63656c5f8201527f617220656c20636f6e747261746f000000000000000000000000000000000000602082015250565b5f61361a602e83612e06565b9150613625826135c0565b604082019050919050565b5f6020820190508181035f8301526136478161360e565b9050919050565b7f456c20636f6e747261746f207961206861207369646f206669726d61646f00005f82015250565b5f613682601e83612e06565b915061368d8261364e565b602082019050919050565b5f6020820190508181035f8301526136af81613676565b9050919050565b7f456c20636f6e747261746f207961206861207369646f2063616e63656c61646f5f82015250565b5f6136ea602083612e06565b91506136f5826136b6565b602082019050919050565b5f6020820190508181035f830152613717816136de565b9050919050565b7f536f6c6f20656c2070726f706965746172696f2070756564652066696e616c695f8201527f7a617220656c20636f6e747261746f0000000000000000000000000000000000602082015250565b5f613778602f83612e06565b91506137838261371e565b604082019050919050565b5f6020820190508181035f8301526137a58161376c565b9050919050565b7f456c20636f6e747261746f206e6f206861207369646f206669726d61646f00005f82015250565b5f6137e0601e83612e06565b91506137eb826137ac565b602082019050919050565b5f6020820190508181035f83015261380d816137d4565b9050919050565b7f456c20636f6e747261746f2079612068612066696e616c697a61646f000000005f82015250565b5f613848601c83612e06565b915061385382613814565b602082019050919050565b5f6020820190508181035f8301526138758161383c565b9050919050565b7f4e487b71000000000000000000000000000000000000000000000000000000005f52601160045260245ffd5b5f6138b382612ea6565b91506138be83612ea6565b92508282019050808211156138d6576138d561387c565b5b92915050565b7f456c20636f6e747261746f20796120686120657870697261646f0000000000005f82015250565b5f613910601a83612e06565b915061391b826138dc565b602082019050919050565b5f6020820190508181035f83015261393d81613904565b9050919050565b7f536f6c6f20656c2070726f706965746172696f207075656465206465737061755f8201527f73617220656c20636f6e747261746f0000000000000000000000000000000000602082015250565b5f61399e602f83612e06565b91506139a982613944565b604082019050919050565b5f6020820190508181035f8301526139cb81613992565b9050919050565b7f456c20636f6e747261746f206e6f2065737461207061757361646f00000000005f82015250565b5f613a06601b83612e06565b9150613a11826139d2565b602082019050919050565b5f6020820190508181035f830152613a33816139fa565b9050919050565b5f613a4482612ea6565b9150613a4f83612ea6565b9250828203905081811115613a6757613a6661387c565b5b92915050565b7f4e6f20707565646573206669726d61722074752070726f70696f20636f6e74725f8201527f61746f0000000000000000000000000000000000000000000000000000000000602082015250565b5f613ac7602383612e06565b9150613ad282613a6d565b604082019050919050565b5f6020820190508181035f830152613af481613abb565b9050919050565b7f536f6c6f20656c2074726162616a61646f72207075656465206669726d6172205f8201527f656c20636f6e747261746f000000000000000000000000000000000000000000602082015250565b5f613b55602b83612e06565b9150613b6082613afb565b604082019050919050565b5f6020820190508181035f830152613b8281613b49565b9050919050565b7f456c20636f6e747261746f2068612066696e616c697a61646f000000000000005f82015250565b5f613bbd601983612e06565b9150613bc882613b89565b602082019050919050565b5f6020820190508181035f830152613bea81613bb1565b9050919050565b7f456c20636f6e747261746f20686120657870697261646f0000000000000000005f82015250565b5f613c25601783612e06565b9150613c3082613bf1565b602082019050919050565b5f6020820190508181035f830152613c5281613c19565b9050919050565b7f4465646520656e7669617220656c2073616c6172696f20636f6d6f2076616c6f5f8201527f722064656c20636f6e747261746f000000000000000000000000000000000000602082015250565b5f613cb3602e83612e06565b9150613cbe82613c59565b604082019050919050565b5f6020820190508181035f830152613ce081613ca7565b9050919050565b5f613cf182612ea6565b91507fffffffffffffffffffffffffffffffffffffffffffffffffffffffffffffffff8203613d2357613d2261387c565b5b600182019050919050565b5f819050815f5260205f209050919050565b5f6020601f8301049050919050565b5f82821b905092915050565b5f60088302613d8a7fffffffffffffffffffffffffffffffffffffffffffffffffffffffffffffffff82613d4f565b613d948683613d4f565b95508019841693508086168417925050509392505050565b5f819050919050565b5f613dcf613dca613dc584612ea6565b613dac565b612ea6565b9050919050565b5f819050919050565b613de883613db5565b613dfc613df482613dd6565b848454613d5b565b825550505050565b5f90565b613e10613e04565b613e1b818484613ddf565b505050565b5b81811015613e3e57613e335f82613e08565b600181019050613e21565b5050565b601f821115613e8357613e5481613d2e565b613e5d84613d40565b81016020851015613e6c578190505b613e80613e7885613d40565b830182613e20565b50505b505050565b5f82821c905092915050565b5f613ea35f1984600802613e88565b1980831691505092915050565b5f613ebb8383613e94565b9150826002028217905092915050565b613ed482612dfc565b67ffffffffffffffff811115613eed57613eec613187565b5b613ef782546134b4565b613f02828285613e42565b5f60209050601f831160018114613f33575f8415613f21578287015190505b613f2b8582613eb0565b865550613f92565b601f198416613f4186613d2e565b5f5b82811015613f6857848901518255600182019150602085019450602081019050613f43565b86831015613f855784890151613f81601f891682613e94565b8355505b6001600288020188555050505b505050505050565b7f536f6c6f20656c2070726f706965746172696f207075656465207061757361725f8201527f20656c20636f6e747261746f0000000000000000000000000000000000000000602082015250565b5f613ff4602c83612e06565b9150613fff82613f9a565b604082019050919050565b5f6020820190508181035f83015261402181613fe8565b9050919050565b7f456c20636f6e747261746f2079612065737461207061757361646f00000000005f82015250565b5f61405c601b83612e06565b915061406782614028565b602082019050919050565b5f6020820190508181035f83015261408981614050565b9050919050565b5f81905092915050565b5f6140a482612dfc565b6140ae8185614090565b93506140be818560208601612e16565b80840191505092915050565b5f6140d5828561409a565b91506140e1828461409a565b91508190509392505050565b7f536f6c6f20656c2070726f706965746172696f207075656465206c69626572615f8201527f7220656c2073616c6172696f0000000000000000000000000000000000000000602082015250565b5f614147602c83612e06565b9150614152826140ed565b604082019050919050565b5f6020820190508181035f8301526141748161413b565b9050919050565b7f456c20636f6e747261746f206e6f20686120657870697261646f2061756e206f5f8201527f206e6f2068612066696e616c697a61646f000000000000000000000000000000602082015250565b5f6141d5603183612e06565b91506141e08261417b565b604082019050919050565b5f6020820190508181035f830152614202816141c9565b9050919050565b7f456c20636f6e747261746f2065737461207061757361646f00000000000000005f82015250565b5f61423d601883612e06565b915061424882614209565b602082019050919050565b5f6020820190508181035f83015261426a81614231565b9050919050565b5f81519050919050565b5f82825260208201905092915050565b5f61429582614271565b61429f818561427b565b93506142af818560208601612e16565b6142b881612e3e565b840191505092915050565b5f6080820190506142d65f830187612f34565b6142e36020830186612f34565b6142f06040830185613014565b8181036060830152614302818461428b565b905095945050505050565b5f8151905061431b81612d74565b92915050565b5f6020828403121561433657614335612d41565b5b5f6143438482850161430d565b91505092915050565b7f4e487b71000000000000000000000000000000000000000000000000000000005f52601260045260245ffd5b5f60408201905061438c5f830185612f34565b6143996020830184613014565b939250505056fea2646970667358221220d3ec111f7b4e57afe1f60b1a7b83721203827c77e102d2e6830fb29b45d6d31464736f6c63430008140033",
  "immutableReferences": {},
  "source": "// SPDX-License-Identifier: MIT\r\npragma solidity ^0.8.20;\r\n\r\nimport \"@openzeppelin/contracts/token/ERC721/ERC721.sol\";\r\n\r\ncontract MyContract is ERC721 {\r\n    uint256 tokenID;\r\n    mapping(uint256 => ContractDetails) public contractDetails;\r\n    struct ContractDetails {\r\n        uint256 salary;\r\n        uint256 startDate;\r\n        uint256 duration;\r\n        string description;\r\n        bool isSigned;\r\n        address worker;\r\n        bool isFinished;\r\n        bool isCancelled;\r\n        bool isPaused;\r\n        uint256 pauseTime;\r\n        uint256 pauseDuration;\r\n    }\r\n    event ContractSigned(uint256 indexed tokenId, address worker);\r\n    event SalaryReleased(uint256 indexed tokenId, uint256 salary);\r\n    event TokenMinted(uint256 tokenId);\r\n    event ContractCancelled(uint256 indexed tokenId);\r\n\r\n    constructor() ERC721(\"MyToken\", \"MTK\") {}\r\n\r\n    function mint(\r\n        address _to,\r\n        uint256 _salary,\r\n        uint256 _duration,\r\n        string memory _description\r\n    ) public payable returns (uint256) {\r\n        require(\r\n            msg.value >= _salary,\r\n            \"Dede enviar el salario como valor del contrato\"\r\n        );\r\n        tokenID++;\r\n        _mint(msg.sender, tokenID);\r\n        uint256 remainder = msg.value - _salary;\r\n        if (remainder > 0) {\r\n            payable(msg.sender).transfer(remainder);\r\n        }\r\n\r\n        ContractDetails memory newContract = ContractDetails({\r\n            salary: _salary,\r\n            startDate: block.timestamp, // en segundos\r\n            duration: _duration,\r\n            description: _description,\r\n            isSigned: false,\r\n            worker: _to,\r\n            isFinished: false,\r\n            isCancelled: false,\r\n            isPaused: false,\r\n            pauseTime: 0,\r\n            pauseDuration: 0\r\n        });\r\n\r\n        contractDetails[tokenID] = newContract;\r\n        emit TokenMinted(tokenID);\r\n\r\n        return tokenID;\r\n    }\r\n\r\n    function signContract(uint256 _tokenID) public {\r\n        try this.ownerOf(_tokenID) {} catch {\r\n            revert(\"El token no existe.\"); // he intentado hacerlo con _exists pero no me ha funcionado\r\n        }\r\n        require(\r\n            msg.sender != ownerOf(_tokenID),\r\n            \"No puedes firmar tu propio contrato\"\r\n        );\r\n        require(\r\n            msg.sender == contractDetails[_tokenID].worker,\r\n            \"Solo el trabajador puede firmar el contrato\"\r\n        );\r\n        require(\r\n            !contractDetails[_tokenID].isSigned,\r\n            \"El contrato ya ha sido firmado\"\r\n        );\r\n        require(\r\n            contractDetails[_tokenID].isFinished == false,\r\n            \"El contrato ha finalizado\"\r\n        );\r\n        require(\r\n            contractDetails[_tokenID].startDate +\r\n                contractDetails[_tokenID].duration >=\r\n                block.timestamp,\r\n            \"El contrato ha expirado\"\r\n        );\r\n\r\n        contractDetails[_tokenID].isSigned = true;\r\n        contractDetails[_tokenID].worker = msg.sender;\r\n        emit ContractSigned(_tokenID, msg.sender);\r\n    }\r\n\r\n    function releaseSalary(uint256 _tokenID) public payable {\r\n        try this.ownerOf(_tokenID) {} catch {\r\n            revert(\"El token no existe.\"); // he intentado hacerlo con _exists pero no me ha funcionado\r\n        }\r\n        require(\r\n            contractDetails[_tokenID].isSigned,\r\n            \"El contrato no ha sido firmado\"\r\n        );\r\n        require(\r\n            msg.sender == ownerOf(_tokenID),\r\n            \"Solo el propietario puede liberar el salario\"\r\n        );\r\n        require(\r\n            contractDetails[_tokenID].isFinished == true ||\r\n                contractDetails[_tokenID].startDate +\r\n                    contractDetails[_tokenID].duration <=\r\n                block.timestamp,\r\n            \"El contrato no ha expirado aun o no ha finalizado\"\r\n        );\r\n        require(\r\n            contractDetails[_tokenID].isPaused == false,\r\n            \"El contrato esta pausado\"\r\n        );\r\n\r\n        address payable worker = payable(contractDetails[_tokenID].worker);\r\n        uint256 salary = contractDetails[_tokenID].salary;\r\n        worker.transfer(salary);\r\n        emit SalaryReleased(_tokenID, salary);\r\n    }\r\n\r\n    function finalizeContract(uint256 _tokenID) public {\r\n        try this.ownerOf(_tokenID) {} catch {\r\n            revert(\"El token no existe.\"); // he intentado hacerlo con _exists pero no me ha funcionado\r\n        }\r\n        require(\r\n            msg.sender == ownerOf(_tokenID),\r\n            \"Solo el propietario puede finalizar el contrato\"\r\n        );\r\n        require(\r\n            contractDetails[_tokenID].isSigned,\r\n            \"El contrato no ha sido firmado\"\r\n        );\r\n        require(\r\n            contractDetails[_tokenID].isFinished == false,\r\n            \"El contrato ya ha finalizado\"\r\n        );\r\n        require(\r\n            contractDetails[_tokenID].startDate +\r\n                contractDetails[_tokenID].duration >\r\n                block.timestamp,\r\n            \"El contrato ya ha expirado\"\r\n        );\r\n\r\n        contractDetails[_tokenID].isFinished = true;\r\n    }\r\n\r\n    function pauseContract(uint256 _tokenID) public {\r\n        try this.ownerOf(_tokenID) {} catch {\r\n            revert(\"El token no existe.\"); // he intentado hacerlo con _exists pero no me ha funcionado\r\n        }\r\n        require(\r\n            msg.sender == ownerOf(_tokenID),\r\n            \"Solo el propietario puede pausar el contrato\"\r\n        );\r\n        require(\r\n            contractDetails[_tokenID].isSigned,\r\n            \"El contrato no ha sido firmado\"\r\n        );\r\n        require(\r\n            contractDetails[_tokenID].startDate +\r\n                contractDetails[_tokenID].duration >=\r\n                block.timestamp,\r\n            \"El contrato ha expirado\"\r\n        );\r\n        require(\r\n            !contractDetails[_tokenID].isPaused,\r\n            \"El contrato ya esta pausado\"\r\n        );\r\n\r\n        contractDetails[_tokenID].isPaused = true;\r\n        contractDetails[_tokenID].pauseTime = block.timestamp;\r\n    }\r\n\r\n    function unPauseContract(uint256 _tokenID) public {\r\n        try this.ownerOf(_tokenID) {} catch {\r\n            revert(\"El token no existe.\"); // he intentado hacerlo con _exists pero no me ha funcionado\r\n        }\r\n        require(\r\n            msg.sender == ownerOf(_tokenID),\r\n            \"Solo el propietario puede despausar el contrato\"\r\n        );\r\n        require(\r\n            contractDetails[_tokenID].isSigned,\r\n            \"El contrato no ha sido firmado\"\r\n        );\r\n        require(\r\n            contractDetails[_tokenID].isPaused,\r\n            \"El contrato no esta pausado\"\r\n        );\r\n\r\n        contractDetails[_tokenID].pauseDuration =\r\n            block.timestamp -\r\n            contractDetails[_tokenID].pauseTime;\r\n\r\n        contractDetails[_tokenID].duration += contractDetails[_tokenID]\r\n            .pauseDuration;\r\n\r\n        contractDetails[_tokenID].pauseTime = 0;\r\n        contractDetails[_tokenID].isPaused = false;\r\n    }\r\n\r\n    function cancelContract(uint256 _tokenID) public {\r\n        try this.ownerOf(_tokenID) {} catch {\r\n            revert(\"El token no existe.\"); // he intentado hacerlo con _exists pero no me ha funcionado\r\n        }\r\n        require(\r\n            msg.sender == ownerOf(_tokenID),\r\n            \"Solo el propietario puede cancelar el contrato\"\r\n        );\r\n        require(\r\n            !contractDetails[_tokenID].isSigned,\r\n            \"El contrato ya ha sido firmado\"\r\n        );\r\n        require(\r\n            contractDetails[_tokenID].isCancelled == false,\r\n            \"El contrato ya ha sido cancelado\"\r\n        );\r\n\r\n        address payable owner = payable(msg.sender);\r\n        uint256 salary = contractDetails[_tokenID].salary;\r\n        owner.transfer(salary);\r\n        _burn(_tokenID);\r\n        emit ContractCancelled(_tokenID);\r\n    }\r\n\r\n    //Funcion para dar permisos a otro dueo del contrato que pueda manejarlo en caso de que el dueo original no pueda\r\n\r\n    //Funcion para modificar un contrato que no haya sido firmado\r\n    //Funcion para modificar un contrato que haya sido firmado con la aprobacin del trabajador\r\n    //funcion para abrir un disputa en un contrato activo. Tanto como trabajador como como empleador\r\n    //funcion para analis: que permita saber el salario medio, el numero de contratos firmados, el numero de contratos activos, el numero de contratos cancelados, el numero de contratos finalizados, el numero de contratos en disputa, el numero de contratos que han expirado\r\n    //Fucnion que penalice a un trabajador que no haya cumplido con el contrato\r\n}\r\n",
  "sourcePath": "E:\\AppContract\\ubu-contractme\\Code\\SmartContract\\contracts\\MyContract.sol",
  "compiler": {
    "name": "solc",
    "version": "0.8.20+commit.a1b79de6.Emscripten.clang"
  },
  "schemaVersion": "3.4.16",
  "updatedAt": "2023-12-22T11:59:57.376Z",
  "networkType": "ethereum",
  "devdoc": {
    "errors": {
      "ERC721IncorrectOwner(address,uint256,address)": [
        {
          "details": "Indicates an error related to the ownership over a particular token. Used in transfers.",
          "params": {
            "owner": "Address of the current owner of a token.",
            "sender": "Address whose tokens are being transferred.",
            "tokenId": "Identifier number of a token."
          }
        }
      ],
      "ERC721InsufficientApproval(address,uint256)": [
        {
          "details": "Indicates a failure with the `operator`s approval. Used in transfers.",
          "params": {
            "operator": "Address that may be allowed to operate on tokens without being their owner.",
            "tokenId": "Identifier number of a token."
          }
        }
      ],
      "ERC721InvalidApprover(address)": [
        {
          "details": "Indicates a failure with the `approver` of a token to be approved. Used in approvals.",
          "params": {
            "approver": "Address initiating an approval operation."
          }
        }
      ],
      "ERC721InvalidOperator(address)": [
        {
          "details": "Indicates a failure with the `operator` to be approved. Used in approvals.",
          "params": {
            "operator": "Address that may be allowed to operate on tokens without being their owner."
          }
        }
      ],
      "ERC721InvalidOwner(address)": [
        {
          "details": "Indicates that an address can't be an owner. For example, `address(0)` is a forbidden owner in EIP-20. Used in balance queries.",
          "params": {
            "owner": "Address of the current owner of a token."
          }
        }
      ],
      "ERC721InvalidReceiver(address)": [
        {
          "details": "Indicates a failure with the token `receiver`. Used in transfers.",
          "params": {
            "receiver": "Address to which tokens are being transferred."
          }
        }
      ],
      "ERC721InvalidSender(address)": [
        {
          "details": "Indicates a failure with the token `sender`. Used in transfers.",
          "params": {
            "sender": "Address whose tokens are being transferred."
          }
        }
      ],
      "ERC721NonexistentToken(uint256)": [
        {
          "details": "Indicates a `tokenId` whose `owner` is the zero address.",
          "params": {
            "tokenId": "Identifier number of a token."
          }
        }
      ]
    },
    "events": {
      "Approval(address,address,uint256)": {
        "details": "Emitted when `owner` enables `approved` to manage the `tokenId` token."
      },
      "ApprovalForAll(address,address,bool)": {
        "details": "Emitted when `owner` enables or disables (`approved`) `operator` to manage all of its assets."
      },
      "Transfer(address,address,uint256)": {
        "details": "Emitted when `tokenId` token is transferred from `from` to `to`."
      }
    },
    "kind": "dev",
    "methods": {
      "approve(address,uint256)": {
        "details": "See {IERC721-approve}."
      },
      "balanceOf(address)": {
        "details": "See {IERC721-balanceOf}."
      },
      "getApproved(uint256)": {
        "details": "See {IERC721-getApproved}."
      },
      "isApprovedForAll(address,address)": {
        "details": "See {IERC721-isApprovedForAll}."
      },
      "name()": {
        "details": "See {IERC721Metadata-name}."
      },
      "ownerOf(uint256)": {
        "details": "See {IERC721-ownerOf}."
      },
      "safeTransferFrom(address,address,uint256)": {
        "details": "See {IERC721-safeTransferFrom}."
      },
      "safeTransferFrom(address,address,uint256,bytes)": {
        "details": "See {IERC721-safeTransferFrom}."
      },
      "setApprovalForAll(address,bool)": {
        "details": "See {IERC721-setApprovalForAll}."
      },
      "supportsInterface(bytes4)": {
        "details": "See {IERC165-supportsInterface}."
      },
      "symbol()": {
        "details": "See {IERC721Metadata-symbol}."
      },
      "tokenURI(uint256)": {
        "details": "See {IERC721Metadata-tokenURI}."
      },
      "transferFrom(address,address,uint256)": {
        "details": "See {IERC721-transferFrom}."
      }
    },
    "version": 1
  },
  "userdoc": {
    "kind": "user",
    "methods": {},
    "version": 1
  }
}