{
  "contractName": "MyContractAux",
  "abi": [
    {
      "inputs": [
        {
          "internalType": "address",
          "name": "sender",
          "type": "address"
        },
        {
          "internalType": "uint256",
          "name": "tokenId",
          "type": "uint256"
        },
        {
          "internalType": "address",
          "name": "owner",
          "type": "address"
        }
      ],
      "name": "ERC721IncorrectOwner",
      "type": "error"
    },
    {
      "inputs": [
        {
          "internalType": "address",
          "name": "operator",
          "type": "address"
        },
        {
          "internalType": "uint256",
          "name": "tokenId",
          "type": "uint256"
        }
      ],
      "name": "ERC721InsufficientApproval",
      "type": "error"
    },
    {
      "inputs": [
        {
          "internalType": "address",
          "name": "approver",
          "type": "address"
        }
      ],
      "name": "ERC721InvalidApprover",
      "type": "error"
    },
    {
      "inputs": [
        {
          "internalType": "address",
          "name": "operator",
          "type": "address"
        }
      ],
      "name": "ERC721InvalidOperator",
      "type": "error"
    },
    {
      "inputs": [
        {
          "internalType": "address",
          "name": "owner",
          "type": "address"
        }
      ],
      "name": "ERC721InvalidOwner",
      "type": "error"
    },
    {
      "inputs": [
        {
          "internalType": "address",
          "name": "receiver",
          "type": "address"
        }
      ],
      "name": "ERC721InvalidReceiver",
      "type": "error"
    },
    {
      "inputs": [
        {
          "internalType": "address",
          "name": "sender",
          "type": "address"
        }
      ],
      "name": "ERC721InvalidSender",
      "type": "error"
    },
    {
      "inputs": [
        {
          "internalType": "uint256",
          "name": "tokenId",
          "type": "uint256"
        }
      ],
      "name": "ERC721NonexistentToken",
      "type": "error"
    },
    {
      "anonymous": false,
      "inputs": [
        {
          "indexed": true,
          "internalType": "address",
          "name": "owner",
          "type": "address"
        },
        {
          "indexed": true,
          "internalType": "address",
          "name": "approved",
          "type": "address"
        },
        {
          "indexed": true,
          "internalType": "uint256",
          "name": "tokenId",
          "type": "uint256"
        }
      ],
      "name": "Approval",
      "type": "event"
    },
    {
      "anonymous": false,
      "inputs": [
        {
          "indexed": true,
          "internalType": "uint256",
          "name": "tokenId",
          "type": "uint256"
        },
        {
          "indexed": true,
          "internalType": "address",
          "name": "employer",
          "type": "address"
        },
        {
          "indexed": true,
          "internalType": "address",
          "name": "worker",
          "type": "address"
        },
        {
          "indexed": false,
          "internalType": "uint256",
          "name": "salary",
          "type": "uint256"
        },
        {
          "indexed": false,
          "internalType": "uint256",
          "name": "newSalary",
          "type": "uint256"
        },
        {
          "indexed": false,
          "internalType": "uint256",
          "name": "timestamp",
          "type": "uint256"
        }
      ],
      "name": "ApprovalChanges",
      "type": "event"
    },
    {
      "anonymous": false,
      "inputs": [
        {
          "indexed": true,
          "internalType": "address",
          "name": "owner",
          "type": "address"
        },
        {
          "indexed": true,
          "internalType": "address",
          "name": "operator",
          "type": "address"
        },
        {
          "indexed": false,
          "internalType": "bool",
          "name": "approved",
          "type": "bool"
        }
      ],
      "name": "ApprovalForAll",
      "type": "event"
    },
    {
      "anonymous": false,
      "inputs": [
        {
          "indexed": true,
          "internalType": "uint256",
          "name": "tokenId",
          "type": "uint256"
        },
        {
          "indexed": true,
          "internalType": "address",
          "name": "employer",
          "type": "address"
        },
        {
          "indexed": true,
          "internalType": "address",
          "name": "worker",
          "type": "address"
        },
        {
          "indexed": false,
          "internalType": "uint256",
          "name": "salary",
          "type": "uint256"
        },
        {
          "indexed": false,
          "internalType": "uint256",
          "name": "newSalary",
          "type": "uint256"
        },
        {
          "indexed": false,
          "internalType": "uint256",
          "name": "timestamp",
          "type": "uint256"
        }
      ],
      "name": "ChangeProposed",
      "type": "event"
    },
    {
      "anonymous": false,
      "inputs": [
        {
          "indexed": true,
          "internalType": "uint256",
          "name": "tokenId",
          "type": "uint256"
        },
        {
          "indexed": true,
          "internalType": "address",
          "name": "employer",
          "type": "address"
        },
        {
          "indexed": true,
          "internalType": "address",
          "name": "worker",
          "type": "address"
        },
        {
          "indexed": false,
          "internalType": "uint256",
          "name": "salary",
          "type": "uint256"
        },
        {
          "indexed": false,
          "internalType": "uint256",
          "name": "timestamp",
          "type": "uint256"
        }
      ],
      "name": "ContractCancelled",
      "type": "event"
    },
    {
      "anonymous": false,
      "inputs": [
        {
          "indexed": true,
          "internalType": "uint256",
          "name": "tokenId",
          "type": "uint256"
        },
        {
          "indexed": true,
          "internalType": "address",
          "name": "employer",
          "type": "address"
        },
        {
          "indexed": true,
          "internalType": "address",
          "name": "worker",
          "type": "address"
        },
        {
          "indexed": false,
          "internalType": "uint256",
          "name": "timestamp",
          "type": "uint256"
        }
      ],
      "name": "ContractFinalized",
      "type": "event"
    },
    {
      "anonymous": false,
      "inputs": [
        {
          "indexed": true,
          "internalType": "uint256",
          "name": "tokenId",
          "type": "uint256"
        },
        {
          "indexed": true,
          "internalType": "address",
          "name": "employer",
          "type": "address"
        },
        {
          "indexed": true,
          "internalType": "address",
          "name": "worker",
          "type": "address"
        },
        {
          "indexed": false,
          "internalType": "uint256",
          "name": "timestamp",
          "type": "uint256"
        }
      ],
      "name": "ContractSigned",
      "type": "event"
    },
    {
      "anonymous": false,
      "inputs": [
        {
          "indexed": true,
          "internalType": "uint256",
          "name": "tokenId",
          "type": "uint256"
        },
        {
          "indexed": true,
          "internalType": "address",
          "name": "employer",
          "type": "address"
        },
        {
          "indexed": true,
          "internalType": "address",
          "name": "worker",
          "type": "address"
        },
        {
          "indexed": false,
          "internalType": "uint256",
          "name": "newSalary",
          "type": "uint256"
        },
        {
          "indexed": false,
          "internalType": "uint256",
          "name": "timestamp",
          "type": "uint256"
        }
      ],
      "name": "RejectChanges",
      "type": "event"
    },
    {
      "anonymous": false,
      "inputs": [
        {
          "indexed": true,
          "internalType": "uint256",
          "name": "tokenId",
          "type": "uint256"
        },
        {
          "indexed": false,
          "internalType": "uint256",
          "name": "salary",
          "type": "uint256"
        },
        {
          "indexed": true,
          "internalType": "address",
          "name": "employer",
          "type": "address"
        },
        {
          "indexed": true,
          "internalType": "address",
          "name": "worker",
          "type": "address"
        },
        {
          "indexed": false,
          "internalType": "uint256",
          "name": "timestamp",
          "type": "uint256"
        }
      ],
      "name": "SalaryReleased",
      "type": "event"
    },
    {
      "anonymous": false,
      "inputs": [
        {
          "indexed": false,
          "internalType": "uint256",
          "name": "tokenId",
          "type": "uint256"
        },
        {
          "indexed": true,
          "internalType": "address",
          "name": "employer",
          "type": "address"
        },
        {
          "indexed": true,
          "internalType": "address",
          "name": "worker",
          "type": "address"
        },
        {
          "indexed": false,
          "internalType": "uint256",
          "name": "salary",
          "type": "uint256"
        },
        {
          "indexed": false,
          "internalType": "uint256",
          "name": "timestamp",
          "type": "uint256"
        }
      ],
      "name": "TokenMinted",
      "type": "event"
    },
    {
      "anonymous": false,
      "inputs": [
        {
          "indexed": true,
          "internalType": "address",
          "name": "from",
          "type": "address"
        },
        {
          "indexed": true,
          "internalType": "address",
          "name": "to",
          "type": "address"
        },
        {
          "indexed": true,
          "internalType": "uint256",
          "name": "tokenId",
          "type": "uint256"
        }
      ],
      "name": "Transfer",
      "type": "event"
    },
    {
      "inputs": [
        {
          "internalType": "address",
          "name": "",
          "type": "address"
        },
        {
          "internalType": "uint256",
          "name": "",
          "type": "uint256"
        }
      ],
      "name": "activeContractsOfWorker",
      "outputs": [
        {
          "internalType": "uint256",
          "name": "",
          "type": "uint256"
        }
      ],
      "stateMutability": "view",
      "type": "function",
      "constant": true
    },
    {
      "inputs": [
        {
          "internalType": "uint256",
          "name": "_tokenID",
          "type": "uint256"
        }
      ],
      "name": "applyChange",
      "outputs": [],
      "stateMutability": "payable",
      "type": "function",
      "payable": true
    },
    {
      "inputs": [
        {
          "internalType": "address",
          "name": "to",
          "type": "address"
        },
        {
          "internalType": "uint256",
          "name": "tokenId",
          "type": "uint256"
        }
      ],
      "name": "approve",
      "outputs": [],
      "stateMutability": "nonpayable",
      "type": "function"
    },
    {
      "inputs": [
        {
          "internalType": "uint256",
          "name": "_tokenID",
          "type": "uint256"
        },
        {
          "internalType": "address",
          "name": "_newManager",
          "type": "address"
        }
      ],
      "name": "assignManagerToToken",
      "outputs": [],
      "stateMutability": "nonpayable",
      "type": "function"
    },
    {
      "inputs": [
        {
          "internalType": "address",
          "name": "owner",
          "type": "address"
        }
      ],
      "name": "balanceOf",
      "outputs": [
        {
          "internalType": "uint256",
          "name": "",
          "type": "uint256"
        }
      ],
      "stateMutability": "view",
      "type": "function",
      "constant": true
    },
    {
      "inputs": [
        {
          "internalType": "uint256",
          "name": "_tokenID",
          "type": "uint256"
        }
      ],
      "name": "cancelContract",
      "outputs": [],
      "stateMutability": "nonpayable",
      "type": "function"
    },
    {
      "inputs": [
        {
          "internalType": "uint256",
          "name": "",
          "type": "uint256"
        }
      ],
      "name": "changeProposals",
      "outputs": [
        {
          "internalType": "string",
          "name": "newTitle",
          "type": "string"
        },
        {
          "internalType": "uint256",
          "name": "newSalary",
          "type": "uint256"
        },
        {
          "internalType": "uint256",
          "name": "newDuration",
          "type": "uint256"
        },
        {
          "internalType": "string",
          "name": "newDescription",
          "type": "string"
        },
        {
          "internalType": "bool",
          "name": "isPaused",
          "type": "bool"
        },
        {
          "internalType": "bool",
          "name": "isPending",
          "type": "bool"
        }
      ],
      "stateMutability": "view",
      "type": "function",
      "constant": true
    },
    {
      "inputs": [
        {
          "internalType": "uint256",
          "name": "",
          "type": "uint256"
        }
      ],
      "name": "contractDetails",
      "outputs": [
        {
          "internalType": "uint256",
          "name": "salary",
          "type": "uint256"
        },
        {
          "internalType": "uint256",
          "name": "startDate",
          "type": "uint256"
        },
        {
          "internalType": "uint256",
          "name": "duration",
          "type": "uint256"
        },
        {
          "internalType": "string",
          "name": "title",
          "type": "string"
        },
        {
          "internalType": "string",
          "name": "description",
          "type": "string"
        },
        {
          "internalType": "bool",
          "name": "isSigned",
          "type": "bool"
        },
        {
          "internalType": "address",
          "name": "worker",
          "type": "address"
        },
        {
          "internalType": "bool",
          "name": "isFinished",
          "type": "bool"
        },
        {
          "internalType": "bool",
          "name": "isReleased",
          "type": "bool"
        },
        {
          "internalType": "bool",
          "name": "isPaused",
          "type": "bool"
        },
        {
          "internalType": "uint256",
          "name": "pauseTime",
          "type": "uint256"
        },
        {
          "internalType": "uint256",
          "name": "pauseDuration",
          "type": "uint256"
        }
      ],
      "stateMutability": "view",
      "type": "function",
      "constant": true
    },
    {
      "inputs": [
        {
          "internalType": "address",
          "name": "",
          "type": "address"
        },
        {
          "internalType": "uint256",
          "name": "",
          "type": "uint256"
        }
      ],
      "name": "contractsOwner",
      "outputs": [
        {
          "internalType": "uint256",
          "name": "",
          "type": "uint256"
        }
      ],
      "stateMutability": "view",
      "type": "function",
      "constant": true
    },
    {
      "inputs": [
        {
          "internalType": "uint256",
          "name": "_tokenID",
          "type": "uint256"
        }
      ],
      "name": "finalizeContract",
      "outputs": [],
      "stateMutability": "nonpayable",
      "type": "function"
    },
    {
      "inputs": [
        {
          "internalType": "uint256",
          "name": "tokenId",
          "type": "uint256"
        }
      ],
      "name": "getApproved",
      "outputs": [
        {
          "internalType": "address",
          "name": "",
          "type": "address"
        }
      ],
      "stateMutability": "view",
      "type": "function",
      "constant": true
    },
    {
      "inputs": [
        {
          "internalType": "address",
          "name": "owner",
          "type": "address"
        },
        {
          "internalType": "address",
          "name": "operator",
          "type": "address"
        }
      ],
      "name": "isApprovedForAll",
      "outputs": [
        {
          "internalType": "bool",
          "name": "",
          "type": "bool"
        }
      ],
      "stateMutability": "view",
      "type": "function",
      "constant": true
    },
    {
      "inputs": [
        {
          "internalType": "uint256",
          "name": "_tokenID",
          "type": "uint256"
        }
      ],
      "name": "isContractFinished",
      "outputs": [
        {
          "internalType": "bool",
          "name": "",
          "type": "bool"
        }
      ],
      "stateMutability": "view",
      "type": "function",
      "constant": true
    },
    {
      "inputs": [
        {
          "internalType": "address",
          "name": "_to",
          "type": "address"
        },
        {
          "internalType": "uint256",
          "name": "_salary",
          "type": "uint256"
        },
        {
          "internalType": "uint256",
          "name": "_start",
          "type": "uint256"
        },
        {
          "internalType": "uint256",
          "name": "_duration",
          "type": "uint256"
        },
        {
          "internalType": "string",
          "name": "_description",
          "type": "string"
        },
        {
          "internalType": "string",
          "name": "_title",
          "type": "string"
        }
      ],
      "name": "mint",
      "outputs": [
        {
          "internalType": "uint256",
          "name": "",
          "type": "uint256"
        }
      ],
      "stateMutability": "payable",
      "type": "function",
      "payable": true
    },
    {
      "inputs": [],
      "name": "name",
      "outputs": [
        {
          "internalType": "string",
          "name": "",
          "type": "string"
        }
      ],
      "stateMutability": "view",
      "type": "function",
      "constant": true
    },
    {
      "inputs": [
        {
          "internalType": "uint256",
          "name": "tokenId",
          "type": "uint256"
        }
      ],
      "name": "ownerOf",
      "outputs": [
        {
          "internalType": "address",
          "name": "",
          "type": "address"
        }
      ],
      "stateMutability": "view",
      "type": "function",
      "constant": true
    },
    {
      "inputs": [
        {
          "internalType": "uint256",
          "name": "_tokenID",
          "type": "uint256"
        }
      ],
      "name": "pauseContract",
      "outputs": [],
      "stateMutability": "nonpayable",
      "type": "function"
    },
    {
      "inputs": [
        {
          "internalType": "uint256",
          "name": "_tokenID",
          "type": "uint256"
        },
        {
          "internalType": "string",
          "name": "_newTitle",
          "type": "string"
        },
        {
          "internalType": "uint256",
          "name": "_newSalary",
          "type": "uint256"
        },
        {
          "internalType": "uint256",
          "name": "_newDuration",
          "type": "uint256"
        },
        {
          "internalType": "string",
          "name": "_newDescription",
          "type": "string"
        },
        {
          "internalType": "bool",
          "name": "_isPaused",
          "type": "bool"
        }
      ],
      "name": "proposeChange",
      "outputs": [],
      "stateMutability": "payable",
      "type": "function",
      "payable": true
    },
    {
      "inputs": [
        {
          "internalType": "uint256",
          "name": "_tokenID",
          "type": "uint256"
        }
      ],
      "name": "rejectChange",
      "outputs": [],
      "stateMutability": "nonpayable",
      "type": "function"
    },
    {
      "inputs": [
        {
          "internalType": "uint256",
          "name": "_tokenID",
          "type": "uint256"
        }
      ],
      "name": "releaseSalary",
      "outputs": [],
      "stateMutability": "payable",
      "type": "function",
      "payable": true
    },
    {
      "inputs": [
        {
          "internalType": "uint256",
          "name": "_tokenId",
          "type": "uint256"
        },
        {
          "internalType": "address",
          "name": "_manager",
          "type": "address"
        }
      ],
      "name": "revokeManagerFromToken",
      "outputs": [],
      "stateMutability": "nonpayable",
      "type": "function"
    },
    {
      "inputs": [
        {
          "internalType": "address",
          "name": "from",
          "type": "address"
        },
        {
          "internalType": "address",
          "name": "to",
          "type": "address"
        },
        {
          "internalType": "uint256",
          "name": "tokenId",
          "type": "uint256"
        }
      ],
      "name": "safeTransferFrom",
      "outputs": [],
      "stateMutability": "nonpayable",
      "type": "function"
    },
    {
      "inputs": [
        {
          "internalType": "address",
          "name": "from",
          "type": "address"
        },
        {
          "internalType": "address",
          "name": "to",
          "type": "address"
        },
        {
          "internalType": "uint256",
          "name": "tokenId",
          "type": "uint256"
        },
        {
          "internalType": "bytes",
          "name": "data",
          "type": "bytes"
        }
      ],
      "name": "safeTransferFrom",
      "outputs": [],
      "stateMutability": "nonpayable",
      "type": "function"
    },
    {
      "inputs": [
        {
          "internalType": "address",
          "name": "operator",
          "type": "address"
        },
        {
          "internalType": "bool",
          "name": "approved",
          "type": "bool"
        }
      ],
      "name": "setApprovalForAll",
      "outputs": [],
      "stateMutability": "nonpayable",
      "type": "function"
    },
    {
      "inputs": [
        {
          "internalType": "uint256",
          "name": "_tokenID",
          "type": "uint256"
        }
      ],
      "name": "signContract",
      "outputs": [],
      "stateMutability": "nonpayable",
      "type": "function"
    },
    {
      "inputs": [
        {
          "internalType": "bytes4",
          "name": "interfaceId",
          "type": "bytes4"
        }
      ],
      "name": "supportsInterface",
      "outputs": [
        {
          "internalType": "bool",
          "name": "",
          "type": "bool"
        }
      ],
      "stateMutability": "view",
      "type": "function",
      "constant": true
    },
    {
      "inputs": [],
      "name": "symbol",
      "outputs": [
        {
          "internalType": "string",
          "name": "",
          "type": "string"
        }
      ],
      "stateMutability": "view",
      "type": "function",
      "constant": true
    },
    {
      "inputs": [],
      "name": "tokenID",
      "outputs": [
        {
          "internalType": "uint256",
          "name": "",
          "type": "uint256"
        }
      ],
      "stateMutability": "view",
      "type": "function",
      "constant": true
    },
    {
      "inputs": [
        {
          "internalType": "uint256",
          "name": "",
          "type": "uint256"
        },
        {
          "internalType": "address",
          "name": "",
          "type": "address"
        }
      ],
      "name": "tokenManagers",
      "outputs": [
        {
          "internalType": "bool",
          "name": "",
          "type": "bool"
        }
      ],
      "stateMutability": "view",
      "type": "function",
      "constant": true
    },
    {
      "inputs": [
        {
          "internalType": "uint256",
          "name": "",
          "type": "uint256"
        },
        {
          "internalType": "uint256",
          "name": "",
          "type": "uint256"
        }
      ],
      "name": "tokenManagersList",
      "outputs": [
        {
          "internalType": "address",
          "name": "",
          "type": "address"
        }
      ],
      "stateMutability": "view",
      "type": "function",
      "constant": true
    },
    {
      "inputs": [
        {
          "internalType": "uint256",
          "name": "tokenId",
          "type": "uint256"
        }
      ],
      "name": "tokenURI",
      "outputs": [
        {
          "internalType": "string",
          "name": "",
          "type": "string"
        }
      ],
      "stateMutability": "view",
      "type": "function",
      "constant": true
    },
    {
      "inputs": [
        {
          "internalType": "address",
          "name": "from",
          "type": "address"
        },
        {
          "internalType": "address",
          "name": "to",
          "type": "address"
        },
        {
          "internalType": "uint256",
          "name": "tokenId",
          "type": "uint256"
        }
      ],
      "name": "transferFrom",
      "outputs": [],
      "stateMutability": "nonpayable",
      "type": "function"
    },
    {
      "inputs": [
        {
          "internalType": "uint256",
          "name": "_tokenID",
          "type": "uint256"
        }
      ],
      "name": "unPauseContract",
      "outputs": [],
      "stateMutability": "nonpayable",
      "type": "function"
    },
    {
      "inputs": [
        {
          "internalType": "address",
          "name": "",
          "type": "address"
        },
        {
          "internalType": "uint256",
          "name": "",
          "type": "uint256"
        }
      ],
      "name": "unsignedContractsOfWorker",
      "outputs": [
        {
          "internalType": "uint256",
          "name": "",
          "type": "uint256"
        }
      ],
      "stateMutability": "view",
      "type": "function",
      "constant": true
    },
    {
      "inputs": [
        {
          "internalType": "uint256",
          "name": "_tokenId",
          "type": "uint256"
        }
      ],
      "name": "getManagersOfToken",
      "outputs": [
        {
          "internalType": "address[]",
          "name": "",
          "type": "address[]"
        }
      ],
      "stateMutability": "view",
      "type": "function",
      "constant": true
    },
    {
      "inputs": [
        {
          "internalType": "uint256",
          "name": "_tokenId",
          "type": "uint256"
        },
        {
          "internalType": "address",
          "name": "_manager",
          "type": "address"
        }
      ],
      "name": "isManagerOfToken",
      "outputs": [
        {
          "internalType": "bool",
          "name": "",
          "type": "bool"
        }
      ],
      "stateMutability": "view",
      "type": "function",
      "constant": true
    },
    {
      "inputs": [
        {
          "internalType": "address",
          "name": "_address",
          "type": "address"
        }
      ],
      "name": "getContractsFromOwner",
      "outputs": [
        {
          "internalType": "uint256[]",
          "name": "",
          "type": "uint256[]"
        }
      ],
      "stateMutability": "view",
      "type": "function",
      "constant": true
    },
    {
      "inputs": [
        {
          "internalType": "address",
          "name": "_address",
          "type": "address"
        }
      ],
      "name": "getContractsOfWorker",
      "outputs": [
        {
          "internalType": "uint256[]",
          "name": "",
          "type": "uint256[]"
        }
      ],
      "stateMutability": "view",
      "type": "function",
      "constant": true
    },
    {
      "inputs": [
        {
          "internalType": "address",
          "name": "worker",
          "type": "address"
        }
      ],
      "name": "getUnsignedContractsOfWorker",
      "outputs": [
        {
          "internalType": "uint256[]",
          "name": "",
          "type": "uint256[]"
        }
      ],
      "stateMutability": "view",
      "type": "function",
      "constant": true
    },
    {
      "inputs": [
        {
          "internalType": "uint256",
          "name": "_tokenId",
          "type": "uint256"
        }
      ],
      "name": "tokenExists",
      "outputs": [
        {
          "internalType": "bool",
          "name": "",
          "type": "bool"
        }
      ],
      "stateMutability": "view",
      "type": "function",
      "constant": true
    },
    {
      "inputs": [
        {
          "internalType": "uint256",
          "name": "_tokenID",
          "type": "uint256"
        }
      ],
      "name": "isContractSigned",
      "outputs": [
        {
          "internalType": "bool",
          "name": "",
          "type": "bool"
        }
      ],
      "stateMutability": "view",
      "type": "function",
      "constant": true
    },
    {
      "inputs": [
        {
          "internalType": "uint256",
          "name": "_tokenID",
          "type": "uint256"
        }
      ],
      "name": "getOwnerOfContract",
      "outputs": [
        {
          "internalType": "address",
          "name": "",
          "type": "address"
        }
      ],
      "stateMutability": "view",
      "type": "function",
      "constant": true
    }
  ],
  "bytecode": "0x608060405234801562000010575f80fd5b506040518060400160405280600781526020016626bcaa37b5b2b760c91b815250604051806040016040528060038152602001624d544b60e81b815250815f90816200005d919062000115565b5060016200006c828262000115565b505050620001dd565b634e487b7160e01b5f52604160045260245ffd5b600181811c908216806200009e57607f821691505b602082108103620000bd57634e487b7160e01b5f52602260045260245ffd5b50919050565b601f82111562000110575f81815260208120601f850160051c81016020861015620000eb5750805b601f850160051c820191505b818110156200010c57828155600101620000f7565b5050505b505050565b81516001600160401b0381111562000131576200013162000075565b620001498162000142845462000089565b84620000c3565b602080601f8311600181146200017f575f8415620001675750858301515b5f19600386901b1c1916600185901b1785556200010c565b5f85815260208120601f198616915b82811015620001af578886015182559484019460019091019084016200018e565b5085821015620001cd57878501515f19600388901b60f8161c191681555b5050505050600190811b01905550565b613a6580620001eb5f395ff3fe608060405260043610610248575f3560e01c80635376574411610134578063a8dd8964116100b3578063c87b56dd11610078578063c87b56dd14610731578063d053b45114610750578063e1b146201461076f578063e2c07c7b1461078e578063e985e9c5146107a1578063fc5a4efe146107c0575f80fd5b8063a8dd8964146106a2578063b88d4fde146106b5578063bc3a8e9e146106d4578063bce87156146106f3578063c2852f3814610712575f80fd5b806393a43c19116100f957806393a43c191461060a5780639537e8d11461063b57806395d89b411461065a578063a22cb4651461066e578063a5c42ef11461068d575f80fd5b806353765744146105625780636352211e1461058e57806370a08231146105ad57806389b83d3e146105cc57806390d16ce4146105eb575f80fd5b806328047450116101cb57806336a2d6f51161019057806336a2d6f5146104b2578063409283d0146104d157806342842e0e146104e457806345f18460146105035780634ec3e2aa146105305780634f73d79d1461054f575f80fd5b806328047450146103c05780632907eb16146103df578063294a7931146103fe57806331432e45146104375780633330a55f1461047b575f80fd5b8063095ea7b311610211578063095ea7b31461031857806323133e4c146103375780632355e2171461036357806323b872dd1461038257806323e0f237146103a1575f80fd5b8062923f9e1461024c57806301ffc9a714610280578063045b6a4e1461029f57806306fdde03146102c0578063081812fc146102e1575b5f80fd5b348015610257575f80fd5b5061026b6102663660046131e3565b6107f1565b60405190151581526020015b60405180910390f35b34801561028b575f80fd5b5061026b61029a366004613212565b610864565b3480156102aa575f80fd5b506102be6102b9366004613241565b6108b5565b005b3480156102cb575f80fd5b506102d46109d8565b60405161027791906132bc565b3480156102ec575f80fd5b506103006102fb3660046131e3565b610a67565b6040516001600160a01b039091168152602001610277565b348015610323575f80fd5b506102be6103323660046132ce565b610a8e565b348015610342575f80fd5b506103566103513660046132f8565b610a99565b6040516102779190613313565b34801561036e575f80fd5b506102be61037d366004613241565b610c4a565b34801561038d575f80fd5b506102be61039c366004613356565b610d73565b3480156103ac575f80fd5b506103006103bb3660046131e3565b610dfc565b3480156103cb575f80fd5b506102be6103da3660046131e3565b610e06565b3480156103ea575f80fd5b506102be6103f93660046131e3565b610fdd565b348015610409575f80fd5b5061026b610418366004613241565b600860209081525f928352604080842090915290825290205460ff1681565b348015610442575f80fd5b5061026b610451366004613241565b5f9182526008602090815260408084206001600160a01b0393909316845291905290205460ff1690565b348015610486575f80fd5b5061049a6104953660046131e3565b611162565b6040516102779c9b9a99989796959493929190613394565b3480156104bd575f80fd5b506103006104cc366004613423565b6112e3565b6102be6104df3660046131e3565b611317565b3480156104ef575f80fd5b506102be6104fe366004613356565b611671565b34801561050e575f80fd5b5061052261051d3660046132ce565b611690565b604051908152602001610277565b34801561053b575f80fd5b506102be61054a3660046131e3565b6116bb565b6102be61055d3660046134f7565b611981565b34801561056d575f80fd5b5061058161057c3660046131e3565b611c57565b6040516102779190613581565b348015610599575f80fd5b506103006105a83660046131e3565b611cc0565b3480156105b8575f80fd5b506105226105c73660046132f8565b611cca565b3480156105d7575f80fd5b506102be6105e63660046131e3565b611d0f565b3480156105f6575f80fd5b506103566106053660046132f8565b611dd7565b348015610615575f80fd5b5061026b6106243660046131e3565b5f9081526006602052604090206005015460ff1690565b348015610646575f80fd5b506102be6106553660046131e3565b611e3f565b348015610665575f80fd5b506102d4611fd2565b348015610679575f80fd5b506102be6106883660046135c1565b611fe1565b348015610698575f80fd5b50610522600d5481565b6105226106b03660046135f4565b611fec565b3480156106c0575f80fd5b506102be6106cf366004613680565b6122e0565b3480156106df575f80fd5b506105226106ee3660046132ce565b6122f7565b3480156106fe575f80fd5b5061026b61070d3660046131e3565b612310565b34801561071d575f80fd5b506102be61072c3660046131e3565b6123fb565b34801561073c575f80fd5b506102d461074b3660046131e3565b61245e565b34801561075b575f80fd5b5061035661076a3660046132f8565b6124cf565b34801561077a575f80fd5b506105226107893660046132ce565b612536565b6102be61079c3660046131e3565b61254f565b3480156107ac575f80fd5b5061026b6107bb3660046136fb565b612711565b3480156107cb575f80fd5b506107df6107da3660046131e3565b61273e565b60405161027796959493929190613727565b6040516331a9108f60e11b8152600481018290525f903090636352211e90602401602060405180830381865afa92505050801561084b575060408051601f3d908101601f1916820190925261084891810190613772565b60015b61085657505f919050565b50600192915050565b919050565b5f6001600160e01b031982166380ac58cd60e01b148061089457506001600160e01b03198216635b5e139f60e01b145b806108af57506301ffc9a760e01b6001600160e01b03198316145b92915050565b6108be82611cc0565b6001600160a01b0316336001600160a01b03161480156108ff57505f8281526008602090815260408083206001600160a01b038516845290915290205460ff165b6109245760405162461bcd60e51b815260040161091b9061378d565b60405180910390fd5b5f5b5f838152600c60205260409020548110156109a0575f838152600c6020526040902080546001600160a01b038416919083908110610966576109666137c2565b5f918252602090912001546001600160a01b03160361098e576109898382612883565b6109a0565b80610998816137ea565b915050610926565b505f8281526008602090815260408083206001600160a01b03851684529091529020805460ff191690556109d48282612951565b5050565b60605f80546109e690613802565b80601f0160208091040260200160405190810160405280929190818152602001828054610a1290613802565b8015610a5d5780601f10610a3457610100808354040283529160200191610a5d565b820191905f5260205f20905b815481529060010190602001808311610a4057829003601f168201915b5050505050905090565b5f610a7182612b1c565b505f828152600460205260409020546001600160a01b03166108af565b6109d4828233612b54565b6001600160a01b0381165f908152600b60205260408120546060918167ffffffffffffffff811115610acd57610acd613443565b604051908082528060200260200182016040528015610af6578160200160208202803683370190505b5090505f805b83811015610ba6576001600160a01b0386165f908152600b60205260408120805483908110610b2d57610b2d6137c2565b5f918252602080832090910154808352600690915260409091206005015490915060ff16158015610b625750610b62816107f1565b15610b935780848481518110610b7a57610b7a6137c2565b602090810291909101015282610b8f816137ea565b9350505b5080610b9e816137ea565b915050610afc565b505f8167ffffffffffffffff811115610bc157610bc1613443565b604051908082528060200260200182016040528015610bea578160200160208202803683370190505b5090505f5b82811015610c4057838181518110610c0957610c096137c2565b6020026020010151828281518110610c2357610c236137c2565b602090810291909101015280610c38816137ea565b915050610bef565b5095945050505050565b610c5382611cc0565b6001600160a01b0316336001600160a01b0316148015610c9557505f8281526008602090815260408083206001600160a01b038516845290915290205460ff16155b8015610cbb5750610ca582611cc0565b6001600160a01b0316816001600160a01b031614155b610cd75760405162461bcd60e51b815260040161091b9061378d565b5f8281526008602090815260408083206001600160a01b038516845290915290205460ff166109d4575f8281526008602090815260408083206001600160a01b0394909416808452938252808320805460ff19166001908117909155858452600c8352818420805480830182559085528385200180546001600160a01b0319168617905593835260098252822080549384018155825290200155565b6001600160a01b038216610d9c57604051633250574960e11b81525f600482015260240161091b565b5f610da8838333612b61565b9050836001600160a01b0316816001600160a01b031614610df6576040516364283d7b60e01b81526001600160a01b038086166004830152602482018490528216604482015260640161091b565b50505050565b5f6108af82611cc0565b6040516331a9108f60e11b8152600481018290523090636352211e90602401602060405180830381865afa925050508015610e5e575060408051601f3d908101601f19168201909252610e5b91810190613772565b60015b610e7a5760405162461bcd60e51b815260040161091b9061383a565b505f81815260086020908152604080832033845290915290205460ff1615156001148015610eb957505f8181526006602052604090206005015460ff16155b8015610edd57505f81815260066020526040902060050154600160a81b900460ff16155b8015610eef5750610eed81612310565b155b610f0b5760405162461bcd60e51b815260040161091b9061378d565b5f610f1582611cc0565b5f83815260066020526040808220549051929350916001600160a01b0384169183156108fc02918491818181858888f19350505050158015610f59573d5f803e3d5ffd5b50610f648383612951565b610f6d83612c53565b5f83815260066020526040908190206005015490516001600160a01b0361010090920482169184169085907f344201ab2f1b413c381fe1cb1ae7d24db70f386bce6c330c4c705bba56d233fa90610fd09086904290918252602082015260400190565b60405180910390a4505050565b6040516331a9108f60e11b8152600481018290523090636352211e90602401602060405180830381865afa925050508015611035575060408051601f3d908101601f1916820190925261103291810190613772565b60015b6110515760405162461bcd60e51b815260040161091b9061383a565b505f81815260086020908152604080832033845290915290205460ff161515600114801561108f57505f8181526006602052604090206005015460ff165b80156110b357505f81815260066020526040902060050154600160a81b900460ff16155b80156110c557506110c381612310565b155b6110e15760405162461bcd60e51b815260040161091b9061378d565b5f818152600660205260409020600501805460ff60a81b1916600160a81b17908190556001600160a01b036101009091041661111c82611cc0565b6001600160a01b0316827f86ea1596926f4e3b70b3169cd39eb59f8ada5f00ef929f33bdf925066cc52e8d4260405161115791815260200190565b60405180910390a450565b60066020525f908152604090208054600182015460028301546003840180549394929391929161119190613802565b80601f01602080910402602001604051908101604052809291908181526020018280546111bd90613802565b80156112085780601f106111df57610100808354040283529160200191611208565b820191905f5260205f20905b8154815290600101906020018083116111eb57829003601f168201915b50505050509080600401805461121d90613802565b80601f016020809104026020016040519081016040528092919081815260200182805461124990613802565b80156112945780601f1061126b57610100808354040283529160200191611294565b820191905f5260205f20905b81548152906001019060200180831161127757829003601f168201915b50505060058401546006850154600790950154939460ff808316956001600160a01b036101008504169550600160a81b840482169450600160b01b8404821693600160b81b900490911691908c565b600c602052815f5260405f2081815481106112fc575f80fd5b5f918252602090912001546001600160a01b03169150829050565b5f81815260076020526040902060040154610100900460ff168015611342575061134081612310565b155b61135e5760405162461bcd60e51b815260040161091b9061378d565b5f81815260076020526040808220815160c0810190925280548290829061138490613802565b80601f01602080910402602001604051908101604052809291908181526020018280546113b090613802565b80156113fb5780601f106113d2576101008083540402835291602001916113fb565b820191905f5260205f20905b8154815290600101906020018083116113de57829003601f168201915b50505050508152602001600182015481526020016002820154815260200160038201805461142890613802565b80601f016020809104026020016040519081016040528092919081815260200182805461145490613802565b801561149f5780601f106114765761010080835404028352916020019161149f565b820191905f5260205f20905b81548152906001019060200180831161148257829003601f168201915b50505091835250506004919091015460ff80821615156020808501919091526101009092041615156040928301525f8581526006825291909120549082015191925090811115611540575f8260200151826114fa9190613867565b90505f61150685611cc0565b6040519091506001600160a01b0382169083156108fc029084905f818181858888f1935050505015801561153c573d5f803e3d5ffd5b5050505b81515f8481526006602052604090206003019061155d90826138c7565b506020808301515f8581526006909252604091829020908155908301516002820155606083015160049091019061159490826138c7565b505f838152600660205260409020600501546080830151600160b81b90910460ff161515901515146115e1578160800151156115d8576115d3836123fb565b6115e1565b6115e183611d0f565b5f838152600760209081526040808320600401805461ff0019169055600690915290206005015461010090046001600160a01b031661161f84611cc0565b6001600160a01b0316847f28e568ffd7b866d7ee8c7dcce7cff305f36a548fd8e7cda30ccea1f23a4a0b2b84866020015142604051610fd0939291909283526020830191909152604082015260600190565b61168b83838360405180602001604052805f8152506122e0565b505050565b600b602052815f5260405f2081815481106116a9575f80fd5b905f5260205f20015f91509150505481565b5f81815260076020526040902060040154610100900460ff1680156116e657506116e481612310565b155b6117025760405162461bcd60e51b815260040161091b9061378d565b5f81815260076020526040808220815160c0810190925280548290829061172890613802565b80601f016020809104026020016040519081016040528092919081815260200182805461175490613802565b801561179f5780601f106117765761010080835404028352916020019161179f565b820191905f5260205f20905b81548152906001019060200180831161178257829003601f168201915b5050505050815260200160018201548152602001600282015481526020016003820180546117cc90613802565b80601f01602080910402602001604051908101604052809291908181526020018280546117f890613802565b80156118435780601f1061181a57610100808354040283529160200191611843565b820191905f5260205f20905b81548152906001019060200180831161182657829003601f168201915b50505091835250506004919091015460ff80821615156020808501919091526101009092041615156040928301525f8581526006825291909120549082015191925010156118ef575f828152600660209081526040822054908301516118a99190613867565b90505f6118b584611cc0565b6040519091506001600160a01b0382169083156108fc029084905f818181858888f193505050501580156118eb573d5f803e3d5ffd5b5050505b5f828152600760209081526040808320600401805461ff0019169055600690915290206005015461010090046001600160a01b031661192d83611cc0565b6001600160a01b0316837f03d2c6a7e141c9f725cdadc2844323cf7bfeb5bafe06a6630c4547c22d875b0e846020015142604051611975929190918252602082015260400190565b60405180910390a45050565b5f8681526006602052604090206005015460ff1680156119a757506119a586612310565b155b80156119c957505f86815260076020526040902060040154610100900460ff16155b80156119ed57505f86815260086020908152604080832033845290915290205460ff165b611a095760405162461bcd60e51b815260040161091b9061378d565b5f8681526006602052604090205480851115611ae8575f611a2a8287613867565b905080341015611aa25760405162461bcd60e51b815260206004820152603a60248201527f466f6e646f7320696e737566696369656e74657320706172612063756272697260448201527f20656c20696e6372656d656e746f2064656c2073616c6172696f000000000000606482015260840161091b565b5f611aad8234613867565b90508015611ae157604051339082156108fc029083905f818181858888f19350505050158015611adf573d5f803e3d5ffd5b505b5050611b41565b80851015611b41575f611afb8683613867565b90505f611b0789611cc0565b6040519091506001600160a01b0382169083156108fc029084905f818181858888f19350505050158015611b3d573d5f803e3d5ffd5b5050505b6040805160c0810182528781526020808201889052818301879052606082018690528415156080830152600160a08301525f8a815260079091529190912081518190611b8d90826138c7565b50602082015160018201556040820151600282015560608201516003820190611bb690826138c7565b506080820151600491909101805460a09093015161ffff1990931691151561ff0019169190911761010092151583021790555f8881526006602090815260409182902060050154825185815291820189905242928201929092529190046001600160a01b031690339089907ff2a718b229c0f095f2a0f830f124a99ea0dae61741dd8863bb9f2c1937398e0d9060600160405180910390a450505050505050565b5f818152600c6020908152604091829020805483518184028101840190945280845260609392830182828015611cb457602002820191905f5260205f20905b81546001600160a01b03168152600190910190602001808311611c96575b50505050509050919050565b5f6108af82612b1c565b5f6001600160a01b038216611cf4576040516322718ad960e21b81525f600482015260240161091b565b506001600160a01b03165f9081526003602052604090205490565b5f81815260066020526040902060050154600160b81b900460ff16611d465760405162461bcd60e51b815260040161091b9061378d565b5f81815260066020819052604082200154611d619042613867565b90508060065f8481526020019081526020015f206002015f828254611d869190613983565b90915550505f8281526006602052604081206007018054839290611dab908490613983565b9091555050505f908152600660208190526040822090810191909155600501805460ff60b81b19169055565b6001600160a01b0381165f90815260096020908152604091829020805483518184028101840190945280845260609392830182828015611cb457602002820191905f5260205f20905b815481526020019060010190808311611e205750505050509050919050565b6040516331a9108f60e11b8152600481018290523090636352211e90602401602060405180830381865afa925050508015611e97575060408051601f3d908101601f19168201909252611e9491810190613772565b60015b611eb35760405162461bcd60e51b815260040161091b9061383a565b505f81815260086020908152604080832033845290915290205460ff16158015611eee57505f8181526006602052604090206005015460ff16155b8015611f1257505f81815260066020526040902060050154600160a81b900460ff16155b8015611f245750611f2281612310565b155b611f405760405162461bcd60e51b815260040161091b9061378d565b5f81815260066020908152604080832060050180543361010081026001600160a81b0319909216919091176001908117909255808552600a84529184208054918201815584529190922001829055611f9782611cc0565b6001600160a01b0316827f9678f981bcf017d96c4d9fb4124afb0d1c62735df0ad70bef9fd0f5c18bda4fb4260405161115791815260200190565b6060600180546109e690613802565b6109d4338383612c8b565b5f853410156120545760405162461bcd60e51b815260206004820152602e60248201527f4465646520656e7669617220656c2073616c6172696f20636f6d6f2076616c6f60448201526d722064656c20636f6e747261746f60901b606482015260840161091b565b600d8054905f612063836137ea565b919050555061207433600d54612d29565b5f61207f8734613867565b905080156120b357604051339082156108fc029083905f818181858888f193505050501580156120b1573d5f803e3d5ffd5b505b5f60405180610180016040528089815260200142896120d29190613983565b81526020808201899052604080830188905260608084018a90525f608085018190526001600160a01b038f1660a086015260c0850181905260e0850181905261010085018190526101208501819052610140909401849052600d5484526006835292819020845181559184015160018301558301516002820155908201519192508291600382019061216490826138c7565b506080820151600482019061217990826138c7565b5060a082015160058201805460c085015160e0860151610100808801516101208901516001600160a81b0319909516961515610100600160a81b031916969096176001600160a01b039384169091021761ffff60a81b1916600160a81b9115159190910260ff60b01b191617600160b01b941515949094029390931760ff60b81b1916600160b81b91151591909102179055610140830151600683015561016090920151600790910155600d80545f90815260086020908152604080832033808552908352818420805460ff191660019081179091556009845282852086548154808401835591875285872090910155958f16808552600b84528285208654815498890182559086529484902090960193909355925483519081529081018c90524292810192909252907f10eeb30b12e63eae3023c3999b0545d717e8af33edac7f4a0b70b130bfba33599060600160405180910390a35050600d54979650505050505050565b6122eb848484610d73565b610df684848484612d8a565b600a602052815f5260405f2081815481106116a9575f80fd5b6040516331a9108f60e11b8152600481018290525f903090636352211e90602401602060405180830381865afa92505050801561236a575060408051601f3d908101601f1916820190925261236791810190613772565b60015b6123865760405162461bcd60e51b815260040161091b9061383a565b505f82815260066020526040902060050154600160a81b900460ff1615156001036123b357506001919050565b5f8281526006602052604090206007810154600282015460019092015490916123db91613983565b6123e59190613983565b4211156123f457506001919050565b505f919050565b5f81815260066020526040902060050154600160b81b900460ff16156124335760405162461bcd60e51b815260040161091b9061378d565b5f90815260066020819052604090912060058101805460ff60b81b1916600160b81b17905542910155565b606061246982612b1c565b505f61247f60408051602081019091525f815290565b90505f81511161249d5760405180602001604052805f8152506124c8565b806124a784612eb0565b6040516020016124b8929190613996565b6040516020818303038152906040525b9392505050565b6001600160a01b0381165f908152600a6020908152604091829020805483518184028101840190945280845260609392830182828015611cb457602002820191905f5260205f2090815481526020019060010190808311611e205750505050509050919050565b6009602052815f5260405f2081815481106116a9575f80fd5b6040516331a9108f60e11b8152600481018290523090636352211e90602401602060405180830381865afa9250505080156125a7575060408051601f3d908101601f191682019092526125a491810190613772565b60015b6125c35760405162461bcd60e51b815260040161091b9061383a565b505f8181526006602052604090206005015460ff1680156125fc57505f81815260066020526040902060050154600160b01b900460ff16155b801561262557505f81815260086020908152604080832033845290915290205460ff1615156001145b801561263b575061263581612310565b15156001145b6126575760405162461bcd60e51b815260040161091b9061378d565b5f818152600660205260408082206005810154905491516101009091046001600160a01b03169283916108fc84150291849190818181858888f193505050501580156126a5573d5f803e3d5ffd5b505f8381526006602052604090819020600501805460ff60b01b1916600160b01b179055516001600160a01b03831690339085907f4b5aadc9a65abf047bc2152ff605000b1dd64e7cb420aba7862457538885bfee90610fd09086904290918252602082015260400190565b6001600160a01b039182165f90815260056020908152604080832093909416825291909152205460ff1690565b60076020525f908152604090208054819061275890613802565b80601f016020809104026020016040519081016040528092919081815260200182805461278490613802565b80156127cf5780601f106127a6576101008083540402835291602001916127cf565b820191905f5260205f20905b8154815290600101906020018083116127b257829003601f168201915b5050505050908060010154908060020154908060030180546127f090613802565b80601f016020809104026020016040519081016040528092919081815260200182805461281c90613802565b80156128675780601f1061283e57610100808354040283529160200191612867565b820191905f5260205f20905b81548152906001019060200180831161284a57829003601f168201915b5050506004909301549192505060ff8082169161010090041686565b5f828152600c60205260409020805461289e90600190613867565b815481106128ae576128ae6137c2565b5f918252602080832090910154848352600c909152604090912080546001600160a01b0390921691839081106128e6576128e66137c2565b5f91825260208083209190910180546001600160a01b0319166001600160a01b039490941693909317909255838152600c9091526040902080548061292d5761292d6139c4565b5f8281526020902081015f1990810180546001600160a01b03191690550190555050565b6040516331a9108f60e11b8152600481018390523090636352211e90602401602060405180830381865afa9250505080156129a9575060408051601f3d908101601f191682019092526129a691810190613772565b60015b6129c55760405162461bcd60e51b815260040161091b9061383a565b506001600160a01b0381165f9081526009602052604081205481906129ec90600190613867565b90505f5b6001600160a01b0384165f90815260096020526040902054811015612a63576001600160a01b0384165f908152600960205260409020805486919083908110612a3b57612a3b6137c2565b905f5260205f20015403612a5157809250612a63565b80612a5b816137ea565b9150506129f0565b50808214612add576001600160a01b0383165f908152600960205260409020805482908110612a9457612a946137c2565b905f5260205f20015460095f856001600160a01b03166001600160a01b031681526020019081526020015f208381548110612ad157612ad16137c2565b5f918252602090912001555b6001600160a01b0383165f908152600960205260409020805480612b0357612b036139c4565b600190038181905f5260205f20015f9055905550505050565b5f818152600260205260408120546001600160a01b0316806108af57604051637e27328960e01b81526004810184905260240161091b565b61168b8383836001612f40565b5f828152600260205260408120546001600160a01b0390811690831615612b8d57612b8d818486613044565b6001600160a01b03811615612bc757612ba85f855f80612f40565b6001600160a01b0381165f90815260036020526040902080545f190190555b6001600160a01b03851615612bf5576001600160a01b0385165f908152600360205260409020805460010190555b5f8481526002602052604080822080546001600160a01b0319166001600160a01b0389811691821790925591518793918516917fddf252ad1be2c89b69c2b068fc378daa952ba7f163c4a11628f55a4df523b3ef91a4949350505050565b5f612c5f5f835f612b61565b90506001600160a01b0381166109d457604051637e27328960e01b81526004810183905260240161091b565b6001600160a01b038216612cbd57604051630b61174360e31b81526001600160a01b038316600482015260240161091b565b6001600160a01b038381165f81815260056020908152604080832094871680845294825291829020805460ff191686151590811790915591519182527f17307eab39ab6107e8899845ad3d59bd9653f200f220920489ca2b5937696c31910160405180910390a3505050565b6001600160a01b038216612d5257604051633250574960e11b81525f600482015260240161091b565b5f612d5e83835f612b61565b90506001600160a01b0381161561168b576040516339e3563760e11b81525f600482015260240161091b565b6001600160a01b0383163b15610df657604051630a85bd0160e11b81526001600160a01b0384169063150b7a0290612dcc9033908890879087906004016139d8565b6020604051808303815f875af1925050508015612e06575060408051601f3d908101601f19168201909252612e0391810190613a14565b60015b612e6d573d808015612e33576040519150601f19603f3d011682016040523d82523d5f602084013e612e38565b606091505b5080515f03612e6557604051633250574960e11b81526001600160a01b038516600482015260240161091b565b805181602001fd5b6001600160e01b03198116630a85bd0160e11b14612ea957604051633250574960e11b81526001600160a01b038516600482015260240161091b565b5050505050565b60605f612ebc836130a8565b60010190505f8167ffffffffffffffff811115612edb57612edb613443565b6040519080825280601f01601f191660200182016040528015612f05576020820181803683370190505b5090508181016020015b5f19016f181899199a1a9b1b9c1cb0b131b232b360811b600a86061a8153600a8504945084612f0f57509392505050565b8080612f5457506001600160a01b03821615155b15613015575f612f6384612b1c565b90506001600160a01b03831615801590612f8f5750826001600160a01b0316816001600160a01b031614155b8015612fa25750612fa08184612711565b155b15612fcb5760405163a9fbf51f60e01b81526001600160a01b038416600482015260240161091b565b81156130135783856001600160a01b0316826001600160a01b03167f8c5be1e5ebec7d5bd14f71427d1e84f3dd0314c0f7b2291e5b200ac8c7c3b92560405160405180910390a45b505b50505f90815260046020526040902080546001600160a01b0319166001600160a01b0392909216919091179055565b61304f83838361317f565b61168b576001600160a01b03831661307d57604051637e27328960e01b81526004810182905260240161091b565b60405163177e802f60e01b81526001600160a01b03831660048201526024810182905260440161091b565b5f8072184f03e93ff9f4daa797ed6e38ed64bf6a1f0160401b83106130e65772184f03e93ff9f4daa797ed6e38ed64bf6a1f0160401b830492506040015b6d04ee2d6d415b85acef81000000008310613112576d04ee2d6d415b85acef8100000000830492506020015b662386f26fc10000831061313057662386f26fc10000830492506010015b6305f5e1008310613148576305f5e100830492506008015b612710831061315c57612710830492506004015b6064831061316e576064830492506002015b600a83106108af5760010192915050565b5f6001600160a01b038316158015906131db5750826001600160a01b0316846001600160a01b031614806131b857506131b88484612711565b806131db57505f828152600460205260409020546001600160a01b038481169116145b949350505050565b5f602082840312156131f3575f80fd5b5035919050565b6001600160e01b03198116811461320f575f80fd5b50565b5f60208284031215613222575f80fd5b81356124c8816131fa565b6001600160a01b038116811461320f575f80fd5b5f8060408385031215613252575f80fd5b8235915060208301356132648161322d565b809150509250929050565b5f5b83811015613289578181015183820152602001613271565b50505f910152565b5f81518084526132a881602086016020860161326f565b601f01601f19169290920160200192915050565b602081525f6124c86020830184613291565b5f80604083850312156132df575f80fd5b82356132ea8161322d565b946020939093013593505050565b5f60208284031215613308575f80fd5b81356124c88161322d565b602080825282518282018190525f9190848201906040850190845b8181101561334a5783518352928401929184019160010161332e565b50909695505050505050565b5f805f60608486031215613368575f80fd5b83356133738161322d565b925060208401356133838161322d565b929592945050506040919091013590565b5f6101808e83528d60208401528c60408401528060608401526133b98184018d613291565b905082810360808401526133cd818c613291565b8a151560a08501526001600160a01b038a1660c085015288151560e085015287151561010085015286151561012085015291506134079050565b61014082019390935261016001529a9950505050505050505050565b5f8060408385031215613434575f80fd5b50508035926020909101359150565b634e487b7160e01b5f52604160045260245ffd5b5f67ffffffffffffffff8084111561347157613471613443565b604051601f8501601f19908116603f0116810190828211818310171561349957613499613443565b816040528093508581528686860111156134b1575f80fd5b858560208301375f602087830101525050509392505050565b5f82601f8301126134d9575f80fd5b6124c883833560208501613457565b8035801515811461085f575f80fd5b5f805f805f8060c0878903121561350c575f80fd5b86359550602087013567ffffffffffffffff8082111561352a575f80fd5b6135368a838b016134ca565b965060408901359550606089013594506080890135915080821115613559575f80fd5b5061356689828a016134ca565b92505061357560a088016134e8565b90509295509295509295565b602080825282518282018190525f9190848201906040850190845b8181101561334a5783516001600160a01b03168352928401929184019160010161359c565b5f80604083850312156135d2575f80fd5b82356135dd8161322d565b91506135eb602084016134e8565b90509250929050565b5f805f805f8060c08789031215613609575f80fd5b86356136148161322d565b9550602087013594506040870135935060608701359250608087013567ffffffffffffffff80821115613645575f80fd5b6136518a838b016134ca565b935060a0890135915080821115613666575f80fd5b5061367389828a016134ca565b9150509295509295509295565b5f805f8060808587031215613693575f80fd5b843561369e8161322d565b935060208501356136ae8161322d565b925060408501359150606085013567ffffffffffffffff8111156136d0575f80fd5b8501601f810187136136e0575f80fd5b6136ef87823560208401613457565b91505092959194509250565b5f806040838503121561370c575f80fd5b82356137178161322d565b915060208301356132648161322d565b60c081525f61373960c0830189613291565b87602084015286604084015282810360608401526137578187613291565b9415156080840152505090151560a090910152949350505050565b5f60208284031215613782575f80fd5b81516124c88161322d565b6020808252818101527f4572726f723a20636f6e646963696f6e6573206e6f2063756d706c696461732e604082015260600190565b634e487b7160e01b5f52603260045260245ffd5b634e487b7160e01b5f52601160045260245ffd5b5f600182016137fb576137fb6137d6565b5060010190565b600181811c9082168061381657607f821691505b60208210810361383457634e487b7160e01b5f52602260045260245ffd5b50919050565b60208082526013908201527222b6103a37b5b2b71037379032bc34b9ba329760691b604082015260600190565b818103818111156108af576108af6137d6565b601f82111561168b575f81815260208120601f850160051c810160208610156138a05750805b601f850160051c820191505b818110156138bf578281556001016138ac565b505050505050565b815167ffffffffffffffff8111156138e1576138e1613443565b6138f5816138ef8454613802565b8461387a565b602080601f831160018114613928575f84156139115750858301515b5f19600386901b1c1916600185901b1785556138bf565b5f85815260208120601f198616915b8281101561395657888601518255948401946001909101908401613937565b508582101561397357878501515f19600388901b60f8161c191681555b5050505050600190811b01905550565b808201808211156108af576108af6137d6565b5f83516139a781846020880161326f565b8351908301906139bb81836020880161326f565b01949350505050565b634e487b7160e01b5f52603160045260245ffd5b6001600160a01b03858116825284166020820152604081018390526080606082018190525f90613a0a90830184613291565b9695505050505050565b5f60208284031215613a24575f80fd5b81516124c8816131fa56fea2646970667358221220eeba53fc9879cbdb1ad5e3ff37b0a377c769ff5605ef6b2e8f0c29529adedffc64736f6c63430008140033",
  "immutableReferences": {},
  "source": "// SPDX-License-Identifier: MIT\r\npragma solidity ^0.8.20;\r\n\r\nimport \"./MyContractManagement.sol\";\r\nimport \"./MyContractChanges.sol\";\r\n\r\ncontract MyContractAux is MyContractManagement, MyContractChanges {\r\n    function getManagersOfToken(\r\n        uint256 _tokenId\r\n    ) public view returns (address[] memory) {\r\n        return tokenManagersList[_tokenId];\r\n    }\r\n\r\n    function isManagerOfToken(\r\n        uint256 _tokenId,\r\n        address _manager\r\n    ) public view returns (bool) {\r\n        return tokenManagers[_tokenId][_manager];\r\n    }\r\n\r\n    function getContractsFromOwner(\r\n        address _address\r\n    ) public view returns (uint256[] memory) {\r\n        return contractsOwner[_address];\r\n    }\r\n\r\n    function getContractsOfWorker(\r\n        address _address\r\n    ) public view returns (uint256[] memory) {\r\n        return activeContractsOfWorker[_address];\r\n    }\r\n\r\n    function getUnsignedContractsOfWorker(\r\n        address worker\r\n    ) public view returns (uint256[] memory) {\r\n        uint256 totalContracts = unsignedContractsOfWorker[worker].length;\r\n        uint256[] memory tempContracts = new uint256[](totalContracts);\r\n        uint256 count = 0;\r\n\r\n        for (uint256 i = 0; i < totalContracts; i++) {\r\n            uint256 contractId = unsignedContractsOfWorker[worker][i];\r\n\r\n            if (\r\n                !contractDetails[contractId].isSigned && tokenExists(contractId)\r\n            ) {\r\n                tempContracts[count] = contractId;\r\n                count++;\r\n            }\r\n        }\r\n\r\n        uint256[] memory result = new uint256[](count);\r\n        for (uint256 j = 0; j < count; j++) {\r\n            result[j] = tempContracts[j];\r\n        }\r\n        return result;\r\n    }\r\n\r\n    function tokenExists(uint256 _tokenId) public view returns (bool) {\r\n        try this.ownerOf(_tokenId) {\r\n            return true;\r\n        } catch {\r\n            return false;\r\n        }\r\n    }\r\n\r\n    function isContractSigned(uint256 _tokenID) public view returns (bool) {\r\n        return contractDetails[_tokenID].isSigned;\r\n    }\r\n\r\n    function getOwnerOfContract(\r\n        uint256 _tokenID\r\n    ) public view returns (address) {\r\n        return ownerOf(_tokenID);\r\n    }\r\n}\r\n",
  "sourcePath": "E:\\ubu-contractme\\Code\\SmartContract\\contracts\\MyContractAux.sol",
  "compiler": {
    "name": "solc",
    "version": "0.8.20+commit.a1b79de6.Emscripten.clang"
  },
  "schemaVersion": "3.4.16",
  "updatedAt": "2024-06-06T16:33:52.899Z",
  "networkType": "ethereum",
  "devdoc": {
    "errors": {
      "ERC721IncorrectOwner(address,uint256,address)": [
        {
          "details": "Indicates an error related to the ownership over a particular token. Used in transfers.",
          "params": {
            "owner": "Address of the current owner of a token.",
            "sender": "Address whose tokens are being transferred.",
            "tokenId": "Identifier number of a token."
          }
        }
      ],
      "ERC721InsufficientApproval(address,uint256)": [
        {
          "details": "Indicates a failure with the `operator`s approval. Used in transfers.",
          "params": {
            "operator": "Address that may be allowed to operate on tokens without being their owner.",
            "tokenId": "Identifier number of a token."
          }
        }
      ],
      "ERC721InvalidApprover(address)": [
        {
          "details": "Indicates a failure with the `approver` of a token to be approved. Used in approvals.",
          "params": {
            "approver": "Address initiating an approval operation."
          }
        }
      ],
      "ERC721InvalidOperator(address)": [
        {
          "details": "Indicates a failure with the `operator` to be approved. Used in approvals.",
          "params": {
            "operator": "Address that may be allowed to operate on tokens without being their owner."
          }
        }
      ],
      "ERC721InvalidOwner(address)": [
        {
          "details": "Indicates that an address can't be an owner. For example, `address(0)` is a forbidden owner in EIP-20. Used in balance queries.",
          "params": {
            "owner": "Address of the current owner of a token."
          }
        }
      ],
      "ERC721InvalidReceiver(address)": [
        {
          "details": "Indicates a failure with the token `receiver`. Used in transfers.",
          "params": {
            "receiver": "Address to which tokens are being transferred."
          }
        }
      ],
      "ERC721InvalidSender(address)": [
        {
          "details": "Indicates a failure with the token `sender`. Used in transfers.",
          "params": {
            "sender": "Address whose tokens are being transferred."
          }
        }
      ],
      "ERC721NonexistentToken(uint256)": [
        {
          "details": "Indicates a `tokenId` whose `owner` is the zero address.",
          "params": {
            "tokenId": "Identifier number of a token."
          }
        }
      ]
    },
    "events": {
      "Approval(address,address,uint256)": {
        "details": "Emitted when `owner` enables `approved` to manage the `tokenId` token."
      },
      "ApprovalForAll(address,address,bool)": {
        "details": "Emitted when `owner` enables or disables (`approved`) `operator` to manage all of its assets."
      },
      "Transfer(address,address,uint256)": {
        "details": "Emitted when `tokenId` token is transferred from `from` to `to`."
      }
    },
    "kind": "dev",
    "methods": {
      "approve(address,uint256)": {
        "details": "See {IERC721-approve}."
      },
      "balanceOf(address)": {
        "details": "See {IERC721-balanceOf}."
      },
      "getApproved(uint256)": {
        "details": "See {IERC721-getApproved}."
      },
      "isApprovedForAll(address,address)": {
        "details": "See {IERC721-isApprovedForAll}."
      },
      "name()": {
        "details": "See {IERC721Metadata-name}."
      },
      "ownerOf(uint256)": {
        "details": "See {IERC721-ownerOf}."
      },
      "safeTransferFrom(address,address,uint256)": {
        "details": "See {IERC721-safeTransferFrom}."
      },
      "safeTransferFrom(address,address,uint256,bytes)": {
        "details": "See {IERC721-safeTransferFrom}."
      },
      "setApprovalForAll(address,bool)": {
        "details": "See {IERC721-setApprovalForAll}."
      },
      "supportsInterface(bytes4)": {
        "details": "See {IERC165-supportsInterface}."
      },
      "symbol()": {
        "details": "See {IERC721Metadata-symbol}."
      },
      "tokenURI(uint256)": {
        "details": "See {IERC721Metadata-tokenURI}."
      },
      "transferFrom(address,address,uint256)": {
        "details": "See {IERC721-transferFrom}."
      }
    },
    "version": 1
  },
  "userdoc": {
    "kind": "user",
    "methods": {},
    "version": 1
  }
}