{
  "contractName": "MyContractManagement",
  "abi": [
    {
      "inputs": [
        {
          "internalType": "address",
          "name": "sender",
          "type": "address"
        },
        {
          "internalType": "uint256",
          "name": "tokenId",
          "type": "uint256"
        },
        {
          "internalType": "address",
          "name": "owner",
          "type": "address"
        }
      ],
      "name": "ERC721IncorrectOwner",
      "type": "error"
    },
    {
      "inputs": [
        {
          "internalType": "address",
          "name": "operator",
          "type": "address"
        },
        {
          "internalType": "uint256",
          "name": "tokenId",
          "type": "uint256"
        }
      ],
      "name": "ERC721InsufficientApproval",
      "type": "error"
    },
    {
      "inputs": [
        {
          "internalType": "address",
          "name": "approver",
          "type": "address"
        }
      ],
      "name": "ERC721InvalidApprover",
      "type": "error"
    },
    {
      "inputs": [
        {
          "internalType": "address",
          "name": "operator",
          "type": "address"
        }
      ],
      "name": "ERC721InvalidOperator",
      "type": "error"
    },
    {
      "inputs": [
        {
          "internalType": "address",
          "name": "owner",
          "type": "address"
        }
      ],
      "name": "ERC721InvalidOwner",
      "type": "error"
    },
    {
      "inputs": [
        {
          "internalType": "address",
          "name": "receiver",
          "type": "address"
        }
      ],
      "name": "ERC721InvalidReceiver",
      "type": "error"
    },
    {
      "inputs": [
        {
          "internalType": "address",
          "name": "sender",
          "type": "address"
        }
      ],
      "name": "ERC721InvalidSender",
      "type": "error"
    },
    {
      "inputs": [
        {
          "internalType": "uint256",
          "name": "tokenId",
          "type": "uint256"
        }
      ],
      "name": "ERC721NonexistentToken",
      "type": "error"
    },
    {
      "anonymous": false,
      "inputs": [
        {
          "indexed": true,
          "internalType": "address",
          "name": "owner",
          "type": "address"
        },
        {
          "indexed": true,
          "internalType": "address",
          "name": "approved",
          "type": "address"
        },
        {
          "indexed": true,
          "internalType": "uint256",
          "name": "tokenId",
          "type": "uint256"
        }
      ],
      "name": "Approval",
      "type": "event"
    },
    {
      "anonymous": false,
      "inputs": [
        {
          "indexed": true,
          "internalType": "address",
          "name": "owner",
          "type": "address"
        },
        {
          "indexed": true,
          "internalType": "address",
          "name": "operator",
          "type": "address"
        },
        {
          "indexed": false,
          "internalType": "bool",
          "name": "approved",
          "type": "bool"
        }
      ],
      "name": "ApprovalForAll",
      "type": "event"
    },
    {
      "anonymous": false,
      "inputs": [
        {
          "indexed": true,
          "internalType": "uint256",
          "name": "tokenId",
          "type": "uint256"
        },
        {
          "indexed": true,
          "internalType": "address",
          "name": "employer",
          "type": "address"
        },
        {
          "indexed": true,
          "internalType": "address",
          "name": "worker",
          "type": "address"
        },
        {
          "indexed": false,
          "internalType": "uint256",
          "name": "salary",
          "type": "uint256"
        },
        {
          "indexed": false,
          "internalType": "uint256",
          "name": "timestamp",
          "type": "uint256"
        }
      ],
      "name": "ContractCancelled",
      "type": "event"
    },
    {
      "anonymous": false,
      "inputs": [
        {
          "indexed": true,
          "internalType": "uint256",
          "name": "tokenId",
          "type": "uint256"
        },
        {
          "indexed": true,
          "internalType": "address",
          "name": "employer",
          "type": "address"
        },
        {
          "indexed": true,
          "internalType": "address",
          "name": "worker",
          "type": "address"
        },
        {
          "indexed": false,
          "internalType": "uint256",
          "name": "timestamp",
          "type": "uint256"
        }
      ],
      "name": "ContractFinalized",
      "type": "event"
    },
    {
      "anonymous": false,
      "inputs": [
        {
          "indexed": true,
          "internalType": "uint256",
          "name": "tokenId",
          "type": "uint256"
        },
        {
          "indexed": true,
          "internalType": "address",
          "name": "employer",
          "type": "address"
        },
        {
          "indexed": true,
          "internalType": "address",
          "name": "worker",
          "type": "address"
        },
        {
          "indexed": false,
          "internalType": "uint256",
          "name": "timestamp",
          "type": "uint256"
        }
      ],
      "name": "ContractSigned",
      "type": "event"
    },
    {
      "anonymous": false,
      "inputs": [
        {
          "indexed": true,
          "internalType": "uint256",
          "name": "tokenId",
          "type": "uint256"
        },
        {
          "indexed": false,
          "internalType": "uint256",
          "name": "salary",
          "type": "uint256"
        },
        {
          "indexed": true,
          "internalType": "address",
          "name": "employer",
          "type": "address"
        },
        {
          "indexed": true,
          "internalType": "address",
          "name": "worker",
          "type": "address"
        },
        {
          "indexed": false,
          "internalType": "uint256",
          "name": "timestamp",
          "type": "uint256"
        }
      ],
      "name": "SalaryReleased",
      "type": "event"
    },
    {
      "anonymous": false,
      "inputs": [
        {
          "indexed": false,
          "internalType": "uint256",
          "name": "tokenId",
          "type": "uint256"
        },
        {
          "indexed": true,
          "internalType": "address",
          "name": "employer",
          "type": "address"
        },
        {
          "indexed": false,
          "internalType": "uint256",
          "name": "salary",
          "type": "uint256"
        },
        {
          "indexed": false,
          "internalType": "uint256",
          "name": "timestamp",
          "type": "uint256"
        }
      ],
      "name": "TokenMinted",
      "type": "event"
    },
    {
      "anonymous": false,
      "inputs": [
        {
          "indexed": true,
          "internalType": "address",
          "name": "from",
          "type": "address"
        },
        {
          "indexed": true,
          "internalType": "address",
          "name": "to",
          "type": "address"
        },
        {
          "indexed": true,
          "internalType": "uint256",
          "name": "tokenId",
          "type": "uint256"
        }
      ],
      "name": "Transfer",
      "type": "event"
    },
    {
      "inputs": [
        {
          "internalType": "address",
          "name": "",
          "type": "address"
        },
        {
          "internalType": "uint256",
          "name": "",
          "type": "uint256"
        }
      ],
      "name": "activeContractsOfWorker",
      "outputs": [
        {
          "internalType": "uint256",
          "name": "",
          "type": "uint256"
        }
      ],
      "stateMutability": "view",
      "type": "function"
    },
    {
      "inputs": [
        {
          "internalType": "address",
          "name": "to",
          "type": "address"
        },
        {
          "internalType": "uint256",
          "name": "tokenId",
          "type": "uint256"
        }
      ],
      "name": "approve",
      "outputs": [],
      "stateMutability": "nonpayable",
      "type": "function"
    },
    {
      "inputs": [
        {
          "internalType": "address",
          "name": "owner",
          "type": "address"
        }
      ],
      "name": "balanceOf",
      "outputs": [
        {
          "internalType": "uint256",
          "name": "",
          "type": "uint256"
        }
      ],
      "stateMutability": "view",
      "type": "function"
    },
    {
      "inputs": [
        {
          "internalType": "uint256",
          "name": "",
          "type": "uint256"
        }
      ],
      "name": "changeProposals",
      "outputs": [
        {
          "internalType": "string",
          "name": "newTitle",
          "type": "string"
        },
        {
          "internalType": "uint256",
          "name": "newSalary",
          "type": "uint256"
        },
        {
          "internalType": "uint256",
          "name": "newDuration",
          "type": "uint256"
        },
        {
          "internalType": "string",
          "name": "newDescription",
          "type": "string"
        },
        {
          "internalType": "bool",
          "name": "isPaused",
          "type": "bool"
        },
        {
          "internalType": "bool",
          "name": "isPending",
          "type": "bool"
        }
      ],
      "stateMutability": "view",
      "type": "function"
    },
    {
      "inputs": [
        {
          "internalType": "uint256",
          "name": "",
          "type": "uint256"
        }
      ],
      "name": "contractDetails",
      "outputs": [
        {
          "internalType": "uint256",
          "name": "salary",
          "type": "uint256"
        },
        {
          "internalType": "uint256",
          "name": "startDate",
          "type": "uint256"
        },
        {
          "internalType": "uint256",
          "name": "duration",
          "type": "uint256"
        },
        {
          "internalType": "string",
          "name": "title",
          "type": "string"
        },
        {
          "internalType": "string",
          "name": "description",
          "type": "string"
        },
        {
          "internalType": "bool",
          "name": "isSigned",
          "type": "bool"
        },
        {
          "internalType": "address",
          "name": "worker",
          "type": "address"
        },
        {
          "internalType": "bool",
          "name": "isFinished",
          "type": "bool"
        },
        {
          "internalType": "bool",
          "name": "isReleased",
          "type": "bool"
        },
        {
          "internalType": "bool",
          "name": "isPaused",
          "type": "bool"
        },
        {
          "internalType": "uint256",
          "name": "pauseTime",
          "type": "uint256"
        },
        {
          "internalType": "uint256",
          "name": "pauseDuration",
          "type": "uint256"
        }
      ],
      "stateMutability": "view",
      "type": "function"
    },
    {
      "inputs": [
        {
          "internalType": "address",
          "name": "",
          "type": "address"
        },
        {
          "internalType": "uint256",
          "name": "",
          "type": "uint256"
        }
      ],
      "name": "contractsOwner",
      "outputs": [
        {
          "internalType": "uint256",
          "name": "",
          "type": "uint256"
        }
      ],
      "stateMutability": "view",
      "type": "function"
    },
    {
      "inputs": [
        {
          "internalType": "uint256",
          "name": "tokenId",
          "type": "uint256"
        }
      ],
      "name": "getApproved",
      "outputs": [
        {
          "internalType": "address",
          "name": "",
          "type": "address"
        }
      ],
      "stateMutability": "view",
      "type": "function"
    },
    {
      "inputs": [
        {
          "internalType": "address",
          "name": "owner",
          "type": "address"
        },
        {
          "internalType": "address",
          "name": "operator",
          "type": "address"
        }
      ],
      "name": "isApprovedForAll",
      "outputs": [
        {
          "internalType": "bool",
          "name": "",
          "type": "bool"
        }
      ],
      "stateMutability": "view",
      "type": "function"
    },
    {
      "inputs": [
        {
          "internalType": "uint256",
          "name": "_tokenID",
          "type": "uint256"
        }
      ],
      "name": "isContractFinished",
      "outputs": [
        {
          "internalType": "bool",
          "name": "",
          "type": "bool"
        }
      ],
      "stateMutability": "view",
      "type": "function"
    },
    {
      "inputs": [],
      "name": "name",
      "outputs": [
        {
          "internalType": "string",
          "name": "",
          "type": "string"
        }
      ],
      "stateMutability": "view",
      "type": "function"
    },
    {
      "inputs": [
        {
          "internalType": "uint256",
          "name": "tokenId",
          "type": "uint256"
        }
      ],
      "name": "ownerOf",
      "outputs": [
        {
          "internalType": "address",
          "name": "",
          "type": "address"
        }
      ],
      "stateMutability": "view",
      "type": "function"
    },
    {
      "inputs": [
        {
          "internalType": "address",
          "name": "from",
          "type": "address"
        },
        {
          "internalType": "address",
          "name": "to",
          "type": "address"
        },
        {
          "internalType": "uint256",
          "name": "tokenId",
          "type": "uint256"
        }
      ],
      "name": "safeTransferFrom",
      "outputs": [],
      "stateMutability": "nonpayable",
      "type": "function"
    },
    {
      "inputs": [
        {
          "internalType": "address",
          "name": "from",
          "type": "address"
        },
        {
          "internalType": "address",
          "name": "to",
          "type": "address"
        },
        {
          "internalType": "uint256",
          "name": "tokenId",
          "type": "uint256"
        },
        {
          "internalType": "bytes",
          "name": "data",
          "type": "bytes"
        }
      ],
      "name": "safeTransferFrom",
      "outputs": [],
      "stateMutability": "nonpayable",
      "type": "function"
    },
    {
      "inputs": [
        {
          "internalType": "address",
          "name": "operator",
          "type": "address"
        },
        {
          "internalType": "bool",
          "name": "approved",
          "type": "bool"
        }
      ],
      "name": "setApprovalForAll",
      "outputs": [],
      "stateMutability": "nonpayable",
      "type": "function"
    },
    {
      "inputs": [
        {
          "internalType": "bytes4",
          "name": "interfaceId",
          "type": "bytes4"
        }
      ],
      "name": "supportsInterface",
      "outputs": [
        {
          "internalType": "bool",
          "name": "",
          "type": "bool"
        }
      ],
      "stateMutability": "view",
      "type": "function"
    },
    {
      "inputs": [],
      "name": "symbol",
      "outputs": [
        {
          "internalType": "string",
          "name": "",
          "type": "string"
        }
      ],
      "stateMutability": "view",
      "type": "function"
    },
    {
      "inputs": [],
      "name": "tokenID",
      "outputs": [
        {
          "internalType": "uint256",
          "name": "",
          "type": "uint256"
        }
      ],
      "stateMutability": "view",
      "type": "function"
    },
    {
      "inputs": [
        {
          "internalType": "uint256",
          "name": "",
          "type": "uint256"
        },
        {
          "internalType": "address",
          "name": "",
          "type": "address"
        }
      ],
      "name": "tokenManagers",
      "outputs": [
        {
          "internalType": "bool",
          "name": "",
          "type": "bool"
        }
      ],
      "stateMutability": "view",
      "type": "function"
    },
    {
      "inputs": [
        {
          "internalType": "uint256",
          "name": "",
          "type": "uint256"
        },
        {
          "internalType": "uint256",
          "name": "",
          "type": "uint256"
        }
      ],
      "name": "tokenManagersList",
      "outputs": [
        {
          "internalType": "address",
          "name": "",
          "type": "address"
        }
      ],
      "stateMutability": "view",
      "type": "function"
    },
    {
      "inputs": [
        {
          "internalType": "uint256",
          "name": "tokenId",
          "type": "uint256"
        }
      ],
      "name": "tokenURI",
      "outputs": [
        {
          "internalType": "string",
          "name": "",
          "type": "string"
        }
      ],
      "stateMutability": "view",
      "type": "function"
    },
    {
      "inputs": [
        {
          "internalType": "address",
          "name": "from",
          "type": "address"
        },
        {
          "internalType": "address",
          "name": "to",
          "type": "address"
        },
        {
          "internalType": "uint256",
          "name": "tokenId",
          "type": "uint256"
        }
      ],
      "name": "transferFrom",
      "outputs": [],
      "stateMutability": "nonpayable",
      "type": "function"
    },
    {
      "inputs": [
        {
          "internalType": "address",
          "name": "",
          "type": "address"
        },
        {
          "internalType": "uint256",
          "name": "",
          "type": "uint256"
        }
      ],
      "name": "unsignedContractsOfWorker",
      "outputs": [
        {
          "internalType": "uint256",
          "name": "",
          "type": "uint256"
        }
      ],
      "stateMutability": "view",
      "type": "function"
    },
    {
      "inputs": [
        {
          "internalType": "address",
          "name": "_to",
          "type": "address"
        },
        {
          "internalType": "uint256",
          "name": "_salary",
          "type": "uint256"
        },
        {
          "internalType": "uint256",
          "name": "_duration",
          "type": "uint256"
        },
        {
          "internalType": "string",
          "name": "_description",
          "type": "string"
        },
        {
          "internalType": "string",
          "name": "_title",
          "type": "string"
        }
      ],
      "name": "mint",
      "outputs": [
        {
          "internalType": "uint256",
          "name": "",
          "type": "uint256"
        }
      ],
      "stateMutability": "payable",
      "type": "function"
    },
    {
      "inputs": [
        {
          "internalType": "uint256",
          "name": "_tokenID",
          "type": "uint256"
        }
      ],
      "name": "signContract",
      "outputs": [],
      "stateMutability": "nonpayable",
      "type": "function"
    },
    {
      "inputs": [
        {
          "internalType": "uint256",
          "name": "_tokenID",
          "type": "uint256"
        }
      ],
      "name": "releaseSalary",
      "outputs": [],
      "stateMutability": "payable",
      "type": "function"
    },
    {
      "inputs": [
        {
          "internalType": "uint256",
          "name": "_tokenID",
          "type": "uint256"
        }
      ],
      "name": "finalizeContract",
      "outputs": [],
      "stateMutability": "nonpayable",
      "type": "function"
    },
    {
      "inputs": [
        {
          "internalType": "uint256",
          "name": "_tokenID",
          "type": "uint256"
        }
      ],
      "name": "cancelContract",
      "outputs": [],
      "stateMutability": "nonpayable",
      "type": "function"
    }
  ],
  "bytecode": "0x608060405234801562000010575f80fd5b506040518060400160405280600781526020017f4d79546f6b656e000000000000000000000000000000000000000000000000008152506040518060400160405280600381526020017f4d544b0000000000000000000000000000000000000000000000000000000000815250815f90816200008d91906200030c565b5080600190816200009f91906200030c565b505050620003f0565b5f81519050919050565b7f4e487b71000000000000000000000000000000000000000000000000000000005f52604160045260245ffd5b7f4e487b71000000000000000000000000000000000000000000000000000000005f52602260045260245ffd5b5f60028204905060018216806200012457607f821691505b6020821081036200013a5762000139620000df565b5b50919050565b5f819050815f5260205f209050919050565b5f6020601f8301049050919050565b5f82821b905092915050565b5f600883026200019e7fffffffffffffffffffffffffffffffffffffffffffffffffffffffffffffffff8262000161565b620001aa868362000161565b95508019841693508086168417925050509392505050565b5f819050919050565b5f819050919050565b5f620001f4620001ee620001e884620001c2565b620001cb565b620001c2565b9050919050565b5f819050919050565b6200020f83620001d4565b620002276200021e82620001fb565b8484546200016d565b825550505050565b5f90565b6200023d6200022f565b6200024a81848462000204565b505050565b5b818110156200027157620002655f8262000233565b60018101905062000250565b5050565b601f821115620002c0576200028a8162000140565b620002958462000152565b81016020851015620002a5578190505b620002bd620002b48562000152565b8301826200024f565b50505b505050565b5f82821c905092915050565b5f620002e25f1984600802620002c5565b1980831691505092915050565b5f620002fc8383620002d1565b9150826002028217905092915050565b6200031782620000a8565b67ffffffffffffffff811115620003335762000332620000b2565b5b6200033f82546200010c565b6200034c82828562000275565b5f60209050601f83116001811462000382575f84156200036d578287015190505b620003798582620002ef565b865550620003e8565b601f198416620003928662000140565b5f5b82811015620003bb5784890151825560018201915060208501945060208101905062000394565b86831015620003db5784890151620003d7601f891682620002d1565b8355505b6001600288020188555050505b505050505050565b61435080620003fe5f395ff3fe60806040526004361061019b575f3560e01c80636d013618116100eb578063bc3a8e9e11610089578063e1b1462011610063578063e1b146201461062c578063e2c07c7b14610668578063e985e9c514610684578063fc5a4efe146106c05761019b565b8063bc3a8e9e14610578578063bce87156146105b4578063c87b56dd146105f05761019b565b806395d89b41116100c557806395d89b41146104d4578063a22cb465146104fe578063a5c42ef114610526578063b88d4fde146105505761019b565b80636d0136181461044057806370a08231146104705780639537e8d1146104ac5761019b565b80632907eb161161015857806336a2d6f51161013257806336a2d6f51461036457806342842e0e146103a057806345f18460146103c85780636352211e146104045761019b565b80632907eb16146102b9578063294a7931146102e15780633330a55f1461031d5761019b565b806301ffc9a71461019f57806306fdde03146101db578063081812fc14610205578063095ea7b31461024157806323b872dd146102695780632804745014610291575b5f80fd5b3480156101aa575f80fd5b506101c560048036038101906101c091906132be565b610701565b6040516101d29190613303565b60405180910390f35b3480156101e6575f80fd5b506101ef6107e2565b6040516101fc91906133a6565b60405180910390f35b348015610210575f80fd5b5061022b600480360381019061022691906133f9565b610871565b6040516102389190613463565b60405180910390f35b34801561024c575f80fd5b50610267600480360381019061026291906134a6565b61088c565b005b348015610274575f80fd5b5061028f600480360381019061028a91906134e4565b6108a2565b005b34801561029c575f80fd5b506102b760048036038101906102b291906133f9565b6109a1565b005b3480156102c4575f80fd5b506102df60048036038101906102da91906133f9565b610c68565b005b3480156102ec575f80fd5b5061030760048036038101906103029190613534565b610efc565b6040516103149190613303565b60405180910390f35b348015610328575f80fd5b50610343600480360381019061033e91906133f9565b610f26565b60405161035b9c9b9a99989796959493929190613581565b60405180910390f35b34801561036f575f80fd5b5061038a60048036038101906103859190613647565b6110e1565b6040516103979190613463565b60405180910390f35b3480156103ab575f80fd5b506103c660048036038101906103c191906134e4565b611129565b005b3480156103d3575f80fd5b506103ee60048036038101906103e991906134a6565b611148565b6040516103fb9190613685565b60405180910390f35b34801561040f575f80fd5b5061042a600480360381019061042591906133f9565b611173565b6040516104379190613463565b60405180910390f35b61045a600480360381019061045591906137ca565b611184565b6040516104679190613685565b60405180910390f35b34801561047b575f80fd5b5061049660048036038101906104919190613879565b611587565b6040516104a39190613685565b60405180910390f35b3480156104b7575f80fd5b506104d260048036038101906104cd91906133f9565b61163d565b005b3480156104df575f80fd5b506104e86119bb565b6040516104f591906133a6565b60405180910390f35b348015610509575f80fd5b50610524600480360381019061051f91906138ce565b611a4b565b005b348015610531575f80fd5b5061053a611a61565b6040516105479190613685565b60405180910390f35b34801561055b575f80fd5b50610576600480360381019061057191906139aa565b611a67565b005b348015610583575f80fd5b5061059e600480360381019061059991906134a6565b611a84565b6040516105ab9190613685565b60405180910390f35b3480156105bf575f80fd5b506105da60048036038101906105d591906133f9565b611aaf565b6040516105e79190613303565b60405180910390f35b3480156105fb575f80fd5b50610616600480360381019061061191906133f9565b611c05565b60405161062391906133a6565b60405180910390f35b348015610637575f80fd5b50610652600480360381019061064d91906134a6565b611c6b565b60405161065f9190613685565b60405180910390f35b610682600480360381019061067d91906133f9565b611c96565b005b34801561068f575f80fd5b506106aa60048036038101906106a59190613a2a565b611f86565b6040516106b79190613303565b60405180910390f35b3480156106cb575f80fd5b506106e660048036038101906106e191906133f9565b612014565b6040516106f896959493929190613a68565b60405180910390f35b5f7f80ac58cd000000000000000000000000000000000000000000000000000000007bffffffffffffffffffffffffffffffffffffffffffffffffffffffff1916827bffffffffffffffffffffffffffffffffffffffffffffffffffffffff191614806107cb57507f5b5e139f000000000000000000000000000000000000000000000000000000007bffffffffffffffffffffffffffffffffffffffffffffffffffffffff1916827bffffffffffffffffffffffffffffffffffffffffffffffffffffffff1916145b806107db57506107da82612171565b5b9050919050565b60605f80546107f090613b02565b80601f016020809104026020016040519081016040528092919081815260200182805461081c90613b02565b80156108675780601f1061083e57610100808354040283529160200191610867565b820191905f5260205f20905b81548152906001019060200180831161084a57829003601f168201915b5050505050905090565b5f61087b826121da565b5061088582612260565b9050919050565b61089e8282610899612299565b6122a0565b5050565b5f73ffffffffffffffffffffffffffffffffffffffff168273ffffffffffffffffffffffffffffffffffffffff1603610912575f6040517f64a0ae920000000000000000000000000000000000000000000000000000000081526004016109099190613463565b60405180910390fd5b5f6109258383610920612299565b6122b2565b90508373ffffffffffffffffffffffffffffffffffffffff168173ffffffffffffffffffffffffffffffffffffffff161461099b578382826040517f64283d7b00000000000000000000000000000000000000000000000000000000815260040161099293929190613b32565b60405180910390fd5b50505050565b3073ffffffffffffffffffffffffffffffffffffffff16636352211e826040518263ffffffff1660e01b81526004016109da9190613685565b602060405180830381865afa925050508015610a1457506040513d601f19601f82011682018060405250810190610a119190613b7b565b60015b610a53576040517f08c379a0000000000000000000000000000000000000000000000000000000008152600401610a4a90613bf0565b60405180910390fd5b506001151560085f8381526020019081526020015f205f3373ffffffffffffffffffffffffffffffffffffffff1673ffffffffffffffffffffffffffffffffffffffff1681526020019081526020015f205f9054906101000a900460ff161515148015610ade575060065f8281526020019081526020015f206005015f9054906101000a900460ff16155b8015610b0e57505f151560065f8381526020019081526020015f2060050160159054906101000a900460ff161515145b610b4d576040517f08c379a0000000000000000000000000000000000000000000000000000000008152600401610b4490613c58565b60405180910390fd5b5f610b5782611173565b90505f60065f8481526020019081526020015f205f015490508173ffffffffffffffffffffffffffffffffffffffff166108fc8290811502906040515f60405180830381858888f19350505050158015610bb3573d5f803e3d5ffd5b50610bbe83836124bd565b610bc78361281c565b60065f8481526020019081526020015f2060050160019054906101000a900473ffffffffffffffffffffffffffffffffffffffff1673ffffffffffffffffffffffffffffffffffffffff168273ffffffffffffffffffffffffffffffffffffffff16847f344201ab2f1b413c381fe1cb1ae7d24db70f386bce6c330c4c705bba56d233fa8442604051610c5b929190613c76565b60405180910390a4505050565b3073ffffffffffffffffffffffffffffffffffffffff16636352211e826040518263ffffffff1660e01b8152600401610ca19190613685565b602060405180830381865afa925050508015610cdb57506040513d601f19601f82011682018060405250810190610cd89190613b7b565b60015b610d1a576040517f08c379a0000000000000000000000000000000000000000000000000000000008152600401610d1190613bf0565b60405180910390fd5b506001151560085f8381526020019081526020015f205f3373ffffffffffffffffffffffffffffffffffffffff1673ffffffffffffffffffffffffffffffffffffffff1681526020019081526020015f205f9054906101000a900460ff161515148015610da4575060065f8281526020019081526020015f206005015f9054906101000a900460ff165b8015610dd457505f151560065f8381526020019081526020015f2060050160159054906101000a900460ff161515145b8015610deb57505f1515610de782611aaf565b1515145b610e2a576040517f08c379a0000000000000000000000000000000000000000000000000000000008152600401610e2190613c58565b60405180910390fd5b600160065f8381526020019081526020015f2060050160156101000a81548160ff02191690831515021790555060065f8281526020019081526020015f2060050160019054906101000a900473ffffffffffffffffffffffffffffffffffffffff1673ffffffffffffffffffffffffffffffffffffffff16610eab82611173565b73ffffffffffffffffffffffffffffffffffffffff16827f86ea1596926f4e3b70b3169cd39eb59f8ada5f00ef929f33bdf925066cc52e8d42604051610ef19190613685565b60405180910390a450565b6008602052815f5260405f20602052805f5260405f205f915091509054906101000a900460ff1681565b6006602052805f5260405f205f91509050805f015490806001015490806002015490806003018054610f5790613b02565b80601f0160208091040260200160405190810160405280929190818152602001828054610f8390613b02565b8015610fce5780601f10610fa557610100808354040283529160200191610fce565b820191905f5260205f20905b815481529060010190602001808311610fb157829003601f168201915b505050505090806004018054610fe390613b02565b80601f016020809104026020016040519081016040528092919081815260200182805461100f90613b02565b801561105a5780601f106110315761010080835404028352916020019161105a565b820191905f5260205f20905b81548152906001019060200180831161103d57829003601f168201915b505050505090806005015f9054906101000a900460ff16908060050160019054906101000a900473ffffffffffffffffffffffffffffffffffffffff16908060050160159054906101000a900460ff16908060050160169054906101000a900460ff16908060050160179054906101000a900460ff1690806006015490806007015490508c565b600c602052815f5260405f2081815481106110fa575f80fd5b905f5260205f20015f915091509054906101000a900473ffffffffffffffffffffffffffffffffffffffff1681565b61114383838360405180602001604052805f815250611a67565b505050565b600b602052815f5260405f208181548110611161575f80fd5b905f5260205f20015f91509150505481565b5f61117d826121da565b9050919050565b5f843410156111c8576040517f08c379a00000000000000000000000000000000000000000000000000000000081526004016111bf90613d0d565b60405180910390fd5b600d5f8154809291906111da90613d58565b91905055506111eb33600d5461289e565b5f85346111f89190613d9f565b90505f811115611247573373ffffffffffffffffffffffffffffffffffffffff166108fc8290811502906040515f60405180830381858888f19350505050158015611245573d5f803e3d5ffd5b505b5f6040518061018001604052808881526020014281526020018781526020018581526020018681526020015f151581526020018973ffffffffffffffffffffffffffffffffffffffff1681526020015f151581526020015f151581526020015f151581526020015f81526020015f81525090508060065f600d5481526020019081526020015f205f820151815f0155602082015181600101556040820151816002015560608201518160030190816112ff9190613f6f565b5060808201518160040190816113159190613f6f565b5060a0820151816005015f6101000a81548160ff02191690831515021790555060c08201518160050160016101000a81548173ffffffffffffffffffffffffffffffffffffffff021916908373ffffffffffffffffffffffffffffffffffffffff16021790555060e08201518160050160156101000a81548160ff0219169083151502179055506101008201518160050160166101000a81548160ff0219169083151502179055506101208201518160050160176101000a81548160ff02191690831515021790555061014082015181600601556101608201518160070155905050600160085f600d5481526020019081526020015f205f3373ffffffffffffffffffffffffffffffffffffffff1673ffffffffffffffffffffffffffffffffffffffff1681526020019081526020015f205f6101000a81548160ff02191690831515021790555060095f3373ffffffffffffffffffffffffffffffffffffffff1673ffffffffffffffffffffffffffffffffffffffff1681526020019081526020015f20600d54908060018154018082558091505060019003905f5260205f20015f9091909190915055600b5f8973ffffffffffffffffffffffffffffffffffffffff1673ffffffffffffffffffffffffffffffffffffffff1681526020019081526020015f20600d54908060018154018082558091505060019003905f5260205f20015f90919091909150553373ffffffffffffffffffffffffffffffffffffffff167f81fd5f457056a8b19e623dc52551a385bfcafd0914d3942446ecab71d19b123b600d54894260405161156f9392919061403e565b60405180910390a2600d549250505095945050505050565b5f8073ffffffffffffffffffffffffffffffffffffffff168273ffffffffffffffffffffffffffffffffffffffff16036115f8575f6040517f89c62b640000000000000000000000000000000000000000000000000000000081526004016115ef9190613463565b60405180910390fd5b60035f8373ffffffffffffffffffffffffffffffffffffffff1673ffffffffffffffffffffffffffffffffffffffff1681526020019081526020015f20549050919050565b3073ffffffffffffffffffffffffffffffffffffffff16636352211e826040518263ffffffff1660e01b81526004016116769190613685565b602060405180830381865afa9250505080156116b057506040513d601f19601f820116820180604052508101906116ad9190613b7b565b60015b6116ef576040517f08c379a00000000000000000000000000000000000000000000000000000000081526004016116e690613bf0565b60405180910390fd5b505f151560085f8381526020019081526020015f205f3373ffffffffffffffffffffffffffffffffffffffff1673ffffffffffffffffffffffffffffffffffffffff1681526020019081526020015f205f9054906101000a900460ff1615151480156117ba575060065f8281526020019081526020015f2060050160019054906101000a900473ffffffffffffffffffffffffffffffffffffffff1673ffffffffffffffffffffffffffffffffffffffff163373ffffffffffffffffffffffffffffffffffffffff16145b80156117e4575060065f8281526020019081526020015f206005015f9054906101000a900460ff16155b801561181457505f151560065f8381526020019081526020015f2060050160159054906101000a900460ff161515145b801561182b57505f151561182782611aaf565b1515145b61186a576040517f08c379a000000000000000000000000000000000000000000000000000000000815260040161186190613c58565b60405180910390fd5b600160065f8381526020019081526020015f206005015f6101000a81548160ff0219169083151502179055503360065f8381526020019081526020015f2060050160016101000a81548173ffffffffffffffffffffffffffffffffffffffff021916908373ffffffffffffffffffffffffffffffffffffffff160217905550600a5f3373ffffffffffffffffffffffffffffffffffffffff1673ffffffffffffffffffffffffffffffffffffffff1681526020019081526020015f2081908060018154018082558091505060019003905f5260205f20015f90919091909150553373ffffffffffffffffffffffffffffffffffffffff1661196a82611173565b73ffffffffffffffffffffffffffffffffffffffff16827f9678f981bcf017d96c4d9fb4124afb0d1c62735df0ad70bef9fd0f5c18bda4fb426040516119b09190613685565b60405180910390a450565b6060600180546119ca90613b02565b80601f01602080910402602001604051908101604052809291908181526020018280546119f690613b02565b8015611a415780601f10611a1857610100808354040283529160200191611a41565b820191905f5260205f20905b815481529060010190602001808311611a2457829003601f168201915b5050505050905090565b611a5d611a56612299565b8383612991565b5050565b600d5481565b611a728484846108a2565b611a7e84848484612afa565b50505050565b600a602052815f5260405f208181548110611a9d575f80fd5b905f5260205f20015f91509150505481565b5f3073ffffffffffffffffffffffffffffffffffffffff16636352211e836040518263ffffffff1660e01b8152600401611ae99190613685565b602060405180830381865afa925050508015611b2357506040513d601f19601f82011682018060405250810190611b209190613b7b565b60015b611b62576040517f08c379a0000000000000000000000000000000000000000000000000000000008152600401611b5990613bf0565b60405180910390fd5b506001151560065f8481526020019081526020015f2060050160159054906101000a900460ff16151503611b995760019050611c00565b60065f8381526020019081526020015f206007015460065f8481526020019081526020015f206002015460065f8581526020019081526020015f2060010154611be29190614073565b611bec9190614073565b421115611bfc5760019050611c00565b5f90505b919050565b6060611c10826121da565b505f611c1a612cac565b90505f815111611c385760405180602001604052805f815250611c63565b80611c4284612cc2565b604051602001611c539291906140e0565b6040516020818303038152906040525b915050919050565b6009602052815f5260405f208181548110611c84575f80fd5b905f5260205f20015f91509150505481565b3073ffffffffffffffffffffffffffffffffffffffff16636352211e826040518263ffffffff1660e01b8152600401611ccf9190613685565b602060405180830381865afa925050508015611d0957506040513d601f19601f82011682018060405250810190611d069190613b7b565b60015b611d48576040517f08c379a0000000000000000000000000000000000000000000000000000000008152600401611d3f90613bf0565b60405180910390fd5b5060065f8281526020019081526020015f206005015f9054906101000a900460ff168015611d9a57505f151560065f8381526020019081526020015f2060050160169054906101000a900460ff161515145b8015611e0257506001151560085f8381526020019081526020015f205f3373ffffffffffffffffffffffffffffffffffffffff1673ffffffffffffffffffffffffffffffffffffffff1681526020019081526020015f205f9054906101000a900460ff161515145b8015611e1a575060011515611e1682611aaf565b1515145b611e59576040517f08c379a0000000000000000000000000000000000000000000000000000000008152600401611e5090613c58565b60405180910390fd5b5f60065f8381526020019081526020015f2060050160019054906101000a900473ffffffffffffffffffffffffffffffffffffffff1690505f60065f8481526020019081526020015f205f015490508173ffffffffffffffffffffffffffffffffffffffff166108fc8290811502906040515f60405180830381858888f19350505050158015611eeb573d5f803e3d5ffd5b50600160065f8581526020019081526020015f2060050160166101000a81548160ff0219169083151502179055508173ffffffffffffffffffffffffffffffffffffffff163373ffffffffffffffffffffffffffffffffffffffff16847f4b5aadc9a65abf047bc2152ff605000b1dd64e7cb420aba7862457538885bfee8442604051611f79929190613c76565b60405180910390a4505050565b5f60055f8473ffffffffffffffffffffffffffffffffffffffff1673ffffffffffffffffffffffffffffffffffffffff1681526020019081526020015f205f8373ffffffffffffffffffffffffffffffffffffffff1673ffffffffffffffffffffffffffffffffffffffff1681526020019081526020015f205f9054906101000a900460ff16905092915050565b6007602052805f5260405f205f91509050805f01805461203390613b02565b80601f016020809104026020016040519081016040528092919081815260200182805461205f90613b02565b80156120aa5780601f10612081576101008083540402835291602001916120aa565b820191905f5260205f20905b81548152906001019060200180831161208d57829003601f168201915b5050505050908060010154908060020154908060030180546120cb90613b02565b80601f01602080910402602001604051908101604052809291908181526020018280546120f790613b02565b80156121425780601f1061211957610100808354040283529160200191612142565b820191905f5260205f20905b81548152906001019060200180831161212557829003601f168201915b505050505090806004015f9054906101000a900460ff16908060040160019054906101000a900460ff16905086565b5f7f01ffc9a7000000000000000000000000000000000000000000000000000000007bffffffffffffffffffffffffffffffffffffffffffffffffffffffff1916827bffffffffffffffffffffffffffffffffffffffffffffffffffffffff1916149050919050565b5f806121e583612d8c565b90505f73ffffffffffffffffffffffffffffffffffffffff168173ffffffffffffffffffffffffffffffffffffffff160361225757826040517f7e27328900000000000000000000000000000000000000000000000000000000815260040161224e9190613685565b60405180910390fd5b80915050919050565b5f60045f8381526020019081526020015f205f9054906101000a900473ffffffffffffffffffffffffffffffffffffffff169050919050565b5f33905090565b6122ad8383836001612dc5565b505050565b5f806122bd84612d8c565b90505f73ffffffffffffffffffffffffffffffffffffffff168373ffffffffffffffffffffffffffffffffffffffff16146122fe576122fd818486612f84565b5b5f73ffffffffffffffffffffffffffffffffffffffff168173ffffffffffffffffffffffffffffffffffffffff16146123895761233d5f855f80612dc5565b600160035f8373ffffffffffffffffffffffffffffffffffffffff1673ffffffffffffffffffffffffffffffffffffffff1681526020019081526020015f205f82825403925050819055505b5f73ffffffffffffffffffffffffffffffffffffffff168573ffffffffffffffffffffffffffffffffffffffff161461240857600160035f8773ffffffffffffffffffffffffffffffffffffffff1673ffffffffffffffffffffffffffffffffffffffff1681526020019081526020015f205f82825401925050819055505b8460025f8681526020019081526020015f205f6101000a81548173ffffffffffffffffffffffffffffffffffffffff021916908373ffffffffffffffffffffffffffffffffffffffff160217905550838573ffffffffffffffffffffffffffffffffffffffff168273ffffffffffffffffffffffffffffffffffffffff167fddf252ad1be2c89b69c2b068fc378daa952ba7f163c4a11628f55a4df523b3ef60405160405180910390a4809150509392505050565b3073ffffffffffffffffffffffffffffffffffffffff16636352211e836040518263ffffffff1660e01b81526004016124f69190613685565b602060405180830381865afa92505050801561253057506040513d601f19601f8201168201806040525081019061252d9190613b7b565b60015b61256f576040517f08c379a000000000000000000000000000000000000000000000000000000000815260040161256690613bf0565b60405180910390fd5b508073ffffffffffffffffffffffffffffffffffffffff1661259083611173565b73ffffffffffffffffffffffffffffffffffffffff16146125e6576040517f08c379a00000000000000000000000000000000000000000000000000000000081526004016125dd90614173565b60405180910390fd5b5f80600160095f8573ffffffffffffffffffffffffffffffffffffffff1673ffffffffffffffffffffffffffffffffffffffff1681526020019081526020015f20805490506126359190613d9f565b90505f5b60095f8573ffffffffffffffffffffffffffffffffffffffff1673ffffffffffffffffffffffffffffffffffffffff1681526020019081526020015f20805490508110156126fa578460095f8673ffffffffffffffffffffffffffffffffffffffff1673ffffffffffffffffffffffffffffffffffffffff1681526020019081526020015f2082815481106126d1576126d0614191565b5b905f5260205f200154036126e7578092506126fa565b80806126f290613d58565b915050612639565b508082146127b65760095f8473ffffffffffffffffffffffffffffffffffffffff1673ffffffffffffffffffffffffffffffffffffffff1681526020019081526020015f20818154811061275157612750614191565b5b905f5260205f20015460095f8573ffffffffffffffffffffffffffffffffffffffff1673ffffffffffffffffffffffffffffffffffffffff1681526020019081526020015f2083815481106127a9576127a8614191565b5b905f5260205f2001819055505b60095f8473ffffffffffffffffffffffffffffffffffffffff1673ffffffffffffffffffffffffffffffffffffffff1681526020019081526020015f20805480612803576128026141be565b5b600190038181905f5260205f20015f9055905550505050565b5f6128285f835f6122b2565b90505f73ffffffffffffffffffffffffffffffffffffffff168173ffffffffffffffffffffffffffffffffffffffff160361289a57816040517f7e2732890000000000000000000000000000000000000000000000000000000081526004016128919190613685565b60405180910390fd5b5050565b5f73ffffffffffffffffffffffffffffffffffffffff168273ffffffffffffffffffffffffffffffffffffffff160361290e575f6040517f64a0ae920000000000000000000000000000000000000000000000000000000081526004016129059190613463565b60405180910390fd5b5f61291a83835f6122b2565b90505f73ffffffffffffffffffffffffffffffffffffffff168173ffffffffffffffffffffffffffffffffffffffff161461298c575f6040517f73c6ac6e0000000000000000000000000000000000000000000000000000000081526004016129839190613463565b60405180910390fd5b505050565b5f73ffffffffffffffffffffffffffffffffffffffff168273ffffffffffffffffffffffffffffffffffffffff1603612a0157816040517f5b08ba180000000000000000000000000000000000000000000000000000000081526004016129f89190613463565b60405180910390fd5b8060055f8573ffffffffffffffffffffffffffffffffffffffff1673ffffffffffffffffffffffffffffffffffffffff1681526020019081526020015f205f8473ffffffffffffffffffffffffffffffffffffffff1673ffffffffffffffffffffffffffffffffffffffff1681526020019081526020015f205f6101000a81548160ff0219169083151502179055508173ffffffffffffffffffffffffffffffffffffffff168373ffffffffffffffffffffffffffffffffffffffff167f17307eab39ab6107e8899845ad3d59bd9653f200f220920489ca2b5937696c3183604051612aed9190613303565b60405180910390a3505050565b5f8373ffffffffffffffffffffffffffffffffffffffff163b1115612ca6578273ffffffffffffffffffffffffffffffffffffffff1663150b7a02612b3d612299565b8685856040518563ffffffff1660e01b8152600401612b5f949392919061423d565b6020604051808303815f875af1925050508015612b9a57506040513d601f19601f82011682018060405250810190612b97919061429b565b60015b612c1b573d805f8114612bc8576040519150601f19603f3d011682016040523d82523d5f602084013e612bcd565b606091505b505f815103612c1357836040517f64a0ae92000000000000000000000000000000000000000000000000000000008152600401612c0a9190613463565b60405180910390fd5b805181602001fd5b63150b7a0260e01b7bffffffffffffffffffffffffffffffffffffffffffffffffffffffff1916817bffffffffffffffffffffffffffffffffffffffffffffffffffffffff191614612ca457836040517f64a0ae92000000000000000000000000000000000000000000000000000000008152600401612c9b9190613463565b60405180910390fd5b505b50505050565b606060405180602001604052805f815250905090565b60605f6001612cd084613047565b0190505f8167ffffffffffffffff811115612cee57612ced6136a6565b5b6040519080825280601f01601f191660200182016040528015612d205781602001600182028036833780820191505090505b5090505f82602001820190505b600115612d81578080600190039150507f3031323334353637383961626364656600000000000000000000000000000000600a86061a8153600a8581612d7657612d756142c6565b5b0494505f8503612d2d575b819350505050919050565b5f60025f8381526020019081526020015f205f9054906101000a900473ffffffffffffffffffffffffffffffffffffffff169050919050565b8080612dfd57505f73ffffffffffffffffffffffffffffffffffffffff168273ffffffffffffffffffffffffffffffffffffffff1614155b15612f2f575f612e0c846121da565b90505f73ffffffffffffffffffffffffffffffffffffffff168373ffffffffffffffffffffffffffffffffffffffff1614158015612e7657508273ffffffffffffffffffffffffffffffffffffffff168173ffffffffffffffffffffffffffffffffffffffff1614155b8015612e895750612e878184611f86565b155b15612ecb57826040517fa9fbf51f000000000000000000000000000000000000000000000000000000008152600401612ec29190613463565b60405180910390fd5b8115612f2d57838573ffffffffffffffffffffffffffffffffffffffff168273ffffffffffffffffffffffffffffffffffffffff167f8c5be1e5ebec7d5bd14f71427d1e84f3dd0314c0f7b2291e5b200ac8c7c3b92560405160405180910390a45b505b8360045f8581526020019081526020015f205f6101000a81548173ffffffffffffffffffffffffffffffffffffffff021916908373ffffffffffffffffffffffffffffffffffffffff16021790555050505050565b612f8f838383613198565b613042575f73ffffffffffffffffffffffffffffffffffffffff168373ffffffffffffffffffffffffffffffffffffffff160361300357806040517f7e273289000000000000000000000000000000000000000000000000000000008152600401612ffa9190613685565b60405180910390fd5b81816040517f177e802f0000000000000000000000000000000000000000000000000000000081526004016130399291906142f3565b60405180910390fd5b505050565b5f805f90507a184f03e93ff9f4daa797ed6e38ed64bf6a1f01000000000000000083106130a3577a184f03e93ff9f4daa797ed6e38ed64bf6a1f0100000000000000008381613099576130986142c6565b5b0492506040810190505b6d04ee2d6d415b85acef810000000083106130e0576d04ee2d6d415b85acef810000000083816130d6576130d56142c6565b5b0492506020810190505b662386f26fc10000831061310f57662386f26fc100008381613105576131046142c6565b5b0492506010810190505b6305f5e1008310613138576305f5e100838161312e5761312d6142c6565b5b0492506008810190505b612710831061315d576127108381613153576131526142c6565b5b0492506004810190505b606483106131805760648381613176576131756142c6565b5b0492506002810190505b600a831061318f576001810190505b80915050919050565b5f8073ffffffffffffffffffffffffffffffffffffffff168373ffffffffffffffffffffffffffffffffffffffff161415801561324f57508273ffffffffffffffffffffffffffffffffffffffff168473ffffffffffffffffffffffffffffffffffffffff161480613210575061320f8484611f86565b5b8061324e57508273ffffffffffffffffffffffffffffffffffffffff1661323683612260565b73ffffffffffffffffffffffffffffffffffffffff16145b5b90509392505050565b5f604051905090565b5f80fd5b5f80fd5b5f7fffffffff0000000000000000000000000000000000000000000000000000000082169050919050565b61329d81613269565b81146132a7575f80fd5b50565b5f813590506132b881613294565b92915050565b5f602082840312156132d3576132d2613261565b5b5f6132e0848285016132aa565b91505092915050565b5f8115159050919050565b6132fd816132e9565b82525050565b5f6020820190506133165f8301846132f4565b92915050565b5f81519050919050565b5f82825260208201905092915050565b5f5b83811015613353578082015181840152602081019050613338565b5f8484015250505050565b5f601f19601f8301169050919050565b5f6133788261331c565b6133828185613326565b9350613392818560208601613336565b61339b8161335e565b840191505092915050565b5f6020820190508181035f8301526133be818461336e565b905092915050565b5f819050919050565b6133d8816133c6565b81146133e2575f80fd5b50565b5f813590506133f3816133cf565b92915050565b5f6020828403121561340e5761340d613261565b5b5f61341b848285016133e5565b91505092915050565b5f73ffffffffffffffffffffffffffffffffffffffff82169050919050565b5f61344d82613424565b9050919050565b61345d81613443565b82525050565b5f6020820190506134765f830184613454565b92915050565b61348581613443565b811461348f575f80fd5b50565b5f813590506134a08161347c565b92915050565b5f80604083850312156134bc576134bb613261565b5b5f6134c985828601613492565b92505060206134da858286016133e5565b9150509250929050565b5f805f606084860312156134fb576134fa613261565b5b5f61350886828701613492565b935050602061351986828701613492565b925050604061352a868287016133e5565b9150509250925092565b5f806040838503121561354a57613549613261565b5b5f613557858286016133e5565b925050602061356885828601613492565b9150509250929050565b61357b816133c6565b82525050565b5f610180820190506135955f83018f613572565b6135a2602083018e613572565b6135af604083018d613572565b81810360608301526135c1818c61336e565b905081810360808301526135d5818b61336e565b90506135e460a083018a6132f4565b6135f160c0830189613454565b6135fe60e08301886132f4565b61360c6101008301876132f4565b61361a6101208301866132f4565b613628610140830185613572565b613636610160830184613572565b9d9c50505050505050505050505050565b5f806040838503121561365d5761365c613261565b5b5f61366a858286016133e5565b925050602061367b858286016133e5565b9150509250929050565b5f6020820190506136985f830184613572565b92915050565b5f80fd5b5f80fd5b7f4e487b71000000000000000000000000000000000000000000000000000000005f52604160045260245ffd5b6136dc8261335e565b810181811067ffffffffffffffff821117156136fb576136fa6136a6565b5b80604052505050565b5f61370d613258565b905061371982826136d3565b919050565b5f67ffffffffffffffff821115613738576137376136a6565b5b6137418261335e565b9050602081019050919050565b828183375f83830152505050565b5f61376e6137698461371e565b613704565b90508281526020810184848401111561378a576137896136a2565b5b61379584828561374e565b509392505050565b5f82601f8301126137b1576137b061369e565b5b81356137c184826020860161375c565b91505092915050565b5f805f805f60a086880312156137e3576137e2613261565b5b5f6137f088828901613492565b9550506020613801888289016133e5565b9450506040613812888289016133e5565b935050606086013567ffffffffffffffff81111561383357613832613265565b5b61383f8882890161379d565b925050608086013567ffffffffffffffff8111156138605761385f613265565b5b61386c8882890161379d565b9150509295509295909350565b5f6020828403121561388e5761388d613261565b5b5f61389b84828501613492565b91505092915050565b6138ad816132e9565b81146138b7575f80fd5b50565b5f813590506138c8816138a4565b92915050565b5f80604083850312156138e4576138e3613261565b5b5f6138f185828601613492565b9250506020613902858286016138ba565b9150509250929050565b5f67ffffffffffffffff821115613926576139256136a6565b5b61392f8261335e565b9050602081019050919050565b5f61394e6139498461390c565b613704565b90508281526020810184848401111561396a576139696136a2565b5b61397584828561374e565b509392505050565b5f82601f8301126139915761399061369e565b5b81356139a184826020860161393c565b91505092915050565b5f805f80608085870312156139c2576139c1613261565b5b5f6139cf87828801613492565b94505060206139e087828801613492565b93505060406139f1878288016133e5565b925050606085013567ffffffffffffffff811115613a1257613a11613265565b5b613a1e8782880161397d565b91505092959194509250565b5f8060408385031215613a4057613a3f613261565b5b5f613a4d85828601613492565b9250506020613a5e85828601613492565b9150509250929050565b5f60c0820190508181035f830152613a80818961336e565b9050613a8f6020830188613572565b613a9c6040830187613572565b8181036060830152613aae818661336e565b9050613abd60808301856132f4565b613aca60a08301846132f4565b979650505050505050565b7f4e487b71000000000000000000000000000000000000000000000000000000005f52602260045260245ffd5b5f6002820490506001821680613b1957607f821691505b602082108103613b2c57613b2b613ad5565b5b50919050565b5f606082019050613b455f830186613454565b613b526020830185613572565b613b5f6040830184613454565b949350505050565b5f81519050613b758161347c565b92915050565b5f60208284031215613b9057613b8f613261565b5b5f613b9d84828501613b67565b91505092915050565b7f456c20746f6b656e206e6f206578697374652e000000000000000000000000005f82015250565b5f613bda601383613326565b9150613be582613ba6565b602082019050919050565b5f6020820190508181035f830152613c0781613bce565b9050919050565b7f4572726f723a20636f6e646963696f6e6573206e6f2063756d706c696461732e5f82015250565b5f613c42602083613326565b9150613c4d82613c0e565b602082019050919050565b5f6020820190508181035f830152613c6f81613c36565b9050919050565b5f604082019050613c895f830185613572565b613c966020830184613572565b9392505050565b7f4465646520656e7669617220656c2073616c6172696f20636f6d6f2076616c6f5f8201527f722064656c20636f6e747261746f000000000000000000000000000000000000602082015250565b5f613cf7602e83613326565b9150613d0282613c9d565b604082019050919050565b5f6020820190508181035f830152613d2481613ceb565b9050919050565b7f4e487b71000000000000000000000000000000000000000000000000000000005f52601160045260245ffd5b5f613d62826133c6565b91507fffffffffffffffffffffffffffffffffffffffffffffffffffffffffffffffff8203613d9457613d93613d2b565b5b600182019050919050565b5f613da9826133c6565b9150613db4836133c6565b9250828203905081811115613dcc57613dcb613d2b565b5b92915050565b5f819050815f5260205f209050919050565b5f6020601f8301049050919050565b5f82821b905092915050565b5f60088302613e2e7fffffffffffffffffffffffffffffffffffffffffffffffffffffffffffffffff82613df3565b613e388683613df3565b95508019841693508086168417925050509392505050565b5f819050919050565b5f613e73613e6e613e69846133c6565b613e50565b6133c6565b9050919050565b5f819050919050565b613e8c83613e59565b613ea0613e9882613e7a565b848454613dff565b825550505050565b5f90565b613eb4613ea8565b613ebf818484613e83565b505050565b5b81811015613ee257613ed75f82613eac565b600181019050613ec5565b5050565b601f821115613f2757613ef881613dd2565b613f0184613de4565b81016020851015613f10578190505b613f24613f1c85613de4565b830182613ec4565b50505b505050565b5f82821c905092915050565b5f613f475f1984600802613f2c565b1980831691505092915050565b5f613f5f8383613f38565b9150826002028217905092915050565b613f788261331c565b67ffffffffffffffff811115613f9157613f906136a6565b5b613f9b8254613b02565b613fa6828285613ee6565b5f60209050601f831160018114613fd7575f8415613fc5578287015190505b613fcf8582613f54565b865550614036565b601f198416613fe586613dd2565b5f5b8281101561400c57848901518255600182019150602085019450602081019050613fe7565b868310156140295784890151614025601f891682613f38565b8355505b6001600288020188555050505b505050505050565b5f6060820190506140515f830186613572565b61405e6020830185613572565b61406b6040830184613572565b949350505050565b5f61407d826133c6565b9150614088836133c6565b92508282019050808211156140a05761409f613d2b565b5b92915050565b5f81905092915050565b5f6140ba8261331c565b6140c481856140a6565b93506140d4818560208601613336565b80840191505092915050565b5f6140eb82856140b0565b91506140f782846140b0565b91508190509392505050565b7f456c2070726f706965746172696f206e6f20636f696e6369646520636f6e20655f8201527f6c2070726f706965746172696f2064656c20746f6b656e000000000000000000602082015250565b5f61415d603783613326565b915061416882614103565b604082019050919050565b5f6020820190508181035f83015261418a81614151565b9050919050565b7f4e487b71000000000000000000000000000000000000000000000000000000005f52603260045260245ffd5b7f4e487b71000000000000000000000000000000000000000000000000000000005f52603160045260245ffd5b5f81519050919050565b5f82825260208201905092915050565b5f61420f826141eb565b61421981856141f5565b9350614229818560208601613336565b6142328161335e565b840191505092915050565b5f6080820190506142505f830187613454565b61425d6020830186613454565b61426a6040830185613572565b818103606083015261427c8184614205565b905095945050505050565b5f8151905061429581613294565b92915050565b5f602082840312156142b0576142af613261565b5b5f6142bd84828501614287565b91505092915050565b7f4e487b71000000000000000000000000000000000000000000000000000000005f52601260045260245ffd5b5f6040820190506143065f830185613454565b6143136020830184613572565b939250505056fea26469706673582212201e08888d3f1ded8b65e38e3a1fb51b14fbf6261fb3d664c32a8273d705a4b1e664736f6c63430008140033",
  "immutableReferences": {},
  "source": "// SPDX-License-Identifier: MIT\r\npragma solidity ^0.8.20;\r\n\r\nimport \"./MyContract.sol\";\r\n\r\ncontract MyContractManagement is MyContract{\r\n\r\n    event SalaryReleased(\r\n        uint256 indexed tokenId,\r\n        uint256 salary,\r\n        address indexed employer,\r\n        address indexed worker,\r\n        uint256 timestamp\r\n    );\r\n\r\n    event TokenMinted(\r\n        uint256 tokenId,\r\n        address indexed employer,\r\n        uint256 salary,\r\n        uint256 timestamp\r\n    );\r\n\r\n    event ContractCancelled(\r\n        uint256 indexed tokenId,\r\n        address indexed employer,\r\n        address indexed worker,\r\n        uint256 salary,\r\n        uint256 timestamp\r\n    );\r\n\r\n    event ContractSigned(\r\n        uint256 indexed tokenId,\r\n        address indexed employer,\r\n        address indexed worker,\r\n        uint256 timestamp\r\n    );\r\n\r\n    event ContractFinalized(\r\n        uint256 indexed tokenId,\r\n        address indexed employer,\r\n        address indexed worker,\r\n        uint256 timestamp\r\n    );\r\n\r\n\r\n    function mint(\r\n        address _to,\r\n        uint256 _salary,\r\n        uint256 _duration,\r\n        string memory _description,\r\n        string memory _title\r\n    ) public payable returns (uint256) {\r\n        require(\r\n            msg.value >= _salary,\r\n            \"Dede enviar el salario como valor del contrato\"\r\n        );\r\n        tokenID++;\r\n        _mint(msg.sender, tokenID);\r\n        uint256 remainder = msg.value - _salary;\r\n        if (remainder > 0) {\r\n            payable(msg.sender).transfer(remainder);\r\n        }\r\n\r\n        ContractDetails memory newContract = ContractDetails({\r\n            salary: _salary,\r\n            startDate: block.timestamp,\r\n            duration: _duration,\r\n            title: _title,\r\n            description: _description,\r\n            isSigned: false,\r\n            worker: _to,\r\n            isFinished: false,\r\n            isReleased: false,\r\n            isPaused: false,\r\n            pauseTime: 0,\r\n            pauseDuration: 0\r\n        });\r\n\r\n        contractDetails[tokenID] = newContract;\r\n        tokenManagers[tokenID][msg.sender] = true;\r\n        contractsOwner[msg.sender].push(tokenID);\r\n        unsignedContractsOfWorker[_to].push(tokenID);\r\n\r\n        emit TokenMinted(tokenID, msg.sender, _salary, block.timestamp);\r\n        return tokenID;\r\n    }\r\n\r\n\r\n    function signContract(uint256 _tokenID) public {\r\n        try this.ownerOf(_tokenID) {} catch {\r\n            revert(\"El token no existe.\"); \r\n        }\r\n        require(\r\n            tokenManagers[_tokenID][msg.sender] == false &&\r\n            msg.sender == contractDetails[_tokenID].worker &&\r\n            !contractDetails[_tokenID].isSigned &&\r\n            contractDetails[_tokenID].isFinished == false &&\r\n            isContractFinished(_tokenID) == false,\r\n            \"Error: condiciones no cumplidas.\"\r\n        );\r\n\r\n        contractDetails[_tokenID].isSigned = true;\r\n        contractDetails[_tokenID].worker = msg.sender;\r\n        activeContractsOfWorker[msg.sender].push(_tokenID);\r\n\r\n        emit ContractSigned(_tokenID, ownerOf(_tokenID), msg.sender, block.timestamp);\r\n    }\r\n\r\n\r\n    function releaseSalary(uint256 _tokenID) public payable {\r\n        try this.ownerOf(_tokenID) {} catch {\r\n            revert(\"El token no existe.\"); \r\n        }\r\n        require(\r\n            contractDetails[_tokenID].isSigned &&\r\n            contractDetails[_tokenID].isReleased == false &&\r\n            tokenManagers[_tokenID][msg.sender] == true &&\r\n            isContractFinished(_tokenID) == true,\r\n            \"Error: condiciones no cumplidas.\"\r\n        );\r\n\r\n        address payable worker = payable(contractDetails[_tokenID].worker);\r\n        uint256 salary = contractDetails[_tokenID].salary;\r\n        worker.transfer(salary);\r\n        contractDetails[_tokenID].isReleased = true;\r\n\r\n        emit SalaryReleased(_tokenID, salary, msg.sender, worker, block.timestamp);\r\n    }\r\n\r\n\r\n    function finalizeContract(uint256 _tokenID) public {\r\n        try this.ownerOf(_tokenID) {} catch {\r\n            revert(\"El token no existe.\"); \r\n        }\r\n        require(\r\n            tokenManagers[_tokenID][msg.sender] == true &&\r\n            contractDetails[_tokenID].isSigned &&\r\n            contractDetails[_tokenID].isFinished == false &&\r\n            isContractFinished(_tokenID) == false,\r\n            \"Error: condiciones no cumplidas.\"\r\n        );\r\n\r\n        contractDetails[_tokenID].isFinished = true;\r\n        emit ContractFinalized(_tokenID, ownerOf(_tokenID), contractDetails[_tokenID].worker, block.timestamp);\r\n    }\r\n\r\n\r\n    function cancelContract(uint256 _tokenID) public {\r\n        try this.ownerOf(_tokenID) {} catch {\r\n            revert(\"El token no existe.\"); \r\n        }\r\n        require(\r\n            tokenManagers[_tokenID][msg.sender] == true &&\r\n            !contractDetails[_tokenID].isSigned &&\r\n            contractDetails[_tokenID].isFinished == false,\r\n            \"Error: condiciones no cumplidas.\"\r\n        );\r\n\r\n        address payable owner = payable(ownerOf(_tokenID));\r\n        uint256 salary = contractDetails[_tokenID].salary;\r\n        owner.transfer(salary);\r\n        removeContractFromOwner(_tokenID, owner);\r\n        _burn(_tokenID);\r\n\r\n        emit ContractCancelled(_tokenID, owner, contractDetails[_tokenID].worker ,salary, block.timestamp);\r\n    }\r\n\r\n}\r\n",
  "sourcePath": "E:\\AppContract\\ubu-contractme\\Code\\SmartContract\\contracts\\MyContractManagement.sol",
  "compiler": {
    "name": "solc",
    "version": "0.8.20+commit.a1b79de6.Emscripten.clang"
  },
  "schemaVersion": "3.4.16",
  "updatedAt": "2024-02-25T10:46:26.878Z",
  "devdoc": {
    "errors": {
      "ERC721IncorrectOwner(address,uint256,address)": [
        {
          "details": "Indicates an error related to the ownership over a particular token. Used in transfers.",
          "params": {
            "owner": "Address of the current owner of a token.",
            "sender": "Address whose tokens are being transferred.",
            "tokenId": "Identifier number of a token."
          }
        }
      ],
      "ERC721InsufficientApproval(address,uint256)": [
        {
          "details": "Indicates a failure with the `operator`s approval. Used in transfers.",
          "params": {
            "operator": "Address that may be allowed to operate on tokens without being their owner.",
            "tokenId": "Identifier number of a token."
          }
        }
      ],
      "ERC721InvalidApprover(address)": [
        {
          "details": "Indicates a failure with the `approver` of a token to be approved. Used in approvals.",
          "params": {
            "approver": "Address initiating an approval operation."
          }
        }
      ],
      "ERC721InvalidOperator(address)": [
        {
          "details": "Indicates a failure with the `operator` to be approved. Used in approvals.",
          "params": {
            "operator": "Address that may be allowed to operate on tokens without being their owner."
          }
        }
      ],
      "ERC721InvalidOwner(address)": [
        {
          "details": "Indicates that an address can't be an owner. For example, `address(0)` is a forbidden owner in EIP-20. Used in balance queries.",
          "params": {
            "owner": "Address of the current owner of a token."
          }
        }
      ],
      "ERC721InvalidReceiver(address)": [
        {
          "details": "Indicates a failure with the token `receiver`. Used in transfers.",
          "params": {
            "receiver": "Address to which tokens are being transferred."
          }
        }
      ],
      "ERC721InvalidSender(address)": [
        {
          "details": "Indicates a failure with the token `sender`. Used in transfers.",
          "params": {
            "sender": "Address whose tokens are being transferred."
          }
        }
      ],
      "ERC721NonexistentToken(uint256)": [
        {
          "details": "Indicates a `tokenId` whose `owner` is the zero address.",
          "params": {
            "tokenId": "Identifier number of a token."
          }
        }
      ]
    },
    "events": {
      "Approval(address,address,uint256)": {
        "details": "Emitted when `owner` enables `approved` to manage the `tokenId` token."
      },
      "ApprovalForAll(address,address,bool)": {
        "details": "Emitted when `owner` enables or disables (`approved`) `operator` to manage all of its assets."
      },
      "Transfer(address,address,uint256)": {
        "details": "Emitted when `tokenId` token is transferred from `from` to `to`."
      }
    },
    "kind": "dev",
    "methods": {
      "approve(address,uint256)": {
        "details": "See {IERC721-approve}."
      },
      "balanceOf(address)": {
        "details": "See {IERC721-balanceOf}."
      },
      "getApproved(uint256)": {
        "details": "See {IERC721-getApproved}."
      },
      "isApprovedForAll(address,address)": {
        "details": "See {IERC721-isApprovedForAll}."
      },
      "name()": {
        "details": "See {IERC721Metadata-name}."
      },
      "ownerOf(uint256)": {
        "details": "See {IERC721-ownerOf}."
      },
      "safeTransferFrom(address,address,uint256)": {
        "details": "See {IERC721-safeTransferFrom}."
      },
      "safeTransferFrom(address,address,uint256,bytes)": {
        "details": "See {IERC721-safeTransferFrom}."
      },
      "setApprovalForAll(address,bool)": {
        "details": "See {IERC721-setApprovalForAll}."
      },
      "supportsInterface(bytes4)": {
        "details": "See {IERC165-supportsInterface}."
      },
      "symbol()": {
        "details": "See {IERC721Metadata-symbol}."
      },
      "tokenURI(uint256)": {
        "details": "See {IERC721Metadata-tokenURI}."
      },
      "transferFrom(address,address,uint256)": {
        "details": "See {IERC721-transferFrom}."
      }
    },
    "version": 1
  },
  "userdoc": {
    "kind": "user",
    "methods": {},
    "version": 1
  }
}