{
  "contractName": "MyContract",
  "abi": [
    {
      "inputs": [],
      "stateMutability": "nonpayable",
      "type": "constructor"
    },
    {
      "inputs": [
        {
          "internalType": "address",
          "name": "sender",
          "type": "address"
        },
        {
          "internalType": "uint256",
          "name": "tokenId",
          "type": "uint256"
        },
        {
          "internalType": "address",
          "name": "owner",
          "type": "address"
        }
      ],
      "name": "ERC721IncorrectOwner",
      "type": "error"
    },
    {
      "inputs": [
        {
          "internalType": "address",
          "name": "operator",
          "type": "address"
        },
        {
          "internalType": "uint256",
          "name": "tokenId",
          "type": "uint256"
        }
      ],
      "name": "ERC721InsufficientApproval",
      "type": "error"
    },
    {
      "inputs": [
        {
          "internalType": "address",
          "name": "approver",
          "type": "address"
        }
      ],
      "name": "ERC721InvalidApprover",
      "type": "error"
    },
    {
      "inputs": [
        {
          "internalType": "address",
          "name": "operator",
          "type": "address"
        }
      ],
      "name": "ERC721InvalidOperator",
      "type": "error"
    },
    {
      "inputs": [
        {
          "internalType": "address",
          "name": "owner",
          "type": "address"
        }
      ],
      "name": "ERC721InvalidOwner",
      "type": "error"
    },
    {
      "inputs": [
        {
          "internalType": "address",
          "name": "receiver",
          "type": "address"
        }
      ],
      "name": "ERC721InvalidReceiver",
      "type": "error"
    },
    {
      "inputs": [
        {
          "internalType": "address",
          "name": "sender",
          "type": "address"
        }
      ],
      "name": "ERC721InvalidSender",
      "type": "error"
    },
    {
      "inputs": [
        {
          "internalType": "uint256",
          "name": "tokenId",
          "type": "uint256"
        }
      ],
      "name": "ERC721NonexistentToken",
      "type": "error"
    },
    {
      "anonymous": false,
      "inputs": [
        {
          "indexed": true,
          "internalType": "address",
          "name": "owner",
          "type": "address"
        },
        {
          "indexed": true,
          "internalType": "address",
          "name": "approved",
          "type": "address"
        },
        {
          "indexed": true,
          "internalType": "uint256",
          "name": "tokenId",
          "type": "uint256"
        }
      ],
      "name": "Approval",
      "type": "event"
    },
    {
      "anonymous": false,
      "inputs": [
        {
          "indexed": true,
          "internalType": "address",
          "name": "owner",
          "type": "address"
        },
        {
          "indexed": true,
          "internalType": "address",
          "name": "operator",
          "type": "address"
        },
        {
          "indexed": false,
          "internalType": "bool",
          "name": "approved",
          "type": "bool"
        }
      ],
      "name": "ApprovalForAll",
      "type": "event"
    },
    {
      "anonymous": false,
      "inputs": [
        {
          "indexed": true,
          "internalType": "uint256",
          "name": "tokenId",
          "type": "uint256"
        }
      ],
      "name": "ContractCancelled",
      "type": "event"
    },
    {
      "anonymous": false,
      "inputs": [
        {
          "indexed": true,
          "internalType": "uint256",
          "name": "tokenId",
          "type": "uint256"
        },
        {
          "indexed": false,
          "internalType": "address",
          "name": "worker",
          "type": "address"
        }
      ],
      "name": "ContractSigned",
      "type": "event"
    },
    {
      "anonymous": false,
      "inputs": [
        {
          "indexed": true,
          "internalType": "uint256",
          "name": "tokenId",
          "type": "uint256"
        },
        {
          "indexed": false,
          "internalType": "uint256",
          "name": "salary",
          "type": "uint256"
        }
      ],
      "name": "SalaryReleased",
      "type": "event"
    },
    {
      "anonymous": false,
      "inputs": [
        {
          "indexed": false,
          "internalType": "uint256",
          "name": "tokenId",
          "type": "uint256"
        }
      ],
      "name": "TokenMinted",
      "type": "event"
    },
    {
      "anonymous": false,
      "inputs": [
        {
          "indexed": true,
          "internalType": "address",
          "name": "from",
          "type": "address"
        },
        {
          "indexed": true,
          "internalType": "address",
          "name": "to",
          "type": "address"
        },
        {
          "indexed": true,
          "internalType": "uint256",
          "name": "tokenId",
          "type": "uint256"
        }
      ],
      "name": "Transfer",
      "type": "event"
    },
    {
      "inputs": [
        {
          "internalType": "address",
          "name": "to",
          "type": "address"
        },
        {
          "internalType": "uint256",
          "name": "tokenId",
          "type": "uint256"
        }
      ],
      "name": "approve",
      "outputs": [],
      "stateMutability": "nonpayable",
      "type": "function"
    },
    {
      "inputs": [
        {
          "internalType": "address",
          "name": "owner",
          "type": "address"
        }
      ],
      "name": "balanceOf",
      "outputs": [
        {
          "internalType": "uint256",
          "name": "",
          "type": "uint256"
        }
      ],
      "stateMutability": "view",
      "type": "function",
      "constant": true
    },
    {
      "inputs": [
        {
          "internalType": "uint256",
          "name": "",
          "type": "uint256"
        }
      ],
      "name": "contractDetails",
      "outputs": [
        {
          "internalType": "uint256",
          "name": "salary",
          "type": "uint256"
        },
        {
          "internalType": "uint256",
          "name": "startDate",
          "type": "uint256"
        },
        {
          "internalType": "uint256",
          "name": "duration",
          "type": "uint256"
        },
        {
          "internalType": "string",
          "name": "description",
          "type": "string"
        },
        {
          "internalType": "bool",
          "name": "isSigned",
          "type": "bool"
        },
        {
          "internalType": "address",
          "name": "worker",
          "type": "address"
        },
        {
          "internalType": "bool",
          "name": "isFinished",
          "type": "bool"
        },
        {
          "internalType": "bool",
          "name": "isPaused",
          "type": "bool"
        },
        {
          "internalType": "uint256",
          "name": "pauseTime",
          "type": "uint256"
        },
        {
          "internalType": "uint256",
          "name": "pauseDuration",
          "type": "uint256"
        }
      ],
      "stateMutability": "view",
      "type": "function",
      "constant": true
    },
    {
      "inputs": [
        {
          "internalType": "uint256",
          "name": "tokenId",
          "type": "uint256"
        }
      ],
      "name": "getApproved",
      "outputs": [
        {
          "internalType": "address",
          "name": "",
          "type": "address"
        }
      ],
      "stateMutability": "view",
      "type": "function",
      "constant": true
    },
    {
      "inputs": [
        {
          "internalType": "address",
          "name": "owner",
          "type": "address"
        },
        {
          "internalType": "address",
          "name": "operator",
          "type": "address"
        }
      ],
      "name": "isApprovedForAll",
      "outputs": [
        {
          "internalType": "bool",
          "name": "",
          "type": "bool"
        }
      ],
      "stateMutability": "view",
      "type": "function",
      "constant": true
    },
    {
      "inputs": [],
      "name": "name",
      "outputs": [
        {
          "internalType": "string",
          "name": "",
          "type": "string"
        }
      ],
      "stateMutability": "view",
      "type": "function",
      "constant": true
    },
    {
      "inputs": [
        {
          "internalType": "uint256",
          "name": "tokenId",
          "type": "uint256"
        }
      ],
      "name": "ownerOf",
      "outputs": [
        {
          "internalType": "address",
          "name": "",
          "type": "address"
        }
      ],
      "stateMutability": "view",
      "type": "function",
      "constant": true
    },
    {
      "inputs": [
        {
          "internalType": "address",
          "name": "from",
          "type": "address"
        },
        {
          "internalType": "address",
          "name": "to",
          "type": "address"
        },
        {
          "internalType": "uint256",
          "name": "tokenId",
          "type": "uint256"
        }
      ],
      "name": "safeTransferFrom",
      "outputs": [],
      "stateMutability": "nonpayable",
      "type": "function"
    },
    {
      "inputs": [
        {
          "internalType": "address",
          "name": "from",
          "type": "address"
        },
        {
          "internalType": "address",
          "name": "to",
          "type": "address"
        },
        {
          "internalType": "uint256",
          "name": "tokenId",
          "type": "uint256"
        },
        {
          "internalType": "bytes",
          "name": "data",
          "type": "bytes"
        }
      ],
      "name": "safeTransferFrom",
      "outputs": [],
      "stateMutability": "nonpayable",
      "type": "function"
    },
    {
      "inputs": [
        {
          "internalType": "address",
          "name": "operator",
          "type": "address"
        },
        {
          "internalType": "bool",
          "name": "approved",
          "type": "bool"
        }
      ],
      "name": "setApprovalForAll",
      "outputs": [],
      "stateMutability": "nonpayable",
      "type": "function"
    },
    {
      "inputs": [
        {
          "internalType": "bytes4",
          "name": "interfaceId",
          "type": "bytes4"
        }
      ],
      "name": "supportsInterface",
      "outputs": [
        {
          "internalType": "bool",
          "name": "",
          "type": "bool"
        }
      ],
      "stateMutability": "view",
      "type": "function",
      "constant": true
    },
    {
      "inputs": [],
      "name": "symbol",
      "outputs": [
        {
          "internalType": "string",
          "name": "",
          "type": "string"
        }
      ],
      "stateMutability": "view",
      "type": "function",
      "constant": true
    },
    {
      "inputs": [
        {
          "internalType": "uint256",
          "name": "",
          "type": "uint256"
        },
        {
          "internalType": "address",
          "name": "",
          "type": "address"
        }
      ],
      "name": "tokenManagers",
      "outputs": [
        {
          "internalType": "bool",
          "name": "",
          "type": "bool"
        }
      ],
      "stateMutability": "view",
      "type": "function",
      "constant": true
    },
    {
      "inputs": [
        {
          "internalType": "uint256",
          "name": "tokenId",
          "type": "uint256"
        }
      ],
      "name": "tokenURI",
      "outputs": [
        {
          "internalType": "string",
          "name": "",
          "type": "string"
        }
      ],
      "stateMutability": "view",
      "type": "function",
      "constant": true
    },
    {
      "inputs": [
        {
          "internalType": "address",
          "name": "from",
          "type": "address"
        },
        {
          "internalType": "address",
          "name": "to",
          "type": "address"
        },
        {
          "internalType": "uint256",
          "name": "tokenId",
          "type": "uint256"
        }
      ],
      "name": "transferFrom",
      "outputs": [],
      "stateMutability": "nonpayable",
      "type": "function"
    },
    {
      "inputs": [
        {
          "internalType": "address",
          "name": "_to",
          "type": "address"
        },
        {
          "internalType": "uint256",
          "name": "_salary",
          "type": "uint256"
        },
        {
          "internalType": "uint256",
          "name": "_duration",
          "type": "uint256"
        },
        {
          "internalType": "string",
          "name": "_description",
          "type": "string"
        }
      ],
      "name": "mint",
      "outputs": [
        {
          "internalType": "uint256",
          "name": "",
          "type": "uint256"
        }
      ],
      "stateMutability": "payable",
      "type": "function",
      "payable": true
    },
    {
      "inputs": [
        {
          "internalType": "uint256",
          "name": "_tokenID",
          "type": "uint256"
        }
      ],
      "name": "signContract",
      "outputs": [],
      "stateMutability": "nonpayable",
      "type": "function"
    },
    {
      "inputs": [
        {
          "internalType": "uint256",
          "name": "_tokenID",
          "type": "uint256"
        }
      ],
      "name": "releaseSalary",
      "outputs": [],
      "stateMutability": "payable",
      "type": "function",
      "payable": true
    },
    {
      "inputs": [
        {
          "internalType": "uint256",
          "name": "_tokenID",
          "type": "uint256"
        }
      ],
      "name": "finalizeContract",
      "outputs": [],
      "stateMutability": "nonpayable",
      "type": "function"
    },
    {
      "inputs": [
        {
          "internalType": "uint256",
          "name": "_tokenID",
          "type": "uint256"
        }
      ],
      "name": "pauseContract",
      "outputs": [],
      "stateMutability": "nonpayable",
      "type": "function"
    },
    {
      "inputs": [
        {
          "internalType": "uint256",
          "name": "_tokenID",
          "type": "uint256"
        }
      ],
      "name": "unPauseContract",
      "outputs": [],
      "stateMutability": "nonpayable",
      "type": "function"
    },
    {
      "inputs": [
        {
          "internalType": "uint256",
          "name": "_tokenID",
          "type": "uint256"
        }
      ],
      "name": "cancelContract",
      "outputs": [],
      "stateMutability": "nonpayable",
      "type": "function"
    },
    {
      "inputs": [
        {
          "internalType": "uint256",
          "name": "_tokenId",
          "type": "uint256"
        },
        {
          "internalType": "address",
          "name": "_newManager",
          "type": "address"
        }
      ],
      "name": "assignManagerToToken",
      "outputs": [],
      "stateMutability": "nonpayable",
      "type": "function"
    },
    {
      "inputs": [
        {
          "internalType": "uint256",
          "name": "_tokenId",
          "type": "uint256"
        },
        {
          "internalType": "address",
          "name": "_manager",
          "type": "address"
        }
      ],
      "name": "revokeManagerFromToken",
      "outputs": [],
      "stateMutability": "nonpayable",
      "type": "function"
    },
    {
      "inputs": [
        {
          "internalType": "uint256",
          "name": "_tokenId",
          "type": "uint256"
        },
        {
          "internalType": "address",
          "name": "_manager",
          "type": "address"
        }
      ],
      "name": "isManagerOfToken",
      "outputs": [
        {
          "internalType": "bool",
          "name": "",
          "type": "bool"
        }
      ],
      "stateMutability": "view",
      "type": "function",
      "constant": true
    },
    {
      "inputs": [
        {
          "internalType": "uint256",
          "name": "_tokenID",
          "type": "uint256"
        },
        {
          "internalType": "uint256",
          "name": "_salary",
          "type": "uint256"
        },
        {
          "internalType": "uint256",
          "name": "_duration",
          "type": "uint256"
        },
        {
          "internalType": "string",
          "name": "_description",
          "type": "string"
        }
      ],
      "name": "modifyContract",
      "outputs": [],
      "stateMutability": "payable",
      "type": "function",
      "payable": true
    }
  ],
  "bytecode": "0x608060405234801562000010575f80fd5b506040518060400160405280600781526020017f4d79546f6b656e000000000000000000000000000000000000000000000000008152506040518060400160405280600381526020017f4d544b0000000000000000000000000000000000000000000000000000000000815250815f90816200008d91906200030c565b5080600190816200009f91906200030c565b505050620003f0565b5f81519050919050565b7f4e487b71000000000000000000000000000000000000000000000000000000005f52604160045260245ffd5b7f4e487b71000000000000000000000000000000000000000000000000000000005f52602260045260245ffd5b5f60028204905060018216806200012457607f821691505b6020821081036200013a5762000139620000df565b5b50919050565b5f819050815f5260205f209050919050565b5f6020601f8301049050919050565b5f82821b905092915050565b5f600883026200019e7fffffffffffffffffffffffffffffffffffffffffffffffffffffffffffffffff8262000161565b620001aa868362000161565b95508019841693508086168417925050509392505050565b5f819050919050565b5f819050919050565b5f620001f4620001ee620001e884620001c2565b620001cb565b620001c2565b9050919050565b5f819050919050565b6200020f83620001d4565b620002276200021e82620001fb565b8484546200016d565b825550505050565b5f90565b6200023d6200022f565b6200024a81848462000204565b505050565b5b818110156200027157620002655f8262000233565b60018101905062000250565b5050565b601f821115620002c0576200028a8162000140565b620002958462000152565b81016020851015620002a5578190505b620002bd620002b48562000152565b8301826200024f565b50505b505050565b5f82821c905092915050565b5f620002e25f1984600802620002c5565b1980831691505092915050565b5f620002fc8383620002d1565b9150826002028217905092915050565b6200031782620000a8565b67ffffffffffffffff811115620003335762000332620000b2565b5b6200033f82546200010c565b6200034c82828562000275565b5f60209050601f83116001811462000382575f84156200036d578287015190505b620003798582620002ef565b865550620003e8565b601f198416620003928662000140565b5f5b82811015620003bb5784890151825560018201915060208501945060208101905062000394565b86831015620003db5784890151620003d7601f891682620002d1565b8355505b6001600288020188555050505b505050505050565b614d3b80620003fe5f395ff3fe608060405260043610610180575f3560e01c80635cfa6850116100d0578063a22cb46511610089578063c2852f3811610063578063c2852f3814610589578063c87b56dd146105b1578063e2c07c7b146105ed578063e985e9c51461060957610180565b8063a22cb46514610509578063b88d4fde14610531578063bb7fde711461055957610180565b80635cfa6850146103fb5780636352211e1461041757806370a082311461045357806389b83d3e1461048f5780639537e8d1146104b757806395d89b41146104df57610180565b806323b872dd1161013d578063294a793111610117578063294a79311461031657806331432e45146103525780633330a55f1461038e57806342842e0e146103d357610180565b806323b872dd1461029e57806328047450146102c65780632907eb16146102ee57610180565b806301ffc9a714610184578063045b6a4e146101c057806306fdde03146101e8578063081812fc14610212578063095ea7b31461024e5780632355e21714610276575b5f80fd5b34801561018f575f80fd5b506101aa60048036038101906101a59190613512565b610645565b6040516101b79190613557565b60405180910390f35b3480156101cb575f80fd5b506101e660048036038101906101e191906135fd565b610726565b005b3480156101f3575f80fd5b506101fc610825565b60405161020991906136c5565b60405180910390f35b34801561021d575f80fd5b50610238600480360381019061023391906136e5565b6108b4565b604051610245919061371f565b60405180910390f35b348015610259575f80fd5b50610274600480360381019061026f9190613738565b6108cf565b005b348015610281575f80fd5b5061029c600480360381019061029791906135fd565b6108e5565b005b3480156102a9575f80fd5b506102c460048036038101906102bf9190613776565b6109e5565b005b3480156102d1575f80fd5b506102ec60048036038101906102e791906136e5565b610ae4565b005b3480156102f9575f80fd5b50610314600480360381019061030f91906136e5565b610d33565b005b348015610321575f80fd5b5061033c600480360381019061033791906135fd565b610ff3565b6040516103499190613557565b60405180910390f35b34801561035d575f80fd5b50610378600480360381019061037391906135fd565b61101d565b6040516103859190613557565b60405180910390f35b348015610399575f80fd5b506103b460048036038101906103af91906136e5565b61107f565b6040516103ca9a999897969594939291906137d5565b60405180910390f35b3480156103de575f80fd5b506103f960048036038101906103f49190613776565b61119b565b005b610415600480360381019061041091906139a2565b6111ba565b005b348015610422575f80fd5b5061043d600480360381019061043891906136e5565b6114a5565b60405161044a919061371f565b60405180910390f35b34801561045e575f80fd5b5061047960048036038101906104749190613a22565b6114b6565b6040516104869190613a4d565b60405180910390f35b34801561049a575f80fd5b506104b560048036038101906104b091906136e5565b61156c565b005b3480156104c2575f80fd5b506104dd60048036038101906104d891906136e5565b61183f565b005b3480156104ea575f80fd5b506104f3611c2c565b60405161050091906136c5565b60405180910390f35b348015610514575f80fd5b5061052f600480360381019061052a9190613a90565b611cbc565b005b34801561053c575f80fd5b5061055760048036038101906105529190613b6c565b611cd2565b005b610573600480360381019061056e9190613bec565b611cef565b6040516105809190613a4d565b60405180910390f35b348015610594575f80fd5b506105af60048036038101906105aa91906136e5565b611fca565b005b3480156105bc575f80fd5b506105d760048036038101906105d291906136e5565b61229f565b6040516105e491906136c5565b60405180910390f35b610607600480360381019061060291906136e5565b612305565b005b348015610614575f80fd5b5061062f600480360381019061062a9190613c6c565b612696565b60405161063c9190613557565b60405180910390f35b5f7f80ac58cd000000000000000000000000000000000000000000000000000000007bffffffffffffffffffffffffffffffffffffffffffffffffffffffff1916827bffffffffffffffffffffffffffffffffffffffffffffffffffffffff1916148061070f57507f5b5e139f000000000000000000000000000000000000000000000000000000007bffffffffffffffffffffffffffffffffffffffffffffffffffffffff1916827bffffffffffffffffffffffffffffffffffffffffffffffffffffffff1916145b8061071f575061071e82612724565b5b9050919050565b60075f8381526020019081526020015f205f3373ffffffffffffffffffffffffffffffffffffffff1673ffffffffffffffffffffffffffffffffffffffff1681526020019081526020015f205f9054906101000a900460ff166107be576040517f08c379a00000000000000000000000000000000000000000000000000000000081526004016107b590613d1a565b60405180910390fd5b5f60075f8481526020019081526020015f205f8373ffffffffffffffffffffffffffffffffffffffff1673ffffffffffffffffffffffffffffffffffffffff1681526020019081526020015f205f6101000a81548160ff0219169083151502179055505050565b60605f805461083390613d65565b80601f016020809104026020016040519081016040528092919081815260200182805461085f90613d65565b80156108aa5780601f10610881576101008083540402835291602001916108aa565b820191905f5260205f20905b81548152906001019060200180831161088d57829003601f168201915b5050505050905090565b5f6108be8261278d565b506108c882612813565b9050919050565b6108e182826108dc61284c565b612853565b5050565b60075f8381526020019081526020015f205f3373ffffffffffffffffffffffffffffffffffffffff1673ffffffffffffffffffffffffffffffffffffffff1681526020019081526020015f205f9054906101000a900460ff1661097d576040517f08c379a000000000000000000000000000000000000000000000000000000000815260040161097490613e05565b60405180910390fd5b600160075f8481526020019081526020015f205f8373ffffffffffffffffffffffffffffffffffffffff1673ffffffffffffffffffffffffffffffffffffffff1681526020019081526020015f205f6101000a81548160ff0219169083151502179055505050565b5f73ffffffffffffffffffffffffffffffffffffffff168273ffffffffffffffffffffffffffffffffffffffff1603610a55575f6040517f64a0ae92000000000000000000000000000000000000000000000000000000008152600401610a4c919061371f565b60405180910390fd5b5f610a688383610a6361284c565b612865565b90508373ffffffffffffffffffffffffffffffffffffffff168173ffffffffffffffffffffffffffffffffffffffff1614610ade578382826040517f64283d7b000000000000000000000000000000000000000000000000000000008152600401610ad593929190613e23565b60405180910390fd5b50505050565b3073ffffffffffffffffffffffffffffffffffffffff16636352211e826040518263ffffffff1660e01b8152600401610b1d9190613a4d565b602060405180830381865afa925050508015610b5757506040513d601f19601f82011682018060405250810190610b549190613e6c565b60015b610b96576040517f08c379a0000000000000000000000000000000000000000000000000000000008152600401610b8d90613ee1565b60405180910390fd5b506001151560075f60065481526020019081526020015f205f3373ffffffffffffffffffffffffffffffffffffffff1673ffffffffffffffffffffffffffffffffffffffff1681526020019081526020015f205f9054906101000a900460ff16151514610c38576040517f08c379a0000000000000000000000000000000000000000000000000000000008152600401610c2f90613f6f565b60405180910390fd5b60085f8281526020019081526020015f206004015f9054906101000a900460ff1615610c99576040517f08c379a0000000000000000000000000000000000000000000000000000000008152600401610c9090613fd7565b60405180910390fd5b5f3390505f60085f8481526020019081526020015f205f015490508173ffffffffffffffffffffffffffffffffffffffff166108fc8290811502906040515f60405180830381858888f19350505050158015610cf7573d5f803e3d5ffd5b50610d0183612a70565b827f2d5f5ed000d42aa6f6fc13400f7d7161cd1bea793fec354b11e3451f9f2b07c360405160405180910390a2505050565b3073ffffffffffffffffffffffffffffffffffffffff16636352211e826040518263ffffffff1660e01b8152600401610d6c9190613a4d565b602060405180830381865afa925050508015610da657506040513d601f19601f82011682018060405250810190610da39190613e6c565b60015b610de5576040517f08c379a0000000000000000000000000000000000000000000000000000000008152600401610ddc90613ee1565b60405180910390fd5b506001151560075f60065481526020019081526020015f205f3373ffffffffffffffffffffffffffffffffffffffff1673ffffffffffffffffffffffffffffffffffffffff1681526020019081526020015f205f9054906101000a900460ff16151514610e87576040517f08c379a0000000000000000000000000000000000000000000000000000000008152600401610e7e90614065565b60405180910390fd5b60085f8281526020019081526020015f206004015f9054906101000a900460ff16610ee7576040517f08c379a0000000000000000000000000000000000000000000000000000000008152600401610ede906140cd565b60405180910390fd5b5f151560085f8381526020019081526020015f2060040160159054906101000a900460ff16151514610f4e576040517f08c379a0000000000000000000000000000000000000000000000000000000008152600401610f4590614135565b60405180910390fd5b4260085f8381526020019081526020015f206002015460085f8481526020019081526020015f2060010154610f839190614180565b11610fc3576040517f08c379a0000000000000000000000000000000000000000000000000000000008152600401610fba906141fd565b60405180910390fd5b600160085f8381526020019081526020015f2060040160156101000a81548160ff02191690831515021790555050565b6007602052815f5260405f20602052805f5260405f205f915091509054906101000a900460ff1681565b5f60075f8481526020019081526020015f205f8373ffffffffffffffffffffffffffffffffffffffff1673ffffffffffffffffffffffffffffffffffffffff1681526020019081526020015f205f9054906101000a900460ff16905092915050565b6008602052805f5260405f205f91509050805f0154908060010154908060020154908060030180546110b090613d65565b80601f01602080910402602001604051908101604052809291908181526020018280546110dc90613d65565b80156111275780601f106110fe57610100808354040283529160200191611127565b820191905f5260205f20905b81548152906001019060200180831161110a57829003601f168201915b505050505090806004015f9054906101000a900460ff16908060040160019054906101000a900473ffffffffffffffffffffffffffffffffffffffff16908060040160159054906101000a900460ff16908060040160169054906101000a900460ff1690806005015490806006015490508a565b6111b583838360405180602001604052805f815250611cd2565b505050565b3073ffffffffffffffffffffffffffffffffffffffff16636352211e856040518263ffffffff1660e01b81526004016111f39190613a4d565b602060405180830381865afa92505050801561122d57506040513d601f19601f8201168201806040525081019061122a9190613e6c565b60015b61126c576040517f08c379a000000000000000000000000000000000000000000000000000000000815260040161126390613ee1565b60405180910390fd5b506001151560075f60065481526020019081526020015f205f3373ffffffffffffffffffffffffffffffffffffffff1673ffffffffffffffffffffffffffffffffffffffff1681526020019081526020015f205f9054906101000a900460ff1615151461130e576040517f08c379a00000000000000000000000000000000000000000000000000000000081526004016113059061428b565b60405180910390fd5b60085f8581526020019081526020015f206004015f9054906101000a900460ff161561136f576040517f08c379a000000000000000000000000000000000000000000000000000000000815260040161136690613fd7565b60405180910390fd5b5f151560085f8681526020019081526020015f2060040160159054906101000a900460ff161515146113d6576040517f08c379a00000000000000000000000000000000000000000000000000000000081526004016113cd906142f3565b60405180910390fd5b4260085f8681526020019081526020015f206002015460085f8781526020019081526020015f206001015461140b9190614180565b101561144c576040517f08c379a00000000000000000000000000000000000000000000000000000000081526004016114439061435b565b60405180910390fd5b8260085f8681526020019081526020015f205f01819055508160085f8681526020019081526020015f20600201819055508060085f8681526020019081526020015f20600301908161149e9190614516565b5050505050565b5f6114af8261278d565b9050919050565b5f8073ffffffffffffffffffffffffffffffffffffffff168273ffffffffffffffffffffffffffffffffffffffff1603611527575f6040517f89c62b6400000000000000000000000000000000000000000000000000000000815260040161151e919061371f565b60405180910390fd5b60035f8373ffffffffffffffffffffffffffffffffffffffff1673ffffffffffffffffffffffffffffffffffffffff1681526020019081526020015f20549050919050565b3073ffffffffffffffffffffffffffffffffffffffff16636352211e826040518263ffffffff1660e01b81526004016115a59190613a4d565b602060405180830381865afa9250505080156115df57506040513d601f19601f820116820180604052508101906115dc9190613e6c565b60015b61161e576040517f08c379a000000000000000000000000000000000000000000000000000000000815260040161161590613ee1565b60405180910390fd5b506001151560075f60065481526020019081526020015f205f3373ffffffffffffffffffffffffffffffffffffffff1673ffffffffffffffffffffffffffffffffffffffff1681526020019081526020015f205f9054906101000a900460ff161515146116c0576040517f08c379a00000000000000000000000000000000000000000000000000000000081526004016116b790614655565b60405180910390fd5b60085f8281526020019081526020015f206004015f9054906101000a900460ff16611720576040517f08c379a0000000000000000000000000000000000000000000000000000000008152600401611717906140cd565b60405180910390fd5b60085f8281526020019081526020015f2060040160169054906101000a900460ff16611781576040517f08c379a0000000000000000000000000000000000000000000000000000000008152600401611778906146bd565b60405180910390fd5b60085f8281526020019081526020015f2060050154426117a191906146db565b60085f8381526020019081526020015f206006018190555060085f8281526020019081526020015f206006015460085f8381526020019081526020015f206002015f8282546117f09190614180565b925050819055505f60085f8381526020019081526020015f20600501819055505f60085f8381526020019081526020015f2060040160166101000a81548160ff02191690831515021790555050565b3073ffffffffffffffffffffffffffffffffffffffff16636352211e826040518263ffffffff1660e01b81526004016118789190613a4d565b602060405180830381865afa9250505080156118b257506040513d601f19601f820116820180604052508101906118af9190613e6c565b60015b6118f1576040517f08c379a00000000000000000000000000000000000000000000000000000000081526004016118e890613ee1565b60405180910390fd5b505f151560075f60065481526020019081526020015f205f3373ffffffffffffffffffffffffffffffffffffffff1673ffffffffffffffffffffffffffffffffffffffff1681526020019081526020015f205f9054906101000a900460ff16151514611992576040517f08c379a00000000000000000000000000000000000000000000000000000000081526004016119899061477e565b60405180910390fd5b60085f8281526020019081526020015f2060040160019054906101000a900473ffffffffffffffffffffffffffffffffffffffff1673ffffffffffffffffffffffffffffffffffffffff163373ffffffffffffffffffffffffffffffffffffffff1614611a34576040517f08c379a0000000000000000000000000000000000000000000000000000000008152600401611a2b9061480c565b60405180910390fd5b60085f8281526020019081526020015f206004015f9054906101000a900460ff1615611a95576040517f08c379a0000000000000000000000000000000000000000000000000000000008152600401611a8c90613fd7565b60405180910390fd5b5f151560085f8381526020019081526020015f2060040160159054906101000a900460ff16151514611afc576040517f08c379a0000000000000000000000000000000000000000000000000000000008152600401611af3906142f3565b60405180910390fd5b4260085f8381526020019081526020015f206002015460085f8481526020019081526020015f2060010154611b319190614180565b1015611b72576040517f08c379a0000000000000000000000000000000000000000000000000000000008152600401611b699061435b565b60405180910390fd5b600160085f8381526020019081526020015f206004015f6101000a81548160ff0219169083151502179055503360085f8381526020019081526020015f2060040160016101000a81548173ffffffffffffffffffffffffffffffffffffffff021916908373ffffffffffffffffffffffffffffffffffffffff160217905550807fcd3b1fcca80f9caae633c3e13546995d3810e561957af92839f070c46571942c33604051611c21919061371f565b60405180910390a250565b606060018054611c3b90613d65565b80601f0160208091040260200160405190810160405280929190818152602001828054611c6790613d65565b8015611cb25780601f10611c8957610100808354040283529160200191611cb2565b820191905f5260205f20905b815481529060010190602001808311611c9557829003601f168201915b5050505050905090565b611cce611cc761284c565b8383612af2565b5050565b611cdd8484846109e5565b611ce984848484612c5b565b50505050565b5f83341015611d33576040517f08c379a0000000000000000000000000000000000000000000000000000000008152600401611d2a9061489a565b60405180910390fd5b60065f815480929190611d45906148b8565b9190505550611d5633600654612e0d565b5f8434611d6391906146db565b90505f811115611db2573373ffffffffffffffffffffffffffffffffffffffff166108fc8290811502906040515f60405180830381858888f19350505050158015611db0573d5f803e3d5ffd5b505b5f6040518061014001604052808781526020014281526020018681526020018581526020015f151581526020018873ffffffffffffffffffffffffffffffffffffffff1681526020015f151581526020015f151581526020015f81526020015f81525090508060085f60065481526020019081526020015f205f820151815f015560208201518160010155604082015181600201556060820151816003019081611e5c9190614516565b506080820151816004015f6101000a81548160ff02191690831515021790555060a08201518160040160016101000a81548173ffffffffffffffffffffffffffffffffffffffff021916908373ffffffffffffffffffffffffffffffffffffffff16021790555060c08201518160040160156101000a81548160ff02191690831515021790555060e08201518160040160166101000a81548160ff02191690831515021790555061010082015181600501556101208201518160060155905050600160075f60065481526020019081526020015f205f3373ffffffffffffffffffffffffffffffffffffffff1673ffffffffffffffffffffffffffffffffffffffff1681526020019081526020015f205f6101000a81548160ff0219169083151502179055507ff00d28232b285f24f2e38415deb2ceb31069e70d4505838b3911b4f02058502e600654604051611fb39190613a4d565b60405180910390a160065492505050949350505050565b3073ffffffffffffffffffffffffffffffffffffffff16636352211e826040518263ffffffff1660e01b81526004016120039190613a4d565b602060405180830381865afa92505050801561203d57506040513d601f19601f8201168201806040525081019061203a9190613e6c565b60015b61207c576040517f08c379a000000000000000000000000000000000000000000000000000000000815260040161207390613ee1565b60405180910390fd5b506001151560075f60065481526020019081526020015f205f3373ffffffffffffffffffffffffffffffffffffffff1673ffffffffffffffffffffffffffffffffffffffff1681526020019081526020015f205f9054906101000a900460ff1615151461211e576040517f08c379a00000000000000000000000000000000000000000000000000000000081526004016121159061496f565b60405180910390fd5b60085f8281526020019081526020015f206004015f9054906101000a900460ff1661217e576040517f08c379a0000000000000000000000000000000000000000000000000000000008152600401612175906140cd565b60405180910390fd5b4260085f8381526020019081526020015f206002015460085f8481526020019081526020015f20600101546121b39190614180565b10156121f4576040517f08c379a00000000000000000000000000000000000000000000000000000000081526004016121eb9061435b565b60405180910390fd5b60085f8281526020019081526020015f2060040160169054906101000a900460ff1615612256576040517f08c379a000000000000000000000000000000000000000000000000000000000815260040161224d906149d7565b60405180910390fd5b600160085f8381526020019081526020015f2060040160166101000a81548160ff0219169083151502179055504260085f8381526020019081526020015f206005018190555050565b60606122aa8261278d565b505f6122b4612f00565b90505f8151116122d25760405180602001604052805f8152506122fd565b806122dc84612f16565b6040516020016122ed929190614a2f565b6040516020818303038152906040525b915050919050565b3073ffffffffffffffffffffffffffffffffffffffff16636352211e826040518263ffffffff1660e01b815260040161233e9190613a4d565b602060405180830381865afa92505050801561237857506040513d601f19601f820116820180604052508101906123759190613e6c565b60015b6123b7576040517f08c379a00000000000000000000000000000000000000000000000000000000081526004016123ae90613ee1565b60405180910390fd5b5060085f8281526020019081526020015f206004015f9054906101000a900460ff16612418576040517f08c379a000000000000000000000000000000000000000000000000000000000815260040161240f906140cd565b60405180910390fd5b6001151560075f60065481526020019081526020015f205f3373ffffffffffffffffffffffffffffffffffffffff1673ffffffffffffffffffffffffffffffffffffffff1681526020019081526020015f205f9054906101000a900460ff161515146124b9576040517f08c379a00000000000000000000000000000000000000000000000000000000081526004016124b090614ac2565b60405180910390fd5b6001151560085f8381526020019081526020015f2060040160159054906101000a900460ff161515148061252057504260085f8381526020019081526020015f206002015460085f8481526020019081526020015f206001015461251d9190614180565b11155b61255f576040517f08c379a000000000000000000000000000000000000000000000000000000000815260040161255690614b50565b60405180910390fd5b5f151560085f8381526020019081526020015f2060040160169054906101000a900460ff161515146125c6576040517f08c379a00000000000000000000000000000000000000000000000000000000081526004016125bd90614bb8565b60405180910390fd5b5f60085f8381526020019081526020015f2060040160019054906101000a900473ffffffffffffffffffffffffffffffffffffffff1690505f60085f8481526020019081526020015f205f015490508173ffffffffffffffffffffffffffffffffffffffff166108fc8290811502906040515f60405180830381858888f19350505050158015612658573d5f803e3d5ffd5b50827f2b52860c5e15aa76ac91d132433549dfe5214c66e36bdb998622ab221c7477c0826040516126899190613a4d565b60405180910390a2505050565b5f60055f8473ffffffffffffffffffffffffffffffffffffffff1673ffffffffffffffffffffffffffffffffffffffff1681526020019081526020015f205f8373ffffffffffffffffffffffffffffffffffffffff1673ffffffffffffffffffffffffffffffffffffffff1681526020019081526020015f205f9054906101000a900460ff16905092915050565b5f7f01ffc9a7000000000000000000000000000000000000000000000000000000007bffffffffffffffffffffffffffffffffffffffffffffffffffffffff1916827bffffffffffffffffffffffffffffffffffffffffffffffffffffffff1916149050919050565b5f8061279883612fe0565b90505f73ffffffffffffffffffffffffffffffffffffffff168173ffffffffffffffffffffffffffffffffffffffff160361280a57826040517f7e2732890000000000000000000000000000000000000000000000000000000081526004016128019190613a4d565b60405180910390fd5b80915050919050565b5f60045f8381526020019081526020015f205f9054906101000a900473ffffffffffffffffffffffffffffffffffffffff169050919050565b5f33905090565b6128608383836001613019565b505050565b5f8061287084612fe0565b90505f73ffffffffffffffffffffffffffffffffffffffff168373ffffffffffffffffffffffffffffffffffffffff16146128b1576128b08184866131d8565b5b5f73ffffffffffffffffffffffffffffffffffffffff168173ffffffffffffffffffffffffffffffffffffffff161461293c576128f05f855f80613019565b600160035f8373ffffffffffffffffffffffffffffffffffffffff1673ffffffffffffffffffffffffffffffffffffffff1681526020019081526020015f205f82825403925050819055505b5f73ffffffffffffffffffffffffffffffffffffffff168573ffffffffffffffffffffffffffffffffffffffff16146129bb57600160035f8773ffffffffffffffffffffffffffffffffffffffff1673ffffffffffffffffffffffffffffffffffffffff1681526020019081526020015f205f82825401925050819055505b8460025f8681526020019081526020015f205f6101000a81548173ffffffffffffffffffffffffffffffffffffffff021916908373ffffffffffffffffffffffffffffffffffffffff160217905550838573ffffffffffffffffffffffffffffffffffffffff168273ffffffffffffffffffffffffffffffffffffffff167fddf252ad1be2c89b69c2b068fc378daa952ba7f163c4a11628f55a4df523b3ef60405160405180910390a4809150509392505050565b5f612a7c5f835f612865565b90505f73ffffffffffffffffffffffffffffffffffffffff168173ffffffffffffffffffffffffffffffffffffffff1603612aee57816040517f7e273289000000000000000000000000000000000000000000000000000000008152600401612ae59190613a4d565b60405180910390fd5b5050565b5f73ffffffffffffffffffffffffffffffffffffffff168273ffffffffffffffffffffffffffffffffffffffff1603612b6257816040517f5b08ba18000000000000000000000000000000000000000000000000000000008152600401612b59919061371f565b60405180910390fd5b8060055f8573ffffffffffffffffffffffffffffffffffffffff1673ffffffffffffffffffffffffffffffffffffffff1681526020019081526020015f205f8473ffffffffffffffffffffffffffffffffffffffff1673ffffffffffffffffffffffffffffffffffffffff1681526020019081526020015f205f6101000a81548160ff0219169083151502179055508173ffffffffffffffffffffffffffffffffffffffff168373ffffffffffffffffffffffffffffffffffffffff167f17307eab39ab6107e8899845ad3d59bd9653f200f220920489ca2b5937696c3183604051612c4e9190613557565b60405180910390a3505050565b5f8373ffffffffffffffffffffffffffffffffffffffff163b1115612e07578273ffffffffffffffffffffffffffffffffffffffff1663150b7a02612c9e61284c565b8685856040518563ffffffff1660e01b8152600401612cc09493929190614c28565b6020604051808303815f875af1925050508015612cfb57506040513d601f19601f82011682018060405250810190612cf89190614c86565b60015b612d7c573d805f8114612d29576040519150601f19603f3d011682016040523d82523d5f602084013e612d2e565b606091505b505f815103612d7457836040517f64a0ae92000000000000000000000000000000000000000000000000000000008152600401612d6b919061371f565b60405180910390fd5b805181602001fd5b63150b7a0260e01b7bffffffffffffffffffffffffffffffffffffffffffffffffffffffff1916817bffffffffffffffffffffffffffffffffffffffffffffffffffffffff191614612e0557836040517f64a0ae92000000000000000000000000000000000000000000000000000000008152600401612dfc919061371f565b60405180910390fd5b505b50505050565b5f73ffffffffffffffffffffffffffffffffffffffff168273ffffffffffffffffffffffffffffffffffffffff1603612e7d575f6040517f64a0ae92000000000000000000000000000000000000000000000000000000008152600401612e74919061371f565b60405180910390fd5b5f612e8983835f612865565b90505f73ffffffffffffffffffffffffffffffffffffffff168173ffffffffffffffffffffffffffffffffffffffff1614612efb575f6040517f73c6ac6e000000000000000000000000000000000000000000000000000000008152600401612ef2919061371f565b60405180910390fd5b505050565b606060405180602001604052805f815250905090565b60605f6001612f248461329b565b0190505f8167ffffffffffffffff811115612f4257612f4161387e565b5b6040519080825280601f01601f191660200182016040528015612f745781602001600182028036833780820191505090505b5090505f82602001820190505b600115612fd5578080600190039150507f3031323334353637383961626364656600000000000000000000000000000000600a86061a8153600a8581612fca57612fc9614cb1565b5b0494505f8503612f81575b819350505050919050565b5f60025f8381526020019081526020015f205f9054906101000a900473ffffffffffffffffffffffffffffffffffffffff169050919050565b808061305157505f73ffffffffffffffffffffffffffffffffffffffff168273ffffffffffffffffffffffffffffffffffffffff1614155b15613183575f6130608461278d565b90505f73ffffffffffffffffffffffffffffffffffffffff168373ffffffffffffffffffffffffffffffffffffffff16141580156130ca57508273ffffffffffffffffffffffffffffffffffffffff168173ffffffffffffffffffffffffffffffffffffffff1614155b80156130dd57506130db8184612696565b155b1561311f57826040517fa9fbf51f000000000000000000000000000000000000000000000000000000008152600401613116919061371f565b60405180910390fd5b811561318157838573ffffffffffffffffffffffffffffffffffffffff168273ffffffffffffffffffffffffffffffffffffffff167f8c5be1e5ebec7d5bd14f71427d1e84f3dd0314c0f7b2291e5b200ac8c7c3b92560405160405180910390a45b505b8360045f8581526020019081526020015f205f6101000a81548173ffffffffffffffffffffffffffffffffffffffff021916908373ffffffffffffffffffffffffffffffffffffffff16021790555050505050565b6131e38383836133ec565b613296575f73ffffffffffffffffffffffffffffffffffffffff168373ffffffffffffffffffffffffffffffffffffffff160361325757806040517f7e27328900000000000000000000000000000000000000000000000000000000815260040161324e9190613a4d565b60405180910390fd5b81816040517f177e802f00000000000000000000000000000000000000000000000000000000815260040161328d929190614cde565b60405180910390fd5b505050565b5f805f90507a184f03e93ff9f4daa797ed6e38ed64bf6a1f01000000000000000083106132f7577a184f03e93ff9f4daa797ed6e38ed64bf6a1f01000000000000000083816132ed576132ec614cb1565b5b0492506040810190505b6d04ee2d6d415b85acef81000000008310613334576d04ee2d6d415b85acef8100000000838161332a57613329614cb1565b5b0492506020810190505b662386f26fc10000831061336357662386f26fc10000838161335957613358614cb1565b5b0492506010810190505b6305f5e100831061338c576305f5e100838161338257613381614cb1565b5b0492506008810190505b61271083106133b15761271083816133a7576133a6614cb1565b5b0492506004810190505b606483106133d457606483816133ca576133c9614cb1565b5b0492506002810190505b600a83106133e3576001810190505b80915050919050565b5f8073ffffffffffffffffffffffffffffffffffffffff168373ffffffffffffffffffffffffffffffffffffffff16141580156134a357508273ffffffffffffffffffffffffffffffffffffffff168473ffffffffffffffffffffffffffffffffffffffff16148061346457506134638484612696565b5b806134a257508273ffffffffffffffffffffffffffffffffffffffff1661348a83612813565b73ffffffffffffffffffffffffffffffffffffffff16145b5b90509392505050565b5f604051905090565b5f80fd5b5f80fd5b5f7fffffffff0000000000000000000000000000000000000000000000000000000082169050919050565b6134f1816134bd565b81146134fb575f80fd5b50565b5f8135905061350c816134e8565b92915050565b5f60208284031215613527576135266134b5565b5b5f613534848285016134fe565b91505092915050565b5f8115159050919050565b6135518161353d565b82525050565b5f60208201905061356a5f830184613548565b92915050565b5f819050919050565b61358281613570565b811461358c575f80fd5b50565b5f8135905061359d81613579565b92915050565b5f73ffffffffffffffffffffffffffffffffffffffff82169050919050565b5f6135cc826135a3565b9050919050565b6135dc816135c2565b81146135e6575f80fd5b50565b5f813590506135f7816135d3565b92915050565b5f8060408385031215613613576136126134b5565b5b5f6136208582860161358f565b9250506020613631858286016135e9565b9150509250929050565b5f81519050919050565b5f82825260208201905092915050565b5f5b83811015613672578082015181840152602081019050613657565b5f8484015250505050565b5f601f19601f8301169050919050565b5f6136978261363b565b6136a18185613645565b93506136b1818560208601613655565b6136ba8161367d565b840191505092915050565b5f6020820190508181035f8301526136dd818461368d565b905092915050565b5f602082840312156136fa576136f96134b5565b5b5f6137078482850161358f565b91505092915050565b613719816135c2565b82525050565b5f6020820190506137325f830184613710565b92915050565b5f806040838503121561374e5761374d6134b5565b5b5f61375b858286016135e9565b925050602061376c8582860161358f565b9150509250929050565b5f805f6060848603121561378d5761378c6134b5565b5b5f61379a868287016135e9565b93505060206137ab868287016135e9565b92505060406137bc8682870161358f565b9150509250925092565b6137cf81613570565b82525050565b5f610140820190506137e95f83018d6137c6565b6137f6602083018c6137c6565b613803604083018b6137c6565b8181036060830152613815818a61368d565b90506138246080830189613548565b61383160a0830188613710565b61383e60c0830187613548565b61384b60e0830186613548565b6138596101008301856137c6565b6138676101208301846137c6565b9b9a5050505050505050505050565b5f80fd5b5f80fd5b7f4e487b71000000000000000000000000000000000000000000000000000000005f52604160045260245ffd5b6138b48261367d565b810181811067ffffffffffffffff821117156138d3576138d261387e565b5b80604052505050565b5f6138e56134ac565b90506138f182826138ab565b919050565b5f67ffffffffffffffff8211156139105761390f61387e565b5b6139198261367d565b9050602081019050919050565b828183375f83830152505050565b5f613946613941846138f6565b6138dc565b9050828152602081018484840111156139625761396161387a565b5b61396d848285613926565b509392505050565b5f82601f83011261398957613988613876565b5b8135613999848260208601613934565b91505092915050565b5f805f80608085870312156139ba576139b96134b5565b5b5f6139c78782880161358f565b94505060206139d88782880161358f565b93505060406139e98782880161358f565b925050606085013567ffffffffffffffff811115613a0a57613a096134b9565b5b613a1687828801613975565b91505092959194509250565b5f60208284031215613a3757613a366134b5565b5b5f613a44848285016135e9565b91505092915050565b5f602082019050613a605f8301846137c6565b92915050565b613a6f8161353d565b8114613a79575f80fd5b50565b5f81359050613a8a81613a66565b92915050565b5f8060408385031215613aa657613aa56134b5565b5b5f613ab3858286016135e9565b9250506020613ac485828601613a7c565b9150509250929050565b5f67ffffffffffffffff821115613ae857613ae761387e565b5b613af18261367d565b9050602081019050919050565b5f613b10613b0b84613ace565b6138dc565b905082815260208101848484011115613b2c57613b2b61387a565b5b613b37848285613926565b509392505050565b5f82601f830112613b5357613b52613876565b5b8135613b63848260208601613afe565b91505092915050565b5f805f8060808587031215613b8457613b836134b5565b5b5f613b91878288016135e9565b9450506020613ba2878288016135e9565b9350506040613bb38782880161358f565b925050606085013567ffffffffffffffff811115613bd457613bd36134b9565b5b613be087828801613b3f565b91505092959194509250565b5f805f8060808587031215613c0457613c036134b5565b5b5f613c11878288016135e9565b9450506020613c228782880161358f565b9350506040613c338782880161358f565b925050606085013567ffffffffffffffff811115613c5457613c536134b9565b5b613c6087828801613975565b91505092959194509250565b5f8060408385031215613c8257613c816134b5565b5b5f613c8f858286016135e9565b9250506020613ca0858286016135e9565b9150509250929050565b7f536f6c6f20756e206d616e61676572206465206573746520636f6e747261746f5f8201527f207075656465207265766f636172206f74726f206d616e616765720000000000602082015250565b5f613d04603b83613645565b9150613d0f82613caa565b604082019050919050565b5f6020820190508181035f830152613d3181613cf8565b9050919050565b7f4e487b71000000000000000000000000000000000000000000000000000000005f52602260045260245ffd5b5f6002820490506001821680613d7c57607f821691505b602082108103613d8f57613d8e613d38565b5b50919050565b7f536f6c6f20756e206d616e61676572206465206573746520636f6e747261746f5f8201527f20707565646520617369676e6172206f74726f206d616e616765720000000000602082015250565b5f613def603b83613645565b9150613dfa82613d95565b604082019050919050565b5f6020820190508181035f830152613e1c81613de3565b9050919050565b5f606082019050613e365f830186613710565b613e4360208301856137c6565b613e506040830184613710565b949350505050565b5f81519050613e66816135d3565b92915050565b5f60208284031215613e8157613e806134b5565b5b5f613e8e84828501613e58565b91505092915050565b7f456c20746f6b656e206e6f206578697374652e000000000000000000000000005f82015250565b5f613ecb601383613645565b9150613ed682613e97565b602082019050919050565b5f6020820190508181035f830152613ef881613ebf565b9050919050565b7f536f6c6f20756e206d616e616765722070756564652063616e63656c617220755f8201527f6e20636f6e747261746f00000000000000000000000000000000000000000000602082015250565b5f613f59602a83613645565b9150613f6482613eff565b604082019050919050565b5f6020820190508181035f830152613f8681613f4d565b9050919050565b7f456c20636f6e747261746f207961206861207369646f206669726d61646f00005f82015250565b5f613fc1601e83613645565b9150613fcc82613f8d565b602082019050919050565b5f6020820190508181035f830152613fee81613fb5565b9050919050565b7f536f6c6f20756e206d616e616765722070756564652066696e616c697a6172205f8201527f756e20636f6e747261746f000000000000000000000000000000000000000000602082015250565b5f61404f602b83613645565b915061405a82613ff5565b604082019050919050565b5f6020820190508181035f83015261407c81614043565b9050919050565b7f456c20636f6e747261746f206e6f206861207369646f206669726d61646f00005f82015250565b5f6140b7601e83613645565b91506140c282614083565b602082019050919050565b5f6020820190508181035f8301526140e4816140ab565b9050919050565b7f456c20636f6e747261746f2079612068612066696e616c697a61646f000000005f82015250565b5f61411f601c83613645565b915061412a826140eb565b602082019050919050565b5f6020820190508181035f83015261414c81614113565b9050919050565b7f4e487b71000000000000000000000000000000000000000000000000000000005f52601160045260245ffd5b5f61418a82613570565b915061419583613570565b92508282019050808211156141ad576141ac614153565b5b92915050565b7f456c20636f6e747261746f20796120686120657870697261646f0000000000005f82015250565b5f6141e7601a83613645565b91506141f2826141b3565b602082019050919050565b5f6020820190508181035f830152614214816141db565b9050919050565b7f536f6c6f20756e206d616e61676572207075656465206d6f64696669636172205f8201527f756e20636f6e747261746f000000000000000000000000000000000000000000602082015250565b5f614275602b83613645565b91506142808261421b565b604082019050919050565b5f6020820190508181035f8301526142a281614269565b9050919050565b7f456c20636f6e747261746f2068612066696e616c697a61646f000000000000005f82015250565b5f6142dd601983613645565b91506142e8826142a9565b602082019050919050565b5f6020820190508181035f83015261430a816142d1565b9050919050565b7f456c20636f6e747261746f20686120657870697261646f0000000000000000005f82015250565b5f614345601783613645565b915061435082614311565b602082019050919050565b5f6020820190508181035f83015261437281614339565b9050919050565b5f819050815f5260205f209050919050565b5f6020601f8301049050919050565b5f82821b905092915050565b5f600883026143d57fffffffffffffffffffffffffffffffffffffffffffffffffffffffffffffffff8261439a565b6143df868361439a565b95508019841693508086168417925050509392505050565b5f819050919050565b5f61441a61441561441084613570565b6143f7565b613570565b9050919050565b5f819050919050565b61443383614400565b61444761443f82614421565b8484546143a6565b825550505050565b5f90565b61445b61444f565b61446681848461442a565b505050565b5b818110156144895761447e5f82614453565b60018101905061446c565b5050565b601f8211156144ce5761449f81614379565b6144a88461438b565b810160208510156144b7578190505b6144cb6144c38561438b565b83018261446b565b50505b505050565b5f82821c905092915050565b5f6144ee5f19846008026144d3565b1980831691505092915050565b5f61450683836144df565b9150826002028217905092915050565b61451f8261363b565b67ffffffffffffffff8111156145385761453761387e565b5b6145428254613d65565b61454d82828561448d565b5f60209050601f83116001811461457e575f841561456c578287015190505b61457685826144fb565b8655506145dd565b601f19841661458c86614379565b5f5b828110156145b35784890151825560018201915060208501945060208101905061458e565b868310156145d057848901516145cc601f8916826144df565b8355505b6001600288020188555050505b505050505050565b7f536f6c6f20756e206d616e61676572207075656465207265616e7564617220755f8201527f6e20636f6e747261746f00000000000000000000000000000000000000000000602082015250565b5f61463f602a83613645565b915061464a826145e5565b604082019050919050565b5f6020820190508181035f83015261466c81614633565b9050919050565b7f456c20636f6e747261746f206e6f2065737461207061757361646f00000000005f82015250565b5f6146a7601b83613645565b91506146b282614673565b602082019050919050565b5f6020820190508181035f8301526146d48161469b565b9050919050565b5f6146e582613570565b91506146f083613570565b925082820390508181111561470857614707614153565b5b92915050565b7f4e6f20707565646573206669726d61722074752070726f70696f20636f6e74725f8201527f61746f0000000000000000000000000000000000000000000000000000000000602082015250565b5f614768602383613645565b91506147738261470e565b604082019050919050565b5f6020820190508181035f8301526147958161475c565b9050919050565b7f536f6c6f20656c2074726162616a61646f72207075656465206669726d6172205f8201527f656c20636f6e747261746f000000000000000000000000000000000000000000602082015250565b5f6147f6602b83613645565b91506148018261479c565b604082019050919050565b5f6020820190508181035f830152614823816147ea565b9050919050565b7f4465646520656e7669617220656c2073616c6172696f20636f6d6f2076616c6f5f8201527f722064656c20636f6e747261746f000000000000000000000000000000000000602082015250565b5f614884602e83613645565b915061488f8261482a565b604082019050919050565b5f6020820190508181035f8301526148b181614878565b9050919050565b5f6148c282613570565b91507fffffffffffffffffffffffffffffffffffffffffffffffffffffffffffffffff82036148f4576148f3614153565b5b600182019050919050565b7f536f6c6f20756e206d616e616765722070756564652070617573617220756e205f8201527f636f6e747261746f000000000000000000000000000000000000000000000000602082015250565b5f614959602883613645565b9150614964826148ff565b604082019050919050565b5f6020820190508181035f8301526149868161494d565b9050919050565b7f456c20636f6e747261746f2079612065737461207061757361646f00000000005f82015250565b5f6149c1601b83613645565b91506149cc8261498d565b602082019050919050565b5f6020820190508181035f8301526149ee816149b5565b9050919050565b5f81905092915050565b5f614a098261363b565b614a1381856149f5565b9350614a23818560208601613655565b80840191505092915050565b5f614a3a82856149ff565b9150614a4682846149ff565b91508190509392505050565b7f536f6c6f20756e206d616e61676572207075656465206c69626572617220656c5f8201527f2073616c6172696f000000000000000000000000000000000000000000000000602082015250565b5f614aac602883613645565b9150614ab782614a52565b604082019050919050565b5f6020820190508181035f830152614ad981614aa0565b9050919050565b7f456c20636f6e747261746f206e6f20686120657870697261646f2061756e206f5f8201527f206e6f2068612066696e616c697a61646f000000000000000000000000000000602082015250565b5f614b3a603183613645565b9150614b4582614ae0565b604082019050919050565b5f6020820190508181035f830152614b6781614b2e565b9050919050565b7f456c20636f6e747261746f2065737461207061757361646f00000000000000005f82015250565b5f614ba2601883613645565b9150614bad82614b6e565b602082019050919050565b5f6020820190508181035f830152614bcf81614b96565b9050919050565b5f81519050919050565b5f82825260208201905092915050565b5f614bfa82614bd6565b614c048185614be0565b9350614c14818560208601613655565b614c1d8161367d565b840191505092915050565b5f608082019050614c3b5f830187613710565b614c486020830186613710565b614c5560408301856137c6565b8181036060830152614c678184614bf0565b905095945050505050565b5f81519050614c80816134e8565b92915050565b5f60208284031215614c9b57614c9a6134b5565b5b5f614ca884828501614c72565b91505092915050565b7f4e487b71000000000000000000000000000000000000000000000000000000005f52601260045260245ffd5b5f604082019050614cf15f830185613710565b614cfe60208301846137c6565b939250505056fea264697066735822122019d56dd706ba61433cb1e7c9bb1620dc8a212bdf565ef60547835c881347c0dd64736f6c63430008140033",
  "immutableReferences": {},
  "source": "// SPDX-License-Identifier: MIT\r\npragma solidity ^0.8.20;\r\n\r\nimport \"@openzeppelin/contracts/token/ERC721/ERC721.sol\";\r\n\r\ncontract MyContract is ERC721 {\r\n    uint256 tokenID;\r\n    mapping(uint256 => mapping(address => bool)) public tokenManagers;\r\n    mapping(uint256 => ContractDetails) public contractDetails;\r\n    struct ContractDetails {\r\n        uint256 salary;\r\n        uint256 startDate;\r\n        uint256 duration;\r\n        string description;\r\n        bool isSigned;\r\n        address worker;\r\n        bool isFinished;\r\n        bool isPaused;\r\n        uint256 pauseTime;\r\n        uint256 pauseDuration;\r\n    }\r\n    event ContractSigned(uint256 indexed tokenId, address worker);\r\n    event SalaryReleased(uint256 indexed tokenId, uint256 salary);\r\n    event TokenMinted(uint256 tokenId);\r\n    event ContractCancelled(uint256 indexed tokenId);\r\n\r\n    constructor() ERC721(\"MyToken\", \"MTK\") {}\r\n\r\n    function mint(\r\n        address _to,\r\n        uint256 _salary,\r\n        uint256 _duration,\r\n        string memory _description\r\n    ) public payable returns (uint256) {\r\n        require(\r\n            msg.value >= _salary,\r\n            \"Dede enviar el salario como valor del contrato\"\r\n        );\r\n        tokenID++;\r\n        _mint(msg.sender, tokenID);\r\n        uint256 remainder = msg.value - _salary;\r\n        if (remainder > 0) {\r\n            payable(msg.sender).transfer(remainder);\r\n        }\r\n\r\n        ContractDetails memory newContract = ContractDetails({\r\n            salary: _salary,\r\n            startDate: block.timestamp, // en segundos\r\n            duration: _duration,\r\n            description: _description,\r\n            isSigned: false,\r\n            worker: _to,\r\n            isFinished: false,\r\n            isPaused: false,\r\n            pauseTime: 0,\r\n            pauseDuration: 0\r\n        });\r\n\r\n        contractDetails[tokenID] = newContract;\r\n        tokenManagers[tokenID][msg.sender] = true;\r\n        emit TokenMinted(tokenID);\r\n\r\n        return tokenID;\r\n    }\r\n\r\n    function signContract(uint256 _tokenID) public {\r\n        try this.ownerOf(_tokenID) {} catch {\r\n            revert(\"El token no existe.\"); // he intentado hacerlo con _exists pero no me ha funcionado\r\n        }\r\n        require(\r\n            tokenManagers[tokenID][msg.sender] == false,\r\n            \"No puedes firmar tu propio contrato\"\r\n        );\r\n        require(\r\n            msg.sender == contractDetails[_tokenID].worker,\r\n            \"Solo el trabajador puede firmar el contrato\"\r\n        );\r\n        require(\r\n            !contractDetails[_tokenID].isSigned,\r\n            \"El contrato ya ha sido firmado\"\r\n        );\r\n        require(\r\n            contractDetails[_tokenID].isFinished == false,\r\n            \"El contrato ha finalizado\"\r\n        );\r\n        require(\r\n            contractDetails[_tokenID].startDate +\r\n                contractDetails[_tokenID].duration >=\r\n                block.timestamp,\r\n            \"El contrato ha expirado\"\r\n        );\r\n\r\n        contractDetails[_tokenID].isSigned = true;\r\n        contractDetails[_tokenID].worker = msg.sender;\r\n        emit ContractSigned(_tokenID, msg.sender);\r\n    }\r\n\r\n    function releaseSalary(uint256 _tokenID) public payable {\r\n        try this.ownerOf(_tokenID) {} catch {\r\n            revert(\"El token no existe.\"); // he intentado hacerlo con _exists pero no me ha funcionado\r\n        }\r\n        require(\r\n            contractDetails[_tokenID].isSigned,\r\n            \"El contrato no ha sido firmado\"\r\n        );\r\n        require(\r\n            tokenManagers[tokenID][msg.sender] == true,\r\n            \"Solo un manager puede liberar el salario\"\r\n        );\r\n        require(\r\n            contractDetails[_tokenID].isFinished == true ||\r\n                contractDetails[_tokenID].startDate +\r\n                    contractDetails[_tokenID].duration <=\r\n                block.timestamp,\r\n            \"El contrato no ha expirado aun o no ha finalizado\"\r\n        );\r\n        require(\r\n            contractDetails[_tokenID].isPaused == false,\r\n            \"El contrato esta pausado\"\r\n        );\r\n\r\n        address payable worker = payable(contractDetails[_tokenID].worker);\r\n        uint256 salary = contractDetails[_tokenID].salary;\r\n        worker.transfer(salary);\r\n        emit SalaryReleased(_tokenID, salary);\r\n    }\r\n\r\n    function finalizeContract(uint256 _tokenID) public {\r\n        try this.ownerOf(_tokenID) {} catch {\r\n            revert(\"El token no existe.\"); // he intentado hacerlo con _exists pero no me ha funcionado\r\n        }\r\n        require(\r\n            tokenManagers[tokenID][msg.sender] == true,\r\n            \"Solo un manager puede finalizar un contrato\"\r\n        );\r\n        require(\r\n            contractDetails[_tokenID].isSigned,\r\n            \"El contrato no ha sido firmado\"\r\n        );\r\n        require(\r\n            contractDetails[_tokenID].isFinished == false,\r\n            \"El contrato ya ha finalizado\"\r\n        );\r\n        require(\r\n            contractDetails[_tokenID].startDate +\r\n                contractDetails[_tokenID].duration >\r\n                block.timestamp,\r\n            \"El contrato ya ha expirado\"\r\n        );\r\n\r\n        contractDetails[_tokenID].isFinished = true;\r\n    }\r\n\r\n    function pauseContract(uint256 _tokenID) public {\r\n        try this.ownerOf(_tokenID) {} catch {\r\n            revert(\"El token no existe.\"); // he intentado hacerlo con _exists pero no me ha funcionado\r\n        }\r\n        require(\r\n            tokenManagers[tokenID][msg.sender] == true,\r\n            \"Solo un manager puede pausar un contrato\"\r\n        );\r\n        require(\r\n            contractDetails[_tokenID].isSigned,\r\n            \"El contrato no ha sido firmado\"\r\n        );\r\n        require(\r\n            contractDetails[_tokenID].startDate +\r\n                contractDetails[_tokenID].duration >=\r\n                block.timestamp,\r\n            \"El contrato ha expirado\"\r\n        );\r\n        require(\r\n            !contractDetails[_tokenID].isPaused,\r\n            \"El contrato ya esta pausado\"\r\n        );\r\n\r\n        contractDetails[_tokenID].isPaused = true;\r\n        contractDetails[_tokenID].pauseTime = block.timestamp;\r\n    }\r\n\r\n    function unPauseContract(uint256 _tokenID) public {\r\n        try this.ownerOf(_tokenID) {} catch {\r\n            revert(\"El token no existe.\"); // he intentado hacerlo con _exists pero no me ha funcionado\r\n        }\r\n        require(\r\n            tokenManagers[tokenID][msg.sender] == true,\r\n            \"Solo un manager puede reanudar un contrato\"\r\n        );\r\n        require(\r\n            contractDetails[_tokenID].isSigned,\r\n            \"El contrato no ha sido firmado\"\r\n        );\r\n        require(\r\n            contractDetails[_tokenID].isPaused,\r\n            \"El contrato no esta pausado\"\r\n        );\r\n\r\n        contractDetails[_tokenID].pauseDuration =\r\n            block.timestamp -\r\n            contractDetails[_tokenID].pauseTime;\r\n\r\n        contractDetails[_tokenID].duration += contractDetails[_tokenID]\r\n            .pauseDuration;\r\n\r\n        contractDetails[_tokenID].pauseTime = 0;\r\n        contractDetails[_tokenID].isPaused = false;\r\n    }\r\n\r\n    function cancelContract(uint256 _tokenID) public {\r\n        try this.ownerOf(_tokenID) {} catch {\r\n            revert(\"El token no existe.\"); // he intentado hacerlo con _exists pero no me ha funcionado\r\n        }\r\n        require(\r\n            tokenManagers[tokenID][msg.sender] == true,\r\n            \"Solo un manager puede cancelar un contrato\"\r\n        );\r\n        require(\r\n            !contractDetails[_tokenID].isSigned,\r\n            \"El contrato ya ha sido firmado\"\r\n        );\r\n\r\n        address payable owner = payable(msg.sender);\r\n        uint256 salary = contractDetails[_tokenID].salary;\r\n        owner.transfer(salary);\r\n        _burn(_tokenID);\r\n        emit ContractCancelled(_tokenID);\r\n    }\r\n\r\n    function assignManagerToToken(\r\n        uint256 _tokenId,\r\n        address _newManager\r\n    ) public {\r\n        require(\r\n            tokenManagers[_tokenId][msg.sender],\r\n            \"Solo un manager de este contrato puede asignar otro manager\"\r\n        );\r\n        tokenManagers[_tokenId][_newManager] = true;\r\n    }\r\n\r\n    function revokeManagerFromToken(uint256 _tokenId, address _manager) public {\r\n        require(\r\n            tokenManagers[_tokenId][msg.sender],\r\n            \"Solo un manager de este contrato puede revocar otro manager\"\r\n        );\r\n        tokenManagers[_tokenId][_manager] = false;\r\n    }\r\n\r\n    function isManagerOfToken(\r\n        uint256 _tokenId,\r\n        address _manager\r\n    ) public view returns (bool) {\r\n        return tokenManagers[_tokenId][_manager];\r\n    }\r\n\r\n    //Funcion para modificar un contrato que no haya sido firmado\r\n    function modifyContract(\r\n        uint256 _tokenID,\r\n        uint256 _salary,\r\n        uint256 _duration,\r\n        string memory _description\r\n    ) public payable {\r\n        try this.ownerOf(_tokenID) {} catch {\r\n            revert(\"El token no existe.\"); // he intentado hacerlo con _exists pero no me ha funcionado\r\n        }\r\n        require(\r\n            tokenManagers[tokenID][msg.sender] == true,\r\n            \"Solo un manager puede modificar un contrato\"\r\n        );\r\n        require(\r\n            !contractDetails[_tokenID].isSigned,\r\n            \"El contrato ya ha sido firmado\"\r\n        );\r\n        require(\r\n            contractDetails[_tokenID].isFinished == false,\r\n            \"El contrato ha finalizado\"\r\n        );\r\n        require(\r\n            contractDetails[_tokenID].startDate +\r\n                contractDetails[_tokenID].duration >=\r\n                block.timestamp,\r\n            \"El contrato ha expirado\"\r\n        );\r\n\r\n        contractDetails[_tokenID].salary = _salary;\r\n        contractDetails[_tokenID].duration = _duration;\r\n        contractDetails[_tokenID].description = _description;\r\n    }\r\n\r\n    //Funcion para modificar un contrato que haya sido firmado con la aprobacin del trabajador\r\n    //funcion para abrir un disputa en un contrato activo. Tanto como trabajador como como empleador\r\n    //funcion para analis: que permita saber el salario medio, el numero de contratos firmados, el numero de contratos activos, el numero de contratos cancelados, el numero de contratos finalizados, el numero de contratos en disputa, el numero de contratos que han expirado\r\n    //Fucnion que penalice a un trabajador que no haya cumplido con el contrato\r\n}\r\n",
  "sourcePath": "E:\\AppContract\\ubu-contractme\\Code\\SmartContract\\contracts\\MyContract.sol",
  "compiler": {
    "name": "solc",
    "version": "0.8.20+commit.a1b79de6.Emscripten.clang"
  },
  "schemaVersion": "3.4.16",
  "updatedAt": "2023-12-23T15:55:59.964Z",
  "networkType": "ethereum",
  "devdoc": {
    "errors": {
      "ERC721IncorrectOwner(address,uint256,address)": [
        {
          "details": "Indicates an error related to the ownership over a particular token. Used in transfers.",
          "params": {
            "owner": "Address of the current owner of a token.",
            "sender": "Address whose tokens are being transferred.",
            "tokenId": "Identifier number of a token."
          }
        }
      ],
      "ERC721InsufficientApproval(address,uint256)": [
        {
          "details": "Indicates a failure with the `operator`s approval. Used in transfers.",
          "params": {
            "operator": "Address that may be allowed to operate on tokens without being their owner.",
            "tokenId": "Identifier number of a token."
          }
        }
      ],
      "ERC721InvalidApprover(address)": [
        {
          "details": "Indicates a failure with the `approver` of a token to be approved. Used in approvals.",
          "params": {
            "approver": "Address initiating an approval operation."
          }
        }
      ],
      "ERC721InvalidOperator(address)": [
        {
          "details": "Indicates a failure with the `operator` to be approved. Used in approvals.",
          "params": {
            "operator": "Address that may be allowed to operate on tokens without being their owner."
          }
        }
      ],
      "ERC721InvalidOwner(address)": [
        {
          "details": "Indicates that an address can't be an owner. For example, `address(0)` is a forbidden owner in EIP-20. Used in balance queries.",
          "params": {
            "owner": "Address of the current owner of a token."
          }
        }
      ],
      "ERC721InvalidReceiver(address)": [
        {
          "details": "Indicates a failure with the token `receiver`. Used in transfers.",
          "params": {
            "receiver": "Address to which tokens are being transferred."
          }
        }
      ],
      "ERC721InvalidSender(address)": [
        {
          "details": "Indicates a failure with the token `sender`. Used in transfers.",
          "params": {
            "sender": "Address whose tokens are being transferred."
          }
        }
      ],
      "ERC721NonexistentToken(uint256)": [
        {
          "details": "Indicates a `tokenId` whose `owner` is the zero address.",
          "params": {
            "tokenId": "Identifier number of a token."
          }
        }
      ]
    },
    "events": {
      "Approval(address,address,uint256)": {
        "details": "Emitted when `owner` enables `approved` to manage the `tokenId` token."
      },
      "ApprovalForAll(address,address,bool)": {
        "details": "Emitted when `owner` enables or disables (`approved`) `operator` to manage all of its assets."
      },
      "Transfer(address,address,uint256)": {
        "details": "Emitted when `tokenId` token is transferred from `from` to `to`."
      }
    },
    "kind": "dev",
    "methods": {
      "approve(address,uint256)": {
        "details": "See {IERC721-approve}."
      },
      "balanceOf(address)": {
        "details": "See {IERC721-balanceOf}."
      },
      "getApproved(uint256)": {
        "details": "See {IERC721-getApproved}."
      },
      "isApprovedForAll(address,address)": {
        "details": "See {IERC721-isApprovedForAll}."
      },
      "name()": {
        "details": "See {IERC721Metadata-name}."
      },
      "ownerOf(uint256)": {
        "details": "See {IERC721-ownerOf}."
      },
      "safeTransferFrom(address,address,uint256)": {
        "details": "See {IERC721-safeTransferFrom}."
      },
      "safeTransferFrom(address,address,uint256,bytes)": {
        "details": "See {IERC721-safeTransferFrom}."
      },
      "setApprovalForAll(address,bool)": {
        "details": "See {IERC721-setApprovalForAll}."
      },
      "supportsInterface(bytes4)": {
        "details": "See {IERC165-supportsInterface}."
      },
      "symbol()": {
        "details": "See {IERC721Metadata-symbol}."
      },
      "tokenURI(uint256)": {
        "details": "See {IERC721Metadata-tokenURI}."
      },
      "transferFrom(address,address,uint256)": {
        "details": "See {IERC721-transferFrom}."
      }
    },
    "version": 1
  },
  "userdoc": {
    "kind": "user",
    "methods": {},
    "version": 1
  }
}