{
  "contractName": "MyContractManagement",
  "abi": [
    {
      "inputs": [
        {
          "internalType": "address",
          "name": "sender",
          "type": "address"
        },
        {
          "internalType": "uint256",
          "name": "tokenId",
          "type": "uint256"
        },
        {
          "internalType": "address",
          "name": "owner",
          "type": "address"
        }
      ],
      "name": "ERC721IncorrectOwner",
      "type": "error"
    },
    {
      "inputs": [
        {
          "internalType": "address",
          "name": "operator",
          "type": "address"
        },
        {
          "internalType": "uint256",
          "name": "tokenId",
          "type": "uint256"
        }
      ],
      "name": "ERC721InsufficientApproval",
      "type": "error"
    },
    {
      "inputs": [
        {
          "internalType": "address",
          "name": "approver",
          "type": "address"
        }
      ],
      "name": "ERC721InvalidApprover",
      "type": "error"
    },
    {
      "inputs": [
        {
          "internalType": "address",
          "name": "operator",
          "type": "address"
        }
      ],
      "name": "ERC721InvalidOperator",
      "type": "error"
    },
    {
      "inputs": [
        {
          "internalType": "address",
          "name": "owner",
          "type": "address"
        }
      ],
      "name": "ERC721InvalidOwner",
      "type": "error"
    },
    {
      "inputs": [
        {
          "internalType": "address",
          "name": "receiver",
          "type": "address"
        }
      ],
      "name": "ERC721InvalidReceiver",
      "type": "error"
    },
    {
      "inputs": [
        {
          "internalType": "address",
          "name": "sender",
          "type": "address"
        }
      ],
      "name": "ERC721InvalidSender",
      "type": "error"
    },
    {
      "inputs": [
        {
          "internalType": "uint256",
          "name": "tokenId",
          "type": "uint256"
        }
      ],
      "name": "ERC721NonexistentToken",
      "type": "error"
    },
    {
      "anonymous": false,
      "inputs": [
        {
          "indexed": true,
          "internalType": "address",
          "name": "owner",
          "type": "address"
        },
        {
          "indexed": true,
          "internalType": "address",
          "name": "approved",
          "type": "address"
        },
        {
          "indexed": true,
          "internalType": "uint256",
          "name": "tokenId",
          "type": "uint256"
        }
      ],
      "name": "Approval",
      "type": "event"
    },
    {
      "anonymous": false,
      "inputs": [
        {
          "indexed": true,
          "internalType": "address",
          "name": "owner",
          "type": "address"
        },
        {
          "indexed": true,
          "internalType": "address",
          "name": "operator",
          "type": "address"
        },
        {
          "indexed": false,
          "internalType": "bool",
          "name": "approved",
          "type": "bool"
        }
      ],
      "name": "ApprovalForAll",
      "type": "event"
    },
    {
      "anonymous": false,
      "inputs": [
        {
          "indexed": true,
          "internalType": "uint256",
          "name": "tokenId",
          "type": "uint256"
        },
        {
          "indexed": true,
          "internalType": "address",
          "name": "employer",
          "type": "address"
        },
        {
          "indexed": true,
          "internalType": "address",
          "name": "worker",
          "type": "address"
        },
        {
          "indexed": false,
          "internalType": "uint256",
          "name": "salary",
          "type": "uint256"
        },
        {
          "indexed": false,
          "internalType": "uint256",
          "name": "timestamp",
          "type": "uint256"
        }
      ],
      "name": "ContractCancelled",
      "type": "event"
    },
    {
      "anonymous": false,
      "inputs": [
        {
          "indexed": true,
          "internalType": "uint256",
          "name": "tokenId",
          "type": "uint256"
        },
        {
          "indexed": true,
          "internalType": "address",
          "name": "employer",
          "type": "address"
        },
        {
          "indexed": true,
          "internalType": "address",
          "name": "worker",
          "type": "address"
        },
        {
          "indexed": false,
          "internalType": "uint256",
          "name": "timestamp",
          "type": "uint256"
        }
      ],
      "name": "ContractFinalized",
      "type": "event"
    },
    {
      "anonymous": false,
      "inputs": [
        {
          "indexed": true,
          "internalType": "uint256",
          "name": "tokenId",
          "type": "uint256"
        },
        {
          "indexed": true,
          "internalType": "address",
          "name": "employer",
          "type": "address"
        },
        {
          "indexed": true,
          "internalType": "address",
          "name": "worker",
          "type": "address"
        },
        {
          "indexed": false,
          "internalType": "uint256",
          "name": "timestamp",
          "type": "uint256"
        }
      ],
      "name": "ContractSigned",
      "type": "event"
    },
    {
      "anonymous": false,
      "inputs": [
        {
          "indexed": true,
          "internalType": "uint256",
          "name": "tokenId",
          "type": "uint256"
        },
        {
          "indexed": false,
          "internalType": "uint256",
          "name": "salary",
          "type": "uint256"
        },
        {
          "indexed": true,
          "internalType": "address",
          "name": "employer",
          "type": "address"
        },
        {
          "indexed": true,
          "internalType": "address",
          "name": "worker",
          "type": "address"
        },
        {
          "indexed": false,
          "internalType": "uint256",
          "name": "timestamp",
          "type": "uint256"
        }
      ],
      "name": "SalaryReleased",
      "type": "event"
    },
    {
      "anonymous": false,
      "inputs": [
        {
          "indexed": false,
          "internalType": "uint256",
          "name": "tokenId",
          "type": "uint256"
        },
        {
          "indexed": true,
          "internalType": "address",
          "name": "employer",
          "type": "address"
        },
        {
          "indexed": true,
          "internalType": "address",
          "name": "worker",
          "type": "address"
        },
        {
          "indexed": false,
          "internalType": "uint256",
          "name": "salary",
          "type": "uint256"
        },
        {
          "indexed": false,
          "internalType": "uint256",
          "name": "timestamp",
          "type": "uint256"
        }
      ],
      "name": "TokenMinted",
      "type": "event"
    },
    {
      "anonymous": false,
      "inputs": [
        {
          "indexed": true,
          "internalType": "address",
          "name": "from",
          "type": "address"
        },
        {
          "indexed": true,
          "internalType": "address",
          "name": "to",
          "type": "address"
        },
        {
          "indexed": true,
          "internalType": "uint256",
          "name": "tokenId",
          "type": "uint256"
        }
      ],
      "name": "Transfer",
      "type": "event"
    },
    {
      "inputs": [
        {
          "internalType": "address",
          "name": "",
          "type": "address"
        },
        {
          "internalType": "uint256",
          "name": "",
          "type": "uint256"
        }
      ],
      "name": "activeContractsOfWorker",
      "outputs": [
        {
          "internalType": "uint256",
          "name": "",
          "type": "uint256"
        }
      ],
      "stateMutability": "view",
      "type": "function"
    },
    {
      "inputs": [
        {
          "internalType": "address",
          "name": "to",
          "type": "address"
        },
        {
          "internalType": "uint256",
          "name": "tokenId",
          "type": "uint256"
        }
      ],
      "name": "approve",
      "outputs": [],
      "stateMutability": "nonpayable",
      "type": "function"
    },
    {
      "inputs": [
        {
          "internalType": "address",
          "name": "owner",
          "type": "address"
        }
      ],
      "name": "balanceOf",
      "outputs": [
        {
          "internalType": "uint256",
          "name": "",
          "type": "uint256"
        }
      ],
      "stateMutability": "view",
      "type": "function"
    },
    {
      "inputs": [
        {
          "internalType": "uint256",
          "name": "",
          "type": "uint256"
        }
      ],
      "name": "changeProposals",
      "outputs": [
        {
          "internalType": "string",
          "name": "newTitle",
          "type": "string"
        },
        {
          "internalType": "uint256",
          "name": "newSalary",
          "type": "uint256"
        },
        {
          "internalType": "uint256",
          "name": "newDuration",
          "type": "uint256"
        },
        {
          "internalType": "string",
          "name": "newDescription",
          "type": "string"
        },
        {
          "internalType": "bool",
          "name": "isPaused",
          "type": "bool"
        },
        {
          "internalType": "bool",
          "name": "isPending",
          "type": "bool"
        }
      ],
      "stateMutability": "view",
      "type": "function"
    },
    {
      "inputs": [
        {
          "internalType": "uint256",
          "name": "",
          "type": "uint256"
        }
      ],
      "name": "contractDetails",
      "outputs": [
        {
          "internalType": "uint256",
          "name": "salary",
          "type": "uint256"
        },
        {
          "internalType": "uint256",
          "name": "startDate",
          "type": "uint256"
        },
        {
          "internalType": "uint256",
          "name": "duration",
          "type": "uint256"
        },
        {
          "internalType": "string",
          "name": "title",
          "type": "string"
        },
        {
          "internalType": "string",
          "name": "description",
          "type": "string"
        },
        {
          "internalType": "bool",
          "name": "isSigned",
          "type": "bool"
        },
        {
          "internalType": "address",
          "name": "worker",
          "type": "address"
        },
        {
          "internalType": "bool",
          "name": "isFinished",
          "type": "bool"
        },
        {
          "internalType": "bool",
          "name": "isReleased",
          "type": "bool"
        },
        {
          "internalType": "bool",
          "name": "isPaused",
          "type": "bool"
        },
        {
          "internalType": "uint256",
          "name": "pauseTime",
          "type": "uint256"
        },
        {
          "internalType": "uint256",
          "name": "pauseDuration",
          "type": "uint256"
        }
      ],
      "stateMutability": "view",
      "type": "function"
    },
    {
      "inputs": [
        {
          "internalType": "address",
          "name": "",
          "type": "address"
        },
        {
          "internalType": "uint256",
          "name": "",
          "type": "uint256"
        }
      ],
      "name": "contractsOwner",
      "outputs": [
        {
          "internalType": "uint256",
          "name": "",
          "type": "uint256"
        }
      ],
      "stateMutability": "view",
      "type": "function"
    },
    {
      "inputs": [
        {
          "internalType": "uint256",
          "name": "tokenId",
          "type": "uint256"
        }
      ],
      "name": "getApproved",
      "outputs": [
        {
          "internalType": "address",
          "name": "",
          "type": "address"
        }
      ],
      "stateMutability": "view",
      "type": "function"
    },
    {
      "inputs": [
        {
          "internalType": "address",
          "name": "owner",
          "type": "address"
        },
        {
          "internalType": "address",
          "name": "operator",
          "type": "address"
        }
      ],
      "name": "isApprovedForAll",
      "outputs": [
        {
          "internalType": "bool",
          "name": "",
          "type": "bool"
        }
      ],
      "stateMutability": "view",
      "type": "function"
    },
    {
      "inputs": [
        {
          "internalType": "uint256",
          "name": "_tokenID",
          "type": "uint256"
        }
      ],
      "name": "isContractFinished",
      "outputs": [
        {
          "internalType": "bool",
          "name": "",
          "type": "bool"
        }
      ],
      "stateMutability": "view",
      "type": "function"
    },
    {
      "inputs": [],
      "name": "name",
      "outputs": [
        {
          "internalType": "string",
          "name": "",
          "type": "string"
        }
      ],
      "stateMutability": "view",
      "type": "function"
    },
    {
      "inputs": [
        {
          "internalType": "uint256",
          "name": "tokenId",
          "type": "uint256"
        }
      ],
      "name": "ownerOf",
      "outputs": [
        {
          "internalType": "address",
          "name": "",
          "type": "address"
        }
      ],
      "stateMutability": "view",
      "type": "function"
    },
    {
      "inputs": [
        {
          "internalType": "address",
          "name": "from",
          "type": "address"
        },
        {
          "internalType": "address",
          "name": "to",
          "type": "address"
        },
        {
          "internalType": "uint256",
          "name": "tokenId",
          "type": "uint256"
        }
      ],
      "name": "safeTransferFrom",
      "outputs": [],
      "stateMutability": "nonpayable",
      "type": "function"
    },
    {
      "inputs": [
        {
          "internalType": "address",
          "name": "from",
          "type": "address"
        },
        {
          "internalType": "address",
          "name": "to",
          "type": "address"
        },
        {
          "internalType": "uint256",
          "name": "tokenId",
          "type": "uint256"
        },
        {
          "internalType": "bytes",
          "name": "data",
          "type": "bytes"
        }
      ],
      "name": "safeTransferFrom",
      "outputs": [],
      "stateMutability": "nonpayable",
      "type": "function"
    },
    {
      "inputs": [
        {
          "internalType": "address",
          "name": "operator",
          "type": "address"
        },
        {
          "internalType": "bool",
          "name": "approved",
          "type": "bool"
        }
      ],
      "name": "setApprovalForAll",
      "outputs": [],
      "stateMutability": "nonpayable",
      "type": "function"
    },
    {
      "inputs": [
        {
          "internalType": "bytes4",
          "name": "interfaceId",
          "type": "bytes4"
        }
      ],
      "name": "supportsInterface",
      "outputs": [
        {
          "internalType": "bool",
          "name": "",
          "type": "bool"
        }
      ],
      "stateMutability": "view",
      "type": "function"
    },
    {
      "inputs": [],
      "name": "symbol",
      "outputs": [
        {
          "internalType": "string",
          "name": "",
          "type": "string"
        }
      ],
      "stateMutability": "view",
      "type": "function"
    },
    {
      "inputs": [],
      "name": "tokenID",
      "outputs": [
        {
          "internalType": "uint256",
          "name": "",
          "type": "uint256"
        }
      ],
      "stateMutability": "view",
      "type": "function"
    },
    {
      "inputs": [
        {
          "internalType": "uint256",
          "name": "",
          "type": "uint256"
        },
        {
          "internalType": "address",
          "name": "",
          "type": "address"
        }
      ],
      "name": "tokenManagers",
      "outputs": [
        {
          "internalType": "bool",
          "name": "",
          "type": "bool"
        }
      ],
      "stateMutability": "view",
      "type": "function"
    },
    {
      "inputs": [
        {
          "internalType": "uint256",
          "name": "",
          "type": "uint256"
        },
        {
          "internalType": "uint256",
          "name": "",
          "type": "uint256"
        }
      ],
      "name": "tokenManagersList",
      "outputs": [
        {
          "internalType": "address",
          "name": "",
          "type": "address"
        }
      ],
      "stateMutability": "view",
      "type": "function"
    },
    {
      "inputs": [
        {
          "internalType": "uint256",
          "name": "tokenId",
          "type": "uint256"
        }
      ],
      "name": "tokenURI",
      "outputs": [
        {
          "internalType": "string",
          "name": "",
          "type": "string"
        }
      ],
      "stateMutability": "view",
      "type": "function"
    },
    {
      "inputs": [
        {
          "internalType": "address",
          "name": "from",
          "type": "address"
        },
        {
          "internalType": "address",
          "name": "to",
          "type": "address"
        },
        {
          "internalType": "uint256",
          "name": "tokenId",
          "type": "uint256"
        }
      ],
      "name": "transferFrom",
      "outputs": [],
      "stateMutability": "nonpayable",
      "type": "function"
    },
    {
      "inputs": [
        {
          "internalType": "address",
          "name": "",
          "type": "address"
        },
        {
          "internalType": "uint256",
          "name": "",
          "type": "uint256"
        }
      ],
      "name": "unsignedContractsOfWorker",
      "outputs": [
        {
          "internalType": "uint256",
          "name": "",
          "type": "uint256"
        }
      ],
      "stateMutability": "view",
      "type": "function"
    },
    {
      "inputs": [
        {
          "internalType": "address",
          "name": "_to",
          "type": "address"
        },
        {
          "internalType": "uint256",
          "name": "_salary",
          "type": "uint256"
        },
        {
          "internalType": "uint256",
          "name": "_start",
          "type": "uint256"
        },
        {
          "internalType": "uint256",
          "name": "_duration",
          "type": "uint256"
        },
        {
          "internalType": "string",
          "name": "_description",
          "type": "string"
        },
        {
          "internalType": "string",
          "name": "_title",
          "type": "string"
        }
      ],
      "name": "mint",
      "outputs": [
        {
          "internalType": "uint256",
          "name": "",
          "type": "uint256"
        }
      ],
      "stateMutability": "payable",
      "type": "function"
    },
    {
      "inputs": [
        {
          "internalType": "uint256",
          "name": "_tokenID",
          "type": "uint256"
        }
      ],
      "name": "signContract",
      "outputs": [],
      "stateMutability": "nonpayable",
      "type": "function"
    },
    {
      "inputs": [
        {
          "internalType": "uint256",
          "name": "_tokenID",
          "type": "uint256"
        }
      ],
      "name": "releaseSalary",
      "outputs": [],
      "stateMutability": "payable",
      "type": "function"
    },
    {
      "inputs": [
        {
          "internalType": "uint256",
          "name": "_tokenID",
          "type": "uint256"
        }
      ],
      "name": "finalizeContract",
      "outputs": [],
      "stateMutability": "nonpayable",
      "type": "function"
    },
    {
      "inputs": [
        {
          "internalType": "uint256",
          "name": "_tokenID",
          "type": "uint256"
        }
      ],
      "name": "cancelContract",
      "outputs": [],
      "stateMutability": "nonpayable",
      "type": "function"
    }
  ],
  "bytecode": "0x608060405234801562000010575f80fd5b506040518060400160405280600781526020016626bcaa37b5b2b760c91b815250604051806040016040528060038152602001624d544b60e81b815250815f90816200005d919062000115565b5060016200006c828262000115565b505050620001dd565b634e487b7160e01b5f52604160045260245ffd5b600181811c908216806200009e57607f821691505b602082108103620000bd57634e487b7160e01b5f52602260045260245ffd5b50919050565b601f82111562000110575f81815260208120601f850160051c81016020861015620000eb5750805b601f850160051c820191505b818110156200010c57828155600101620000f7565b5050505b505050565b81516001600160401b0381111562000131576200013162000075565b620001498162000142845462000089565b84620000c3565b602080601f8311600181146200017f575f8415620001675750858301515b5f19600386901b1c1916600185901b1785556200010c565b5f85815260208120601f198616915b82811015620001af578886015182559484019460019091019084016200018e565b5085821015620001cd57878501515f19600388901b60f8161c191681555b5050505050600190811b01905550565b6125f180620001eb5f395ff3fe608060405260043610610195575f3560e01c806370a08231116100e7578063bc3a8e9e11610087578063e1b1462011610062578063e1b14620146104b2578063e2c07c7b146104d1578063e985e9c5146104e4578063fc5a4efe14610503575f80fd5b8063bc3a8e9e14610455578063bce8715614610474578063c87b56dd14610493575f80fd5b8063a22cb465116100c2578063a22cb465146103ef578063a5c42ef11461040e578063a8dd896414610423578063b88d4fde14610436575f80fd5b806370a082311461039d5780639537e8d1146103bc57806395d89b41146103db575f80fd5b80632907eb161161015257806336a2d6f51161012d57806336a2d6f51461031357806342842e0e1461033257806345f18460146103515780636352211e1461037e575f80fd5b80632907eb1614610284578063294a7931146102a35780633330a55f146102dc575f80fd5b806301ffc9a71461019957806306fdde03146101cd578063081812fc146101ee578063095ea7b31461022557806323b872dd146102465780632804745014610265575b5f80fd5b3480156101a4575f80fd5b506101b86101b3366004611ea6565b610534565b60405190151581526020015b60405180910390f35b3480156101d8575f80fd5b506101e1610585565b6040516101c49190611f0e565b3480156101f9575f80fd5b5061020d610208366004611f20565b610614565b6040516001600160a01b0390911681526020016101c4565b348015610230575f80fd5b5061024461023f366004611f4b565b61063b565b005b348015610251575f80fd5b50610244610260366004611f75565b61064a565b348015610270575f80fd5b5061024461027f366004611f20565b6106d8565b34801561028f575f80fd5b5061024461029e366004611f20565b6108af565b3480156102ae575f80fd5b506101b86102bd366004611fb3565b600860209081525f928352604080842090915290825290205460ff1681565b3480156102e7575f80fd5b506102fb6102f6366004611f20565b610a34565b6040516101c49c9b9a99989796959493929190611fe1565b34801561031e575f80fd5b5061020d61032d366004612070565b610bb5565b34801561033d575f80fd5b5061024461034c366004611f75565b610be9565b34801561035c575f80fd5b5061037061036b366004611f4b565b610c08565b6040519081526020016101c4565b348015610389575f80fd5b5061020d610398366004611f20565b610c33565b3480156103a8575f80fd5b506103706103b7366004612090565b610c3d565b3480156103c7575f80fd5b506102446103d6366004611f20565b610c82565b3480156103e6575f80fd5b506101e1610e15565b3480156103fa575f80fd5b506102446104093660046120ab565b610e24565b348015610419575f80fd5b50610370600d5481565b610370610431366004612180565b610e2f565b348015610441575f80fd5b5061024461045036600461220c565b611123565b348015610460575f80fd5b5061037061046f366004611f4b565b61113a565b34801561047f575f80fd5b506101b861048e366004611f20565b611153565b34801561049e575f80fd5b506101e16104ad366004611f20565b61123e565b3480156104bd575f80fd5b506103706104cc366004611f4b565b6112af565b6102446104df366004611f20565b6112c8565b3480156104ef575f80fd5b506101b86104fe366004612287565b61148a565b34801561050e575f80fd5b5061052261051d366004611f20565b6114b7565b6040516101c4969594939291906122b3565b5f6001600160e01b031982166380ac58cd60e01b148061056457506001600160e01b03198216635b5e139f60e01b145b8061057f57506301ffc9a760e01b6001600160e01b03198316145b92915050565b60605f8054610593906122fe565b80601f01602080910402602001604051908101604052809291908181526020018280546105bf906122fe565b801561060a5780601f106105e15761010080835404028352916020019161060a565b820191905f5260205f20905b8154815290600101906020018083116105ed57829003601f168201915b5050505050905090565b5f61061e826115fc565b505f828152600460205260409020546001600160a01b031661057f565b610646828233611634565b5050565b6001600160a01b03821661067857604051633250574960e11b81525f60048201526024015b60405180910390fd5b5f610684838333611641565b9050836001600160a01b0316816001600160a01b0316146106d2576040516364283d7b60e01b81526001600160a01b038086166004830152602482018490528216604482015260640161066f565b50505050565b6040516331a9108f60e11b8152600481018290523090636352211e90602401602060405180830381865afa925050508015610730575060408051601f3d908101601f1916820190925261072d91810190612336565b60015b61074c5760405162461bcd60e51b815260040161066f90612351565b505f81815260086020908152604080832033845290915290205460ff161515600114801561078b57505f8181526006602052604090206005015460ff16155b80156107af57505f81815260066020526040902060050154600160a81b900460ff16155b80156107c157506107bf81611153565b155b6107dd5760405162461bcd60e51b815260040161066f9061237e565b5f6107e782610c33565b5f83815260066020526040808220549051929350916001600160a01b0384169183156108fc02918491818181858888f1935050505015801561082b573d5f803e3d5ffd5b506108368383611733565b61083f836118fe565b5f83815260066020526040908190206005015490516001600160a01b0361010090920482169184169085907f344201ab2f1b413c381fe1cb1ae7d24db70f386bce6c330c4c705bba56d233fa906108a29086904290918252602082015260400190565b60405180910390a4505050565b6040516331a9108f60e11b8152600481018290523090636352211e90602401602060405180830381865afa925050508015610907575060408051601f3d908101601f1916820190925261090491810190612336565b60015b6109235760405162461bcd60e51b815260040161066f90612351565b505f81815260086020908152604080832033845290915290205460ff161515600114801561096157505f8181526006602052604090206005015460ff165b801561098557505f81815260066020526040902060050154600160a81b900460ff16155b8015610997575061099581611153565b155b6109b35760405162461bcd60e51b815260040161066f9061237e565b5f818152600660205260409020600501805460ff60a81b1916600160a81b17908190556001600160a01b03610100909104166109ee82610c33565b6001600160a01b0316827f86ea1596926f4e3b70b3169cd39eb59f8ada5f00ef929f33bdf925066cc52e8d42604051610a2991815260200190565b60405180910390a450565b60066020525f9081526040902080546001820154600283015460038401805493949293919291610a63906122fe565b80601f0160208091040260200160405190810160405280929190818152602001828054610a8f906122fe565b8015610ada5780601f10610ab157610100808354040283529160200191610ada565b820191905f5260205f20905b815481529060010190602001808311610abd57829003601f168201915b505050505090806004018054610aef906122fe565b80601f0160208091040260200160405190810160405280929190818152602001828054610b1b906122fe565b8015610b665780601f10610b3d57610100808354040283529160200191610b66565b820191905f5260205f20905b815481529060010190602001808311610b4957829003601f168201915b50505060058401546006850154600790950154939460ff808316956001600160a01b036101008504169550600160a81b840482169450600160b01b8404821693600160b81b900490911691908c565b600c602052815f5260405f208181548110610bce575f80fd5b5f918252602090912001546001600160a01b03169150829050565b610c0383838360405180602001604052805f815250611123565b505050565b600b602052815f5260405f208181548110610c21575f80fd5b905f5260205f20015f91509150505481565b5f61057f826115fc565b5f6001600160a01b038216610c67576040516322718ad960e21b81525f600482015260240161066f565b506001600160a01b03165f9081526003602052604090205490565b6040516331a9108f60e11b8152600481018290523090636352211e90602401602060405180830381865afa925050508015610cda575060408051601f3d908101601f19168201909252610cd791810190612336565b60015b610cf65760405162461bcd60e51b815260040161066f90612351565b505f81815260086020908152604080832033845290915290205460ff16158015610d3157505f8181526006602052604090206005015460ff16155b8015610d5557505f81815260066020526040902060050154600160a81b900460ff16155b8015610d675750610d6581611153565b155b610d835760405162461bcd60e51b815260040161066f9061237e565b5f81815260066020908152604080832060050180543361010081026001600160a81b0319909216919091176001908117909255808552600a84529184208054918201815584529190922001829055610dda82610c33565b6001600160a01b0316827f9678f981bcf017d96c4d9fb4124afb0d1c62735df0ad70bef9fd0f5c18bda4fb42604051610a2991815260200190565b606060018054610593906122fe565b610646338383611936565b5f85341015610e975760405162461bcd60e51b815260206004820152602e60248201527f4465646520656e7669617220656c2073616c6172696f20636f6d6f2076616c6f60448201526d722064656c20636f6e747261746f60901b606482015260840161066f565b600d8054905f610ea6836123c7565b9190505550610eb733600d546119d4565b5f610ec287346123df565b90508015610ef657604051339082156108fc029083905f818181858888f19350505050158015610ef4573d5f803e3d5ffd5b505b5f6040518061018001604052808981526020014289610f1591906123f2565b81526020808201899052604080830188905260608084018a90525f608085018190526001600160a01b038f1660a086015260c0850181905260e0850181905261010085018190526101208501819052610140909401849052600d54845260068352928190208451815591840151600183015583015160028201559082015191925082916003820190610fa79082612452565b5060808201516004820190610fbc9082612452565b5060a082015160058201805460c085015160e0860151610100808801516101208901516001600160a81b0319909516961515610100600160a81b031916969096176001600160a01b039384169091021761ffff60a81b1916600160a81b9115159190910260ff60b01b191617600160b01b941515949094029390931760ff60b81b1916600160b81b91151591909102179055610140830151600683015561016090920151600790910155600d80545f90815260086020908152604080832033808552908352818420805460ff191660019081179091556009845282852086548154808401835591875285872090910155958f16808552600b84528285208654815498890182559086529484902090960193909355925483519081529081018c90524292810192909252907f10eeb30b12e63eae3023c3999b0545d717e8af33edac7f4a0b70b130bfba33599060600160405180910390a35050600d54979650505050505050565b61112e84848461064a565b6106d284848484611a35565b600a602052815f5260405f208181548110610c21575f80fd5b6040516331a9108f60e11b8152600481018290525f903090636352211e90602401602060405180830381865afa9250505080156111ad575060408051601f3d908101601f191682019092526111aa91810190612336565b60015b6111c95760405162461bcd60e51b815260040161066f90612351565b505f82815260066020526040902060050154600160a81b900460ff1615156001036111f657506001919050565b5f82815260066020526040902060078101546002820154600190920154909161121e916123f2565b61122891906123f2565b42111561123757506001919050565b505f919050565b6060611249826115fc565b505f61125f60408051602081019091525f815290565b90505f81511161127d5760405180602001604052805f8152506112a8565b8061128784611b5b565b60405160200161129892919061250e565b6040516020818303038152906040525b9392505050565b6009602052815f5260405f208181548110610c21575f80fd5b6040516331a9108f60e11b8152600481018290523090636352211e90602401602060405180830381865afa925050508015611320575060408051601f3d908101601f1916820190925261131d91810190612336565b60015b61133c5760405162461bcd60e51b815260040161066f90612351565b505f8181526006602052604090206005015460ff16801561137557505f81815260066020526040902060050154600160b01b900460ff16155b801561139e57505f81815260086020908152604080832033845290915290205460ff1615156001145b80156113b457506113ae81611153565b15156001145b6113d05760405162461bcd60e51b815260040161066f9061237e565b5f818152600660205260408082206005810154905491516101009091046001600160a01b03169283916108fc84150291849190818181858888f1935050505015801561141e573d5f803e3d5ffd5b505f8381526006602052604090819020600501805460ff60b01b1916600160b01b179055516001600160a01b03831690339085907f4b5aadc9a65abf047bc2152ff605000b1dd64e7cb420aba7862457538885bfee906108a29086904290918252602082015260400190565b6001600160a01b039182165f90815260056020908152604080832093909416825291909152205460ff1690565b60076020525f90815260409020805481906114d1906122fe565b80601f01602080910402602001604051908101604052809291908181526020018280546114fd906122fe565b80156115485780601f1061151f57610100808354040283529160200191611548565b820191905f5260205f20905b81548152906001019060200180831161152b57829003601f168201915b505050505090806001015490806002015490806003018054611569906122fe565b80601f0160208091040260200160405190810160405280929190818152602001828054611595906122fe565b80156115e05780601f106115b7576101008083540402835291602001916115e0565b820191905f5260205f20905b8154815290600101906020018083116115c357829003601f168201915b5050506004909301549192505060ff8082169161010090041686565b5f818152600260205260408120546001600160a01b03168061057f57604051637e27328960e01b81526004810184905260240161066f565b610c038383836001611beb565b5f828152600260205260408120546001600160a01b039081169083161561166d5761166d818486611cef565b6001600160a01b038116156116a7576116885f855f80611beb565b6001600160a01b0381165f90815260036020526040902080545f190190555b6001600160a01b038516156116d5576001600160a01b0385165f908152600360205260409020805460010190555b5f8481526002602052604080822080546001600160a01b0319166001600160a01b0389811691821790925591518793918516917fddf252ad1be2c89b69c2b068fc378daa952ba7f163c4a11628f55a4df523b3ef91a4949350505050565b6040516331a9108f60e11b8152600481018390523090636352211e90602401602060405180830381865afa92505050801561178b575060408051601f3d908101601f1916820190925261178891810190612336565b60015b6117a75760405162461bcd60e51b815260040161066f90612351565b506001600160a01b0381165f9081526009602052604081205481906117ce906001906123df565b90505f5b6001600160a01b0384165f90815260096020526040902054811015611845576001600160a01b0384165f90815260096020526040902080548691908390811061181d5761181d61253c565b905f5260205f2001540361183357809250611845565b8061183d816123c7565b9150506117d2565b508082146118bf576001600160a01b0383165f9081526009602052604090208054829081106118765761187661253c565b905f5260205f20015460095f856001600160a01b03166001600160a01b031681526020019081526020015f2083815481106118b3576118b361253c565b5f918252602090912001555b6001600160a01b0383165f9081526009602052604090208054806118e5576118e5612550565b600190038181905f5260205f20015f9055905550505050565b5f61190a5f835f611641565b90506001600160a01b03811661064657604051637e27328960e01b81526004810183905260240161066f565b6001600160a01b03821661196857604051630b61174360e31b81526001600160a01b038316600482015260240161066f565b6001600160a01b038381165f81815260056020908152604080832094871680845294825291829020805460ff191686151590811790915591519182527f17307eab39ab6107e8899845ad3d59bd9653f200f220920489ca2b5937696c31910160405180910390a3505050565b6001600160a01b0382166119fd57604051633250574960e11b81525f600482015260240161066f565b5f611a0983835f611641565b90506001600160a01b03811615610c03576040516339e3563760e11b81525f600482015260240161066f565b6001600160a01b0383163b156106d257604051630a85bd0160e11b81526001600160a01b0384169063150b7a0290611a77903390889087908790600401612564565b6020604051808303815f875af1925050508015611ab1575060408051601f3d908101601f19168201909252611aae918101906125a0565b60015b611b18573d808015611ade576040519150601f19603f3d011682016040523d82523d5f602084013e611ae3565b606091505b5080515f03611b1057604051633250574960e11b81526001600160a01b038516600482015260240161066f565b805181602001fd5b6001600160e01b03198116630a85bd0160e11b14611b5457604051633250574960e11b81526001600160a01b038516600482015260240161066f565b5050505050565b60605f611b6783611d53565b60010190505f8167ffffffffffffffff811115611b8657611b866120db565b6040519080825280601f01601f191660200182016040528015611bb0576020820181803683370190505b5090508181016020015b5f19016f181899199a1a9b1b9c1cb0b131b232b360811b600a86061a8153600a8504945084611bba57509392505050565b8080611bff57506001600160a01b03821615155b15611cc0575f611c0e846115fc565b90506001600160a01b03831615801590611c3a5750826001600160a01b0316816001600160a01b031614155b8015611c4d5750611c4b818461148a565b155b15611c765760405163a9fbf51f60e01b81526001600160a01b038416600482015260240161066f565b8115611cbe5783856001600160a01b0316826001600160a01b03167f8c5be1e5ebec7d5bd14f71427d1e84f3dd0314c0f7b2291e5b200ac8c7c3b92560405160405180910390a45b505b50505f90815260046020526040902080546001600160a01b0319166001600160a01b0392909216919091179055565b611cfa838383611e2a565b610c03576001600160a01b038316611d2857604051637e27328960e01b81526004810182905260240161066f565b60405163177e802f60e01b81526001600160a01b03831660048201526024810182905260440161066f565b5f8072184f03e93ff9f4daa797ed6e38ed64bf6a1f0160401b8310611d915772184f03e93ff9f4daa797ed6e38ed64bf6a1f0160401b830492506040015b6d04ee2d6d415b85acef81000000008310611dbd576d04ee2d6d415b85acef8100000000830492506020015b662386f26fc100008310611ddb57662386f26fc10000830492506010015b6305f5e1008310611df3576305f5e100830492506008015b6127108310611e0757612710830492506004015b60648310611e19576064830492506002015b600a831061057f5760010192915050565b5f6001600160a01b03831615801590611e865750826001600160a01b0316846001600160a01b03161480611e635750611e63848461148a565b80611e8657505f828152600460205260409020546001600160a01b038481169116145b949350505050565b6001600160e01b031981168114611ea3575f80fd5b50565b5f60208284031215611eb6575f80fd5b81356112a881611e8e565b5f5b83811015611edb578181015183820152602001611ec3565b50505f910152565b5f8151808452611efa816020860160208601611ec1565b601f01601f19169290920160200192915050565b602081525f6112a86020830184611ee3565b5f60208284031215611f30575f80fd5b5035919050565b6001600160a01b0381168114611ea3575f80fd5b5f8060408385031215611f5c575f80fd5b8235611f6781611f37565b946020939093013593505050565b5f805f60608486031215611f87575f80fd5b8335611f9281611f37565b92506020840135611fa281611f37565b929592945050506040919091013590565b5f8060408385031215611fc4575f80fd5b823591506020830135611fd681611f37565b809150509250929050565b5f6101808e83528d60208401528c60408401528060608401526120068184018d611ee3565b9050828103608084015261201a818c611ee3565b8a151560a08501526001600160a01b038a1660c085015288151560e085015287151561010085015286151561012085015291506120549050565b61014082019390935261016001529a9950505050505050505050565b5f8060408385031215612081575f80fd5b50508035926020909101359150565b5f602082840312156120a0575f80fd5b81356112a881611f37565b5f80604083850312156120bc575f80fd5b82356120c781611f37565b915060208301358015158114611fd6575f80fd5b634e487b7160e01b5f52604160045260245ffd5b5f67ffffffffffffffff80841115612109576121096120db565b604051601f8501601f19908116603f01168101908282118183101715612131576121316120db565b81604052809350858152868686011115612149575f80fd5b858560208301375f602087830101525050509392505050565b5f82601f830112612171575f80fd5b6112a8838335602085016120ef565b5f805f805f8060c08789031215612195575f80fd5b86356121a081611f37565b9550602087013594506040870135935060608701359250608087013567ffffffffffffffff808211156121d1575f80fd5b6121dd8a838b01612162565b935060a08901359150808211156121f2575f80fd5b506121ff89828a01612162565b9150509295509295509295565b5f805f806080858703121561221f575f80fd5b843561222a81611f37565b9350602085013561223a81611f37565b925060408501359150606085013567ffffffffffffffff81111561225c575f80fd5b8501601f8101871361226c575f80fd5b61227b878235602084016120ef565b91505092959194509250565b5f8060408385031215612298575f80fd5b82356122a381611f37565b91506020830135611fd681611f37565b60c081525f6122c560c0830189611ee3565b87602084015286604084015282810360608401526122e38187611ee3565b9415156080840152505090151560a090910152949350505050565b600181811c9082168061231257607f821691505b60208210810361233057634e487b7160e01b5f52602260045260245ffd5b50919050565b5f60208284031215612346575f80fd5b81516112a881611f37565b60208082526013908201527222b6103a37b5b2b71037379032bc34b9ba329760691b604082015260600190565b6020808252818101527f4572726f723a20636f6e646963696f6e6573206e6f2063756d706c696461732e604082015260600190565b634e487b7160e01b5f52601160045260245ffd5b5f600182016123d8576123d86123b3565b5060010190565b8181038181111561057f5761057f6123b3565b8082018082111561057f5761057f6123b3565b601f821115610c03575f81815260208120601f850160051c8101602086101561242b5750805b601f850160051c820191505b8181101561244a57828155600101612437565b505050505050565b815167ffffffffffffffff81111561246c5761246c6120db565b6124808161247a84546122fe565b84612405565b602080601f8311600181146124b3575f841561249c5750858301515b5f19600386901b1c1916600185901b17855561244a565b5f85815260208120601f198616915b828110156124e1578886015182559484019460019091019084016124c2565b50858210156124fe57878501515f19600388901b60f8161c191681555b5050505050600190811b01905550565b5f835161251f818460208801611ec1565b835190830190612533818360208801611ec1565b01949350505050565b634e487b7160e01b5f52603260045260245ffd5b634e487b7160e01b5f52603160045260245ffd5b6001600160a01b03858116825284166020820152604081018390526080606082018190525f9061259690830184611ee3565b9695505050505050565b5f602082840312156125b0575f80fd5b81516112a881611e8e56fea2646970667358221220ac06a03c4e7a9123969f74212ff8e0792093ad0851dd8e5306b0625058cf62c264736f6c63430008140033",
  "immutableReferences": {},
  "source": "// SPDX-License-Identifier: MIT\r\npragma solidity ^0.8.20;\r\n\r\nimport \"./MyContract.sol\";\r\n\r\ncontract MyContractManagement is MyContract {\r\n    event SalaryReleased(\r\n        uint256 indexed tokenId,\r\n        uint256 salary,\r\n        address indexed employer,\r\n        address indexed worker,\r\n        uint256 timestamp\r\n    );\r\n\r\n    event TokenMinted(\r\n        uint256 tokenId,\r\n        address indexed employer,\r\n        address indexed worker,\r\n        uint256 salary,\r\n        uint256 timestamp\r\n    );\r\n\r\n    event ContractCancelled(\r\n        uint256 indexed tokenId,\r\n        address indexed employer,\r\n        address indexed worker,\r\n        uint256 salary,\r\n        uint256 timestamp\r\n    );\r\n\r\n    event ContractSigned(\r\n        uint256 indexed tokenId,\r\n        address indexed employer,\r\n        address indexed worker,\r\n        uint256 timestamp\r\n    );\r\n\r\n    event ContractFinalized(\r\n        uint256 indexed tokenId,\r\n        address indexed employer,\r\n        address indexed worker,\r\n        uint256 timestamp\r\n    );\r\n\r\n    function mint(\r\n        address _to,\r\n        uint256 _salary,\r\n        uint256 _start,\r\n        uint256 _duration,\r\n        string memory _description,\r\n        string memory _title\r\n    ) public payable returns (uint256) {\r\n        require(\r\n            msg.value >= _salary,\r\n            \"Dede enviar el salario como valor del contrato\"\r\n        );\r\n        tokenID++;\r\n        _mint(msg.sender, tokenID);\r\n        uint256 remainder = msg.value - _salary;\r\n        if (remainder > 0) {\r\n            payable(msg.sender).transfer(remainder);\r\n        }\r\n\r\n        ContractDetails memory newContract = ContractDetails({\r\n            salary: _salary,\r\n            startDate: _start + block.timestamp,\r\n            duration: _duration,\r\n            title: _title,\r\n            description: _description,\r\n            isSigned: false,\r\n            worker: _to,\r\n            isFinished: false,\r\n            isReleased: false,\r\n            isPaused: false,\r\n            pauseTime: 0,\r\n            pauseDuration: 0\r\n        });\r\n\r\n        contractDetails[tokenID] = newContract;\r\n        tokenManagers[tokenID][msg.sender] = true;\r\n        contractsOwner[msg.sender].push(tokenID);\r\n        unsignedContractsOfWorker[_to].push(tokenID);\r\n\r\n        emit TokenMinted(tokenID, msg.sender, _to, _salary, block.timestamp);\r\n        return tokenID;\r\n    }\r\n\r\n    function signContract(uint256 _tokenID) public {\r\n        try this.ownerOf(_tokenID) {} catch {\r\n            revert(\"El token no existe.\");\r\n        }\r\n        require(\r\n            tokenManagers[_tokenID][msg.sender] == false &&\r\n                !contractDetails[_tokenID].isSigned &&\r\n                contractDetails[_tokenID].isFinished == false &&\r\n                isContractFinished(_tokenID) == false,\r\n            \"Error: condiciones no cumplidas.\"\r\n        );\r\n\r\n        contractDetails[_tokenID].isSigned = true;\r\n        contractDetails[_tokenID].worker = msg.sender;\r\n        activeContractsOfWorker[msg.sender].push(_tokenID);\r\n\r\n        emit ContractSigned(\r\n            _tokenID,\r\n            ownerOf(_tokenID),\r\n            msg.sender,\r\n            block.timestamp\r\n        );\r\n    }\r\n\r\n    function releaseSalary(uint256 _tokenID) public payable {\r\n        try this.ownerOf(_tokenID) {} catch {\r\n            revert(\"El token no existe.\");\r\n        }\r\n        require(\r\n            contractDetails[_tokenID].isSigned &&\r\n                contractDetails[_tokenID].isReleased == false &&\r\n                tokenManagers[_tokenID][msg.sender] == true &&\r\n                isContractFinished(_tokenID) == true,\r\n            \"Error: condiciones no cumplidas.\"\r\n        );\r\n\r\n        address payable worker = payable(contractDetails[_tokenID].worker);\r\n        uint256 salary = contractDetails[_tokenID].salary;\r\n        worker.transfer(salary);\r\n        contractDetails[_tokenID].isReleased = true;\r\n\r\n        emit SalaryReleased(\r\n            _tokenID,\r\n            salary,\r\n            msg.sender,\r\n            worker,\r\n            block.timestamp\r\n        );\r\n    }\r\n\r\n    function finalizeContract(uint256 _tokenID) public {\r\n        try this.ownerOf(_tokenID) {} catch {\r\n            revert(\"El token no existe.\");\r\n        }\r\n        require(\r\n            tokenManagers[_tokenID][msg.sender] == true &&\r\n                contractDetails[_tokenID].isSigned &&\r\n                contractDetails[_tokenID].isFinished == false &&\r\n                isContractFinished(_tokenID) == false,\r\n            \"Error: condiciones no cumplidas.\"\r\n        );\r\n\r\n        contractDetails[_tokenID].isFinished = true;\r\n        emit ContractFinalized(\r\n            _tokenID,\r\n            ownerOf(_tokenID),\r\n            contractDetails[_tokenID].worker,\r\n            block.timestamp\r\n        );\r\n    }\r\n\r\n    function cancelContract(uint256 _tokenID) public {\r\n        try this.ownerOf(_tokenID) {} catch {\r\n            revert(\"El token no existe.\");\r\n        }\r\n        require(\r\n            tokenManagers[_tokenID][msg.sender] == true &&\r\n                !contractDetails[_tokenID].isSigned &&\r\n                contractDetails[_tokenID].isFinished == false &&\r\n                isContractFinished(_tokenID) == false,\r\n            \"Error: condiciones no cumplidas.\"\r\n        );\r\n\r\n        address payable owner = payable(ownerOf(_tokenID));\r\n        uint256 salary = contractDetails[_tokenID].salary;\r\n        owner.transfer(salary);\r\n        removeContractFromOwner(_tokenID, owner);\r\n        _burn(_tokenID);\r\n\r\n        emit ContractCancelled(\r\n            _tokenID,\r\n            owner,\r\n            contractDetails[_tokenID].worker,\r\n            salary,\r\n            block.timestamp\r\n        );\r\n    }\r\n}\r\n",
  "sourcePath": "E:\\ubu-contractme\\Code\\SmartContract\\contracts\\MyContractManagement.sol",
  "compiler": {
    "name": "solc",
    "version": "0.8.20+commit.a1b79de6.Emscripten.clang"
  },
  "schemaVersion": "3.4.16",
  "updatedAt": "2024-06-06T16:33:36.794Z",
  "devdoc": {
    "errors": {
      "ERC721IncorrectOwner(address,uint256,address)": [
        {
          "details": "Indicates an error related to the ownership over a particular token. Used in transfers.",
          "params": {
            "owner": "Address of the current owner of a token.",
            "sender": "Address whose tokens are being transferred.",
            "tokenId": "Identifier number of a token."
          }
        }
      ],
      "ERC721InsufficientApproval(address,uint256)": [
        {
          "details": "Indicates a failure with the `operator`s approval. Used in transfers.",
          "params": {
            "operator": "Address that may be allowed to operate on tokens without being their owner.",
            "tokenId": "Identifier number of a token."
          }
        }
      ],
      "ERC721InvalidApprover(address)": [
        {
          "details": "Indicates a failure with the `approver` of a token to be approved. Used in approvals.",
          "params": {
            "approver": "Address initiating an approval operation."
          }
        }
      ],
      "ERC721InvalidOperator(address)": [
        {
          "details": "Indicates a failure with the `operator` to be approved. Used in approvals.",
          "params": {
            "operator": "Address that may be allowed to operate on tokens without being their owner."
          }
        }
      ],
      "ERC721InvalidOwner(address)": [
        {
          "details": "Indicates that an address can't be an owner. For example, `address(0)` is a forbidden owner in EIP-20. Used in balance queries.",
          "params": {
            "owner": "Address of the current owner of a token."
          }
        }
      ],
      "ERC721InvalidReceiver(address)": [
        {
          "details": "Indicates a failure with the token `receiver`. Used in transfers.",
          "params": {
            "receiver": "Address to which tokens are being transferred."
          }
        }
      ],
      "ERC721InvalidSender(address)": [
        {
          "details": "Indicates a failure with the token `sender`. Used in transfers.",
          "params": {
            "sender": "Address whose tokens are being transferred."
          }
        }
      ],
      "ERC721NonexistentToken(uint256)": [
        {
          "details": "Indicates a `tokenId` whose `owner` is the zero address.",
          "params": {
            "tokenId": "Identifier number of a token."
          }
        }
      ]
    },
    "events": {
      "Approval(address,address,uint256)": {
        "details": "Emitted when `owner` enables `approved` to manage the `tokenId` token."
      },
      "ApprovalForAll(address,address,bool)": {
        "details": "Emitted when `owner` enables or disables (`approved`) `operator` to manage all of its assets."
      },
      "Transfer(address,address,uint256)": {
        "details": "Emitted when `tokenId` token is transferred from `from` to `to`."
      }
    },
    "kind": "dev",
    "methods": {
      "approve(address,uint256)": {
        "details": "See {IERC721-approve}."
      },
      "balanceOf(address)": {
        "details": "See {IERC721-balanceOf}."
      },
      "getApproved(uint256)": {
        "details": "See {IERC721-getApproved}."
      },
      "isApprovedForAll(address,address)": {
        "details": "See {IERC721-isApprovedForAll}."
      },
      "name()": {
        "details": "See {IERC721Metadata-name}."
      },
      "ownerOf(uint256)": {
        "details": "See {IERC721-ownerOf}."
      },
      "safeTransferFrom(address,address,uint256)": {
        "details": "See {IERC721-safeTransferFrom}."
      },
      "safeTransferFrom(address,address,uint256,bytes)": {
        "details": "See {IERC721-safeTransferFrom}."
      },
      "setApprovalForAll(address,bool)": {
        "details": "See {IERC721-setApprovalForAll}."
      },
      "supportsInterface(bytes4)": {
        "details": "See {IERC165-supportsInterface}."
      },
      "symbol()": {
        "details": "See {IERC721Metadata-symbol}."
      },
      "tokenURI(uint256)": {
        "details": "See {IERC721Metadata-tokenURI}."
      },
      "transferFrom(address,address,uint256)": {
        "details": "See {IERC721-transferFrom}."
      }
    },
    "version": 1
  },
  "userdoc": {
    "kind": "user",
    "methods": {},
    "version": 1
  }
}