{
  "contractName": "MyContractManagement",
  "abi": [
    {
      "inputs": [
        {
          "internalType": "address",
          "name": "sender",
          "type": "address"
        },
        {
          "internalType": "uint256",
          "name": "tokenId",
          "type": "uint256"
        },
        {
          "internalType": "address",
          "name": "owner",
          "type": "address"
        }
      ],
      "name": "ERC721IncorrectOwner",
      "type": "error"
    },
    {
      "inputs": [
        {
          "internalType": "address",
          "name": "operator",
          "type": "address"
        },
        {
          "internalType": "uint256",
          "name": "tokenId",
          "type": "uint256"
        }
      ],
      "name": "ERC721InsufficientApproval",
      "type": "error"
    },
    {
      "inputs": [
        {
          "internalType": "address",
          "name": "approver",
          "type": "address"
        }
      ],
      "name": "ERC721InvalidApprover",
      "type": "error"
    },
    {
      "inputs": [
        {
          "internalType": "address",
          "name": "operator",
          "type": "address"
        }
      ],
      "name": "ERC721InvalidOperator",
      "type": "error"
    },
    {
      "inputs": [
        {
          "internalType": "address",
          "name": "owner",
          "type": "address"
        }
      ],
      "name": "ERC721InvalidOwner",
      "type": "error"
    },
    {
      "inputs": [
        {
          "internalType": "address",
          "name": "receiver",
          "type": "address"
        }
      ],
      "name": "ERC721InvalidReceiver",
      "type": "error"
    },
    {
      "inputs": [
        {
          "internalType": "address",
          "name": "sender",
          "type": "address"
        }
      ],
      "name": "ERC721InvalidSender",
      "type": "error"
    },
    {
      "inputs": [
        {
          "internalType": "uint256",
          "name": "tokenId",
          "type": "uint256"
        }
      ],
      "name": "ERC721NonexistentToken",
      "type": "error"
    },
    {
      "anonymous": false,
      "inputs": [
        {
          "indexed": true,
          "internalType": "address",
          "name": "owner",
          "type": "address"
        },
        {
          "indexed": true,
          "internalType": "address",
          "name": "approved",
          "type": "address"
        },
        {
          "indexed": true,
          "internalType": "uint256",
          "name": "tokenId",
          "type": "uint256"
        }
      ],
      "name": "Approval",
      "type": "event"
    },
    {
      "anonymous": false,
      "inputs": [
        {
          "indexed": true,
          "internalType": "address",
          "name": "owner",
          "type": "address"
        },
        {
          "indexed": true,
          "internalType": "address",
          "name": "operator",
          "type": "address"
        },
        {
          "indexed": false,
          "internalType": "bool",
          "name": "approved",
          "type": "bool"
        }
      ],
      "name": "ApprovalForAll",
      "type": "event"
    },
    {
      "anonymous": false,
      "inputs": [
        {
          "indexed": true,
          "internalType": "uint256",
          "name": "tokenId",
          "type": "uint256"
        },
        {
          "indexed": true,
          "internalType": "address",
          "name": "employer",
          "type": "address"
        },
        {
          "indexed": true,
          "internalType": "address",
          "name": "worker",
          "type": "address"
        },
        {
          "indexed": false,
          "internalType": "uint256",
          "name": "salary",
          "type": "uint256"
        },
        {
          "indexed": false,
          "internalType": "uint256",
          "name": "timestamp",
          "type": "uint256"
        }
      ],
      "name": "ContractCancelled",
      "type": "event"
    },
    {
      "anonymous": false,
      "inputs": [
        {
          "indexed": true,
          "internalType": "uint256",
          "name": "tokenId",
          "type": "uint256"
        },
        {
          "indexed": true,
          "internalType": "address",
          "name": "employer",
          "type": "address"
        },
        {
          "indexed": true,
          "internalType": "address",
          "name": "worker",
          "type": "address"
        },
        {
          "indexed": false,
          "internalType": "uint256",
          "name": "timestamp",
          "type": "uint256"
        }
      ],
      "name": "ContractFinalized",
      "type": "event"
    },
    {
      "anonymous": false,
      "inputs": [
        {
          "indexed": true,
          "internalType": "uint256",
          "name": "tokenId",
          "type": "uint256"
        },
        {
          "indexed": true,
          "internalType": "address",
          "name": "employer",
          "type": "address"
        },
        {
          "indexed": true,
          "internalType": "address",
          "name": "worker",
          "type": "address"
        },
        {
          "indexed": false,
          "internalType": "uint256",
          "name": "timestamp",
          "type": "uint256"
        }
      ],
      "name": "ContractSigned",
      "type": "event"
    },
    {
      "anonymous": false,
      "inputs": [
        {
          "indexed": true,
          "internalType": "uint256",
          "name": "tokenId",
          "type": "uint256"
        },
        {
          "indexed": false,
          "internalType": "uint256",
          "name": "salary",
          "type": "uint256"
        },
        {
          "indexed": true,
          "internalType": "address",
          "name": "employer",
          "type": "address"
        },
        {
          "indexed": true,
          "internalType": "address",
          "name": "worker",
          "type": "address"
        },
        {
          "indexed": false,
          "internalType": "uint256",
          "name": "timestamp",
          "type": "uint256"
        }
      ],
      "name": "SalaryReleased",
      "type": "event"
    },
    {
      "anonymous": false,
      "inputs": [
        {
          "indexed": false,
          "internalType": "uint256",
          "name": "tokenId",
          "type": "uint256"
        },
        {
          "indexed": true,
          "internalType": "address",
          "name": "employer",
          "type": "address"
        },
        {
          "indexed": true,
          "internalType": "address",
          "name": "worker",
          "type": "address"
        },
        {
          "indexed": false,
          "internalType": "uint256",
          "name": "salary",
          "type": "uint256"
        },
        {
          "indexed": false,
          "internalType": "uint256",
          "name": "timestamp",
          "type": "uint256"
        }
      ],
      "name": "TokenMinted",
      "type": "event"
    },
    {
      "anonymous": false,
      "inputs": [
        {
          "indexed": true,
          "internalType": "address",
          "name": "from",
          "type": "address"
        },
        {
          "indexed": true,
          "internalType": "address",
          "name": "to",
          "type": "address"
        },
        {
          "indexed": true,
          "internalType": "uint256",
          "name": "tokenId",
          "type": "uint256"
        }
      ],
      "name": "Transfer",
      "type": "event"
    },
    {
      "inputs": [
        {
          "internalType": "address",
          "name": "",
          "type": "address"
        },
        {
          "internalType": "uint256",
          "name": "",
          "type": "uint256"
        }
      ],
      "name": "activeContractsOfWorker",
      "outputs": [
        {
          "internalType": "uint256",
          "name": "",
          "type": "uint256"
        }
      ],
      "stateMutability": "view",
      "type": "function"
    },
    {
      "inputs": [
        {
          "internalType": "address",
          "name": "to",
          "type": "address"
        },
        {
          "internalType": "uint256",
          "name": "tokenId",
          "type": "uint256"
        }
      ],
      "name": "approve",
      "outputs": [],
      "stateMutability": "nonpayable",
      "type": "function"
    },
    {
      "inputs": [
        {
          "internalType": "address",
          "name": "owner",
          "type": "address"
        }
      ],
      "name": "balanceOf",
      "outputs": [
        {
          "internalType": "uint256",
          "name": "",
          "type": "uint256"
        }
      ],
      "stateMutability": "view",
      "type": "function"
    },
    {
      "inputs": [
        {
          "internalType": "uint256",
          "name": "",
          "type": "uint256"
        }
      ],
      "name": "changeProposals",
      "outputs": [
        {
          "internalType": "string",
          "name": "newTitle",
          "type": "string"
        },
        {
          "internalType": "uint256",
          "name": "newSalary",
          "type": "uint256"
        },
        {
          "internalType": "uint256",
          "name": "newDuration",
          "type": "uint256"
        },
        {
          "internalType": "string",
          "name": "newDescription",
          "type": "string"
        },
        {
          "internalType": "bool",
          "name": "isPaused",
          "type": "bool"
        },
        {
          "internalType": "bool",
          "name": "isPending",
          "type": "bool"
        }
      ],
      "stateMutability": "view",
      "type": "function"
    },
    {
      "inputs": [
        {
          "internalType": "uint256",
          "name": "",
          "type": "uint256"
        }
      ],
      "name": "contractDetails",
      "outputs": [
        {
          "internalType": "uint256",
          "name": "salary",
          "type": "uint256"
        },
        {
          "internalType": "uint256",
          "name": "startDate",
          "type": "uint256"
        },
        {
          "internalType": "uint256",
          "name": "duration",
          "type": "uint256"
        },
        {
          "internalType": "string",
          "name": "title",
          "type": "string"
        },
        {
          "internalType": "string",
          "name": "description",
          "type": "string"
        },
        {
          "internalType": "string",
          "name": "country",
          "type": "string"
        },
        {
          "internalType": "string",
          "name": "city",
          "type": "string"
        },
        {
          "internalType": "bool",
          "name": "isSigned",
          "type": "bool"
        },
        {
          "internalType": "address",
          "name": "worker",
          "type": "address"
        },
        {
          "internalType": "bool",
          "name": "isFinished",
          "type": "bool"
        },
        {
          "internalType": "bool",
          "name": "isReleased",
          "type": "bool"
        },
        {
          "internalType": "bool",
          "name": "isPaused",
          "type": "bool"
        },
        {
          "internalType": "uint256",
          "name": "pauseTime",
          "type": "uint256"
        },
        {
          "internalType": "uint256",
          "name": "pauseDuration",
          "type": "uint256"
        }
      ],
      "stateMutability": "view",
      "type": "function"
    },
    {
      "inputs": [
        {
          "internalType": "address",
          "name": "",
          "type": "address"
        },
        {
          "internalType": "uint256",
          "name": "",
          "type": "uint256"
        }
      ],
      "name": "contractsOwner",
      "outputs": [
        {
          "internalType": "uint256",
          "name": "",
          "type": "uint256"
        }
      ],
      "stateMutability": "view",
      "type": "function"
    },
    {
      "inputs": [
        {
          "internalType": "uint256",
          "name": "tokenId",
          "type": "uint256"
        }
      ],
      "name": "getApproved",
      "outputs": [
        {
          "internalType": "address",
          "name": "",
          "type": "address"
        }
      ],
      "stateMutability": "view",
      "type": "function"
    },
    {
      "inputs": [
        {
          "internalType": "address",
          "name": "owner",
          "type": "address"
        },
        {
          "internalType": "address",
          "name": "operator",
          "type": "address"
        }
      ],
      "name": "isApprovedForAll",
      "outputs": [
        {
          "internalType": "bool",
          "name": "",
          "type": "bool"
        }
      ],
      "stateMutability": "view",
      "type": "function"
    },
    {
      "inputs": [
        {
          "internalType": "uint256",
          "name": "_tokenID",
          "type": "uint256"
        }
      ],
      "name": "isContractFinished",
      "outputs": [
        {
          "internalType": "bool",
          "name": "",
          "type": "bool"
        }
      ],
      "stateMutability": "view",
      "type": "function"
    },
    {
      "inputs": [],
      "name": "name",
      "outputs": [
        {
          "internalType": "string",
          "name": "",
          "type": "string"
        }
      ],
      "stateMutability": "view",
      "type": "function"
    },
    {
      "inputs": [
        {
          "internalType": "uint256",
          "name": "tokenId",
          "type": "uint256"
        }
      ],
      "name": "ownerOf",
      "outputs": [
        {
          "internalType": "address",
          "name": "",
          "type": "address"
        }
      ],
      "stateMutability": "view",
      "type": "function"
    },
    {
      "inputs": [
        {
          "internalType": "address",
          "name": "from",
          "type": "address"
        },
        {
          "internalType": "address",
          "name": "to",
          "type": "address"
        },
        {
          "internalType": "uint256",
          "name": "tokenId",
          "type": "uint256"
        }
      ],
      "name": "safeTransferFrom",
      "outputs": [],
      "stateMutability": "nonpayable",
      "type": "function"
    },
    {
      "inputs": [
        {
          "internalType": "address",
          "name": "from",
          "type": "address"
        },
        {
          "internalType": "address",
          "name": "to",
          "type": "address"
        },
        {
          "internalType": "uint256",
          "name": "tokenId",
          "type": "uint256"
        },
        {
          "internalType": "bytes",
          "name": "data",
          "type": "bytes"
        }
      ],
      "name": "safeTransferFrom",
      "outputs": [],
      "stateMutability": "nonpayable",
      "type": "function"
    },
    {
      "inputs": [
        {
          "internalType": "address",
          "name": "operator",
          "type": "address"
        },
        {
          "internalType": "bool",
          "name": "approved",
          "type": "bool"
        }
      ],
      "name": "setApprovalForAll",
      "outputs": [],
      "stateMutability": "nonpayable",
      "type": "function"
    },
    {
      "inputs": [
        {
          "internalType": "bytes4",
          "name": "interfaceId",
          "type": "bytes4"
        }
      ],
      "name": "supportsInterface",
      "outputs": [
        {
          "internalType": "bool",
          "name": "",
          "type": "bool"
        }
      ],
      "stateMutability": "view",
      "type": "function"
    },
    {
      "inputs": [],
      "name": "symbol",
      "outputs": [
        {
          "internalType": "string",
          "name": "",
          "type": "string"
        }
      ],
      "stateMutability": "view",
      "type": "function"
    },
    {
      "inputs": [],
      "name": "tokenID",
      "outputs": [
        {
          "internalType": "uint256",
          "name": "",
          "type": "uint256"
        }
      ],
      "stateMutability": "view",
      "type": "function"
    },
    {
      "inputs": [
        {
          "internalType": "uint256",
          "name": "",
          "type": "uint256"
        },
        {
          "internalType": "address",
          "name": "",
          "type": "address"
        }
      ],
      "name": "tokenManagers",
      "outputs": [
        {
          "internalType": "bool",
          "name": "",
          "type": "bool"
        }
      ],
      "stateMutability": "view",
      "type": "function"
    },
    {
      "inputs": [
        {
          "internalType": "uint256",
          "name": "",
          "type": "uint256"
        },
        {
          "internalType": "uint256",
          "name": "",
          "type": "uint256"
        }
      ],
      "name": "tokenManagersList",
      "outputs": [
        {
          "internalType": "address",
          "name": "",
          "type": "address"
        }
      ],
      "stateMutability": "view",
      "type": "function"
    },
    {
      "inputs": [
        {
          "internalType": "uint256",
          "name": "tokenId",
          "type": "uint256"
        }
      ],
      "name": "tokenURI",
      "outputs": [
        {
          "internalType": "string",
          "name": "",
          "type": "string"
        }
      ],
      "stateMutability": "view",
      "type": "function"
    },
    {
      "inputs": [
        {
          "internalType": "address",
          "name": "from",
          "type": "address"
        },
        {
          "internalType": "address",
          "name": "to",
          "type": "address"
        },
        {
          "internalType": "uint256",
          "name": "tokenId",
          "type": "uint256"
        }
      ],
      "name": "transferFrom",
      "outputs": [],
      "stateMutability": "nonpayable",
      "type": "function"
    },
    {
      "inputs": [
        {
          "internalType": "address",
          "name": "",
          "type": "address"
        },
        {
          "internalType": "uint256",
          "name": "",
          "type": "uint256"
        }
      ],
      "name": "unsignedContractsOfWorker",
      "outputs": [
        {
          "internalType": "uint256",
          "name": "",
          "type": "uint256"
        }
      ],
      "stateMutability": "view",
      "type": "function"
    },
    {
      "inputs": [
        {
          "internalType": "address",
          "name": "_to",
          "type": "address"
        },
        {
          "internalType": "uint256",
          "name": "_salary",
          "type": "uint256"
        },
        {
          "internalType": "uint256",
          "name": "_start",
          "type": "uint256"
        },
        {
          "internalType": "uint256",
          "name": "_duration",
          "type": "uint256"
        },
        {
          "internalType": "string",
          "name": "_description",
          "type": "string"
        },
        {
          "internalType": "string",
          "name": "_title",
          "type": "string"
        },
        {
          "internalType": "string",
          "name": "_country",
          "type": "string"
        },
        {
          "internalType": "string",
          "name": "_city",
          "type": "string"
        }
      ],
      "name": "mint",
      "outputs": [
        {
          "internalType": "uint256",
          "name": "",
          "type": "uint256"
        }
      ],
      "stateMutability": "payable",
      "type": "function"
    },
    {
      "inputs": [
        {
          "internalType": "uint256",
          "name": "_tokenID",
          "type": "uint256"
        }
      ],
      "name": "signContract",
      "outputs": [],
      "stateMutability": "nonpayable",
      "type": "function"
    },
    {
      "inputs": [
        {
          "internalType": "uint256",
          "name": "_tokenID",
          "type": "uint256"
        }
      ],
      "name": "releaseSalary",
      "outputs": [],
      "stateMutability": "payable",
      "type": "function"
    },
    {
      "inputs": [
        {
          "internalType": "uint256",
          "name": "_tokenID",
          "type": "uint256"
        }
      ],
      "name": "finalizeContract",
      "outputs": [],
      "stateMutability": "nonpayable",
      "type": "function"
    },
    {
      "inputs": [
        {
          "internalType": "uint256",
          "name": "_tokenID",
          "type": "uint256"
        }
      ],
      "name": "cancelContract",
      "outputs": [],
      "stateMutability": "nonpayable",
      "type": "function"
    }
  ],
  "bytecode": "0x608060405234801562000010575f80fd5b506040518060400160405280600781526020016626bcaa37b5b2b760c91b815250604051806040016040528060038152602001624d544b60e81b815250815f90816200005d919062000115565b5060016200006c828262000115565b505050620001dd565b634e487b7160e01b5f52604160045260245ffd5b600181811c908216806200009e57607f821691505b602082108103620000bd57634e487b7160e01b5f52602260045260245ffd5b50919050565b601f82111562000110575f81815260208120601f850160051c81016020861015620000eb5750805b601f850160051c820191505b818110156200010c57828155600101620000f7565b5050505b505050565b81516001600160401b0381111562000131576200013162000075565b620001498162000142845462000089565b84620000c3565b602080601f8311600181146200017f575f8415620001675750858301515b5f19600386901b1c1916600185901b1785556200010c565b5f85815260208120601f198616915b82811015620001af578886015182559484019460019091019084016200018e565b5085821015620001cd57878501515f19600388901b60f8161c191681555b5050505050600190811b01905550565b61287980620001eb5f395ff3fe608060405260043610610195575f3560e01c80636352211e116100e7578063bc3a8e9e11610087578063e1b1462011610062578063e1b14620146104b4578063e2c07c7b146104d3578063e985e9c5146104e6578063fc5a4efe14610505575f80fd5b8063bc3a8e9e14610457578063bce8715614610476578063c87b56dd14610495575f80fd5b806395d89b41116100c257806395d89b41146103f0578063a22cb46514610404578063a5c42ef114610423578063b88d4fde14610438575f80fd5b80636352211e1461039357806370a08231146103b25780639537e8d1146103d1575f80fd5b80632907eb161161015257806336a2d6f51161012d57806336a2d6f51461031557806342842e0e1461033457806345f184601461035357806353eb61b214610380575f80fd5b80632907eb1614610284578063294a7931146102a35780633330a55f146102dc575f80fd5b806301ffc9a71461019957806306fdde03146101cd578063081812fc146101ee578063095ea7b31461022557806323b872dd146102465780632804745014610265575b5f80fd5b3480156101a4575f80fd5b506101b86101b33660046120b0565b610536565b60405190151581526020015b60405180910390f35b3480156101d8575f80fd5b506101e1610587565b6040516101c49190612118565b3480156101f9575f80fd5b5061020d61020836600461212a565b610616565b6040516001600160a01b0390911681526020016101c4565b348015610230575f80fd5b5061024461023f366004612165565b61063d565b005b348015610251575f80fd5b5061024461026036600461218f565b61064c565b348015610270575f80fd5b5061024461027f36600461212a565b6106da565b34801561028f575f80fd5b5061024461029e36600461212a565b6108b1565b3480156102ae575f80fd5b506101b86102bd3660046121cd565b600860209081525f928352604080842090915290825290205460ff1681565b3480156102e7575f80fd5b506102fb6102f636600461212a565b610a36565b6040516101c49e9d9c9b9a999897969594939291906121fb565b348015610320575f80fd5b5061020d61032f3660046122b2565b610ccf565b34801561033f575f80fd5b5061024461034e36600461218f565b610d03565b34801561035e575f80fd5b5061037261036d366004612165565b610d22565b6040519081526020016101c4565b61037261038e366004612377565b610d4d565b34801561039e575f80fd5b5061020d6103ad36600461212a565b611131565b3480156103bd575f80fd5b506103726103cc366004612449565b61113b565b3480156103dc575f80fd5b506102446103eb36600461212a565b611180565b3480156103fb575f80fd5b506101e1611313565b34801561040f575f80fd5b5061024461041e366004612464565b611322565b34801561042e575f80fd5b50610372600d5481565b348015610443575f80fd5b50610244610452366004612494565b61132d565b348015610462575f80fd5b50610372610471366004612165565b611344565b348015610481575f80fd5b506101b861049036600461212a565b61135d565b3480156104a0575f80fd5b506101e16104af36600461212a565b611448565b3480156104bf575f80fd5b506103726104ce366004612165565b6114b9565b6102446104e136600461212a565b6114d2565b3480156104f1575f80fd5b506101b861050036600461250f565b611694565b348015610510575f80fd5b5061052461051f36600461212a565b6116c1565b6040516101c49695949392919061253b565b5f6001600160e01b031982166380ac58cd60e01b148061056657506001600160e01b03198216635b5e139f60e01b145b8061058157506301ffc9a760e01b6001600160e01b03198316145b92915050565b60605f805461059590612586565b80601f01602080910402602001604051908101604052809291908181526020018280546105c190612586565b801561060c5780601f106105e35761010080835404028352916020019161060c565b820191905f5260205f20905b8154815290600101906020018083116105ef57829003601f168201915b5050505050905090565b5f61062082611806565b505f828152600460205260409020546001600160a01b0316610581565b61064882823361183e565b5050565b6001600160a01b03821661067a57604051633250574960e11b81525f60048201526024015b60405180910390fd5b5f61068683833361184b565b9050836001600160a01b0316816001600160a01b0316146106d4576040516364283d7b60e01b81526001600160a01b0380861660048301526024820184905282166044820152606401610671565b50505050565b6040516331a9108f60e11b8152600481018290523090636352211e90602401602060405180830381865afa925050508015610732575060408051601f3d908101601f1916820190925261072f918101906125be565b60015b61074e5760405162461bcd60e51b8152600401610671906125d9565b505f81815260086020908152604080832033845290915290205460ff161515600114801561078d57505f8181526006602052604090206007015460ff16155b80156107b157505f81815260066020526040902060070154600160a81b900460ff16155b80156107c357506107c18161135d565b155b6107df5760405162461bcd60e51b815260040161067190612606565b5f6107e982611131565b5f83815260066020526040808220549051929350916001600160a01b0384169183156108fc02918491818181858888f1935050505015801561082d573d5f803e3d5ffd5b50610838838361193d565b61084183611b08565b5f83815260066020526040908190206007015490516001600160a01b0361010090920482169184169085907f344201ab2f1b413c381fe1cb1ae7d24db70f386bce6c330c4c705bba56d233fa906108a49086904290918252602082015260400190565b60405180910390a4505050565b6040516331a9108f60e11b8152600481018290523090636352211e90602401602060405180830381865afa925050508015610909575060408051601f3d908101601f19168201909252610906918101906125be565b60015b6109255760405162461bcd60e51b8152600401610671906125d9565b505f81815260086020908152604080832033845290915290205460ff161515600114801561096357505f8181526006602052604090206007015460ff165b801561098757505f81815260066020526040902060070154600160a81b900460ff16155b801561099957506109978161135d565b155b6109b55760405162461bcd60e51b815260040161067190612606565b5f818152600660205260409020600701805460ff60a81b1916600160a81b17908190556001600160a01b03610100909104166109f082611131565b6001600160a01b0316827f86ea1596926f4e3b70b3169cd39eb59f8ada5f00ef929f33bdf925066cc52e8d42604051610a2b91815260200190565b60405180910390a450565b60066020525f9081526040902080546001820154600283015460038401805493949293919291610a6590612586565b80601f0160208091040260200160405190810160405280929190818152602001828054610a9190612586565b8015610adc5780601f10610ab357610100808354040283529160200191610adc565b820191905f5260205f20905b815481529060010190602001808311610abf57829003601f168201915b505050505090806004018054610af190612586565b80601f0160208091040260200160405190810160405280929190818152602001828054610b1d90612586565b8015610b685780601f10610b3f57610100808354040283529160200191610b68565b820191905f5260205f20905b815481529060010190602001808311610b4b57829003601f168201915b505050505090806005018054610b7d90612586565b80601f0160208091040260200160405190810160405280929190818152602001828054610ba990612586565b8015610bf45780601f10610bcb57610100808354040283529160200191610bf4565b820191905f5260205f20905b815481529060010190602001808311610bd757829003601f168201915b505050505090806006018054610c0990612586565b80601f0160208091040260200160405190810160405280929190818152602001828054610c3590612586565b8015610c805780601f10610c5757610100808354040283529160200191610c80565b820191905f5260205f20905b815481529060010190602001808311610c6357829003601f168201915b50505060078401546008850154600990950154939460ff808316956001600160a01b036101008504169550600160a81b840482169450600160b01b8404821693600160b81b900490911691908e565b600c602052815f5260405f208181548110610ce8575f80fd5b5f918252602090912001546001600160a01b03169150829050565b610d1d83838360405180602001604052805f81525061132d565b505050565b600b602052815f5260405f208181548110610d3b575f80fd5b905f5260205f20015f91509150505481565b5f87341015610db55760405162461bcd60e51b815260206004820152602e60248201527f4465646520656e7669617220656c2073616c6172696f20636f6d6f2076616c6f60448201526d722064656c20636f6e747261746f60901b6064820152608401610671565b600d8054905f610dc48361264f565b9190505550610dd533600d54611b40565b5f610de08934612667565b90508015610e1457604051339082156108fc029083905f818181858888f19350505050158015610e12573d5f803e3d5ffd5b505b5f604051806101c001604052808b8152602001428b610e33919061267a565b81526020018981526020018781526020018881526020018681526020018581526020015f151581526020018c6001600160a01b031681526020015f151581526020015f151581526020015f151581526020015f81526020015f81525090508060065f600d5481526020019081526020015f205f820151815f015560208201518160010155604082015181600201556060820151816003019081610ed691906126da565b5060808201516004820190610eeb90826126da565b5060a08201516005820190610f0090826126da565b5060c08201516006820190610f1590826126da565b5060e0820151816007015f6101000a81548160ff0219169083151502179055506101008201518160070160016101000a8154816001600160a01b0302191690836001600160a01b031602179055506101208201518160070160156101000a81548160ff0219169083151502179055506101408201518160070160166101000a81548160ff0219169083151502179055506101608201518160070160176101000a81548160ff02191690831515021790555061018082015181600801556101a08201518160090155905050600160085f600d5481526020019081526020015f205f336001600160a01b03166001600160a01b031681526020019081526020015f205f6101000a81548160ff02191690831515021790555060095f336001600160a01b03166001600160a01b031681526020019081526020015f20600d54908060018154018082558091505060019003905f5260205f20015f9091909190915055600b5f8c6001600160a01b03166001600160a01b031681526020019081526020015f20600d54908060018154018082558091505060019003905f5260205f20015f90919091909150558a6001600160a01b0316336001600160a01b03167f10eeb30b12e63eae3023c3999b0545d717e8af33edac7f4a0b70b130bfba3359600d548d42604051611117939291909283526020830191909152604082015260600190565b60405180910390a35050600d549998505050505050505050565b5f61058182611806565b5f6001600160a01b038216611165576040516322718ad960e21b81525f6004820152602401610671565b506001600160a01b03165f9081526003602052604090205490565b6040516331a9108f60e11b8152600481018290523090636352211e90602401602060405180830381865afa9250505080156111d8575060408051601f3d908101601f191682019092526111d5918101906125be565b60015b6111f45760405162461bcd60e51b8152600401610671906125d9565b505f81815260086020908152604080832033845290915290205460ff1615801561122f57505f8181526006602052604090206007015460ff16155b801561125357505f81815260066020526040902060070154600160a81b900460ff16155b801561126557506112638161135d565b155b6112815760405162461bcd60e51b815260040161067190612606565b5f81815260066020908152604080832060070180543361010081026001600160a81b0319909216919091176001908117909255808552600a845291842080549182018155845291909220018290556112d882611131565b6001600160a01b0316827f9678f981bcf017d96c4d9fb4124afb0d1c62735df0ad70bef9fd0f5c18bda4fb42604051610a2b91815260200190565b60606001805461059590612586565b610648338383611ba1565b61133884848461064c565b6106d484848484611c3f565b600a602052815f5260405f208181548110610d3b575f80fd5b6040516331a9108f60e11b8152600481018290525f903090636352211e90602401602060405180830381865afa9250505080156113b7575060408051601f3d908101601f191682019092526113b4918101906125be565b60015b6113d35760405162461bcd60e51b8152600401610671906125d9565b505f82815260066020526040902060070154600160a81b900460ff16151560010361140057506001919050565b5f8281526006602052604090206009810154600282015460019092015490916114289161267a565b611432919061267a565b42111561144157506001919050565b505f919050565b606061145382611806565b505f61146960408051602081019091525f815290565b90505f8151116114875760405180602001604052805f8152506114b2565b8061149184611d65565b6040516020016114a2929190612796565b6040516020818303038152906040525b9392505050565b6009602052815f5260405f208181548110610d3b575f80fd5b6040516331a9108f60e11b8152600481018290523090636352211e90602401602060405180830381865afa92505050801561152a575060408051601f3d908101601f19168201909252611527918101906125be565b60015b6115465760405162461bcd60e51b8152600401610671906125d9565b505f8181526006602052604090206007015460ff16801561157f57505f81815260066020526040902060070154600160b01b900460ff16155b80156115a857505f81815260086020908152604080832033845290915290205460ff1615156001145b80156115be57506115b88161135d565b15156001145b6115da5760405162461bcd60e51b815260040161067190612606565b5f818152600660205260408082206007810154905491516101009091046001600160a01b03169283916108fc84150291849190818181858888f19350505050158015611628573d5f803e3d5ffd5b505f8381526006602052604090819020600701805460ff60b01b1916600160b01b179055516001600160a01b03831690339085907f4b5aadc9a65abf047bc2152ff605000b1dd64e7cb420aba7862457538885bfee906108a49086904290918252602082015260400190565b6001600160a01b039182165f90815260056020908152604080832093909416825291909152205460ff1690565b60076020525f90815260409020805481906116db90612586565b80601f016020809104026020016040519081016040528092919081815260200182805461170790612586565b80156117525780601f1061172957610100808354040283529160200191611752565b820191905f5260205f20905b81548152906001019060200180831161173557829003601f168201915b50505050509080600101549080600201549080600301805461177390612586565b80601f016020809104026020016040519081016040528092919081815260200182805461179f90612586565b80156117ea5780601f106117c1576101008083540402835291602001916117ea565b820191905f5260205f20905b8154815290600101906020018083116117cd57829003601f168201915b5050506004909301549192505060ff8082169161010090041686565b5f818152600260205260408120546001600160a01b03168061058157604051637e27328960e01b815260048101849052602401610671565b610d1d8383836001611df5565b5f828152600260205260408120546001600160a01b039081169083161561187757611877818486611ef9565b6001600160a01b038116156118b1576118925f855f80611df5565b6001600160a01b0381165f90815260036020526040902080545f190190555b6001600160a01b038516156118df576001600160a01b0385165f908152600360205260409020805460010190555b5f8481526002602052604080822080546001600160a01b0319166001600160a01b0389811691821790925591518793918516917fddf252ad1be2c89b69c2b068fc378daa952ba7f163c4a11628f55a4df523b3ef91a4949350505050565b6040516331a9108f60e11b8152600481018390523090636352211e90602401602060405180830381865afa925050508015611995575060408051601f3d908101601f19168201909252611992918101906125be565b60015b6119b15760405162461bcd60e51b8152600401610671906125d9565b506001600160a01b0381165f9081526009602052604081205481906119d890600190612667565b90505f5b6001600160a01b0384165f90815260096020526040902054811015611a4f576001600160a01b0384165f908152600960205260409020805486919083908110611a2757611a276127c4565b905f5260205f20015403611a3d57809250611a4f565b80611a478161264f565b9150506119dc565b50808214611ac9576001600160a01b0383165f908152600960205260409020805482908110611a8057611a806127c4565b905f5260205f20015460095f856001600160a01b03166001600160a01b031681526020019081526020015f208381548110611abd57611abd6127c4565b5f918252602090912001555b6001600160a01b0383165f908152600960205260409020805480611aef57611aef6127d8565b600190038181905f5260205f20015f9055905550505050565b5f611b145f835f61184b565b90506001600160a01b03811661064857604051637e27328960e01b815260048101839052602401610671565b6001600160a01b038216611b6957604051633250574960e11b81525f6004820152602401610671565b5f611b7583835f61184b565b90506001600160a01b03811615610d1d576040516339e3563760e11b81525f6004820152602401610671565b6001600160a01b038216611bd357604051630b61174360e31b81526001600160a01b0383166004820152602401610671565b6001600160a01b038381165f81815260056020908152604080832094871680845294825291829020805460ff191686151590811790915591519182527f17307eab39ab6107e8899845ad3d59bd9653f200f220920489ca2b5937696c31910160405180910390a3505050565b6001600160a01b0383163b156106d457604051630a85bd0160e11b81526001600160a01b0384169063150b7a0290611c819033908890879087906004016127ec565b6020604051808303815f875af1925050508015611cbb575060408051601f3d908101601f19168201909252611cb891810190612828565b60015b611d22573d808015611ce8576040519150601f19603f3d011682016040523d82523d5f602084013e611ced565b606091505b5080515f03611d1a57604051633250574960e11b81526001600160a01b0385166004820152602401610671565b805181602001fd5b6001600160e01b03198116630a85bd0160e11b14611d5e57604051633250574960e11b81526001600160a01b0385166004820152602401610671565b5050505050565b60605f611d7183611f5d565b60010190505f8167ffffffffffffffff811115611d9057611d906122d2565b6040519080825280601f01601f191660200182016040528015611dba576020820181803683370190505b5090508181016020015b5f19016f181899199a1a9b1b9c1cb0b131b232b360811b600a86061a8153600a8504945084611dc457509392505050565b8080611e0957506001600160a01b03821615155b15611eca575f611e1884611806565b90506001600160a01b03831615801590611e445750826001600160a01b0316816001600160a01b031614155b8015611e575750611e558184611694565b155b15611e805760405163a9fbf51f60e01b81526001600160a01b0384166004820152602401610671565b8115611ec85783856001600160a01b0316826001600160a01b03167f8c5be1e5ebec7d5bd14f71427d1e84f3dd0314c0f7b2291e5b200ac8c7c3b92560405160405180910390a45b505b50505f90815260046020526040902080546001600160a01b0319166001600160a01b0392909216919091179055565b611f04838383612034565b610d1d576001600160a01b038316611f3257604051637e27328960e01b815260048101829052602401610671565b60405163177e802f60e01b81526001600160a01b038316600482015260248101829052604401610671565b5f8072184f03e93ff9f4daa797ed6e38ed64bf6a1f0160401b8310611f9b5772184f03e93ff9f4daa797ed6e38ed64bf6a1f0160401b830492506040015b6d04ee2d6d415b85acef81000000008310611fc7576d04ee2d6d415b85acef8100000000830492506020015b662386f26fc100008310611fe557662386f26fc10000830492506010015b6305f5e1008310611ffd576305f5e100830492506008015b612710831061201157612710830492506004015b60648310612023576064830492506002015b600a83106105815760010192915050565b5f6001600160a01b038316158015906120905750826001600160a01b0316846001600160a01b0316148061206d575061206d8484611694565b8061209057505f828152600460205260409020546001600160a01b038481169116145b949350505050565b6001600160e01b0319811681146120ad575f80fd5b50565b5f602082840312156120c0575f80fd5b81356114b281612098565b5f5b838110156120e55781810151838201526020016120cd565b50505f910152565b5f81518084526121048160208601602086016120cb565b601f01601f19169290920160200192915050565b602081525f6114b260208301846120ed565b5f6020828403121561213a575f80fd5b5035919050565b6001600160a01b03811681146120ad575f80fd5b803561216081612141565b919050565b5f8060408385031215612176575f80fd5b823561218181612141565b946020939093013593505050565b5f805f606084860312156121a1575f80fd5b83356121ac81612141565b925060208401356121bc81612141565b929592945050506040919091013590565b5f80604083850312156121de575f80fd5b8235915060208301356121f081612141565b809150509250929050565b8e81528d60208201528c60408201526101c060608201525f6122216101c083018e6120ed565b8281036080840152612233818e6120ed565b905082810360a0840152612247818d6120ed565b905082810360c084015261225b818c6120ed565b91505061226c60e083018a15159052565b6001600160a01b03979097166101008201529415156101208601529215156101408501529015156101608401526101808301526101a09091015298975050505050505050565b5f80604083850312156122c3575f80fd5b50508035926020909101359150565b634e487b7160e01b5f52604160045260245ffd5b5f67ffffffffffffffff80841115612300576123006122d2565b604051601f8501601f19908116603f01168101908282118183101715612328576123286122d2565b81604052809350858152868686011115612340575f80fd5b858560208301375f602087830101525050509392505050565b5f82601f830112612368575f80fd5b6114b2838335602085016122e6565b5f805f805f805f80610100898b03121561238f575f80fd5b61239889612155565b9750602089013596506040890135955060608901359450608089013567ffffffffffffffff808211156123c9575f80fd5b6123d58c838d01612359565b955060a08b01359150808211156123ea575f80fd5b6123f68c838d01612359565b945060c08b013591508082111561240b575f80fd5b6124178c838d01612359565b935060e08b013591508082111561242c575f80fd5b506124398b828c01612359565b9150509295985092959890939650565b5f60208284031215612459575f80fd5b81356114b281612141565b5f8060408385031215612475575f80fd5b823561248081612141565b9150602083013580151581146121f0575f80fd5b5f805f80608085870312156124a7575f80fd5b84356124b281612141565b935060208501356124c281612141565b925060408501359150606085013567ffffffffffffffff8111156124e4575f80fd5b8501601f810187136124f4575f80fd5b612503878235602084016122e6565b91505092959194509250565b5f8060408385031215612520575f80fd5b823561252b81612141565b915060208301356121f081612141565b60c081525f61254d60c08301896120ed565b876020840152866040840152828103606084015261256b81876120ed565b9415156080840152505090151560a090910152949350505050565b600181811c9082168061259a57607f821691505b6020821081036125b857634e487b7160e01b5f52602260045260245ffd5b50919050565b5f602082840312156125ce575f80fd5b81516114b281612141565b60208082526013908201527222b6103a37b5b2b71037379032bc34b9ba329760691b604082015260600190565b6020808252818101527f4572726f723a20636f6e646963696f6e6573206e6f2063756d706c696461732e604082015260600190565b634e487b7160e01b5f52601160045260245ffd5b5f600182016126605761266061263b565b5060010190565b818103818111156105815761058161263b565b808201808211156105815761058161263b565b601f821115610d1d575f81815260208120601f850160051c810160208610156126b35750805b601f850160051c820191505b818110156126d2578281556001016126bf565b505050505050565b815167ffffffffffffffff8111156126f4576126f46122d2565b612708816127028454612586565b8461268d565b602080601f83116001811461273b575f84156127245750858301515b5f19600386901b1c1916600185901b1785556126d2565b5f85815260208120601f198616915b828110156127695788860151825594840194600190910190840161274a565b508582101561278657878501515f19600388901b60f8161c191681555b5050505050600190811b01905550565b5f83516127a78184602088016120cb565b8351908301906127bb8183602088016120cb565b01949350505050565b634e487b7160e01b5f52603260045260245ffd5b634e487b7160e01b5f52603160045260245ffd5b6001600160a01b03858116825284166020820152604081018390526080606082018190525f9061281e908301846120ed565b9695505050505050565b5f60208284031215612838575f80fd5b81516114b28161209856fea264697066735822122094298095bd8930e3b20e5b06d4477520be7c6f011141c824f5f1d9ed2ebd848764736f6c63430008140033",
  "immutableReferences": {},
  "source": "// SPDX-License-Identifier: MIT\r\npragma solidity ^0.8.20;\r\n\r\nimport \"./MyContract.sol\";\r\n\r\ncontract MyContractManagement is MyContract {\r\n    event SalaryReleased(\r\n        uint256 indexed tokenId,\r\n        uint256 salary,\r\n        address indexed employer,\r\n        address indexed worker,\r\n        uint256 timestamp\r\n    );\r\n\r\n    event TokenMinted(\r\n        uint256 tokenId,\r\n        address indexed employer,\r\n        address indexed worker,\r\n        uint256 salary,\r\n        uint256 timestamp\r\n    );\r\n\r\n    event ContractCancelled(\r\n        uint256 indexed tokenId,\r\n        address indexed employer,\r\n        address indexed worker,\r\n        uint256 salary,\r\n        uint256 timestamp\r\n    );\r\n\r\n    event ContractSigned(\r\n        uint256 indexed tokenId,\r\n        address indexed employer,\r\n        address indexed worker,\r\n        uint256 timestamp\r\n    );\r\n\r\n    event ContractFinalized(\r\n        uint256 indexed tokenId,\r\n        address indexed employer,\r\n        address indexed worker,\r\n        uint256 timestamp\r\n    );\r\n\r\n    function mint(\r\n        address _to,\r\n        uint256 _salary,\r\n        uint256 _start,\r\n        uint256 _duration,\r\n        string memory _description,\r\n        string memory _title,\r\n        string memory _country,\r\n        string memory _city\r\n    ) public payable returns (uint256) {\r\n        require(\r\n            msg.value >= _salary,\r\n            \"Dede enviar el salario como valor del contrato\"\r\n        );\r\n        tokenID++;\r\n        _mint(msg.sender, tokenID);\r\n        uint256 remainder = msg.value - _salary;\r\n        if (remainder > 0) {\r\n            payable(msg.sender).transfer(remainder);\r\n        }\r\n\r\n        ContractDetails memory newContract = ContractDetails({\r\n            salary: _salary,\r\n            startDate: _start + block.timestamp,\r\n            duration: _duration,\r\n            title: _title,\r\n            description: _description,\r\n            country: _country,\r\n            city: _city,\r\n            isSigned: false,\r\n            worker: _to,\r\n            isFinished: false,\r\n            isReleased: false,\r\n            isPaused: false,\r\n            pauseTime: 0,\r\n            pauseDuration: 0\r\n        });\r\n\r\n        contractDetails[tokenID] = newContract;\r\n        tokenManagers[tokenID][msg.sender] = true;\r\n        contractsOwner[msg.sender].push(tokenID);\r\n        unsignedContractsOfWorker[_to].push(tokenID);\r\n\r\n        emit TokenMinted(tokenID, msg.sender, _to, _salary, block.timestamp);\r\n        return tokenID;\r\n    }\r\n\r\n    function signContract(uint256 _tokenID) public {\r\n        try this.ownerOf(_tokenID) {} catch {\r\n            revert(\"El token no existe.\");\r\n        }\r\n        require(\r\n            tokenManagers[_tokenID][msg.sender] == false &&\r\n                !contractDetails[_tokenID].isSigned &&\r\n                contractDetails[_tokenID].isFinished == false &&\r\n                isContractFinished(_tokenID) == false,\r\n            \"Error: condiciones no cumplidas.\"\r\n        );\r\n\r\n        contractDetails[_tokenID].isSigned = true;\r\n        contractDetails[_tokenID].worker = msg.sender;\r\n        activeContractsOfWorker[msg.sender].push(_tokenID);\r\n\r\n        emit ContractSigned(\r\n            _tokenID,\r\n            ownerOf(_tokenID),\r\n            msg.sender,\r\n            block.timestamp\r\n        );\r\n    }\r\n\r\n    function releaseSalary(uint256 _tokenID) public payable {\r\n        try this.ownerOf(_tokenID) {} catch {\r\n            revert(\"El token no existe.\");\r\n        }\r\n        require(\r\n            contractDetails[_tokenID].isSigned &&\r\n                contractDetails[_tokenID].isReleased == false &&\r\n                tokenManagers[_tokenID][msg.sender] == true &&\r\n                isContractFinished(_tokenID) == true,\r\n            \"Error: condiciones no cumplidas.\"\r\n        );\r\n\r\n        address payable worker = payable(contractDetails[_tokenID].worker);\r\n        uint256 salary = contractDetails[_tokenID].salary;\r\n        worker.transfer(salary);\r\n        contractDetails[_tokenID].isReleased = true;\r\n\r\n        emit SalaryReleased(\r\n            _tokenID,\r\n            salary,\r\n            msg.sender,\r\n            worker,\r\n            block.timestamp\r\n        );\r\n    }\r\n\r\n    function finalizeContract(uint256 _tokenID) public {\r\n        try this.ownerOf(_tokenID) {} catch {\r\n            revert(\"El token no existe.\");\r\n        }\r\n        require(\r\n            tokenManagers[_tokenID][msg.sender] == true &&\r\n                contractDetails[_tokenID].isSigned &&\r\n                contractDetails[_tokenID].isFinished == false &&\r\n                isContractFinished(_tokenID) == false,\r\n            \"Error: condiciones no cumplidas.\"\r\n        );\r\n\r\n        contractDetails[_tokenID].isFinished = true;\r\n        emit ContractFinalized(\r\n            _tokenID,\r\n            ownerOf(_tokenID),\r\n            contractDetails[_tokenID].worker,\r\n            block.timestamp\r\n        );\r\n    }\r\n\r\n    function cancelContract(uint256 _tokenID) public {\r\n        try this.ownerOf(_tokenID) {} catch {\r\n            revert(\"El token no existe.\");\r\n        }\r\n        require(\r\n            tokenManagers[_tokenID][msg.sender] == true &&\r\n                !contractDetails[_tokenID].isSigned &&\r\n                contractDetails[_tokenID].isFinished == false &&\r\n                isContractFinished(_tokenID) == false,\r\n            \"Error: condiciones no cumplidas.\"\r\n        );\r\n\r\n        address payable owner = payable(ownerOf(_tokenID));\r\n        uint256 salary = contractDetails[_tokenID].salary;\r\n        owner.transfer(salary);\r\n        removeContractFromOwner(_tokenID, owner);\r\n        _burn(_tokenID);\r\n\r\n        emit ContractCancelled(\r\n            _tokenID,\r\n            owner,\r\n            contractDetails[_tokenID].worker,\r\n            salary,\r\n            block.timestamp\r\n        );\r\n    }\r\n}\r\n",
  "sourcePath": "E:\\ubu-contractme\\Code\\SmartContract\\contracts\\MyContractManagement.sol",
  "compiler": {
    "name": "solc",
    "version": "0.8.20+commit.a1b79de6.Emscripten.clang"
  },
  "schemaVersion": "3.4.16",
  "updatedAt": "2024-05-15T09:52:32.733Z",
  "devdoc": {
    "errors": {
      "ERC721IncorrectOwner(address,uint256,address)": [
        {
          "details": "Indicates an error related to the ownership over a particular token. Used in transfers.",
          "params": {
            "owner": "Address of the current owner of a token.",
            "sender": "Address whose tokens are being transferred.",
            "tokenId": "Identifier number of a token."
          }
        }
      ],
      "ERC721InsufficientApproval(address,uint256)": [
        {
          "details": "Indicates a failure with the `operator`s approval. Used in transfers.",
          "params": {
            "operator": "Address that may be allowed to operate on tokens without being their owner.",
            "tokenId": "Identifier number of a token."
          }
        }
      ],
      "ERC721InvalidApprover(address)": [
        {
          "details": "Indicates a failure with the `approver` of a token to be approved. Used in approvals.",
          "params": {
            "approver": "Address initiating an approval operation."
          }
        }
      ],
      "ERC721InvalidOperator(address)": [
        {
          "details": "Indicates a failure with the `operator` to be approved. Used in approvals.",
          "params": {
            "operator": "Address that may be allowed to operate on tokens without being their owner."
          }
        }
      ],
      "ERC721InvalidOwner(address)": [
        {
          "details": "Indicates that an address can't be an owner. For example, `address(0)` is a forbidden owner in EIP-20. Used in balance queries.",
          "params": {
            "owner": "Address of the current owner of a token."
          }
        }
      ],
      "ERC721InvalidReceiver(address)": [
        {
          "details": "Indicates a failure with the token `receiver`. Used in transfers.",
          "params": {
            "receiver": "Address to which tokens are being transferred."
          }
        }
      ],
      "ERC721InvalidSender(address)": [
        {
          "details": "Indicates a failure with the token `sender`. Used in transfers.",
          "params": {
            "sender": "Address whose tokens are being transferred."
          }
        }
      ],
      "ERC721NonexistentToken(uint256)": [
        {
          "details": "Indicates a `tokenId` whose `owner` is the zero address.",
          "params": {
            "tokenId": "Identifier number of a token."
          }
        }
      ]
    },
    "events": {
      "Approval(address,address,uint256)": {
        "details": "Emitted when `owner` enables `approved` to manage the `tokenId` token."
      },
      "ApprovalForAll(address,address,bool)": {
        "details": "Emitted when `owner` enables or disables (`approved`) `operator` to manage all of its assets."
      },
      "Transfer(address,address,uint256)": {
        "details": "Emitted when `tokenId` token is transferred from `from` to `to`."
      }
    },
    "kind": "dev",
    "methods": {
      "approve(address,uint256)": {
        "details": "See {IERC721-approve}."
      },
      "balanceOf(address)": {
        "details": "See {IERC721-balanceOf}."
      },
      "getApproved(uint256)": {
        "details": "See {IERC721-getApproved}."
      },
      "isApprovedForAll(address,address)": {
        "details": "See {IERC721-isApprovedForAll}."
      },
      "name()": {
        "details": "See {IERC721Metadata-name}."
      },
      "ownerOf(uint256)": {
        "details": "See {IERC721-ownerOf}."
      },
      "safeTransferFrom(address,address,uint256)": {
        "details": "See {IERC721-safeTransferFrom}."
      },
      "safeTransferFrom(address,address,uint256,bytes)": {
        "details": "See {IERC721-safeTransferFrom}."
      },
      "setApprovalForAll(address,bool)": {
        "details": "See {IERC721-setApprovalForAll}."
      },
      "supportsInterface(bytes4)": {
        "details": "See {IERC165-supportsInterface}."
      },
      "symbol()": {
        "details": "See {IERC721Metadata-symbol}."
      },
      "tokenURI(uint256)": {
        "details": "See {IERC721Metadata-tokenURI}."
      },
      "transferFrom(address,address,uint256)": {
        "details": "See {IERC721-transferFrom}."
      }
    },
    "version": 1
  },
  "userdoc": {
    "kind": "user",
    "methods": {},
    "version": 1
  }
}