{
  "contractName": "MyContractManagement",
  "abi": [
    {
      "inputs": [
        {
          "internalType": "address",
          "name": "sender",
          "type": "address"
        },
        {
          "internalType": "uint256",
          "name": "tokenId",
          "type": "uint256"
        },
        {
          "internalType": "address",
          "name": "owner",
          "type": "address"
        }
      ],
      "name": "ERC721IncorrectOwner",
      "type": "error"
    },
    {
      "inputs": [
        {
          "internalType": "address",
          "name": "operator",
          "type": "address"
        },
        {
          "internalType": "uint256",
          "name": "tokenId",
          "type": "uint256"
        }
      ],
      "name": "ERC721InsufficientApproval",
      "type": "error"
    },
    {
      "inputs": [
        {
          "internalType": "address",
          "name": "approver",
          "type": "address"
        }
      ],
      "name": "ERC721InvalidApprover",
      "type": "error"
    },
    {
      "inputs": [
        {
          "internalType": "address",
          "name": "operator",
          "type": "address"
        }
      ],
      "name": "ERC721InvalidOperator",
      "type": "error"
    },
    {
      "inputs": [
        {
          "internalType": "address",
          "name": "owner",
          "type": "address"
        }
      ],
      "name": "ERC721InvalidOwner",
      "type": "error"
    },
    {
      "inputs": [
        {
          "internalType": "address",
          "name": "receiver",
          "type": "address"
        }
      ],
      "name": "ERC721InvalidReceiver",
      "type": "error"
    },
    {
      "inputs": [
        {
          "internalType": "address",
          "name": "sender",
          "type": "address"
        }
      ],
      "name": "ERC721InvalidSender",
      "type": "error"
    },
    {
      "inputs": [
        {
          "internalType": "uint256",
          "name": "tokenId",
          "type": "uint256"
        }
      ],
      "name": "ERC721NonexistentToken",
      "type": "error"
    },
    {
      "anonymous": false,
      "inputs": [
        {
          "indexed": true,
          "internalType": "address",
          "name": "owner",
          "type": "address"
        },
        {
          "indexed": true,
          "internalType": "address",
          "name": "approved",
          "type": "address"
        },
        {
          "indexed": true,
          "internalType": "uint256",
          "name": "tokenId",
          "type": "uint256"
        }
      ],
      "name": "Approval",
      "type": "event"
    },
    {
      "anonymous": false,
      "inputs": [
        {
          "indexed": true,
          "internalType": "address",
          "name": "owner",
          "type": "address"
        },
        {
          "indexed": true,
          "internalType": "address",
          "name": "operator",
          "type": "address"
        },
        {
          "indexed": false,
          "internalType": "bool",
          "name": "approved",
          "type": "bool"
        }
      ],
      "name": "ApprovalForAll",
      "type": "event"
    },
    {
      "anonymous": false,
      "inputs": [
        {
          "indexed": true,
          "internalType": "uint256",
          "name": "tokenId",
          "type": "uint256"
        },
        {
          "indexed": true,
          "internalType": "address",
          "name": "employer",
          "type": "address"
        },
        {
          "indexed": false,
          "internalType": "uint256",
          "name": "salary",
          "type": "uint256"
        },
        {
          "indexed": false,
          "internalType": "uint256",
          "name": "timestamp",
          "type": "uint256"
        }
      ],
      "name": "ContractCancelled",
      "type": "event"
    },
    {
      "anonymous": false,
      "inputs": [
        {
          "indexed": true,
          "internalType": "uint256",
          "name": "tokenId",
          "type": "uint256"
        },
        {
          "indexed": false,
          "internalType": "uint256",
          "name": "salary",
          "type": "uint256"
        },
        {
          "indexed": true,
          "internalType": "address",
          "name": "worker",
          "type": "address"
        },
        {
          "indexed": false,
          "internalType": "uint256",
          "name": "timestamp",
          "type": "uint256"
        }
      ],
      "name": "SalaryReleased",
      "type": "event"
    },
    {
      "anonymous": false,
      "inputs": [
        {
          "indexed": false,
          "internalType": "uint256",
          "name": "tokenId",
          "type": "uint256"
        },
        {
          "indexed": true,
          "internalType": "address",
          "name": "employer",
          "type": "address"
        },
        {
          "indexed": false,
          "internalType": "uint256",
          "name": "salary",
          "type": "uint256"
        },
        {
          "indexed": false,
          "internalType": "uint256",
          "name": "timestamp",
          "type": "uint256"
        }
      ],
      "name": "TokenMinted",
      "type": "event"
    },
    {
      "anonymous": false,
      "inputs": [
        {
          "indexed": true,
          "internalType": "address",
          "name": "from",
          "type": "address"
        },
        {
          "indexed": true,
          "internalType": "address",
          "name": "to",
          "type": "address"
        },
        {
          "indexed": true,
          "internalType": "uint256",
          "name": "tokenId",
          "type": "uint256"
        }
      ],
      "name": "Transfer",
      "type": "event"
    },
    {
      "inputs": [
        {
          "internalType": "address",
          "name": "",
          "type": "address"
        },
        {
          "internalType": "uint256",
          "name": "",
          "type": "uint256"
        }
      ],
      "name": "activeContractsOfWorker",
      "outputs": [
        {
          "internalType": "uint256",
          "name": "",
          "type": "uint256"
        }
      ],
      "stateMutability": "view",
      "type": "function"
    },
    {
      "inputs": [
        {
          "internalType": "address",
          "name": "to",
          "type": "address"
        },
        {
          "internalType": "uint256",
          "name": "tokenId",
          "type": "uint256"
        }
      ],
      "name": "approve",
      "outputs": [],
      "stateMutability": "nonpayable",
      "type": "function"
    },
    {
      "inputs": [
        {
          "internalType": "address",
          "name": "owner",
          "type": "address"
        }
      ],
      "name": "balanceOf",
      "outputs": [
        {
          "internalType": "uint256",
          "name": "",
          "type": "uint256"
        }
      ],
      "stateMutability": "view",
      "type": "function"
    },
    {
      "inputs": [
        {
          "internalType": "uint256",
          "name": "",
          "type": "uint256"
        }
      ],
      "name": "contractDetails",
      "outputs": [
        {
          "internalType": "uint256",
          "name": "salary",
          "type": "uint256"
        },
        {
          "internalType": "uint256",
          "name": "startDate",
          "type": "uint256"
        },
        {
          "internalType": "uint256",
          "name": "duration",
          "type": "uint256"
        },
        {
          "internalType": "string",
          "name": "title",
          "type": "string"
        },
        {
          "internalType": "string",
          "name": "description",
          "type": "string"
        },
        {
          "internalType": "bool",
          "name": "isSigned",
          "type": "bool"
        },
        {
          "internalType": "address",
          "name": "worker",
          "type": "address"
        },
        {
          "internalType": "bool",
          "name": "isFinished",
          "type": "bool"
        },
        {
          "internalType": "bool",
          "name": "isReleased",
          "type": "bool"
        },
        {
          "internalType": "bool",
          "name": "isPaused",
          "type": "bool"
        },
        {
          "internalType": "uint256",
          "name": "pauseTime",
          "type": "uint256"
        },
        {
          "internalType": "uint256",
          "name": "pauseDuration",
          "type": "uint256"
        }
      ],
      "stateMutability": "view",
      "type": "function"
    },
    {
      "inputs": [
        {
          "internalType": "address",
          "name": "",
          "type": "address"
        },
        {
          "internalType": "uint256",
          "name": "",
          "type": "uint256"
        }
      ],
      "name": "contractsOwner",
      "outputs": [
        {
          "internalType": "uint256",
          "name": "",
          "type": "uint256"
        }
      ],
      "stateMutability": "view",
      "type": "function"
    },
    {
      "inputs": [
        {
          "internalType": "uint256",
          "name": "tokenId",
          "type": "uint256"
        }
      ],
      "name": "getApproved",
      "outputs": [
        {
          "internalType": "address",
          "name": "",
          "type": "address"
        }
      ],
      "stateMutability": "view",
      "type": "function"
    },
    {
      "inputs": [
        {
          "internalType": "address",
          "name": "owner",
          "type": "address"
        },
        {
          "internalType": "address",
          "name": "operator",
          "type": "address"
        }
      ],
      "name": "isApprovedForAll",
      "outputs": [
        {
          "internalType": "bool",
          "name": "",
          "type": "bool"
        }
      ],
      "stateMutability": "view",
      "type": "function"
    },
    {
      "inputs": [],
      "name": "name",
      "outputs": [
        {
          "internalType": "string",
          "name": "",
          "type": "string"
        }
      ],
      "stateMutability": "view",
      "type": "function"
    },
    {
      "inputs": [
        {
          "internalType": "uint256",
          "name": "tokenId",
          "type": "uint256"
        }
      ],
      "name": "ownerOf",
      "outputs": [
        {
          "internalType": "address",
          "name": "",
          "type": "address"
        }
      ],
      "stateMutability": "view",
      "type": "function"
    },
    {
      "inputs": [
        {
          "internalType": "address",
          "name": "from",
          "type": "address"
        },
        {
          "internalType": "address",
          "name": "to",
          "type": "address"
        },
        {
          "internalType": "uint256",
          "name": "tokenId",
          "type": "uint256"
        }
      ],
      "name": "safeTransferFrom",
      "outputs": [],
      "stateMutability": "nonpayable",
      "type": "function"
    },
    {
      "inputs": [
        {
          "internalType": "address",
          "name": "from",
          "type": "address"
        },
        {
          "internalType": "address",
          "name": "to",
          "type": "address"
        },
        {
          "internalType": "uint256",
          "name": "tokenId",
          "type": "uint256"
        },
        {
          "internalType": "bytes",
          "name": "data",
          "type": "bytes"
        }
      ],
      "name": "safeTransferFrom",
      "outputs": [],
      "stateMutability": "nonpayable",
      "type": "function"
    },
    {
      "inputs": [
        {
          "internalType": "address",
          "name": "operator",
          "type": "address"
        },
        {
          "internalType": "bool",
          "name": "approved",
          "type": "bool"
        }
      ],
      "name": "setApprovalForAll",
      "outputs": [],
      "stateMutability": "nonpayable",
      "type": "function"
    },
    {
      "inputs": [
        {
          "internalType": "bytes4",
          "name": "interfaceId",
          "type": "bytes4"
        }
      ],
      "name": "supportsInterface",
      "outputs": [
        {
          "internalType": "bool",
          "name": "",
          "type": "bool"
        }
      ],
      "stateMutability": "view",
      "type": "function"
    },
    {
      "inputs": [],
      "name": "symbol",
      "outputs": [
        {
          "internalType": "string",
          "name": "",
          "type": "string"
        }
      ],
      "stateMutability": "view",
      "type": "function"
    },
    {
      "inputs": [],
      "name": "tokenID",
      "outputs": [
        {
          "internalType": "uint256",
          "name": "",
          "type": "uint256"
        }
      ],
      "stateMutability": "view",
      "type": "function"
    },
    {
      "inputs": [
        {
          "internalType": "uint256",
          "name": "",
          "type": "uint256"
        },
        {
          "internalType": "address",
          "name": "",
          "type": "address"
        }
      ],
      "name": "tokenManagers",
      "outputs": [
        {
          "internalType": "bool",
          "name": "",
          "type": "bool"
        }
      ],
      "stateMutability": "view",
      "type": "function"
    },
    {
      "inputs": [
        {
          "internalType": "uint256",
          "name": "tokenId",
          "type": "uint256"
        }
      ],
      "name": "tokenURI",
      "outputs": [
        {
          "internalType": "string",
          "name": "",
          "type": "string"
        }
      ],
      "stateMutability": "view",
      "type": "function"
    },
    {
      "inputs": [
        {
          "internalType": "address",
          "name": "from",
          "type": "address"
        },
        {
          "internalType": "address",
          "name": "to",
          "type": "address"
        },
        {
          "internalType": "uint256",
          "name": "tokenId",
          "type": "uint256"
        }
      ],
      "name": "transferFrom",
      "outputs": [],
      "stateMutability": "nonpayable",
      "type": "function"
    },
    {
      "inputs": [
        {
          "internalType": "address",
          "name": "",
          "type": "address"
        },
        {
          "internalType": "uint256",
          "name": "",
          "type": "uint256"
        }
      ],
      "name": "unsignedContractsOfWorker",
      "outputs": [
        {
          "internalType": "uint256",
          "name": "",
          "type": "uint256"
        }
      ],
      "stateMutability": "view",
      "type": "function"
    },
    {
      "inputs": [
        {
          "internalType": "address",
          "name": "_to",
          "type": "address"
        },
        {
          "internalType": "uint256",
          "name": "_salary",
          "type": "uint256"
        },
        {
          "internalType": "uint256",
          "name": "_duration",
          "type": "uint256"
        },
        {
          "internalType": "string",
          "name": "_description",
          "type": "string"
        },
        {
          "internalType": "string",
          "name": "_title",
          "type": "string"
        }
      ],
      "name": "mint",
      "outputs": [
        {
          "internalType": "uint256",
          "name": "",
          "type": "uint256"
        }
      ],
      "stateMutability": "payable",
      "type": "function"
    },
    {
      "inputs": [
        {
          "internalType": "uint256",
          "name": "_tokenID",
          "type": "uint256"
        }
      ],
      "name": "signContract",
      "outputs": [],
      "stateMutability": "nonpayable",
      "type": "function"
    },
    {
      "inputs": [
        {
          "internalType": "uint256",
          "name": "_tokenID",
          "type": "uint256"
        }
      ],
      "name": "releaseSalary",
      "outputs": [],
      "stateMutability": "payable",
      "type": "function"
    },
    {
      "inputs": [
        {
          "internalType": "uint256",
          "name": "_tokenID",
          "type": "uint256"
        }
      ],
      "name": "finalizeContract",
      "outputs": [],
      "stateMutability": "nonpayable",
      "type": "function"
    },
    {
      "inputs": [
        {
          "internalType": "uint256",
          "name": "_tokenID",
          "type": "uint256"
        }
      ],
      "name": "cancelContract",
      "outputs": [],
      "stateMutability": "nonpayable",
      "type": "function"
    },
    {
      "inputs": [
        {
          "internalType": "uint256",
          "name": "_tokenID",
          "type": "uint256"
        }
      ],
      "name": "isContractFinished",
      "outputs": [
        {
          "internalType": "bool",
          "name": "",
          "type": "bool"
        }
      ],
      "stateMutability": "view",
      "type": "function"
    }
  ],
  "bytecode": "0x608060405234801562000010575f80fd5b506040518060400160405280600781526020017f4d79546f6b656e000000000000000000000000000000000000000000000000008152506040518060400160405280600381526020017f4d544b0000000000000000000000000000000000000000000000000000000000815250815f90816200008d91906200030c565b5080600190816200009f91906200030c565b505050620003f0565b5f81519050919050565b7f4e487b71000000000000000000000000000000000000000000000000000000005f52604160045260245ffd5b7f4e487b71000000000000000000000000000000000000000000000000000000005f52602260045260245ffd5b5f60028204905060018216806200012457607f821691505b6020821081036200013a5762000139620000df565b5b50919050565b5f819050815f5260205f209050919050565b5f6020601f8301049050919050565b5f82821b905092915050565b5f600883026200019e7fffffffffffffffffffffffffffffffffffffffffffffffffffffffffffffffff8262000161565b620001aa868362000161565b95508019841693508086168417925050509392505050565b5f819050919050565b5f819050919050565b5f620001f4620001ee620001e884620001c2565b620001cb565b620001c2565b9050919050565b5f819050919050565b6200020f83620001d4565b620002276200021e82620001fb565b8484546200016d565b825550505050565b5f90565b6200023d6200022f565b6200024a81848462000204565b505050565b5b818110156200027157620002655f8262000233565b60018101905062000250565b5050565b601f821115620002c0576200028a8162000140565b620002958462000152565b81016020851015620002a5578190505b620002bd620002b48562000152565b8301826200024f565b50505b505050565b5f82821c905092915050565b5f620002e25f1984600802620002c5565b1980831691505092915050565b5f620002fc8383620002d1565b9150826002028217905092915050565b6200031782620000a8565b67ffffffffffffffff811115620003335762000332620000b2565b5b6200033f82546200010c565b6200034c82828562000275565b5f60209050601f83116001811462000382575f84156200036d578287015190505b620003798582620002ef565b865550620003e8565b601f198416620003928662000140565b5f5b82811015620003bb5784890151825560018201915060208501945060208101905062000394565b86831015620003db5784890151620003d7601f891682620002d1565b8355505b6001600288020188555050505b505050505050565b61415d80620003fe5f395ff3fe608060405260043610610165575f3560e01c80636d013618116100d0578063b88d4fde11610089578063c87b56dd11610063578063c87b56dd1461057e578063e1b14620146105ba578063e2c07c7b146105f6578063e985e9c51461061257610165565b8063b88d4fde146104de578063bc3a8e9e14610506578063bce871561461054257610165565b80636d013618146103ce57806370a08231146103fe5780639537e8d11461043a57806395d89b4114610462578063a22cb4651461048c578063a5c42ef1146104b457610165565b80632907eb16116101225780632907eb1614610283578063294a7931146102ab5780633330a55f146102e757806342842e0e1461032e57806345f18460146103565780636352211e1461039257610165565b806301ffc9a71461016957806306fdde03146101a5578063081812fc146101cf578063095ea7b31461020b57806323b872dd14610233578063280474501461025b575b5f80fd5b348015610174575f80fd5b5061018f600480360381019061018a9190612cf4565b61064e565b60405161019c9190612d39565b60405180910390f35b3480156101b0575f80fd5b506101b961072f565b6040516101c69190612ddc565b60405180910390f35b3480156101da575f80fd5b506101f560048036038101906101f09190612e2f565b6107be565b6040516102029190612e99565b60405180910390f35b348015610216575f80fd5b50610231600480360381019061022c9190612edc565b6107d9565b005b34801561023e575f80fd5b5061025960048036038101906102549190612f1a565b6107ef565b005b348015610266575f80fd5b50610281600480360381019061027c9190612e2f565b6108ee565b005b34801561028e575f80fd5b506102a960048036038101906102a49190612e2f565b610a1f565b005b3480156102b6575f80fd5b506102d160048036038101906102cc9190612f6a565b610c03565b6040516102de9190612d39565b60405180910390f35b3480156102f2575f80fd5b5061030d60048036038101906103089190612e2f565b610c2d565b6040516103259c9b9a99989796959493929190612fb7565b60405180910390f35b348015610339575f80fd5b50610354600480360381019061034f9190612f1a565b610de8565b005b348015610361575f80fd5b5061037c60048036038101906103779190612edc565b610e07565b604051610389919061307d565b60405180910390f35b34801561039d575f80fd5b506103b860048036038101906103b39190612e2f565b610e32565b6040516103c59190612e99565b60405180910390f35b6103e860048036038101906103e391906131c2565b610e43565b6040516103f5919061307d565b60405180910390f35b348015610409575f80fd5b50610424600480360381019061041f9190613271565b611246565b604051610431919061307d565b60405180910390f35b348015610445575f80fd5b50610460600480360381019061045b9190612e2f565b6112fc565b005b34801561046d575f80fd5b506104766116e8565b6040516104839190612ddc565b60405180910390f35b348015610497575f80fd5b506104b260048036038101906104ad91906132c6565b611778565b005b3480156104bf575f80fd5b506104c861178e565b6040516104d5919061307d565b60405180910390f35b3480156104e9575f80fd5b5061050460048036038101906104ff91906133a2565b611794565b005b348015610511575f80fd5b5061052c60048036038101906105279190612edc565b6117b1565b604051610539919061307d565b60405180910390f35b34801561054d575f80fd5b5061056860048036038101906105639190612e2f565b6117dc565b6040516105759190612d39565b60405180910390f35b348015610589575f80fd5b506105a4600480360381019061059f9190612e2f565b61187f565b6040516105b19190612ddc565b60405180910390f35b3480156105c5575f80fd5b506105e060048036038101906105db9190612edc565b6118e5565b6040516105ed919061307d565b60405180910390f35b610610600480360381019061060b9190612e2f565b611910565b005b34801561061d575f80fd5b5061063860048036038101906106339190613422565b611c42565b6040516106459190612d39565b60405180910390f35b5f7f80ac58cd000000000000000000000000000000000000000000000000000000007bffffffffffffffffffffffffffffffffffffffffffffffffffffffff1916827bffffffffffffffffffffffffffffffffffffffffffffffffffffffff1916148061071857507f5b5e139f000000000000000000000000000000000000000000000000000000007bffffffffffffffffffffffffffffffffffffffffffffffffffffffff1916827bffffffffffffffffffffffffffffffffffffffffffffffffffffffff1916145b80610728575061072782611cd0565b5b9050919050565b60605f805461073d9061348d565b80601f01602080910402602001604051908101604052809291908181526020018280546107699061348d565b80156107b45780601f1061078b576101008083540402835291602001916107b4565b820191905f5260205f20905b81548152906001019060200180831161079757829003601f168201915b5050505050905090565b5f6107c882611d39565b506107d282611dbf565b9050919050565b6107eb82826107e6611df8565b611dff565b5050565b5f73ffffffffffffffffffffffffffffffffffffffff168273ffffffffffffffffffffffffffffffffffffffff160361085f575f6040517f64a0ae920000000000000000000000000000000000000000000000000000000081526004016108569190612e99565b60405180910390fd5b5f610872838361086d611df8565b611e11565b90508373ffffffffffffffffffffffffffffffffffffffff168173ffffffffffffffffffffffffffffffffffffffff16146108e8578382826040517f64283d7b0000000000000000000000000000000000000000000000000000000081526004016108df939291906134bd565b60405180910390fd5b50505050565b60075f8281526020019081526020015f206005015f9054906101000a900460ff161561094f576040517f08c379a00000000000000000000000000000000000000000000000000000000081526004016109469061353c565b60405180910390fd5b5f61095982610e32565b90505f60075f8481526020019081526020015f205f015490508173ffffffffffffffffffffffffffffffffffffffff166108fc8290811502906040515f60405180830381858888f193505050501580156109b5573d5f803e3d5ffd5b506109c0838361201c565b6109c983612252565b8173ffffffffffffffffffffffffffffffffffffffff16837fd5b7aefe81821953c4523af4718564cb7c9e62f3d5bab1c08438f03ac35085e08342604051610a1292919061355a565b60405180910390a3505050565b6001151560085f8381526020019081526020015f205f3373ffffffffffffffffffffffffffffffffffffffff1673ffffffffffffffffffffffffffffffffffffffff1681526020019081526020015f205f9054906101000a900460ff16151514610abe576040517f08c379a0000000000000000000000000000000000000000000000000000000008152600401610ab5906135f1565b60405180910390fd5b60075f8281526020019081526020015f206005015f9054906101000a900460ff16610b1e576040517f08c379a0000000000000000000000000000000000000000000000000000000008152600401610b1590613659565b60405180910390fd5b5f151560075f8381526020019081526020015f2060050160159054906101000a900460ff16151514610b85576040517f08c379a0000000000000000000000000000000000000000000000000000000008152600401610b7c906136c1565b60405180910390fd5b5f1515610b91826117dc565b151514610bd3576040517f08c379a0000000000000000000000000000000000000000000000000000000008152600401610bca90613729565b60405180910390fd5b600160075f8381526020019081526020015f2060050160156101000a81548160ff02191690831515021790555050565b6008602052815f5260405f20602052805f5260405f205f915091509054906101000a900460ff1681565b6007602052805f5260405f205f91509050805f015490806001015490806002015490806003018054610c5e9061348d565b80601f0160208091040260200160405190810160405280929190818152602001828054610c8a9061348d565b8015610cd55780601f10610cac57610100808354040283529160200191610cd5565b820191905f5260205f20905b815481529060010190602001808311610cb857829003601f168201915b505050505090806004018054610cea9061348d565b80601f0160208091040260200160405190810160405280929190818152602001828054610d169061348d565b8015610d615780601f10610d3857610100808354040283529160200191610d61565b820191905f5260205f20905b815481529060010190602001808311610d4457829003601f168201915b505050505090806005015f9054906101000a900460ff16908060050160019054906101000a900473ffffffffffffffffffffffffffffffffffffffff16908060050160159054906101000a900460ff16908060050160169054906101000a900460ff16908060050160179054906101000a900460ff1690806006015490806007015490508c565b610e0283838360405180602001604052805f815250611794565b505050565b600b602052815f5260405f208181548110610e20575f80fd5b905f5260205f20015f91509150505481565b5f610e3c82611d39565b9050919050565b5f84341015610e87576040517f08c379a0000000000000000000000000000000000000000000000000000000008152600401610e7e906137b7565b60405180910390fd5b60065f815480929190610e9990613802565b9190505550610eaa336006546122d4565b5f8534610eb79190613849565b90505f811115610f06573373ffffffffffffffffffffffffffffffffffffffff166108fc8290811502906040515f60405180830381858888f19350505050158015610f04573d5f803e3d5ffd5b505b5f6040518061018001604052808881526020014281526020018781526020018581526020018681526020015f151581526020018973ffffffffffffffffffffffffffffffffffffffff1681526020015f151581526020015f151581526020015f151581526020015f81526020015f81525090508060075f60065481526020019081526020015f205f820151815f015560208201518160010155604082015181600201556060820151816003019081610fbe9190613a19565b506080820151816004019081610fd49190613a19565b5060a0820151816005015f6101000a81548160ff02191690831515021790555060c08201518160050160016101000a81548173ffffffffffffffffffffffffffffffffffffffff021916908373ffffffffffffffffffffffffffffffffffffffff16021790555060e08201518160050160156101000a81548160ff0219169083151502179055506101008201518160050160166101000a81548160ff0219169083151502179055506101208201518160050160176101000a81548160ff02191690831515021790555061014082015181600601556101608201518160070155905050600160085f60065481526020019081526020015f205f3373ffffffffffffffffffffffffffffffffffffffff1673ffffffffffffffffffffffffffffffffffffffff1681526020019081526020015f205f6101000a81548160ff02191690831515021790555060095f3373ffffffffffffffffffffffffffffffffffffffff1673ffffffffffffffffffffffffffffffffffffffff1681526020019081526020015f20600654908060018154018082558091505060019003905f5260205f20015f9091909190915055600b5f8973ffffffffffffffffffffffffffffffffffffffff1673ffffffffffffffffffffffffffffffffffffffff1681526020019081526020015f20600654908060018154018082558091505060019003905f5260205f20015f90919091909150553373ffffffffffffffffffffffffffffffffffffffff167f81fd5f457056a8b19e623dc52551a385bfcafd0914d3942446ecab71d19b123b600654894260405161122e93929190613ae8565b60405180910390a26006549250505095945050505050565b5f8073ffffffffffffffffffffffffffffffffffffffff168273ffffffffffffffffffffffffffffffffffffffff16036112b7575f6040517f89c62b640000000000000000000000000000000000000000000000000000000081526004016112ae9190612e99565b60405180910390fd5b60035f8373ffffffffffffffffffffffffffffffffffffffff1673ffffffffffffffffffffffffffffffffffffffff1681526020019081526020015f20549050919050565b3073ffffffffffffffffffffffffffffffffffffffff16636352211e826040518263ffffffff1660e01b8152600401611335919061307d565b602060405180830381865afa92505050801561136f57506040513d601f19601f8201168201806040525081019061136c9190613b31565b60015b6113ae576040517f08c379a00000000000000000000000000000000000000000000000000000000081526004016113a590613ba6565b60405180910390fd5b505f151560085f8381526020019081526020015f205f3373ffffffffffffffffffffffffffffffffffffffff1673ffffffffffffffffffffffffffffffffffffffff1681526020019081526020015f205f9054906101000a900460ff1615151461144d576040517f08c379a000000000000000000000000000000000000000000000000000000000815260040161144490613c34565b60405180910390fd5b60075f8281526020019081526020015f2060050160019054906101000a900473ffffffffffffffffffffffffffffffffffffffff1673ffffffffffffffffffffffffffffffffffffffff163373ffffffffffffffffffffffffffffffffffffffff16146114ef576040517f08c379a00000000000000000000000000000000000000000000000000000000081526004016114e690613cc2565b60405180910390fd5b60075f8281526020019081526020015f206005015f9054906101000a900460ff1615611550576040517f08c379a00000000000000000000000000000000000000000000000000000000081526004016115479061353c565b60405180910390fd5b5f151560075f8381526020019081526020015f2060050160159054906101000a900460ff161515146115b7576040517f08c379a00000000000000000000000000000000000000000000000000000000081526004016115ae90613d2a565b60405180910390fd5b5f15156115c3826117dc565b151514611605576040517f08c379a00000000000000000000000000000000000000000000000000000000081526004016115fc90613729565b60405180910390fd5b600160075f8381526020019081526020015f206005015f6101000a81548160ff0219169083151502179055503360075f8381526020019081526020015f2060050160016101000a81548173ffffffffffffffffffffffffffffffffffffffff021916908373ffffffffffffffffffffffffffffffffffffffff160217905550600a5f3373ffffffffffffffffffffffffffffffffffffffff1673ffffffffffffffffffffffffffffffffffffffff1681526020019081526020015f2081908060018154018082558091505060019003905f5260205f20015f909190919091505550565b6060600180546116f79061348d565b80601f01602080910402602001604051908101604052809291908181526020018280546117239061348d565b801561176e5780601f106117455761010080835404028352916020019161176e565b820191905f5260205f20905b81548152906001019060200180831161175157829003601f168201915b5050505050905090565b61178a611783611df8565b83836123c7565b5050565b60065481565b61179f8484846107ef565b6117ab84848484612530565b50505050565b600a602052815f5260405f2081815481106117ca575f80fd5b905f5260205f20015f91509150505481565b5f6001151560075f8481526020019081526020015f2060050160159054906101000a900460ff16151503611813576001905061187a565b60075f8381526020019081526020015f206007015460075f8481526020019081526020015f206002015460075f8581526020019081526020015f206001015461185c9190613d48565b6118669190613d48565b421115611876576001905061187a565b5f90505b919050565b606061188a82611d39565b505f6118946126e2565b90505f8151116118b25760405180602001604052805f8152506118dd565b806118bc846126f8565b6040516020016118cd929190613db5565b6040516020818303038152906040525b915050919050565b6009602052815f5260405f2081815481106118fe575f80fd5b905f5260205f20015f91509150505481565b60075f8281526020019081526020015f206005015f9054906101000a900460ff16611970576040517f08c379a000000000000000000000000000000000000000000000000000000000815260040161196790613659565b60405180910390fd5b5f151560075f8381526020019081526020015f2060050160169054906101000a900460ff161515146119d7576040517f08c379a00000000000000000000000000000000000000000000000000000000081526004016119ce90613e22565b60405180910390fd5b6001151560085f8381526020019081526020015f205f3373ffffffffffffffffffffffffffffffffffffffff1673ffffffffffffffffffffffffffffffffffffffff1681526020019081526020015f205f9054906101000a900460ff16151514611a76576040517f08c379a0000000000000000000000000000000000000000000000000000000008152600401611a6d90613eb0565b60405180910390fd5b60011515611a83826117dc565b151514611ac5576040517f08c379a0000000000000000000000000000000000000000000000000000000008152600401611abc90613f18565b60405180910390fd5b5f151560075f8381526020019081526020015f2060050160179054906101000a900460ff16151514611b2c576040517f08c379a0000000000000000000000000000000000000000000000000000000008152600401611b2390613f80565b60405180910390fd5b5f60075f8381526020019081526020015f2060050160019054906101000a900473ffffffffffffffffffffffffffffffffffffffff1690505f60075f8481526020019081526020015f205f015490508173ffffffffffffffffffffffffffffffffffffffff166108fc8290811502906040515f60405180830381858888f19350505050158015611bbe573d5f803e3d5ffd5b50600160075f8581526020019081526020015f2060050160166101000a81548160ff0219169083151502179055508173ffffffffffffffffffffffffffffffffffffffff16837fc14d774ce55db64bde5b7fbf6e205f559dcbbc25bb04f7b2b004cfa6570e85b98342604051611c3592919061355a565b60405180910390a3505050565b5f60055f8473ffffffffffffffffffffffffffffffffffffffff1673ffffffffffffffffffffffffffffffffffffffff1681526020019081526020015f205f8373ffffffffffffffffffffffffffffffffffffffff1673ffffffffffffffffffffffffffffffffffffffff1681526020019081526020015f205f9054906101000a900460ff16905092915050565b5f7f01ffc9a7000000000000000000000000000000000000000000000000000000007bffffffffffffffffffffffffffffffffffffffffffffffffffffffff1916827bffffffffffffffffffffffffffffffffffffffffffffffffffffffff1916149050919050565b5f80611d44836127c2565b90505f73ffffffffffffffffffffffffffffffffffffffff168173ffffffffffffffffffffffffffffffffffffffff1603611db657826040517f7e273289000000000000000000000000000000000000000000000000000000008152600401611dad919061307d565b60405180910390fd5b80915050919050565b5f60045f8381526020019081526020015f205f9054906101000a900473ffffffffffffffffffffffffffffffffffffffff169050919050565b5f33905090565b611e0c83838360016127fb565b505050565b5f80611e1c846127c2565b90505f73ffffffffffffffffffffffffffffffffffffffff168373ffffffffffffffffffffffffffffffffffffffff1614611e5d57611e5c8184866129ba565b5b5f73ffffffffffffffffffffffffffffffffffffffff168173ffffffffffffffffffffffffffffffffffffffff1614611ee857611e9c5f855f806127fb565b600160035f8373ffffffffffffffffffffffffffffffffffffffff1673ffffffffffffffffffffffffffffffffffffffff1681526020019081526020015f205f82825403925050819055505b5f73ffffffffffffffffffffffffffffffffffffffff168573ffffffffffffffffffffffffffffffffffffffff1614611f6757600160035f8773ffffffffffffffffffffffffffffffffffffffff1673ffffffffffffffffffffffffffffffffffffffff1681526020019081526020015f205f82825401925050819055505b8460025f8681526020019081526020015f205f6101000a81548173ffffffffffffffffffffffffffffffffffffffff021916908373ffffffffffffffffffffffffffffffffffffffff160217905550838573ffffffffffffffffffffffffffffffffffffffff168273ffffffffffffffffffffffffffffffffffffffff167fddf252ad1be2c89b69c2b068fc378daa952ba7f163c4a11628f55a4df523b3ef60405160405180910390a4809150509392505050565b5f80600160095f8573ffffffffffffffffffffffffffffffffffffffff1673ffffffffffffffffffffffffffffffffffffffff1681526020019081526020015f208054905061206b9190613849565b90505f5b60095f8573ffffffffffffffffffffffffffffffffffffffff1673ffffffffffffffffffffffffffffffffffffffff1681526020019081526020015f2080549050811015612130578460095f8673ffffffffffffffffffffffffffffffffffffffff1673ffffffffffffffffffffffffffffffffffffffff1681526020019081526020015f20828154811061210757612106613f9e565b5b905f5260205f2001540361211d57809250612130565b808061212890613802565b91505061206f565b508082146121ec5760095f8473ffffffffffffffffffffffffffffffffffffffff1673ffffffffffffffffffffffffffffffffffffffff1681526020019081526020015f20818154811061218757612186613f9e565b5b905f5260205f20015460095f8573ffffffffffffffffffffffffffffffffffffffff1673ffffffffffffffffffffffffffffffffffffffff1681526020019081526020015f2083815481106121df576121de613f9e565b5b905f5260205f2001819055505b60095f8473ffffffffffffffffffffffffffffffffffffffff1673ffffffffffffffffffffffffffffffffffffffff1681526020019081526020015f2080548061223957612238613fcb565b5b600190038181905f5260205f20015f9055905550505050565b5f61225e5f835f611e11565b90505f73ffffffffffffffffffffffffffffffffffffffff168173ffffffffffffffffffffffffffffffffffffffff16036122d057816040517f7e2732890000000000000000000000000000000000000000000000000000000081526004016122c7919061307d565b60405180910390fd5b5050565b5f73ffffffffffffffffffffffffffffffffffffffff168273ffffffffffffffffffffffffffffffffffffffff1603612344575f6040517f64a0ae9200000000000000000000000000000000000000000000000000000000815260040161233b9190612e99565b60405180910390fd5b5f61235083835f611e11565b90505f73ffffffffffffffffffffffffffffffffffffffff168173ffffffffffffffffffffffffffffffffffffffff16146123c2575f6040517f73c6ac6e0000000000000000000000000000000000000000000000000000000081526004016123b99190612e99565b60405180910390fd5b505050565b5f73ffffffffffffffffffffffffffffffffffffffff168273ffffffffffffffffffffffffffffffffffffffff160361243757816040517f5b08ba1800000000000000000000000000000000000000000000000000000000815260040161242e9190612e99565b60405180910390fd5b8060055f8573ffffffffffffffffffffffffffffffffffffffff1673ffffffffffffffffffffffffffffffffffffffff1681526020019081526020015f205f8473ffffffffffffffffffffffffffffffffffffffff1673ffffffffffffffffffffffffffffffffffffffff1681526020019081526020015f205f6101000a81548160ff0219169083151502179055508173ffffffffffffffffffffffffffffffffffffffff168373ffffffffffffffffffffffffffffffffffffffff167f17307eab39ab6107e8899845ad3d59bd9653f200f220920489ca2b5937696c31836040516125239190612d39565b60405180910390a3505050565b5f8373ffffffffffffffffffffffffffffffffffffffff163b11156126dc578273ffffffffffffffffffffffffffffffffffffffff1663150b7a02612573611df8565b8685856040518563ffffffff1660e01b8152600401612595949392919061404a565b6020604051808303815f875af19250505080156125d057506040513d601f19601f820116820180604052508101906125cd91906140a8565b60015b612651573d805f81146125fe576040519150601f19603f3d011682016040523d82523d5f602084013e612603565b606091505b505f81510361264957836040517f64a0ae920000000000000000000000000000000000000000000000000000000081526004016126409190612e99565b60405180910390fd5b805181602001fd5b63150b7a0260e01b7bffffffffffffffffffffffffffffffffffffffffffffffffffffffff1916817bffffffffffffffffffffffffffffffffffffffffffffffffffffffff1916146126da57836040517f64a0ae920000000000000000000000000000000000000000000000000000000081526004016126d19190612e99565b60405180910390fd5b505b50505050565b606060405180602001604052805f815250905090565b60605f600161270684612a7d565b0190505f8167ffffffffffffffff8111156127245761272361309e565b5b6040519080825280601f01601f1916602001820160405280156127565781602001600182028036833780820191505090505b5090505f82602001820190505b6001156127b7578080600190039150507f3031323334353637383961626364656600000000000000000000000000000000600a86061a8153600a85816127ac576127ab6140d3565b5b0494505f8503612763575b819350505050919050565b5f60025f8381526020019081526020015f205f9054906101000a900473ffffffffffffffffffffffffffffffffffffffff169050919050565b808061283357505f73ffffffffffffffffffffffffffffffffffffffff168273ffffffffffffffffffffffffffffffffffffffff1614155b15612965575f61284284611d39565b90505f73ffffffffffffffffffffffffffffffffffffffff168373ffffffffffffffffffffffffffffffffffffffff16141580156128ac57508273ffffffffffffffffffffffffffffffffffffffff168173ffffffffffffffffffffffffffffffffffffffff1614155b80156128bf57506128bd8184611c42565b155b1561290157826040517fa9fbf51f0000000000000000000000000000000000000000000000000000000081526004016128f89190612e99565b60405180910390fd5b811561296357838573ffffffffffffffffffffffffffffffffffffffff168273ffffffffffffffffffffffffffffffffffffffff167f8c5be1e5ebec7d5bd14f71427d1e84f3dd0314c0f7b2291e5b200ac8c7c3b92560405160405180910390a45b505b8360045f8581526020019081526020015f205f6101000a81548173ffffffffffffffffffffffffffffffffffffffff021916908373ffffffffffffffffffffffffffffffffffffffff16021790555050505050565b6129c5838383612bce565b612a78575f73ffffffffffffffffffffffffffffffffffffffff168373ffffffffffffffffffffffffffffffffffffffff1603612a3957806040517f7e273289000000000000000000000000000000000000000000000000000000008152600401612a30919061307d565b60405180910390fd5b81816040517f177e802f000000000000000000000000000000000000000000000000000000008152600401612a6f929190614100565b60405180910390fd5b505050565b5f805f90507a184f03e93ff9f4daa797ed6e38ed64bf6a1f0100000000000000008310612ad9577a184f03e93ff9f4daa797ed6e38ed64bf6a1f0100000000000000008381612acf57612ace6140d3565b5b0492506040810190505b6d04ee2d6d415b85acef81000000008310612b16576d04ee2d6d415b85acef81000000008381612b0c57612b0b6140d3565b5b0492506020810190505b662386f26fc100008310612b4557662386f26fc100008381612b3b57612b3a6140d3565b5b0492506010810190505b6305f5e1008310612b6e576305f5e1008381612b6457612b636140d3565b5b0492506008810190505b6127108310612b93576127108381612b8957612b886140d3565b5b0492506004810190505b60648310612bb65760648381612bac57612bab6140d3565b5b0492506002810190505b600a8310612bc5576001810190505b80915050919050565b5f8073ffffffffffffffffffffffffffffffffffffffff168373ffffffffffffffffffffffffffffffffffffffff1614158015612c8557508273ffffffffffffffffffffffffffffffffffffffff168473ffffffffffffffffffffffffffffffffffffffff161480612c465750612c458484611c42565b5b80612c8457508273ffffffffffffffffffffffffffffffffffffffff16612c6c83611dbf565b73ffffffffffffffffffffffffffffffffffffffff16145b5b90509392505050565b5f604051905090565b5f80fd5b5f80fd5b5f7fffffffff0000000000000000000000000000000000000000000000000000000082169050919050565b612cd381612c9f565b8114612cdd575f80fd5b50565b5f81359050612cee81612cca565b92915050565b5f60208284031215612d0957612d08612c97565b5b5f612d1684828501612ce0565b91505092915050565b5f8115159050919050565b612d3381612d1f565b82525050565b5f602082019050612d4c5f830184612d2a565b92915050565b5f81519050919050565b5f82825260208201905092915050565b5f5b83811015612d89578082015181840152602081019050612d6e565b5f8484015250505050565b5f601f19601f8301169050919050565b5f612dae82612d52565b612db88185612d5c565b9350612dc8818560208601612d6c565b612dd181612d94565b840191505092915050565b5f6020820190508181035f830152612df48184612da4565b905092915050565b5f819050919050565b612e0e81612dfc565b8114612e18575f80fd5b50565b5f81359050612e2981612e05565b92915050565b5f60208284031215612e4457612e43612c97565b5b5f612e5184828501612e1b565b91505092915050565b5f73ffffffffffffffffffffffffffffffffffffffff82169050919050565b5f612e8382612e5a565b9050919050565b612e9381612e79565b82525050565b5f602082019050612eac5f830184612e8a565b92915050565b612ebb81612e79565b8114612ec5575f80fd5b50565b5f81359050612ed681612eb2565b92915050565b5f8060408385031215612ef257612ef1612c97565b5b5f612eff85828601612ec8565b9250506020612f1085828601612e1b565b9150509250929050565b5f805f60608486031215612f3157612f30612c97565b5b5f612f3e86828701612ec8565b9350506020612f4f86828701612ec8565b9250506040612f6086828701612e1b565b9150509250925092565b5f8060408385031215612f8057612f7f612c97565b5b5f612f8d85828601612e1b565b9250506020612f9e85828601612ec8565b9150509250929050565b612fb181612dfc565b82525050565b5f61018082019050612fcb5f83018f612fa8565b612fd8602083018e612fa8565b612fe5604083018d612fa8565b8181036060830152612ff7818c612da4565b9050818103608083015261300b818b612da4565b905061301a60a083018a612d2a565b61302760c0830189612e8a565b61303460e0830188612d2a565b613042610100830187612d2a565b613050610120830186612d2a565b61305e610140830185612fa8565b61306c610160830184612fa8565b9d9c50505050505050505050505050565b5f6020820190506130905f830184612fa8565b92915050565b5f80fd5b5f80fd5b7f4e487b71000000000000000000000000000000000000000000000000000000005f52604160045260245ffd5b6130d482612d94565b810181811067ffffffffffffffff821117156130f3576130f261309e565b5b80604052505050565b5f613105612c8e565b905061311182826130cb565b919050565b5f67ffffffffffffffff8211156131305761312f61309e565b5b61313982612d94565b9050602081019050919050565b828183375f83830152505050565b5f61316661316184613116565b6130fc565b9050828152602081018484840111156131825761318161309a565b5b61318d848285613146565b509392505050565b5f82601f8301126131a9576131a8613096565b5b81356131b9848260208601613154565b91505092915050565b5f805f805f60a086880312156131db576131da612c97565b5b5f6131e888828901612ec8565b95505060206131f988828901612e1b565b945050604061320a88828901612e1b565b935050606086013567ffffffffffffffff81111561322b5761322a612c9b565b5b61323788828901613195565b925050608086013567ffffffffffffffff81111561325857613257612c9b565b5b61326488828901613195565b9150509295509295909350565b5f6020828403121561328657613285612c97565b5b5f61329384828501612ec8565b91505092915050565b6132a581612d1f565b81146132af575f80fd5b50565b5f813590506132c08161329c565b92915050565b5f80604083850312156132dc576132db612c97565b5b5f6132e985828601612ec8565b92505060206132fa858286016132b2565b9150509250929050565b5f67ffffffffffffffff82111561331e5761331d61309e565b5b61332782612d94565b9050602081019050919050565b5f61334661334184613304565b6130fc565b9050828152602081018484840111156133625761336161309a565b5b61336d848285613146565b509392505050565b5f82601f83011261338957613388613096565b5b8135613399848260208601613334565b91505092915050565b5f805f80608085870312156133ba576133b9612c97565b5b5f6133c787828801612ec8565b94505060206133d887828801612ec8565b93505060406133e987828801612e1b565b925050606085013567ffffffffffffffff81111561340a57613409612c9b565b5b61341687828801613375565b91505092959194509250565b5f806040838503121561343857613437612c97565b5b5f61344585828601612ec8565b925050602061345685828601612ec8565b9150509250929050565b7f4e487b71000000000000000000000000000000000000000000000000000000005f52602260045260245ffd5b5f60028204905060018216806134a457607f821691505b6020821081036134b7576134b6613460565b5b50919050565b5f6060820190506134d05f830186612e8a565b6134dd6020830185612fa8565b6134ea6040830184612e8a565b949350505050565b7f456c20636f6e747261746f207961206861207369646f206669726d61646f00005f82015250565b5f613526601e83612d5c565b9150613531826134f2565b602082019050919050565b5f6020820190508181035f8301526135538161351a565b9050919050565b5f60408201905061356d5f830185612fa8565b61357a6020830184612fa8565b9392505050565b7f536f6c6f20756e206d616e616765722070756564652066696e616c697a6172205f8201527f756e20636f6e747261746f000000000000000000000000000000000000000000602082015250565b5f6135db602b83612d5c565b91506135e682613581565b604082019050919050565b5f6020820190508181035f830152613608816135cf565b9050919050565b7f456c20636f6e747261746f206e6f206861207369646f206669726d61646f00005f82015250565b5f613643601e83612d5c565b915061364e8261360f565b602082019050919050565b5f6020820190508181035f83015261367081613637565b9050919050565b7f456c20636f6e747261746f2079612068612066696e616c697a61646f000000005f82015250565b5f6136ab601c83612d5c565b91506136b682613677565b602082019050919050565b5f6020820190508181035f8301526136d88161369f565b9050919050565b7f456c20636f6e747261746f20686120657870697261646f0000000000000000005f82015250565b5f613713601783612d5c565b915061371e826136df565b602082019050919050565b5f6020820190508181035f83015261374081613707565b9050919050565b7f4465646520656e7669617220656c2073616c6172696f20636f6d6f2076616c6f5f8201527f722064656c20636f6e747261746f000000000000000000000000000000000000602082015250565b5f6137a1602e83612d5c565b91506137ac82613747565b604082019050919050565b5f6020820190508181035f8301526137ce81613795565b9050919050565b7f4e487b71000000000000000000000000000000000000000000000000000000005f52601160045260245ffd5b5f61380c82612dfc565b91507fffffffffffffffffffffffffffffffffffffffffffffffffffffffffffffffff820361383e5761383d6137d5565b5b600182019050919050565b5f61385382612dfc565b915061385e83612dfc565b9250828203905081811115613876576138756137d5565b5b92915050565b5f819050815f5260205f209050919050565b5f6020601f8301049050919050565b5f82821b905092915050565b5f600883026138d87fffffffffffffffffffffffffffffffffffffffffffffffffffffffffffffffff8261389d565b6138e2868361389d565b95508019841693508086168417925050509392505050565b5f819050919050565b5f61391d61391861391384612dfc565b6138fa565b612dfc565b9050919050565b5f819050919050565b61393683613903565b61394a61394282613924565b8484546138a9565b825550505050565b5f90565b61395e613952565b61396981848461392d565b505050565b5b8181101561398c576139815f82613956565b60018101905061396f565b5050565b601f8211156139d1576139a28161387c565b6139ab8461388e565b810160208510156139ba578190505b6139ce6139c68561388e565b83018261396e565b50505b505050565b5f82821c905092915050565b5f6139f15f19846008026139d6565b1980831691505092915050565b5f613a0983836139e2565b9150826002028217905092915050565b613a2282612d52565b67ffffffffffffffff811115613a3b57613a3a61309e565b5b613a45825461348d565b613a50828285613990565b5f60209050601f831160018114613a81575f8415613a6f578287015190505b613a7985826139fe565b865550613ae0565b601f198416613a8f8661387c565b5f5b82811015613ab657848901518255600182019150602085019450602081019050613a91565b86831015613ad35784890151613acf601f8916826139e2565b8355505b6001600288020188555050505b505050505050565b5f606082019050613afb5f830186612fa8565b613b086020830185612fa8565b613b156040830184612fa8565b949350505050565b5f81519050613b2b81612eb2565b92915050565b5f60208284031215613b4657613b45612c97565b5b5f613b5384828501613b1d565b91505092915050565b7f456c20746f6b656e206e6f206578697374652e000000000000000000000000005f82015250565b5f613b90601383612d5c565b9150613b9b82613b5c565b602082019050919050565b5f6020820190508181035f830152613bbd81613b84565b9050919050565b7f4e6f20707565646573206669726d61722074752070726f70696f20636f6e74725f8201527f61746f0000000000000000000000000000000000000000000000000000000000602082015250565b5f613c1e602383612d5c565b9150613c2982613bc4565b604082019050919050565b5f6020820190508181035f830152613c4b81613c12565b9050919050565b7f536f6c6f20656c2074726162616a61646f72207075656465206669726d6172205f8201527f656c20636f6e747261746f000000000000000000000000000000000000000000602082015250565b5f613cac602b83612d5c565b9150613cb782613c52565b604082019050919050565b5f6020820190508181035f830152613cd981613ca0565b9050919050565b7f456c20636f6e747261746f2068612066696e616c697a61646f000000000000005f82015250565b5f613d14601983612d5c565b9150613d1f82613ce0565b602082019050919050565b5f6020820190508181035f830152613d4181613d08565b9050919050565b5f613d5282612dfc565b9150613d5d83612dfc565b9250828201905080821115613d7557613d746137d5565b5b92915050565b5f81905092915050565b5f613d8f82612d52565b613d998185613d7b565b9350613da9818560208601612d6c565b80840191505092915050565b5f613dc08285613d85565b9150613dcc8284613d85565b91508190509392505050565b7f456c2073616c6172696f207961206861207369646f206c6962657261646f00005f82015250565b5f613e0c601e83612d5c565b9150613e1782613dd8565b602082019050919050565b5f6020820190508181035f830152613e3981613e00565b9050919050565b7f536f6c6f20756e206d616e61676572207075656465206c69626572617220656c5f8201527f2073616c6172696f000000000000000000000000000000000000000000000000602082015250565b5f613e9a602883612d5c565b9150613ea582613e40565b604082019050919050565b5f6020820190508181035f830152613ec781613e8e565b9050919050565b7f456c20636f6e747261746f206e6f20686120657870697261646f0000000000005f82015250565b5f613f02601a83612d5c565b9150613f0d82613ece565b602082019050919050565b5f6020820190508181035f830152613f2f81613ef6565b9050919050565b7f456c20636f6e747261746f2065737461207061757361646f00000000000000005f82015250565b5f613f6a601883612d5c565b9150613f7582613f36565b602082019050919050565b5f6020820190508181035f830152613f9781613f5e565b9050919050565b7f4e487b71000000000000000000000000000000000000000000000000000000005f52603260045260245ffd5b7f4e487b71000000000000000000000000000000000000000000000000000000005f52603160045260245ffd5b5f81519050919050565b5f82825260208201905092915050565b5f61401c82613ff8565b6140268185614002565b9350614036818560208601612d6c565b61403f81612d94565b840191505092915050565b5f60808201905061405d5f830187612e8a565b61406a6020830186612e8a565b6140776040830185612fa8565b81810360608301526140898184614012565b905095945050505050565b5f815190506140a281612cca565b92915050565b5f602082840312156140bd576140bc612c97565b5b5f6140ca84828501614094565b91505092915050565b7f4e487b71000000000000000000000000000000000000000000000000000000005f52601260045260245ffd5b5f6040820190506141135f830185612e8a565b6141206020830184612fa8565b939250505056fea2646970667358221220e2027ae846987eb98ce9694a23ec2309fe44144086bac0f16208ce16b6ff6dec64736f6c63430008140033",
  "immutableReferences": {},
  "source": "// SPDX-License-Identifier: MIT\r\npragma solidity ^0.8.20;\r\n\r\nimport \"./MyContract.sol\";\r\n\r\ncontract MyContractManagement is MyContract{\r\n\r\n    mapping(uint256 => mapping(address => bool)) public tokenManagers;\r\n    mapping(address => uint256[]) public contractsOwner;\r\n    mapping(address => uint256[]) public activeContractsOfWorker;\r\n    mapping(address => uint256[]) public unsignedContractsOfWorker;\r\n\r\n    event SalaryReleased(\r\n        uint256 indexed tokenId,\r\n        uint256 salary,\r\n        address indexed worker,\r\n        uint256 timestamp\r\n    );\r\n    event TokenMinted(\r\n        uint256 tokenId,\r\n        address indexed employer,\r\n        uint256 salary,\r\n        uint256 timestamp\r\n    );\r\n    event ContractCancelled(\r\n        uint256 indexed tokenId,\r\n        address indexed employer,\r\n        uint256 salary,\r\n        uint256 timestamp\r\n    );\r\n\r\n\r\n\r\n    function mint(\r\n        address _to,\r\n        uint256 _salary,\r\n        uint256 _duration,\r\n        string memory _description,\r\n        string memory _title\r\n    ) public payable returns (uint256) {\r\n        require(\r\n            msg.value >= _salary,\r\n            \"Dede enviar el salario como valor del contrato\"\r\n        );\r\n        tokenID++;\r\n        _mint(msg.sender, tokenID);\r\n        uint256 remainder = msg.value - _salary;\r\n        if (remainder > 0) {\r\n            payable(msg.sender).transfer(remainder);\r\n        }\r\n\r\n        ContractDetails memory newContract = ContractDetails({\r\n            salary: _salary,\r\n            startDate: block.timestamp,\r\n            duration: _duration,\r\n            title: _title,\r\n            description: _description,\r\n            isSigned: false,\r\n            worker: _to,\r\n            isFinished: false,\r\n            isReleased: false,\r\n            isPaused: false,\r\n            pauseTime: 0,\r\n            pauseDuration: 0\r\n        });\r\n\r\n        contractDetails[tokenID] = newContract;\r\n        tokenManagers[tokenID][msg.sender] = true;\r\n        contractsOwner[msg.sender].push(tokenID);\r\n        unsignedContractsOfWorker[_to].push(tokenID);\r\n        emit TokenMinted(tokenID, msg.sender, _salary, block.timestamp);\r\n\r\n        return tokenID;\r\n    }\r\n\r\n\r\n\r\n    function signContract(uint256 _tokenID) public {\r\n        try this.ownerOf(_tokenID) {} catch {\r\n            revert(\"El token no existe.\"); // he intentado hacerlo con _exists pero no me ha funcionado\r\n        }\r\n        require(\r\n            tokenManagers[_tokenID][msg.sender] == false,\r\n            \"No puedes firmar tu propio contrato\"\r\n        );\r\n        require(\r\n            msg.sender == contractDetails[_tokenID].worker,\r\n            \"Solo el trabajador puede firmar el contrato\"\r\n        );\r\n        require(\r\n            !contractDetails[_tokenID].isSigned,\r\n            \"El contrato ya ha sido firmado\"\r\n        );\r\n        require(\r\n            contractDetails[_tokenID].isFinished == false,\r\n            \"El contrato ha finalizado\"\r\n        );\r\n        require(\r\n            isContractFinished(_tokenID) == false,\r\n            \"El contrato ha expirado\"\r\n        );\r\n\r\n        contractDetails[_tokenID].isSigned = true;\r\n        contractDetails[_tokenID].worker = msg.sender;\r\n        activeContractsOfWorker[msg.sender].push(_tokenID);\r\n    }\r\n\r\n\r\n\r\n    function releaseSalary(uint256 _tokenID) public payable {\r\n        require(\r\n            contractDetails[_tokenID].isSigned,\r\n            \"El contrato no ha sido firmado\"\r\n        );\r\n        require(\r\n            contractDetails[_tokenID].isReleased == false,\r\n            \"El salario ya ha sido liberado\"\r\n        );\r\n        require(\r\n            tokenManagers[_tokenID][msg.sender] == true,\r\n            \"Solo un manager puede liberar el salario\"\r\n        );\r\n        require(\r\n            isContractFinished(_tokenID) == true,\r\n            \"El contrato no ha expirado\"\r\n        );\r\n        require(\r\n            contractDetails[_tokenID].isPaused == false,\r\n            \"El contrato esta pausado\"\r\n        );\r\n\r\n        address payable worker = payable(contractDetails[_tokenID].worker);\r\n        uint256 salary = contractDetails[_tokenID].salary;\r\n        worker.transfer(salary);\r\n        contractDetails[_tokenID].isReleased = true;\r\n        emit SalaryReleased(_tokenID, salary, worker, block.timestamp);\r\n    }\r\n\r\n\r\n\r\n    function finalizeContract(uint256 _tokenID) public {\r\n        require(\r\n            tokenManagers[_tokenID][msg.sender] == true,\r\n            \"Solo un manager puede finalizar un contrato\"\r\n        );\r\n        require(\r\n            contractDetails[_tokenID].isSigned,\r\n            \"El contrato no ha sido firmado\"\r\n        );\r\n        require(\r\n            contractDetails[_tokenID].isFinished == false,\r\n            \"El contrato ya ha finalizado\"\r\n        );\r\n        require(\r\n            isContractFinished(_tokenID) == false,\r\n            \"El contrato ha expirado\"\r\n        );\r\n\r\n        contractDetails[_tokenID].isFinished = true;\r\n    }\r\n\r\n\r\n\r\n    function cancelContract(uint256 _tokenID) public {\r\n        require(\r\n            !contractDetails[_tokenID].isSigned,\r\n            \"El contrato ya ha sido firmado\"\r\n        );\r\n\r\n        address payable owner = payable(ownerOf(_tokenID));\r\n        uint256 salary = contractDetails[_tokenID].salary;\r\n        owner.transfer(salary);\r\n        removeContractFromOwner(_tokenID, owner);\r\n        _burn(_tokenID);\r\n        emit ContractCancelled(_tokenID, owner, salary, block.timestamp);\r\n    }\r\n\r\n\r\n\r\n    function removeContractFromOwner(\r\n        uint256 _tokenId,\r\n        address _owner\r\n    ) internal {\r\n        uint256 contractIndex;\r\n        uint256 lastContractIndex = contractsOwner[_owner].length - 1;\r\n\r\n        for (uint i = 0; i < contractsOwner[_owner].length; i++) {\r\n            if (contractsOwner[_owner][i] == _tokenId) {\r\n                contractIndex = i;\r\n                break;\r\n            }\r\n        }\r\n\r\n        if (contractIndex != lastContractIndex) {\r\n            contractsOwner[_owner][contractIndex] = contractsOwner[_owner][\r\n                lastContractIndex\r\n            ];\r\n        }\r\n        contractsOwner[_owner].pop();\r\n    }\r\n\r\n    \r\n    function isContractFinished(uint256 _tokenID) public view returns (bool) {\r\n        if (contractDetails[_tokenID].isFinished == true) {\r\n            return true;\r\n        }\r\n        if (\r\n            block.timestamp >\r\n            contractDetails[_tokenID].startDate +\r\n                contractDetails[_tokenID].duration +\r\n                contractDetails[_tokenID].pauseDuration\r\n        ) {\r\n            return true;\r\n        }\r\n        return false;\r\n    }\r\n\r\n}\r\n",
  "sourcePath": "E:\\AppContract\\ubu-contractme\\Code\\SmartContract\\contracts\\MyContractManagement.sol",
  "compiler": {
    "name": "solc",
    "version": "0.8.20+commit.a1b79de6.Emscripten.clang"
  },
  "schemaVersion": "3.4.16",
  "updatedAt": "2024-02-23T16:57:44.067Z",
  "devdoc": {
    "errors": {
      "ERC721IncorrectOwner(address,uint256,address)": [
        {
          "details": "Indicates an error related to the ownership over a particular token. Used in transfers.",
          "params": {
            "owner": "Address of the current owner of a token.",
            "sender": "Address whose tokens are being transferred.",
            "tokenId": "Identifier number of a token."
          }
        }
      ],
      "ERC721InsufficientApproval(address,uint256)": [
        {
          "details": "Indicates a failure with the `operator`s approval. Used in transfers.",
          "params": {
            "operator": "Address that may be allowed to operate on tokens without being their owner.",
            "tokenId": "Identifier number of a token."
          }
        }
      ],
      "ERC721InvalidApprover(address)": [
        {
          "details": "Indicates a failure with the `approver` of a token to be approved. Used in approvals.",
          "params": {
            "approver": "Address initiating an approval operation."
          }
        }
      ],
      "ERC721InvalidOperator(address)": [
        {
          "details": "Indicates a failure with the `operator` to be approved. Used in approvals.",
          "params": {
            "operator": "Address that may be allowed to operate on tokens without being their owner."
          }
        }
      ],
      "ERC721InvalidOwner(address)": [
        {
          "details": "Indicates that an address can't be an owner. For example, `address(0)` is a forbidden owner in EIP-20. Used in balance queries.",
          "params": {
            "owner": "Address of the current owner of a token."
          }
        }
      ],
      "ERC721InvalidReceiver(address)": [
        {
          "details": "Indicates a failure with the token `receiver`. Used in transfers.",
          "params": {
            "receiver": "Address to which tokens are being transferred."
          }
        }
      ],
      "ERC721InvalidSender(address)": [
        {
          "details": "Indicates a failure with the token `sender`. Used in transfers.",
          "params": {
            "sender": "Address whose tokens are being transferred."
          }
        }
      ],
      "ERC721NonexistentToken(uint256)": [
        {
          "details": "Indicates a `tokenId` whose `owner` is the zero address.",
          "params": {
            "tokenId": "Identifier number of a token."
          }
        }
      ]
    },
    "events": {
      "Approval(address,address,uint256)": {
        "details": "Emitted when `owner` enables `approved` to manage the `tokenId` token."
      },
      "ApprovalForAll(address,address,bool)": {
        "details": "Emitted when `owner` enables or disables (`approved`) `operator` to manage all of its assets."
      },
      "Transfer(address,address,uint256)": {
        "details": "Emitted when `tokenId` token is transferred from `from` to `to`."
      }
    },
    "kind": "dev",
    "methods": {
      "approve(address,uint256)": {
        "details": "See {IERC721-approve}."
      },
      "balanceOf(address)": {
        "details": "See {IERC721-balanceOf}."
      },
      "getApproved(uint256)": {
        "details": "See {IERC721-getApproved}."
      },
      "isApprovedForAll(address,address)": {
        "details": "See {IERC721-isApprovedForAll}."
      },
      "name()": {
        "details": "See {IERC721Metadata-name}."
      },
      "ownerOf(uint256)": {
        "details": "See {IERC721-ownerOf}."
      },
      "safeTransferFrom(address,address,uint256)": {
        "details": "See {IERC721-safeTransferFrom}."
      },
      "safeTransferFrom(address,address,uint256,bytes)": {
        "details": "See {IERC721-safeTransferFrom}."
      },
      "setApprovalForAll(address,bool)": {
        "details": "See {IERC721-setApprovalForAll}."
      },
      "supportsInterface(bytes4)": {
        "details": "See {IERC165-supportsInterface}."
      },
      "symbol()": {
        "details": "See {IERC721Metadata-symbol}."
      },
      "tokenURI(uint256)": {
        "details": "See {IERC721Metadata-tokenURI}."
      },
      "transferFrom(address,address,uint256)": {
        "details": "See {IERC721-transferFrom}."
      }
    },
    "version": 1
  },
  "userdoc": {
    "kind": "user",
    "methods": {},
    "version": 1
  }
}