{
  "contractName": "MyContractAux",
  "abi": [
    {
      "inputs": [
        {
          "internalType": "address",
          "name": "sender",
          "type": "address"
        },
        {
          "internalType": "uint256",
          "name": "tokenId",
          "type": "uint256"
        },
        {
          "internalType": "address",
          "name": "owner",
          "type": "address"
        }
      ],
      "name": "ERC721IncorrectOwner",
      "type": "error"
    },
    {
      "inputs": [
        {
          "internalType": "address",
          "name": "operator",
          "type": "address"
        },
        {
          "internalType": "uint256",
          "name": "tokenId",
          "type": "uint256"
        }
      ],
      "name": "ERC721InsufficientApproval",
      "type": "error"
    },
    {
      "inputs": [
        {
          "internalType": "address",
          "name": "approver",
          "type": "address"
        }
      ],
      "name": "ERC721InvalidApprover",
      "type": "error"
    },
    {
      "inputs": [
        {
          "internalType": "address",
          "name": "operator",
          "type": "address"
        }
      ],
      "name": "ERC721InvalidOperator",
      "type": "error"
    },
    {
      "inputs": [
        {
          "internalType": "address",
          "name": "owner",
          "type": "address"
        }
      ],
      "name": "ERC721InvalidOwner",
      "type": "error"
    },
    {
      "inputs": [
        {
          "internalType": "address",
          "name": "receiver",
          "type": "address"
        }
      ],
      "name": "ERC721InvalidReceiver",
      "type": "error"
    },
    {
      "inputs": [
        {
          "internalType": "address",
          "name": "sender",
          "type": "address"
        }
      ],
      "name": "ERC721InvalidSender",
      "type": "error"
    },
    {
      "inputs": [
        {
          "internalType": "uint256",
          "name": "tokenId",
          "type": "uint256"
        }
      ],
      "name": "ERC721NonexistentToken",
      "type": "error"
    },
    {
      "anonymous": false,
      "inputs": [
        {
          "indexed": true,
          "internalType": "address",
          "name": "owner",
          "type": "address"
        },
        {
          "indexed": true,
          "internalType": "address",
          "name": "approved",
          "type": "address"
        },
        {
          "indexed": true,
          "internalType": "uint256",
          "name": "tokenId",
          "type": "uint256"
        }
      ],
      "name": "Approval",
      "type": "event"
    },
    {
      "anonymous": false,
      "inputs": [
        {
          "indexed": true,
          "internalType": "uint256",
          "name": "tokenId",
          "type": "uint256"
        },
        {
          "indexed": true,
          "internalType": "address",
          "name": "employer",
          "type": "address"
        },
        {
          "indexed": true,
          "internalType": "address",
          "name": "worker",
          "type": "address"
        },
        {
          "indexed": false,
          "internalType": "uint256",
          "name": "salary",
          "type": "uint256"
        },
        {
          "indexed": false,
          "internalType": "uint256",
          "name": "newSalary",
          "type": "uint256"
        },
        {
          "indexed": false,
          "internalType": "uint256",
          "name": "timestamp",
          "type": "uint256"
        }
      ],
      "name": "ApprovalChanges",
      "type": "event"
    },
    {
      "anonymous": false,
      "inputs": [
        {
          "indexed": true,
          "internalType": "address",
          "name": "owner",
          "type": "address"
        },
        {
          "indexed": true,
          "internalType": "address",
          "name": "operator",
          "type": "address"
        },
        {
          "indexed": false,
          "internalType": "bool",
          "name": "approved",
          "type": "bool"
        }
      ],
      "name": "ApprovalForAll",
      "type": "event"
    },
    {
      "anonymous": false,
      "inputs": [
        {
          "indexed": true,
          "internalType": "uint256",
          "name": "tokenId",
          "type": "uint256"
        },
        {
          "indexed": true,
          "internalType": "address",
          "name": "employer",
          "type": "address"
        },
        {
          "indexed": true,
          "internalType": "address",
          "name": "worker",
          "type": "address"
        },
        {
          "indexed": false,
          "internalType": "uint256",
          "name": "salary",
          "type": "uint256"
        },
        {
          "indexed": false,
          "internalType": "uint256",
          "name": "newSalary",
          "type": "uint256"
        },
        {
          "indexed": false,
          "internalType": "uint256",
          "name": "timestamp",
          "type": "uint256"
        }
      ],
      "name": "ChangeProposed",
      "type": "event"
    },
    {
      "anonymous": false,
      "inputs": [
        {
          "indexed": true,
          "internalType": "uint256",
          "name": "tokenId",
          "type": "uint256"
        },
        {
          "indexed": true,
          "internalType": "address",
          "name": "employer",
          "type": "address"
        },
        {
          "indexed": true,
          "internalType": "address",
          "name": "worker",
          "type": "address"
        },
        {
          "indexed": false,
          "internalType": "uint256",
          "name": "salary",
          "type": "uint256"
        },
        {
          "indexed": false,
          "internalType": "uint256",
          "name": "timestamp",
          "type": "uint256"
        }
      ],
      "name": "ContractCancelled",
      "type": "event"
    },
    {
      "anonymous": false,
      "inputs": [
        {
          "indexed": true,
          "internalType": "uint256",
          "name": "tokenId",
          "type": "uint256"
        },
        {
          "indexed": true,
          "internalType": "address",
          "name": "employer",
          "type": "address"
        },
        {
          "indexed": true,
          "internalType": "address",
          "name": "worker",
          "type": "address"
        },
        {
          "indexed": false,
          "internalType": "uint256",
          "name": "timestamp",
          "type": "uint256"
        }
      ],
      "name": "ContractFinalized",
      "type": "event"
    },
    {
      "anonymous": false,
      "inputs": [
        {
          "indexed": true,
          "internalType": "uint256",
          "name": "tokenId",
          "type": "uint256"
        },
        {
          "indexed": true,
          "internalType": "address",
          "name": "employer",
          "type": "address"
        },
        {
          "indexed": true,
          "internalType": "address",
          "name": "worker",
          "type": "address"
        },
        {
          "indexed": false,
          "internalType": "uint256",
          "name": "timestamp",
          "type": "uint256"
        }
      ],
      "name": "ContractSigned",
      "type": "event"
    },
    {
      "anonymous": false,
      "inputs": [
        {
          "indexed": true,
          "internalType": "uint256",
          "name": "tokenId",
          "type": "uint256"
        },
        {
          "indexed": true,
          "internalType": "address",
          "name": "employer",
          "type": "address"
        },
        {
          "indexed": true,
          "internalType": "address",
          "name": "worker",
          "type": "address"
        },
        {
          "indexed": false,
          "internalType": "uint256",
          "name": "newSalary",
          "type": "uint256"
        },
        {
          "indexed": false,
          "internalType": "uint256",
          "name": "timestamp",
          "type": "uint256"
        }
      ],
      "name": "RejectChanges",
      "type": "event"
    },
    {
      "anonymous": false,
      "inputs": [
        {
          "indexed": true,
          "internalType": "uint256",
          "name": "tokenId",
          "type": "uint256"
        },
        {
          "indexed": false,
          "internalType": "uint256",
          "name": "salary",
          "type": "uint256"
        },
        {
          "indexed": true,
          "internalType": "address",
          "name": "employer",
          "type": "address"
        },
        {
          "indexed": true,
          "internalType": "address",
          "name": "worker",
          "type": "address"
        },
        {
          "indexed": false,
          "internalType": "uint256",
          "name": "timestamp",
          "type": "uint256"
        }
      ],
      "name": "SalaryReleased",
      "type": "event"
    },
    {
      "anonymous": false,
      "inputs": [
        {
          "indexed": false,
          "internalType": "uint256",
          "name": "tokenId",
          "type": "uint256"
        },
        {
          "indexed": true,
          "internalType": "address",
          "name": "employer",
          "type": "address"
        },
        {
          "indexed": true,
          "internalType": "address",
          "name": "worker",
          "type": "address"
        },
        {
          "indexed": false,
          "internalType": "uint256",
          "name": "salary",
          "type": "uint256"
        },
        {
          "indexed": false,
          "internalType": "uint256",
          "name": "timestamp",
          "type": "uint256"
        }
      ],
      "name": "TokenMinted",
      "type": "event"
    },
    {
      "anonymous": false,
      "inputs": [
        {
          "indexed": true,
          "internalType": "address",
          "name": "from",
          "type": "address"
        },
        {
          "indexed": true,
          "internalType": "address",
          "name": "to",
          "type": "address"
        },
        {
          "indexed": true,
          "internalType": "uint256",
          "name": "tokenId",
          "type": "uint256"
        }
      ],
      "name": "Transfer",
      "type": "event"
    },
    {
      "inputs": [
        {
          "internalType": "address",
          "name": "",
          "type": "address"
        },
        {
          "internalType": "uint256",
          "name": "",
          "type": "uint256"
        }
      ],
      "name": "activeContractsOfWorker",
      "outputs": [
        {
          "internalType": "uint256",
          "name": "",
          "type": "uint256"
        }
      ],
      "stateMutability": "view",
      "type": "function"
    },
    {
      "inputs": [
        {
          "internalType": "uint256",
          "name": "_tokenID",
          "type": "uint256"
        }
      ],
      "name": "applyChange",
      "outputs": [],
      "stateMutability": "payable",
      "type": "function"
    },
    {
      "inputs": [
        {
          "internalType": "address",
          "name": "to",
          "type": "address"
        },
        {
          "internalType": "uint256",
          "name": "tokenId",
          "type": "uint256"
        }
      ],
      "name": "approve",
      "outputs": [],
      "stateMutability": "nonpayable",
      "type": "function"
    },
    {
      "inputs": [
        {
          "internalType": "uint256",
          "name": "_tokenID",
          "type": "uint256"
        },
        {
          "internalType": "address",
          "name": "_newManager",
          "type": "address"
        }
      ],
      "name": "assignManagerToToken",
      "outputs": [],
      "stateMutability": "nonpayable",
      "type": "function"
    },
    {
      "inputs": [
        {
          "internalType": "address",
          "name": "owner",
          "type": "address"
        }
      ],
      "name": "balanceOf",
      "outputs": [
        {
          "internalType": "uint256",
          "name": "",
          "type": "uint256"
        }
      ],
      "stateMutability": "view",
      "type": "function"
    },
    {
      "inputs": [
        {
          "internalType": "uint256",
          "name": "_tokenID",
          "type": "uint256"
        }
      ],
      "name": "cancelContract",
      "outputs": [],
      "stateMutability": "nonpayable",
      "type": "function"
    },
    {
      "inputs": [
        {
          "internalType": "uint256",
          "name": "",
          "type": "uint256"
        }
      ],
      "name": "changeProposals",
      "outputs": [
        {
          "internalType": "string",
          "name": "newTitle",
          "type": "string"
        },
        {
          "internalType": "uint256",
          "name": "newSalary",
          "type": "uint256"
        },
        {
          "internalType": "uint256",
          "name": "newDuration",
          "type": "uint256"
        },
        {
          "internalType": "string",
          "name": "newDescription",
          "type": "string"
        },
        {
          "internalType": "bool",
          "name": "isPaused",
          "type": "bool"
        },
        {
          "internalType": "bool",
          "name": "isPending",
          "type": "bool"
        }
      ],
      "stateMutability": "view",
      "type": "function"
    },
    {
      "inputs": [
        {
          "internalType": "uint256",
          "name": "",
          "type": "uint256"
        }
      ],
      "name": "contractDetails",
      "outputs": [
        {
          "internalType": "uint256",
          "name": "salary",
          "type": "uint256"
        },
        {
          "internalType": "uint256",
          "name": "startDate",
          "type": "uint256"
        },
        {
          "internalType": "uint256",
          "name": "duration",
          "type": "uint256"
        },
        {
          "internalType": "string",
          "name": "title",
          "type": "string"
        },
        {
          "internalType": "string",
          "name": "description",
          "type": "string"
        },
        {
          "internalType": "string",
          "name": "country",
          "type": "string"
        },
        {
          "internalType": "string",
          "name": "city",
          "type": "string"
        },
        {
          "internalType": "bool",
          "name": "isSigned",
          "type": "bool"
        },
        {
          "internalType": "address",
          "name": "worker",
          "type": "address"
        },
        {
          "internalType": "bool",
          "name": "isFinished",
          "type": "bool"
        },
        {
          "internalType": "bool",
          "name": "isReleased",
          "type": "bool"
        },
        {
          "internalType": "bool",
          "name": "isPaused",
          "type": "bool"
        },
        {
          "internalType": "uint256",
          "name": "pauseTime",
          "type": "uint256"
        },
        {
          "internalType": "uint256",
          "name": "pauseDuration",
          "type": "uint256"
        }
      ],
      "stateMutability": "view",
      "type": "function"
    },
    {
      "inputs": [
        {
          "internalType": "address",
          "name": "",
          "type": "address"
        },
        {
          "internalType": "uint256",
          "name": "",
          "type": "uint256"
        }
      ],
      "name": "contractsOwner",
      "outputs": [
        {
          "internalType": "uint256",
          "name": "",
          "type": "uint256"
        }
      ],
      "stateMutability": "view",
      "type": "function"
    },
    {
      "inputs": [
        {
          "internalType": "uint256",
          "name": "_tokenID",
          "type": "uint256"
        }
      ],
      "name": "finalizeContract",
      "outputs": [],
      "stateMutability": "nonpayable",
      "type": "function"
    },
    {
      "inputs": [
        {
          "internalType": "uint256",
          "name": "tokenId",
          "type": "uint256"
        }
      ],
      "name": "getApproved",
      "outputs": [
        {
          "internalType": "address",
          "name": "",
          "type": "address"
        }
      ],
      "stateMutability": "view",
      "type": "function"
    },
    {
      "inputs": [
        {
          "internalType": "address",
          "name": "owner",
          "type": "address"
        },
        {
          "internalType": "address",
          "name": "operator",
          "type": "address"
        }
      ],
      "name": "isApprovedForAll",
      "outputs": [
        {
          "internalType": "bool",
          "name": "",
          "type": "bool"
        }
      ],
      "stateMutability": "view",
      "type": "function"
    },
    {
      "inputs": [
        {
          "internalType": "uint256",
          "name": "_tokenID",
          "type": "uint256"
        }
      ],
      "name": "isContractFinished",
      "outputs": [
        {
          "internalType": "bool",
          "name": "",
          "type": "bool"
        }
      ],
      "stateMutability": "view",
      "type": "function"
    },
    {
      "inputs": [
        {
          "internalType": "address",
          "name": "_to",
          "type": "address"
        },
        {
          "internalType": "uint256",
          "name": "_salary",
          "type": "uint256"
        },
        {
          "internalType": "uint256",
          "name": "_start",
          "type": "uint256"
        },
        {
          "internalType": "uint256",
          "name": "_duration",
          "type": "uint256"
        },
        {
          "internalType": "string",
          "name": "_description",
          "type": "string"
        },
        {
          "internalType": "string",
          "name": "_title",
          "type": "string"
        },
        {
          "internalType": "string",
          "name": "_country",
          "type": "string"
        },
        {
          "internalType": "string",
          "name": "_city",
          "type": "string"
        }
      ],
      "name": "mint",
      "outputs": [
        {
          "internalType": "uint256",
          "name": "",
          "type": "uint256"
        }
      ],
      "stateMutability": "payable",
      "type": "function"
    },
    {
      "inputs": [],
      "name": "name",
      "outputs": [
        {
          "internalType": "string",
          "name": "",
          "type": "string"
        }
      ],
      "stateMutability": "view",
      "type": "function"
    },
    {
      "inputs": [
        {
          "internalType": "uint256",
          "name": "tokenId",
          "type": "uint256"
        }
      ],
      "name": "ownerOf",
      "outputs": [
        {
          "internalType": "address",
          "name": "",
          "type": "address"
        }
      ],
      "stateMutability": "view",
      "type": "function"
    },
    {
      "inputs": [
        {
          "internalType": "uint256",
          "name": "_tokenID",
          "type": "uint256"
        }
      ],
      "name": "pauseContract",
      "outputs": [],
      "stateMutability": "nonpayable",
      "type": "function"
    },
    {
      "inputs": [
        {
          "internalType": "uint256",
          "name": "_tokenID",
          "type": "uint256"
        },
        {
          "internalType": "string",
          "name": "_newTitle",
          "type": "string"
        },
        {
          "internalType": "uint256",
          "name": "_newSalary",
          "type": "uint256"
        },
        {
          "internalType": "uint256",
          "name": "_newDuration",
          "type": "uint256"
        },
        {
          "internalType": "string",
          "name": "_newDescription",
          "type": "string"
        },
        {
          "internalType": "bool",
          "name": "_isPaused",
          "type": "bool"
        }
      ],
      "name": "proposeChange",
      "outputs": [],
      "stateMutability": "payable",
      "type": "function"
    },
    {
      "inputs": [
        {
          "internalType": "uint256",
          "name": "_tokenID",
          "type": "uint256"
        }
      ],
      "name": "rejectChange",
      "outputs": [],
      "stateMutability": "nonpayable",
      "type": "function"
    },
    {
      "inputs": [
        {
          "internalType": "uint256",
          "name": "_tokenID",
          "type": "uint256"
        }
      ],
      "name": "releaseSalary",
      "outputs": [],
      "stateMutability": "payable",
      "type": "function"
    },
    {
      "inputs": [
        {
          "internalType": "uint256",
          "name": "_tokenId",
          "type": "uint256"
        },
        {
          "internalType": "address",
          "name": "_manager",
          "type": "address"
        }
      ],
      "name": "revokeManagerFromToken",
      "outputs": [],
      "stateMutability": "nonpayable",
      "type": "function"
    },
    {
      "inputs": [
        {
          "internalType": "address",
          "name": "from",
          "type": "address"
        },
        {
          "internalType": "address",
          "name": "to",
          "type": "address"
        },
        {
          "internalType": "uint256",
          "name": "tokenId",
          "type": "uint256"
        }
      ],
      "name": "safeTransferFrom",
      "outputs": [],
      "stateMutability": "nonpayable",
      "type": "function"
    },
    {
      "inputs": [
        {
          "internalType": "address",
          "name": "from",
          "type": "address"
        },
        {
          "internalType": "address",
          "name": "to",
          "type": "address"
        },
        {
          "internalType": "uint256",
          "name": "tokenId",
          "type": "uint256"
        },
        {
          "internalType": "bytes",
          "name": "data",
          "type": "bytes"
        }
      ],
      "name": "safeTransferFrom",
      "outputs": [],
      "stateMutability": "nonpayable",
      "type": "function"
    },
    {
      "inputs": [
        {
          "internalType": "address",
          "name": "operator",
          "type": "address"
        },
        {
          "internalType": "bool",
          "name": "approved",
          "type": "bool"
        }
      ],
      "name": "setApprovalForAll",
      "outputs": [],
      "stateMutability": "nonpayable",
      "type": "function"
    },
    {
      "inputs": [
        {
          "internalType": "uint256",
          "name": "_tokenID",
          "type": "uint256"
        }
      ],
      "name": "signContract",
      "outputs": [],
      "stateMutability": "nonpayable",
      "type": "function"
    },
    {
      "inputs": [
        {
          "internalType": "bytes4",
          "name": "interfaceId",
          "type": "bytes4"
        }
      ],
      "name": "supportsInterface",
      "outputs": [
        {
          "internalType": "bool",
          "name": "",
          "type": "bool"
        }
      ],
      "stateMutability": "view",
      "type": "function"
    },
    {
      "inputs": [],
      "name": "symbol",
      "outputs": [
        {
          "internalType": "string",
          "name": "",
          "type": "string"
        }
      ],
      "stateMutability": "view",
      "type": "function"
    },
    {
      "inputs": [],
      "name": "tokenID",
      "outputs": [
        {
          "internalType": "uint256",
          "name": "",
          "type": "uint256"
        }
      ],
      "stateMutability": "view",
      "type": "function"
    },
    {
      "inputs": [
        {
          "internalType": "uint256",
          "name": "",
          "type": "uint256"
        },
        {
          "internalType": "address",
          "name": "",
          "type": "address"
        }
      ],
      "name": "tokenManagers",
      "outputs": [
        {
          "internalType": "bool",
          "name": "",
          "type": "bool"
        }
      ],
      "stateMutability": "view",
      "type": "function"
    },
    {
      "inputs": [
        {
          "internalType": "uint256",
          "name": "",
          "type": "uint256"
        },
        {
          "internalType": "uint256",
          "name": "",
          "type": "uint256"
        }
      ],
      "name": "tokenManagersList",
      "outputs": [
        {
          "internalType": "address",
          "name": "",
          "type": "address"
        }
      ],
      "stateMutability": "view",
      "type": "function"
    },
    {
      "inputs": [
        {
          "internalType": "uint256",
          "name": "tokenId",
          "type": "uint256"
        }
      ],
      "name": "tokenURI",
      "outputs": [
        {
          "internalType": "string",
          "name": "",
          "type": "string"
        }
      ],
      "stateMutability": "view",
      "type": "function"
    },
    {
      "inputs": [
        {
          "internalType": "address",
          "name": "from",
          "type": "address"
        },
        {
          "internalType": "address",
          "name": "to",
          "type": "address"
        },
        {
          "internalType": "uint256",
          "name": "tokenId",
          "type": "uint256"
        }
      ],
      "name": "transferFrom",
      "outputs": [],
      "stateMutability": "nonpayable",
      "type": "function"
    },
    {
      "inputs": [
        {
          "internalType": "uint256",
          "name": "_tokenID",
          "type": "uint256"
        }
      ],
      "name": "unPauseContract",
      "outputs": [],
      "stateMutability": "nonpayable",
      "type": "function"
    },
    {
      "inputs": [
        {
          "internalType": "address",
          "name": "",
          "type": "address"
        },
        {
          "internalType": "uint256",
          "name": "",
          "type": "uint256"
        }
      ],
      "name": "unsignedContractsOfWorker",
      "outputs": [
        {
          "internalType": "uint256",
          "name": "",
          "type": "uint256"
        }
      ],
      "stateMutability": "view",
      "type": "function"
    },
    {
      "inputs": [
        {
          "internalType": "uint256",
          "name": "_tokenId",
          "type": "uint256"
        }
      ],
      "name": "getManagersOfToken",
      "outputs": [
        {
          "internalType": "address[]",
          "name": "",
          "type": "address[]"
        }
      ],
      "stateMutability": "view",
      "type": "function"
    },
    {
      "inputs": [
        {
          "internalType": "uint256",
          "name": "_tokenId",
          "type": "uint256"
        },
        {
          "internalType": "address",
          "name": "_manager",
          "type": "address"
        }
      ],
      "name": "isManagerOfToken",
      "outputs": [
        {
          "internalType": "bool",
          "name": "",
          "type": "bool"
        }
      ],
      "stateMutability": "view",
      "type": "function"
    },
    {
      "inputs": [
        {
          "internalType": "address",
          "name": "_address",
          "type": "address"
        }
      ],
      "name": "getContractsFromOwner",
      "outputs": [
        {
          "internalType": "uint256[]",
          "name": "",
          "type": "uint256[]"
        }
      ],
      "stateMutability": "view",
      "type": "function"
    },
    {
      "inputs": [
        {
          "internalType": "address",
          "name": "_address",
          "type": "address"
        }
      ],
      "name": "getContractsOfWorker",
      "outputs": [
        {
          "internalType": "uint256[]",
          "name": "",
          "type": "uint256[]"
        }
      ],
      "stateMutability": "view",
      "type": "function"
    },
    {
      "inputs": [
        {
          "internalType": "address",
          "name": "worker",
          "type": "address"
        }
      ],
      "name": "getUnsignedContractsOfWorker",
      "outputs": [
        {
          "internalType": "uint256[]",
          "name": "",
          "type": "uint256[]"
        }
      ],
      "stateMutability": "view",
      "type": "function"
    },
    {
      "inputs": [
        {
          "internalType": "uint256",
          "name": "_tokenId",
          "type": "uint256"
        }
      ],
      "name": "tokenExists",
      "outputs": [
        {
          "internalType": "bool",
          "name": "",
          "type": "bool"
        }
      ],
      "stateMutability": "view",
      "type": "function"
    },
    {
      "inputs": [
        {
          "internalType": "uint256",
          "name": "_tokenID",
          "type": "uint256"
        }
      ],
      "name": "isContractSigned",
      "outputs": [
        {
          "internalType": "bool",
          "name": "",
          "type": "bool"
        }
      ],
      "stateMutability": "view",
      "type": "function"
    },
    {
      "inputs": [
        {
          "internalType": "uint256",
          "name": "_tokenID",
          "type": "uint256"
        }
      ],
      "name": "getOwnerOfContract",
      "outputs": [
        {
          "internalType": "address",
          "name": "",
          "type": "address"
        }
      ],
      "stateMutability": "view",
      "type": "function"
    }
  ],
  "bytecode": "0x608060405234801562000010575f80fd5b506040518060400160405280600781526020016626bcaa37b5b2b760c91b815250604051806040016040528060038152602001624d544b60e81b815250815f90816200005d919062000115565b5060016200006c828262000115565b505050620001dd565b634e487b7160e01b5f52604160045260245ffd5b600181811c908216806200009e57607f821691505b602082108103620000bd57634e487b7160e01b5f52602260045260245ffd5b50919050565b601f82111562000110575f81815260208120601f850160051c81016020861015620000eb5750805b601f850160051c820191505b818110156200010c57828155600101620000f7565b5050505b505050565b81516001600160401b0381111562000131576200013162000075565b620001498162000142845462000089565b84620000c3565b602080601f8311600181146200017f575f8415620001675750858301515b5f19600386901b1c1916600185901b1785556200010c565b5f85815260208120601f198616915b82811015620001af578886015182559484019460019091019084016200018e565b5085821015620001cd57878501515f19600388901b60f8161c191681555b5050505050600190811b01905550565b613ce580620001eb5f395ff3fe608060405260043610610248575f3560e01c80635376574411610134578063a5c42ef1116100b3578063c87b56dd11610078578063c87b56dd14610733578063d053b45114610752578063e1b1462014610771578063e2c07c7b14610790578063e985e9c5146107a3578063fc5a4efe146107c2575f80fd5b8063a5c42ef1146106a2578063b88d4fde146106b7578063bc3a8e9e146106d6578063bce87156146106f5578063c2852f3814610714575f80fd5b806390d16ce4116100f957806390d16ce41461060057806393a43c191461061f5780639537e8d11461065057806395d89b411461066f578063a22cb46514610683575f80fd5b8063537657441461056457806353eb61b2146105905780636352211e146105a357806370a08231146105c257806389b83d3e146105e1575f80fd5b806328047450116101cb57806336a2d6f51161019057806336a2d6f5146104b4578063409283d0146104d357806342842e0e146104e657806345f18460146105055780634ec3e2aa146105325780634f73d79d14610551575f80fd5b806328047450146103c05780632907eb16146103df578063294a7931146103fe57806331432e45146104375780633330a55f1461047b575f80fd5b8063095ea7b311610211578063095ea7b31461031857806323133e4c146103375780632355e2171461036357806323b872dd1461038257806323e0f237146103a1575f80fd5b8062923f9e1461024c57806301ffc9a714610280578063045b6a4e1461029f57806306fdde03146102c0578063081812fc146102e1575b5f80fd5b348015610257575f80fd5b5061026b6102663660046133ea565b6107f3565b60405190151581526020015b60405180910390f35b34801561028b575f80fd5b5061026b61029a366004613419565b610866565b3480156102aa575f80fd5b506102be6102b9366004613453565b6108b7565b005b3480156102cb575f80fd5b506102d46109da565b60405161027791906134ce565b3480156102ec575f80fd5b506103006102fb3660046133ea565b610a69565b6040516001600160a01b039091168152602001610277565b348015610323575f80fd5b506102be6103323660046134e0565b610a90565b348015610342575f80fd5b5061035661035136600461350a565b610a9b565b6040516102779190613525565b34801561036e575f80fd5b506102be61037d366004613453565b610c4c565b34801561038d575f80fd5b506102be61039c366004613568565b610d75565b3480156103ac575f80fd5b506103006103bb3660046133ea565b610dfe565b3480156103cb575f80fd5b506102be6103da3660046133ea565b610e08565b3480156103ea575f80fd5b506102be6103f93660046133ea565b610fdf565b348015610409575f80fd5b5061026b610418366004613453565b600860209081525f928352604080842090915290825290205460ff1681565b348015610442575f80fd5b5061026b610451366004613453565b5f9182526008602090815260408084206001600160a01b0393909316845291905290205460ff1690565b348015610486575f80fd5b5061049a6104953660046133ea565b611164565b6040516102779e9d9c9b9a999897969594939291906135a6565b3480156104bf575f80fd5b506103006104ce36600461365d565b6113fd565b6102be6104e13660046133ea565b611431565b3480156104f1575f80fd5b506102be610500366004613568565b61178a565b348015610510575f80fd5b5061052461051f3660046134e0565b6117a9565b604051908152602001610277565b34801561053d575f80fd5b506102be61054c3660046133ea565b6117d4565b6102be61055f366004613731565b611a99565b34801561056f575f80fd5b5061058361057e3660046133ea565b611d6f565b60405161027791906137bb565b61052461059e3660046137fb565b611dd8565b3480156105ae575f80fd5b506103006105bd3660046133ea565b6121bc565b3480156105cd575f80fd5b506105246105dc36600461350a565b6121c6565b3480156105ec575f80fd5b506102be6105fb3660046133ea565b61220b565b34801561060b575f80fd5b5061035661061a36600461350a565b6122d2565b34801561062a575f80fd5b5061026b6106393660046133ea565b5f9081526006602052604090206007015460ff1690565b34801561065b575f80fd5b506102be61066a3660046133ea565b61233a565b34801561067a575f80fd5b506102d46124cd565b34801561068e575f80fd5b506102be61069d3660046138cd565b6124dc565b3480156106ad575f80fd5b50610524600d5481565b3480156106c2575f80fd5b506102be6106d1366004613900565b6124e7565b3480156106e1575f80fd5b506105246106f03660046134e0565b6124fe565b348015610700575f80fd5b5061026b61070f3660046133ea565b612517565b34801561071f575f80fd5b506102be61072e3660046133ea565b612602565b34801561073e575f80fd5b506102d461074d3660046133ea565b612665565b34801561075d575f80fd5b5061035661076c36600461350a565b6126d6565b34801561077c575f80fd5b5061052461078b3660046134e0565b61273d565b6102be61079e3660046133ea565b612756565b3480156107ae575f80fd5b5061026b6107bd36600461397b565b612918565b3480156107cd575f80fd5b506107e16107dc3660046133ea565b612945565b604051610277969594939291906139a7565b6040516331a9108f60e11b8152600481018290525f903090636352211e90602401602060405180830381865afa92505050801561084d575060408051601f3d908101601f1916820190925261084a918101906139f2565b60015b61085857505f919050565b50600192915050565b919050565b5f6001600160e01b031982166380ac58cd60e01b148061089657506001600160e01b03198216635b5e139f60e01b145b806108b157506301ffc9a760e01b6001600160e01b03198316145b92915050565b6108c0826121bc565b6001600160a01b0316336001600160a01b031614801561090157505f8281526008602090815260408083206001600160a01b038516845290915290205460ff165b6109265760405162461bcd60e51b815260040161091d90613a0d565b60405180910390fd5b5f5b5f838152600c60205260409020548110156109a2575f838152600c6020526040902080546001600160a01b03841691908390811061096857610968613a42565b5f918252602090912001546001600160a01b0316036109905761098b8382612a8a565b6109a2565b8061099a81613a6a565b915050610928565b505f8281526008602090815260408083206001600160a01b03851684529091529020805460ff191690556109d68282612b58565b5050565b60605f80546109e890613a82565b80601f0160208091040260200160405190810160405280929190818152602001828054610a1490613a82565b8015610a5f5780601f10610a3657610100808354040283529160200191610a5f565b820191905f5260205f20905b815481529060010190602001808311610a4257829003601f168201915b5050505050905090565b5f610a7382612d23565b505f828152600460205260409020546001600160a01b03166108b1565b6109d6828233612d5b565b6001600160a01b0381165f908152600b60205260408120546060918167ffffffffffffffff811115610acf57610acf61367d565b604051908082528060200260200182016040528015610af8578160200160208202803683370190505b5090505f805b83811015610ba8576001600160a01b0386165f908152600b60205260408120805483908110610b2f57610b2f613a42565b5f918252602080832090910154808352600690915260409091206007015490915060ff16158015610b645750610b64816107f3565b15610b955780848481518110610b7c57610b7c613a42565b602090810291909101015282610b9181613a6a565b9350505b5080610ba081613a6a565b915050610afe565b505f8167ffffffffffffffff811115610bc357610bc361367d565b604051908082528060200260200182016040528015610bec578160200160208202803683370190505b5090505f5b82811015610c4257838181518110610c0b57610c0b613a42565b6020026020010151828281518110610c2557610c25613a42565b602090810291909101015280610c3a81613a6a565b915050610bf1565b5095945050505050565b610c55826121bc565b6001600160a01b0316336001600160a01b0316148015610c9757505f8281526008602090815260408083206001600160a01b038516845290915290205460ff16155b8015610cbd5750610ca7826121bc565b6001600160a01b0316816001600160a01b031614155b610cd95760405162461bcd60e51b815260040161091d90613a0d565b5f8281526008602090815260408083206001600160a01b038516845290915290205460ff166109d6575f8281526008602090815260408083206001600160a01b0394909416808452938252808320805460ff19166001908117909155858452600c8352818420805480830182559085528385200180546001600160a01b0319168617905593835260098252822080549384018155825290200155565b6001600160a01b038216610d9e57604051633250574960e11b81525f600482015260240161091d565b5f610daa838333612d68565b9050836001600160a01b0316816001600160a01b031614610df8576040516364283d7b60e01b81526001600160a01b038086166004830152602482018490528216604482015260640161091d565b50505050565b5f6108b1826121bc565b6040516331a9108f60e11b8152600481018290523090636352211e90602401602060405180830381865afa925050508015610e60575060408051601f3d908101601f19168201909252610e5d918101906139f2565b60015b610e7c5760405162461bcd60e51b815260040161091d90613aba565b505f81815260086020908152604080832033845290915290205460ff1615156001148015610ebb57505f8181526006602052604090206007015460ff16155b8015610edf57505f81815260066020526040902060070154600160a81b900460ff16155b8015610ef15750610eef81612517565b155b610f0d5760405162461bcd60e51b815260040161091d90613a0d565b5f610f17826121bc565b5f83815260066020526040808220549051929350916001600160a01b0384169183156108fc02918491818181858888f19350505050158015610f5b573d5f803e3d5ffd5b50610f668383612b58565b610f6f83612e5a565b5f83815260066020526040908190206007015490516001600160a01b0361010090920482169184169085907f344201ab2f1b413c381fe1cb1ae7d24db70f386bce6c330c4c705bba56d233fa90610fd29086904290918252602082015260400190565b60405180910390a4505050565b6040516331a9108f60e11b8152600481018290523090636352211e90602401602060405180830381865afa925050508015611037575060408051601f3d908101601f19168201909252611034918101906139f2565b60015b6110535760405162461bcd60e51b815260040161091d90613aba565b505f81815260086020908152604080832033845290915290205460ff161515600114801561109157505f8181526006602052604090206007015460ff165b80156110b557505f81815260066020526040902060070154600160a81b900460ff16155b80156110c757506110c581612517565b155b6110e35760405162461bcd60e51b815260040161091d90613a0d565b5f818152600660205260409020600701805460ff60a81b1916600160a81b17908190556001600160a01b036101009091041661111e826121bc565b6001600160a01b0316827f86ea1596926f4e3b70b3169cd39eb59f8ada5f00ef929f33bdf925066cc52e8d4260405161115991815260200190565b60405180910390a450565b60066020525f908152604090208054600182015460028301546003840180549394929391929161119390613a82565b80601f01602080910402602001604051908101604052809291908181526020018280546111bf90613a82565b801561120a5780601f106111e15761010080835404028352916020019161120a565b820191905f5260205f20905b8154815290600101906020018083116111ed57829003601f168201915b50505050509080600401805461121f90613a82565b80601f016020809104026020016040519081016040528092919081815260200182805461124b90613a82565b80156112965780601f1061126d57610100808354040283529160200191611296565b820191905f5260205f20905b81548152906001019060200180831161127957829003601f168201915b5050505050908060050180546112ab90613a82565b80601f01602080910402602001604051908101604052809291908181526020018280546112d790613a82565b80156113225780601f106112f957610100808354040283529160200191611322565b820191905f5260205f20905b81548152906001019060200180831161130557829003601f168201915b50505050509080600601805461133790613a82565b80601f016020809104026020016040519081016040528092919081815260200182805461136390613a82565b80156113ae5780601f10611385576101008083540402835291602001916113ae565b820191905f5260205f20905b81548152906001019060200180831161139157829003601f168201915b50505060078401546008850154600990950154939460ff808316956001600160a01b036101008504169550600160a81b840482169450600160b01b8404821693600160b81b900490911691908e565b600c602052815f5260405f208181548110611416575f80fd5b5f918252602090912001546001600160a01b03169150829050565b5f81815260076020526040902060040154610100900460ff16801561145c575061145a81612517565b155b6114785760405162461bcd60e51b815260040161091d90613a0d565b5f81815260076020526040808220815160c0810190925280548290829061149e90613a82565b80601f01602080910402602001604051908101604052809291908181526020018280546114ca90613a82565b80156115155780601f106114ec57610100808354040283529160200191611515565b820191905f5260205f20905b8154815290600101906020018083116114f857829003601f168201915b50505050508152602001600182015481526020016002820154815260200160038201805461154290613a82565b80601f016020809104026020016040519081016040528092919081815260200182805461156e90613a82565b80156115b95780601f10611590576101008083540402835291602001916115b9565b820191905f5260205f20905b81548152906001019060200180831161159c57829003601f168201915b50505091835250506004919091015460ff80821615156020808501919091526101009092041615156040928301525f858152600682529190912054908201519192509081111561165a575f8260200151826116149190613ae7565b90505f611620856121bc565b6040519091506001600160a01b0382169083156108fc029084905f818181858888f19350505050158015611656573d5f803e3d5ffd5b5050505b81515f848152600660205260409020600301906116779082613b47565b506020808301515f858152600690925260409182902090815590830151600282015560608301516004909101906116ae9082613b47565b505f838152600660205260409020600701546080830151600160b81b90910460ff161515901515146116fb578160800151156116f2576116ed83612602565b6116fb565b6116fb8361220b565b5f838152600760208181526040808420600401805461ff00191690556006909152909120015461010090046001600160a01b0316611738846121bc565b6001600160a01b0316847f28e568ffd7b866d7ee8c7dcce7cff305f36a548fd8e7cda30ccea1f23a4a0b2b84866020015142604051610fd2939291909283526020830191909152604082015260600190565b6117a483838360405180602001604052805f8152506124e7565b505050565b600b602052815f5260405f2081815481106117c2575f80fd5b905f5260205f20015f91509150505481565b5f81815260076020526040902060040154610100900460ff1680156117ff57506117fd81612517565b155b61181b5760405162461bcd60e51b815260040161091d90613a0d565b5f81815260076020526040808220815160c0810190925280548290829061184190613a82565b80601f016020809104026020016040519081016040528092919081815260200182805461186d90613a82565b80156118b85780601f1061188f576101008083540402835291602001916118b8565b820191905f5260205f20905b81548152906001019060200180831161189b57829003601f168201915b5050505050815260200160018201548152602001600282015481526020016003820180546118e590613a82565b80601f016020809104026020016040519081016040528092919081815260200182805461191190613a82565b801561195c5780601f106119335761010080835404028352916020019161195c565b820191905f5260205f20905b81548152906001019060200180831161193f57829003601f168201915b50505091835250506004919091015460ff80821615156020808501919091526101009092041615156040928301525f858152600682529190912054908201519192501015611a08575f828152600660209081526040822054908301516119c29190613ae7565b90505f6119ce846121bc565b6040519091506001600160a01b0382169083156108fc029084905f818181858888f19350505050158015611a04573d5f803e3d5ffd5b5050505b5f828152600760208181526040808420600401805461ff00191690556006909152909120015461010090046001600160a01b0316611a45836121bc565b6001600160a01b0316837f03d2c6a7e141c9f725cdadc2844323cf7bfeb5bafe06a6630c4547c22d875b0e846020015142604051611a8d929190918252602082015260400190565b60405180910390a45050565b5f8681526006602052604090206007015460ff168015611abf5750611abd86612517565b155b8015611ae157505f86815260076020526040902060040154610100900460ff16155b8015611b0557505f86815260086020908152604080832033845290915290205460ff165b611b215760405162461bcd60e51b815260040161091d90613a0d565b5f8681526006602052604090205480851115611c00575f611b428287613ae7565b905080341015611bba5760405162461bcd60e51b815260206004820152603a60248201527f466f6e646f7320696e737566696369656e74657320706172612063756272697260448201527f20656c20696e6372656d656e746f2064656c2073616c6172696f000000000000606482015260840161091d565b5f611bc58234613ae7565b90508015611bf957604051339082156108fc029083905f818181858888f19350505050158015611bf7573d5f803e3d5ffd5b505b5050611c59565b80851015611c59575f611c138683613ae7565b90505f611c1f896121bc565b6040519091506001600160a01b0382169083156108fc029084905f818181858888f19350505050158015611c55573d5f803e3d5ffd5b5050505b6040805160c0810182528781526020808201889052818301879052606082018690528415156080830152600160a08301525f8a815260079091529190912081518190611ca59082613b47565b50602082015160018201556040820151600282015560608201516003820190611cce9082613b47565b506080820151600491909101805460a09093015161ffff1990931691151561ff0019169190911761010092151583021790555f8881526006602090815260409182902060070154825185815291820189905242928201929092529190046001600160a01b031690339089907ff2a718b229c0f095f2a0f830f124a99ea0dae61741dd8863bb9f2c1937398e0d9060600160405180910390a450505050505050565b5f818152600c6020908152604091829020805483518184028101840190945280845260609392830182828015611dcc57602002820191905f5260205f20905b81546001600160a01b03168152600190910190602001808311611dae575b50505050509050919050565b5f87341015611e405760405162461bcd60e51b815260206004820152602e60248201527f4465646520656e7669617220656c2073616c6172696f20636f6d6f2076616c6f60448201526d722064656c20636f6e747261746f60901b606482015260840161091d565b600d8054905f611e4f83613a6a565b9190505550611e6033600d54612e92565b5f611e6b8934613ae7565b90508015611e9f57604051339082156108fc029083905f818181858888f19350505050158015611e9d573d5f803e3d5ffd5b505b5f604051806101c001604052808b8152602001428b611ebe9190613c03565b81526020018981526020018781526020018881526020018681526020018581526020015f151581526020018c6001600160a01b031681526020015f151581526020015f151581526020015f151581526020015f81526020015f81525090508060065f600d5481526020019081526020015f205f820151815f015560208201518160010155604082015181600201556060820151816003019081611f619190613b47565b5060808201516004820190611f769082613b47565b5060a08201516005820190611f8b9082613b47565b5060c08201516006820190611fa09082613b47565b5060e0820151816007015f6101000a81548160ff0219169083151502179055506101008201518160070160016101000a8154816001600160a01b0302191690836001600160a01b031602179055506101208201518160070160156101000a81548160ff0219169083151502179055506101408201518160070160166101000a81548160ff0219169083151502179055506101608201518160070160176101000a81548160ff02191690831515021790555061018082015181600801556101a08201518160090155905050600160085f600d5481526020019081526020015f205f336001600160a01b03166001600160a01b031681526020019081526020015f205f6101000a81548160ff02191690831515021790555060095f336001600160a01b03166001600160a01b031681526020019081526020015f20600d54908060018154018082558091505060019003905f5260205f20015f9091909190915055600b5f8c6001600160a01b03166001600160a01b031681526020019081526020015f20600d54908060018154018082558091505060019003905f5260205f20015f90919091909150558a6001600160a01b0316336001600160a01b03167f10eeb30b12e63eae3023c3999b0545d717e8af33edac7f4a0b70b130bfba3359600d548d426040516121a2939291909283526020830191909152604082015260600190565b60405180910390a35050600d549998505050505050505050565b5f6108b182612d23565b5f6001600160a01b0382166121f0576040516322718ad960e21b81525f600482015260240161091d565b506001600160a01b03165f9081526003602052604090205490565b5f81815260066020526040902060070154600160b81b900460ff166122425760405162461bcd60e51b815260040161091d90613a0d565b5f8181526006602052604081206008015461225d9042613ae7565b90508060065f8481526020019081526020015f206002015f8282546122829190613c03565b90915550505f82815260066020526040812060090180548392906122a7908490613c03565b9091555050505f9081526006602052604081206008810191909155600701805460ff60b81b19169055565b6001600160a01b0381165f90815260096020908152604091829020805483518184028101840190945280845260609392830182828015611dcc57602002820191905f5260205f20905b81548152602001906001019080831161231b5750505050509050919050565b6040516331a9108f60e11b8152600481018290523090636352211e90602401602060405180830381865afa925050508015612392575060408051601f3d908101601f1916820190925261238f918101906139f2565b60015b6123ae5760405162461bcd60e51b815260040161091d90613aba565b505f81815260086020908152604080832033845290915290205460ff161580156123e957505f8181526006602052604090206007015460ff16155b801561240d57505f81815260066020526040902060070154600160a81b900460ff16155b801561241f575061241d81612517565b155b61243b5760405162461bcd60e51b815260040161091d90613a0d565b5f81815260066020908152604080832060070180543361010081026001600160a81b0319909216919091176001908117909255808552600a84529184208054918201815584529190922001829055612492826121bc565b6001600160a01b0316827f9678f981bcf017d96c4d9fb4124afb0d1c62735df0ad70bef9fd0f5c18bda4fb4260405161115991815260200190565b6060600180546109e890613a82565b6109d6338383612ef3565b6124f2848484610d75565b610df884848484612f91565b600a602052815f5260405f2081815481106117c2575f80fd5b6040516331a9108f60e11b8152600481018290525f903090636352211e90602401602060405180830381865afa925050508015612571575060408051601f3d908101601f1916820190925261256e918101906139f2565b60015b61258d5760405162461bcd60e51b815260040161091d90613aba565b505f82815260066020526040902060070154600160a81b900460ff1615156001036125ba57506001919050565b5f8281526006602052604090206009810154600282015460019092015490916125e291613c03565b6125ec9190613c03565b4211156125fb57506001919050565b505f919050565b5f81815260066020526040902060070154600160b81b900460ff161561263a5760405162461bcd60e51b815260040161091d90613a0d565b5f90815260066020526040902060078101805460ff60b81b1916600160b81b17905542600890910155565b606061267082612d23565b505f61268660408051602081019091525f815290565b90505f8151116126a45760405180602001604052805f8152506126cf565b806126ae846130b7565b6040516020016126bf929190613c16565b6040516020818303038152906040525b9392505050565b6001600160a01b0381165f908152600a6020908152604091829020805483518184028101840190945280845260609392830182828015611dcc57602002820191905f5260205f209081548152602001906001019080831161231b5750505050509050919050565b6009602052815f5260405f2081815481106117c2575f80fd5b6040516331a9108f60e11b8152600481018290523090636352211e90602401602060405180830381865afa9250505080156127ae575060408051601f3d908101601f191682019092526127ab918101906139f2565b60015b6127ca5760405162461bcd60e51b815260040161091d90613aba565b505f8181526006602052604090206007015460ff16801561280357505f81815260066020526040902060070154600160b01b900460ff16155b801561282c57505f81815260086020908152604080832033845290915290205460ff1615156001145b8015612842575061283c81612517565b15156001145b61285e5760405162461bcd60e51b815260040161091d90613a0d565b5f818152600660205260408082206007810154905491516101009091046001600160a01b03169283916108fc84150291849190818181858888f193505050501580156128ac573d5f803e3d5ffd5b505f8381526006602052604090819020600701805460ff60b01b1916600160b01b179055516001600160a01b03831690339085907f4b5aadc9a65abf047bc2152ff605000b1dd64e7cb420aba7862457538885bfee90610fd29086904290918252602082015260400190565b6001600160a01b039182165f90815260056020908152604080832093909416825291909152205460ff1690565b60076020525f908152604090208054819061295f90613a82565b80601f016020809104026020016040519081016040528092919081815260200182805461298b90613a82565b80156129d65780601f106129ad576101008083540402835291602001916129d6565b820191905f5260205f20905b8154815290600101906020018083116129b957829003601f168201915b5050505050908060010154908060020154908060030180546129f790613a82565b80601f0160208091040260200160405190810160405280929190818152602001828054612a2390613a82565b8015612a6e5780601f10612a4557610100808354040283529160200191612a6e565b820191905f5260205f20905b815481529060010190602001808311612a5157829003601f168201915b5050506004909301549192505060ff8082169161010090041686565b5f828152600c602052604090208054612aa590600190613ae7565b81548110612ab557612ab5613a42565b5f918252602080832090910154848352600c909152604090912080546001600160a01b039092169183908110612aed57612aed613a42565b5f91825260208083209190910180546001600160a01b0319166001600160a01b039490941693909317909255838152600c90915260409020805480612b3457612b34613c44565b5f8281526020902081015f1990810180546001600160a01b03191690550190555050565b6040516331a9108f60e11b8152600481018390523090636352211e90602401602060405180830381865afa925050508015612bb0575060408051601f3d908101601f19168201909252612bad918101906139f2565b60015b612bcc5760405162461bcd60e51b815260040161091d90613aba565b506001600160a01b0381165f908152600960205260408120548190612bf390600190613ae7565b90505f5b6001600160a01b0384165f90815260096020526040902054811015612c6a576001600160a01b0384165f908152600960205260409020805486919083908110612c4257612c42613a42565b905f5260205f20015403612c5857809250612c6a565b80612c6281613a6a565b915050612bf7565b50808214612ce4576001600160a01b0383165f908152600960205260409020805482908110612c9b57612c9b613a42565b905f5260205f20015460095f856001600160a01b03166001600160a01b031681526020019081526020015f208381548110612cd857612cd8613a42565b5f918252602090912001555b6001600160a01b0383165f908152600960205260409020805480612d0a57612d0a613c44565b600190038181905f5260205f20015f9055905550505050565b5f818152600260205260408120546001600160a01b0316806108b157604051637e27328960e01b81526004810184905260240161091d565b6117a48383836001613147565b5f828152600260205260408120546001600160a01b0390811690831615612d9457612d9481848661324b565b6001600160a01b03811615612dce57612daf5f855f80613147565b6001600160a01b0381165f90815260036020526040902080545f190190555b6001600160a01b03851615612dfc576001600160a01b0385165f908152600360205260409020805460010190555b5f8481526002602052604080822080546001600160a01b0319166001600160a01b0389811691821790925591518793918516917fddf252ad1be2c89b69c2b068fc378daa952ba7f163c4a11628f55a4df523b3ef91a4949350505050565b5f612e665f835f612d68565b90506001600160a01b0381166109d657604051637e27328960e01b81526004810183905260240161091d565b6001600160a01b038216612ebb57604051633250574960e11b81525f600482015260240161091d565b5f612ec783835f612d68565b90506001600160a01b038116156117a4576040516339e3563760e11b81525f600482015260240161091d565b6001600160a01b038216612f2557604051630b61174360e31b81526001600160a01b038316600482015260240161091d565b6001600160a01b038381165f81815260056020908152604080832094871680845294825291829020805460ff191686151590811790915591519182527f17307eab39ab6107e8899845ad3d59bd9653f200f220920489ca2b5937696c31910160405180910390a3505050565b6001600160a01b0383163b15610df857604051630a85bd0160e11b81526001600160a01b0384169063150b7a0290612fd3903390889087908790600401613c58565b6020604051808303815f875af192505050801561300d575060408051601f3d908101601f1916820190925261300a91810190613c94565b60015b613074573d80801561303a576040519150601f19603f3d011682016040523d82523d5f602084013e61303f565b606091505b5080515f0361306c57604051633250574960e11b81526001600160a01b038516600482015260240161091d565b805181602001fd5b6001600160e01b03198116630a85bd0160e11b146130b057604051633250574960e11b81526001600160a01b038516600482015260240161091d565b5050505050565b60605f6130c3836132af565b60010190505f8167ffffffffffffffff8111156130e2576130e261367d565b6040519080825280601f01601f19166020018201604052801561310c576020820181803683370190505b5090508181016020015b5f19016f181899199a1a9b1b9c1cb0b131b232b360811b600a86061a8153600a850494508461311657509392505050565b808061315b57506001600160a01b03821615155b1561321c575f61316a84612d23565b90506001600160a01b038316158015906131965750826001600160a01b0316816001600160a01b031614155b80156131a957506131a78184612918565b155b156131d25760405163a9fbf51f60e01b81526001600160a01b038416600482015260240161091d565b811561321a5783856001600160a01b0316826001600160a01b03167f8c5be1e5ebec7d5bd14f71427d1e84f3dd0314c0f7b2291e5b200ac8c7c3b92560405160405180910390a45b505b50505f90815260046020526040902080546001600160a01b0319166001600160a01b0392909216919091179055565b613256838383613386565b6117a4576001600160a01b03831661328457604051637e27328960e01b81526004810182905260240161091d565b60405163177e802f60e01b81526001600160a01b03831660048201526024810182905260440161091d565b5f8072184f03e93ff9f4daa797ed6e38ed64bf6a1f0160401b83106132ed5772184f03e93ff9f4daa797ed6e38ed64bf6a1f0160401b830492506040015b6d04ee2d6d415b85acef81000000008310613319576d04ee2d6d415b85acef8100000000830492506020015b662386f26fc10000831061333757662386f26fc10000830492506010015b6305f5e100831061334f576305f5e100830492506008015b612710831061336357612710830492506004015b60648310613375576064830492506002015b600a83106108b15760010192915050565b5f6001600160a01b038316158015906133e25750826001600160a01b0316846001600160a01b031614806133bf57506133bf8484612918565b806133e257505f828152600460205260409020546001600160a01b038481169116145b949350505050565b5f602082840312156133fa575f80fd5b5035919050565b6001600160e01b031981168114613416575f80fd5b50565b5f60208284031215613429575f80fd5b81356126cf81613401565b6001600160a01b0381168114613416575f80fd5b803561086181613434565b5f8060408385031215613464575f80fd5b82359150602083013561347681613434565b809150509250929050565b5f5b8381101561349b578181015183820152602001613483565b50505f910152565b5f81518084526134ba816020860160208601613481565b601f01601f19169290920160200192915050565b602081525f6126cf60208301846134a3565b5f80604083850312156134f1575f80fd5b82356134fc81613434565b946020939093013593505050565b5f6020828403121561351a575f80fd5b81356126cf81613434565b602080825282518282018190525f9190848201906040850190845b8181101561355c57835183529284019291840191600101613540565b50909695505050505050565b5f805f6060848603121561357a575f80fd5b833561358581613434565b9250602084013561359581613434565b929592945050506040919091013590565b8e81528d60208201528c60408201526101c060608201525f6135cc6101c083018e6134a3565b82810360808401526135de818e6134a3565b905082810360a08401526135f2818d6134a3565b905082810360c0840152613606818c6134a3565b91505061361760e083018a15159052565b6001600160a01b03979097166101008201529415156101208601529215156101408501529015156101608401526101808301526101a09091015298975050505050505050565b5f806040838503121561366e575f80fd5b50508035926020909101359150565b634e487b7160e01b5f52604160045260245ffd5b5f67ffffffffffffffff808411156136ab576136ab61367d565b604051601f8501601f19908116603f011681019082821181831017156136d3576136d361367d565b816040528093508581528686860111156136eb575f80fd5b858560208301375f602087830101525050509392505050565b5f82601f830112613713575f80fd5b6126cf83833560208501613691565b80358015158114610861575f80fd5b5f805f805f8060c08789031215613746575f80fd5b86359550602087013567ffffffffffffffff80821115613764575f80fd5b6137708a838b01613704565b965060408901359550606089013594506080890135915080821115613793575f80fd5b506137a089828a01613704565b9250506137af60a08801613722565b90509295509295509295565b602080825282518282018190525f9190848201906040850190845b8181101561355c5783516001600160a01b0316835292840192918401916001016137d6565b5f805f805f805f80610100898b031215613813575f80fd5b61381c89613448565b9750602089013596506040890135955060608901359450608089013567ffffffffffffffff8082111561384d575f80fd5b6138598c838d01613704565b955060a08b013591508082111561386e575f80fd5b61387a8c838d01613704565b945060c08b013591508082111561388f575f80fd5b61389b8c838d01613704565b935060e08b01359150808211156138b0575f80fd5b506138bd8b828c01613704565b9150509295985092959890939650565b5f80604083850312156138de575f80fd5b82356138e981613434565b91506138f760208401613722565b90509250929050565b5f805f8060808587031215613913575f80fd5b843561391e81613434565b9350602085013561392e81613434565b925060408501359150606085013567ffffffffffffffff811115613950575f80fd5b8501601f81018713613960575f80fd5b61396f87823560208401613691565b91505092959194509250565b5f806040838503121561398c575f80fd5b823561399781613434565b9150602083013561347681613434565b60c081525f6139b960c08301896134a3565b87602084015286604084015282810360608401526139d781876134a3565b9415156080840152505090151560a090910152949350505050565b5f60208284031215613a02575f80fd5b81516126cf81613434565b6020808252818101527f4572726f723a20636f6e646963696f6e6573206e6f2063756d706c696461732e604082015260600190565b634e487b7160e01b5f52603260045260245ffd5b634e487b7160e01b5f52601160045260245ffd5b5f60018201613a7b57613a7b613a56565b5060010190565b600181811c90821680613a9657607f821691505b602082108103613ab457634e487b7160e01b5f52602260045260245ffd5b50919050565b60208082526013908201527222b6103a37b5b2b71037379032bc34b9ba329760691b604082015260600190565b818103818111156108b1576108b1613a56565b601f8211156117a4575f81815260208120601f850160051c81016020861015613b205750805b601f850160051c820191505b81811015613b3f57828155600101613b2c565b505050505050565b815167ffffffffffffffff811115613b6157613b6161367d565b613b7581613b6f8454613a82565b84613afa565b602080601f831160018114613ba8575f8415613b915750858301515b5f19600386901b1c1916600185901b178555613b3f565b5f85815260208120601f198616915b82811015613bd657888601518255948401946001909101908401613bb7565b5085821015613bf357878501515f19600388901b60f8161c191681555b5050505050600190811b01905550565b808201808211156108b1576108b1613a56565b5f8351613c27818460208801613481565b835190830190613c3b818360208801613481565b01949350505050565b634e487b7160e01b5f52603160045260245ffd5b6001600160a01b03858116825284166020820152604081018390526080606082018190525f90613c8a908301846134a3565b9695505050505050565b5f60208284031215613ca4575f80fd5b81516126cf8161340156fea2646970667358221220b26a9012f9bbf3d73925b511260edbec30c5e3a12cad82156cc699e19ae932cd64736f6c63430008140033",
  "immutableReferences": {},
  "source": "// SPDX-License-Identifier: MIT\r\npragma solidity ^0.8.20;\r\n\r\nimport \"./MyContractManagement.sol\";\r\nimport \"./MyContractChanges.sol\";\r\n\r\ncontract MyContractAux is MyContractManagement, MyContractChanges {\r\n    function getManagersOfToken(\r\n        uint256 _tokenId\r\n    ) public view returns (address[] memory) {\r\n        return tokenManagersList[_tokenId];\r\n    }\r\n\r\n    function isManagerOfToken(\r\n        uint256 _tokenId,\r\n        address _manager\r\n    ) public view returns (bool) {\r\n        return tokenManagers[_tokenId][_manager];\r\n    }\r\n\r\n    function getContractsFromOwner(\r\n        address _address\r\n    ) public view returns (uint256[] memory) {\r\n        return contractsOwner[_address];\r\n    }\r\n\r\n    function getContractsOfWorker(\r\n        address _address\r\n    ) public view returns (uint256[] memory) {\r\n        return activeContractsOfWorker[_address];\r\n    }\r\n\r\n    function getUnsignedContractsOfWorker(\r\n        address worker\r\n    ) public view returns (uint256[] memory) {\r\n        uint256 totalContracts = unsignedContractsOfWorker[worker].length;\r\n        uint256[] memory tempContracts = new uint256[](totalContracts);\r\n        uint256 count = 0;\r\n\r\n        for (uint256 i = 0; i < totalContracts; i++) {\r\n            uint256 contractId = unsignedContractsOfWorker[worker][i];\r\n\r\n            if (\r\n                !contractDetails[contractId].isSigned && tokenExists(contractId)\r\n            ) {\r\n                tempContracts[count] = contractId;\r\n                count++;\r\n            }\r\n        }\r\n\r\n        uint256[] memory result = new uint256[](count);\r\n        for (uint256 j = 0; j < count; j++) {\r\n            result[j] = tempContracts[j];\r\n        }\r\n        return result;\r\n    }\r\n\r\n    function tokenExists(uint256 _tokenId) public view returns (bool) {\r\n        try this.ownerOf(_tokenId) {\r\n            return true;\r\n        } catch {\r\n            return false;\r\n        }\r\n    }\r\n\r\n    function isContractSigned(uint256 _tokenID) public view returns (bool) {\r\n        return contractDetails[_tokenID].isSigned;\r\n    }\r\n\r\n    function getOwnerOfContract(\r\n        uint256 _tokenID\r\n    ) public view returns (address) {\r\n        return ownerOf(_tokenID);\r\n    }\r\n}\r\n",
  "sourcePath": "E:\\ubu-contractme\\Code\\SmartContract\\contracts\\MyContractAux.sol",
  "compiler": {
    "name": "solc",
    "version": "0.8.20+commit.a1b79de6.Emscripten.clang"
  },
  "schemaVersion": "3.4.16",
  "updatedAt": "2024-05-15T09:52:32.696Z",
  "devdoc": {
    "errors": {
      "ERC721IncorrectOwner(address,uint256,address)": [
        {
          "details": "Indicates an error related to the ownership over a particular token. Used in transfers.",
          "params": {
            "owner": "Address of the current owner of a token.",
            "sender": "Address whose tokens are being transferred.",
            "tokenId": "Identifier number of a token."
          }
        }
      ],
      "ERC721InsufficientApproval(address,uint256)": [
        {
          "details": "Indicates a failure with the `operator`s approval. Used in transfers.",
          "params": {
            "operator": "Address that may be allowed to operate on tokens without being their owner.",
            "tokenId": "Identifier number of a token."
          }
        }
      ],
      "ERC721InvalidApprover(address)": [
        {
          "details": "Indicates a failure with the `approver` of a token to be approved. Used in approvals.",
          "params": {
            "approver": "Address initiating an approval operation."
          }
        }
      ],
      "ERC721InvalidOperator(address)": [
        {
          "details": "Indicates a failure with the `operator` to be approved. Used in approvals.",
          "params": {
            "operator": "Address that may be allowed to operate on tokens without being their owner."
          }
        }
      ],
      "ERC721InvalidOwner(address)": [
        {
          "details": "Indicates that an address can't be an owner. For example, `address(0)` is a forbidden owner in EIP-20. Used in balance queries.",
          "params": {
            "owner": "Address of the current owner of a token."
          }
        }
      ],
      "ERC721InvalidReceiver(address)": [
        {
          "details": "Indicates a failure with the token `receiver`. Used in transfers.",
          "params": {
            "receiver": "Address to which tokens are being transferred."
          }
        }
      ],
      "ERC721InvalidSender(address)": [
        {
          "details": "Indicates a failure with the token `sender`. Used in transfers.",
          "params": {
            "sender": "Address whose tokens are being transferred."
          }
        }
      ],
      "ERC721NonexistentToken(uint256)": [
        {
          "details": "Indicates a `tokenId` whose `owner` is the zero address.",
          "params": {
            "tokenId": "Identifier number of a token."
          }
        }
      ]
    },
    "events": {
      "Approval(address,address,uint256)": {
        "details": "Emitted when `owner` enables `approved` to manage the `tokenId` token."
      },
      "ApprovalForAll(address,address,bool)": {
        "details": "Emitted when `owner` enables or disables (`approved`) `operator` to manage all of its assets."
      },
      "Transfer(address,address,uint256)": {
        "details": "Emitted when `tokenId` token is transferred from `from` to `to`."
      }
    },
    "kind": "dev",
    "methods": {
      "approve(address,uint256)": {
        "details": "See {IERC721-approve}."
      },
      "balanceOf(address)": {
        "details": "See {IERC721-balanceOf}."
      },
      "getApproved(uint256)": {
        "details": "See {IERC721-getApproved}."
      },
      "isApprovedForAll(address,address)": {
        "details": "See {IERC721-isApprovedForAll}."
      },
      "name()": {
        "details": "See {IERC721Metadata-name}."
      },
      "ownerOf(uint256)": {
        "details": "See {IERC721-ownerOf}."
      },
      "safeTransferFrom(address,address,uint256)": {
        "details": "See {IERC721-safeTransferFrom}."
      },
      "safeTransferFrom(address,address,uint256,bytes)": {
        "details": "See {IERC721-safeTransferFrom}."
      },
      "setApprovalForAll(address,bool)": {
        "details": "See {IERC721-setApprovalForAll}."
      },
      "supportsInterface(bytes4)": {
        "details": "See {IERC165-supportsInterface}."
      },
      "symbol()": {
        "details": "See {IERC721Metadata-symbol}."
      },
      "tokenURI(uint256)": {
        "details": "See {IERC721Metadata-tokenURI}."
      },
      "transferFrom(address,address,uint256)": {
        "details": "See {IERC721-transferFrom}."
      }
    },
    "version": 1
  },
  "userdoc": {
    "kind": "user",
    "methods": {},
    "version": 1
  }
}