{
  "contractName": "MyContract",
  "abi": [
    {
      "inputs": [],
      "stateMutability": "nonpayable",
      "type": "constructor"
    },
    {
      "inputs": [
        {
          "internalType": "address",
          "name": "sender",
          "type": "address"
        },
        {
          "internalType": "uint256",
          "name": "tokenId",
          "type": "uint256"
        },
        {
          "internalType": "address",
          "name": "owner",
          "type": "address"
        }
      ],
      "name": "ERC721IncorrectOwner",
      "type": "error"
    },
    {
      "inputs": [
        {
          "internalType": "address",
          "name": "operator",
          "type": "address"
        },
        {
          "internalType": "uint256",
          "name": "tokenId",
          "type": "uint256"
        }
      ],
      "name": "ERC721InsufficientApproval",
      "type": "error"
    },
    {
      "inputs": [
        {
          "internalType": "address",
          "name": "approver",
          "type": "address"
        }
      ],
      "name": "ERC721InvalidApprover",
      "type": "error"
    },
    {
      "inputs": [
        {
          "internalType": "address",
          "name": "operator",
          "type": "address"
        }
      ],
      "name": "ERC721InvalidOperator",
      "type": "error"
    },
    {
      "inputs": [
        {
          "internalType": "address",
          "name": "owner",
          "type": "address"
        }
      ],
      "name": "ERC721InvalidOwner",
      "type": "error"
    },
    {
      "inputs": [
        {
          "internalType": "address",
          "name": "receiver",
          "type": "address"
        }
      ],
      "name": "ERC721InvalidReceiver",
      "type": "error"
    },
    {
      "inputs": [
        {
          "internalType": "address",
          "name": "sender",
          "type": "address"
        }
      ],
      "name": "ERC721InvalidSender",
      "type": "error"
    },
    {
      "inputs": [
        {
          "internalType": "uint256",
          "name": "tokenId",
          "type": "uint256"
        }
      ],
      "name": "ERC721NonexistentToken",
      "type": "error"
    },
    {
      "anonymous": false,
      "inputs": [
        {
          "indexed": true,
          "internalType": "address",
          "name": "owner",
          "type": "address"
        },
        {
          "indexed": true,
          "internalType": "address",
          "name": "approved",
          "type": "address"
        },
        {
          "indexed": true,
          "internalType": "uint256",
          "name": "tokenId",
          "type": "uint256"
        }
      ],
      "name": "Approval",
      "type": "event"
    },
    {
      "anonymous": false,
      "inputs": [
        {
          "indexed": true,
          "internalType": "address",
          "name": "owner",
          "type": "address"
        },
        {
          "indexed": true,
          "internalType": "address",
          "name": "operator",
          "type": "address"
        },
        {
          "indexed": false,
          "internalType": "bool",
          "name": "approved",
          "type": "bool"
        }
      ],
      "name": "ApprovalForAll",
      "type": "event"
    },
    {
      "anonymous": false,
      "inputs": [
        {
          "indexed": true,
          "internalType": "uint256",
          "name": "tokenId",
          "type": "uint256"
        },
        {
          "indexed": false,
          "internalType": "address",
          "name": "worker",
          "type": "address"
        }
      ],
      "name": "ContractSigned",
      "type": "event"
    },
    {
      "anonymous": false,
      "inputs": [
        {
          "indexed": true,
          "internalType": "uint256",
          "name": "tokenId",
          "type": "uint256"
        },
        {
          "indexed": false,
          "internalType": "uint256",
          "name": "salary",
          "type": "uint256"
        }
      ],
      "name": "SalaryReleased",
      "type": "event"
    },
    {
      "anonymous": false,
      "inputs": [
        {
          "indexed": false,
          "internalType": "uint256",
          "name": "tokenId",
          "type": "uint256"
        }
      ],
      "name": "TokenMinted",
      "type": "event"
    },
    {
      "anonymous": false,
      "inputs": [
        {
          "indexed": true,
          "internalType": "address",
          "name": "from",
          "type": "address"
        },
        {
          "indexed": true,
          "internalType": "address",
          "name": "to",
          "type": "address"
        },
        {
          "indexed": true,
          "internalType": "uint256",
          "name": "tokenId",
          "type": "uint256"
        }
      ],
      "name": "Transfer",
      "type": "event"
    },
    {
      "inputs": [
        {
          "internalType": "address",
          "name": "to",
          "type": "address"
        },
        {
          "internalType": "uint256",
          "name": "tokenId",
          "type": "uint256"
        }
      ],
      "name": "approve",
      "outputs": [],
      "stateMutability": "nonpayable",
      "type": "function"
    },
    {
      "inputs": [
        {
          "internalType": "address",
          "name": "owner",
          "type": "address"
        }
      ],
      "name": "balanceOf",
      "outputs": [
        {
          "internalType": "uint256",
          "name": "",
          "type": "uint256"
        }
      ],
      "stateMutability": "view",
      "type": "function",
      "constant": true
    },
    {
      "inputs": [
        {
          "internalType": "uint256",
          "name": "",
          "type": "uint256"
        }
      ],
      "name": "contractDetails",
      "outputs": [
        {
          "internalType": "uint256",
          "name": "salary",
          "type": "uint256"
        },
        {
          "internalType": "uint256",
          "name": "startDate",
          "type": "uint256"
        },
        {
          "internalType": "uint256",
          "name": "duration",
          "type": "uint256"
        },
        {
          "internalType": "string",
          "name": "description",
          "type": "string"
        },
        {
          "internalType": "bool",
          "name": "isSigned",
          "type": "bool"
        },
        {
          "internalType": "address",
          "name": "worker",
          "type": "address"
        }
      ],
      "stateMutability": "view",
      "type": "function",
      "constant": true
    },
    {
      "inputs": [
        {
          "internalType": "uint256",
          "name": "tokenId",
          "type": "uint256"
        }
      ],
      "name": "getApproved",
      "outputs": [
        {
          "internalType": "address",
          "name": "",
          "type": "address"
        }
      ],
      "stateMutability": "view",
      "type": "function",
      "constant": true
    },
    {
      "inputs": [
        {
          "internalType": "address",
          "name": "owner",
          "type": "address"
        },
        {
          "internalType": "address",
          "name": "operator",
          "type": "address"
        }
      ],
      "name": "isApprovedForAll",
      "outputs": [
        {
          "internalType": "bool",
          "name": "",
          "type": "bool"
        }
      ],
      "stateMutability": "view",
      "type": "function",
      "constant": true
    },
    {
      "inputs": [],
      "name": "name",
      "outputs": [
        {
          "internalType": "string",
          "name": "",
          "type": "string"
        }
      ],
      "stateMutability": "view",
      "type": "function",
      "constant": true
    },
    {
      "inputs": [
        {
          "internalType": "uint256",
          "name": "tokenId",
          "type": "uint256"
        }
      ],
      "name": "ownerOf",
      "outputs": [
        {
          "internalType": "address",
          "name": "",
          "type": "address"
        }
      ],
      "stateMutability": "view",
      "type": "function",
      "constant": true
    },
    {
      "inputs": [
        {
          "internalType": "address",
          "name": "from",
          "type": "address"
        },
        {
          "internalType": "address",
          "name": "to",
          "type": "address"
        },
        {
          "internalType": "uint256",
          "name": "tokenId",
          "type": "uint256"
        }
      ],
      "name": "safeTransferFrom",
      "outputs": [],
      "stateMutability": "nonpayable",
      "type": "function"
    },
    {
      "inputs": [
        {
          "internalType": "address",
          "name": "from",
          "type": "address"
        },
        {
          "internalType": "address",
          "name": "to",
          "type": "address"
        },
        {
          "internalType": "uint256",
          "name": "tokenId",
          "type": "uint256"
        },
        {
          "internalType": "bytes",
          "name": "data",
          "type": "bytes"
        }
      ],
      "name": "safeTransferFrom",
      "outputs": [],
      "stateMutability": "nonpayable",
      "type": "function"
    },
    {
      "inputs": [
        {
          "internalType": "address",
          "name": "operator",
          "type": "address"
        },
        {
          "internalType": "bool",
          "name": "approved",
          "type": "bool"
        }
      ],
      "name": "setApprovalForAll",
      "outputs": [],
      "stateMutability": "nonpayable",
      "type": "function"
    },
    {
      "inputs": [
        {
          "internalType": "bytes4",
          "name": "interfaceId",
          "type": "bytes4"
        }
      ],
      "name": "supportsInterface",
      "outputs": [
        {
          "internalType": "bool",
          "name": "",
          "type": "bool"
        }
      ],
      "stateMutability": "view",
      "type": "function",
      "constant": true
    },
    {
      "inputs": [],
      "name": "symbol",
      "outputs": [
        {
          "internalType": "string",
          "name": "",
          "type": "string"
        }
      ],
      "stateMutability": "view",
      "type": "function",
      "constant": true
    },
    {
      "inputs": [
        {
          "internalType": "uint256",
          "name": "tokenId",
          "type": "uint256"
        }
      ],
      "name": "tokenURI",
      "outputs": [
        {
          "internalType": "string",
          "name": "",
          "type": "string"
        }
      ],
      "stateMutability": "view",
      "type": "function",
      "constant": true
    },
    {
      "inputs": [
        {
          "internalType": "address",
          "name": "from",
          "type": "address"
        },
        {
          "internalType": "address",
          "name": "to",
          "type": "address"
        },
        {
          "internalType": "uint256",
          "name": "tokenId",
          "type": "uint256"
        }
      ],
      "name": "transferFrom",
      "outputs": [],
      "stateMutability": "nonpayable",
      "type": "function"
    },
    {
      "inputs": [
        {
          "internalType": "uint256",
          "name": "_salary",
          "type": "uint256"
        },
        {
          "internalType": "uint256",
          "name": "_duration",
          "type": "uint256"
        },
        {
          "internalType": "string",
          "name": "_description",
          "type": "string"
        }
      ],
      "name": "mint",
      "outputs": [
        {
          "internalType": "uint256",
          "name": "",
          "type": "uint256"
        }
      ],
      "stateMutability": "payable",
      "type": "function",
      "payable": true
    },
    {
      "inputs": [
        {
          "internalType": "uint256",
          "name": "_tokenID",
          "type": "uint256"
        }
      ],
      "name": "signContract",
      "outputs": [],
      "stateMutability": "payable",
      "type": "function",
      "payable": true
    },
    {
      "inputs": [
        {
          "internalType": "uint256",
          "name": "_tokenID",
          "type": "uint256"
        }
      ],
      "name": "releaseSalary",
      "outputs": [],
      "stateMutability": "payable",
      "type": "function",
      "payable": true
    }
  ],
  "bytecode": "0x608060405234801562000010575f80fd5b506040518060400160405280600781526020017f4d79546f6b656e000000000000000000000000000000000000000000000000008152506040518060400160405280600381526020017f4d544b0000000000000000000000000000000000000000000000000000000000815250815f90816200008d91906200030c565b5080600190816200009f91906200030c565b505050620003f0565b5f81519050919050565b7f4e487b71000000000000000000000000000000000000000000000000000000005f52604160045260245ffd5b7f4e487b71000000000000000000000000000000000000000000000000000000005f52602260045260245ffd5b5f60028204905060018216806200012457607f821691505b6020821081036200013a5762000139620000df565b5b50919050565b5f819050815f5260205f209050919050565b5f6020601f8301049050919050565b5f82821b905092915050565b5f600883026200019e7fffffffffffffffffffffffffffffffffffffffffffffffffffffffffffffffff8262000161565b620001aa868362000161565b95508019841693508086168417925050509392505050565b5f819050919050565b5f819050919050565b5f620001f4620001ee620001e884620001c2565b620001cb565b620001c2565b9050919050565b5f819050919050565b6200020f83620001d4565b620002276200021e82620001fb565b8484546200016d565b825550505050565b5f90565b6200023d6200022f565b6200024a81848462000204565b505050565b5b818110156200027157620002655f8262000233565b60018101905062000250565b5050565b601f821115620002c0576200028a8162000140565b620002958462000152565b81016020851015620002a5578190505b620002bd620002b48562000152565b8301826200024f565b50505b505050565b5f82821c905092915050565b5f620002e25f1984600802620002c5565b1980831691505092915050565b5f620002fc8383620002d1565b9150826002028217905092915050565b6200031782620000a8565b67ffffffffffffffff811115620003335762000332620000b2565b5b6200033f82546200010c565b6200034c82828562000275565b5f60209050601f83116001811462000382575f84156200036d578287015190505b620003798582620002ef565b865550620003e8565b601f198416620003928662000140565b5f5b82811015620003bb5784890151825560018201915060208501945060208101905062000394565b86831015620003db5784890151620003d7601f891682620002d1565b8355505b6001600288020188555050505b505050505050565b612f6180620003fe5f395ff3fe6080604052600436106100fd575f3560e01c806370a0823111610094578063b88d4fde11610063578063b88d4fde14610342578063c6e64e531461036a578063c87b56dd1461039a578063e2c07c7b146103d6578063e985e9c5146103f2576100fd565b806370a08231146102985780639537e8d1146102d457806395d89b41146102f0578063a22cb4651461031a576100fd565b806323b872dd116100d057806323b872dd146101cb5780633330a55f146101f357806342842e0e146102345780636352211e1461025c576100fd565b806301ffc9a71461010157806306fdde031461013d578063081812fc14610167578063095ea7b3146101a3575b5f80fd5b34801561010c575f80fd5b5061012760048036038101906101229190611f4b565b61042e565b6040516101349190611f90565b60405180910390f35b348015610148575f80fd5b5061015161050f565b60405161015e9190612033565b60405180910390f35b348015610172575f80fd5b5061018d60048036038101906101889190612086565b61059e565b60405161019a91906120f0565b60405180910390f35b3480156101ae575f80fd5b506101c960048036038101906101c49190612133565b6105b9565b005b3480156101d6575f80fd5b506101f160048036038101906101ec9190612171565b6105cf565b005b3480156101fe575f80fd5b5061021960048036038101906102149190612086565b6106ce565b60405161022b969594939291906121d0565b60405180910390f35b34801561023f575f80fd5b5061025a60048036038101906102559190612171565b6107b8565b005b348015610267575f80fd5b50610282600480360381019061027d9190612086565b6107d7565b60405161028f91906120f0565b60405180910390f35b3480156102a3575f80fd5b506102be60048036038101906102b99190612236565b6107e8565b6040516102cb9190612261565b60405180910390f35b6102ee60048036038101906102e99190612086565b61089e565b005b3480156102fb575f80fd5b50610304610b58565b6040516103119190612033565b60405180910390f35b348015610325575f80fd5b50610340600480360381019061033b91906122a4565b610be8565b005b34801561034d575f80fd5b506103686004803603810190610363919061240e565b610bfe565b005b610384600480360381019061037f919061252c565b610c1b565b6040516103919190612261565b60405180910390f35b3480156103a5575f80fd5b506103c060048036038101906103bb9190612086565b610e1c565b6040516103cd9190612033565b60405180910390f35b6103f060048036038101906103eb9190612086565b610e82565b005b3480156103fd575f80fd5b5061041860048036038101906104139190612598565b611151565b6040516104259190611f90565b60405180910390f35b5f7f80ac58cd000000000000000000000000000000000000000000000000000000007bffffffffffffffffffffffffffffffffffffffffffffffffffffffff1916827bffffffffffffffffffffffffffffffffffffffffffffffffffffffff191614806104f857507f5b5e139f000000000000000000000000000000000000000000000000000000007bffffffffffffffffffffffffffffffffffffffffffffffffffffffff1916827bffffffffffffffffffffffffffffffffffffffffffffffffffffffff1916145b806105085750610507826111df565b5b9050919050565b60605f805461051d90612603565b80601f016020809104026020016040519081016040528092919081815260200182805461054990612603565b80156105945780601f1061056b57610100808354040283529160200191610594565b820191905f5260205f20905b81548152906001019060200180831161057757829003601f168201915b5050505050905090565b5f6105a882611248565b506105b2826112ce565b9050919050565b6105cb82826105c6611307565b61130e565b5050565b5f73ffffffffffffffffffffffffffffffffffffffff168273ffffffffffffffffffffffffffffffffffffffff160361063f575f6040517f64a0ae9200000000000000000000000000000000000000000000000000000000815260040161063691906120f0565b60405180910390fd5b5f610652838361064d611307565b611320565b90508373ffffffffffffffffffffffffffffffffffffffff168173ffffffffffffffffffffffffffffffffffffffff16146106c8578382826040517f64283d7b0000000000000000000000000000000000000000000000000000000081526004016106bf93929190612633565b60405180910390fd5b50505050565b6007602052805f5260405f205f91509050805f0154908060010154908060020154908060030180546106ff90612603565b80601f016020809104026020016040519081016040528092919081815260200182805461072b90612603565b80156107765780601f1061074d57610100808354040283529160200191610776565b820191905f5260205f20905b81548152906001019060200180831161075957829003601f168201915b505050505090806004015f9054906101000a900460ff16908060040160019054906101000a900473ffffffffffffffffffffffffffffffffffffffff16905086565b6107d283838360405180602001604052805f815250610bfe565b505050565b5f6107e182611248565b9050919050565b5f8073ffffffffffffffffffffffffffffffffffffffff168273ffffffffffffffffffffffffffffffffffffffff1603610859575f6040517f89c62b6400000000000000000000000000000000000000000000000000000000815260040161085091906120f0565b60405180910390fd5b60035f8373ffffffffffffffffffffffffffffffffffffffff1673ffffffffffffffffffffffffffffffffffffffff1681526020019081526020015f20549050919050565b3073ffffffffffffffffffffffffffffffffffffffff16636352211e826040518263ffffffff1660e01b81526004016108d79190612261565b602060405180830381865afa92505050801561091157506040513d601f19601f8201168201806040525081019061090e919061267c565b60015b610950576040517f08c379a0000000000000000000000000000000000000000000000000000000008152600401610947906126f1565b60405180910390fd5b5061095a816107d7565b73ffffffffffffffffffffffffffffffffffffffff163373ffffffffffffffffffffffffffffffffffffffff16036109c7576040517f08c379a00000000000000000000000000000000000000000000000000000000081526004016109be9061277f565b60405180910390fd5b60075f8281526020019081526020015f206004015f9054906101000a900460ff1615610a28576040517f08c379a0000000000000000000000000000000000000000000000000000000008152600401610a1f906127e7565b60405180910390fd5b4260075f8381526020019081526020015f206002015460075f8481526020019081526020015f2060010154610a5d9190612832565b1015610a9e576040517f08c379a0000000000000000000000000000000000000000000000000000000008152600401610a95906128af565b60405180910390fd5b600160075f8381526020019081526020015f206004015f6101000a81548160ff0219169083151502179055503360075f8381526020019081526020015f2060040160016101000a81548173ffffffffffffffffffffffffffffffffffffffff021916908373ffffffffffffffffffffffffffffffffffffffff160217905550807fcd3b1fcca80f9caae633c3e13546995d3810e561957af92839f070c46571942c33604051610b4d91906120f0565b60405180910390a250565b606060018054610b6790612603565b80601f0160208091040260200160405190810160405280929190818152602001828054610b9390612603565b8015610bde5780601f10610bb557610100808354040283529160200191610bde565b820191905f5260205f20905b815481529060010190602001808311610bc157829003601f168201915b5050505050905090565b610bfa610bf3611307565b838361152b565b5050565b610c098484846105cf565b610c1584848484611694565b50505050565b5f83341015610c5f576040517f08c379a0000000000000000000000000000000000000000000000000000000008152600401610c569061293d565b60405180910390fd5b60065f815480929190610c719061295b565b9190505550610c8233600654611846565b5f8434610c8f91906129a2565b90505f811115610cde573373ffffffffffffffffffffffffffffffffffffffff166108fc8290811502906040515f60405180830381858888f19350505050158015610cdc573d5f803e3d5ffd5b505b5f6040518060c001604052808781526020014281526020018681526020018581526020015f151581526020015f73ffffffffffffffffffffffffffffffffffffffff1681525090508060075f60065481526020019081526020015f205f820151815f015560208201518160010155604082015181600201556060820151816003019081610d6b9190612b72565b506080820151816004015f6101000a81548160ff02191690831515021790555060a08201518160040160016101000a81548173ffffffffffffffffffffffffffffffffffffffff021916908373ffffffffffffffffffffffffffffffffffffffff1602179055509050507ff00d28232b285f24f2e38415deb2ceb31069e70d4505838b3911b4f02058502e600654604051610e069190612261565b60405180910390a1600654925050509392505050565b6060610e2782611248565b505f610e31611939565b90505f815111610e4f5760405180602001604052805f815250610e7a565b80610e598461194f565b604051602001610e6a929190612c7b565b6040516020818303038152906040525b915050919050565b3073ffffffffffffffffffffffffffffffffffffffff16636352211e826040518263ffffffff1660e01b8152600401610ebb9190612261565b602060405180830381865afa925050508015610ef557506040513d601f19601f82011682018060405250810190610ef2919061267c565b60015b610f34576040517f08c379a0000000000000000000000000000000000000000000000000000000008152600401610f2b906126f1565b60405180910390fd5b5060075f8281526020019081526020015f206004015f9054906101000a900460ff16610f95576040517f08c379a0000000000000000000000000000000000000000000000000000000008152600401610f8c90612ce8565b60405180910390fd5b610f9e816107d7565b73ffffffffffffffffffffffffffffffffffffffff163373ffffffffffffffffffffffffffffffffffffffff161461100b576040517f08c379a000000000000000000000000000000000000000000000000000000000815260040161100290612d76565b60405180910390fd5b4260075f8381526020019081526020015f206002015460075f8481526020019081526020015f20600101546110409190612832565b1115611081576040517f08c379a000000000000000000000000000000000000000000000000000000000815260040161107890612dde565b60405180910390fd5b5f60075f8381526020019081526020015f2060040160019054906101000a900473ffffffffffffffffffffffffffffffffffffffff1690505f60075f8481526020019081526020015f205f015490508173ffffffffffffffffffffffffffffffffffffffff166108fc8290811502906040515f60405180830381858888f19350505050158015611113573d5f803e3d5ffd5b50827f2b52860c5e15aa76ac91d132433549dfe5214c66e36bdb998622ab221c7477c0826040516111449190612261565b60405180910390a2505050565b5f60055f8473ffffffffffffffffffffffffffffffffffffffff1673ffffffffffffffffffffffffffffffffffffffff1681526020019081526020015f205f8373ffffffffffffffffffffffffffffffffffffffff1673ffffffffffffffffffffffffffffffffffffffff1681526020019081526020015f205f9054906101000a900460ff16905092915050565b5f7f01ffc9a7000000000000000000000000000000000000000000000000000000007bffffffffffffffffffffffffffffffffffffffffffffffffffffffff1916827bffffffffffffffffffffffffffffffffffffffffffffffffffffffff1916149050919050565b5f8061125383611a19565b90505f73ffffffffffffffffffffffffffffffffffffffff168173ffffffffffffffffffffffffffffffffffffffff16036112c557826040517f7e2732890000000000000000000000000000000000000000000000000000000081526004016112bc9190612261565b60405180910390fd5b80915050919050565b5f60045f8381526020019081526020015f205f9054906101000a900473ffffffffffffffffffffffffffffffffffffffff169050919050565b5f33905090565b61131b8383836001611a52565b505050565b5f8061132b84611a19565b90505f73ffffffffffffffffffffffffffffffffffffffff168373ffffffffffffffffffffffffffffffffffffffff161461136c5761136b818486611c11565b5b5f73ffffffffffffffffffffffffffffffffffffffff168173ffffffffffffffffffffffffffffffffffffffff16146113f7576113ab5f855f80611a52565b600160035f8373ffffffffffffffffffffffffffffffffffffffff1673ffffffffffffffffffffffffffffffffffffffff1681526020019081526020015f205f82825403925050819055505b5f73ffffffffffffffffffffffffffffffffffffffff168573ffffffffffffffffffffffffffffffffffffffff161461147657600160035f8773ffffffffffffffffffffffffffffffffffffffff1673ffffffffffffffffffffffffffffffffffffffff1681526020019081526020015f205f82825401925050819055505b8460025f8681526020019081526020015f205f6101000a81548173ffffffffffffffffffffffffffffffffffffffff021916908373ffffffffffffffffffffffffffffffffffffffff160217905550838573ffffffffffffffffffffffffffffffffffffffff168273ffffffffffffffffffffffffffffffffffffffff167fddf252ad1be2c89b69c2b068fc378daa952ba7f163c4a11628f55a4df523b3ef60405160405180910390a4809150509392505050565b5f73ffffffffffffffffffffffffffffffffffffffff168273ffffffffffffffffffffffffffffffffffffffff160361159b57816040517f5b08ba1800000000000000000000000000000000000000000000000000000000815260040161159291906120f0565b60405180910390fd5b8060055f8573ffffffffffffffffffffffffffffffffffffffff1673ffffffffffffffffffffffffffffffffffffffff1681526020019081526020015f205f8473ffffffffffffffffffffffffffffffffffffffff1673ffffffffffffffffffffffffffffffffffffffff1681526020019081526020015f205f6101000a81548160ff0219169083151502179055508173ffffffffffffffffffffffffffffffffffffffff168373ffffffffffffffffffffffffffffffffffffffff167f17307eab39ab6107e8899845ad3d59bd9653f200f220920489ca2b5937696c31836040516116879190611f90565b60405180910390a3505050565b5f8373ffffffffffffffffffffffffffffffffffffffff163b1115611840578273ffffffffffffffffffffffffffffffffffffffff1663150b7a026116d7611307565b8685856040518563ffffffff1660e01b81526004016116f99493929190612e4e565b6020604051808303815f875af192505050801561173457506040513d601f19601f820116820180604052508101906117319190612eac565b60015b6117b5573d805f8114611762576040519150601f19603f3d011682016040523d82523d5f602084013e611767565b606091505b505f8151036117ad57836040517f64a0ae920000000000000000000000000000000000000000000000000000000081526004016117a491906120f0565b60405180910390fd5b805181602001fd5b63150b7a0260e01b7bffffffffffffffffffffffffffffffffffffffffffffffffffffffff1916817bffffffffffffffffffffffffffffffffffffffffffffffffffffffff19161461183e57836040517f64a0ae9200000000000000000000000000000000000000000000000000000000815260040161183591906120f0565b60405180910390fd5b505b50505050565b5f73ffffffffffffffffffffffffffffffffffffffff168273ffffffffffffffffffffffffffffffffffffffff16036118b6575f6040517f64a0ae920000000000000000000000000000000000000000000000000000000081526004016118ad91906120f0565b60405180910390fd5b5f6118c283835f611320565b90505f73ffffffffffffffffffffffffffffffffffffffff168173ffffffffffffffffffffffffffffffffffffffff1614611934575f6040517f73c6ac6e00000000000000000000000000000000000000000000000000000000815260040161192b91906120f0565b60405180910390fd5b505050565b606060405180602001604052805f815250905090565b60605f600161195d84611cd4565b0190505f8167ffffffffffffffff81111561197b5761197a6122ea565b5b6040519080825280601f01601f1916602001820160405280156119ad5781602001600182028036833780820191505090505b5090505f82602001820190505b600115611a0e578080600190039150507f3031323334353637383961626364656600000000000000000000000000000000600a86061a8153600a8581611a0357611a02612ed7565b5b0494505f85036119ba575b819350505050919050565b5f60025f8381526020019081526020015f205f9054906101000a900473ffffffffffffffffffffffffffffffffffffffff169050919050565b8080611a8a57505f73ffffffffffffffffffffffffffffffffffffffff168273ffffffffffffffffffffffffffffffffffffffff1614155b15611bbc575f611a9984611248565b90505f73ffffffffffffffffffffffffffffffffffffffff168373ffffffffffffffffffffffffffffffffffffffff1614158015611b0357508273ffffffffffffffffffffffffffffffffffffffff168173ffffffffffffffffffffffffffffffffffffffff1614155b8015611b165750611b148184611151565b155b15611b5857826040517fa9fbf51f000000000000000000000000000000000000000000000000000000008152600401611b4f91906120f0565b60405180910390fd5b8115611bba57838573ffffffffffffffffffffffffffffffffffffffff168273ffffffffffffffffffffffffffffffffffffffff167f8c5be1e5ebec7d5bd14f71427d1e84f3dd0314c0f7b2291e5b200ac8c7c3b92560405160405180910390a45b505b8360045f8581526020019081526020015f205f6101000a81548173ffffffffffffffffffffffffffffffffffffffff021916908373ffffffffffffffffffffffffffffffffffffffff16021790555050505050565b611c1c838383611e25565b611ccf575f73ffffffffffffffffffffffffffffffffffffffff168373ffffffffffffffffffffffffffffffffffffffff1603611c9057806040517f7e273289000000000000000000000000000000000000000000000000000000008152600401611c879190612261565b60405180910390fd5b81816040517f177e802f000000000000000000000000000000000000000000000000000000008152600401611cc6929190612f04565b60405180910390fd5b505050565b5f805f90507a184f03e93ff9f4daa797ed6e38ed64bf6a1f0100000000000000008310611d30577a184f03e93ff9f4daa797ed6e38ed64bf6a1f0100000000000000008381611d2657611d25612ed7565b5b0492506040810190505b6d04ee2d6d415b85acef81000000008310611d6d576d04ee2d6d415b85acef81000000008381611d6357611d62612ed7565b5b0492506020810190505b662386f26fc100008310611d9c57662386f26fc100008381611d9257611d91612ed7565b5b0492506010810190505b6305f5e1008310611dc5576305f5e1008381611dbb57611dba612ed7565b5b0492506008810190505b6127108310611dea576127108381611de057611ddf612ed7565b5b0492506004810190505b60648310611e0d5760648381611e0357611e02612ed7565b5b0492506002810190505b600a8310611e1c576001810190505b80915050919050565b5f8073ffffffffffffffffffffffffffffffffffffffff168373ffffffffffffffffffffffffffffffffffffffff1614158015611edc57508273ffffffffffffffffffffffffffffffffffffffff168473ffffffffffffffffffffffffffffffffffffffff161480611e9d5750611e9c8484611151565b5b80611edb57508273ffffffffffffffffffffffffffffffffffffffff16611ec3836112ce565b73ffffffffffffffffffffffffffffffffffffffff16145b5b90509392505050565b5f604051905090565b5f80fd5b5f80fd5b5f7fffffffff0000000000000000000000000000000000000000000000000000000082169050919050565b611f2a81611ef6565b8114611f34575f80fd5b50565b5f81359050611f4581611f21565b92915050565b5f60208284031215611f6057611f5f611eee565b5b5f611f6d84828501611f37565b91505092915050565b5f8115159050919050565b611f8a81611f76565b82525050565b5f602082019050611fa35f830184611f81565b92915050565b5f81519050919050565b5f82825260208201905092915050565b5f5b83811015611fe0578082015181840152602081019050611fc5565b5f8484015250505050565b5f601f19601f8301169050919050565b5f61200582611fa9565b61200f8185611fb3565b935061201f818560208601611fc3565b61202881611feb565b840191505092915050565b5f6020820190508181035f83015261204b8184611ffb565b905092915050565b5f819050919050565b61206581612053565b811461206f575f80fd5b50565b5f813590506120808161205c565b92915050565b5f6020828403121561209b5761209a611eee565b5b5f6120a884828501612072565b91505092915050565b5f73ffffffffffffffffffffffffffffffffffffffff82169050919050565b5f6120da826120b1565b9050919050565b6120ea816120d0565b82525050565b5f6020820190506121035f8301846120e1565b92915050565b612112816120d0565b811461211c575f80fd5b50565b5f8135905061212d81612109565b92915050565b5f806040838503121561214957612148611eee565b5b5f6121568582860161211f565b925050602061216785828601612072565b9150509250929050565b5f805f6060848603121561218857612187611eee565b5b5f6121958682870161211f565b93505060206121a68682870161211f565b92505060406121b786828701612072565b9150509250925092565b6121ca81612053565b82525050565b5f60c0820190506121e35f8301896121c1565b6121f060208301886121c1565b6121fd60408301876121c1565b818103606083015261220f8186611ffb565b905061221e6080830185611f81565b61222b60a08301846120e1565b979650505050505050565b5f6020828403121561224b5761224a611eee565b5b5f6122588482850161211f565b91505092915050565b5f6020820190506122745f8301846121c1565b92915050565b61228381611f76565b811461228d575f80fd5b50565b5f8135905061229e8161227a565b92915050565b5f80604083850312156122ba576122b9611eee565b5b5f6122c78582860161211f565b92505060206122d885828601612290565b9150509250929050565b5f80fd5b5f80fd5b7f4e487b71000000000000000000000000000000000000000000000000000000005f52604160045260245ffd5b61232082611feb565b810181811067ffffffffffffffff8211171561233f5761233e6122ea565b5b80604052505050565b5f612351611ee5565b905061235d8282612317565b919050565b5f67ffffffffffffffff82111561237c5761237b6122ea565b5b61238582611feb565b9050602081019050919050565b828183375f83830152505050565b5f6123b26123ad84612362565b612348565b9050828152602081018484840111156123ce576123cd6122e6565b5b6123d9848285612392565b509392505050565b5f82601f8301126123f5576123f46122e2565b5b81356124058482602086016123a0565b91505092915050565b5f805f806080858703121561242657612425611eee565b5b5f6124338782880161211f565b94505060206124448782880161211f565b935050604061245587828801612072565b925050606085013567ffffffffffffffff81111561247657612475611ef2565b5b612482878288016123e1565b91505092959194509250565b5f67ffffffffffffffff8211156124a8576124a76122ea565b5b6124b182611feb565b9050602081019050919050565b5f6124d06124cb8461248e565b612348565b9050828152602081018484840111156124ec576124eb6122e6565b5b6124f7848285612392565b509392505050565b5f82601f830112612513576125126122e2565b5b81356125238482602086016124be565b91505092915050565b5f805f6060848603121561254357612542611eee565b5b5f61255086828701612072565b935050602061256186828701612072565b925050604084013567ffffffffffffffff81111561258257612581611ef2565b5b61258e868287016124ff565b9150509250925092565b5f80604083850312156125ae576125ad611eee565b5b5f6125bb8582860161211f565b92505060206125cc8582860161211f565b9150509250929050565b7f4e487b71000000000000000000000000000000000000000000000000000000005f52602260045260245ffd5b5f600282049050600182168061261a57607f821691505b60208210810361262d5761262c6125d6565b5b50919050565b5f6060820190506126465f8301866120e1565b61265360208301856121c1565b61266060408301846120e1565b949350505050565b5f8151905061267681612109565b92915050565b5f6020828403121561269157612690611eee565b5b5f61269e84828501612668565b91505092915050565b7f456c20746f6b656e206e6f206578697374652e000000000000000000000000005f82015250565b5f6126db601383611fb3565b91506126e6826126a7565b602082019050919050565b5f6020820190508181035f830152612708816126cf565b9050919050565b7f4e6f20707565646573206669726d61722074752070726f70696f20636f6e74725f8201527f61746f0000000000000000000000000000000000000000000000000000000000602082015250565b5f612769602383611fb3565b91506127748261270f565b604082019050919050565b5f6020820190508181035f8301526127968161275d565b9050919050565b7f456c20636f6e747261746f207961206861207369646f206669726d61646f00005f82015250565b5f6127d1601e83611fb3565b91506127dc8261279d565b602082019050919050565b5f6020820190508181035f8301526127fe816127c5565b9050919050565b7f4e487b71000000000000000000000000000000000000000000000000000000005f52601160045260245ffd5b5f61283c82612053565b915061284783612053565b925082820190508082111561285f5761285e612805565b5b92915050565b7f456c20636f6e747261746f20686120657870697261646f0000000000000000005f82015250565b5f612899601783611fb3565b91506128a482612865565b602082019050919050565b5f6020820190508181035f8301526128c68161288d565b9050919050565b7f4465646520656e7669617220656c2073616c6172696f20636f6d6f2076616c6f5f8201527f722064656c20636f6e747261746f000000000000000000000000000000000000602082015250565b5f612927602e83611fb3565b9150612932826128cd565b604082019050919050565b5f6020820190508181035f8301526129548161291b565b9050919050565b5f61296582612053565b91507fffffffffffffffffffffffffffffffffffffffffffffffffffffffffffffffff820361299757612996612805565b5b600182019050919050565b5f6129ac82612053565b91506129b783612053565b92508282039050818111156129cf576129ce612805565b5b92915050565b5f819050815f5260205f209050919050565b5f6020601f8301049050919050565b5f82821b905092915050565b5f60088302612a317fffffffffffffffffffffffffffffffffffffffffffffffffffffffffffffffff826129f6565b612a3b86836129f6565b95508019841693508086168417925050509392505050565b5f819050919050565b5f612a76612a71612a6c84612053565b612a53565b612053565b9050919050565b5f819050919050565b612a8f83612a5c565b612aa3612a9b82612a7d565b848454612a02565b825550505050565b5f90565b612ab7612aab565b612ac2818484612a86565b505050565b5b81811015612ae557612ada5f82612aaf565b600181019050612ac8565b5050565b601f821115612b2a57612afb816129d5565b612b04846129e7565b81016020851015612b13578190505b612b27612b1f856129e7565b830182612ac7565b50505b505050565b5f82821c905092915050565b5f612b4a5f1984600802612b2f565b1980831691505092915050565b5f612b628383612b3b565b9150826002028217905092915050565b612b7b82611fa9565b67ffffffffffffffff811115612b9457612b936122ea565b5b612b9e8254612603565b612ba9828285612ae9565b5f60209050601f831160018114612bda575f8415612bc8578287015190505b612bd28582612b57565b865550612c39565b601f198416612be8866129d5565b5f5b82811015612c0f57848901518255600182019150602085019450602081019050612bea565b86831015612c2c5784890151612c28601f891682612b3b565b8355505b6001600288020188555050505b505050505050565b5f81905092915050565b5f612c5582611fa9565b612c5f8185612c41565b9350612c6f818560208601611fc3565b80840191505092915050565b5f612c868285612c4b565b9150612c928284612c4b565b91508190509392505050565b7f456c20636f6e747261746f206e6f206861207369646f206669726d61646f00005f82015250565b5f612cd2601e83611fb3565b9150612cdd82612c9e565b602082019050919050565b5f6020820190508181035f830152612cff81612cc6565b9050919050565b7f536f6c6f20656c2070726f706965746172696f207075656465206c69626572615f8201527f7220656c2073616c6172696f0000000000000000000000000000000000000000602082015250565b5f612d60602c83611fb3565b9150612d6b82612d06565b604082019050919050565b5f6020820190508181035f830152612d8d81612d54565b9050919050565b7f456c20636f6e747261746f206e6f20686120657870697261646f2061756e00005f82015250565b5f612dc8601e83611fb3565b9150612dd382612d94565b602082019050919050565b5f6020820190508181035f830152612df581612dbc565b9050919050565b5f81519050919050565b5f82825260208201905092915050565b5f612e2082612dfc565b612e2a8185612e06565b9350612e3a818560208601611fc3565b612e4381611feb565b840191505092915050565b5f608082019050612e615f8301876120e1565b612e6e60208301866120e1565b612e7b60408301856121c1565b8181036060830152612e8d8184612e16565b905095945050505050565b5f81519050612ea681611f21565b92915050565b5f60208284031215612ec157612ec0611eee565b5b5f612ece84828501612e98565b91505092915050565b7f4e487b71000000000000000000000000000000000000000000000000000000005f52601260045260245ffd5b5f604082019050612f175f8301856120e1565b612f2460208301846121c1565b939250505056fea26469706673582212204daa4d45d88ffd61374dc36c1653ed88523a081a7a54ef8be135257a12e6d9f864736f6c63430008140033",
  "immutableReferences": {},
  "source": "// SPDX-License-Identifier: MIT\r\npragma solidity ^0.8.20;\r\n\r\nimport \"@openzeppelin/contracts/token/ERC721/ERC721.sol\";\r\n\r\ncontract MyContract is ERC721 {\r\n    uint256 tokenID;\r\n    mapping(uint256 => ContractDetails) public contractDetails;\r\n    event ContractSigned(uint256 indexed tokenId, address worker);\r\n    event SalaryReleased(uint256 indexed tokenId, uint256 salary);\r\n    event TokenMinted(uint256 tokenId);\r\n    struct ContractDetails {\r\n        uint256 salary;\r\n        uint256 startDate;\r\n        uint256 duration;\r\n        string description;\r\n        bool isSigned;\r\n        address worker;\r\n    }\r\n\r\n    constructor() ERC721(\"MyToken\", \"MTK\") {}\r\n\r\n    function mint(\r\n        uint256 _salary,\r\n        uint256 _duration,\r\n        string memory _description\r\n    ) public payable returns (uint256) {\r\n        require(\r\n            msg.value >= _salary,\r\n            \"Dede enviar el salario como valor del contrato\"\r\n        );\r\n        tokenID++;\r\n        _mint(msg.sender, tokenID);\r\n        uint256 remainder = msg.value - _salary;\r\n        if (remainder > 0) {\r\n            payable(msg.sender).transfer(remainder);\r\n        }\r\n\r\n        ContractDetails memory newContract = ContractDetails({\r\n            salary: _salary,\r\n            startDate: block.timestamp, // en segundos\r\n            duration: _duration,\r\n            description: _description,\r\n            isSigned: false,\r\n            worker: address(0) // 0x0000000\r\n        });\r\n\r\n        contractDetails[tokenID] = newContract;\r\n        emit TokenMinted(tokenID);\r\n\r\n        return tokenID;\r\n    }\r\n\r\n    function signContract(uint256 _tokenID) public payable {\r\n        try this.ownerOf(_tokenID) {} catch {\r\n            revert(\"El token no existe.\"); // he intentado hacerlo con _exists pero no me ha funcionado\r\n        }\r\n        require(\r\n            msg.sender != ownerOf(_tokenID),\r\n            \"No puedes firmar tu propio contrato\"\r\n        );\r\n        require(\r\n            !contractDetails[_tokenID].isSigned,\r\n            \"El contrato ya ha sido firmado\"\r\n        );\r\n        require(\r\n            contractDetails[_tokenID].startDate +\r\n                contractDetails[_tokenID].duration >=\r\n                block.timestamp,\r\n            \"El contrato ha expirado\"\r\n        );\r\n\r\n        contractDetails[_tokenID].isSigned = true;\r\n        contractDetails[_tokenID].worker = msg.sender;\r\n        emit ContractSigned(_tokenID, msg.sender);\r\n    }\r\n\r\n    function releaseSalary(uint256 _tokenID) public payable {\r\n        try this.ownerOf(_tokenID) {} catch {\r\n            revert(\"El token no existe.\"); // he intentado hacerlo con _exists pero no me ha funcionado\r\n        }\r\n        require(\r\n            contractDetails[_tokenID].isSigned,\r\n            \"El contrato no ha sido firmado\"\r\n        );\r\n        require(\r\n            msg.sender == ownerOf(_tokenID),\r\n            \"Solo el propietario puede liberar el salario\"\r\n        );\r\n        require(\r\n            contractDetails[_tokenID].startDate +\r\n                contractDetails[_tokenID].duration <=\r\n                block.timestamp,\r\n            \"El contrato no ha expirado aun\"\r\n        );\r\n\r\n        address payable worker = payable(contractDetails[_tokenID].worker);\r\n        uint256 salary = contractDetails[_tokenID].salary;\r\n        worker.transfer(salary);\r\n        emit SalaryReleased(_tokenID, salary);\r\n    }\r\n}\r\n",
  "sourcePath": "E:\\AppContract\\ubu-contractme\\Code\\SmartContract\\contracts\\MyContract.sol",
  "compiler": {
    "name": "solc",
    "version": "0.8.20+commit.a1b79de6.Emscripten.clang"
  },
  "schemaVersion": "3.4.16",
  "updatedAt": "2023-12-21T17:07:44.141Z",
  "networkType": "ethereum",
  "devdoc": {
    "errors": {
      "ERC721IncorrectOwner(address,uint256,address)": [
        {
          "details": "Indicates an error related to the ownership over a particular token. Used in transfers.",
          "params": {
            "owner": "Address of the current owner of a token.",
            "sender": "Address whose tokens are being transferred.",
            "tokenId": "Identifier number of a token."
          }
        }
      ],
      "ERC721InsufficientApproval(address,uint256)": [
        {
          "details": "Indicates a failure with the `operator`s approval. Used in transfers.",
          "params": {
            "operator": "Address that may be allowed to operate on tokens without being their owner.",
            "tokenId": "Identifier number of a token."
          }
        }
      ],
      "ERC721InvalidApprover(address)": [
        {
          "details": "Indicates a failure with the `approver` of a token to be approved. Used in approvals.",
          "params": {
            "approver": "Address initiating an approval operation."
          }
        }
      ],
      "ERC721InvalidOperator(address)": [
        {
          "details": "Indicates a failure with the `operator` to be approved. Used in approvals.",
          "params": {
            "operator": "Address that may be allowed to operate on tokens without being their owner."
          }
        }
      ],
      "ERC721InvalidOwner(address)": [
        {
          "details": "Indicates that an address can't be an owner. For example, `address(0)` is a forbidden owner in EIP-20. Used in balance queries.",
          "params": {
            "owner": "Address of the current owner of a token."
          }
        }
      ],
      "ERC721InvalidReceiver(address)": [
        {
          "details": "Indicates a failure with the token `receiver`. Used in transfers.",
          "params": {
            "receiver": "Address to which tokens are being transferred."
          }
        }
      ],
      "ERC721InvalidSender(address)": [
        {
          "details": "Indicates a failure with the token `sender`. Used in transfers.",
          "params": {
            "sender": "Address whose tokens are being transferred."
          }
        }
      ],
      "ERC721NonexistentToken(uint256)": [
        {
          "details": "Indicates a `tokenId` whose `owner` is the zero address.",
          "params": {
            "tokenId": "Identifier number of a token."
          }
        }
      ]
    },
    "events": {
      "Approval(address,address,uint256)": {
        "details": "Emitted when `owner` enables `approved` to manage the `tokenId` token."
      },
      "ApprovalForAll(address,address,bool)": {
        "details": "Emitted when `owner` enables or disables (`approved`) `operator` to manage all of its assets."
      },
      "Transfer(address,address,uint256)": {
        "details": "Emitted when `tokenId` token is transferred from `from` to `to`."
      }
    },
    "kind": "dev",
    "methods": {
      "approve(address,uint256)": {
        "details": "See {IERC721-approve}."
      },
      "balanceOf(address)": {
        "details": "See {IERC721-balanceOf}."
      },
      "getApproved(uint256)": {
        "details": "See {IERC721-getApproved}."
      },
      "isApprovedForAll(address,address)": {
        "details": "See {IERC721-isApprovedForAll}."
      },
      "name()": {
        "details": "See {IERC721Metadata-name}."
      },
      "ownerOf(uint256)": {
        "details": "See {IERC721-ownerOf}."
      },
      "safeTransferFrom(address,address,uint256)": {
        "details": "See {IERC721-safeTransferFrom}."
      },
      "safeTransferFrom(address,address,uint256,bytes)": {
        "details": "See {IERC721-safeTransferFrom}."
      },
      "setApprovalForAll(address,bool)": {
        "details": "See {IERC721-setApprovalForAll}."
      },
      "supportsInterface(bytes4)": {
        "details": "See {IERC165-supportsInterface}."
      },
      "symbol()": {
        "details": "See {IERC721Metadata-symbol}."
      },
      "tokenURI(uint256)": {
        "details": "See {IERC721Metadata-tokenURI}."
      },
      "transferFrom(address,address,uint256)": {
        "details": "See {IERC721-transferFrom}."
      }
    },
    "version": 1
  },
  "userdoc": {
    "kind": "user",
    "methods": {},
    "version": 1
  }
}