{
  "contractName": "MyContractAux",
  "abi": [
    {
      "inputs": [
        {
          "internalType": "address",
          "name": "sender",
          "type": "address"
        },
        {
          "internalType": "uint256",
          "name": "tokenId",
          "type": "uint256"
        },
        {
          "internalType": "address",
          "name": "owner",
          "type": "address"
        }
      ],
      "name": "ERC721IncorrectOwner",
      "type": "error"
    },
    {
      "inputs": [
        {
          "internalType": "address",
          "name": "operator",
          "type": "address"
        },
        {
          "internalType": "uint256",
          "name": "tokenId",
          "type": "uint256"
        }
      ],
      "name": "ERC721InsufficientApproval",
      "type": "error"
    },
    {
      "inputs": [
        {
          "internalType": "address",
          "name": "approver",
          "type": "address"
        }
      ],
      "name": "ERC721InvalidApprover",
      "type": "error"
    },
    {
      "inputs": [
        {
          "internalType": "address",
          "name": "operator",
          "type": "address"
        }
      ],
      "name": "ERC721InvalidOperator",
      "type": "error"
    },
    {
      "inputs": [
        {
          "internalType": "address",
          "name": "owner",
          "type": "address"
        }
      ],
      "name": "ERC721InvalidOwner",
      "type": "error"
    },
    {
      "inputs": [
        {
          "internalType": "address",
          "name": "receiver",
          "type": "address"
        }
      ],
      "name": "ERC721InvalidReceiver",
      "type": "error"
    },
    {
      "inputs": [
        {
          "internalType": "address",
          "name": "sender",
          "type": "address"
        }
      ],
      "name": "ERC721InvalidSender",
      "type": "error"
    },
    {
      "inputs": [
        {
          "internalType": "uint256",
          "name": "tokenId",
          "type": "uint256"
        }
      ],
      "name": "ERC721NonexistentToken",
      "type": "error"
    },
    {
      "anonymous": false,
      "inputs": [
        {
          "indexed": true,
          "internalType": "address",
          "name": "owner",
          "type": "address"
        },
        {
          "indexed": true,
          "internalType": "address",
          "name": "approved",
          "type": "address"
        },
        {
          "indexed": true,
          "internalType": "uint256",
          "name": "tokenId",
          "type": "uint256"
        }
      ],
      "name": "Approval",
      "type": "event"
    },
    {
      "anonymous": false,
      "inputs": [
        {
          "indexed": true,
          "internalType": "uint256",
          "name": "tokenId",
          "type": "uint256"
        },
        {
          "indexed": true,
          "internalType": "address",
          "name": "employer",
          "type": "address"
        },
        {
          "indexed": false,
          "internalType": "uint256",
          "name": "salary",
          "type": "uint256"
        },
        {
          "indexed": false,
          "internalType": "uint256",
          "name": "newSalary",
          "type": "uint256"
        },
        {
          "indexed": false,
          "internalType": "uint256",
          "name": "timestamp",
          "type": "uint256"
        }
      ],
      "name": "ApprovalChanges",
      "type": "event"
    },
    {
      "anonymous": false,
      "inputs": [
        {
          "indexed": true,
          "internalType": "address",
          "name": "owner",
          "type": "address"
        },
        {
          "indexed": true,
          "internalType": "address",
          "name": "operator",
          "type": "address"
        },
        {
          "indexed": false,
          "internalType": "bool",
          "name": "approved",
          "type": "bool"
        }
      ],
      "name": "ApprovalForAll",
      "type": "event"
    },
    {
      "anonymous": false,
      "inputs": [
        {
          "indexed": true,
          "internalType": "uint256",
          "name": "tokenId",
          "type": "uint256"
        },
        {
          "indexed": true,
          "internalType": "address",
          "name": "employer",
          "type": "address"
        },
        {
          "indexed": true,
          "internalType": "address",
          "name": "worker",
          "type": "address"
        },
        {
          "indexed": false,
          "internalType": "uint256",
          "name": "salary",
          "type": "uint256"
        },
        {
          "indexed": false,
          "internalType": "uint256",
          "name": "timestamp",
          "type": "uint256"
        }
      ],
      "name": "ContractCancelled",
      "type": "event"
    },
    {
      "anonymous": false,
      "inputs": [
        {
          "indexed": true,
          "internalType": "uint256",
          "name": "tokenId",
          "type": "uint256"
        },
        {
          "indexed": true,
          "internalType": "address",
          "name": "employer",
          "type": "address"
        },
        {
          "indexed": true,
          "internalType": "address",
          "name": "worker",
          "type": "address"
        },
        {
          "indexed": false,
          "internalType": "uint256",
          "name": "timestamp",
          "type": "uint256"
        }
      ],
      "name": "ContractFinalized",
      "type": "event"
    },
    {
      "anonymous": false,
      "inputs": [
        {
          "indexed": true,
          "internalType": "uint256",
          "name": "tokenId",
          "type": "uint256"
        },
        {
          "indexed": true,
          "internalType": "address",
          "name": "employer",
          "type": "address"
        },
        {
          "indexed": true,
          "internalType": "address",
          "name": "worker",
          "type": "address"
        },
        {
          "indexed": false,
          "internalType": "uint256",
          "name": "timestamp",
          "type": "uint256"
        }
      ],
      "name": "ContractSigned",
      "type": "event"
    },
    {
      "anonymous": false,
      "inputs": [
        {
          "indexed": true,
          "internalType": "uint256",
          "name": "tokenId",
          "type": "uint256"
        },
        {
          "indexed": true,
          "internalType": "address",
          "name": "employer",
          "type": "address"
        },
        {
          "indexed": false,
          "internalType": "uint256",
          "name": "timestamp",
          "type": "uint256"
        }
      ],
      "name": "RejectChanges",
      "type": "event"
    },
    {
      "anonymous": false,
      "inputs": [
        {
          "indexed": true,
          "internalType": "uint256",
          "name": "tokenId",
          "type": "uint256"
        },
        {
          "indexed": false,
          "internalType": "uint256",
          "name": "salary",
          "type": "uint256"
        },
        {
          "indexed": true,
          "internalType": "address",
          "name": "employer",
          "type": "address"
        },
        {
          "indexed": true,
          "internalType": "address",
          "name": "worker",
          "type": "address"
        },
        {
          "indexed": false,
          "internalType": "uint256",
          "name": "timestamp",
          "type": "uint256"
        }
      ],
      "name": "SalaryReleased",
      "type": "event"
    },
    {
      "anonymous": false,
      "inputs": [
        {
          "indexed": false,
          "internalType": "uint256",
          "name": "tokenId",
          "type": "uint256"
        },
        {
          "indexed": true,
          "internalType": "address",
          "name": "employer",
          "type": "address"
        },
        {
          "indexed": false,
          "internalType": "uint256",
          "name": "salary",
          "type": "uint256"
        },
        {
          "indexed": false,
          "internalType": "uint256",
          "name": "timestamp",
          "type": "uint256"
        }
      ],
      "name": "TokenMinted",
      "type": "event"
    },
    {
      "anonymous": false,
      "inputs": [
        {
          "indexed": true,
          "internalType": "address",
          "name": "from",
          "type": "address"
        },
        {
          "indexed": true,
          "internalType": "address",
          "name": "to",
          "type": "address"
        },
        {
          "indexed": true,
          "internalType": "uint256",
          "name": "tokenId",
          "type": "uint256"
        }
      ],
      "name": "Transfer",
      "type": "event"
    },
    {
      "inputs": [
        {
          "internalType": "address",
          "name": "",
          "type": "address"
        },
        {
          "internalType": "uint256",
          "name": "",
          "type": "uint256"
        }
      ],
      "name": "activeContractsOfWorker",
      "outputs": [
        {
          "internalType": "uint256",
          "name": "",
          "type": "uint256"
        }
      ],
      "stateMutability": "view",
      "type": "function",
      "constant": true
    },
    {
      "inputs": [
        {
          "internalType": "uint256",
          "name": "_tokenID",
          "type": "uint256"
        }
      ],
      "name": "applyChange",
      "outputs": [],
      "stateMutability": "payable",
      "type": "function",
      "payable": true
    },
    {
      "inputs": [
        {
          "internalType": "address",
          "name": "to",
          "type": "address"
        },
        {
          "internalType": "uint256",
          "name": "tokenId",
          "type": "uint256"
        }
      ],
      "name": "approve",
      "outputs": [],
      "stateMutability": "nonpayable",
      "type": "function"
    },
    {
      "inputs": [
        {
          "internalType": "uint256",
          "name": "_tokenID",
          "type": "uint256"
        },
        {
          "internalType": "address",
          "name": "_newManager",
          "type": "address"
        }
      ],
      "name": "assignManagerToToken",
      "outputs": [],
      "stateMutability": "nonpayable",
      "type": "function"
    },
    {
      "inputs": [
        {
          "internalType": "address",
          "name": "owner",
          "type": "address"
        }
      ],
      "name": "balanceOf",
      "outputs": [
        {
          "internalType": "uint256",
          "name": "",
          "type": "uint256"
        }
      ],
      "stateMutability": "view",
      "type": "function",
      "constant": true
    },
    {
      "inputs": [
        {
          "internalType": "uint256",
          "name": "_tokenID",
          "type": "uint256"
        }
      ],
      "name": "cancelContract",
      "outputs": [],
      "stateMutability": "nonpayable",
      "type": "function"
    },
    {
      "inputs": [
        {
          "internalType": "uint256",
          "name": "",
          "type": "uint256"
        }
      ],
      "name": "changeProposals",
      "outputs": [
        {
          "internalType": "string",
          "name": "newTitle",
          "type": "string"
        },
        {
          "internalType": "uint256",
          "name": "newSalary",
          "type": "uint256"
        },
        {
          "internalType": "uint256",
          "name": "newDuration",
          "type": "uint256"
        },
        {
          "internalType": "string",
          "name": "newDescription",
          "type": "string"
        },
        {
          "internalType": "bool",
          "name": "isPaused",
          "type": "bool"
        },
        {
          "internalType": "bool",
          "name": "isPending",
          "type": "bool"
        }
      ],
      "stateMutability": "view",
      "type": "function",
      "constant": true
    },
    {
      "inputs": [
        {
          "internalType": "uint256",
          "name": "",
          "type": "uint256"
        }
      ],
      "name": "contractDetails",
      "outputs": [
        {
          "internalType": "uint256",
          "name": "salary",
          "type": "uint256"
        },
        {
          "internalType": "uint256",
          "name": "startDate",
          "type": "uint256"
        },
        {
          "internalType": "uint256",
          "name": "duration",
          "type": "uint256"
        },
        {
          "internalType": "string",
          "name": "title",
          "type": "string"
        },
        {
          "internalType": "string",
          "name": "description",
          "type": "string"
        },
        {
          "internalType": "bool",
          "name": "isSigned",
          "type": "bool"
        },
        {
          "internalType": "address",
          "name": "worker",
          "type": "address"
        },
        {
          "internalType": "bool",
          "name": "isFinished",
          "type": "bool"
        },
        {
          "internalType": "bool",
          "name": "isReleased",
          "type": "bool"
        },
        {
          "internalType": "bool",
          "name": "isPaused",
          "type": "bool"
        },
        {
          "internalType": "uint256",
          "name": "pauseTime",
          "type": "uint256"
        },
        {
          "internalType": "uint256",
          "name": "pauseDuration",
          "type": "uint256"
        }
      ],
      "stateMutability": "view",
      "type": "function",
      "constant": true
    },
    {
      "inputs": [
        {
          "internalType": "address",
          "name": "",
          "type": "address"
        },
        {
          "internalType": "uint256",
          "name": "",
          "type": "uint256"
        }
      ],
      "name": "contractsOwner",
      "outputs": [
        {
          "internalType": "uint256",
          "name": "",
          "type": "uint256"
        }
      ],
      "stateMutability": "view",
      "type": "function",
      "constant": true
    },
    {
      "inputs": [
        {
          "internalType": "uint256",
          "name": "_tokenID",
          "type": "uint256"
        }
      ],
      "name": "finalizeContract",
      "outputs": [],
      "stateMutability": "nonpayable",
      "type": "function"
    },
    {
      "inputs": [
        {
          "internalType": "uint256",
          "name": "tokenId",
          "type": "uint256"
        }
      ],
      "name": "getApproved",
      "outputs": [
        {
          "internalType": "address",
          "name": "",
          "type": "address"
        }
      ],
      "stateMutability": "view",
      "type": "function",
      "constant": true
    },
    {
      "inputs": [
        {
          "internalType": "address",
          "name": "owner",
          "type": "address"
        },
        {
          "internalType": "address",
          "name": "operator",
          "type": "address"
        }
      ],
      "name": "isApprovedForAll",
      "outputs": [
        {
          "internalType": "bool",
          "name": "",
          "type": "bool"
        }
      ],
      "stateMutability": "view",
      "type": "function",
      "constant": true
    },
    {
      "inputs": [
        {
          "internalType": "uint256",
          "name": "_tokenID",
          "type": "uint256"
        }
      ],
      "name": "isContractFinished",
      "outputs": [
        {
          "internalType": "bool",
          "name": "",
          "type": "bool"
        }
      ],
      "stateMutability": "view",
      "type": "function",
      "constant": true
    },
    {
      "inputs": [
        {
          "internalType": "address",
          "name": "_to",
          "type": "address"
        },
        {
          "internalType": "uint256",
          "name": "_salary",
          "type": "uint256"
        },
        {
          "internalType": "uint256",
          "name": "_duration",
          "type": "uint256"
        },
        {
          "internalType": "string",
          "name": "_description",
          "type": "string"
        },
        {
          "internalType": "string",
          "name": "_title",
          "type": "string"
        }
      ],
      "name": "mint",
      "outputs": [
        {
          "internalType": "uint256",
          "name": "",
          "type": "uint256"
        }
      ],
      "stateMutability": "payable",
      "type": "function",
      "payable": true
    },
    {
      "inputs": [],
      "name": "name",
      "outputs": [
        {
          "internalType": "string",
          "name": "",
          "type": "string"
        }
      ],
      "stateMutability": "view",
      "type": "function",
      "constant": true
    },
    {
      "inputs": [
        {
          "internalType": "uint256",
          "name": "tokenId",
          "type": "uint256"
        }
      ],
      "name": "ownerOf",
      "outputs": [
        {
          "internalType": "address",
          "name": "",
          "type": "address"
        }
      ],
      "stateMutability": "view",
      "type": "function",
      "constant": true
    },
    {
      "inputs": [
        {
          "internalType": "uint256",
          "name": "_tokenID",
          "type": "uint256"
        }
      ],
      "name": "pauseContract",
      "outputs": [],
      "stateMutability": "nonpayable",
      "type": "function"
    },
    {
      "inputs": [
        {
          "internalType": "uint256",
          "name": "_tokenID",
          "type": "uint256"
        },
        {
          "internalType": "string",
          "name": "_newTitle",
          "type": "string"
        },
        {
          "internalType": "uint256",
          "name": "_newSalary",
          "type": "uint256"
        },
        {
          "internalType": "uint256",
          "name": "_newDuration",
          "type": "uint256"
        },
        {
          "internalType": "string",
          "name": "_newDescription",
          "type": "string"
        },
        {
          "internalType": "bool",
          "name": "_isPaused",
          "type": "bool"
        }
      ],
      "name": "proposeChange",
      "outputs": [],
      "stateMutability": "payable",
      "type": "function",
      "payable": true
    },
    {
      "inputs": [
        {
          "internalType": "uint256",
          "name": "_tokenID",
          "type": "uint256"
        }
      ],
      "name": "rejectChange",
      "outputs": [],
      "stateMutability": "nonpayable",
      "type": "function"
    },
    {
      "inputs": [
        {
          "internalType": "uint256",
          "name": "_tokenID",
          "type": "uint256"
        }
      ],
      "name": "releaseSalary",
      "outputs": [],
      "stateMutability": "payable",
      "type": "function",
      "payable": true
    },
    {
      "inputs": [
        {
          "internalType": "uint256",
          "name": "_tokenId",
          "type": "uint256"
        },
        {
          "internalType": "address",
          "name": "_manager",
          "type": "address"
        }
      ],
      "name": "revokeManagerFromToken",
      "outputs": [],
      "stateMutability": "nonpayable",
      "type": "function"
    },
    {
      "inputs": [
        {
          "internalType": "address",
          "name": "from",
          "type": "address"
        },
        {
          "internalType": "address",
          "name": "to",
          "type": "address"
        },
        {
          "internalType": "uint256",
          "name": "tokenId",
          "type": "uint256"
        }
      ],
      "name": "safeTransferFrom",
      "outputs": [],
      "stateMutability": "nonpayable",
      "type": "function"
    },
    {
      "inputs": [
        {
          "internalType": "address",
          "name": "from",
          "type": "address"
        },
        {
          "internalType": "address",
          "name": "to",
          "type": "address"
        },
        {
          "internalType": "uint256",
          "name": "tokenId",
          "type": "uint256"
        },
        {
          "internalType": "bytes",
          "name": "data",
          "type": "bytes"
        }
      ],
      "name": "safeTransferFrom",
      "outputs": [],
      "stateMutability": "nonpayable",
      "type": "function"
    },
    {
      "inputs": [
        {
          "internalType": "address",
          "name": "operator",
          "type": "address"
        },
        {
          "internalType": "bool",
          "name": "approved",
          "type": "bool"
        }
      ],
      "name": "setApprovalForAll",
      "outputs": [],
      "stateMutability": "nonpayable",
      "type": "function"
    },
    {
      "inputs": [
        {
          "internalType": "uint256",
          "name": "_tokenID",
          "type": "uint256"
        }
      ],
      "name": "signContract",
      "outputs": [],
      "stateMutability": "nonpayable",
      "type": "function"
    },
    {
      "inputs": [
        {
          "internalType": "bytes4",
          "name": "interfaceId",
          "type": "bytes4"
        }
      ],
      "name": "supportsInterface",
      "outputs": [
        {
          "internalType": "bool",
          "name": "",
          "type": "bool"
        }
      ],
      "stateMutability": "view",
      "type": "function",
      "constant": true
    },
    {
      "inputs": [],
      "name": "symbol",
      "outputs": [
        {
          "internalType": "string",
          "name": "",
          "type": "string"
        }
      ],
      "stateMutability": "view",
      "type": "function",
      "constant": true
    },
    {
      "inputs": [],
      "name": "tokenID",
      "outputs": [
        {
          "internalType": "uint256",
          "name": "",
          "type": "uint256"
        }
      ],
      "stateMutability": "view",
      "type": "function",
      "constant": true
    },
    {
      "inputs": [
        {
          "internalType": "uint256",
          "name": "",
          "type": "uint256"
        },
        {
          "internalType": "address",
          "name": "",
          "type": "address"
        }
      ],
      "name": "tokenManagers",
      "outputs": [
        {
          "internalType": "bool",
          "name": "",
          "type": "bool"
        }
      ],
      "stateMutability": "view",
      "type": "function",
      "constant": true
    },
    {
      "inputs": [
        {
          "internalType": "uint256",
          "name": "",
          "type": "uint256"
        },
        {
          "internalType": "uint256",
          "name": "",
          "type": "uint256"
        }
      ],
      "name": "tokenManagersList",
      "outputs": [
        {
          "internalType": "address",
          "name": "",
          "type": "address"
        }
      ],
      "stateMutability": "view",
      "type": "function",
      "constant": true
    },
    {
      "inputs": [
        {
          "internalType": "uint256",
          "name": "tokenId",
          "type": "uint256"
        }
      ],
      "name": "tokenURI",
      "outputs": [
        {
          "internalType": "string",
          "name": "",
          "type": "string"
        }
      ],
      "stateMutability": "view",
      "type": "function",
      "constant": true
    },
    {
      "inputs": [
        {
          "internalType": "address",
          "name": "from",
          "type": "address"
        },
        {
          "internalType": "address",
          "name": "to",
          "type": "address"
        },
        {
          "internalType": "uint256",
          "name": "tokenId",
          "type": "uint256"
        }
      ],
      "name": "transferFrom",
      "outputs": [],
      "stateMutability": "nonpayable",
      "type": "function"
    },
    {
      "inputs": [
        {
          "internalType": "uint256",
          "name": "_tokenID",
          "type": "uint256"
        }
      ],
      "name": "unPauseContract",
      "outputs": [],
      "stateMutability": "nonpayable",
      "type": "function"
    },
    {
      "inputs": [
        {
          "internalType": "address",
          "name": "",
          "type": "address"
        },
        {
          "internalType": "uint256",
          "name": "",
          "type": "uint256"
        }
      ],
      "name": "unsignedContractsOfWorker",
      "outputs": [
        {
          "internalType": "uint256",
          "name": "",
          "type": "uint256"
        }
      ],
      "stateMutability": "view",
      "type": "function",
      "constant": true
    },
    {
      "inputs": [
        {
          "internalType": "uint256",
          "name": "_tokenId",
          "type": "uint256"
        }
      ],
      "name": "getManagersOfToken",
      "outputs": [
        {
          "internalType": "address[]",
          "name": "",
          "type": "address[]"
        }
      ],
      "stateMutability": "view",
      "type": "function",
      "constant": true
    },
    {
      "inputs": [
        {
          "internalType": "address",
          "name": "_address",
          "type": "address"
        }
      ],
      "name": "getContractsFromOwner",
      "outputs": [
        {
          "internalType": "uint256[]",
          "name": "",
          "type": "uint256[]"
        }
      ],
      "stateMutability": "view",
      "type": "function",
      "constant": true
    },
    {
      "inputs": [
        {
          "internalType": "address",
          "name": "_address",
          "type": "address"
        }
      ],
      "name": "getContractsOfWorker",
      "outputs": [
        {
          "internalType": "uint256[]",
          "name": "",
          "type": "uint256[]"
        }
      ],
      "stateMutability": "view",
      "type": "function",
      "constant": true
    },
    {
      "inputs": [
        {
          "internalType": "address",
          "name": "worker",
          "type": "address"
        }
      ],
      "name": "getUnsignedContractsOfWorker",
      "outputs": [
        {
          "internalType": "uint256[]",
          "name": "",
          "type": "uint256[]"
        }
      ],
      "stateMutability": "view",
      "type": "function",
      "constant": true
    },
    {
      "inputs": [
        {
          "internalType": "uint256",
          "name": "_tokenId",
          "type": "uint256"
        }
      ],
      "name": "tokenExists",
      "outputs": [
        {
          "internalType": "bool",
          "name": "",
          "type": "bool"
        }
      ],
      "stateMutability": "view",
      "type": "function",
      "constant": true
    },
    {
      "inputs": [
        {
          "internalType": "uint256",
          "name": "_tokenID",
          "type": "uint256"
        }
      ],
      "name": "isContractSigned",
      "outputs": [
        {
          "internalType": "bool",
          "name": "",
          "type": "bool"
        }
      ],
      "stateMutability": "view",
      "type": "function",
      "constant": true
    },
    {
      "inputs": [
        {
          "internalType": "uint256",
          "name": "_tokenID",
          "type": "uint256"
        }
      ],
      "name": "getOwnerOfContract",
      "outputs": [
        {
          "internalType": "address",
          "name": "",
          "type": "address"
        }
      ],
      "stateMutability": "view",
      "type": "function",
      "constant": true
    }
  ],
  "bytecode": "0x608060405234801562000010575f80fd5b506040518060400160405280600781526020017f4d79546f6b656e000000000000000000000000000000000000000000000000008152506040518060400160405280600381526020017f4d544b0000000000000000000000000000000000000000000000000000000000815250815f90816200008d91906200030c565b5080600190816200009f91906200030c565b505050620003f0565b5f81519050919050565b7f4e487b71000000000000000000000000000000000000000000000000000000005f52604160045260245ffd5b7f4e487b71000000000000000000000000000000000000000000000000000000005f52602260045260245ffd5b5f60028204905060018216806200012457607f821691505b6020821081036200013a5762000139620000df565b5b50919050565b5f819050815f5260205f209050919050565b5f6020601f8301049050919050565b5f82821b905092915050565b5f600883026200019e7fffffffffffffffffffffffffffffffffffffffffffffffffffffffffffffffff8262000161565b620001aa868362000161565b95508019841693508086168417925050509392505050565b5f819050919050565b5f819050919050565b5f620001f4620001ee620001e884620001c2565b620001cb565b620001c2565b9050919050565b5f819050919050565b6200020f83620001d4565b620002276200021e82620001fb565b8484546200016d565b825550505050565b5f90565b6200023d6200022f565b6200024a81848462000204565b505050565b5b818110156200027157620002655f8262000233565b60018101905062000250565b5050565b601f821115620002c0576200028a8162000140565b620002958462000152565b81016020851015620002a5578190505b620002bd620002b48562000152565b8301826200024f565b50505b505050565b5f82821c905092915050565b5f620002e25f1984600802620002c5565b1980831691505092915050565b5f620002fc8383620002d1565b9150826002028217905092915050565b6200031782620000a8565b67ffffffffffffffff811115620003335762000332620000b2565b5b6200033f82546200010c565b6200034c82828562000275565b5f60209050601f83116001811462000382575f84156200036d578287015190505b620003798582620002ef565b865550620003e8565b601f198416620003928662000140565b5f5b82811015620003bb5784890151825560018201915060208501945060208101905062000394565b86831015620003db5784890151620003d7601f891682620002d1565b8355505b6001600288020188555050505b505050505050565b615f8c80620003fe5f395ff3fe608060405260043610610244575f3560e01c80635376574411610138578063a5c42ef1116100b5578063c87b56dd11610079578063c87b56dd14610901578063d053b4511461093d578063e1b1462014610979578063e2c07c7b146109b5578063e985e9c5146109d1578063fc5a4efe14610a0d57610244565b8063a5c42ef11461080f578063b88d4fde14610839578063bc3a8e9e14610861578063bce871561461089d578063c2852f38146108d957610244565b806390d16ce4116100fc57806390d16ce41461071d57806393a43c19146107595780639537e8d11461079557806395d89b41146107bd578063a22cb465146107e757610244565b806353765744146106115780636352211e1461064d5780636d0136181461068957806370a08231146106b957806389b83d3e146106f557610244565b806328047450116101c6578063409283d01161018a578063409283d01461054d57806342842e0e1461056957806345f18460146105915780634ec3e2aa146105cd5780634f73d79d146105f557610244565b8063280474501461043e5780632907eb1614610466578063294a79311461048e5780633330a55f146104ca57806336a2d6f51461051157610244565b8063095ea7b31161020d578063095ea7b31461034e57806323133e4c146103765780632355e217146103b257806323b872dd146103da57806323e0f2371461040257610244565b8062923f9e1461024857806301ffc9a714610284578063045b6a4e146102c057806306fdde03146102e8578063081812fc14610312575b5f80fd5b348015610253575f80fd5b5061026e60048036038101906102699190614bdb565b610a4e565b60405161027b9190614c20565b60405180910390f35b34801561028f575f80fd5b506102aa60048036038101906102a59190614c8e565b610ad9565b6040516102b79190614c20565b60405180910390f35b3480156102cb575f80fd5b506102e660048036038101906102e19190614d13565b610bba565b005b3480156102f3575f80fd5b506102fc610dc0565b6040516103099190614ddb565b60405180910390f35b34801561031d575f80fd5b5061033860048036038101906103339190614bdb565b610e4f565b6040516103459190614e0a565b60405180910390f35b348015610359575f80fd5b50610374600480360381019061036f9190614e23565b610e6a565b005b348015610381575f80fd5b5061039c60048036038101906103979190614e61565b610e80565b6040516103a99190614f43565b60405180910390f35b3480156103bd575f80fd5b506103d860048036038101906103d39190614d13565b6110a4565b005b3480156103e5575f80fd5b5061040060048036038101906103fb9190614f63565b611352565b005b34801561040d575f80fd5b5061042860048036038101906104239190614bdb565b611451565b6040516104359190614e0a565b60405180910390f35b348015610449575f80fd5b50610464600480360381019061045f9190614bdb565b611462565b005b348015610471575f80fd5b5061048c60048036038101906104879190614bdb565b611729565b005b348015610499575f80fd5b506104b460048036038101906104af9190614d13565b6119bd565b6040516104c19190614c20565b60405180910390f35b3480156104d5575f80fd5b506104f060048036038101906104eb9190614bdb565b6119e7565b6040516105089c9b9a99989796959493929190614fc2565b60405180910390f35b34801561051c575f80fd5b5061053760048036038101906105329190615088565b611ba2565b6040516105449190614e0a565b60405180910390f35b61056760048036038101906105629190614bdb565b611bea565b005b348015610574575f80fd5b5061058f600480360381019061058a9190614f63565b611fd4565b005b34801561059c575f80fd5b506105b760048036038101906105b29190614e23565b611ff3565b6040516105c491906150c6565b60405180910390f35b3480156105d8575f80fd5b506105f360048036038101906105ee9190614bdb565b61201e565b005b61060f600480360381019061060a9190615235565b612337565b005b34801561061c575f80fd5b5061063760048036038101906106329190614bdb565b6125d1565b60405161064491906153ad565b60405180910390f35b348015610658575f80fd5b50610673600480360381019061066e9190614bdb565b61266d565b6040516106809190614e0a565b60405180910390f35b6106a3600480360381019061069e91906153cd565b61267e565b6040516106b091906150c6565b60405180910390f35b3480156106c4575f80fd5b506106df60048036038101906106da9190614e61565b612a81565b6040516106ec91906150c6565b60405180910390f35b348015610700575f80fd5b5061071b60048036038101906107169190614bdb565b612b37565b005b348015610728575f80fd5b50610743600480360381019061073e9190614e61565b612c58565b6040516107509190614f43565b60405180910390f35b348015610764575f80fd5b5061077f600480360381019061077a9190614bdb565b612ceb565b60405161078c9190614c20565b60405180910390f35b3480156107a0575f80fd5b506107bb60048036038101906107b69190614bdb565b612d14565b005b3480156107c8575f80fd5b506107d1613092565b6040516107de9190614ddb565b60405180910390f35b3480156107f2575f80fd5b5061080d6004803603810190610808919061547c565b613122565b005b34801561081a575f80fd5b50610823613138565b60405161083091906150c6565b60405180910390f35b348015610844575f80fd5b5061085f600480360381019061085a9190615558565b61313e565b005b34801561086c575f80fd5b5061088760048036038101906108829190614e23565b61315b565b60405161089491906150c6565b60405180910390f35b3480156108a8575f80fd5b506108c360048036038101906108be9190614bdb565b613186565b6040516108d09190614c20565b60405180910390f35b3480156108e4575f80fd5b506108ff60048036038101906108fa9190614bdb565b6132dc565b005b34801561090c575f80fd5b5061092760048036038101906109229190614bdb565b613387565b6040516109349190614ddb565b60405180910390f35b348015610948575f80fd5b50610963600480360381019061095e9190614e61565b6133ed565b6040516109709190614f43565b60405180910390f35b348015610984575f80fd5b5061099f600480360381019061099a9190614e23565b613480565b6040516109ac91906150c6565b60405180910390f35b6109cf60048036038101906109ca9190614bdb565b6134ab565b005b3480156109dc575f80fd5b506109f760048036038101906109f291906155d8565b61379b565b604051610a049190614c20565b60405180910390f35b348015610a18575f80fd5b50610a336004803603810190610a2e9190614bdb565b613829565b604051610a4596959493929190615616565b60405180910390f35b5f3073ffffffffffffffffffffffffffffffffffffffff16636352211e836040518263ffffffff1660e01b8152600401610a8891906150c6565b602060405180830381865afa925050508015610ac257506040513d601f19601f82011682018060405250810190610abf9190615697565b60015b610ace575f9050610ad4565b50600190505b919050565b5f7f80ac58cd000000000000000000000000000000000000000000000000000000007bffffffffffffffffffffffffffffffffffffffffffffffffffffffff1916827bffffffffffffffffffffffffffffffffffffffffffffffffffffffff19161480610ba357507f5b5e139f000000000000000000000000000000000000000000000000000000007bffffffffffffffffffffffffffffffffffffffffffffffffffffffff1916827bffffffffffffffffffffffffffffffffffffffffffffffffffffffff1916145b80610bb35750610bb282613986565b5b9050919050565b610bc38261266d565b73ffffffffffffffffffffffffffffffffffffffff163373ffffffffffffffffffffffffffffffffffffffff16148015610c52575060085f8381526020019081526020015f205f8273ffffffffffffffffffffffffffffffffffffffff1673ffffffffffffffffffffffffffffffffffffffff1681526020019081526020015f205f9054906101000a900460ff165b610c91576040517f08c379a0000000000000000000000000000000000000000000000000000000008152600401610c889061570c565b60405180910390fd5b5f5b600c5f8481526020019081526020015f2080549050811015610d4e578173ffffffffffffffffffffffffffffffffffffffff16600c5f8581526020019081526020015f208281548110610ce957610ce861572a565b5b905f5260205f20015f9054906101000a900473ffffffffffffffffffffffffffffffffffffffff1673ffffffffffffffffffffffffffffffffffffffff1603610d3b57610d3683826139ef565b610d4e565b8080610d4690615784565b915050610c93565b505f60085f8481526020019081526020015f205f8373ffffffffffffffffffffffffffffffffffffffff1673ffffffffffffffffffffffffffffffffffffffff1681526020019081526020015f205f6101000a81548160ff021916908315150217905550610dbc8282613b19565b5050565b60605f8054610dce906157f8565b80601f0160208091040260200160405190810160405280929190818152602001828054610dfa906157f8565b8015610e455780601f10610e1c57610100808354040283529160200191610e45565b820191905f5260205f20905b815481529060010190602001808311610e2857829003601f168201915b5050505050905090565b5f610e5982613e78565b50610e6382613efe565b9050919050565b610e7c8282610e77613f37565b613f3e565b5050565b60605f600b5f8473ffffffffffffffffffffffffffffffffffffffff1673ffffffffffffffffffffffffffffffffffffffff1681526020019081526020015f208054905090505f8167ffffffffffffffff811115610ee157610ee06150e7565b5b604051908082528060200260200182016040528015610f0f5781602001602082028036833780820191505090505b5090505f805b83811015610ff3575f600b5f8873ffffffffffffffffffffffffffffffffffffffff1673ffffffffffffffffffffffffffffffffffffffff1681526020019081526020015f208281548110610f6d57610f6c61572a565b5b905f5260205f200154905060065f8281526020019081526020015f206005015f9054906101000a900460ff16158015610fab5750610faa81610a4e565b5b15610fdf5780848481518110610fc457610fc361572a565b5b6020026020010181815250508280610fdb90615784565b9350505b508080610feb90615784565b915050610f15565b505f8167ffffffffffffffff81111561100f5761100e6150e7565b5b60405190808252806020026020018201604052801561103d5781602001602082028036833780820191505090505b5090505f5b828110156110975783818151811061105d5761105c61572a565b5b60200260200101518282815181106110785761107761572a565b5b602002602001018181525050808061108f90615784565b915050611042565b5080945050505050919050565b6110ad8261266d565b73ffffffffffffffffffffffffffffffffffffffff163373ffffffffffffffffffffffffffffffffffffffff1614801561113d575060085f8381526020019081526020015f205f8273ffffffffffffffffffffffffffffffffffffffff1673ffffffffffffffffffffffffffffffffffffffff1681526020019081526020015f205f9054906101000a900460ff16155b801561117d575061114d8261266d565b73ffffffffffffffffffffffffffffffffffffffff168173ffffffffffffffffffffffffffffffffffffffff1614155b6111bc576040517f08c379a00000000000000000000000000000000000000000000000000000000081526004016111b39061570c565b60405180910390fd5b60085f8381526020019081526020015f205f8273ffffffffffffffffffffffffffffffffffffffff1673ffffffffffffffffffffffffffffffffffffffff1681526020019081526020015f205f9054906101000a900460ff1661134e57600160085f8481526020019081526020015f205f8373ffffffffffffffffffffffffffffffffffffffff1673ffffffffffffffffffffffffffffffffffffffff1681526020019081526020015f205f6101000a81548160ff021916908315150217905550600c5f8381526020019081526020015f2081908060018154018082558091505060019003905f5260205f20015f9091909190916101000a81548173ffffffffffffffffffffffffffffffffffffffff021916908373ffffffffffffffffffffffffffffffffffffffff16021790555060095f8273ffffffffffffffffffffffffffffffffffffffff1673ffffffffffffffffffffffffffffffffffffffff1681526020019081526020015f2082908060018154018082558091505060019003905f5260205f20015f90919091909150555b5050565b5f73ffffffffffffffffffffffffffffffffffffffff168273ffffffffffffffffffffffffffffffffffffffff16036113c2575f6040517f64a0ae920000000000000000000000000000000000000000000000000000000081526004016113b99190614e0a565b60405180910390fd5b5f6113d583836113d0613f37565b613f50565b90508373ffffffffffffffffffffffffffffffffffffffff168173ffffffffffffffffffffffffffffffffffffffff161461144b578382826040517f64283d7b00000000000000000000000000000000000000000000000000000000815260040161144293929190615828565b60405180910390fd5b50505050565b5f61145b8261266d565b9050919050565b3073ffffffffffffffffffffffffffffffffffffffff16636352211e826040518263ffffffff1660e01b815260040161149b91906150c6565b602060405180830381865afa9250505080156114d557506040513d601f19601f820116820180604052508101906114d29190615697565b60015b611514576040517f08c379a000000000000000000000000000000000000000000000000000000000815260040161150b906158a7565b60405180910390fd5b506001151560085f8381526020019081526020015f205f3373ffffffffffffffffffffffffffffffffffffffff1673ffffffffffffffffffffffffffffffffffffffff1681526020019081526020015f205f9054906101000a900460ff16151514801561159f575060065f8281526020019081526020015f206005015f9054906101000a900460ff16155b80156115cf57505f151560065f8381526020019081526020015f2060050160159054906101000a900460ff161515145b61160e576040517f08c379a00000000000000000000000000000000000000000000000000000000081526004016116059061570c565b60405180910390fd5b5f6116188261266d565b90505f60065f8481526020019081526020015f205f015490508173ffffffffffffffffffffffffffffffffffffffff166108fc8290811502906040515f60405180830381858888f19350505050158015611674573d5f803e3d5ffd5b5061167f8383613b19565b6116888361415b565b60065f8481526020019081526020015f2060050160019054906101000a900473ffffffffffffffffffffffffffffffffffffffff1673ffffffffffffffffffffffffffffffffffffffff168273ffffffffffffffffffffffffffffffffffffffff16847f344201ab2f1b413c381fe1cb1ae7d24db70f386bce6c330c4c705bba56d233fa844260405161171c9291906158c5565b60405180910390a4505050565b3073ffffffffffffffffffffffffffffffffffffffff16636352211e826040518263ffffffff1660e01b815260040161176291906150c6565b602060405180830381865afa92505050801561179c57506040513d601f19601f820116820180604052508101906117999190615697565b60015b6117db576040517f08c379a00000000000000000000000000000000000000000000000000000000081526004016117d2906158a7565b60405180910390fd5b506001151560085f8381526020019081526020015f205f3373ffffffffffffffffffffffffffffffffffffffff1673ffffffffffffffffffffffffffffffffffffffff1681526020019081526020015f205f9054906101000a900460ff161515148015611865575060065f8281526020019081526020015f206005015f9054906101000a900460ff165b801561189557505f151560065f8381526020019081526020015f2060050160159054906101000a900460ff161515145b80156118ac57505f15156118a882613186565b1515145b6118eb576040517f08c379a00000000000000000000000000000000000000000000000000000000081526004016118e29061570c565b60405180910390fd5b600160065f8381526020019081526020015f2060050160156101000a81548160ff02191690831515021790555060065f8281526020019081526020015f2060050160019054906101000a900473ffffffffffffffffffffffffffffffffffffffff1673ffffffffffffffffffffffffffffffffffffffff1661196c8261266d565b73ffffffffffffffffffffffffffffffffffffffff16827f86ea1596926f4e3b70b3169cd39eb59f8ada5f00ef929f33bdf925066cc52e8d426040516119b291906150c6565b60405180910390a450565b6008602052815f5260405f20602052805f5260405f205f915091509054906101000a900460ff1681565b6006602052805f5260405f205f91509050805f015490806001015490806002015490806003018054611a18906157f8565b80601f0160208091040260200160405190810160405280929190818152602001828054611a44906157f8565b8015611a8f5780601f10611a6657610100808354040283529160200191611a8f565b820191905f5260205f20905b815481529060010190602001808311611a7257829003601f168201915b505050505090806004018054611aa4906157f8565b80601f0160208091040260200160405190810160405280929190818152602001828054611ad0906157f8565b8015611b1b5780601f10611af257610100808354040283529160200191611b1b565b820191905f5260205f20905b815481529060010190602001808311611afe57829003601f168201915b505050505090806005015f9054906101000a900460ff16908060050160019054906101000a900473ffffffffffffffffffffffffffffffffffffffff16908060050160159054906101000a900460ff16908060050160169054906101000a900460ff16908060050160179054906101000a900460ff1690806006015490806007015490508c565b600c602052815f5260405f208181548110611bbb575f80fd5b905f5260205f20015f915091509054906101000a900473ffffffffffffffffffffffffffffffffffffffff1681565b60075f8281526020019081526020015f2060040160019054906101000a900460ff168015611c1e5750611c1c81613186565b155b611c5d576040517f08c379a0000000000000000000000000000000000000000000000000000000008152600401611c549061570c565b60405180910390fd5b5f60075f8381526020019081526020015f206040518060c00160405290815f82018054611c89906157f8565b80601f0160208091040260200160405190810160405280929190818152602001828054611cb5906157f8565b8015611d005780601f10611cd757610100808354040283529160200191611d00565b820191905f5260205f20905b815481529060010190602001808311611ce357829003601f168201915b505050505081526020016001820154815260200160028201548152602001600382018054611d2d906157f8565b80601f0160208091040260200160405190810160405280929190818152602001828054611d59906157f8565b8015611da45780601f10611d7b57610100808354040283529160200191611da4565b820191905f5260205f20905b815481529060010190602001808311611d8757829003601f168201915b50505050508152602001600482015f9054906101000a900460ff161515151581526020016004820160019054906101000a900460ff16151515158152505090505f60065f8481526020019081526020015f205f015490508082602001511015611e6d575f826020015182611e1891906158ec565b90505f611e248561266d565b90508073ffffffffffffffffffffffffffffffffffffffff166108fc8390811502906040515f60405180830381858888f19350505050158015611e69573d5f803e3d5ffd5b5050505b815f015160065f8581526020019081526020015f206003019081611e919190615abc565b50816020015160065f8581526020019081526020015f205f0181905550816040015160065f8581526020019081526020015f2060020181905550816060015160065f8581526020019081526020015f206004019081611ef09190615abc565b5060065f8481526020019081526020015f2060050160179054906101000a900460ff1615158260800151151514611f4457816080015115611f3957611f34836132dc565b611f43565b611f4283612b37565b5b5b5f60075f8581526020019081526020015f2060040160016101000a81548160ff021916908315150217905550611f798361266d565b73ffffffffffffffffffffffffffffffffffffffff16837feae34dfcd93cfebf9280a6861befb7759d5cd39c50230ea4236c640577b57e9183856020015142604051611fc793929190615b8b565b60405180910390a3505050565b611fee83838360405180602001604052805f81525061313e565b505050565b600b602052815f5260405f20818154811061200c575f80fd5b905f5260205f20015f91509150505481565b60075f8281526020019081526020015f2060040160019054906101000a900460ff168015612052575061205081613186565b155b612091576040517f08c379a00000000000000000000000000000000000000000000000000000000081526004016120889061570c565b60405180910390fd5b5f60075f8381526020019081526020015f206040518060c00160405290815f820180546120bd906157f8565b80601f01602080910402602001604051908101604052809291908181526020018280546120e9906157f8565b80156121345780601f1061210b57610100808354040283529160200191612134565b820191905f5260205f20905b81548152906001019060200180831161211757829003601f168201915b505050505081526020016001820154815260200160028201548152602001600382018054612161906157f8565b80601f016020809104026020016040519081016040528092919081815260200182805461218d906157f8565b80156121d85780601f106121af576101008083540402835291602001916121d8565b820191905f5260205f20905b8154815290600101906020018083116121bb57829003601f168201915b50505050508152602001600482015f9054906101000a900460ff161515151581526020016004820160019054906101000a900460ff161515151581525050905060065f8381526020019081526020015f205f0154816020015111156122b0575f60065f8481526020019081526020015f205f0154826020015161225b91906158ec565b90505f6122678461266d565b90508073ffffffffffffffffffffffffffffffffffffffff166108fc8390811502906040515f60405180830381858888f193505050501580156122ac573d5f803e3d5ffd5b5050505b5f60075f8481526020019081526020015f2060040160016101000a81548160ff0219169083151502179055506122e58261266d565b73ffffffffffffffffffffffffffffffffffffffff16827f15934a3417e41a8dee207a62290629c5e540abd33988563c1e3f0a719def99a94260405161232b91906150c6565b60405180910390a35050565b60065f8781526020019081526020015f206005015f9054906101000a900460ff16801561236a575061236886613186565b155b8015612395575060075f8781526020019081526020015f2060040160019054906101000a900460ff16155b80156123f6575060085f8781526020019081526020015f205f3373ffffffffffffffffffffffffffffffffffffffff1673ffffffffffffffffffffffffffffffffffffffff1681526020019081526020015f205f9054906101000a900460ff165b612435576040517f08c379a000000000000000000000000000000000000000000000000000000000815260040161242c9061570c565b60405180910390fd5b5f60065f8881526020019081526020015f205f0154905080851115612505575f818661246191906158ec565b9050803410156124a6576040517f08c379a000000000000000000000000000000000000000000000000000000000815260040161249d90615c30565b60405180910390fd5b5f81346124b391906158ec565b90505f811115612502573373ffffffffffffffffffffffffffffffffffffffff166108fc8290811502906040515f60405180830381858888f19350505050158015612500573d5f803e3d5ffd5b505b50505b6040518060c0016040528087815260200186815260200185815260200184815260200183151581526020016001151581525060075f8981526020019081526020015f205f820151815f01908161255b9190615abc565b50602082015181600101556040820151816002015560608201518160030190816125859190615abc565b506080820151816004015f6101000a81548160ff02191690831515021790555060a08201518160040160016101000a81548160ff02191690831515021790555090505050505050505050565b6060600c5f8381526020019081526020015f2080548060200260200160405190810160405280929190818152602001828054801561266157602002820191905f5260205f20905b815f9054906101000a900473ffffffffffffffffffffffffffffffffffffffff1673ffffffffffffffffffffffffffffffffffffffff1681526020019060010190808311612618575b50505050509050919050565b5f61267782613e78565b9050919050565b5f843410156126c2576040517f08c379a00000000000000000000000000000000000000000000000000000000081526004016126b990615cbe565b60405180910390fd5b600d5f8154809291906126d490615784565b91905055506126e533600d546141dd565b5f85346126f291906158ec565b90505f811115612741573373ffffffffffffffffffffffffffffffffffffffff166108fc8290811502906040515f60405180830381858888f1935050505015801561273f573d5f803e3d5ffd5b505b5f6040518061018001604052808881526020014281526020018781526020018581526020018681526020015f151581526020018973ffffffffffffffffffffffffffffffffffffffff1681526020015f151581526020015f151581526020015f151581526020015f81526020015f81525090508060065f600d5481526020019081526020015f205f820151815f0155602082015181600101556040820151816002015560608201518160030190816127f99190615abc565b50608082015181600401908161280f9190615abc565b5060a0820151816005015f6101000a81548160ff02191690831515021790555060c08201518160050160016101000a81548173ffffffffffffffffffffffffffffffffffffffff021916908373ffffffffffffffffffffffffffffffffffffffff16021790555060e08201518160050160156101000a81548160ff0219169083151502179055506101008201518160050160166101000a81548160ff0219169083151502179055506101208201518160050160176101000a81548160ff02191690831515021790555061014082015181600601556101608201518160070155905050600160085f600d5481526020019081526020015f205f3373ffffffffffffffffffffffffffffffffffffffff1673ffffffffffffffffffffffffffffffffffffffff1681526020019081526020015f205f6101000a81548160ff02191690831515021790555060095f3373ffffffffffffffffffffffffffffffffffffffff1673ffffffffffffffffffffffffffffffffffffffff1681526020019081526020015f20600d54908060018154018082558091505060019003905f5260205f20015f9091909190915055600b5f8973ffffffffffffffffffffffffffffffffffffffff1673ffffffffffffffffffffffffffffffffffffffff1681526020019081526020015f20600d54908060018154018082558091505060019003905f5260205f20015f90919091909150553373ffffffffffffffffffffffffffffffffffffffff167f81fd5f457056a8b19e623dc52551a385bfcafd0914d3942446ecab71d19b123b600d548942604051612a6993929190615b8b565b60405180910390a2600d549250505095945050505050565b5f8073ffffffffffffffffffffffffffffffffffffffff168273ffffffffffffffffffffffffffffffffffffffff1603612af2575f6040517f89c62b64000000000000000000000000000000000000000000000000000000008152600401612ae99190614e0a565b60405180910390fd5b60035f8373ffffffffffffffffffffffffffffffffffffffff1673ffffffffffffffffffffffffffffffffffffffff1681526020019081526020015f20549050919050565b60065f8281526020019081526020015f2060050160179054906101000a900460ff16612b98576040517f08c379a0000000000000000000000000000000000000000000000000000000008152600401612b8f9061570c565b60405180910390fd5b5f60065f8381526020019081526020015f206006015442612bb991906158ec565b90508060065f8481526020019081526020015f206002015f828254612bde9190615cdc565b925050819055508060065f8481526020019081526020015f206007015f828254612c089190615cdc565b925050819055505f60065f8481526020019081526020015f20600601819055505f60065f8481526020019081526020015f2060050160176101000a81548160ff0219169083151502179055505050565b606060095f8373ffffffffffffffffffffffffffffffffffffffff1673ffffffffffffffffffffffffffffffffffffffff1681526020019081526020015f20805480602002602001604051908101604052809291908181526020018280548015612cdf57602002820191905f5260205f20905b815481526020019060010190808311612ccb575b50505050509050919050565b5f60065f8381526020019081526020015f206005015f9054906101000a900460ff169050919050565b3073ffffffffffffffffffffffffffffffffffffffff16636352211e826040518263ffffffff1660e01b8152600401612d4d91906150c6565b602060405180830381865afa925050508015612d8757506040513d601f19601f82011682018060405250810190612d849190615697565b60015b612dc6576040517f08c379a0000000000000000000000000000000000000000000000000000000008152600401612dbd906158a7565b60405180910390fd5b505f151560085f8381526020019081526020015f205f3373ffffffffffffffffffffffffffffffffffffffff1673ffffffffffffffffffffffffffffffffffffffff1681526020019081526020015f205f9054906101000a900460ff161515148015612e91575060065f8281526020019081526020015f2060050160019054906101000a900473ffffffffffffffffffffffffffffffffffffffff1673ffffffffffffffffffffffffffffffffffffffff163373ffffffffffffffffffffffffffffffffffffffff16145b8015612ebb575060065f8281526020019081526020015f206005015f9054906101000a900460ff16155b8015612eeb57505f151560065f8381526020019081526020015f2060050160159054906101000a900460ff161515145b8015612f0257505f1515612efe82613186565b1515145b612f41576040517f08c379a0000000000000000000000000000000000000000000000000000000008152600401612f389061570c565b60405180910390fd5b600160065f8381526020019081526020015f206005015f6101000a81548160ff0219169083151502179055503360065f8381526020019081526020015f2060050160016101000a81548173ffffffffffffffffffffffffffffffffffffffff021916908373ffffffffffffffffffffffffffffffffffffffff160217905550600a5f3373ffffffffffffffffffffffffffffffffffffffff1673ffffffffffffffffffffffffffffffffffffffff1681526020019081526020015f2081908060018154018082558091505060019003905f5260205f20015f90919091909150553373ffffffffffffffffffffffffffffffffffffffff166130418261266d565b73ffffffffffffffffffffffffffffffffffffffff16827f9678f981bcf017d96c4d9fb4124afb0d1c62735df0ad70bef9fd0f5c18bda4fb4260405161308791906150c6565b60405180910390a450565b6060600180546130a1906157f8565b80601f01602080910402602001604051908101604052809291908181526020018280546130cd906157f8565b80156131185780601f106130ef57610100808354040283529160200191613118565b820191905f5260205f20905b8154815290600101906020018083116130fb57829003601f168201915b5050505050905090565b61313461312d613f37565b83836142d0565b5050565b600d5481565b613149848484611352565b61315584848484614439565b50505050565b600a602052815f5260405f208181548110613174575f80fd5b905f5260205f20015f91509150505481565b5f3073ffffffffffffffffffffffffffffffffffffffff16636352211e836040518263ffffffff1660e01b81526004016131c091906150c6565b602060405180830381865afa9250505080156131fa57506040513d601f19601f820116820180604052508101906131f79190615697565b60015b613239576040517f08c379a0000000000000000000000000000000000000000000000000000000008152600401613230906158a7565b60405180910390fd5b506001151560065f8481526020019081526020015f2060050160159054906101000a900460ff1615150361327057600190506132d7565b60065f8381526020019081526020015f206007015460065f8481526020019081526020015f206002015460065f8581526020019081526020015f20600101546132b99190615cdc565b6132c39190615cdc565b4211156132d357600190506132d7565b5f90505b919050565b60065f8281526020019081526020015f2060050160179054906101000a900460ff161561333e576040517f08c379a00000000000000000000000000000000000000000000000000000000081526004016133359061570c565b60405180910390fd5b600160065f8381526020019081526020015f2060050160176101000a81548160ff0219169083151502179055504260065f8381526020019081526020015f206006018190555050565b606061339282613e78565b505f61339c6145eb565b90505f8151116133ba5760405180602001604052805f8152506133e5565b806133c484614601565b6040516020016133d5929190615d49565b6040516020818303038152906040525b915050919050565b6060600a5f8373ffffffffffffffffffffffffffffffffffffffff1673ffffffffffffffffffffffffffffffffffffffff1681526020019081526020015f2080548060200260200160405190810160405280929190818152602001828054801561347457602002820191905f5260205f20905b815481526020019060010190808311613460575b50505050509050919050565b6009602052815f5260405f208181548110613499575f80fd5b905f5260205f20015f91509150505481565b3073ffffffffffffffffffffffffffffffffffffffff16636352211e826040518263ffffffff1660e01b81526004016134e491906150c6565b602060405180830381865afa92505050801561351e57506040513d601f19601f8201168201806040525081019061351b9190615697565b60015b61355d576040517f08c379a0000000000000000000000000000000000000000000000000000000008152600401613554906158a7565b60405180910390fd5b5060065f8281526020019081526020015f206005015f9054906101000a900460ff1680156135af57505f151560065f8381526020019081526020015f2060050160169054906101000a900460ff161515145b801561361757506001151560085f8381526020019081526020015f205f3373ffffffffffffffffffffffffffffffffffffffff1673ffffffffffffffffffffffffffffffffffffffff1681526020019081526020015f205f9054906101000a900460ff161515145b801561362f57506001151561362b82613186565b1515145b61366e576040517f08c379a00000000000000000000000000000000000000000000000000000000081526004016136659061570c565b60405180910390fd5b5f60065f8381526020019081526020015f2060050160019054906101000a900473ffffffffffffffffffffffffffffffffffffffff1690505f60065f8481526020019081526020015f205f015490508173ffffffffffffffffffffffffffffffffffffffff166108fc8290811502906040515f60405180830381858888f19350505050158015613700573d5f803e3d5ffd5b50600160065f8581526020019081526020015f2060050160166101000a81548160ff0219169083151502179055508173ffffffffffffffffffffffffffffffffffffffff163373ffffffffffffffffffffffffffffffffffffffff16847f4b5aadc9a65abf047bc2152ff605000b1dd64e7cb420aba7862457538885bfee844260405161378e9291906158c5565b60405180910390a4505050565b5f60055f8473ffffffffffffffffffffffffffffffffffffffff1673ffffffffffffffffffffffffffffffffffffffff1681526020019081526020015f205f8373ffffffffffffffffffffffffffffffffffffffff1673ffffffffffffffffffffffffffffffffffffffff1681526020019081526020015f205f9054906101000a900460ff16905092915050565b6007602052805f5260405f205f91509050805f018054613848906157f8565b80601f0160208091040260200160405190810160405280929190818152602001828054613874906157f8565b80156138bf5780601f10613896576101008083540402835291602001916138bf565b820191905f5260205f20905b8154815290600101906020018083116138a257829003601f168201915b5050505050908060010154908060020154908060030180546138e0906157f8565b80601f016020809104026020016040519081016040528092919081815260200182805461390c906157f8565b80156139575780601f1061392e57610100808354040283529160200191613957565b820191905f5260205f20905b81548152906001019060200180831161393a57829003601f168201915b505050505090806004015f9054906101000a900460ff16908060040160019054906101000a900460ff16905086565b5f7f01ffc9a7000000000000000000000000000000000000000000000000000000007bffffffffffffffffffffffffffffffffffffffffffffffffffffffff1916827bffffffffffffffffffffffffffffffffffffffffffffffffffffffff1916149050919050565b600c5f8381526020019081526020015f206001600c5f8581526020019081526020015f2080549050613a2191906158ec565b81548110613a3257613a3161572a565b5b905f5260205f20015f9054906101000a900473ffffffffffffffffffffffffffffffffffffffff16600c5f8481526020019081526020015f208281548110613a7d57613a7c61572a565b5b905f5260205f20015f6101000a81548173ffffffffffffffffffffffffffffffffffffffff021916908373ffffffffffffffffffffffffffffffffffffffff160217905550600c5f8381526020019081526020015f20805480613ae357613ae2615d6c565b5b600190038181905f5260205f20015f6101000a81549073ffffffffffffffffffffffffffffffffffffffff021916905590555050565b3073ffffffffffffffffffffffffffffffffffffffff16636352211e836040518263ffffffff1660e01b8152600401613b5291906150c6565b602060405180830381865afa925050508015613b8c57506040513d601f19601f82011682018060405250810190613b899190615697565b60015b613bcb576040517f08c379a0000000000000000000000000000000000000000000000000000000008152600401613bc2906158a7565b60405180910390fd5b508073ffffffffffffffffffffffffffffffffffffffff16613bec8361266d565b73ffffffffffffffffffffffffffffffffffffffff1614613c42576040517f08c379a0000000000000000000000000000000000000000000000000000000008152600401613c3990615e09565b60405180910390fd5b5f80600160095f8573ffffffffffffffffffffffffffffffffffffffff1673ffffffffffffffffffffffffffffffffffffffff1681526020019081526020015f2080549050613c9191906158ec565b90505f5b60095f8573ffffffffffffffffffffffffffffffffffffffff1673ffffffffffffffffffffffffffffffffffffffff1681526020019081526020015f2080549050811015613d56578460095f8673ffffffffffffffffffffffffffffffffffffffff1673ffffffffffffffffffffffffffffffffffffffff1681526020019081526020015f208281548110613d2d57613d2c61572a565b5b905f5260205f20015403613d4357809250613d56565b8080613d4e90615784565b915050613c95565b50808214613e125760095f8473ffffffffffffffffffffffffffffffffffffffff1673ffffffffffffffffffffffffffffffffffffffff1681526020019081526020015f208181548110613dad57613dac61572a565b5b905f5260205f20015460095f8573ffffffffffffffffffffffffffffffffffffffff1673ffffffffffffffffffffffffffffffffffffffff1681526020019081526020015f208381548110613e0557613e0461572a565b5b905f5260205f2001819055505b60095f8473ffffffffffffffffffffffffffffffffffffffff1673ffffffffffffffffffffffffffffffffffffffff1681526020019081526020015f20805480613e5f57613e5e615d6c565b5b600190038181905f5260205f20015f9055905550505050565b5f80613e83836146cb565b90505f73ffffffffffffffffffffffffffffffffffffffff168173ffffffffffffffffffffffffffffffffffffffff1603613ef557826040517f7e273289000000000000000000000000000000000000000000000000000000008152600401613eec91906150c6565b60405180910390fd5b80915050919050565b5f60045f8381526020019081526020015f205f9054906101000a900473ffffffffffffffffffffffffffffffffffffffff169050919050565b5f33905090565b613f4b8383836001614704565b505050565b5f80613f5b846146cb565b90505f73ffffffffffffffffffffffffffffffffffffffff168373ffffffffffffffffffffffffffffffffffffffff1614613f9c57613f9b8184866148c3565b5b5f73ffffffffffffffffffffffffffffffffffffffff168173ffffffffffffffffffffffffffffffffffffffff161461402757613fdb5f855f80614704565b600160035f8373ffffffffffffffffffffffffffffffffffffffff1673ffffffffffffffffffffffffffffffffffffffff1681526020019081526020015f205f82825403925050819055505b5f73ffffffffffffffffffffffffffffffffffffffff168573ffffffffffffffffffffffffffffffffffffffff16146140a657600160035f8773ffffffffffffffffffffffffffffffffffffffff1673ffffffffffffffffffffffffffffffffffffffff1681526020019081526020015f205f82825401925050819055505b8460025f8681526020019081526020015f205f6101000a81548173ffffffffffffffffffffffffffffffffffffffff021916908373ffffffffffffffffffffffffffffffffffffffff160217905550838573ffffffffffffffffffffffffffffffffffffffff168273ffffffffffffffffffffffffffffffffffffffff167fddf252ad1be2c89b69c2b068fc378daa952ba7f163c4a11628f55a4df523b3ef60405160405180910390a4809150509392505050565b5f6141675f835f613f50565b90505f73ffffffffffffffffffffffffffffffffffffffff168173ffffffffffffffffffffffffffffffffffffffff16036141d957816040517f7e2732890000000000000000000000000000000000000000000000000000000081526004016141d091906150c6565b60405180910390fd5b5050565b5f73ffffffffffffffffffffffffffffffffffffffff168273ffffffffffffffffffffffffffffffffffffffff160361424d575f6040517f64a0ae920000000000000000000000000000000000000000000000000000000081526004016142449190614e0a565b60405180910390fd5b5f61425983835f613f50565b90505f73ffffffffffffffffffffffffffffffffffffffff168173ffffffffffffffffffffffffffffffffffffffff16146142cb575f6040517f73c6ac6e0000000000000000000000000000000000000000000000000000000081526004016142c29190614e0a565b60405180910390fd5b505050565b5f73ffffffffffffffffffffffffffffffffffffffff168273ffffffffffffffffffffffffffffffffffffffff160361434057816040517f5b08ba180000000000000000000000000000000000000000000000000000000081526004016143379190614e0a565b60405180910390fd5b8060055f8573ffffffffffffffffffffffffffffffffffffffff1673ffffffffffffffffffffffffffffffffffffffff1681526020019081526020015f205f8473ffffffffffffffffffffffffffffffffffffffff1673ffffffffffffffffffffffffffffffffffffffff1681526020019081526020015f205f6101000a81548160ff0219169083151502179055508173ffffffffffffffffffffffffffffffffffffffff168373ffffffffffffffffffffffffffffffffffffffff167f17307eab39ab6107e8899845ad3d59bd9653f200f220920489ca2b5937696c318360405161442c9190614c20565b60405180910390a3505050565b5f8373ffffffffffffffffffffffffffffffffffffffff163b11156145e5578273ffffffffffffffffffffffffffffffffffffffff1663150b7a0261447c613f37565b8685856040518563ffffffff1660e01b815260040161449e9493929190615e79565b6020604051808303815f875af19250505080156144d957506040513d601f19601f820116820180604052508101906144d69190615ed7565b60015b61455a573d805f8114614507576040519150601f19603f3d011682016040523d82523d5f602084013e61450c565b606091505b505f81510361455257836040517f64a0ae920000000000000000000000000000000000000000000000000000000081526004016145499190614e0a565b60405180910390fd5b805181602001fd5b63150b7a0260e01b7bffffffffffffffffffffffffffffffffffffffffffffffffffffffff1916817bffffffffffffffffffffffffffffffffffffffffffffffffffffffff1916146145e357836040517f64a0ae920000000000000000000000000000000000000000000000000000000081526004016145da9190614e0a565b60405180910390fd5b505b50505050565b606060405180602001604052805f815250905090565b60605f600161460f84614986565b0190505f8167ffffffffffffffff81111561462d5761462c6150e7565b5b6040519080825280601f01601f19166020018201604052801561465f5781602001600182028036833780820191505090505b5090505f82602001820190505b6001156146c0578080600190039150507f3031323334353637383961626364656600000000000000000000000000000000600a86061a8153600a85816146b5576146b4615f02565b5b0494505f850361466c575b819350505050919050565b5f60025f8381526020019081526020015f205f9054906101000a900473ffffffffffffffffffffffffffffffffffffffff169050919050565b808061473c57505f73ffffffffffffffffffffffffffffffffffffffff168273ffffffffffffffffffffffffffffffffffffffff1614155b1561486e575f61474b84613e78565b90505f73ffffffffffffffffffffffffffffffffffffffff168373ffffffffffffffffffffffffffffffffffffffff16141580156147b557508273ffffffffffffffffffffffffffffffffffffffff168173ffffffffffffffffffffffffffffffffffffffff1614155b80156147c857506147c6818461379b565b155b1561480a57826040517fa9fbf51f0000000000000000000000000000000000000000000000000000000081526004016148019190614e0a565b60405180910390fd5b811561486c57838573ffffffffffffffffffffffffffffffffffffffff168273ffffffffffffffffffffffffffffffffffffffff167f8c5be1e5ebec7d5bd14f71427d1e84f3dd0314c0f7b2291e5b200ac8c7c3b92560405160405180910390a45b505b8360045f8581526020019081526020015f205f6101000a81548173ffffffffffffffffffffffffffffffffffffffff021916908373ffffffffffffffffffffffffffffffffffffffff16021790555050505050565b6148ce838383614ad7565b614981575f73ffffffffffffffffffffffffffffffffffffffff168373ffffffffffffffffffffffffffffffffffffffff160361494257806040517f7e27328900000000000000000000000000000000000000000000000000000000815260040161493991906150c6565b60405180910390fd5b81816040517f177e802f000000000000000000000000000000000000000000000000000000008152600401614978929190615f2f565b60405180910390fd5b505050565b5f805f90507a184f03e93ff9f4daa797ed6e38ed64bf6a1f01000000000000000083106149e2577a184f03e93ff9f4daa797ed6e38ed64bf6a1f01000000000000000083816149d8576149d7615f02565b5b0492506040810190505b6d04ee2d6d415b85acef81000000008310614a1f576d04ee2d6d415b85acef81000000008381614a1557614a14615f02565b5b0492506020810190505b662386f26fc100008310614a4e57662386f26fc100008381614a4457614a43615f02565b5b0492506010810190505b6305f5e1008310614a77576305f5e1008381614a6d57614a6c615f02565b5b0492506008810190505b6127108310614a9c576127108381614a9257614a91615f02565b5b0492506004810190505b60648310614abf5760648381614ab557614ab4615f02565b5b0492506002810190505b600a8310614ace576001810190505b80915050919050565b5f8073ffffffffffffffffffffffffffffffffffffffff168373ffffffffffffffffffffffffffffffffffffffff1614158015614b8e57508273ffffffffffffffffffffffffffffffffffffffff168473ffffffffffffffffffffffffffffffffffffffff161480614b4f5750614b4e848461379b565b5b80614b8d57508273ffffffffffffffffffffffffffffffffffffffff16614b7583613efe565b73ffffffffffffffffffffffffffffffffffffffff16145b5b90509392505050565b5f604051905090565b5f80fd5b5f80fd5b5f819050919050565b614bba81614ba8565b8114614bc4575f80fd5b50565b5f81359050614bd581614bb1565b92915050565b5f60208284031215614bf057614bef614ba0565b5b5f614bfd84828501614bc7565b91505092915050565b5f8115159050919050565b614c1a81614c06565b82525050565b5f602082019050614c335f830184614c11565b92915050565b5f7fffffffff0000000000000000000000000000000000000000000000000000000082169050919050565b614c6d81614c39565b8114614c77575f80fd5b50565b5f81359050614c8881614c64565b92915050565b5f60208284031215614ca357614ca2614ba0565b5b5f614cb084828501614c7a565b91505092915050565b5f73ffffffffffffffffffffffffffffffffffffffff82169050919050565b5f614ce282614cb9565b9050919050565b614cf281614cd8565b8114614cfc575f80fd5b50565b5f81359050614d0d81614ce9565b92915050565b5f8060408385031215614d2957614d28614ba0565b5b5f614d3685828601614bc7565b9250506020614d4785828601614cff565b9150509250929050565b5f81519050919050565b5f82825260208201905092915050565b5f5b83811015614d88578082015181840152602081019050614d6d565b5f8484015250505050565b5f601f19601f8301169050919050565b5f614dad82614d51565b614db78185614d5b565b9350614dc7818560208601614d6b565b614dd081614d93565b840191505092915050565b5f6020820190508181035f830152614df38184614da3565b905092915050565b614e0481614cd8565b82525050565b5f602082019050614e1d5f830184614dfb565b92915050565b5f8060408385031215614e3957614e38614ba0565b5b5f614e4685828601614cff565b9250506020614e5785828601614bc7565b9150509250929050565b5f60208284031215614e7657614e75614ba0565b5b5f614e8384828501614cff565b91505092915050565b5f81519050919050565b5f82825260208201905092915050565b5f819050602082019050919050565b614ebe81614ba8565b82525050565b5f614ecf8383614eb5565b60208301905092915050565b5f602082019050919050565b5f614ef182614e8c565b614efb8185614e96565b9350614f0683614ea6565b805f5b83811015614f36578151614f1d8882614ec4565b9750614f2883614edb565b925050600181019050614f09565b5085935050505092915050565b5f6020820190508181035f830152614f5b8184614ee7565b905092915050565b5f805f60608486031215614f7a57614f79614ba0565b5b5f614f8786828701614cff565b9350506020614f9886828701614cff565b9250506040614fa986828701614bc7565b9150509250925092565b614fbc81614ba8565b82525050565b5f61018082019050614fd65f83018f614fb3565b614fe3602083018e614fb3565b614ff0604083018d614fb3565b8181036060830152615002818c614da3565b90508181036080830152615016818b614da3565b905061502560a083018a614c11565b61503260c0830189614dfb565b61503f60e0830188614c11565b61504d610100830187614c11565b61505b610120830186614c11565b615069610140830185614fb3565b615077610160830184614fb3565b9d9c50505050505050505050505050565b5f806040838503121561509e5761509d614ba0565b5b5f6150ab85828601614bc7565b92505060206150bc85828601614bc7565b9150509250929050565b5f6020820190506150d95f830184614fb3565b92915050565b5f80fd5b5f80fd5b7f4e487b71000000000000000000000000000000000000000000000000000000005f52604160045260245ffd5b61511d82614d93565b810181811067ffffffffffffffff8211171561513c5761513b6150e7565b5b80604052505050565b5f61514e614b97565b905061515a8282615114565b919050565b5f67ffffffffffffffff821115615179576151786150e7565b5b61518282614d93565b9050602081019050919050565b828183375f83830152505050565b5f6151af6151aa8461515f565b615145565b9050828152602081018484840111156151cb576151ca6150e3565b5b6151d684828561518f565b509392505050565b5f82601f8301126151f2576151f16150df565b5b813561520284826020860161519d565b91505092915050565b61521481614c06565b811461521e575f80fd5b50565b5f8135905061522f8161520b565b92915050565b5f805f805f8060c0878903121561524f5761524e614ba0565b5b5f61525c89828a01614bc7565b965050602087013567ffffffffffffffff81111561527d5761527c614ba4565b5b61528989828a016151de565b955050604061529a89828a01614bc7565b94505060606152ab89828a01614bc7565b935050608087013567ffffffffffffffff8111156152cc576152cb614ba4565b5b6152d889828a016151de565b92505060a06152e989828a01615221565b9150509295509295509295565b5f81519050919050565b5f82825260208201905092915050565b5f819050602082019050919050565b61532881614cd8565b82525050565b5f615339838361531f565b60208301905092915050565b5f602082019050919050565b5f61535b826152f6565b6153658185615300565b935061537083615310565b805f5b838110156153a0578151615387888261532e565b975061539283615345565b925050600181019050615373565b5085935050505092915050565b5f6020820190508181035f8301526153c58184615351565b905092915050565b5f805f805f60a086880312156153e6576153e5614ba0565b5b5f6153f388828901614cff565b955050602061540488828901614bc7565b945050604061541588828901614bc7565b935050606086013567ffffffffffffffff81111561543657615435614ba4565b5b615442888289016151de565b925050608086013567ffffffffffffffff81111561546357615462614ba4565b5b61546f888289016151de565b9150509295509295909350565b5f806040838503121561549257615491614ba0565b5b5f61549f85828601614cff565b92505060206154b085828601615221565b9150509250929050565b5f67ffffffffffffffff8211156154d4576154d36150e7565b5b6154dd82614d93565b9050602081019050919050565b5f6154fc6154f7846154ba565b615145565b905082815260208101848484011115615518576155176150e3565b5b61552384828561518f565b509392505050565b5f82601f83011261553f5761553e6150df565b5b813561554f8482602086016154ea565b91505092915050565b5f805f80608085870312156155705761556f614ba0565b5b5f61557d87828801614cff565b945050602061558e87828801614cff565b935050604061559f87828801614bc7565b925050606085013567ffffffffffffffff8111156155c0576155bf614ba4565b5b6155cc8782880161552b565b91505092959194509250565b5f80604083850312156155ee576155ed614ba0565b5b5f6155fb85828601614cff565b925050602061560c85828601614cff565b9150509250929050565b5f60c0820190508181035f83015261562e8189614da3565b905061563d6020830188614fb3565b61564a6040830187614fb3565b818103606083015261565c8186614da3565b905061566b6080830185614c11565b61567860a0830184614c11565b979650505050505050565b5f8151905061569181614ce9565b92915050565b5f602082840312156156ac576156ab614ba0565b5b5f6156b984828501615683565b91505092915050565b7f4572726f723a20636f6e646963696f6e6573206e6f2063756d706c696461732e5f82015250565b5f6156f6602083614d5b565b9150615701826156c2565b602082019050919050565b5f6020820190508181035f830152615723816156ea565b9050919050565b7f4e487b71000000000000000000000000000000000000000000000000000000005f52603260045260245ffd5b7f4e487b71000000000000000000000000000000000000000000000000000000005f52601160045260245ffd5b5f61578e82614ba8565b91507fffffffffffffffffffffffffffffffffffffffffffffffffffffffffffffffff82036157c0576157bf615757565b5b600182019050919050565b7f4e487b71000000000000000000000000000000000000000000000000000000005f52602260045260245ffd5b5f600282049050600182168061580f57607f821691505b602082108103615822576158216157cb565b5b50919050565b5f60608201905061583b5f830186614dfb565b6158486020830185614fb3565b6158556040830184614dfb565b949350505050565b7f456c20746f6b656e206e6f206578697374652e000000000000000000000000005f82015250565b5f615891601383614d5b565b915061589c8261585d565b602082019050919050565b5f6020820190508181035f8301526158be81615885565b9050919050565b5f6040820190506158d85f830185614fb3565b6158e56020830184614fb3565b9392505050565b5f6158f682614ba8565b915061590183614ba8565b925082820390508181111561591957615918615757565b5b92915050565b5f819050815f5260205f209050919050565b5f6020601f8301049050919050565b5f82821b905092915050565b5f6008830261597b7fffffffffffffffffffffffffffffffffffffffffffffffffffffffffffffffff82615940565b6159858683615940565b95508019841693508086168417925050509392505050565b5f819050919050565b5f6159c06159bb6159b684614ba8565b61599d565b614ba8565b9050919050565b5f819050919050565b6159d9836159a6565b6159ed6159e5826159c7565b84845461594c565b825550505050565b5f90565b615a016159f5565b615a0c8184846159d0565b505050565b5b81811015615a2f57615a245f826159f9565b600181019050615a12565b5050565b601f821115615a7457615a458161591f565b615a4e84615931565b81016020851015615a5d578190505b615a71615a6985615931565b830182615a11565b50505b505050565b5f82821c905092915050565b5f615a945f1984600802615a79565b1980831691505092915050565b5f615aac8383615a85565b9150826002028217905092915050565b615ac582614d51565b67ffffffffffffffff811115615ade57615add6150e7565b5b615ae882546157f8565b615af3828285615a33565b5f60209050601f831160018114615b24575f8415615b12578287015190505b615b1c8582615aa1565b865550615b83565b601f198416615b328661591f565b5f5b82811015615b5957848901518255600182019150602085019450602081019050615b34565b86831015615b765784890151615b72601f891682615a85565b8355505b6001600288020188555050505b505050505050565b5f606082019050615b9e5f830186614fb3565b615bab6020830185614fb3565b615bb86040830184614fb3565b949350505050565b7f466f6e646f7320696e737566696369656e7465732070617261206375627269725f8201527f20656c20696e6372656d656e746f2064656c2073616c6172696f000000000000602082015250565b5f615c1a603a83614d5b565b9150615c2582615bc0565b604082019050919050565b5f6020820190508181035f830152615c4781615c0e565b9050919050565b7f4465646520656e7669617220656c2073616c6172696f20636f6d6f2076616c6f5f8201527f722064656c20636f6e747261746f000000000000000000000000000000000000602082015250565b5f615ca8602e83614d5b565b9150615cb382615c4e565b604082019050919050565b5f6020820190508181035f830152615cd581615c9c565b9050919050565b5f615ce682614ba8565b9150615cf183614ba8565b9250828201905080821115615d0957615d08615757565b5b92915050565b5f81905092915050565b5f615d2382614d51565b615d2d8185615d0f565b9350615d3d818560208601614d6b565b80840191505092915050565b5f615d548285615d19565b9150615d608284615d19565b91508190509392505050565b7f4e487b71000000000000000000000000000000000000000000000000000000005f52603160045260245ffd5b7f456c2070726f706965746172696f206e6f20636f696e6369646520636f6e20655f8201527f6c2070726f706965746172696f2064656c20746f6b656e000000000000000000602082015250565b5f615df3603783614d5b565b9150615dfe82615d99565b604082019050919050565b5f6020820190508181035f830152615e2081615de7565b9050919050565b5f81519050919050565b5f82825260208201905092915050565b5f615e4b82615e27565b615e558185615e31565b9350615e65818560208601614d6b565b615e6e81614d93565b840191505092915050565b5f608082019050615e8c5f830187614dfb565b615e996020830186614dfb565b615ea66040830185614fb3565b8181036060830152615eb88184615e41565b905095945050505050565b5f81519050615ed181614c64565b92915050565b5f60208284031215615eec57615eeb614ba0565b5b5f615ef984828501615ec3565b91505092915050565b7f4e487b71000000000000000000000000000000000000000000000000000000005f52601260045260245ffd5b5f604082019050615f425f830185614dfb565b615f4f6020830184614fb3565b939250505056fea26469706673582212203099b8c6fb50c062e8123aa26fba3b84f6f6593aeb158fdcde69e4cf150ae37664736f6c63430008140033",
  "immutableReferences": {},
  "source": "// SPDX-License-Identifier: MIT\r\npragma solidity ^0.8.20;\r\n\r\nimport \"./MyContractManagement.sol\";\r\nimport \"./MyContractChanges.sol\";\r\n\r\ncontract MyContractAux is MyContractManagement, MyContractChanges{\r\n\r\n    function getManagersOfToken(\r\n        uint256 _tokenId\r\n    ) public view returns (address[] memory) {\r\n        return tokenManagersList[_tokenId];\r\n    }\r\n\r\n    /*\r\n    function isManagerOfToken(\r\n        uint256 _tokenId,\r\n        address _manager\r\n    ) public view returns (bool) {\r\n        return tokenManagers[_tokenId][_manager];\r\n    }\r\n    */\r\n\r\n\r\n    function getContractsFromOwner(\r\n        address _address\r\n    ) public view returns (uint256[] memory) {\r\n        return contractsOwner[_address];\r\n    }\r\n\r\n\r\n    function getContractsOfWorker(\r\n        address _address\r\n    ) public view returns (uint256[] memory) {\r\n        return activeContractsOfWorker[_address];\r\n    }\r\n\r\n\r\n    function getUnsignedContractsOfWorker(\r\n        address worker\r\n    ) public view returns (uint256[] memory) {\r\n        uint256 totalContracts = unsignedContractsOfWorker[worker].length;\r\n        uint256[] memory tempContracts = new uint256[](totalContracts);\r\n        uint256 count = 0;\r\n\r\n        for (uint256 i = 0; i < totalContracts; i++) {\r\n            uint256 contractId = unsignedContractsOfWorker[worker][i];\r\n\r\n            if (\r\n                !contractDetails[contractId].isSigned && tokenExists(contractId)\r\n            ) {\r\n                tempContracts[count] = contractId;\r\n                count++;\r\n            }\r\n        }\r\n\r\n        uint256[] memory result = new uint256[](count);\r\n        for (uint256 j = 0; j < count; j++) {\r\n            result[j] = tempContracts[j];\r\n        }\r\n        return result;\r\n    }\r\n\r\n\r\n    function tokenExists(uint256 _tokenId) public view returns (bool) {\r\n        try this.ownerOf(_tokenId) {\r\n            return true;\r\n        } catch {\r\n            return false;\r\n        }\r\n    }\r\n\r\n\r\n    function isContractSigned(uint256 _tokenID) public view returns (bool) {\r\n        return contractDetails[_tokenID].isSigned;\r\n    }\r\n\r\n\r\n    function getOwnerOfContract(\r\n        uint256 _tokenID\r\n    ) public view returns (address) {\r\n        return ownerOf(_tokenID);\r\n    }\r\n}\r\n",
  "sourcePath": "E:\\AppContract\\ubu-contractme\\Code\\SmartContract\\contracts\\MyContractAux.sol",
  "compiler": {
    "name": "solc",
    "version": "0.8.20+commit.a1b79de6.Emscripten.clang"
  },
  "schemaVersion": "3.4.16",
  "updatedAt": "2024-02-25T10:46:56.915Z",
  "networkType": "ethereum",
  "devdoc": {
    "errors": {
      "ERC721IncorrectOwner(address,uint256,address)": [
        {
          "details": "Indicates an error related to the ownership over a particular token. Used in transfers.",
          "params": {
            "owner": "Address of the current owner of a token.",
            "sender": "Address whose tokens are being transferred.",
            "tokenId": "Identifier number of a token."
          }
        }
      ],
      "ERC721InsufficientApproval(address,uint256)": [
        {
          "details": "Indicates a failure with the `operator`s approval. Used in transfers.",
          "params": {
            "operator": "Address that may be allowed to operate on tokens without being their owner.",
            "tokenId": "Identifier number of a token."
          }
        }
      ],
      "ERC721InvalidApprover(address)": [
        {
          "details": "Indicates a failure with the `approver` of a token to be approved. Used in approvals.",
          "params": {
            "approver": "Address initiating an approval operation."
          }
        }
      ],
      "ERC721InvalidOperator(address)": [
        {
          "details": "Indicates a failure with the `operator` to be approved. Used in approvals.",
          "params": {
            "operator": "Address that may be allowed to operate on tokens without being their owner."
          }
        }
      ],
      "ERC721InvalidOwner(address)": [
        {
          "details": "Indicates that an address can't be an owner. For example, `address(0)` is a forbidden owner in EIP-20. Used in balance queries.",
          "params": {
            "owner": "Address of the current owner of a token."
          }
        }
      ],
      "ERC721InvalidReceiver(address)": [
        {
          "details": "Indicates a failure with the token `receiver`. Used in transfers.",
          "params": {
            "receiver": "Address to which tokens are being transferred."
          }
        }
      ],
      "ERC721InvalidSender(address)": [
        {
          "details": "Indicates a failure with the token `sender`. Used in transfers.",
          "params": {
            "sender": "Address whose tokens are being transferred."
          }
        }
      ],
      "ERC721NonexistentToken(uint256)": [
        {
          "details": "Indicates a `tokenId` whose `owner` is the zero address.",
          "params": {
            "tokenId": "Identifier number of a token."
          }
        }
      ]
    },
    "events": {
      "Approval(address,address,uint256)": {
        "details": "Emitted when `owner` enables `approved` to manage the `tokenId` token."
      },
      "ApprovalForAll(address,address,bool)": {
        "details": "Emitted when `owner` enables or disables (`approved`) `operator` to manage all of its assets."
      },
      "Transfer(address,address,uint256)": {
        "details": "Emitted when `tokenId` token is transferred from `from` to `to`."
      }
    },
    "kind": "dev",
    "methods": {
      "approve(address,uint256)": {
        "details": "See {IERC721-approve}."
      },
      "balanceOf(address)": {
        "details": "See {IERC721-balanceOf}."
      },
      "getApproved(uint256)": {
        "details": "See {IERC721-getApproved}."
      },
      "isApprovedForAll(address,address)": {
        "details": "See {IERC721-isApprovedForAll}."
      },
      "name()": {
        "details": "See {IERC721Metadata-name}."
      },
      "ownerOf(uint256)": {
        "details": "See {IERC721-ownerOf}."
      },
      "safeTransferFrom(address,address,uint256)": {
        "details": "See {IERC721-safeTransferFrom}."
      },
      "safeTransferFrom(address,address,uint256,bytes)": {
        "details": "See {IERC721-safeTransferFrom}."
      },
      "setApprovalForAll(address,bool)": {
        "details": "See {IERC721-setApprovalForAll}."
      },
      "supportsInterface(bytes4)": {
        "details": "See {IERC165-supportsInterface}."
      },
      "symbol()": {
        "details": "See {IERC721Metadata-symbol}."
      },
      "tokenURI(uint256)": {
        "details": "See {IERC721Metadata-tokenURI}."
      },
      "transferFrom(address,address,uint256)": {
        "details": "See {IERC721-transferFrom}."
      }
    },
    "version": 1
  },
  "userdoc": {
    "kind": "user",
    "methods": {},
    "version": 1
  }
}