{
  "contractName": "MyContractChanges",
  "abi": [
    {
      "inputs": [
        {
          "internalType": "address",
          "name": "sender",
          "type": "address"
        },
        {
          "internalType": "uint256",
          "name": "tokenId",
          "type": "uint256"
        },
        {
          "internalType": "address",
          "name": "owner",
          "type": "address"
        }
      ],
      "name": "ERC721IncorrectOwner",
      "type": "error"
    },
    {
      "inputs": [
        {
          "internalType": "address",
          "name": "operator",
          "type": "address"
        },
        {
          "internalType": "uint256",
          "name": "tokenId",
          "type": "uint256"
        }
      ],
      "name": "ERC721InsufficientApproval",
      "type": "error"
    },
    {
      "inputs": [
        {
          "internalType": "address",
          "name": "approver",
          "type": "address"
        }
      ],
      "name": "ERC721InvalidApprover",
      "type": "error"
    },
    {
      "inputs": [
        {
          "internalType": "address",
          "name": "operator",
          "type": "address"
        }
      ],
      "name": "ERC721InvalidOperator",
      "type": "error"
    },
    {
      "inputs": [
        {
          "internalType": "address",
          "name": "owner",
          "type": "address"
        }
      ],
      "name": "ERC721InvalidOwner",
      "type": "error"
    },
    {
      "inputs": [
        {
          "internalType": "address",
          "name": "receiver",
          "type": "address"
        }
      ],
      "name": "ERC721InvalidReceiver",
      "type": "error"
    },
    {
      "inputs": [
        {
          "internalType": "address",
          "name": "sender",
          "type": "address"
        }
      ],
      "name": "ERC721InvalidSender",
      "type": "error"
    },
    {
      "inputs": [
        {
          "internalType": "uint256",
          "name": "tokenId",
          "type": "uint256"
        }
      ],
      "name": "ERC721NonexistentToken",
      "type": "error"
    },
    {
      "anonymous": false,
      "inputs": [
        {
          "indexed": true,
          "internalType": "address",
          "name": "owner",
          "type": "address"
        },
        {
          "indexed": true,
          "internalType": "address",
          "name": "approved",
          "type": "address"
        },
        {
          "indexed": true,
          "internalType": "uint256",
          "name": "tokenId",
          "type": "uint256"
        }
      ],
      "name": "Approval",
      "type": "event"
    },
    {
      "anonymous": false,
      "inputs": [
        {
          "indexed": true,
          "internalType": "uint256",
          "name": "tokenId",
          "type": "uint256"
        },
        {
          "indexed": true,
          "internalType": "address",
          "name": "employer",
          "type": "address"
        },
        {
          "indexed": false,
          "internalType": "uint256",
          "name": "salary",
          "type": "uint256"
        },
        {
          "indexed": false,
          "internalType": "uint256",
          "name": "newSalary",
          "type": "uint256"
        },
        {
          "indexed": false,
          "internalType": "uint256",
          "name": "timestamp",
          "type": "uint256"
        }
      ],
      "name": "ApprovalChanges",
      "type": "event"
    },
    {
      "anonymous": false,
      "inputs": [
        {
          "indexed": true,
          "internalType": "address",
          "name": "owner",
          "type": "address"
        },
        {
          "indexed": true,
          "internalType": "address",
          "name": "operator",
          "type": "address"
        },
        {
          "indexed": false,
          "internalType": "bool",
          "name": "approved",
          "type": "bool"
        }
      ],
      "name": "ApprovalForAll",
      "type": "event"
    },
    {
      "anonymous": false,
      "inputs": [
        {
          "indexed": true,
          "internalType": "uint256",
          "name": "tokenId",
          "type": "uint256"
        },
        {
          "indexed": true,
          "internalType": "address",
          "name": "employer",
          "type": "address"
        },
        {
          "indexed": false,
          "internalType": "uint256",
          "name": "timestamp",
          "type": "uint256"
        }
      ],
      "name": "RejectChanges",
      "type": "event"
    },
    {
      "anonymous": false,
      "inputs": [
        {
          "indexed": true,
          "internalType": "address",
          "name": "from",
          "type": "address"
        },
        {
          "indexed": true,
          "internalType": "address",
          "name": "to",
          "type": "address"
        },
        {
          "indexed": true,
          "internalType": "uint256",
          "name": "tokenId",
          "type": "uint256"
        }
      ],
      "name": "Transfer",
      "type": "event"
    },
    {
      "inputs": [
        {
          "internalType": "address",
          "name": "",
          "type": "address"
        },
        {
          "internalType": "uint256",
          "name": "",
          "type": "uint256"
        }
      ],
      "name": "activeContractsOfWorker",
      "outputs": [
        {
          "internalType": "uint256",
          "name": "",
          "type": "uint256"
        }
      ],
      "stateMutability": "view",
      "type": "function"
    },
    {
      "inputs": [
        {
          "internalType": "address",
          "name": "to",
          "type": "address"
        },
        {
          "internalType": "uint256",
          "name": "tokenId",
          "type": "uint256"
        }
      ],
      "name": "approve",
      "outputs": [],
      "stateMutability": "nonpayable",
      "type": "function"
    },
    {
      "inputs": [
        {
          "internalType": "address",
          "name": "owner",
          "type": "address"
        }
      ],
      "name": "balanceOf",
      "outputs": [
        {
          "internalType": "uint256",
          "name": "",
          "type": "uint256"
        }
      ],
      "stateMutability": "view",
      "type": "function"
    },
    {
      "inputs": [
        {
          "internalType": "uint256",
          "name": "",
          "type": "uint256"
        }
      ],
      "name": "changeProposals",
      "outputs": [
        {
          "internalType": "string",
          "name": "newTitle",
          "type": "string"
        },
        {
          "internalType": "uint256",
          "name": "newSalary",
          "type": "uint256"
        },
        {
          "internalType": "uint256",
          "name": "newDuration",
          "type": "uint256"
        },
        {
          "internalType": "string",
          "name": "newDescription",
          "type": "string"
        },
        {
          "internalType": "bool",
          "name": "isPaused",
          "type": "bool"
        },
        {
          "internalType": "bool",
          "name": "isPending",
          "type": "bool"
        }
      ],
      "stateMutability": "view",
      "type": "function"
    },
    {
      "inputs": [
        {
          "internalType": "uint256",
          "name": "",
          "type": "uint256"
        }
      ],
      "name": "contractDetails",
      "outputs": [
        {
          "internalType": "uint256",
          "name": "salary",
          "type": "uint256"
        },
        {
          "internalType": "uint256",
          "name": "startDate",
          "type": "uint256"
        },
        {
          "internalType": "uint256",
          "name": "duration",
          "type": "uint256"
        },
        {
          "internalType": "string",
          "name": "title",
          "type": "string"
        },
        {
          "internalType": "string",
          "name": "description",
          "type": "string"
        },
        {
          "internalType": "bool",
          "name": "isSigned",
          "type": "bool"
        },
        {
          "internalType": "address",
          "name": "worker",
          "type": "address"
        },
        {
          "internalType": "bool",
          "name": "isFinished",
          "type": "bool"
        },
        {
          "internalType": "bool",
          "name": "isReleased",
          "type": "bool"
        },
        {
          "internalType": "bool",
          "name": "isPaused",
          "type": "bool"
        },
        {
          "internalType": "uint256",
          "name": "pauseTime",
          "type": "uint256"
        },
        {
          "internalType": "uint256",
          "name": "pauseDuration",
          "type": "uint256"
        }
      ],
      "stateMutability": "view",
      "type": "function"
    },
    {
      "inputs": [
        {
          "internalType": "address",
          "name": "",
          "type": "address"
        },
        {
          "internalType": "uint256",
          "name": "",
          "type": "uint256"
        }
      ],
      "name": "contractsOwner",
      "outputs": [
        {
          "internalType": "uint256",
          "name": "",
          "type": "uint256"
        }
      ],
      "stateMutability": "view",
      "type": "function"
    },
    {
      "inputs": [
        {
          "internalType": "uint256",
          "name": "tokenId",
          "type": "uint256"
        }
      ],
      "name": "getApproved",
      "outputs": [
        {
          "internalType": "address",
          "name": "",
          "type": "address"
        }
      ],
      "stateMutability": "view",
      "type": "function"
    },
    {
      "inputs": [
        {
          "internalType": "address",
          "name": "owner",
          "type": "address"
        },
        {
          "internalType": "address",
          "name": "operator",
          "type": "address"
        }
      ],
      "name": "isApprovedForAll",
      "outputs": [
        {
          "internalType": "bool",
          "name": "",
          "type": "bool"
        }
      ],
      "stateMutability": "view",
      "type": "function"
    },
    {
      "inputs": [
        {
          "internalType": "uint256",
          "name": "_tokenID",
          "type": "uint256"
        }
      ],
      "name": "isContractFinished",
      "outputs": [
        {
          "internalType": "bool",
          "name": "",
          "type": "bool"
        }
      ],
      "stateMutability": "view",
      "type": "function"
    },
    {
      "inputs": [],
      "name": "name",
      "outputs": [
        {
          "internalType": "string",
          "name": "",
          "type": "string"
        }
      ],
      "stateMutability": "view",
      "type": "function"
    },
    {
      "inputs": [
        {
          "internalType": "uint256",
          "name": "tokenId",
          "type": "uint256"
        }
      ],
      "name": "ownerOf",
      "outputs": [
        {
          "internalType": "address",
          "name": "",
          "type": "address"
        }
      ],
      "stateMutability": "view",
      "type": "function"
    },
    {
      "inputs": [
        {
          "internalType": "address",
          "name": "from",
          "type": "address"
        },
        {
          "internalType": "address",
          "name": "to",
          "type": "address"
        },
        {
          "internalType": "uint256",
          "name": "tokenId",
          "type": "uint256"
        }
      ],
      "name": "safeTransferFrom",
      "outputs": [],
      "stateMutability": "nonpayable",
      "type": "function"
    },
    {
      "inputs": [
        {
          "internalType": "address",
          "name": "from",
          "type": "address"
        },
        {
          "internalType": "address",
          "name": "to",
          "type": "address"
        },
        {
          "internalType": "uint256",
          "name": "tokenId",
          "type": "uint256"
        },
        {
          "internalType": "bytes",
          "name": "data",
          "type": "bytes"
        }
      ],
      "name": "safeTransferFrom",
      "outputs": [],
      "stateMutability": "nonpayable",
      "type": "function"
    },
    {
      "inputs": [
        {
          "internalType": "address",
          "name": "operator",
          "type": "address"
        },
        {
          "internalType": "bool",
          "name": "approved",
          "type": "bool"
        }
      ],
      "name": "setApprovalForAll",
      "outputs": [],
      "stateMutability": "nonpayable",
      "type": "function"
    },
    {
      "inputs": [
        {
          "internalType": "bytes4",
          "name": "interfaceId",
          "type": "bytes4"
        }
      ],
      "name": "supportsInterface",
      "outputs": [
        {
          "internalType": "bool",
          "name": "",
          "type": "bool"
        }
      ],
      "stateMutability": "view",
      "type": "function"
    },
    {
      "inputs": [],
      "name": "symbol",
      "outputs": [
        {
          "internalType": "string",
          "name": "",
          "type": "string"
        }
      ],
      "stateMutability": "view",
      "type": "function"
    },
    {
      "inputs": [],
      "name": "tokenID",
      "outputs": [
        {
          "internalType": "uint256",
          "name": "",
          "type": "uint256"
        }
      ],
      "stateMutability": "view",
      "type": "function"
    },
    {
      "inputs": [
        {
          "internalType": "uint256",
          "name": "",
          "type": "uint256"
        },
        {
          "internalType": "address",
          "name": "",
          "type": "address"
        }
      ],
      "name": "tokenManagers",
      "outputs": [
        {
          "internalType": "bool",
          "name": "",
          "type": "bool"
        }
      ],
      "stateMutability": "view",
      "type": "function"
    },
    {
      "inputs": [
        {
          "internalType": "uint256",
          "name": "",
          "type": "uint256"
        },
        {
          "internalType": "uint256",
          "name": "",
          "type": "uint256"
        }
      ],
      "name": "tokenManagersList",
      "outputs": [
        {
          "internalType": "address",
          "name": "",
          "type": "address"
        }
      ],
      "stateMutability": "view",
      "type": "function"
    },
    {
      "inputs": [
        {
          "internalType": "uint256",
          "name": "tokenId",
          "type": "uint256"
        }
      ],
      "name": "tokenURI",
      "outputs": [
        {
          "internalType": "string",
          "name": "",
          "type": "string"
        }
      ],
      "stateMutability": "view",
      "type": "function"
    },
    {
      "inputs": [
        {
          "internalType": "address",
          "name": "from",
          "type": "address"
        },
        {
          "internalType": "address",
          "name": "to",
          "type": "address"
        },
        {
          "internalType": "uint256",
          "name": "tokenId",
          "type": "uint256"
        }
      ],
      "name": "transferFrom",
      "outputs": [],
      "stateMutability": "nonpayable",
      "type": "function"
    },
    {
      "inputs": [
        {
          "internalType": "address",
          "name": "",
          "type": "address"
        },
        {
          "internalType": "uint256",
          "name": "",
          "type": "uint256"
        }
      ],
      "name": "unsignedContractsOfWorker",
      "outputs": [
        {
          "internalType": "uint256",
          "name": "",
          "type": "uint256"
        }
      ],
      "stateMutability": "view",
      "type": "function"
    },
    {
      "inputs": [
        {
          "internalType": "uint256",
          "name": "_tokenID",
          "type": "uint256"
        }
      ],
      "name": "pauseContract",
      "outputs": [],
      "stateMutability": "nonpayable",
      "type": "function"
    },
    {
      "inputs": [
        {
          "internalType": "uint256",
          "name": "_tokenID",
          "type": "uint256"
        }
      ],
      "name": "unPauseContract",
      "outputs": [],
      "stateMutability": "nonpayable",
      "type": "function"
    },
    {
      "inputs": [
        {
          "internalType": "uint256",
          "name": "_tokenID",
          "type": "uint256"
        },
        {
          "internalType": "address",
          "name": "_newManager",
          "type": "address"
        }
      ],
      "name": "assignManagerToToken",
      "outputs": [],
      "stateMutability": "nonpayable",
      "type": "function"
    },
    {
      "inputs": [
        {
          "internalType": "uint256",
          "name": "_tokenId",
          "type": "uint256"
        },
        {
          "internalType": "address",
          "name": "_manager",
          "type": "address"
        }
      ],
      "name": "revokeManagerFromToken",
      "outputs": [],
      "stateMutability": "nonpayable",
      "type": "function"
    },
    {
      "inputs": [
        {
          "internalType": "uint256",
          "name": "_tokenID",
          "type": "uint256"
        },
        {
          "internalType": "string",
          "name": "_newTitle",
          "type": "string"
        },
        {
          "internalType": "uint256",
          "name": "_newSalary",
          "type": "uint256"
        },
        {
          "internalType": "uint256",
          "name": "_newDuration",
          "type": "uint256"
        },
        {
          "internalType": "string",
          "name": "_newDescription",
          "type": "string"
        },
        {
          "internalType": "bool",
          "name": "_isPaused",
          "type": "bool"
        }
      ],
      "name": "proposeChange",
      "outputs": [],
      "stateMutability": "payable",
      "type": "function"
    },
    {
      "inputs": [
        {
          "internalType": "uint256",
          "name": "_tokenID",
          "type": "uint256"
        }
      ],
      "name": "rejectChange",
      "outputs": [],
      "stateMutability": "nonpayable",
      "type": "function"
    },
    {
      "inputs": [
        {
          "internalType": "uint256",
          "name": "_tokenID",
          "type": "uint256"
        }
      ],
      "name": "applyChange",
      "outputs": [],
      "stateMutability": "payable",
      "type": "function"
    }
  ],
  "bytecode": "0x608060405234801562000010575f80fd5b506040518060400160405280600781526020016626bcaa37b5b2b760c91b815250604051806040016040528060038152602001624d544b60e81b815250815f90816200005d919062000115565b5060016200006c828262000115565b505050620001dd565b634e487b7160e01b5f52604160045260245ffd5b600181811c908216806200009e57607f821691505b602082108103620000bd57634e487b7160e01b5f52602260045260245ffd5b50919050565b601f82111562000110575f81815260208120601f850160051c81016020861015620000eb5750805b601f850160051c820191505b818110156200010c57828155600101620000f7565b5050505b505050565b81516001600160401b0381111562000131576200013162000075565b620001498162000142845462000089565b84620000c3565b602080601f8311600181146200017f575f8415620001675750858301515b5f19600386901b1c1916600185901b1785556200010c565b5f85815260208120601f198616915b82811015620001af578886015182559484019460019091019084016200018e565b5085821015620001cd57878501515f19600388901b60f8161c191681555b5050505050600190811b01905550565b61290880620001eb5f395ff3fe6080604052600436106101ba575f3560e01c80634f73d79d116100f2578063b88d4fde11610092578063c87b56dd11610062578063c87b56dd14610509578063e1b1462014610528578063e985e9c514610547578063fc5a4efe14610566575f80fd5b8063b88d4fde1461048d578063bc3a8e9e146104ac578063bce87156146104cb578063c2852f38146104ea575f80fd5b806389b83d3e116100cd57806389b83d3e1461042657806395d89b4114610445578063a22cb46514610459578063a5c42ef114610478575f80fd5b80634f73d79d146103d55780636352211e146103e857806370a0823114610407575f80fd5b8063294a79311161015d578063409283d011610138578063409283d01461035757806342842e0e1461036a57806345f18460146103895780634ec3e2aa146103b6575f80fd5b8063294a7931146102c85780633330a55f1461030157806336a2d6f514610338575f80fd5b8063081812fc11610198578063081812fc14610234578063095ea7b31461026b5780632355e2171461028a57806323b872dd146102a9575f80fd5b806301ffc9a7146101be578063045b6a4e146101f257806306fdde0314610213575b5f80fd5b3480156101c9575f80fd5b506101dd6101d83660046121d5565b610597565b60405190151581526020015b60405180910390f35b3480156101fd575f80fd5b5061021161020c366004612204565b6105e8565b005b34801561021e575f80fd5b5061022761070b565b6040516101e9919061227f565b34801561023f575f80fd5b5061025361024e366004612291565b61079a565b6040516001600160a01b0390911681526020016101e9565b348015610276575f80fd5b506102116102853660046122a8565b6107c1565b348015610295575f80fd5b506102116102a4366004612204565b6107cc565b3480156102b4575f80fd5b506102116102c33660046122d2565b6108f5565b3480156102d3575f80fd5b506101dd6102e2366004612204565b600860209081525f928352604080842090915290825290205460ff1681565b34801561030c575f80fd5b5061032061031b366004612291565b61097e565b6040516101e99c9b9a99989796959493929190612310565b348015610343575f80fd5b5061025361035236600461239f565b610aff565b610211610365366004612291565b610b33565b348015610375575f80fd5b506102116103843660046122d2565b610e7e565b348015610394575f80fd5b506103a86103a33660046122a8565b610e9d565b6040519081526020016101e9565b3480156103c1575f80fd5b506102116103d0366004612291565b610ec8565b6102116103e3366004612478565b611165565b3480156103f3575f80fd5b50610253610402366004612291565b611378565b348015610412575f80fd5b506103a8610421366004612502565b611382565b348015610431575f80fd5b50610211610440366004612291565b6113c7565b348015610450575f80fd5b5061022761148f565b348015610464575f80fd5b5061021161047336600461251d565b61149e565b348015610483575f80fd5b506103a8600d5481565b348015610498575f80fd5b506102116104a7366004612550565b6114a9565b3480156104b7575f80fd5b506103a86104c63660046122a8565b6114c0565b3480156104d6575f80fd5b506101dd6104e5366004612291565b6114d9565b3480156104f5575f80fd5b50610211610504366004612291565b6115ea565b348015610514575f80fd5b50610227610523366004612291565b61164d565b348015610533575f80fd5b506103a86105423660046122a8565b6116be565b348015610552575f80fd5b506101dd6105613660046125cb565b6116d7565b348015610571575f80fd5b50610585610580366004612291565b611704565b6040516101e9969594939291906125f7565b5f6001600160e01b031982166380ac58cd60e01b14806105c757506001600160e01b03198216635b5e139f60e01b145b806105e257506301ffc9a760e01b6001600160e01b03198316145b92915050565b6105f182611378565b6001600160a01b0316336001600160a01b031614801561063257505f8281526008602090815260408083206001600160a01b038516845290915290205460ff165b6106575760405162461bcd60e51b815260040161064e90612642565b60405180910390fd5b5f5b5f838152600c60205260409020548110156106d3575f838152600c6020526040902080546001600160a01b03841691908390811061069957610699612677565b5f918252602090912001546001600160a01b0316036106c1576106bc8382611849565b6106d3565b806106cb8161269f565b915050610659565b505f8281526008602090815260408083206001600160a01b03851684529091529020805460ff191690556107078282611917565b5050565b60605f8054610719906126b7565b80601f0160208091040260200160405190810160405280929190818152602001828054610745906126b7565b80156107905780601f1061076757610100808354040283529160200191610790565b820191905f5260205f20905b81548152906001019060200180831161077357829003601f168201915b5050505050905090565b5f6107a482611b97565b505f828152600460205260409020546001600160a01b03166105e2565b610707828233611bcf565b6107d582611378565b6001600160a01b0316336001600160a01b031614801561081757505f8281526008602090815260408083206001600160a01b038516845290915290205460ff16155b801561083d575061082782611378565b6001600160a01b0316816001600160a01b031614155b6108595760405162461bcd60e51b815260040161064e90612642565b5f8281526008602090815260408083206001600160a01b038516845290915290205460ff16610707575f8281526008602090815260408083206001600160a01b0394909416808452938252808320805460ff19166001908117909155858452600c8352818420805480830182559085528385200180546001600160a01b0319168617905593835260098252822080549384018155825290200155565b6001600160a01b03821661091e57604051633250574960e11b81525f600482015260240161064e565b5f61092a838333611bdc565b9050836001600160a01b0316816001600160a01b031614610978576040516364283d7b60e01b81526001600160a01b038086166004830152602482018490528216604482015260640161064e565b50505050565b60066020525f90815260409020805460018201546002830154600384018054939492939192916109ad906126b7565b80601f01602080910402602001604051908101604052809291908181526020018280546109d9906126b7565b8015610a245780601f106109fb57610100808354040283529160200191610a24565b820191905f5260205f20905b815481529060010190602001808311610a0757829003601f168201915b505050505090806004018054610a39906126b7565b80601f0160208091040260200160405190810160405280929190818152602001828054610a65906126b7565b8015610ab05780601f10610a8757610100808354040283529160200191610ab0565b820191905f5260205f20905b815481529060010190602001808311610a9357829003601f168201915b50505060058401546006850154600790950154939460ff808316956001600160a01b036101008504169550600160a81b840482169450600160b01b8404821693600160b81b900490911691908c565b600c602052815f5260405f208181548110610b18575f80fd5b5f918252602090912001546001600160a01b03169150829050565b5f81815260076020526040902060040154610100900460ff168015610b5e5750610b5c816114d9565b155b610b7a5760405162461bcd60e51b815260040161064e90612642565b5f81815260076020526040808220815160c08101909252805482908290610ba0906126b7565b80601f0160208091040260200160405190810160405280929190818152602001828054610bcc906126b7565b8015610c175780601f10610bee57610100808354040283529160200191610c17565b820191905f5260205f20905b815481529060010190602001808311610bfa57829003601f168201915b505050505081526020016001820154815260200160028201548152602001600382018054610c44906126b7565b80601f0160208091040260200160405190810160405280929190818152602001828054610c70906126b7565b8015610cbb5780601f10610c9257610100808354040283529160200191610cbb565b820191905f5260205f20905b815481529060010190602001808311610c9e57829003601f168201915b50505091835250506004919091015460ff80821615156020808501919091526101009092041615156040928301525f8581526006825291909120549082015191925090811115610d5c575f826020015182610d1691906126ef565b90505f610d2285611378565b6040519091506001600160a01b0382169083156108fc029084905f818181858888f19350505050158015610d58573d5f803e3d5ffd5b5050505b81515f84815260066020526040902060030190610d79908261274f565b506020808301515f85815260069092526040918290209081559083015160028201556060830151600490910190610db0908261274f565b505f838152600660205260409020600501546080830151600160b81b90910460ff16151590151514610dfd57816080015115610df457610def836115ea565b610dfd565b610dfd836113c7565b5f838152600760205260409020600401805461ff0019169055610e1f83611378565b6001600160a01b0316837feae34dfcd93cfebf9280a6861befb7759d5cd39c50230ea4236c640577b57e9183856020015142604051610e71939291909283526020830191909152604082015260600190565b60405180910390a3505050565b610e9883838360405180602001604052805f8152506114a9565b505050565b600b602052815f5260405f208181548110610eb6575f80fd5b905f5260205f20015f91509150505481565b5f81815260076020526040902060040154610100900460ff168015610ef35750610ef1816114d9565b155b610f0f5760405162461bcd60e51b815260040161064e90612642565b5f81815260076020526040808220815160c08101909252805482908290610f35906126b7565b80601f0160208091040260200160405190810160405280929190818152602001828054610f61906126b7565b8015610fac5780601f10610f8357610100808354040283529160200191610fac565b820191905f5260205f20905b815481529060010190602001808311610f8f57829003601f168201915b505050505081526020016001820154815260200160028201548152602001600382018054610fd9906126b7565b80601f0160208091040260200160405190810160405280929190818152602001828054611005906126b7565b80156110505780601f1061102757610100808354040283529160200191611050565b820191905f5260205f20905b81548152906001019060200180831161103357829003601f168201915b50505091835250506004919091015460ff80821615156020808501919091526101009092041615156040928301525f8581526006825291909120549082015191925010156110fc575f828152600660209081526040822054908301516110b691906126ef565b90505f6110c284611378565b6040519091506001600160a01b0382169083156108fc029084905f818181858888f193505050501580156110f8573d5f803e3d5ffd5b5050505b5f828152600760205260409020600401805461ff001916905561111e82611378565b6001600160a01b0316827f15934a3417e41a8dee207a62290629c5e540abd33988563c1e3f0a719def99a94260405161115991815260200190565b60405180910390a35050565b5f8681526006602052604090206005015460ff16801561118b5750611189866114d9565b155b80156111ad57505f86815260076020526040902060040154610100900460ff16155b80156111d157505f86815260086020908152604080832033845290915290205460ff165b6111ed5760405162461bcd60e51b815260040161064e90612642565b5f86815260066020526040902054808511156112c8575f61120e82876126ef565b9050803410156112865760405162461bcd60e51b815260206004820152603a60248201527f466f6e646f7320696e737566696369656e74657320706172612063756272697260448201527f20656c20696e6372656d656e746f2064656c2073616c6172696f000000000000606482015260840161064e565b5f61129182346126ef565b905080156112c557604051339082156108fc029083905f818181858888f193505050501580156112c3573d5f803e3d5ffd5b505b50505b6040805160c0810182528781526020808201889052818301879052606082018690528415156080830152600160a08301525f8a815260079091529190912081518190611314908261274f565b5060208201516001820155604082015160028201556060820151600382019061133d908261274f565b5060808201516004909101805460a09093015115156101000261ff00199215159290921661ffff199093169290921717905550505050505050565b5f6105e282611b97565b5f6001600160a01b0382166113ac576040516322718ad960e21b81525f600482015260240161064e565b506001600160a01b03165f9081526003602052604090205490565b5f81815260066020526040902060050154600160b81b900460ff166113fe5760405162461bcd60e51b815260040161064e90612642565b5f8181526006602081905260408220015461141990426126ef565b90508060065f8481526020019081526020015f206002015f82825461143e919061280b565b90915550505f828152600660205260408120600701805483929061146390849061280b565b9091555050505f908152600660208190526040822090810191909155600501805460ff60b81b19169055565b606060018054610719906126b7565b610707338383611cce565b6114b48484846108f5565b61097884848484611d64565b600a602052815f5260405f208181548110610eb6575f80fd5b6040516331a9108f60e11b8152600481018290525f903090636352211e90602401602060405180830381865afa925050508015611533575060408051601f3d908101601f191682019092526115309181019061281e565b60015b6115755760405162461bcd60e51b815260206004820152601360248201527222b6103a37b5b2b71037379032bc34b9ba329760691b604482015260640161064e565b505f82815260066020526040902060050154600160a81b900460ff1615156001036115a257506001919050565b5f8281526006602052604090206007810154600282015460019092015490916115ca9161280b565b6115d4919061280b565b4211156115e357506001919050565b505f919050565b5f81815260066020526040902060050154600160b81b900460ff16156116225760405162461bcd60e51b815260040161064e90612642565b5f90815260066020819052604090912060058101805460ff60b81b1916600160b81b17905542910155565b606061165882611b97565b505f61166e60408051602081019091525f815290565b90505f81511161168c5760405180602001604052805f8152506116b7565b8061169684611e8a565b6040516020016116a7929190612839565b6040516020818303038152906040525b9392505050565b6009602052815f5260405f208181548110610eb6575f80fd5b6001600160a01b039182165f90815260056020908152604080832093909416825291909152205460ff1690565b60076020525f908152604090208054819061171e906126b7565b80601f016020809104026020016040519081016040528092919081815260200182805461174a906126b7565b80156117955780601f1061176c57610100808354040283529160200191611795565b820191905f5260205f20905b81548152906001019060200180831161177857829003601f168201915b5050505050908060010154908060020154908060030180546117b6906126b7565b80601f01602080910402602001604051908101604052809291908181526020018280546117e2906126b7565b801561182d5780601f106118045761010080835404028352916020019161182d565b820191905f5260205f20905b81548152906001019060200180831161181057829003601f168201915b5050506004909301549192505060ff8082169161010090041686565b5f828152600c602052604090208054611864906001906126ef565b8154811061187457611874612677565b5f918252602080832090910154848352600c909152604090912080546001600160a01b0390921691839081106118ac576118ac612677565b5f91825260208083209190910180546001600160a01b0319166001600160a01b039490941693909317909255838152600c909152604090208054806118f3576118f3612867565b5f8281526020902081015f1990810180546001600160a01b03191690550190555050565b6040516331a9108f60e11b8152600481018390523090636352211e90602401602060405180830381865afa92505050801561196f575060408051601f3d908101601f1916820190925261196c9181019061281e565b60015b6119b15760405162461bcd60e51b815260206004820152601360248201527222b6103a37b5b2b71037379032bc34b9ba329760691b604482015260640161064e565b50806001600160a01b03166119c583611378565b6001600160a01b031614611a415760405162461bcd60e51b815260206004820152603760248201527f456c2070726f706965746172696f206e6f20636f696e6369646520636f6e206560448201527f6c2070726f706965746172696f2064656c20746f6b656e000000000000000000606482015260840161064e565b6001600160a01b0381165f908152600960205260408120548190611a67906001906126ef565b90505f5b6001600160a01b0384165f90815260096020526040902054811015611ade576001600160a01b0384165f908152600960205260409020805486919083908110611ab657611ab6612677565b905f5260205f20015403611acc57809250611ade565b80611ad68161269f565b915050611a6b565b50808214611b58576001600160a01b0383165f908152600960205260409020805482908110611b0f57611b0f612677565b905f5260205f20015460095f856001600160a01b03166001600160a01b031681526020019081526020015f208381548110611b4c57611b4c612677565b5f918252602090912001555b6001600160a01b0383165f908152600960205260409020805480611b7e57611b7e612867565b600190038181905f5260205f20015f9055905550505050565b5f818152600260205260408120546001600160a01b0316806105e257604051637e27328960e01b81526004810184905260240161064e565b610e988383836001611f1a565b5f828152600260205260408120546001600160a01b0390811690831615611c0857611c0881848661201e565b6001600160a01b03811615611c4257611c235f855f80611f1a565b6001600160a01b0381165f90815260036020526040902080545f190190555b6001600160a01b03851615611c70576001600160a01b0385165f908152600360205260409020805460010190555b5f8481526002602052604080822080546001600160a01b0319166001600160a01b0389811691821790925591518793918516917fddf252ad1be2c89b69c2b068fc378daa952ba7f163c4a11628f55a4df523b3ef91a4949350505050565b6001600160a01b038216611d0057604051630b61174360e31b81526001600160a01b038316600482015260240161064e565b6001600160a01b038381165f81815260056020908152604080832094871680845294825291829020805460ff191686151590811790915591519182527f17307eab39ab6107e8899845ad3d59bd9653f200f220920489ca2b5937696c319101610e71565b6001600160a01b0383163b1561097857604051630a85bd0160e11b81526001600160a01b0384169063150b7a0290611da690339088908790879060040161287b565b6020604051808303815f875af1925050508015611de0575060408051601f3d908101601f19168201909252611ddd918101906128b7565b60015b611e47573d808015611e0d576040519150601f19603f3d011682016040523d82523d5f602084013e611e12565b606091505b5080515f03611e3f57604051633250574960e11b81526001600160a01b038516600482015260240161064e565b805181602001fd5b6001600160e01b03198116630a85bd0160e11b14611e8357604051633250574960e11b81526001600160a01b038516600482015260240161064e565b5050505050565b60605f611e9683612082565b60010190505f8167ffffffffffffffff811115611eb557611eb56123bf565b6040519080825280601f01601f191660200182016040528015611edf576020820181803683370190505b5090508181016020015b5f19016f181899199a1a9b1b9c1cb0b131b232b360811b600a86061a8153600a8504945084611ee957509392505050565b8080611f2e57506001600160a01b03821615155b15611fef575f611f3d84611b97565b90506001600160a01b03831615801590611f695750826001600160a01b0316816001600160a01b031614155b8015611f7c5750611f7a81846116d7565b155b15611fa55760405163a9fbf51f60e01b81526001600160a01b038416600482015260240161064e565b8115611fed5783856001600160a01b0316826001600160a01b03167f8c5be1e5ebec7d5bd14f71427d1e84f3dd0314c0f7b2291e5b200ac8c7c3b92560405160405180910390a45b505b50505f90815260046020526040902080546001600160a01b0319166001600160a01b0392909216919091179055565b612029838383612159565b610e98576001600160a01b03831661205757604051637e27328960e01b81526004810182905260240161064e565b60405163177e802f60e01b81526001600160a01b03831660048201526024810182905260440161064e565b5f8072184f03e93ff9f4daa797ed6e38ed64bf6a1f0160401b83106120c05772184f03e93ff9f4daa797ed6e38ed64bf6a1f0160401b830492506040015b6d04ee2d6d415b85acef810000000083106120ec576d04ee2d6d415b85acef8100000000830492506020015b662386f26fc10000831061210a57662386f26fc10000830492506010015b6305f5e1008310612122576305f5e100830492506008015b612710831061213657612710830492506004015b60648310612148576064830492506002015b600a83106105e25760010192915050565b5f6001600160a01b038316158015906121b55750826001600160a01b0316846001600160a01b03161480612192575061219284846116d7565b806121b557505f828152600460205260409020546001600160a01b038481169116145b949350505050565b6001600160e01b0319811681146121d2575f80fd5b50565b5f602082840312156121e5575f80fd5b81356116b7816121bd565b6001600160a01b03811681146121d2575f80fd5b5f8060408385031215612215575f80fd5b823591506020830135612227816121f0565b809150509250929050565b5f5b8381101561224c578181015183820152602001612234565b50505f910152565b5f815180845261226b816020860160208601612232565b601f01601f19169290920160200192915050565b602081525f6116b76020830184612254565b5f602082840312156122a1575f80fd5b5035919050565b5f80604083850312156122b9575f80fd5b82356122c4816121f0565b946020939093013593505050565b5f805f606084860312156122e4575f80fd5b83356122ef816121f0565b925060208401356122ff816121f0565b929592945050506040919091013590565b5f6101808e83528d60208401528c60408401528060608401526123358184018d612254565b90508281036080840152612349818c612254565b8a151560a08501526001600160a01b038a1660c085015288151560e085015287151561010085015286151561012085015291506123839050565b61014082019390935261016001529a9950505050505050505050565b5f80604083850312156123b0575f80fd5b50508035926020909101359150565b634e487b7160e01b5f52604160045260245ffd5b5f67ffffffffffffffff808411156123ed576123ed6123bf565b604051601f8501601f19908116603f01168101908282118183101715612415576124156123bf565b8160405280935085815286868601111561242d575f80fd5b858560208301375f602087830101525050509392505050565b5f82601f830112612455575f80fd5b6116b7838335602085016123d3565b80358015158114612473575f80fd5b919050565b5f805f805f8060c0878903121561248d575f80fd5b86359550602087013567ffffffffffffffff808211156124ab575f80fd5b6124b78a838b01612446565b9650604089013595506060890135945060808901359150808211156124da575f80fd5b506124e789828a01612446565b9250506124f660a08801612464565b90509295509295509295565b5f60208284031215612512575f80fd5b81356116b7816121f0565b5f806040838503121561252e575f80fd5b8235612539816121f0565b915061254760208401612464565b90509250929050565b5f805f8060808587031215612563575f80fd5b843561256e816121f0565b9350602085013561257e816121f0565b925060408501359150606085013567ffffffffffffffff8111156125a0575f80fd5b8501601f810187136125b0575f80fd5b6125bf878235602084016123d3565b91505092959194509250565b5f80604083850312156125dc575f80fd5b82356125e7816121f0565b91506020830135612227816121f0565b60c081525f61260960c0830189612254565b87602084015286604084015282810360608401526126278187612254565b9415156080840152505090151560a090910152949350505050565b6020808252818101527f4572726f723a20636f6e646963696f6e6573206e6f2063756d706c696461732e604082015260600190565b634e487b7160e01b5f52603260045260245ffd5b634e487b7160e01b5f52601160045260245ffd5b5f600182016126b0576126b061268b565b5060010190565b600181811c908216806126cb57607f821691505b6020821081036126e957634e487b7160e01b5f52602260045260245ffd5b50919050565b818103818111156105e2576105e261268b565b601f821115610e98575f81815260208120601f850160051c810160208610156127285750805b601f850160051c820191505b8181101561274757828155600101612734565b505050505050565b815167ffffffffffffffff811115612769576127696123bf565b61277d8161277784546126b7565b84612702565b602080601f8311600181146127b0575f84156127995750858301515b5f19600386901b1c1916600185901b178555612747565b5f85815260208120601f198616915b828110156127de578886015182559484019460019091019084016127bf565b50858210156127fb57878501515f19600388901b60f8161c191681555b5050505050600190811b01905550565b808201808211156105e2576105e261268b565b5f6020828403121561282e575f80fd5b81516116b7816121f0565b5f835161284a818460208801612232565b83519083019061285e818360208801612232565b01949350505050565b634e487b7160e01b5f52603160045260245ffd5b6001600160a01b03858116825284166020820152604081018390526080606082018190525f906128ad90830184612254565b9695505050505050565b5f602082840312156128c7575f80fd5b81516116b7816121bd56fea2646970667358221220dc29b7dfd8c48eff24839450ff00e39244c5919ec22720aab5cd62e4f89635a464736f6c63430008140033",
  "immutableReferences": {},
  "source": "// SPDX-License-Identifier: MIT\r\npragma solidity ^0.8.20;\r\n\r\nimport \"./MyContract.sol\";\r\n\r\ncontract MyContractChanges is MyContract {\r\n\r\n    event ApprovalChanges(\r\n        uint256 indexed tokenId,\r\n        address indexed employer,\r\n        uint256 salary,\r\n        uint256 newSalary,\r\n        uint256 timestamp\r\n    );\r\n\r\n    event RejectChanges(\r\n        uint256 indexed tokenId,\r\n        address indexed employer,\r\n        uint256 timestamp\r\n    );\r\n\r\n\r\n    function pauseContract(uint256 _tokenID) public {\r\n        require(\r\n            !contractDetails[_tokenID].isPaused,\r\n            \"Error: condiciones no cumplidas.\"\r\n        );\r\n    \r\n        contractDetails[_tokenID].isPaused = true;\r\n        contractDetails[_tokenID].pauseTime = block.timestamp;\r\n    }\r\n\r\n\r\n    function unPauseContract(uint256 _tokenID) public {\r\n        require(\r\n            contractDetails[_tokenID].isPaused,\r\n            \"Error: condiciones no cumplidas.\"\r\n        );\r\n\r\n        uint256 pauseDuration = block.timestamp - contractDetails[_tokenID].pauseTime;\r\n\r\n        contractDetails[_tokenID].duration += pauseDuration;\r\n        contractDetails[_tokenID].pauseDuration += pauseDuration;\r\n        contractDetails[_tokenID].pauseTime = 0;\r\n        contractDetails[_tokenID].isPaused = false;\r\n    }\r\n\r\n\r\n    function assignManagerToToken(uint256 _tokenID, address _newManager) public {\r\n        require(\r\n            msg.sender == ownerOf(_tokenID) &&\r\n            !tokenManagers[_tokenID][_newManager] &&\r\n            _newManager != ownerOf(_tokenID),\r\n            \"Error: condiciones no cumplidas.\"\r\n        );\r\n\r\n        if (!tokenManagers[_tokenID][_newManager]) {\r\n            tokenManagers[_tokenID][_newManager] = true;\r\n            tokenManagersList[_tokenID].push(_newManager);\r\n            contractsOwner[_newManager].push(_tokenID);\r\n        }\r\n    }\r\n\r\n\r\n    function revokeManagerFromToken(uint256 _tokenId, address _manager) public {\r\n        require(\r\n            msg.sender == ownerOf(_tokenId) &&\r\n            tokenManagers[_tokenId][_manager],\r\n            \"Error: condiciones no cumplidas.\"\r\n        );\r\n\r\n        for (uint256 i = 0; i < tokenManagersList[_tokenId].length; i++) {\r\n            if (tokenManagersList[_tokenId][i] == _manager) {\r\n                removeManagerFromList(_tokenId, i);\r\n                break;\r\n            }\r\n        }\r\n\r\n        tokenManagers[_tokenId][_manager] = false;\r\n        removeContractFromOwner(_tokenId, _manager);\r\n    }\r\n\r\n\r\n    function removeManagerFromList(uint256 _tokenId, uint256 _index) private {\r\n        tokenManagersList[_tokenId][_index] = tokenManagersList[_tokenId][tokenManagersList[_tokenId].length - 1];\r\n        tokenManagersList[_tokenId].pop();\r\n    }\r\n\r\n\r\n    function proposeChange(\r\n        uint256 _tokenID,\r\n        string memory _newTitle,\r\n        uint256 _newSalary,\r\n        uint256 _newDuration,\r\n        string memory _newDescription,\r\n        bool _isPaused\r\n    ) public payable {\r\n        require(\r\n            contractDetails[_tokenID].isSigned &&\r\n            !isContractFinished(_tokenID) &&\r\n            !changeProposals[_tokenID].isPending &&\r\n            tokenManagers[_tokenID][msg.sender],\r\n            \"Error: condiciones no cumplidas.\"\r\n        );\r\n\r\n        uint256 currentSalary = contractDetails[_tokenID].salary;\r\n        if (_newSalary > currentSalary) {\r\n            uint256 salaryDifference = _newSalary - currentSalary;\r\n            require(\r\n                msg.value >= salaryDifference,\r\n                \"Fondos insuficientes para cubrir el incremento del salario\"\r\n            );\r\n\r\n            uint256 excessAmount = msg.value - salaryDifference;\r\n            if (excessAmount > 0) {\r\n                payable(msg.sender).transfer(excessAmount);\r\n            }\r\n        }\r\n\r\n        changeProposals[_tokenID] = ChangeProposal({\r\n            newTitle: _newTitle,\r\n            newSalary: _newSalary,\r\n            newDuration: _newDuration,\r\n            newDescription: _newDescription,\r\n            isPaused: _isPaused,\r\n            isPending: true\r\n        });\r\n    }\r\n\r\n    \r\n    function rejectChange(uint256 _tokenID) public {\r\n        require(\r\n            changeProposals[_tokenID].isPending &&\r\n            !isContractFinished(_tokenID),\r\n            \"Error: condiciones no cumplidas.\"\r\n        );\r\n\r\n        ChangeProposal memory proposedChange = changeProposals[_tokenID];\r\n\r\n        if (proposedChange.newSalary > contractDetails[_tokenID].salary) {\r\n            uint256 salaryDifference = proposedChange.newSalary -\r\n                contractDetails[_tokenID].salary;\r\n            address owner = ownerOf(_tokenID);\r\n            payable(owner).transfer(salaryDifference);\r\n        }\r\n\r\n        changeProposals[_tokenID].isPending = false;\r\n        emit RejectChanges(_tokenID, ownerOf(_tokenID), block.timestamp);\r\n    }\r\n\r\n    \r\n    function applyChange(uint256 _tokenID) public payable {\r\n        require(\r\n            changeProposals[_tokenID].isPending &&\r\n            !isContractFinished(_tokenID),\r\n            \"Error: condiciones no cumplidas.\"\r\n        );\r\n\r\n        ChangeProposal memory proposedChange = changeProposals[_tokenID];\r\n        uint256 salary = contractDetails[_tokenID].salary;\r\n\r\n        if (proposedChange.newSalary < salary) {\r\n            uint256 refundAmount = salary - proposedChange.newSalary;\r\n            address owner = ownerOf(_tokenID);\r\n            payable(owner).transfer(refundAmount);\r\n        }\r\n\r\n        contractDetails[_tokenID].title = proposedChange.newTitle;\r\n        contractDetails[_tokenID].salary = proposedChange.newSalary;\r\n        contractDetails[_tokenID].duration = proposedChange.newDuration;\r\n        contractDetails[_tokenID].description = proposedChange.newDescription;\r\n\r\n        if (proposedChange.isPaused != contractDetails[_tokenID].isPaused) {\r\n            if (proposedChange.isPaused) {\r\n                pauseContract(_tokenID);\r\n            } else {\r\n                unPauseContract(_tokenID);\r\n            }\r\n        }\r\n\r\n        changeProposals[_tokenID].isPending = false;\r\n\r\n        emit ApprovalChanges(\r\n            _tokenID,\r\n            ownerOf(_tokenID),\r\n            salary,\r\n            proposedChange.newSalary,\r\n            block.timestamp\r\n        );\r\n    }\r\n}",
  "sourcePath": "E:\\AppContract\\ubu-contractme\\Code\\SmartContract\\contracts\\MyContractChanges.sol",
  "compiler": {
    "name": "solc",
    "version": "0.8.20+commit.a1b79de6.Emscripten.clang"
  },
  "schemaVersion": "3.4.16",
  "updatedAt": "2024-03-14T19:38:04.926Z",
  "devdoc": {
    "errors": {
      "ERC721IncorrectOwner(address,uint256,address)": [
        {
          "details": "Indicates an error related to the ownership over a particular token. Used in transfers.",
          "params": {
            "owner": "Address of the current owner of a token.",
            "sender": "Address whose tokens are being transferred.",
            "tokenId": "Identifier number of a token."
          }
        }
      ],
      "ERC721InsufficientApproval(address,uint256)": [
        {
          "details": "Indicates a failure with the `operator`s approval. Used in transfers.",
          "params": {
            "operator": "Address that may be allowed to operate on tokens without being their owner.",
            "tokenId": "Identifier number of a token."
          }
        }
      ],
      "ERC721InvalidApprover(address)": [
        {
          "details": "Indicates a failure with the `approver` of a token to be approved. Used in approvals.",
          "params": {
            "approver": "Address initiating an approval operation."
          }
        }
      ],
      "ERC721InvalidOperator(address)": [
        {
          "details": "Indicates a failure with the `operator` to be approved. Used in approvals.",
          "params": {
            "operator": "Address that may be allowed to operate on tokens without being their owner."
          }
        }
      ],
      "ERC721InvalidOwner(address)": [
        {
          "details": "Indicates that an address can't be an owner. For example, `address(0)` is a forbidden owner in EIP-20. Used in balance queries.",
          "params": {
            "owner": "Address of the current owner of a token."
          }
        }
      ],
      "ERC721InvalidReceiver(address)": [
        {
          "details": "Indicates a failure with the token `receiver`. Used in transfers.",
          "params": {
            "receiver": "Address to which tokens are being transferred."
          }
        }
      ],
      "ERC721InvalidSender(address)": [
        {
          "details": "Indicates a failure with the token `sender`. Used in transfers.",
          "params": {
            "sender": "Address whose tokens are being transferred."
          }
        }
      ],
      "ERC721NonexistentToken(uint256)": [
        {
          "details": "Indicates a `tokenId` whose `owner` is the zero address.",
          "params": {
            "tokenId": "Identifier number of a token."
          }
        }
      ]
    },
    "events": {
      "Approval(address,address,uint256)": {
        "details": "Emitted when `owner` enables `approved` to manage the `tokenId` token."
      },
      "ApprovalForAll(address,address,bool)": {
        "details": "Emitted when `owner` enables or disables (`approved`) `operator` to manage all of its assets."
      },
      "Transfer(address,address,uint256)": {
        "details": "Emitted when `tokenId` token is transferred from `from` to `to`."
      }
    },
    "kind": "dev",
    "methods": {
      "approve(address,uint256)": {
        "details": "See {IERC721-approve}."
      },
      "balanceOf(address)": {
        "details": "See {IERC721-balanceOf}."
      },
      "getApproved(uint256)": {
        "details": "See {IERC721-getApproved}."
      },
      "isApprovedForAll(address,address)": {
        "details": "See {IERC721-isApprovedForAll}."
      },
      "name()": {
        "details": "See {IERC721Metadata-name}."
      },
      "ownerOf(uint256)": {
        "details": "See {IERC721-ownerOf}."
      },
      "safeTransferFrom(address,address,uint256)": {
        "details": "See {IERC721-safeTransferFrom}."
      },
      "safeTransferFrom(address,address,uint256,bytes)": {
        "details": "See {IERC721-safeTransferFrom}."
      },
      "setApprovalForAll(address,bool)": {
        "details": "See {IERC721-setApprovalForAll}."
      },
      "supportsInterface(bytes4)": {
        "details": "See {IERC165-supportsInterface}."
      },
      "symbol()": {
        "details": "See {IERC721Metadata-symbol}."
      },
      "tokenURI(uint256)": {
        "details": "See {IERC721Metadata-tokenURI}."
      },
      "transferFrom(address,address,uint256)": {
        "details": "See {IERC721-transferFrom}."
      }
    },
    "version": 1
  },
  "userdoc": {
    "kind": "user",
    "methods": {},
    "version": 1
  }
}