{
  "contractName": "MyToken",
  "abi": [
    {
      "inputs": [],
      "stateMutability": "nonpayable",
      "type": "constructor"
    },
    {
      "inputs": [
        {
          "internalType": "address",
          "name": "sender",
          "type": "address"
        },
        {
          "internalType": "uint256",
          "name": "tokenId",
          "type": "uint256"
        },
        {
          "internalType": "address",
          "name": "owner",
          "type": "address"
        }
      ],
      "name": "ERC721IncorrectOwner",
      "type": "error"
    },
    {
      "inputs": [
        {
          "internalType": "address",
          "name": "operator",
          "type": "address"
        },
        {
          "internalType": "uint256",
          "name": "tokenId",
          "type": "uint256"
        }
      ],
      "name": "ERC721InsufficientApproval",
      "type": "error"
    },
    {
      "inputs": [
        {
          "internalType": "address",
          "name": "approver",
          "type": "address"
        }
      ],
      "name": "ERC721InvalidApprover",
      "type": "error"
    },
    {
      "inputs": [
        {
          "internalType": "address",
          "name": "operator",
          "type": "address"
        }
      ],
      "name": "ERC721InvalidOperator",
      "type": "error"
    },
    {
      "inputs": [
        {
          "internalType": "address",
          "name": "owner",
          "type": "address"
        }
      ],
      "name": "ERC721InvalidOwner",
      "type": "error"
    },
    {
      "inputs": [
        {
          "internalType": "address",
          "name": "receiver",
          "type": "address"
        }
      ],
      "name": "ERC721InvalidReceiver",
      "type": "error"
    },
    {
      "inputs": [
        {
          "internalType": "address",
          "name": "sender",
          "type": "address"
        }
      ],
      "name": "ERC721InvalidSender",
      "type": "error"
    },
    {
      "inputs": [
        {
          "internalType": "uint256",
          "name": "tokenId",
          "type": "uint256"
        }
      ],
      "name": "ERC721NonexistentToken",
      "type": "error"
    },
    {
      "anonymous": false,
      "inputs": [
        {
          "indexed": true,
          "internalType": "address",
          "name": "owner",
          "type": "address"
        },
        {
          "indexed": true,
          "internalType": "address",
          "name": "approved",
          "type": "address"
        },
        {
          "indexed": true,
          "internalType": "uint256",
          "name": "tokenId",
          "type": "uint256"
        }
      ],
      "name": "Approval",
      "type": "event"
    },
    {
      "anonymous": false,
      "inputs": [
        {
          "indexed": true,
          "internalType": "address",
          "name": "owner",
          "type": "address"
        },
        {
          "indexed": true,
          "internalType": "address",
          "name": "operator",
          "type": "address"
        },
        {
          "indexed": false,
          "internalType": "bool",
          "name": "approved",
          "type": "bool"
        }
      ],
      "name": "ApprovalForAll",
      "type": "event"
    },
    {
      "anonymous": false,
      "inputs": [
        {
          "indexed": true,
          "internalType": "address",
          "name": "from",
          "type": "address"
        },
        {
          "indexed": true,
          "internalType": "address",
          "name": "to",
          "type": "address"
        },
        {
          "indexed": true,
          "internalType": "uint256",
          "name": "tokenId",
          "type": "uint256"
        }
      ],
      "name": "Transfer",
      "type": "event"
    },
    {
      "inputs": [
        {
          "internalType": "address",
          "name": "to",
          "type": "address"
        },
        {
          "internalType": "uint256",
          "name": "tokenId",
          "type": "uint256"
        }
      ],
      "name": "approve",
      "outputs": [],
      "stateMutability": "nonpayable",
      "type": "function"
    },
    {
      "inputs": [
        {
          "internalType": "address",
          "name": "owner",
          "type": "address"
        }
      ],
      "name": "balanceOf",
      "outputs": [
        {
          "internalType": "uint256",
          "name": "",
          "type": "uint256"
        }
      ],
      "stateMutability": "view",
      "type": "function"
    },
    {
      "inputs": [
        {
          "internalType": "uint256",
          "name": "tokenId",
          "type": "uint256"
        }
      ],
      "name": "getApproved",
      "outputs": [
        {
          "internalType": "address",
          "name": "",
          "type": "address"
        }
      ],
      "stateMutability": "view",
      "type": "function"
    },
    {
      "inputs": [
        {
          "internalType": "address",
          "name": "owner",
          "type": "address"
        },
        {
          "internalType": "address",
          "name": "operator",
          "type": "address"
        }
      ],
      "name": "isApprovedForAll",
      "outputs": [
        {
          "internalType": "bool",
          "name": "",
          "type": "bool"
        }
      ],
      "stateMutability": "view",
      "type": "function"
    },
    {
      "inputs": [],
      "name": "name",
      "outputs": [
        {
          "internalType": "string",
          "name": "",
          "type": "string"
        }
      ],
      "stateMutability": "view",
      "type": "function"
    },
    {
      "inputs": [
        {
          "internalType": "uint256",
          "name": "tokenId",
          "type": "uint256"
        }
      ],
      "name": "ownerOf",
      "outputs": [
        {
          "internalType": "address",
          "name": "",
          "type": "address"
        }
      ],
      "stateMutability": "view",
      "type": "function"
    },
    {
      "inputs": [
        {
          "internalType": "address",
          "name": "from",
          "type": "address"
        },
        {
          "internalType": "address",
          "name": "to",
          "type": "address"
        },
        {
          "internalType": "uint256",
          "name": "tokenId",
          "type": "uint256"
        }
      ],
      "name": "safeTransferFrom",
      "outputs": [],
      "stateMutability": "nonpayable",
      "type": "function"
    },
    {
      "inputs": [
        {
          "internalType": "address",
          "name": "from",
          "type": "address"
        },
        {
          "internalType": "address",
          "name": "to",
          "type": "address"
        },
        {
          "internalType": "uint256",
          "name": "tokenId",
          "type": "uint256"
        },
        {
          "internalType": "bytes",
          "name": "data",
          "type": "bytes"
        }
      ],
      "name": "safeTransferFrom",
      "outputs": [],
      "stateMutability": "nonpayable",
      "type": "function"
    },
    {
      "inputs": [
        {
          "internalType": "address",
          "name": "operator",
          "type": "address"
        },
        {
          "internalType": "bool",
          "name": "approved",
          "type": "bool"
        }
      ],
      "name": "setApprovalForAll",
      "outputs": [],
      "stateMutability": "nonpayable",
      "type": "function"
    },
    {
      "inputs": [
        {
          "internalType": "bytes4",
          "name": "interfaceId",
          "type": "bytes4"
        }
      ],
      "name": "supportsInterface",
      "outputs": [
        {
          "internalType": "bool",
          "name": "",
          "type": "bool"
        }
      ],
      "stateMutability": "view",
      "type": "function"
    },
    {
      "inputs": [],
      "name": "symbol",
      "outputs": [
        {
          "internalType": "string",
          "name": "",
          "type": "string"
        }
      ],
      "stateMutability": "view",
      "type": "function"
    },
    {
      "inputs": [
        {
          "internalType": "uint256",
          "name": "tokenId",
          "type": "uint256"
        }
      ],
      "name": "tokenURI",
      "outputs": [
        {
          "internalType": "string",
          "name": "",
          "type": "string"
        }
      ],
      "stateMutability": "view",
      "type": "function"
    },
    {
      "inputs": [
        {
          "internalType": "address",
          "name": "from",
          "type": "address"
        },
        {
          "internalType": "address",
          "name": "to",
          "type": "address"
        },
        {
          "internalType": "uint256",
          "name": "tokenId",
          "type": "uint256"
        }
      ],
      "name": "transferFrom",
      "outputs": [],
      "stateMutability": "nonpayable",
      "type": "function"
    },
    {
      "inputs": [],
      "name": "mint",
      "outputs": [
        {
          "internalType": "uint256",
          "name": "",
          "type": "uint256"
        }
      ],
      "stateMutability": "payable",
      "type": "function"
    }
  ],
  "bytecode": "0x6080604052670de0b6b3a76400006007553480156200001c575f80fd5b506040518060400160405280600781526020017f4d79546f6b656e000000000000000000000000000000000000000000000000008152506040518060400160405280600381526020017f4d544b0000000000000000000000000000000000000000000000000000000000815250815f908162000099919062000318565b508060019081620000ab919062000318565b505050620003fc565b5f81519050919050565b7f4e487b71000000000000000000000000000000000000000000000000000000005f52604160045260245ffd5b7f4e487b71000000000000000000000000000000000000000000000000000000005f52602260045260245ffd5b5f60028204905060018216806200013057607f821691505b602082108103620001465762000145620000eb565b5b50919050565b5f819050815f5260205f209050919050565b5f6020601f8301049050919050565b5f82821b905092915050565b5f60088302620001aa7fffffffffffffffffffffffffffffffffffffffffffffffffffffffffffffffff826200016d565b620001b686836200016d565b95508019841693508086168417925050509392505050565b5f819050919050565b5f819050919050565b5f62000200620001fa620001f484620001ce565b620001d7565b620001ce565b9050919050565b5f819050919050565b6200021b83620001e0565b620002336200022a8262000207565b84845462000179565b825550505050565b5f90565b620002496200023b565b6200025681848462000210565b505050565b5b818110156200027d57620002715f826200023f565b6001810190506200025c565b5050565b601f821115620002cc5762000296816200014c565b620002a1846200015e565b81016020851015620002b1578190505b620002c9620002c0856200015e565b8301826200025b565b50505b505050565b5f82821c905092915050565b5f620002ee5f1984600802620002d1565b1980831691505092915050565b5f620003088383620002dd565b9150826002028217905092915050565b6200032382620000b4565b67ffffffffffffffff8111156200033f576200033e620000be565b5b6200034b825462000118565b6200035882828562000281565b5f60209050601f8311600181146200038e575f841562000379578287015190505b620003858582620002fb565b865550620003f4565b601f1984166200039e866200014c565b5f5b82811015620003c757848901518255600182019150602085019450602081019050620003a0565b86831015620003e75784890151620003e3601f891682620002dd565b8355505b6001600288020188555050505b505050505050565b611f79806200040a5f395ff3fe6080604052600436106100dc575f3560e01c80636352211e1161007e578063a22cb46511610058578063a22cb465146102ba578063b88d4fde146102e2578063c87b56dd1461030a578063e985e9c514610346576100dc565b80636352211e1461021857806370a082311461025457806395d89b4114610290576100dc565b8063095ea7b3116100ba578063095ea7b3146101825780631249c58b146101aa57806323b872dd146101c857806342842e0e146101f0576100dc565b806301ffc9a7146100e057806306fdde031461011c578063081812fc14610146575b5f80fd5b3480156100eb575f80fd5b50610106600480360381019061010191906116fb565b610382565b6040516101139190611740565b60405180910390f35b348015610127575f80fd5b50610130610463565b60405161013d91906117e3565b60405180910390f35b348015610151575f80fd5b5061016c60048036038101906101679190611836565b6104f2565b60405161017991906118a0565b60405180910390f35b34801561018d575f80fd5b506101a860048036038101906101a391906118e3565b61050d565b005b6101b2610523565b6040516101bf9190611930565b60405180910390f35b3480156101d3575f80fd5b506101ee60048036038101906101e99190611949565b6105f3565b005b3480156101fb575f80fd5b5061021660048036038101906102119190611949565b6106f2565b005b348015610223575f80fd5b5061023e60048036038101906102399190611836565b610711565b60405161024b91906118a0565b60405180910390f35b34801561025f575f80fd5b5061027a60048036038101906102759190611999565b610722565b6040516102879190611930565b60405180910390f35b34801561029b575f80fd5b506102a46107d8565b6040516102b191906117e3565b60405180910390f35b3480156102c5575f80fd5b506102e060048036038101906102db91906119ee565b610868565b005b3480156102ed575f80fd5b5061030860048036038101906103039190611b58565b61087e565b005b348015610315575f80fd5b50610330600480360381019061032b9190611836565b61089b565b60405161033d91906117e3565b60405180910390f35b348015610351575f80fd5b5061036c60048036038101906103679190611bd8565b610901565b6040516103799190611740565b60405180910390f35b5f7f80ac58cd000000000000000000000000000000000000000000000000000000007bffffffffffffffffffffffffffffffffffffffffffffffffffffffff1916827bffffffffffffffffffffffffffffffffffffffffffffffffffffffff1916148061044c57507f5b5e139f000000000000000000000000000000000000000000000000000000007bffffffffffffffffffffffffffffffffffffffffffffffffffffffff1916827bffffffffffffffffffffffffffffffffffffffffffffffffffffffff1916145b8061045c575061045b8261098f565b5b9050919050565b60605f805461047190611c43565b80601f016020809104026020016040519081016040528092919081815260200182805461049d90611c43565b80156104e85780601f106104bf576101008083540402835291602001916104e8565b820191905f5260205f20905b8154815290600101906020018083116104cb57829003601f168201915b5050505050905090565b5f6104fc826109f8565b5061050682610a7e565b9050919050565b61051f828261051a610ab7565b610abe565b5050565b5f600754341015610569576040517f08c379a000000000000000000000000000000000000000000000000000000000815260040161056090611cbd565b60405180910390fd5b60065f81548092919061057b90611d08565b919050555061058c33600654610ad0565b5f6007543461059b9190611d4f565b90505f8111156105ea573373ffffffffffffffffffffffffffffffffffffffff166108fc8290811502906040515f60405180830381858888f193505050501580156105e8573d5f803e3d5ffd5b505b60065491505090565b5f73ffffffffffffffffffffffffffffffffffffffff168273ffffffffffffffffffffffffffffffffffffffff1603610663575f6040517f64a0ae9200000000000000000000000000000000000000000000000000000000815260040161065a91906118a0565b60405180910390fd5b5f6106768383610671610ab7565b610bc3565b90508373ffffffffffffffffffffffffffffffffffffffff168173ffffffffffffffffffffffffffffffffffffffff16146106ec578382826040517f64283d7b0000000000000000000000000000000000000000000000000000000081526004016106e393929190611d82565b60405180910390fd5b50505050565b61070c83838360405180602001604052805f81525061087e565b505050565b5f61071b826109f8565b9050919050565b5f8073ffffffffffffffffffffffffffffffffffffffff168273ffffffffffffffffffffffffffffffffffffffff1603610793575f6040517f89c62b6400000000000000000000000000000000000000000000000000000000815260040161078a91906118a0565b60405180910390fd5b60035f8373ffffffffffffffffffffffffffffffffffffffff1673ffffffffffffffffffffffffffffffffffffffff1681526020019081526020015f20549050919050565b6060600180546107e790611c43565b80601f016020809104026020016040519081016040528092919081815260200182805461081390611c43565b801561085e5780601f106108355761010080835404028352916020019161085e565b820191905f5260205f20905b81548152906001019060200180831161084157829003601f168201915b5050505050905090565b61087a610873610ab7565b8383610dce565b5050565b6108898484846105f3565b61089584848484610f37565b50505050565b60606108a6826109f8565b505f6108b06110e9565b90505f8151116108ce5760405180602001604052805f8152506108f9565b806108d8846110ff565b6040516020016108e9929190611df1565b6040516020818303038152906040525b915050919050565b5f60055f8473ffffffffffffffffffffffffffffffffffffffff1673ffffffffffffffffffffffffffffffffffffffff1681526020019081526020015f205f8373ffffffffffffffffffffffffffffffffffffffff1673ffffffffffffffffffffffffffffffffffffffff1681526020019081526020015f205f9054906101000a900460ff16905092915050565b5f7f01ffc9a7000000000000000000000000000000000000000000000000000000007bffffffffffffffffffffffffffffffffffffffffffffffffffffffff1916827bffffffffffffffffffffffffffffffffffffffffffffffffffffffff1916149050919050565b5f80610a03836111c9565b90505f73ffffffffffffffffffffffffffffffffffffffff168173ffffffffffffffffffffffffffffffffffffffff1603610a7557826040517f7e273289000000000000000000000000000000000000000000000000000000008152600401610a6c9190611930565b60405180910390fd5b80915050919050565b5f60045f8381526020019081526020015f205f9054906101000a900473ffffffffffffffffffffffffffffffffffffffff169050919050565b5f33905090565b610acb8383836001611202565b505050565b5f73ffffffffffffffffffffffffffffffffffffffff168273ffffffffffffffffffffffffffffffffffffffff1603610b40575f6040517f64a0ae92000000000000000000000000000000000000000000000000000000008152600401610b3791906118a0565b60405180910390fd5b5f610b4c83835f610bc3565b90505f73ffffffffffffffffffffffffffffffffffffffff168173ffffffffffffffffffffffffffffffffffffffff1614610bbe575f6040517f73c6ac6e000000000000000000000000000000000000000000000000000000008152600401610bb591906118a0565b60405180910390fd5b505050565b5f80610bce846111c9565b90505f73ffffffffffffffffffffffffffffffffffffffff168373ffffffffffffffffffffffffffffffffffffffff1614610c0f57610c0e8184866113c1565b5b5f73ffffffffffffffffffffffffffffffffffffffff168173ffffffffffffffffffffffffffffffffffffffff1614610c9a57610c4e5f855f80611202565b600160035f8373ffffffffffffffffffffffffffffffffffffffff1673ffffffffffffffffffffffffffffffffffffffff1681526020019081526020015f205f82825403925050819055505b5f73ffffffffffffffffffffffffffffffffffffffff168573ffffffffffffffffffffffffffffffffffffffff1614610d1957600160035f8773ffffffffffffffffffffffffffffffffffffffff1673ffffffffffffffffffffffffffffffffffffffff1681526020019081526020015f205f82825401925050819055505b8460025f8681526020019081526020015f205f6101000a81548173ffffffffffffffffffffffffffffffffffffffff021916908373ffffffffffffffffffffffffffffffffffffffff160217905550838573ffffffffffffffffffffffffffffffffffffffff168273ffffffffffffffffffffffffffffffffffffffff167fddf252ad1be2c89b69c2b068fc378daa952ba7f163c4a11628f55a4df523b3ef60405160405180910390a4809150509392505050565b5f73ffffffffffffffffffffffffffffffffffffffff168273ffffffffffffffffffffffffffffffffffffffff1603610e3e57816040517f5b08ba18000000000000000000000000000000000000000000000000000000008152600401610e3591906118a0565b60405180910390fd5b8060055f8573ffffffffffffffffffffffffffffffffffffffff1673ffffffffffffffffffffffffffffffffffffffff1681526020019081526020015f205f8473ffffffffffffffffffffffffffffffffffffffff1673ffffffffffffffffffffffffffffffffffffffff1681526020019081526020015f205f6101000a81548160ff0219169083151502179055508173ffffffffffffffffffffffffffffffffffffffff168373ffffffffffffffffffffffffffffffffffffffff167f17307eab39ab6107e8899845ad3d59bd9653f200f220920489ca2b5937696c3183604051610f2a9190611740565b60405180910390a3505050565b5f8373ffffffffffffffffffffffffffffffffffffffff163b11156110e3578273ffffffffffffffffffffffffffffffffffffffff1663150b7a02610f7a610ab7565b8685856040518563ffffffff1660e01b8152600401610f9c9493929190611e66565b6020604051808303815f875af1925050508015610fd757506040513d601f19601f82011682018060405250810190610fd49190611ec4565b60015b611058573d805f8114611005576040519150601f19603f3d011682016040523d82523d5f602084013e61100a565b606091505b505f81510361105057836040517f64a0ae9200000000000000000000000000000000000000000000000000000000815260040161104791906118a0565b60405180910390fd5b805181602001fd5b63150b7a0260e01b7bffffffffffffffffffffffffffffffffffffffffffffffffffffffff1916817bffffffffffffffffffffffffffffffffffffffffffffffffffffffff1916146110e157836040517f64a0ae920000000000000000000000000000000000000000000000000000000081526004016110d891906118a0565b60405180910390fd5b505b50505050565b606060405180602001604052805f815250905090565b60605f600161110d84611484565b0190505f8167ffffffffffffffff81111561112b5761112a611a34565b5b6040519080825280601f01601f19166020018201604052801561115d5781602001600182028036833780820191505090505b5090505f82602001820190505b6001156111be578080600190039150507f3031323334353637383961626364656600000000000000000000000000000000600a86061a8153600a85816111b3576111b2611eef565b5b0494505f850361116a575b819350505050919050565b5f60025f8381526020019081526020015f205f9054906101000a900473ffffffffffffffffffffffffffffffffffffffff169050919050565b808061123a57505f73ffffffffffffffffffffffffffffffffffffffff168273ffffffffffffffffffffffffffffffffffffffff1614155b1561136c575f611249846109f8565b90505f73ffffffffffffffffffffffffffffffffffffffff168373ffffffffffffffffffffffffffffffffffffffff16141580156112b357508273ffffffffffffffffffffffffffffffffffffffff168173ffffffffffffffffffffffffffffffffffffffff1614155b80156112c657506112c48184610901565b155b1561130857826040517fa9fbf51f0000000000000000000000000000000000000000000000000000000081526004016112ff91906118a0565b60405180910390fd5b811561136a57838573ffffffffffffffffffffffffffffffffffffffff168273ffffffffffffffffffffffffffffffffffffffff167f8c5be1e5ebec7d5bd14f71427d1e84f3dd0314c0f7b2291e5b200ac8c7c3b92560405160405180910390a45b505b8360045f8581526020019081526020015f205f6101000a81548173ffffffffffffffffffffffffffffffffffffffff021916908373ffffffffffffffffffffffffffffffffffffffff16021790555050505050565b6113cc8383836115d5565b61147f575f73ffffffffffffffffffffffffffffffffffffffff168373ffffffffffffffffffffffffffffffffffffffff160361144057806040517f7e2732890000000000000000000000000000000000000000000000000000000081526004016114379190611930565b60405180910390fd5b81816040517f177e802f000000000000000000000000000000000000000000000000000000008152600401611476929190611f1c565b60405180910390fd5b505050565b5f805f90507a184f03e93ff9f4daa797ed6e38ed64bf6a1f01000000000000000083106114e0577a184f03e93ff9f4daa797ed6e38ed64bf6a1f01000000000000000083816114d6576114d5611eef565b5b0492506040810190505b6d04ee2d6d415b85acef8100000000831061151d576d04ee2d6d415b85acef8100000000838161151357611512611eef565b5b0492506020810190505b662386f26fc10000831061154c57662386f26fc10000838161154257611541611eef565b5b0492506010810190505b6305f5e1008310611575576305f5e100838161156b5761156a611eef565b5b0492506008810190505b612710831061159a5761271083816115905761158f611eef565b5b0492506004810190505b606483106115bd57606483816115b3576115b2611eef565b5b0492506002810190505b600a83106115cc576001810190505b80915050919050565b5f8073ffffffffffffffffffffffffffffffffffffffff168373ffffffffffffffffffffffffffffffffffffffff161415801561168c57508273ffffffffffffffffffffffffffffffffffffffff168473ffffffffffffffffffffffffffffffffffffffff16148061164d575061164c8484610901565b5b8061168b57508273ffffffffffffffffffffffffffffffffffffffff1661167383610a7e565b73ffffffffffffffffffffffffffffffffffffffff16145b5b90509392505050565b5f604051905090565b5f80fd5b5f80fd5b5f7fffffffff0000000000000000000000000000000000000000000000000000000082169050919050565b6116da816116a6565b81146116e4575f80fd5b50565b5f813590506116f5816116d1565b92915050565b5f602082840312156117105761170f61169e565b5b5f61171d848285016116e7565b91505092915050565b5f8115159050919050565b61173a81611726565b82525050565b5f6020820190506117535f830184611731565b92915050565b5f81519050919050565b5f82825260208201905092915050565b5f5b83811015611790578082015181840152602081019050611775565b5f8484015250505050565b5f601f19601f8301169050919050565b5f6117b582611759565b6117bf8185611763565b93506117cf818560208601611773565b6117d88161179b565b840191505092915050565b5f6020820190508181035f8301526117fb81846117ab565b905092915050565b5f819050919050565b61181581611803565b811461181f575f80fd5b50565b5f813590506118308161180c565b92915050565b5f6020828403121561184b5761184a61169e565b5b5f61185884828501611822565b91505092915050565b5f73ffffffffffffffffffffffffffffffffffffffff82169050919050565b5f61188a82611861565b9050919050565b61189a81611880565b82525050565b5f6020820190506118b35f830184611891565b92915050565b6118c281611880565b81146118cc575f80fd5b50565b5f813590506118dd816118b9565b92915050565b5f80604083850312156118f9576118f861169e565b5b5f611906858286016118cf565b925050602061191785828601611822565b9150509250929050565b61192a81611803565b82525050565b5f6020820190506119435f830184611921565b92915050565b5f805f606084860312156119605761195f61169e565b5b5f61196d868287016118cf565b935050602061197e868287016118cf565b925050604061198f86828701611822565b9150509250925092565b5f602082840312156119ae576119ad61169e565b5b5f6119bb848285016118cf565b91505092915050565b6119cd81611726565b81146119d7575f80fd5b50565b5f813590506119e8816119c4565b92915050565b5f8060408385031215611a0457611a0361169e565b5b5f611a11858286016118cf565b9250506020611a22858286016119da565b9150509250929050565b5f80fd5b5f80fd5b7f4e487b71000000000000000000000000000000000000000000000000000000005f52604160045260245ffd5b611a6a8261179b565b810181811067ffffffffffffffff82111715611a8957611a88611a34565b5b80604052505050565b5f611a9b611695565b9050611aa78282611a61565b919050565b5f67ffffffffffffffff821115611ac657611ac5611a34565b5b611acf8261179b565b9050602081019050919050565b828183375f83830152505050565b5f611afc611af784611aac565b611a92565b905082815260208101848484011115611b1857611b17611a30565b5b611b23848285611adc565b509392505050565b5f82601f830112611b3f57611b3e611a2c565b5b8135611b4f848260208601611aea565b91505092915050565b5f805f8060808587031215611b7057611b6f61169e565b5b5f611b7d878288016118cf565b9450506020611b8e878288016118cf565b9350506040611b9f87828801611822565b925050606085013567ffffffffffffffff811115611bc057611bbf6116a2565b5b611bcc87828801611b2b565b91505092959194509250565b5f8060408385031215611bee57611bed61169e565b5b5f611bfb858286016118cf565b9250506020611c0c858286016118cf565b9150509250929050565b7f4e487b71000000000000000000000000000000000000000000000000000000005f52602260045260245ffd5b5f6002820490506001821680611c5a57607f821691505b602082108103611c6d57611c6c611c16565b5b50919050565b7f696e73756666696369656e742066756e647300000000000000000000000000005f82015250565b5f611ca7601283611763565b9150611cb282611c73565b602082019050919050565b5f6020820190508181035f830152611cd481611c9b565b9050919050565b7f4e487b71000000000000000000000000000000000000000000000000000000005f52601160045260245ffd5b5f611d1282611803565b91507fffffffffffffffffffffffffffffffffffffffffffffffffffffffffffffffff8203611d4457611d43611cdb565b5b600182019050919050565b5f611d5982611803565b9150611d6483611803565b9250828203905081811115611d7c57611d7b611cdb565b5b92915050565b5f606082019050611d955f830186611891565b611da26020830185611921565b611daf6040830184611891565b949350505050565b5f81905092915050565b5f611dcb82611759565b611dd58185611db7565b9350611de5818560208601611773565b80840191505092915050565b5f611dfc8285611dc1565b9150611e088284611dc1565b91508190509392505050565b5f81519050919050565b5f82825260208201905092915050565b5f611e3882611e14565b611e428185611e1e565b9350611e52818560208601611773565b611e5b8161179b565b840191505092915050565b5f608082019050611e795f830187611891565b611e866020830186611891565b611e936040830185611921565b8181036060830152611ea58184611e2e565b905095945050505050565b5f81519050611ebe816116d1565b92915050565b5f60208284031215611ed957611ed861169e565b5b5f611ee684828501611eb0565b91505092915050565b7f4e487b71000000000000000000000000000000000000000000000000000000005f52601260045260245ffd5b5f604082019050611f2f5f830185611891565b611f3c6020830184611921565b939250505056fea26469706673582212205cb68de33647e5ab31d4734359c1ed96109320f7449eda6a1883f90dfb8539d564736f6c63430008140033",
  "immutableReferences": {},
  "source": "// SPDX-License-Identifier: MIT\r\npragma solidity ^0.8.20;\r\n\r\nimport \"@openzeppelin/contracts/token/ERC721/ERC721.sol\";\r\n\r\ncontract MyToken is ERC721 {\r\n    uint256 tokenID;\r\n    uint tokenPrice = 1 ether;\r\n\r\n    constructor() ERC721(\"MyToken\", \"MTK\") {}\r\n\r\n    function mint() public payable returns (uint256) {\r\n        require(msg.value >= tokenPrice, \"insufficient funds\");\r\n        tokenID++;\r\n        _mint(msg.sender, tokenID);\r\n\r\n        uint256 remainder = msg.value - tokenPrice;\r\n        if (remainder > 0) {\r\n            payable(msg.sender).transfer(remainder);\r\n        }\r\n\r\n        return tokenID;\r\n    }\r\n}\r\n",
  "sourcePath": "E:\\AppContract\\Code\\SmartContract\\contracts\\MyContract.sol",
  "compiler": {
    "name": "solc",
    "version": "0.8.20+commit.a1b79de6.Emscripten.clang"
  },
  "schemaVersion": "3.4.16",
  "updatedAt": "2023-12-20T09:53:10.415Z",
  "devdoc": {
    "errors": {
      "ERC721IncorrectOwner(address,uint256,address)": [
        {
          "details": "Indicates an error related to the ownership over a particular token. Used in transfers.",
          "params": {
            "owner": "Address of the current owner of a token.",
            "sender": "Address whose tokens are being transferred.",
            "tokenId": "Identifier number of a token."
          }
        }
      ],
      "ERC721InsufficientApproval(address,uint256)": [
        {
          "details": "Indicates a failure with the `operator`s approval. Used in transfers.",
          "params": {
            "operator": "Address that may be allowed to operate on tokens without being their owner.",
            "tokenId": "Identifier number of a token."
          }
        }
      ],
      "ERC721InvalidApprover(address)": [
        {
          "details": "Indicates a failure with the `approver` of a token to be approved. Used in approvals.",
          "params": {
            "approver": "Address initiating an approval operation."
          }
        }
      ],
      "ERC721InvalidOperator(address)": [
        {
          "details": "Indicates a failure with the `operator` to be approved. Used in approvals.",
          "params": {
            "operator": "Address that may be allowed to operate on tokens without being their owner."
          }
        }
      ],
      "ERC721InvalidOwner(address)": [
        {
          "details": "Indicates that an address can't be an owner. For example, `address(0)` is a forbidden owner in EIP-20. Used in balance queries.",
          "params": {
            "owner": "Address of the current owner of a token."
          }
        }
      ],
      "ERC721InvalidReceiver(address)": [
        {
          "details": "Indicates a failure with the token `receiver`. Used in transfers.",
          "params": {
            "receiver": "Address to which tokens are being transferred."
          }
        }
      ],
      "ERC721InvalidSender(address)": [
        {
          "details": "Indicates a failure with the token `sender`. Used in transfers.",
          "params": {
            "sender": "Address whose tokens are being transferred."
          }
        }
      ],
      "ERC721NonexistentToken(uint256)": [
        {
          "details": "Indicates a `tokenId` whose `owner` is the zero address.",
          "params": {
            "tokenId": "Identifier number of a token."
          }
        }
      ]
    },
    "events": {
      "Approval(address,address,uint256)": {
        "details": "Emitted when `owner` enables `approved` to manage the `tokenId` token."
      },
      "ApprovalForAll(address,address,bool)": {
        "details": "Emitted when `owner` enables or disables (`approved`) `operator` to manage all of its assets."
      },
      "Transfer(address,address,uint256)": {
        "details": "Emitted when `tokenId` token is transferred from `from` to `to`."
      }
    },
    "kind": "dev",
    "methods": {
      "approve(address,uint256)": {
        "details": "See {IERC721-approve}."
      },
      "balanceOf(address)": {
        "details": "See {IERC721-balanceOf}."
      },
      "getApproved(uint256)": {
        "details": "See {IERC721-getApproved}."
      },
      "isApprovedForAll(address,address)": {
        "details": "See {IERC721-isApprovedForAll}."
      },
      "name()": {
        "details": "See {IERC721Metadata-name}."
      },
      "ownerOf(uint256)": {
        "details": "See {IERC721-ownerOf}."
      },
      "safeTransferFrom(address,address,uint256)": {
        "details": "See {IERC721-safeTransferFrom}."
      },
      "safeTransferFrom(address,address,uint256,bytes)": {
        "details": "See {IERC721-safeTransferFrom}."
      },
      "setApprovalForAll(address,bool)": {
        "details": "See {IERC721-setApprovalForAll}."
      },
      "supportsInterface(bytes4)": {
        "details": "See {IERC165-supportsInterface}."
      },
      "symbol()": {
        "details": "See {IERC721Metadata-symbol}."
      },
      "tokenURI(uint256)": {
        "details": "See {IERC721Metadata-tokenURI}."
      },
      "transferFrom(address,address,uint256)": {
        "details": "See {IERC721-transferFrom}."
      }
    },
    "version": 1
  },
  "userdoc": {
    "kind": "user",
    "methods": {},
    "version": 1
  }
}