{
  "contractName": "MyContract",
  "abi": [
    {
      "inputs": [],
      "stateMutability": "nonpayable",
      "type": "constructor"
    },
    {
      "inputs": [
        {
          "internalType": "address",
          "name": "sender",
          "type": "address"
        },
        {
          "internalType": "uint256",
          "name": "tokenId",
          "type": "uint256"
        },
        {
          "internalType": "address",
          "name": "owner",
          "type": "address"
        }
      ],
      "name": "ERC721IncorrectOwner",
      "type": "error"
    },
    {
      "inputs": [
        {
          "internalType": "address",
          "name": "operator",
          "type": "address"
        },
        {
          "internalType": "uint256",
          "name": "tokenId",
          "type": "uint256"
        }
      ],
      "name": "ERC721InsufficientApproval",
      "type": "error"
    },
    {
      "inputs": [
        {
          "internalType": "address",
          "name": "approver",
          "type": "address"
        }
      ],
      "name": "ERC721InvalidApprover",
      "type": "error"
    },
    {
      "inputs": [
        {
          "internalType": "address",
          "name": "operator",
          "type": "address"
        }
      ],
      "name": "ERC721InvalidOperator",
      "type": "error"
    },
    {
      "inputs": [
        {
          "internalType": "address",
          "name": "owner",
          "type": "address"
        }
      ],
      "name": "ERC721InvalidOwner",
      "type": "error"
    },
    {
      "inputs": [
        {
          "internalType": "address",
          "name": "receiver",
          "type": "address"
        }
      ],
      "name": "ERC721InvalidReceiver",
      "type": "error"
    },
    {
      "inputs": [
        {
          "internalType": "address",
          "name": "sender",
          "type": "address"
        }
      ],
      "name": "ERC721InvalidSender",
      "type": "error"
    },
    {
      "inputs": [
        {
          "internalType": "uint256",
          "name": "tokenId",
          "type": "uint256"
        }
      ],
      "name": "ERC721NonexistentToken",
      "type": "error"
    },
    {
      "anonymous": false,
      "inputs": [
        {
          "indexed": true,
          "internalType": "address",
          "name": "owner",
          "type": "address"
        },
        {
          "indexed": true,
          "internalType": "address",
          "name": "approved",
          "type": "address"
        },
        {
          "indexed": true,
          "internalType": "uint256",
          "name": "tokenId",
          "type": "uint256"
        }
      ],
      "name": "Approval",
      "type": "event"
    },
    {
      "anonymous": false,
      "inputs": [
        {
          "indexed": true,
          "internalType": "address",
          "name": "owner",
          "type": "address"
        },
        {
          "indexed": true,
          "internalType": "address",
          "name": "operator",
          "type": "address"
        },
        {
          "indexed": false,
          "internalType": "bool",
          "name": "approved",
          "type": "bool"
        }
      ],
      "name": "ApprovalForAll",
      "type": "event"
    },
    {
      "anonymous": false,
      "inputs": [
        {
          "indexed": true,
          "internalType": "uint256",
          "name": "tokenId",
          "type": "uint256"
        }
      ],
      "name": "ContractCancelled",
      "type": "event"
    },
    {
      "anonymous": false,
      "inputs": [
        {
          "indexed": true,
          "internalType": "uint256",
          "name": "tokenId",
          "type": "uint256"
        }
      ],
      "name": "ContractFinalized",
      "type": "event"
    },
    {
      "anonymous": false,
      "inputs": [
        {
          "indexed": true,
          "internalType": "uint256",
          "name": "tokenId",
          "type": "uint256"
        },
        {
          "indexed": false,
          "internalType": "address",
          "name": "worker",
          "type": "address"
        }
      ],
      "name": "ContractSigned",
      "type": "event"
    },
    {
      "anonymous": false,
      "inputs": [
        {
          "indexed": false,
          "internalType": "uint256",
          "name": "currentSalary",
          "type": "uint256"
        },
        {
          "indexed": false,
          "internalType": "uint256",
          "name": "newSalary",
          "type": "uint256"
        },
        {
          "indexed": false,
          "internalType": "uint256",
          "name": "salaryDifference",
          "type": "uint256"
        },
        {
          "indexed": false,
          "internalType": "uint256",
          "name": "msgValue",
          "type": "uint256"
        }
      ],
      "name": "Debug",
      "type": "event"
    },
    {
      "anonymous": false,
      "inputs": [
        {
          "indexed": true,
          "internalType": "uint256",
          "name": "tokenId",
          "type": "uint256"
        },
        {
          "indexed": false,
          "internalType": "uint256",
          "name": "salary",
          "type": "uint256"
        }
      ],
      "name": "SalaryReleased",
      "type": "event"
    },
    {
      "anonymous": false,
      "inputs": [
        {
          "indexed": false,
          "internalType": "uint256",
          "name": "tokenId",
          "type": "uint256"
        }
      ],
      "name": "TokenMinted",
      "type": "event"
    },
    {
      "anonymous": false,
      "inputs": [
        {
          "indexed": true,
          "internalType": "address",
          "name": "from",
          "type": "address"
        },
        {
          "indexed": true,
          "internalType": "address",
          "name": "to",
          "type": "address"
        },
        {
          "indexed": true,
          "internalType": "uint256",
          "name": "tokenId",
          "type": "uint256"
        }
      ],
      "name": "Transfer",
      "type": "event"
    },
    {
      "inputs": [
        {
          "internalType": "address",
          "name": "to",
          "type": "address"
        },
        {
          "internalType": "uint256",
          "name": "tokenId",
          "type": "uint256"
        }
      ],
      "name": "approve",
      "outputs": [],
      "stateMutability": "nonpayable",
      "type": "function"
    },
    {
      "inputs": [
        {
          "internalType": "address",
          "name": "owner",
          "type": "address"
        }
      ],
      "name": "balanceOf",
      "outputs": [
        {
          "internalType": "uint256",
          "name": "",
          "type": "uint256"
        }
      ],
      "stateMutability": "view",
      "type": "function",
      "constant": true
    },
    {
      "inputs": [
        {
          "internalType": "uint256",
          "name": "",
          "type": "uint256"
        }
      ],
      "name": "changeProposals",
      "outputs": [
        {
          "internalType": "string",
          "name": "newTitle",
          "type": "string"
        },
        {
          "internalType": "uint256",
          "name": "newSalary",
          "type": "uint256"
        },
        {
          "internalType": "uint256",
          "name": "newDuration",
          "type": "uint256"
        },
        {
          "internalType": "string",
          "name": "newDescription",
          "type": "string"
        },
        {
          "internalType": "bool",
          "name": "isPaused",
          "type": "bool"
        },
        {
          "internalType": "bool",
          "name": "isPending",
          "type": "bool"
        }
      ],
      "stateMutability": "view",
      "type": "function",
      "constant": true
    },
    {
      "inputs": [
        {
          "internalType": "uint256",
          "name": "",
          "type": "uint256"
        }
      ],
      "name": "contractDetails",
      "outputs": [
        {
          "internalType": "uint256",
          "name": "salary",
          "type": "uint256"
        },
        {
          "internalType": "uint256",
          "name": "startDate",
          "type": "uint256"
        },
        {
          "internalType": "uint256",
          "name": "duration",
          "type": "uint256"
        },
        {
          "internalType": "string",
          "name": "title",
          "type": "string"
        },
        {
          "internalType": "string",
          "name": "description",
          "type": "string"
        },
        {
          "internalType": "bool",
          "name": "isSigned",
          "type": "bool"
        },
        {
          "internalType": "address",
          "name": "worker",
          "type": "address"
        },
        {
          "internalType": "bool",
          "name": "isFinished",
          "type": "bool"
        },
        {
          "internalType": "bool",
          "name": "isReleased",
          "type": "bool"
        },
        {
          "internalType": "bool",
          "name": "isPaused",
          "type": "bool"
        },
        {
          "internalType": "uint256",
          "name": "pauseTime",
          "type": "uint256"
        },
        {
          "internalType": "uint256",
          "name": "pauseDuration",
          "type": "uint256"
        }
      ],
      "stateMutability": "view",
      "type": "function",
      "constant": true
    },
    {
      "inputs": [
        {
          "internalType": "uint256",
          "name": "tokenId",
          "type": "uint256"
        }
      ],
      "name": "getApproved",
      "outputs": [
        {
          "internalType": "address",
          "name": "",
          "type": "address"
        }
      ],
      "stateMutability": "view",
      "type": "function",
      "constant": true
    },
    {
      "inputs": [
        {
          "internalType": "address",
          "name": "owner",
          "type": "address"
        },
        {
          "internalType": "address",
          "name": "operator",
          "type": "address"
        }
      ],
      "name": "isApprovedForAll",
      "outputs": [
        {
          "internalType": "bool",
          "name": "",
          "type": "bool"
        }
      ],
      "stateMutability": "view",
      "type": "function",
      "constant": true
    },
    {
      "inputs": [],
      "name": "name",
      "outputs": [
        {
          "internalType": "string",
          "name": "",
          "type": "string"
        }
      ],
      "stateMutability": "view",
      "type": "function",
      "constant": true
    },
    {
      "inputs": [
        {
          "internalType": "uint256",
          "name": "tokenId",
          "type": "uint256"
        }
      ],
      "name": "ownerOf",
      "outputs": [
        {
          "internalType": "address",
          "name": "",
          "type": "address"
        }
      ],
      "stateMutability": "view",
      "type": "function",
      "constant": true
    },
    {
      "inputs": [
        {
          "internalType": "address",
          "name": "from",
          "type": "address"
        },
        {
          "internalType": "address",
          "name": "to",
          "type": "address"
        },
        {
          "internalType": "uint256",
          "name": "tokenId",
          "type": "uint256"
        }
      ],
      "name": "safeTransferFrom",
      "outputs": [],
      "stateMutability": "nonpayable",
      "type": "function"
    },
    {
      "inputs": [
        {
          "internalType": "address",
          "name": "from",
          "type": "address"
        },
        {
          "internalType": "address",
          "name": "to",
          "type": "address"
        },
        {
          "internalType": "uint256",
          "name": "tokenId",
          "type": "uint256"
        },
        {
          "internalType": "bytes",
          "name": "data",
          "type": "bytes"
        }
      ],
      "name": "safeTransferFrom",
      "outputs": [],
      "stateMutability": "nonpayable",
      "type": "function"
    },
    {
      "inputs": [
        {
          "internalType": "address",
          "name": "operator",
          "type": "address"
        },
        {
          "internalType": "bool",
          "name": "approved",
          "type": "bool"
        }
      ],
      "name": "setApprovalForAll",
      "outputs": [],
      "stateMutability": "nonpayable",
      "type": "function"
    },
    {
      "inputs": [
        {
          "internalType": "bytes4",
          "name": "interfaceId",
          "type": "bytes4"
        }
      ],
      "name": "supportsInterface",
      "outputs": [
        {
          "internalType": "bool",
          "name": "",
          "type": "bool"
        }
      ],
      "stateMutability": "view",
      "type": "function",
      "constant": true
    },
    {
      "inputs": [],
      "name": "symbol",
      "outputs": [
        {
          "internalType": "string",
          "name": "",
          "type": "string"
        }
      ],
      "stateMutability": "view",
      "type": "function",
      "constant": true
    },
    {
      "inputs": [
        {
          "internalType": "uint256",
          "name": "",
          "type": "uint256"
        },
        {
          "internalType": "address",
          "name": "",
          "type": "address"
        }
      ],
      "name": "tokenManagers",
      "outputs": [
        {
          "internalType": "bool",
          "name": "",
          "type": "bool"
        }
      ],
      "stateMutability": "view",
      "type": "function",
      "constant": true
    },
    {
      "inputs": [
        {
          "internalType": "uint256",
          "name": "tokenId",
          "type": "uint256"
        }
      ],
      "name": "tokenURI",
      "outputs": [
        {
          "internalType": "string",
          "name": "",
          "type": "string"
        }
      ],
      "stateMutability": "view",
      "type": "function",
      "constant": true
    },
    {
      "inputs": [
        {
          "internalType": "address",
          "name": "from",
          "type": "address"
        },
        {
          "internalType": "address",
          "name": "to",
          "type": "address"
        },
        {
          "internalType": "uint256",
          "name": "tokenId",
          "type": "uint256"
        }
      ],
      "name": "transferFrom",
      "outputs": [],
      "stateMutability": "nonpayable",
      "type": "function"
    },
    {
      "inputs": [
        {
          "internalType": "address",
          "name": "_to",
          "type": "address"
        },
        {
          "internalType": "uint256",
          "name": "_salary",
          "type": "uint256"
        },
        {
          "internalType": "uint256",
          "name": "_duration",
          "type": "uint256"
        },
        {
          "internalType": "string",
          "name": "_description",
          "type": "string"
        },
        {
          "internalType": "string",
          "name": "_title",
          "type": "string"
        }
      ],
      "name": "mint",
      "outputs": [
        {
          "internalType": "uint256",
          "name": "",
          "type": "uint256"
        }
      ],
      "stateMutability": "payable",
      "type": "function",
      "payable": true
    },
    {
      "inputs": [
        {
          "internalType": "uint256",
          "name": "_tokenID",
          "type": "uint256"
        }
      ],
      "name": "signContract",
      "outputs": [],
      "stateMutability": "nonpayable",
      "type": "function"
    },
    {
      "inputs": [
        {
          "internalType": "uint256",
          "name": "_tokenID",
          "type": "uint256"
        }
      ],
      "name": "releaseSalary",
      "outputs": [],
      "stateMutability": "payable",
      "type": "function",
      "payable": true
    },
    {
      "inputs": [
        {
          "internalType": "uint256",
          "name": "_tokenID",
          "type": "uint256"
        }
      ],
      "name": "finalizeContract",
      "outputs": [],
      "stateMutability": "nonpayable",
      "type": "function"
    },
    {
      "inputs": [
        {
          "internalType": "uint256",
          "name": "_tokenID",
          "type": "uint256"
        }
      ],
      "name": "pauseContract",
      "outputs": [],
      "stateMutability": "nonpayable",
      "type": "function"
    },
    {
      "inputs": [
        {
          "internalType": "uint256",
          "name": "_tokenID",
          "type": "uint256"
        }
      ],
      "name": "unPauseContract",
      "outputs": [],
      "stateMutability": "nonpayable",
      "type": "function"
    },
    {
      "inputs": [
        {
          "internalType": "uint256",
          "name": "_tokenID",
          "type": "uint256"
        }
      ],
      "name": "cancelContract",
      "outputs": [],
      "stateMutability": "nonpayable",
      "type": "function"
    },
    {
      "inputs": [
        {
          "internalType": "uint256",
          "name": "_tokenId",
          "type": "uint256"
        },
        {
          "internalType": "address",
          "name": "_newManager",
          "type": "address"
        }
      ],
      "name": "assignManagerToToken",
      "outputs": [],
      "stateMutability": "nonpayable",
      "type": "function"
    },
    {
      "inputs": [
        {
          "internalType": "uint256",
          "name": "_tokenId",
          "type": "uint256"
        },
        {
          "internalType": "address",
          "name": "_manager",
          "type": "address"
        }
      ],
      "name": "revokeManagerFromToken",
      "outputs": [],
      "stateMutability": "nonpayable",
      "type": "function"
    },
    {
      "inputs": [
        {
          "internalType": "uint256",
          "name": "_tokenId",
          "type": "uint256"
        },
        {
          "internalType": "address",
          "name": "_manager",
          "type": "address"
        }
      ],
      "name": "isManagerOfToken",
      "outputs": [
        {
          "internalType": "bool",
          "name": "",
          "type": "bool"
        }
      ],
      "stateMutability": "view",
      "type": "function",
      "constant": true
    },
    {
      "inputs": [
        {
          "internalType": "uint256",
          "name": "_tokenID",
          "type": "uint256"
        },
        {
          "internalType": "string",
          "name": "_newTitle",
          "type": "string"
        },
        {
          "internalType": "uint256",
          "name": "_newSalary",
          "type": "uint256"
        },
        {
          "internalType": "uint256",
          "name": "_newDuration",
          "type": "uint256"
        },
        {
          "internalType": "string",
          "name": "_newDescription",
          "type": "string"
        },
        {
          "internalType": "bool",
          "name": "_isPaused",
          "type": "bool"
        }
      ],
      "name": "proposeChange",
      "outputs": [],
      "stateMutability": "payable",
      "type": "function",
      "payable": true
    },
    {
      "inputs": [
        {
          "internalType": "uint256",
          "name": "_tokenID",
          "type": "uint256"
        }
      ],
      "name": "rejectChange",
      "outputs": [],
      "stateMutability": "nonpayable",
      "type": "function"
    },
    {
      "inputs": [
        {
          "internalType": "uint256",
          "name": "_tokenID",
          "type": "uint256"
        }
      ],
      "name": "applyChange",
      "outputs": [],
      "stateMutability": "payable",
      "type": "function",
      "payable": true
    },
    {
      "inputs": [
        {
          "internalType": "address",
          "name": "_address",
          "type": "address"
        }
      ],
      "name": "getContractsFromOwner",
      "outputs": [
        {
          "internalType": "uint256[]",
          "name": "",
          "type": "uint256[]"
        }
      ],
      "stateMutability": "view",
      "type": "function",
      "constant": true
    },
    {
      "inputs": [
        {
          "internalType": "address",
          "name": "_address",
          "type": "address"
        }
      ],
      "name": "getContractsOfWorker",
      "outputs": [
        {
          "internalType": "uint256[]",
          "name": "",
          "type": "uint256[]"
        }
      ],
      "stateMutability": "view",
      "type": "function",
      "constant": true
    },
    {
      "inputs": [
        {
          "internalType": "uint256",
          "name": "_tokenID",
          "type": "uint256"
        }
      ],
      "name": "isContractFinished",
      "outputs": [
        {
          "internalType": "bool",
          "name": "",
          "type": "bool"
        }
      ],
      "stateMutability": "view",
      "type": "function",
      "constant": true
    },
    {
      "inputs": [
        {
          "internalType": "uint256",
          "name": "_tokenID",
          "type": "uint256"
        }
      ],
      "name": "isContractSigned",
      "outputs": [
        {
          "internalType": "bool",
          "name": "",
          "type": "bool"
        }
      ],
      "stateMutability": "view",
      "type": "function",
      "constant": true
    },
    {
      "inputs": [
        {
          "internalType": "uint256",
          "name": "_tokenID",
          "type": "uint256"
        }
      ],
      "name": "getOwnerOfContract",
      "outputs": [
        {
          "internalType": "address",
          "name": "",
          "type": "address"
        }
      ],
      "stateMutability": "view",
      "type": "function",
      "constant": true
    }
  ],
  "bytecode": "0x608060405234801562000010575f80fd5b506040518060400160405280600781526020017f4d79546f6b656e000000000000000000000000000000000000000000000000008152506040518060400160405280600381526020017f4d544b0000000000000000000000000000000000000000000000000000000000815250815f90816200008d91906200030c565b5080600190816200009f91906200030c565b505050620003f0565b5f81519050919050565b7f4e487b71000000000000000000000000000000000000000000000000000000005f52604160045260245ffd5b7f4e487b71000000000000000000000000000000000000000000000000000000005f52602260045260245ffd5b5f60028204905060018216806200012457607f821691505b6020821081036200013a5762000139620000df565b5b50919050565b5f819050815f5260205f209050919050565b5f6020601f8301049050919050565b5f82821b905092915050565b5f600883026200019e7fffffffffffffffffffffffffffffffffffffffffffffffffffffffffffffffff8262000161565b620001aa868362000161565b95508019841693508086168417925050509392505050565b5f819050919050565b5f819050919050565b5f620001f4620001ee620001e884620001c2565b620001cb565b620001c2565b9050919050565b5f819050919050565b6200020f83620001d4565b620002276200021e82620001fb565b8484546200016d565b825550505050565b5f90565b6200023d6200022f565b6200024a81848462000204565b505050565b5b818110156200027157620002655f8262000233565b60018101905062000250565b5050565b601f821115620002c0576200028a8162000140565b620002958462000152565b81016020851015620002a5578190505b620002bd620002b48562000152565b8301826200024f565b50505b505050565b5f82821c905092915050565b5f620002e25f1984600802620002c5565b1980831691505092915050565b5f620002fc8383620002d1565b9150826002028217905092915050565b6200031782620000a8565b67ffffffffffffffff811115620003335762000332620000b2565b5b6200033f82546200010c565b6200034c82828562000275565b5f60209050601f83116001811462000382575f84156200036d578287015190505b620003798582620002ef565b865550620003e8565b601f198416620003928662000140565b5f5b82811015620003bb5784890151825560018201915060208501945060208101905062000394565b86831015620003db5784890151620003d7601f891682620002d1565b8355505b6001600288020188555050505b505050505050565b615c3a80620003fe5f395ff3fe6080604052600436106101f8575f3560e01c80636352211e1161010c578063a22cb4651161009f578063c87b56dd1161006e578063c87b56dd1461075f578063d053b4511461079b578063e2c07c7b146107d7578063e985e9c5146107f3578063fc5a4efe1461082f576101f8565b8063a22cb465146106ab578063b88d4fde146106d3578063bce87156146106fb578063c2852f3814610737576101f8565b806390d16ce4116100db57806390d16ce4146105e157806393a43c191461061d5780639537e8d11461065957806395d89b4114610681576101f8565b80636352211e146105115780636d0136181461054d57806370a082311461057d57806389b83d3e146105b9576101f8565b8063280474501161018f5780633330a55f1161015e5780633330a55f14610442578063409283d01461048957806342842e0e146104a55780634ec3e2aa146104cd5780634f73d79d146104f5576101f8565b8063280474501461037a5780632907eb16146103a2578063294a7931146103ca57806331432e4514610406576101f8565b8063095ea7b3116101cb578063095ea7b3146102c65780632355e217146102ee57806323b872dd1461031657806323e0f2371461033e576101f8565b806301ffc9a7146101fc578063045b6a4e1461023857806306fdde0314610260578063081812fc1461028a575b5f80fd5b348015610207575f80fd5b50610222600480360381019061021d91906142b8565b610870565b60405161022f91906142fd565b60405180910390f35b348015610243575f80fd5b5061025e600480360381019061025991906143a3565b610951565b005b34801561026b575f80fd5b50610274610a50565b604051610281919061446b565b60405180910390f35b348015610295575f80fd5b506102b060048036038101906102ab919061448b565b610adf565b6040516102bd91906144c5565b60405180910390f35b3480156102d1575f80fd5b506102ec60048036038101906102e791906144de565b610afa565b005b3480156102f9575f80fd5b50610314600480360381019061030f91906143a3565b610b10565b005b348015610321575f80fd5b5061033c6004803603810190610337919061451c565b610c73565b005b348015610349575f80fd5b50610364600480360381019061035f919061448b565b610d72565b60405161037191906144c5565b60405180910390f35b348015610385575f80fd5b506103a0600480360381019061039b919061448b565b610d83565b005b3480156103ad575f80fd5b506103c860048036038101906103c3919061448b565b610fda565b005b3480156103d5575f80fd5b506103f060048036038101906103eb91906143a3565b61129e565b6040516103fd91906142fd565b60405180910390f35b348015610411575f80fd5b5061042c600480360381019061042791906143a3565b6112c8565b60405161043991906142fd565b60405180910390f35b34801561044d575f80fd5b506104686004803603810190610463919061448b565b61132a565b6040516104809c9b9a9998979695949392919061457b565b60405180910390f35b6104a3600480360381019061049e919061448b565b6114e5565b005b3480156104b0575f80fd5b506104cb60048036038101906104c6919061451c565b611873565b005b3480156104d8575f80fd5b506104f360048036038101906104ee919061448b565b611892565b005b61050f600480360381019061050a9190614797565b611b49565b005b34801561051c575f80fd5b506105376004803603810190610532919061448b565b611ce5565b60405161054491906144c5565b60405180910390f35b61056760048036038101906105629190614858565b611cf6565b6040516105749190614907565b60405180910390f35b348015610588575f80fd5b506105a3600480360381019061059e9190614920565b61207b565b6040516105b09190614907565b60405180910390f35b3480156105c4575f80fd5b506105df60048036038101906105da919061448b565b612131565b005b3480156105ec575f80fd5b5061060760048036038101906106029190614920565b6123b1565b6040516106149190614a02565b60405180910390f35b348015610628575f80fd5b50610643600480360381019061063e919061448b565b612444565b60405161065091906142fd565b60405180910390f35b348015610664575f80fd5b5061067f600480360381019061067a919061448b565b61246d565b005b34801561068c575f80fd5b50610695612891565b6040516106a2919061446b565b60405180910390f35b3480156106b6575f80fd5b506106d160048036038101906106cc9190614a22565b612921565b005b3480156106de575f80fd5b506106f960048036038101906106f49190614afe565b612937565b005b348015610706575f80fd5b50610721600480360381019061071c919061448b565b612954565b60405161072e91906142fd565b60405180910390f35b348015610742575f80fd5b5061075d6004803603810190610758919061448b565b6129d8565b005b34801561076a575f80fd5b506107856004803603810190610780919061448b565b612be4565b604051610792919061446b565b60405180910390f35b3480156107a6575f80fd5b506107c160048036038101906107bc9190614920565b612c4a565b6040516107ce9190614a02565b60405180910390f35b6107f160048036038101906107ec919061448b565b612cdd565b005b3480156107fe575f80fd5b5061081960048036038101906108149190614b7e565b6130a9565b60405161082691906142fd565b60405180910390f35b34801561083a575f80fd5b506108556004803603810190610850919061448b565b613137565b60405161086796959493929190614bbc565b60405180910390f35b5f7f80ac58cd000000000000000000000000000000000000000000000000000000007bffffffffffffffffffffffffffffffffffffffffffffffffffffffff1916827bffffffffffffffffffffffffffffffffffffffffffffffffffffffff1916148061093a57507f5b5e139f000000000000000000000000000000000000000000000000000000007bffffffffffffffffffffffffffffffffffffffffffffffffffffffff1916827bffffffffffffffffffffffffffffffffffffffffffffffffffffffff1916145b8061094a575061094982613294565b5b9050919050565b60075f8381526020019081526020015f205f3373ffffffffffffffffffffffffffffffffffffffff1673ffffffffffffffffffffffffffffffffffffffff1681526020019081526020015f205f9054906101000a900460ff166109e9576040517f08c379a00000000000000000000000000000000000000000000000000000000081526004016109e090614c99565b60405180910390fd5b5f60075f8481526020019081526020015f205f8373ffffffffffffffffffffffffffffffffffffffff1673ffffffffffffffffffffffffffffffffffffffff1681526020019081526020015f205f6101000a81548160ff0219169083151502179055505050565b60605f8054610a5e90614ce4565b80601f0160208091040260200160405190810160405280929190818152602001828054610a8a90614ce4565b8015610ad55780601f10610aac57610100808354040283529160200191610ad5565b820191905f5260205f20905b815481529060010190602001808311610ab857829003601f168201915b5050505050905090565b5f610ae9826132fd565b50610af382613383565b9050919050565b610b0c8282610b076133bc565b6133c3565b5050565b60075f8381526020019081526020015f205f3373ffffffffffffffffffffffffffffffffffffffff1673ffffffffffffffffffffffffffffffffffffffff1681526020019081526020015f205f9054906101000a900460ff16610ba8576040517f08c379a0000000000000000000000000000000000000000000000000000000008152600401610b9f90614d84565b60405180910390fd5b600160075f8481526020019081526020015f205f8373ffffffffffffffffffffffffffffffffffffffff1673ffffffffffffffffffffffffffffffffffffffff1681526020019081526020015f205f6101000a81548160ff02191690831515021790555060095f8273ffffffffffffffffffffffffffffffffffffffff1673ffffffffffffffffffffffffffffffffffffffff1681526020019081526020015f20600654908060018154018082558091505060019003905f5260205f20015f90919091909150555050565b5f73ffffffffffffffffffffffffffffffffffffffff168273ffffffffffffffffffffffffffffffffffffffff1603610ce3575f6040517f64a0ae92000000000000000000000000000000000000000000000000000000008152600401610cda91906144c5565b60405180910390fd5b5f610cf68383610cf16133bc565b6133d5565b90508373ffffffffffffffffffffffffffffffffffffffff168173ffffffffffffffffffffffffffffffffffffffff1614610d6c578382826040517f64283d7b000000000000000000000000000000000000000000000000000000008152600401610d6393929190614da2565b60405180910390fd5b50505050565b5f610d7c82611ce5565b9050919050565b3073ffffffffffffffffffffffffffffffffffffffff16636352211e826040518263ffffffff1660e01b8152600401610dbc9190614907565b602060405180830381865afa925050508015610df657506040513d601f19601f82011682018060405250810190610df39190614deb565b60015b610e35576040517f08c379a0000000000000000000000000000000000000000000000000000000008152600401610e2c90614e60565b60405180910390fd5b506001151560075f8381526020019081526020015f205f3373ffffffffffffffffffffffffffffffffffffffff1673ffffffffffffffffffffffffffffffffffffffff1681526020019081526020015f205f9054906101000a900460ff16151514610ed5576040517f08c379a0000000000000000000000000000000000000000000000000000000008152600401610ecc90614eee565b60405180910390fd5b60085f8281526020019081526020015f206005015f9054906101000a900460ff1615610f36576040517f08c379a0000000000000000000000000000000000000000000000000000000008152600401610f2d90614f56565b60405180910390fd5b5f3390505f60085f8481526020019081526020015f205f015490508173ffffffffffffffffffffffffffffffffffffffff166108fc8290811502906040515f60405180830381858888f19350505050158015610f94573d5f803e3d5ffd5b50610f9e836135e0565b610fa88333613662565b827f2d5f5ed000d42aa6f6fc13400f7d7161cd1bea793fec354b11e3451f9f2b07c360405160405180910390a2505050565b3073ffffffffffffffffffffffffffffffffffffffff16636352211e826040518263ffffffff1660e01b81526004016110139190614907565b602060405180830381865afa92505050801561104d57506040513d601f19601f8201168201806040525081019061104a9190614deb565b60015b61108c576040517f08c379a000000000000000000000000000000000000000000000000000000000815260040161108390614e60565b60405180910390fd5b506001151560075f8381526020019081526020015f205f3373ffffffffffffffffffffffffffffffffffffffff1673ffffffffffffffffffffffffffffffffffffffff1681526020019081526020015f205f9054906101000a900460ff1615151461112c576040517f08c379a000000000000000000000000000000000000000000000000000000000815260040161112390614fe4565b60405180910390fd5b60085f8281526020019081526020015f206005015f9054906101000a900460ff1661118c576040517f08c379a00000000000000000000000000000000000000000000000000000000081526004016111839061504c565b60405180910390fd5b5f151560085f8381526020019081526020015f2060050160159054906101000a900460ff161515146111f3576040517f08c379a00000000000000000000000000000000000000000000000000000000081526004016111ea906150b4565b60405180910390fd5b5f15156111ff82612954565b151514611241576040517f08c379a00000000000000000000000000000000000000000000000000000000081526004016112389061511c565b60405180910390fd5b600160085f8381526020019081526020015f2060050160156101000a81548160ff021916908315150217905550807fc54419e57952d1437d40dd5b59e2a646b3b90caf014c939e27c87ea597a3ace560405160405180910390a250565b6007602052815f5260405f20602052805f5260405f205f915091509054906101000a900460ff1681565b5f60075f8481526020019081526020015f205f8373ffffffffffffffffffffffffffffffffffffffff1673ffffffffffffffffffffffffffffffffffffffff1681526020019081526020015f205f9054906101000a900460ff16905092915050565b6008602052805f5260405f205f91509050805f01549080600101549080600201549080600301805461135b90614ce4565b80601f016020809104026020016040519081016040528092919081815260200182805461138790614ce4565b80156113d25780601f106113a9576101008083540402835291602001916113d2565b820191905f5260205f20905b8154815290600101906020018083116113b557829003601f168201915b5050505050908060040180546113e790614ce4565b80601f016020809104026020016040519081016040528092919081815260200182805461141390614ce4565b801561145e5780601f106114355761010080835404028352916020019161145e565b820191905f5260205f20905b81548152906001019060200180831161144157829003601f168201915b505050505090806005015f9054906101000a900460ff16908060050160019054906101000a900473ffffffffffffffffffffffffffffffffffffffff16908060050160159054906101000a900460ff16908060050160169054906101000a900460ff16908060050160179054906101000a900460ff1690806006015490806007015490508c565b60011515600b5f8381526020019081526020015f2060040160019054906101000a900460ff1615151461154d576040517f08c379a000000000000000000000000000000000000000000000000000000000815260040161154490615184565b60405180910390fd5b5f600b5f8381526020019081526020015f206040518060c00160405290815f8201805461157990614ce4565b80601f01602080910402602001604051908101604052809291908181526020018280546115a590614ce4565b80156115f05780601f106115c7576101008083540402835291602001916115f0565b820191905f5260205f20905b8154815290600101906020018083116115d357829003601f168201915b50505050508152602001600182015481526020016002820154815260200160038201805461161d90614ce4565b80601f016020809104026020016040519081016040528092919081815260200182805461164990614ce4565b80156116945780601f1061166b57610100808354040283529160200191611694565b820191905f5260205f20905b81548152906001019060200180831161167757829003601f168201915b50505050508152602001600482015f9054906101000a900460ff161515151581526020016004820160019054906101000a900460ff161515151581525050905060085f8381526020019081526020015f205f01548160200151101561176c575f816020015160085f8581526020019081526020015f205f015461171791906151cf565b90505f61172384611ce5565b90508073ffffffffffffffffffffffffffffffffffffffff166108fc8390811502906040515f60405180830381858888f19350505050158015611768573d5f803e3d5ffd5b5050505b805f015160085f8481526020019081526020015f206003019081611790919061539f565b50806020015160085f8481526020019081526020015f205f0181905550806040015160085f8481526020019081526020015f2060020181905550806060015160085f8481526020019081526020015f2060040190816117ef919061539f565b5060085f8381526020019081526020015f2060050160179054906101000a900460ff16151581608001511515146118435780608001511561183857611833826129d8565b611842565b61184182612131565b5b5b5f600b5f8481526020019081526020015f2060040160016101000a81548160ff0219169083151502179055505050565b61188d83838360405180602001604052805f815250612937565b505050565b60011515600b5f8381526020019081526020015f2060040160019054906101000a900460ff161515146118fa576040517f08c379a00000000000000000000000000000000000000000000000000000000081526004016118f190615184565b60405180910390fd5b5f600b5f8381526020019081526020015f206040518060c00160405290815f8201805461192690614ce4565b80601f016020809104026020016040519081016040528092919081815260200182805461195290614ce4565b801561199d5780601f106119745761010080835404028352916020019161199d565b820191905f5260205f20905b81548152906001019060200180831161198057829003601f168201915b5050505050815260200160018201548152602001600282015481526020016003820180546119ca90614ce4565b80601f01602080910402602001604051908101604052809291908181526020018280546119f690614ce4565b8015611a415780601f10611a1857610100808354040283529160200191611a41565b820191905f5260205f20905b815481529060010190602001808311611a2457829003601f168201915b50505050508152602001600482015f9054906101000a900460ff161515151581526020016004820160019054906101000a900460ff161515151581525050905060085f8381526020019081526020015f205f015481602001511115611b19575f60085f8481526020019081526020015f205f01548260200151611ac491906151cf565b90505f611ad084611ce5565b90508073ffffffffffffffffffffffffffffffffffffffff166108fc8390811502906040515f60405180830381858888f19350505050158015611b15573d5f803e3d5ffd5b5050505b5f600b5f8481526020019081526020015f2060040160016101000a81548160ff0219169083151502179055505050565b5f60085f8881526020019081526020015f205f0154905080851115611c19575f8186611b7591906151cf565b905080341015611bba576040517f08c379a0000000000000000000000000000000000000000000000000000000008152600401611bb1906154de565b60405180910390fd5b5f8134611bc791906151cf565b90505f811115611c16573373ffffffffffffffffffffffffffffffffffffffff166108fc8290811502906040515f60405180830381858888f19350505050158015611c14573d5f803e3d5ffd5b505b50505b6040518060c00160405280878152602001868152602001858152602001848152602001831515815260200160011515815250600b5f8981526020019081526020015f205f820151815f019081611c6f919061539f565b5060208201518160010155604082015181600201556060820151816003019081611c99919061539f565b506080820151816004015f6101000a81548160ff02191690831515021790555060a08201518160040160016101000a81548160ff02191690831515021790555090505050505050505050565b5f611cef826132fd565b9050919050565b5f84341015611d3a576040517f08c379a0000000000000000000000000000000000000000000000000000000008152600401611d319061556c565b60405180910390fd5b60065f815480929190611d4c9061558a565b9190505550611d5d33600654613898565b5f8534611d6a91906151cf565b90505f811115611db9573373ffffffffffffffffffffffffffffffffffffffff166108fc8290811502906040515f60405180830381858888f19350505050158015611db7573d5f803e3d5ffd5b505b5f6040518061018001604052808881526020014281526020018781526020018581526020018681526020015f151581526020018973ffffffffffffffffffffffffffffffffffffffff1681526020015f151581526020015f151581526020015f151581526020015f81526020015f81525090508060085f60065481526020019081526020015f205f820151815f015560208201518160010155604082015181600201556060820151816003019081611e71919061539f565b506080820151816004019081611e87919061539f565b5060a0820151816005015f6101000a81548160ff02191690831515021790555060c08201518160050160016101000a81548173ffffffffffffffffffffffffffffffffffffffff021916908373ffffffffffffffffffffffffffffffffffffffff16021790555060e08201518160050160156101000a81548160ff0219169083151502179055506101008201518160050160166101000a81548160ff0219169083151502179055506101208201518160050160176101000a81548160ff02191690831515021790555061014082015181600601556101608201518160070155905050600160075f60065481526020019081526020015f205f3373ffffffffffffffffffffffffffffffffffffffff1673ffffffffffffffffffffffffffffffffffffffff1681526020019081526020015f205f6101000a81548160ff02191690831515021790555060095f3373ffffffffffffffffffffffffffffffffffffffff1673ffffffffffffffffffffffffffffffffffffffff1681526020019081526020015f20600654908060018154018082558091505060019003905f5260205f20015f90919091909150557ff00d28232b285f24f2e38415deb2ceb31069e70d4505838b3911b4f02058502e6006546040516120639190614907565b60405180910390a16006549250505095945050505050565b5f8073ffffffffffffffffffffffffffffffffffffffff168273ffffffffffffffffffffffffffffffffffffffff16036120ec575f6040517f89c62b640000000000000000000000000000000000000000000000000000000081526004016120e391906144c5565b60405180910390fd5b60035f8373ffffffffffffffffffffffffffffffffffffffff1673ffffffffffffffffffffffffffffffffffffffff1681526020019081526020015f20549050919050565b3073ffffffffffffffffffffffffffffffffffffffff16636352211e826040518263ffffffff1660e01b815260040161216a9190614907565b602060405180830381865afa9250505080156121a457506040513d601f19601f820116820180604052508101906121a19190614deb565b60015b6121e3576040517f08c379a00000000000000000000000000000000000000000000000000000000081526004016121da90614e60565b60405180910390fd5b5060085f8281526020019081526020015f206005015f9054906101000a900460ff16612244576040517f08c379a000000000000000000000000000000000000000000000000000000000815260040161223b9061504c565b60405180910390fd5b60085f8281526020019081526020015f2060050160179054906101000a900460ff166122a5576040517f08c379a000000000000000000000000000000000000000000000000000000000815260040161229c9061561b565b60405180910390fd5b5f15156122b182612954565b1515146122f3576040517f08c379a00000000000000000000000000000000000000000000000000000000081526004016122ea9061511c565b60405180910390fd5b60085f8281526020019081526020015f20600601544261231391906151cf565b60085f8381526020019081526020015f206007018190555060085f8281526020019081526020015f206007015460085f8381526020019081526020015f206002015f8282546123629190615639565b925050819055505f60085f8381526020019081526020015f20600601819055505f60085f8381526020019081526020015f2060050160176101000a81548160ff02191690831515021790555050565b606060095f8373ffffffffffffffffffffffffffffffffffffffff1673ffffffffffffffffffffffffffffffffffffffff1681526020019081526020015f2080548060200260200160405190810160405280929190818152602001828054801561243857602002820191905f5260205f20905b815481526020019060010190808311612424575b50505050509050919050565b5f60085f8381526020019081526020015f206005015f9054906101000a900460ff169050919050565b3073ffffffffffffffffffffffffffffffffffffffff16636352211e826040518263ffffffff1660e01b81526004016124a69190614907565b602060405180830381865afa9250505080156124e057506040513d601f19601f820116820180604052508101906124dd9190614deb565b60015b61251f576040517f08c379a000000000000000000000000000000000000000000000000000000000815260040161251690614e60565b60405180910390fd5b505f151560075f8381526020019081526020015f205f3373ffffffffffffffffffffffffffffffffffffffff1673ffffffffffffffffffffffffffffffffffffffff1681526020019081526020015f205f9054906101000a900460ff161515146125be576040517f08c379a00000000000000000000000000000000000000000000000000000000081526004016125b5906156dc565b60405180910390fd5b60085f8281526020019081526020015f2060050160019054906101000a900473ffffffffffffffffffffffffffffffffffffffff1673ffffffffffffffffffffffffffffffffffffffff163373ffffffffffffffffffffffffffffffffffffffff1614612660576040517f08c379a00000000000000000000000000000000000000000000000000000000081526004016126579061576a565b60405180910390fd5b60085f8281526020019081526020015f206005015f9054906101000a900460ff16156126c1576040517f08c379a00000000000000000000000000000000000000000000000000000000081526004016126b890614f56565b60405180910390fd5b5f151560085f8381526020019081526020015f2060050160159054906101000a900460ff16151514612728576040517f08c379a000000000000000000000000000000000000000000000000000000000815260040161271f906157d2565b60405180910390fd5b5f151561273482612954565b151514612776576040517f08c379a000000000000000000000000000000000000000000000000000000000815260040161276d9061511c565b60405180910390fd5b600160085f8381526020019081526020015f206005015f6101000a81548160ff0219169083151502179055503360085f8381526020019081526020015f2060050160016101000a81548173ffffffffffffffffffffffffffffffffffffffff021916908373ffffffffffffffffffffffffffffffffffffffff160217905550600a5f3373ffffffffffffffffffffffffffffffffffffffff1673ffffffffffffffffffffffffffffffffffffffff1681526020019081526020015f2081908060018154018082558091505060019003905f5260205f20015f9091909190915055807fcd3b1fcca80f9caae633c3e13546995d3810e561957af92839f070c46571942c3360405161288691906144c5565b60405180910390a250565b6060600180546128a090614ce4565b80601f01602080910402602001604051908101604052809291908181526020018280546128cc90614ce4565b80156129175780601f106128ee57610100808354040283529160200191612917565b820191905f5260205f20905b8154815290600101906020018083116128fa57829003601f168201915b5050505050905090565b61293361292c6133bc565b838361398b565b5050565b612942848484610c73565b61294e84848484613af4565b50505050565b5f6001151560085f8481526020019081526020015f2060050160159054906101000a900460ff1615150361298b57600190506129d3565b60085f8381526020019081526020015f206002015460085f8481526020019081526020015f20600101546129bf9190615639565b4211156129cf57600190506129d3565b5f90505b919050565b3073ffffffffffffffffffffffffffffffffffffffff16636352211e826040518263ffffffff1660e01b8152600401612a119190614907565b602060405180830381865afa925050508015612a4b57506040513d601f19601f82011682018060405250810190612a489190614deb565b60015b612a8a576040517f08c379a0000000000000000000000000000000000000000000000000000000008152600401612a8190614e60565b60405180910390fd5b5060085f8281526020019081526020015f206005015f9054906101000a900460ff16612aeb576040517f08c379a0000000000000000000000000000000000000000000000000000000008152600401612ae29061504c565b60405180910390fd5b5f1515612af782612954565b151514612b39576040517f08c379a0000000000000000000000000000000000000000000000000000000008152600401612b309061511c565b60405180910390fd5b60085f8281526020019081526020015f2060050160179054906101000a900460ff1615612b9b576040517f08c379a0000000000000000000000000000000000000000000000000000000008152600401612b929061583a565b60405180910390fd5b600160085f8381526020019081526020015f2060050160176101000a81548160ff0219169083151502179055504260085f8381526020019081526020015f206006018190555050565b6060612bef826132fd565b505f612bf9613ca6565b90505f815111612c175760405180602001604052805f815250612c42565b80612c2184613cbc565b604051602001612c32929190615892565b6040516020818303038152906040525b915050919050565b6060600a5f8373ffffffffffffffffffffffffffffffffffffffff1673ffffffffffffffffffffffffffffffffffffffff1681526020019081526020015f20805480602002602001604051908101604052809291908181526020018280548015612cd157602002820191905f5260205f20905b815481526020019060010190808311612cbd575b50505050509050919050565b3073ffffffffffffffffffffffffffffffffffffffff16636352211e826040518263ffffffff1660e01b8152600401612d169190614907565b602060405180830381865afa925050508015612d5057506040513d601f19601f82011682018060405250810190612d4d9190614deb565b60015b612d8f576040517f08c379a0000000000000000000000000000000000000000000000000000000008152600401612d8690614e60565b60405180910390fd5b5060085f8281526020019081526020015f206005015f9054906101000a900460ff16612df0576040517f08c379a0000000000000000000000000000000000000000000000000000000008152600401612de79061504c565b60405180910390fd5b5f151560085f8381526020019081526020015f2060050160169054906101000a900460ff16151514612e57576040517f08c379a0000000000000000000000000000000000000000000000000000000008152600401612e4e906158ff565b60405180910390fd5b6001151560075f8381526020019081526020015f205f3373ffffffffffffffffffffffffffffffffffffffff1673ffffffffffffffffffffffffffffffffffffffff1681526020019081526020015f205f9054906101000a900460ff16151514612ef6576040517f08c379a0000000000000000000000000000000000000000000000000000000008152600401612eed9061598d565b60405180910390fd5b60011515612f0382612954565b151514612f45576040517f08c379a0000000000000000000000000000000000000000000000000000000008152600401612f3c906159f5565b60405180910390fd5b5f151560085f8381526020019081526020015f2060050160179054906101000a900460ff16151514612fac576040517f08c379a0000000000000000000000000000000000000000000000000000000008152600401612fa390615a5d565b60405180910390fd5b5f60085f8381526020019081526020015f2060050160019054906101000a900473ffffffffffffffffffffffffffffffffffffffff1690505f60085f8481526020019081526020015f205f015490508173ffffffffffffffffffffffffffffffffffffffff166108fc8290811502906040515f60405180830381858888f1935050505015801561303e573d5f803e3d5ffd5b50600160085f8581526020019081526020015f2060050160166101000a81548160ff021916908315150217905550827f2b52860c5e15aa76ac91d132433549dfe5214c66e36bdb998622ab221c7477c08260405161309c9190614907565b60405180910390a2505050565b5f60055f8473ffffffffffffffffffffffffffffffffffffffff1673ffffffffffffffffffffffffffffffffffffffff1681526020019081526020015f205f8373ffffffffffffffffffffffffffffffffffffffff1673ffffffffffffffffffffffffffffffffffffffff1681526020019081526020015f205f9054906101000a900460ff16905092915050565b600b602052805f5260405f205f91509050805f01805461315690614ce4565b80601f016020809104026020016040519081016040528092919081815260200182805461318290614ce4565b80156131cd5780601f106131a4576101008083540402835291602001916131cd565b820191905f5260205f20905b8154815290600101906020018083116131b057829003601f168201915b5050505050908060010154908060020154908060030180546131ee90614ce4565b80601f016020809104026020016040519081016040528092919081815260200182805461321a90614ce4565b80156132655780601f1061323c57610100808354040283529160200191613265565b820191905f5260205f20905b81548152906001019060200180831161324857829003601f168201915b505050505090806004015f9054906101000a900460ff16908060040160019054906101000a900460ff16905086565b5f7f01ffc9a7000000000000000000000000000000000000000000000000000000007bffffffffffffffffffffffffffffffffffffffffffffffffffffffff1916827bffffffffffffffffffffffffffffffffffffffffffffffffffffffff1916149050919050565b5f8061330883613d86565b90505f73ffffffffffffffffffffffffffffffffffffffff168173ffffffffffffffffffffffffffffffffffffffff160361337a57826040517f7e2732890000000000000000000000000000000000000000000000000000000081526004016133719190614907565b60405180910390fd5b80915050919050565b5f60045f8381526020019081526020015f205f9054906101000a900473ffffffffffffffffffffffffffffffffffffffff169050919050565b5f33905090565b6133d08383836001613dbf565b505050565b5f806133e084613d86565b90505f73ffffffffffffffffffffffffffffffffffffffff168373ffffffffffffffffffffffffffffffffffffffff161461342157613420818486613f7e565b5b5f73ffffffffffffffffffffffffffffffffffffffff168173ffffffffffffffffffffffffffffffffffffffff16146134ac576134605f855f80613dbf565b600160035f8373ffffffffffffffffffffffffffffffffffffffff1673ffffffffffffffffffffffffffffffffffffffff1681526020019081526020015f205f82825403925050819055505b5f73ffffffffffffffffffffffffffffffffffffffff168573ffffffffffffffffffffffffffffffffffffffff161461352b57600160035f8773ffffffffffffffffffffffffffffffffffffffff1673ffffffffffffffffffffffffffffffffffffffff1681526020019081526020015f205f82825401925050819055505b8460025f8681526020019081526020015f205f6101000a81548173ffffffffffffffffffffffffffffffffffffffff021916908373ffffffffffffffffffffffffffffffffffffffff160217905550838573ffffffffffffffffffffffffffffffffffffffff168273ffffffffffffffffffffffffffffffffffffffff167fddf252ad1be2c89b69c2b068fc378daa952ba7f163c4a11628f55a4df523b3ef60405160405180910390a4809150509392505050565b5f6135ec5f835f6133d5565b90505f73ffffffffffffffffffffffffffffffffffffffff168173ffffffffffffffffffffffffffffffffffffffff160361365e57816040517f7e2732890000000000000000000000000000000000000000000000000000000081526004016136559190614907565b60405180910390fd5b5050565b5f80600160095f8573ffffffffffffffffffffffffffffffffffffffff1673ffffffffffffffffffffffffffffffffffffffff1681526020019081526020015f20805490506136b191906151cf565b90505f5b60095f8573ffffffffffffffffffffffffffffffffffffffff1673ffffffffffffffffffffffffffffffffffffffff1681526020019081526020015f2080549050811015613776578460095f8673ffffffffffffffffffffffffffffffffffffffff1673ffffffffffffffffffffffffffffffffffffffff1681526020019081526020015f20828154811061374d5761374c615a7b565b5b905f5260205f2001540361376357809250613776565b808061376e9061558a565b9150506136b5565b508082146138325760095f8473ffffffffffffffffffffffffffffffffffffffff1673ffffffffffffffffffffffffffffffffffffffff1681526020019081526020015f2081815481106137cd576137cc615a7b565b5b905f5260205f20015460095f8573ffffffffffffffffffffffffffffffffffffffff1673ffffffffffffffffffffffffffffffffffffffff1681526020019081526020015f20838154811061382557613824615a7b565b5b905f5260205f2001819055505b60095f8473ffffffffffffffffffffffffffffffffffffffff1673ffffffffffffffffffffffffffffffffffffffff1681526020019081526020015f2080548061387f5761387e615aa8565b5b600190038181905f5260205f20015f9055905550505050565b5f73ffffffffffffffffffffffffffffffffffffffff168273ffffffffffffffffffffffffffffffffffffffff1603613908575f6040517f64a0ae920000000000000000000000000000000000000000000000000000000081526004016138ff91906144c5565b60405180910390fd5b5f61391483835f6133d5565b90505f73ffffffffffffffffffffffffffffffffffffffff168173ffffffffffffffffffffffffffffffffffffffff1614613986575f6040517f73c6ac6e00000000000000000000000000000000000000000000000000000000815260040161397d91906144c5565b60405180910390fd5b505050565b5f73ffffffffffffffffffffffffffffffffffffffff168273ffffffffffffffffffffffffffffffffffffffff16036139fb57816040517f5b08ba180000000000000000000000000000000000000000000000000000000081526004016139f291906144c5565b60405180910390fd5b8060055f8573ffffffffffffffffffffffffffffffffffffffff1673ffffffffffffffffffffffffffffffffffffffff1681526020019081526020015f205f8473ffffffffffffffffffffffffffffffffffffffff1673ffffffffffffffffffffffffffffffffffffffff1681526020019081526020015f205f6101000a81548160ff0219169083151502179055508173ffffffffffffffffffffffffffffffffffffffff168373ffffffffffffffffffffffffffffffffffffffff167f17307eab39ab6107e8899845ad3d59bd9653f200f220920489ca2b5937696c3183604051613ae791906142fd565b60405180910390a3505050565b5f8373ffffffffffffffffffffffffffffffffffffffff163b1115613ca0578273ffffffffffffffffffffffffffffffffffffffff1663150b7a02613b376133bc565b8685856040518563ffffffff1660e01b8152600401613b599493929190615b27565b6020604051808303815f875af1925050508015613b9457506040513d601f19601f82011682018060405250810190613b919190615b85565b60015b613c15573d805f8114613bc2576040519150601f19603f3d011682016040523d82523d5f602084013e613bc7565b606091505b505f815103613c0d57836040517f64a0ae92000000000000000000000000000000000000000000000000000000008152600401613c0491906144c5565b60405180910390fd5b805181602001fd5b63150b7a0260e01b7bffffffffffffffffffffffffffffffffffffffffffffffffffffffff1916817bffffffffffffffffffffffffffffffffffffffffffffffffffffffff191614613c9e57836040517f64a0ae92000000000000000000000000000000000000000000000000000000008152600401613c9591906144c5565b60405180910390fd5b505b50505050565b606060405180602001604052805f815250905090565b60605f6001613cca84614041565b0190505f8167ffffffffffffffff811115613ce857613ce7614649565b5b6040519080825280601f01601f191660200182016040528015613d1a5781602001600182028036833780820191505090505b5090505f82602001820190505b600115613d7b578080600190039150507f3031323334353637383961626364656600000000000000000000000000000000600a86061a8153600a8581613d7057613d6f615bb0565b5b0494505f8503613d27575b819350505050919050565b5f60025f8381526020019081526020015f205f9054906101000a900473ffffffffffffffffffffffffffffffffffffffff169050919050565b8080613df757505f73ffffffffffffffffffffffffffffffffffffffff168273ffffffffffffffffffffffffffffffffffffffff1614155b15613f29575f613e06846132fd565b90505f73ffffffffffffffffffffffffffffffffffffffff168373ffffffffffffffffffffffffffffffffffffffff1614158015613e7057508273ffffffffffffffffffffffffffffffffffffffff168173ffffffffffffffffffffffffffffffffffffffff1614155b8015613e835750613e8181846130a9565b155b15613ec557826040517fa9fbf51f000000000000000000000000000000000000000000000000000000008152600401613ebc91906144c5565b60405180910390fd5b8115613f2757838573ffffffffffffffffffffffffffffffffffffffff168273ffffffffffffffffffffffffffffffffffffffff167f8c5be1e5ebec7d5bd14f71427d1e84f3dd0314c0f7b2291e5b200ac8c7c3b92560405160405180910390a45b505b8360045f8581526020019081526020015f205f6101000a81548173ffffffffffffffffffffffffffffffffffffffff021916908373ffffffffffffffffffffffffffffffffffffffff16021790555050505050565b613f89838383614192565b61403c575f73ffffffffffffffffffffffffffffffffffffffff168373ffffffffffffffffffffffffffffffffffffffff1603613ffd57806040517f7e273289000000000000000000000000000000000000000000000000000000008152600401613ff49190614907565b60405180910390fd5b81816040517f177e802f000000000000000000000000000000000000000000000000000000008152600401614033929190615bdd565b60405180910390fd5b505050565b5f805f90507a184f03e93ff9f4daa797ed6e38ed64bf6a1f010000000000000000831061409d577a184f03e93ff9f4daa797ed6e38ed64bf6a1f010000000000000000838161409357614092615bb0565b5b0492506040810190505b6d04ee2d6d415b85acef810000000083106140da576d04ee2d6d415b85acef810000000083816140d0576140cf615bb0565b5b0492506020810190505b662386f26fc10000831061410957662386f26fc1000083816140ff576140fe615bb0565b5b0492506010810190505b6305f5e1008310614132576305f5e100838161412857614127615bb0565b5b0492506008810190505b612710831061415757612710838161414d5761414c615bb0565b5b0492506004810190505b6064831061417a57606483816141705761416f615bb0565b5b0492506002810190505b600a8310614189576001810190505b80915050919050565b5f8073ffffffffffffffffffffffffffffffffffffffff168373ffffffffffffffffffffffffffffffffffffffff161415801561424957508273ffffffffffffffffffffffffffffffffffffffff168473ffffffffffffffffffffffffffffffffffffffff16148061420a575061420984846130a9565b5b8061424857508273ffffffffffffffffffffffffffffffffffffffff1661423083613383565b73ffffffffffffffffffffffffffffffffffffffff16145b5b90509392505050565b5f604051905090565b5f80fd5b5f80fd5b5f7fffffffff0000000000000000000000000000000000000000000000000000000082169050919050565b61429781614263565b81146142a1575f80fd5b50565b5f813590506142b28161428e565b92915050565b5f602082840312156142cd576142cc61425b565b5b5f6142da848285016142a4565b91505092915050565b5f8115159050919050565b6142f7816142e3565b82525050565b5f6020820190506143105f8301846142ee565b92915050565b5f819050919050565b61432881614316565b8114614332575f80fd5b50565b5f813590506143438161431f565b92915050565b5f73ffffffffffffffffffffffffffffffffffffffff82169050919050565b5f61437282614349565b9050919050565b61438281614368565b811461438c575f80fd5b50565b5f8135905061439d81614379565b92915050565b5f80604083850312156143b9576143b861425b565b5b5f6143c685828601614335565b92505060206143d78582860161438f565b9150509250929050565b5f81519050919050565b5f82825260208201905092915050565b5f5b838110156144185780820151818401526020810190506143fd565b5f8484015250505050565b5f601f19601f8301169050919050565b5f61443d826143e1565b61444781856143eb565b93506144578185602086016143fb565b61446081614423565b840191505092915050565b5f6020820190508181035f8301526144838184614433565b905092915050565b5f602082840312156144a05761449f61425b565b5b5f6144ad84828501614335565b91505092915050565b6144bf81614368565b82525050565b5f6020820190506144d85f8301846144b6565b92915050565b5f80604083850312156144f4576144f361425b565b5b5f6145018582860161438f565b925050602061451285828601614335565b9150509250929050565b5f805f606084860312156145335761453261425b565b5b5f6145408682870161438f565b93505060206145518682870161438f565b925050604061456286828701614335565b9150509250925092565b61457581614316565b82525050565b5f6101808201905061458f5f83018f61456c565b61459c602083018e61456c565b6145a9604083018d61456c565b81810360608301526145bb818c614433565b905081810360808301526145cf818b614433565b90506145de60a083018a6142ee565b6145eb60c08301896144b6565b6145f860e08301886142ee565b6146066101008301876142ee565b6146146101208301866142ee565b61462261014083018561456c565b61463061016083018461456c565b9d9c50505050505050505050505050565b5f80fd5b5f80fd5b7f4e487b71000000000000000000000000000000000000000000000000000000005f52604160045260245ffd5b61467f82614423565b810181811067ffffffffffffffff8211171561469e5761469d614649565b5b80604052505050565b5f6146b0614252565b90506146bc8282614676565b919050565b5f67ffffffffffffffff8211156146db576146da614649565b5b6146e482614423565b9050602081019050919050565b828183375f83830152505050565b5f61471161470c846146c1565b6146a7565b90508281526020810184848401111561472d5761472c614645565b5b6147388482856146f1565b509392505050565b5f82601f83011261475457614753614641565b5b81356147648482602086016146ff565b91505092915050565b614776816142e3565b8114614780575f80fd5b50565b5f813590506147918161476d565b92915050565b5f805f805f8060c087890312156147b1576147b061425b565b5b5f6147be89828a01614335565b965050602087013567ffffffffffffffff8111156147df576147de61425f565b5b6147eb89828a01614740565b95505060406147fc89828a01614335565b945050606061480d89828a01614335565b935050608087013567ffffffffffffffff81111561482e5761482d61425f565b5b61483a89828a01614740565b92505060a061484b89828a01614783565b9150509295509295509295565b5f805f805f60a086880312156148715761487061425b565b5b5f61487e8882890161438f565b955050602061488f88828901614335565b94505060406148a088828901614335565b935050606086013567ffffffffffffffff8111156148c1576148c061425f565b5b6148cd88828901614740565b925050608086013567ffffffffffffffff8111156148ee576148ed61425f565b5b6148fa88828901614740565b9150509295509295909350565b5f60208201905061491a5f83018461456c565b92915050565b5f602082840312156149355761493461425b565b5b5f6149428482850161438f565b91505092915050565b5f81519050919050565b5f82825260208201905092915050565b5f819050602082019050919050565b61497d81614316565b82525050565b5f61498e8383614974565b60208301905092915050565b5f602082019050919050565b5f6149b08261494b565b6149ba8185614955565b93506149c583614965565b805f5b838110156149f55781516149dc8882614983565b97506149e78361499a565b9250506001810190506149c8565b5085935050505092915050565b5f6020820190508181035f830152614a1a81846149a6565b905092915050565b5f8060408385031215614a3857614a3761425b565b5b5f614a458582860161438f565b9250506020614a5685828601614783565b9150509250929050565b5f67ffffffffffffffff821115614a7a57614a79614649565b5b614a8382614423565b9050602081019050919050565b5f614aa2614a9d84614a60565b6146a7565b905082815260208101848484011115614abe57614abd614645565b5b614ac98482856146f1565b509392505050565b5f82601f830112614ae557614ae4614641565b5b8135614af5848260208601614a90565b91505092915050565b5f805f8060808587031215614b1657614b1561425b565b5b5f614b238782880161438f565b9450506020614b348782880161438f565b9350506040614b4587828801614335565b925050606085013567ffffffffffffffff811115614b6657614b6561425f565b5b614b7287828801614ad1565b91505092959194509250565b5f8060408385031215614b9457614b9361425b565b5b5f614ba18582860161438f565b9250506020614bb28582860161438f565b9150509250929050565b5f60c0820190508181035f830152614bd48189614433565b9050614be3602083018861456c565b614bf0604083018761456c565b8181036060830152614c028186614433565b9050614c1160808301856142ee565b614c1e60a08301846142ee565b979650505050505050565b7f536f6c6f20756e206d616e61676572206465206573746520636f6e747261746f5f8201527f207075656465207265766f636172206f74726f206d616e616765720000000000602082015250565b5f614c83603b836143eb565b9150614c8e82614c29565b604082019050919050565b5f6020820190508181035f830152614cb081614c77565b9050919050565b7f4e487b71000000000000000000000000000000000000000000000000000000005f52602260045260245ffd5b5f6002820490506001821680614cfb57607f821691505b602082108103614d0e57614d0d614cb7565b5b50919050565b7f536f6c6f20756e206d616e61676572206465206573746520636f6e747261746f5f8201527f20707565646520617369676e6172206f74726f206d616e616765720000000000602082015250565b5f614d6e603b836143eb565b9150614d7982614d14565b604082019050919050565b5f6020820190508181035f830152614d9b81614d62565b9050919050565b5f606082019050614db55f8301866144b6565b614dc2602083018561456c565b614dcf60408301846144b6565b949350505050565b5f81519050614de581614379565b92915050565b5f60208284031215614e0057614dff61425b565b5b5f614e0d84828501614dd7565b91505092915050565b7f456c20746f6b656e206e6f206578697374652e000000000000000000000000005f82015250565b5f614e4a6013836143eb565b9150614e5582614e16565b602082019050919050565b5f6020820190508181035f830152614e7781614e3e565b9050919050565b7f536f6c6f20756e206d616e616765722070756564652063616e63656c617220755f8201527f6e20636f6e747261746f00000000000000000000000000000000000000000000602082015250565b5f614ed8602a836143eb565b9150614ee382614e7e565b604082019050919050565b5f6020820190508181035f830152614f0581614ecc565b9050919050565b7f456c20636f6e747261746f207961206861207369646f206669726d61646f00005f82015250565b5f614f40601e836143eb565b9150614f4b82614f0c565b602082019050919050565b5f6020820190508181035f830152614f6d81614f34565b9050919050565b7f536f6c6f20756e206d616e616765722070756564652066696e616c697a6172205f8201527f756e20636f6e747261746f000000000000000000000000000000000000000000602082015250565b5f614fce602b836143eb565b9150614fd982614f74565b604082019050919050565b5f6020820190508181035f830152614ffb81614fc2565b9050919050565b7f456c20636f6e747261746f206e6f206861207369646f206669726d61646f00005f82015250565b5f615036601e836143eb565b915061504182615002565b602082019050919050565b5f6020820190508181035f8301526150638161502a565b9050919050565b7f456c20636f6e747261746f2079612068612066696e616c697a61646f000000005f82015250565b5f61509e601c836143eb565b91506150a98261506a565b602082019050919050565b5f6020820190508181035f8301526150cb81615092565b9050919050565b7f456c20636f6e747261746f20686120657870697261646f0000000000000000005f82015250565b5f6151066017836143eb565b9150615111826150d2565b602082019050919050565b5f6020820190508181035f830152615133816150fa565b9050919050565b7f4e6f206861792063616d62696f732070726f70756573746f73000000000000005f82015250565b5f61516e6019836143eb565b91506151798261513a565b602082019050919050565b5f6020820190508181035f83015261519b81615162565b9050919050565b7f4e487b71000000000000000000000000000000000000000000000000000000005f52601160045260245ffd5b5f6151d982614316565b91506151e483614316565b92508282039050818111156151fc576151fb6151a2565b5b92915050565b5f819050815f5260205f209050919050565b5f6020601f8301049050919050565b5f82821b905092915050565b5f6008830261525e7fffffffffffffffffffffffffffffffffffffffffffffffffffffffffffffffff82615223565b6152688683615223565b95508019841693508086168417925050509392505050565b5f819050919050565b5f6152a361529e61529984614316565b615280565b614316565b9050919050565b5f819050919050565b6152bc83615289565b6152d06152c8826152aa565b84845461522f565b825550505050565b5f90565b6152e46152d8565b6152ef8184846152b3565b505050565b5b81811015615312576153075f826152dc565b6001810190506152f5565b5050565b601f8211156153575761532881615202565b61533184615214565b81016020851015615340578190505b61535461534c85615214565b8301826152f4565b50505b505050565b5f82821c905092915050565b5f6153775f198460080261535c565b1980831691505092915050565b5f61538f8383615368565b9150826002028217905092915050565b6153a8826143e1565b67ffffffffffffffff8111156153c1576153c0614649565b5b6153cb8254614ce4565b6153d6828285615316565b5f60209050601f831160018114615407575f84156153f5578287015190505b6153ff8582615384565b865550615466565b601f19841661541586615202565b5f5b8281101561543c57848901518255600182019150602085019450602081019050615417565b868310156154595784890151615455601f891682615368565b8355505b6001600288020188555050505b505050505050565b7f466f6e646f7320696e737566696369656e7465732070617261206375627269725f8201527f20656c20696e6372656d656e746f2064656c2073616c6172696f000000000000602082015250565b5f6154c8603a836143eb565b91506154d38261546e565b604082019050919050565b5f6020820190508181035f8301526154f5816154bc565b9050919050565b7f4465646520656e7669617220656c2073616c6172696f20636f6d6f2076616c6f5f8201527f722064656c20636f6e747261746f000000000000000000000000000000000000602082015250565b5f615556602e836143eb565b9150615561826154fc565b604082019050919050565b5f6020820190508181035f8301526155838161554a565b9050919050565b5f61559482614316565b91507fffffffffffffffffffffffffffffffffffffffffffffffffffffffffffffffff82036155c6576155c56151a2565b5b600182019050919050565b7f456c20636f6e747261746f206e6f2065737461207061757361646f00000000005f82015250565b5f615605601b836143eb565b9150615610826155d1565b602082019050919050565b5f6020820190508181035f830152615632816155f9565b9050919050565b5f61564382614316565b915061564e83614316565b9250828201905080821115615666576156656151a2565b5b92915050565b7f4e6f20707565646573206669726d61722074752070726f70696f20636f6e74725f8201527f61746f0000000000000000000000000000000000000000000000000000000000602082015250565b5f6156c66023836143eb565b91506156d18261566c565b604082019050919050565b5f6020820190508181035f8301526156f3816156ba565b9050919050565b7f536f6c6f20656c2074726162616a61646f72207075656465206669726d6172205f8201527f656c20636f6e747261746f000000000000000000000000000000000000000000602082015250565b5f615754602b836143eb565b915061575f826156fa565b604082019050919050565b5f6020820190508181035f83015261578181615748565b9050919050565b7f456c20636f6e747261746f2068612066696e616c697a61646f000000000000005f82015250565b5f6157bc6019836143eb565b91506157c782615788565b602082019050919050565b5f6020820190508181035f8301526157e9816157b0565b9050919050565b7f456c20636f6e747261746f2079612065737461207061757361646f00000000005f82015250565b5f615824601b836143eb565b915061582f826157f0565b602082019050919050565b5f6020820190508181035f83015261585181615818565b9050919050565b5f81905092915050565b5f61586c826143e1565b6158768185615858565b93506158868185602086016143fb565b80840191505092915050565b5f61589d8285615862565b91506158a98284615862565b91508190509392505050565b7f456c2073616c6172696f207961206861207369646f206c6962657261646f00005f82015250565b5f6158e9601e836143eb565b91506158f4826158b5565b602082019050919050565b5f6020820190508181035f830152615916816158dd565b9050919050565b7f536f6c6f20756e206d616e61676572207075656465206c69626572617220656c5f8201527f2073616c6172696f000000000000000000000000000000000000000000000000602082015250565b5f6159776028836143eb565b91506159828261591d565b604082019050919050565b5f6020820190508181035f8301526159a48161596b565b9050919050565b7f456c20636f6e747261746f206e6f20686120657870697261646f0000000000005f82015250565b5f6159df601a836143eb565b91506159ea826159ab565b602082019050919050565b5f6020820190508181035f830152615a0c816159d3565b9050919050565b7f456c20636f6e747261746f2065737461207061757361646f00000000000000005f82015250565b5f615a476018836143eb565b9150615a5282615a13565b602082019050919050565b5f6020820190508181035f830152615a7481615a3b565b9050919050565b7f4e487b71000000000000000000000000000000000000000000000000000000005f52603260045260245ffd5b7f4e487b71000000000000000000000000000000000000000000000000000000005f52603160045260245ffd5b5f81519050919050565b5f82825260208201905092915050565b5f615af982615ad5565b615b038185615adf565b9350615b138185602086016143fb565b615b1c81614423565b840191505092915050565b5f608082019050615b3a5f8301876144b6565b615b4760208301866144b6565b615b54604083018561456c565b8181036060830152615b668184615aef565b905095945050505050565b5f81519050615b7f8161428e565b92915050565b5f60208284031215615b9a57615b9961425b565b5b5f615ba784828501615b71565b91505092915050565b7f4e487b71000000000000000000000000000000000000000000000000000000005f52601260045260245ffd5b5f604082019050615bf05f8301856144b6565b615bfd602083018461456c565b939250505056fea2646970667358221220af403b29f53630367a2e0044782ab8d26bebe42aed958aa4af90f5e7b35dd05a64736f6c63430008140033",
  "immutableReferences": {},
  "source": "// SPDX-License-Identifier: MIT\r\npragma solidity ^0.8.20;\r\n\r\nimport \"@openzeppelin/contracts/token/ERC721/ERC721.sol\";\r\n\r\ncontract MyContract is ERC721 {\r\n    uint256 tokenID;\r\n    mapping(uint256 => mapping(address => bool)) public tokenManagers;\r\n    mapping(uint256 => ContractDetails) public contractDetails;\r\n    mapping(address => uint256[]) private contractsOwner;\r\n    mapping(address => uint256[]) private activeContractsOfWorker;\r\n    mapping(uint256 => ChangeProposal) public changeProposals;\r\n\r\n    struct ContractDetails {\r\n        uint256 salary;\r\n        uint256 startDate;\r\n        uint256 duration;\r\n        string title;\r\n        string description;\r\n        bool isSigned;\r\n        address worker;\r\n        bool isFinished;\r\n        bool isReleased;\r\n        bool isPaused;\r\n        uint256 pauseTime;\r\n        uint256 pauseDuration;\r\n    }\r\n\r\n    struct ChangeProposal {\r\n        string newTitle;\r\n        uint256 newSalary;\r\n        uint256 newDuration;\r\n        string newDescription;\r\n        bool isPaused;\r\n        bool isPending;\r\n    }\r\n\r\n    event ContractSigned(uint256 indexed tokenId, address worker);\r\n    event SalaryReleased(uint256 indexed tokenId, uint256 salary);\r\n    event TokenMinted(uint256 tokenId);\r\n    event ContractCancelled(uint256 indexed tokenId);\r\n    event ContractFinalized(uint256 indexed tokenId);\r\n    event Debug(\r\n        uint256 currentSalary,\r\n        uint256 newSalary,\r\n        uint256 salaryDifference,\r\n        uint256 msgValue\r\n    );\r\n\r\n    constructor() ERC721(\"MyToken\", \"MTK\") {}\r\n\r\n    function mint(\r\n        address _to,\r\n        uint256 _salary,\r\n        uint256 _duration,\r\n        string memory _description,\r\n        string memory _title\r\n    ) public payable returns (uint256) {\r\n        require(\r\n            msg.value >= _salary,\r\n            \"Dede enviar el salario como valor del contrato\"\r\n        );\r\n        tokenID++;\r\n        _mint(msg.sender, tokenID);\r\n        uint256 remainder = msg.value - _salary;\r\n        if (remainder > 0) {\r\n            payable(msg.sender).transfer(remainder);\r\n        }\r\n\r\n        ContractDetails memory newContract = ContractDetails({\r\n            salary: _salary,\r\n            startDate: block.timestamp,\r\n            duration: _duration,\r\n            title: _title,\r\n            description: _description,\r\n            isSigned: false,\r\n            worker: _to,\r\n            isFinished: false,\r\n            isReleased: false,\r\n            isPaused: false,\r\n            pauseTime: 0,\r\n            pauseDuration: 0\r\n        });\r\n\r\n        contractDetails[tokenID] = newContract;\r\n        tokenManagers[tokenID][msg.sender] = true;\r\n        contractsOwner[msg.sender].push(tokenID);\r\n        emit TokenMinted(tokenID);\r\n\r\n        return tokenID;\r\n    }\r\n\r\n    function signContract(uint256 _tokenID) public {\r\n        try this.ownerOf(_tokenID) {} catch {\r\n            revert(\"El token no existe.\"); // he intentado hacerlo con _exists pero no me ha funcionado\r\n        }\r\n        require(\r\n            tokenManagers[_tokenID][msg.sender] == false,\r\n            \"No puedes firmar tu propio contrato\"\r\n        );\r\n        require(\r\n            msg.sender == contractDetails[_tokenID].worker,\r\n            \"Solo el trabajador puede firmar el contrato\"\r\n        );\r\n        require(\r\n            !contractDetails[_tokenID].isSigned,\r\n            \"El contrato ya ha sido firmado\"\r\n        );\r\n        require(\r\n            contractDetails[_tokenID].isFinished == false,\r\n            \"El contrato ha finalizado\"\r\n        );\r\n        require(\r\n            isContractFinished(_tokenID) == false,\r\n            \"El contrato ha expirado\"\r\n        );\r\n\r\n        contractDetails[_tokenID].isSigned = true;\r\n        contractDetails[_tokenID].worker = msg.sender;\r\n        activeContractsOfWorker[msg.sender].push(_tokenID);\r\n        emit ContractSigned(_tokenID, msg.sender);\r\n    }\r\n\r\n    function releaseSalary(uint256 _tokenID) public payable {\r\n        try this.ownerOf(_tokenID) {} catch {\r\n            revert(\"El token no existe.\"); // he intentado hacerlo con _exists pero no me ha funcionado\r\n        }\r\n        require(\r\n            contractDetails[_tokenID].isSigned,\r\n            \"El contrato no ha sido firmado\"\r\n        );\r\n        require(\r\n            contractDetails[_tokenID].isReleased == false,\r\n            \"El salario ya ha sido liberado\"\r\n        );\r\n        require(\r\n            tokenManagers[_tokenID][msg.sender] == true,\r\n            \"Solo un manager puede liberar el salario\"\r\n        );\r\n        require(\r\n            isContractFinished(_tokenID) == true,\r\n            \"El contrato no ha expirado\"\r\n        );\r\n        require(\r\n            contractDetails[_tokenID].isPaused == false,\r\n            \"El contrato esta pausado\"\r\n        );\r\n\r\n        address payable worker = payable(contractDetails[_tokenID].worker);\r\n        uint256 salary = contractDetails[_tokenID].salary;\r\n        worker.transfer(salary);\r\n        contractDetails[_tokenID].isReleased = true;\r\n        emit SalaryReleased(_tokenID, salary);\r\n    }\r\n\r\n    function finalizeContract(uint256 _tokenID) public {\r\n        try this.ownerOf(_tokenID) {} catch {\r\n            revert(\"El token no existe.\"); // he intentado hacerlo con _exists pero no me ha funcionado\r\n        }\r\n        require(\r\n            tokenManagers[_tokenID][msg.sender] == true,\r\n            \"Solo un manager puede finalizar un contrato\"\r\n        );\r\n        require(\r\n            contractDetails[_tokenID].isSigned,\r\n            \"El contrato no ha sido firmado\"\r\n        );\r\n        require(\r\n            contractDetails[_tokenID].isFinished == false,\r\n            \"El contrato ya ha finalizado\"\r\n        );\r\n        require(\r\n            isContractFinished(_tokenID) == false,\r\n            \"El contrato ha expirado\"\r\n        );\r\n\r\n        contractDetails[_tokenID].isFinished = true;\r\n        emit ContractFinalized(_tokenID);\r\n    }\r\n\r\n    function pauseContract(uint256 _tokenID) public {\r\n        try this.ownerOf(_tokenID) {} catch {\r\n            revert(\"El token no existe.\"); // he intentado hacerlo con _exists pero no me ha funcionado\r\n        }\r\n        require(\r\n            contractDetails[_tokenID].isSigned,\r\n            \"El contrato no ha sido firmado\"\r\n        );\r\n        require(\r\n            isContractFinished(_tokenID) == false,\r\n            \"El contrato ha expirado\"\r\n        );\r\n        require(\r\n            !contractDetails[_tokenID].isPaused,\r\n            \"El contrato ya esta pausado\"\r\n        );\r\n\r\n        contractDetails[_tokenID].isPaused = true;\r\n        contractDetails[_tokenID].pauseTime = block.timestamp;\r\n    }\r\n\r\n    function unPauseContract(uint256 _tokenID) public {\r\n        try this.ownerOf(_tokenID) {} catch {\r\n            revert(\"El token no existe.\"); // he intentado hacerlo con _exists pero no me ha funcionado\r\n        }\r\n        require(\r\n            contractDetails[_tokenID].isSigned,\r\n            \"El contrato no ha sido firmado\"\r\n        );\r\n        require(\r\n            contractDetails[_tokenID].isPaused,\r\n            \"El contrato no esta pausado\"\r\n        );\r\n        require(\r\n            isContractFinished(_tokenID) == false,\r\n            \"El contrato ha expirado\"\r\n        );\r\n\r\n        contractDetails[_tokenID].pauseDuration =\r\n            block.timestamp -\r\n            contractDetails[_tokenID].pauseTime;\r\n\r\n        contractDetails[_tokenID].duration += contractDetails[_tokenID]\r\n            .pauseDuration;\r\n\r\n        contractDetails[_tokenID].pauseTime = 0;\r\n        contractDetails[_tokenID].isPaused = false;\r\n    }\r\n\r\n    function cancelContract(uint256 _tokenID) public {\r\n        try this.ownerOf(_tokenID) {} catch {\r\n            revert(\"El token no existe.\"); // he intentado hacerlo con _exists pero no me ha funcionado\r\n        }\r\n        require(\r\n            tokenManagers[_tokenID][msg.sender] == true,\r\n            \"Solo un manager puede cancelar un contrato\"\r\n        );\r\n        require(\r\n            !contractDetails[_tokenID].isSigned,\r\n            \"El contrato ya ha sido firmado\"\r\n        );\r\n\r\n        address payable owner = payable(msg.sender);\r\n        uint256 salary = contractDetails[_tokenID].salary;\r\n        owner.transfer(salary);\r\n        _burn(_tokenID);\r\n        removeContractFromOwner(_tokenID, msg.sender);\r\n        emit ContractCancelled(_tokenID);\r\n    }\r\n\r\n    function removeContractFromOwner(\r\n        uint256 _tokenId,\r\n        address _owner\r\n    ) internal {\r\n        uint256 contractIndex;\r\n        uint256 lastContractIndex = contractsOwner[_owner].length - 1;\r\n        for (uint i = 0; i < contractsOwner[_owner].length; i++) {\r\n            if (contractsOwner[_owner][i] == _tokenId) {\r\n                contractIndex = i;\r\n                break;\r\n            }\r\n        }\r\n\r\n        if (contractIndex != lastContractIndex) {\r\n            contractsOwner[_owner][contractIndex] = contractsOwner[_owner][\r\n                lastContractIndex\r\n            ];\r\n        }\r\n        contractsOwner[_owner].pop();\r\n    }\r\n\r\n    function assignManagerToToken(\r\n        uint256 _tokenId,\r\n        address _newManager\r\n    ) public {\r\n        require(\r\n            tokenManagers[_tokenId][msg.sender],\r\n            \"Solo un manager de este contrato puede asignar otro manager\"\r\n        );\r\n        tokenManagers[_tokenId][_newManager] = true;\r\n        contractsOwner[_newManager].push(tokenID);\r\n    }\r\n\r\n    function revokeManagerFromToken(uint256 _tokenId, address _manager) public {\r\n        require(\r\n            tokenManagers[_tokenId][msg.sender],\r\n            \"Solo un manager de este contrato puede revocar otro manager\"\r\n        );\r\n        tokenManagers[_tokenId][_manager] = false;\r\n    }\r\n\r\n    function isManagerOfToken(\r\n        uint256 _tokenId,\r\n        address _manager\r\n    ) public view returns (bool) {\r\n        return tokenManagers[_tokenId][_manager];\r\n    }\r\n\r\n    //funcion para proponer un cambio en un contrato\r\n    function proposeChange(\r\n        uint256 _tokenID,\r\n        string memory _newTitle,\r\n        uint256 _newSalary,\r\n        uint256 _newDuration,\r\n        string memory _newDescription,\r\n        bool _isPaused\r\n    ) public payable {\r\n        uint256 currentSalary = contractDetails[_tokenID].salary;\r\n        if (_newSalary > currentSalary) {\r\n            uint256 salaryDifference = _newSalary - currentSalary;\r\n            require(\r\n                msg.value >= salaryDifference,\r\n                \"Fondos insuficientes para cubrir el incremento del salario\"\r\n            );\r\n\r\n            uint256 excessAmount = msg.value - salaryDifference;\r\n            if (excessAmount > 0) {\r\n                payable(msg.sender).transfer(excessAmount);\r\n            }\r\n        }\r\n\r\n        changeProposals[_tokenID] = ChangeProposal({\r\n            newTitle: _newTitle,\r\n            newSalary: _newSalary,\r\n            newDuration: _newDuration,\r\n            newDescription: _newDescription,\r\n            isPaused: _isPaused,\r\n            isPending: true\r\n        });\r\n    }\r\n\r\n    //funcion para rechazar un cambio propuesto\r\n    function rejectChange(uint256 _tokenID) public {\r\n        require(\r\n            changeProposals[_tokenID].isPending == true,\r\n            \"No hay cambios propuestos\"\r\n        );\r\n        ChangeProposal memory proposedChange = changeProposals[_tokenID];\r\n\r\n        if (proposedChange.newSalary > contractDetails[_tokenID].salary) {\r\n            uint256 salaryDifference = proposedChange.newSalary -\r\n                contractDetails[_tokenID].salary;\r\n            address owner = ownerOf(_tokenID);\r\n            payable(owner).transfer(salaryDifference);\r\n        }\r\n\r\n        changeProposals[_tokenID].isPending = false;\r\n    }\r\n\r\n    //Funcion para modificar un contrato que no haya sido firmado\r\n    function applyChange(uint256 _tokenID) public payable {\r\n        require(\r\n            changeProposals[_tokenID].isPending == true,\r\n            \"No hay cambios propuestos\"\r\n        );\r\n        ChangeProposal memory proposedChange = changeProposals[_tokenID];\r\n\r\n        if (proposedChange.newSalary < contractDetails[_tokenID].salary) {\r\n            uint256 refundAmount = contractDetails[_tokenID].salary -\r\n                proposedChange.newSalary;\r\n            address owner = ownerOf(_tokenID);\r\n            payable(owner).transfer(refundAmount);\r\n        }\r\n\r\n        contractDetails[_tokenID].title = proposedChange.newTitle;\r\n        contractDetails[_tokenID].salary = proposedChange.newSalary;\r\n        contractDetails[_tokenID].duration = proposedChange.newDuration;\r\n        contractDetails[_tokenID].description = proposedChange.newDescription;\r\n\r\n        if (proposedChange.isPaused != contractDetails[_tokenID].isPaused) {\r\n            if (proposedChange.isPaused) {\r\n                pauseContract(_tokenID);\r\n            } else {\r\n                unPauseContract(_tokenID);\r\n            }\r\n        }\r\n\r\n        changeProposals[_tokenID].isPending = false;\r\n    }\r\n\r\n    function getContractsFromOwner(\r\n        address _address\r\n    ) public view returns (uint256[] memory) {\r\n        return contractsOwner[_address];\r\n    }\r\n\r\n    function getContractsOfWorker(\r\n        address _address\r\n    ) public view returns (uint256[] memory) {\r\n        return activeContractsOfWorker[_address];\r\n    }\r\n\r\n    function isContractFinished(uint256 _tokenID) public view returns (bool) {\r\n        if (contractDetails[_tokenID].isFinished == true) {\r\n            return true;\r\n        }\r\n\r\n        if (\r\n            block.timestamp >\r\n            contractDetails[_tokenID].startDate +\r\n                contractDetails[_tokenID].duration\r\n        ) {\r\n            return true;\r\n        }\r\n\r\n        return false;\r\n    }\r\n\r\n    function isContractSigned(uint256 _tokenID) public view returns (bool) {\r\n        return contractDetails[_tokenID].isSigned;\r\n    }\r\n\r\n    function getOwnerOfContract(\r\n        uint256 _tokenID\r\n    ) public view returns (address) {\r\n        return ownerOf(_tokenID);\r\n    }\r\n}\r\n",
  "sourcePath": "E:\\AppContract\\ubu-contractme\\Code\\SmartContract\\contracts\\MyContract.sol",
  "compiler": {
    "name": "solc",
    "version": "0.8.20+commit.a1b79de6.Emscripten.clang"
  },
  "schemaVersion": "3.4.16",
  "updatedAt": "2024-01-26T18:11:04.955Z",
  "networkType": "ethereum",
  "devdoc": {
    "errors": {
      "ERC721IncorrectOwner(address,uint256,address)": [
        {
          "details": "Indicates an error related to the ownership over a particular token. Used in transfers.",
          "params": {
            "owner": "Address of the current owner of a token.",
            "sender": "Address whose tokens are being transferred.",
            "tokenId": "Identifier number of a token."
          }
        }
      ],
      "ERC721InsufficientApproval(address,uint256)": [
        {
          "details": "Indicates a failure with the `operator`s approval. Used in transfers.",
          "params": {
            "operator": "Address that may be allowed to operate on tokens without being their owner.",
            "tokenId": "Identifier number of a token."
          }
        }
      ],
      "ERC721InvalidApprover(address)": [
        {
          "details": "Indicates a failure with the `approver` of a token to be approved. Used in approvals.",
          "params": {
            "approver": "Address initiating an approval operation."
          }
        }
      ],
      "ERC721InvalidOperator(address)": [
        {
          "details": "Indicates a failure with the `operator` to be approved. Used in approvals.",
          "params": {
            "operator": "Address that may be allowed to operate on tokens without being their owner."
          }
        }
      ],
      "ERC721InvalidOwner(address)": [
        {
          "details": "Indicates that an address can't be an owner. For example, `address(0)` is a forbidden owner in EIP-20. Used in balance queries.",
          "params": {
            "owner": "Address of the current owner of a token."
          }
        }
      ],
      "ERC721InvalidReceiver(address)": [
        {
          "details": "Indicates a failure with the token `receiver`. Used in transfers.",
          "params": {
            "receiver": "Address to which tokens are being transferred."
          }
        }
      ],
      "ERC721InvalidSender(address)": [
        {
          "details": "Indicates a failure with the token `sender`. Used in transfers.",
          "params": {
            "sender": "Address whose tokens are being transferred."
          }
        }
      ],
      "ERC721NonexistentToken(uint256)": [
        {
          "details": "Indicates a `tokenId` whose `owner` is the zero address.",
          "params": {
            "tokenId": "Identifier number of a token."
          }
        }
      ]
    },
    "events": {
      "Approval(address,address,uint256)": {
        "details": "Emitted when `owner` enables `approved` to manage the `tokenId` token."
      },
      "ApprovalForAll(address,address,bool)": {
        "details": "Emitted when `owner` enables or disables (`approved`) `operator` to manage all of its assets."
      },
      "Transfer(address,address,uint256)": {
        "details": "Emitted when `tokenId` token is transferred from `from` to `to`."
      }
    },
    "kind": "dev",
    "methods": {
      "approve(address,uint256)": {
        "details": "See {IERC721-approve}."
      },
      "balanceOf(address)": {
        "details": "See {IERC721-balanceOf}."
      },
      "getApproved(uint256)": {
        "details": "See {IERC721-getApproved}."
      },
      "isApprovedForAll(address,address)": {
        "details": "See {IERC721-isApprovedForAll}."
      },
      "name()": {
        "details": "See {IERC721Metadata-name}."
      },
      "ownerOf(uint256)": {
        "details": "See {IERC721-ownerOf}."
      },
      "safeTransferFrom(address,address,uint256)": {
        "details": "See {IERC721-safeTransferFrom}."
      },
      "safeTransferFrom(address,address,uint256,bytes)": {
        "details": "See {IERC721-safeTransferFrom}."
      },
      "setApprovalForAll(address,bool)": {
        "details": "See {IERC721-setApprovalForAll}."
      },
      "supportsInterface(bytes4)": {
        "details": "See {IERC165-supportsInterface}."
      },
      "symbol()": {
        "details": "See {IERC721Metadata-symbol}."
      },
      "tokenURI(uint256)": {
        "details": "See {IERC721Metadata-tokenURI}."
      },
      "transferFrom(address,address,uint256)": {
        "details": "See {IERC721-transferFrom}."
      }
    },
    "version": 1
  },
  "userdoc": {
    "kind": "user",
    "methods": {},
    "version": 1
  }
}