{
  "contractName": "MyContract",
  "abi": [
    {
      "inputs": [],
      "stateMutability": "nonpayable",
      "type": "constructor"
    },
    {
      "inputs": [
        {
          "internalType": "address",
          "name": "sender",
          "type": "address"
        },
        {
          "internalType": "uint256",
          "name": "tokenId",
          "type": "uint256"
        },
        {
          "internalType": "address",
          "name": "owner",
          "type": "address"
        }
      ],
      "name": "ERC721IncorrectOwner",
      "type": "error"
    },
    {
      "inputs": [
        {
          "internalType": "address",
          "name": "operator",
          "type": "address"
        },
        {
          "internalType": "uint256",
          "name": "tokenId",
          "type": "uint256"
        }
      ],
      "name": "ERC721InsufficientApproval",
      "type": "error"
    },
    {
      "inputs": [
        {
          "internalType": "address",
          "name": "approver",
          "type": "address"
        }
      ],
      "name": "ERC721InvalidApprover",
      "type": "error"
    },
    {
      "inputs": [
        {
          "internalType": "address",
          "name": "operator",
          "type": "address"
        }
      ],
      "name": "ERC721InvalidOperator",
      "type": "error"
    },
    {
      "inputs": [
        {
          "internalType": "address",
          "name": "owner",
          "type": "address"
        }
      ],
      "name": "ERC721InvalidOwner",
      "type": "error"
    },
    {
      "inputs": [
        {
          "internalType": "address",
          "name": "receiver",
          "type": "address"
        }
      ],
      "name": "ERC721InvalidReceiver",
      "type": "error"
    },
    {
      "inputs": [
        {
          "internalType": "address",
          "name": "sender",
          "type": "address"
        }
      ],
      "name": "ERC721InvalidSender",
      "type": "error"
    },
    {
      "inputs": [
        {
          "internalType": "uint256",
          "name": "tokenId",
          "type": "uint256"
        }
      ],
      "name": "ERC721NonexistentToken",
      "type": "error"
    },
    {
      "anonymous": false,
      "inputs": [
        {
          "indexed": true,
          "internalType": "address",
          "name": "owner",
          "type": "address"
        },
        {
          "indexed": true,
          "internalType": "address",
          "name": "approved",
          "type": "address"
        },
        {
          "indexed": true,
          "internalType": "uint256",
          "name": "tokenId",
          "type": "uint256"
        }
      ],
      "name": "Approval",
      "type": "event"
    },
    {
      "anonymous": false,
      "inputs": [
        {
          "indexed": true,
          "internalType": "address",
          "name": "owner",
          "type": "address"
        },
        {
          "indexed": true,
          "internalType": "address",
          "name": "operator",
          "type": "address"
        },
        {
          "indexed": false,
          "internalType": "bool",
          "name": "approved",
          "type": "bool"
        }
      ],
      "name": "ApprovalForAll",
      "type": "event"
    },
    {
      "anonymous": false,
      "inputs": [
        {
          "indexed": true,
          "internalType": "uint256",
          "name": "tokenId",
          "type": "uint256"
        }
      ],
      "name": "ContractCancelled",
      "type": "event"
    },
    {
      "anonymous": false,
      "inputs": [
        {
          "indexed": true,
          "internalType": "uint256",
          "name": "tokenId",
          "type": "uint256"
        }
      ],
      "name": "ContractFinalized",
      "type": "event"
    },
    {
      "anonymous": false,
      "inputs": [
        {
          "indexed": true,
          "internalType": "uint256",
          "name": "tokenId",
          "type": "uint256"
        },
        {
          "indexed": false,
          "internalType": "address",
          "name": "worker",
          "type": "address"
        }
      ],
      "name": "ContractSigned",
      "type": "event"
    },
    {
      "anonymous": false,
      "inputs": [
        {
          "indexed": false,
          "internalType": "uint256",
          "name": "currentSalary",
          "type": "uint256"
        },
        {
          "indexed": false,
          "internalType": "uint256",
          "name": "newSalary",
          "type": "uint256"
        },
        {
          "indexed": false,
          "internalType": "uint256",
          "name": "salaryDifference",
          "type": "uint256"
        },
        {
          "indexed": false,
          "internalType": "uint256",
          "name": "msgValue",
          "type": "uint256"
        }
      ],
      "name": "Debug",
      "type": "event"
    },
    {
      "anonymous": false,
      "inputs": [
        {
          "indexed": true,
          "internalType": "uint256",
          "name": "tokenId",
          "type": "uint256"
        },
        {
          "indexed": false,
          "internalType": "uint256",
          "name": "salary",
          "type": "uint256"
        }
      ],
      "name": "SalaryReleased",
      "type": "event"
    },
    {
      "anonymous": false,
      "inputs": [
        {
          "indexed": false,
          "internalType": "uint256",
          "name": "tokenId",
          "type": "uint256"
        }
      ],
      "name": "TokenMinted",
      "type": "event"
    },
    {
      "anonymous": false,
      "inputs": [
        {
          "indexed": true,
          "internalType": "address",
          "name": "from",
          "type": "address"
        },
        {
          "indexed": true,
          "internalType": "address",
          "name": "to",
          "type": "address"
        },
        {
          "indexed": true,
          "internalType": "uint256",
          "name": "tokenId",
          "type": "uint256"
        }
      ],
      "name": "Transfer",
      "type": "event"
    },
    {
      "inputs": [
        {
          "internalType": "address",
          "name": "to",
          "type": "address"
        },
        {
          "internalType": "uint256",
          "name": "tokenId",
          "type": "uint256"
        }
      ],
      "name": "approve",
      "outputs": [],
      "stateMutability": "nonpayable",
      "type": "function"
    },
    {
      "inputs": [
        {
          "internalType": "address",
          "name": "owner",
          "type": "address"
        }
      ],
      "name": "balanceOf",
      "outputs": [
        {
          "internalType": "uint256",
          "name": "",
          "type": "uint256"
        }
      ],
      "stateMutability": "view",
      "type": "function",
      "constant": true
    },
    {
      "inputs": [
        {
          "internalType": "uint256",
          "name": "",
          "type": "uint256"
        }
      ],
      "name": "changeProposals",
      "outputs": [
        {
          "internalType": "uint256",
          "name": "newSalary",
          "type": "uint256"
        },
        {
          "internalType": "uint256",
          "name": "newDuration",
          "type": "uint256"
        },
        {
          "internalType": "string",
          "name": "newDescription",
          "type": "string"
        },
        {
          "internalType": "bool",
          "name": "isPaused",
          "type": "bool"
        },
        {
          "internalType": "bool",
          "name": "isPending",
          "type": "bool"
        }
      ],
      "stateMutability": "view",
      "type": "function",
      "constant": true
    },
    {
      "inputs": [
        {
          "internalType": "uint256",
          "name": "",
          "type": "uint256"
        }
      ],
      "name": "contractDetails",
      "outputs": [
        {
          "internalType": "uint256",
          "name": "salary",
          "type": "uint256"
        },
        {
          "internalType": "uint256",
          "name": "startDate",
          "type": "uint256"
        },
        {
          "internalType": "uint256",
          "name": "duration",
          "type": "uint256"
        },
        {
          "internalType": "string",
          "name": "title",
          "type": "string"
        },
        {
          "internalType": "string",
          "name": "description",
          "type": "string"
        },
        {
          "internalType": "bool",
          "name": "isSigned",
          "type": "bool"
        },
        {
          "internalType": "address",
          "name": "worker",
          "type": "address"
        },
        {
          "internalType": "bool",
          "name": "isFinished",
          "type": "bool"
        },
        {
          "internalType": "bool",
          "name": "isReleased",
          "type": "bool"
        },
        {
          "internalType": "bool",
          "name": "isPaused",
          "type": "bool"
        },
        {
          "internalType": "uint256",
          "name": "pauseTime",
          "type": "uint256"
        },
        {
          "internalType": "uint256",
          "name": "pauseDuration",
          "type": "uint256"
        }
      ],
      "stateMutability": "view",
      "type": "function",
      "constant": true
    },
    {
      "inputs": [
        {
          "internalType": "uint256",
          "name": "tokenId",
          "type": "uint256"
        }
      ],
      "name": "getApproved",
      "outputs": [
        {
          "internalType": "address",
          "name": "",
          "type": "address"
        }
      ],
      "stateMutability": "view",
      "type": "function",
      "constant": true
    },
    {
      "inputs": [
        {
          "internalType": "address",
          "name": "owner",
          "type": "address"
        },
        {
          "internalType": "address",
          "name": "operator",
          "type": "address"
        }
      ],
      "name": "isApprovedForAll",
      "outputs": [
        {
          "internalType": "bool",
          "name": "",
          "type": "bool"
        }
      ],
      "stateMutability": "view",
      "type": "function",
      "constant": true
    },
    {
      "inputs": [],
      "name": "name",
      "outputs": [
        {
          "internalType": "string",
          "name": "",
          "type": "string"
        }
      ],
      "stateMutability": "view",
      "type": "function",
      "constant": true
    },
    {
      "inputs": [
        {
          "internalType": "uint256",
          "name": "tokenId",
          "type": "uint256"
        }
      ],
      "name": "ownerOf",
      "outputs": [
        {
          "internalType": "address",
          "name": "",
          "type": "address"
        }
      ],
      "stateMutability": "view",
      "type": "function",
      "constant": true
    },
    {
      "inputs": [
        {
          "internalType": "address",
          "name": "from",
          "type": "address"
        },
        {
          "internalType": "address",
          "name": "to",
          "type": "address"
        },
        {
          "internalType": "uint256",
          "name": "tokenId",
          "type": "uint256"
        }
      ],
      "name": "safeTransferFrom",
      "outputs": [],
      "stateMutability": "nonpayable",
      "type": "function"
    },
    {
      "inputs": [
        {
          "internalType": "address",
          "name": "from",
          "type": "address"
        },
        {
          "internalType": "address",
          "name": "to",
          "type": "address"
        },
        {
          "internalType": "uint256",
          "name": "tokenId",
          "type": "uint256"
        },
        {
          "internalType": "bytes",
          "name": "data",
          "type": "bytes"
        }
      ],
      "name": "safeTransferFrom",
      "outputs": [],
      "stateMutability": "nonpayable",
      "type": "function"
    },
    {
      "inputs": [
        {
          "internalType": "address",
          "name": "operator",
          "type": "address"
        },
        {
          "internalType": "bool",
          "name": "approved",
          "type": "bool"
        }
      ],
      "name": "setApprovalForAll",
      "outputs": [],
      "stateMutability": "nonpayable",
      "type": "function"
    },
    {
      "inputs": [
        {
          "internalType": "bytes4",
          "name": "interfaceId",
          "type": "bytes4"
        }
      ],
      "name": "supportsInterface",
      "outputs": [
        {
          "internalType": "bool",
          "name": "",
          "type": "bool"
        }
      ],
      "stateMutability": "view",
      "type": "function",
      "constant": true
    },
    {
      "inputs": [],
      "name": "symbol",
      "outputs": [
        {
          "internalType": "string",
          "name": "",
          "type": "string"
        }
      ],
      "stateMutability": "view",
      "type": "function",
      "constant": true
    },
    {
      "inputs": [
        {
          "internalType": "uint256",
          "name": "",
          "type": "uint256"
        },
        {
          "internalType": "address",
          "name": "",
          "type": "address"
        }
      ],
      "name": "tokenManagers",
      "outputs": [
        {
          "internalType": "bool",
          "name": "",
          "type": "bool"
        }
      ],
      "stateMutability": "view",
      "type": "function",
      "constant": true
    },
    {
      "inputs": [
        {
          "internalType": "uint256",
          "name": "tokenId",
          "type": "uint256"
        }
      ],
      "name": "tokenURI",
      "outputs": [
        {
          "internalType": "string",
          "name": "",
          "type": "string"
        }
      ],
      "stateMutability": "view",
      "type": "function",
      "constant": true
    },
    {
      "inputs": [
        {
          "internalType": "address",
          "name": "from",
          "type": "address"
        },
        {
          "internalType": "address",
          "name": "to",
          "type": "address"
        },
        {
          "internalType": "uint256",
          "name": "tokenId",
          "type": "uint256"
        }
      ],
      "name": "transferFrom",
      "outputs": [],
      "stateMutability": "nonpayable",
      "type": "function"
    },
    {
      "inputs": [
        {
          "internalType": "address",
          "name": "_to",
          "type": "address"
        },
        {
          "internalType": "uint256",
          "name": "_salary",
          "type": "uint256"
        },
        {
          "internalType": "uint256",
          "name": "_duration",
          "type": "uint256"
        },
        {
          "internalType": "string",
          "name": "_description",
          "type": "string"
        },
        {
          "internalType": "string",
          "name": "_title",
          "type": "string"
        }
      ],
      "name": "mint",
      "outputs": [
        {
          "internalType": "uint256",
          "name": "",
          "type": "uint256"
        }
      ],
      "stateMutability": "payable",
      "type": "function",
      "payable": true
    },
    {
      "inputs": [
        {
          "internalType": "uint256",
          "name": "_tokenID",
          "type": "uint256"
        }
      ],
      "name": "signContract",
      "outputs": [],
      "stateMutability": "nonpayable",
      "type": "function"
    },
    {
      "inputs": [
        {
          "internalType": "uint256",
          "name": "_tokenID",
          "type": "uint256"
        }
      ],
      "name": "releaseSalary",
      "outputs": [],
      "stateMutability": "payable",
      "type": "function",
      "payable": true
    },
    {
      "inputs": [
        {
          "internalType": "uint256",
          "name": "_tokenID",
          "type": "uint256"
        }
      ],
      "name": "finalizeContract",
      "outputs": [],
      "stateMutability": "nonpayable",
      "type": "function"
    },
    {
      "inputs": [
        {
          "internalType": "uint256",
          "name": "_tokenID",
          "type": "uint256"
        }
      ],
      "name": "pauseContract",
      "outputs": [],
      "stateMutability": "nonpayable",
      "type": "function"
    },
    {
      "inputs": [
        {
          "internalType": "uint256",
          "name": "_tokenID",
          "type": "uint256"
        }
      ],
      "name": "unPauseContract",
      "outputs": [],
      "stateMutability": "nonpayable",
      "type": "function"
    },
    {
      "inputs": [
        {
          "internalType": "uint256",
          "name": "_tokenID",
          "type": "uint256"
        }
      ],
      "name": "cancelContract",
      "outputs": [],
      "stateMutability": "nonpayable",
      "type": "function"
    },
    {
      "inputs": [
        {
          "internalType": "uint256",
          "name": "_tokenId",
          "type": "uint256"
        },
        {
          "internalType": "address",
          "name": "_newManager",
          "type": "address"
        }
      ],
      "name": "assignManagerToToken",
      "outputs": [],
      "stateMutability": "nonpayable",
      "type": "function"
    },
    {
      "inputs": [
        {
          "internalType": "uint256",
          "name": "_tokenId",
          "type": "uint256"
        },
        {
          "internalType": "address",
          "name": "_manager",
          "type": "address"
        }
      ],
      "name": "revokeManagerFromToken",
      "outputs": [],
      "stateMutability": "nonpayable",
      "type": "function"
    },
    {
      "inputs": [
        {
          "internalType": "uint256",
          "name": "_tokenId",
          "type": "uint256"
        },
        {
          "internalType": "address",
          "name": "_manager",
          "type": "address"
        }
      ],
      "name": "isManagerOfToken",
      "outputs": [
        {
          "internalType": "bool",
          "name": "",
          "type": "bool"
        }
      ],
      "stateMutability": "view",
      "type": "function",
      "constant": true
    },
    {
      "inputs": [
        {
          "internalType": "uint256",
          "name": "_tokenID",
          "type": "uint256"
        },
        {
          "internalType": "uint256",
          "name": "_newSalary",
          "type": "uint256"
        },
        {
          "internalType": "uint256",
          "name": "_newDuration",
          "type": "uint256"
        },
        {
          "internalType": "string",
          "name": "_newDescription",
          "type": "string"
        },
        {
          "internalType": "bool",
          "name": "_isPaused",
          "type": "bool"
        }
      ],
      "name": "proposeChange",
      "outputs": [],
      "stateMutability": "payable",
      "type": "function",
      "payable": true
    },
    {
      "inputs": [
        {
          "internalType": "uint256",
          "name": "_tokenID",
          "type": "uint256"
        }
      ],
      "name": "rejectChange",
      "outputs": [],
      "stateMutability": "nonpayable",
      "type": "function"
    },
    {
      "inputs": [
        {
          "internalType": "uint256",
          "name": "_tokenID",
          "type": "uint256"
        }
      ],
      "name": "applyChange",
      "outputs": [],
      "stateMutability": "payable",
      "type": "function",
      "payable": true
    },
    {
      "inputs": [
        {
          "internalType": "address",
          "name": "_address",
          "type": "address"
        }
      ],
      "name": "getContractsFromOwner",
      "outputs": [
        {
          "internalType": "uint256[]",
          "name": "",
          "type": "uint256[]"
        }
      ],
      "stateMutability": "view",
      "type": "function",
      "constant": true
    },
    {
      "inputs": [
        {
          "internalType": "address",
          "name": "_address",
          "type": "address"
        }
      ],
      "name": "getContractsOfWorker",
      "outputs": [
        {
          "internalType": "uint256[]",
          "name": "",
          "type": "uint256[]"
        }
      ],
      "stateMutability": "view",
      "type": "function",
      "constant": true
    },
    {
      "inputs": [
        {
          "internalType": "uint256",
          "name": "_tokenID",
          "type": "uint256"
        }
      ],
      "name": "isContractFinished",
      "outputs": [
        {
          "internalType": "bool",
          "name": "",
          "type": "bool"
        }
      ],
      "stateMutability": "view",
      "type": "function",
      "constant": true
    },
    {
      "inputs": [
        {
          "internalType": "uint256",
          "name": "_tokenID",
          "type": "uint256"
        }
      ],
      "name": "isContractSigned",
      "outputs": [
        {
          "internalType": "bool",
          "name": "",
          "type": "bool"
        }
      ],
      "stateMutability": "view",
      "type": "function",
      "constant": true
    },
    {
      "inputs": [
        {
          "internalType": "uint256",
          "name": "_tokenID",
          "type": "uint256"
        }
      ],
      "name": "getOwnerOfContract",
      "outputs": [
        {
          "internalType": "address",
          "name": "",
          "type": "address"
        }
      ],
      "stateMutability": "view",
      "type": "function",
      "constant": true
    }
  ],
  "bytecode": "0x608060405234801562000010575f80fd5b506040518060400160405280600781526020017f4d79546f6b656e000000000000000000000000000000000000000000000000008152506040518060400160405280600381526020017f4d544b0000000000000000000000000000000000000000000000000000000000815250815f90816200008d91906200030c565b5080600190816200009f91906200030c565b505050620003f0565b5f81519050919050565b7f4e487b71000000000000000000000000000000000000000000000000000000005f52604160045260245ffd5b7f4e487b71000000000000000000000000000000000000000000000000000000005f52602260045260245ffd5b5f60028204905060018216806200012457607f821691505b6020821081036200013a5762000139620000df565b5b50919050565b5f819050815f5260205f209050919050565b5f6020601f8301049050919050565b5f82821b905092915050565b5f600883026200019e7fffffffffffffffffffffffffffffffffffffffffffffffffffffffffffffffff8262000161565b620001aa868362000161565b95508019841693508086168417925050509392505050565b5f819050919050565b5f819050919050565b5f620001f4620001ee620001e884620001c2565b620001cb565b620001c2565b9050919050565b5f819050919050565b6200020f83620001d4565b620002276200021e82620001fb565b8484546200016d565b825550505050565b5f90565b6200023d6200022f565b6200024a81848462000204565b505050565b5b818110156200027157620002655f8262000233565b60018101905062000250565b5050565b601f821115620002c0576200028a8162000140565b620002958462000152565b81016020851015620002a5578190505b620002bd620002b48562000152565b8301826200024f565b50505b505050565b5f82821c905092915050565b5f620002e25f1984600802620002c5565b1980831691505092915050565b5f620002fc8383620002d1565b9150826002028217905092915050565b6200031782620000a8565b67ffffffffffffffff811115620003335762000332620000b2565b5b6200033f82546200010c565b6200034c82828562000275565b5f60209050601f83116001811462000382575f84156200036d578287015190505b620003798582620002ef565b865550620003e8565b601f198416620003928662000140565b5f5b82811015620003bb5784890151825560018201915060208501945060208101905062000394565b86831015620003db5784890151620003d7601f891682620002d1565b8355505b6001600288020188555050505b505050505050565b615e6080620003fe5f395ff3fe6080604052600436106101f8575f3560e01c80636352211e1161010c578063a22cb4651161009f578063c87b56dd1161006e578063c87b56dd1461075f578063d053b4511461079b578063e2c07c7b146107d7578063e985e9c5146107f3578063fc5a4efe1461082f576101f8565b8063a22cb465146106ab578063b88d4fde146106d3578063bce87156146106fb578063c2852f3814610737576101f8565b806390d16ce4116100db57806390d16ce4146105e157806393a43c191461061d5780639537e8d11461065957806395d89b4114610681576101f8565b80636352211e146105115780636d0136181461054d57806370a082311461057d57806389b83d3e146105b9576101f8565b806323e0f2371161018f57806331432e451161015e57806331432e45146104225780633330a55f1461045e578063409283d0146104a557806342842e0e146104c15780634ec3e2aa146104e9576101f8565b806323e0f2371461035a57806328047450146103965780632907eb16146103be578063294a7931146103e6576101f8565b8063095ea7b3116101cb578063095ea7b3146102c657806313e2be62146102ee5780632355e2171461030a57806323b872dd14610332576101f8565b806301ffc9a7146101fc578063045b6a4e1461023857806306fdde0314610260578063081812fc1461028a575b5f80fd5b348015610207575f80fd5b50610222600480360381019061021d91906142e9565b61086f565b60405161022f919061432e565b60405180910390f35b348015610243575f80fd5b5061025e600480360381019061025991906143d4565b610950565b005b34801561026b575f80fd5b50610274610a4f565b604051610281919061449c565b60405180910390f35b348015610295575f80fd5b506102b060048036038101906102ab91906144bc565b610ade565b6040516102bd91906144f6565b60405180910390f35b3480156102d1575f80fd5b506102ec60048036038101906102e7919061450f565b610af9565b005b610308600480360381019061030391906146a3565b610b0f565b005b348015610315575f80fd5b50610330600480360381019061032b91906143d4565b610cf5565b005b34801561033d575f80fd5b5061035860048036038101906103539190614736565b610e58565b005b348015610365575f80fd5b50610380600480360381019061037b91906144bc565b610f57565b60405161038d91906144f6565b60405180910390f35b3480156103a1575f80fd5b506103bc60048036038101906103b791906144bc565b610f68565b005b3480156103c9575f80fd5b506103e460048036038101906103df91906144bc565b6111bf565b005b3480156103f1575f80fd5b5061040c600480360381019061040791906143d4565b6114aa565b604051610419919061432e565b60405180910390f35b34801561042d575f80fd5b50610448600480360381019061044391906143d4565b6114d4565b604051610455919061432e565b60405180910390f35b348015610469575f80fd5b50610484600480360381019061047f91906144bc565b611536565b60405161049c9c9b9a99989796959493929190614795565b60405180910390f35b6104bf60048036038101906104ba91906144bc565b6116f1565b005b3480156104cc575f80fd5b506104e760048036038101906104e29190614736565b6119c7565b005b3480156104f4575f80fd5b5061050f600480360381019061050a91906144bc565b6119e6565b005b34801561051c575f80fd5b50610537600480360381019061053291906144bc565b611c0b565b60405161054491906144f6565b60405180910390f35b6105676004803603810190610562919061485b565b611c1c565b604051610574919061490a565b60405180910390f35b348015610588575f80fd5b506105a3600480360381019061059e9190614923565b611fa1565b6040516105b0919061490a565b60405180910390f35b3480156105c4575f80fd5b506105df60048036038101906105da91906144bc565b612057565b005b3480156105ec575f80fd5b5061060760048036038101906106029190614923565b612328565b6040516106149190614a05565b60405180910390f35b348015610628575f80fd5b50610643600480360381019061063e91906144bc565b6123bb565b604051610650919061432e565b60405180910390f35b348015610664575f80fd5b5061067f600480360381019061067a91906144bc565b6123e4565b005b34801561068c575f80fd5b50610695612830565b6040516106a2919061449c565b60405180910390f35b3480156106b6575f80fd5b506106d160048036038101906106cc9190614a25565b6128c0565b005b3480156106de575f80fd5b506106f960048036038101906106f49190614b01565b6128d6565b005b348015610706575f80fd5b50610721600480360381019061071c91906144bc565b6128f3565b60405161072e919061432e565b60405180910390f35b348015610742575f80fd5b5061075d600480360381019061075891906144bc565b612977565b005b34801561076a575f80fd5b50610785600480360381019061078091906144bc565b612c4a565b604051610792919061449c565b60405180910390f35b3480156107a6575f80fd5b506107c160048036038101906107bc9190614923565b612cb0565b6040516107ce9190614a05565b60405180910390f35b6107f160048036038101906107ec91906144bc565b612d43565b005b3480156107fe575f80fd5b5061081960048036038101906108149190614b81565b613166565b604051610826919061432e565b60405180910390f35b34801561083a575f80fd5b50610855600480360381019061085091906144bc565b6131f4565b604051610866959493929190614bbf565b60405180910390f35b5f7f80ac58cd000000000000000000000000000000000000000000000000000000007bffffffffffffffffffffffffffffffffffffffffffffffffffffffff1916827bffffffffffffffffffffffffffffffffffffffffffffffffffffffff1916148061093957507f5b5e139f000000000000000000000000000000000000000000000000000000007bffffffffffffffffffffffffffffffffffffffffffffffffffffffff1916827bffffffffffffffffffffffffffffffffffffffffffffffffffffffff1916145b806109495750610948826132c5565b5b9050919050565b60075f8381526020019081526020015f205f3373ffffffffffffffffffffffffffffffffffffffff1673ffffffffffffffffffffffffffffffffffffffff1681526020019081526020015f205f9054906101000a900460ff166109e8576040517f08c379a00000000000000000000000000000000000000000000000000000000081526004016109df90614c87565b60405180910390fd5b5f60075f8481526020019081526020015f205f8373ffffffffffffffffffffffffffffffffffffffff1673ffffffffffffffffffffffffffffffffffffffff1681526020019081526020015f205f6101000a81548160ff0219169083151502179055505050565b60605f8054610a5d90614cd2565b80601f0160208091040260200160405190810160405280929190818152602001828054610a8990614cd2565b8015610ad45780601f10610aab57610100808354040283529160200191610ad4565b820191905f5260205f20905b815481529060010190602001808311610ab757829003601f168201915b5050505050905090565b5f610ae88261332e565b50610af2826133b4565b9050919050565b610b0b8282610b066133ed565b6133f4565b5050565b5f1515600b5f8781526020019081526020015f2060030160019054906101000a900460ff16151514610b76576040517f08c379a0000000000000000000000000000000000000000000000000000000008152600401610b6d90614d72565b60405180910390fd5b5f60085f8781526020019081526020015f205f0154905080851115610c46575f8186610ba29190614dbd565b905080341015610be7576040517f08c379a0000000000000000000000000000000000000000000000000000000008152600401610bde90614e60565b60405180910390fd5b5f8134610bf49190614dbd565b90505f811115610c43573373ffffffffffffffffffffffffffffffffffffffff166108fc8290811502906040515f60405180830381858888f19350505050158015610c41573d5f803e3d5ffd5b505b50505b6040518060a00160405280868152602001858152602001848152602001831515815260200160011515815250600b5f8881526020019081526020015f205f820151815f0155602082015181600101556040820151816002019081610caa919061501b565b506060820151816003015f6101000a81548160ff02191690831515021790555060808201518160030160016101000a81548160ff021916908315150217905550905050505050505050565b60075f8381526020019081526020015f205f3373ffffffffffffffffffffffffffffffffffffffff1673ffffffffffffffffffffffffffffffffffffffff1681526020019081526020015f205f9054906101000a900460ff16610d8d576040517f08c379a0000000000000000000000000000000000000000000000000000000008152600401610d849061515a565b60405180910390fd5b600160075f8481526020019081526020015f205f8373ffffffffffffffffffffffffffffffffffffffff1673ffffffffffffffffffffffffffffffffffffffff1681526020019081526020015f205f6101000a81548160ff02191690831515021790555060095f8273ffffffffffffffffffffffffffffffffffffffff1673ffffffffffffffffffffffffffffffffffffffff1681526020019081526020015f20600654908060018154018082558091505060019003905f5260205f20015f90919091909150555050565b5f73ffffffffffffffffffffffffffffffffffffffff168273ffffffffffffffffffffffffffffffffffffffff1603610ec8575f6040517f64a0ae92000000000000000000000000000000000000000000000000000000008152600401610ebf91906144f6565b60405180910390fd5b5f610edb8383610ed66133ed565b613406565b90508373ffffffffffffffffffffffffffffffffffffffff168173ffffffffffffffffffffffffffffffffffffffff1614610f51578382826040517f64283d7b000000000000000000000000000000000000000000000000000000008152600401610f4893929190615178565b60405180910390fd5b50505050565b5f610f6182611c0b565b9050919050565b3073ffffffffffffffffffffffffffffffffffffffff16636352211e826040518263ffffffff1660e01b8152600401610fa1919061490a565b602060405180830381865afa925050508015610fdb57506040513d601f19601f82011682018060405250810190610fd891906151c1565b60015b61101a576040517f08c379a000000000000000000000000000000000000000000000000000000000815260040161101190615236565b60405180910390fd5b506001151560075f8381526020019081526020015f205f3373ffffffffffffffffffffffffffffffffffffffff1673ffffffffffffffffffffffffffffffffffffffff1681526020019081526020015f205f9054906101000a900460ff161515146110ba576040517f08c379a00000000000000000000000000000000000000000000000000000000081526004016110b1906152c4565b60405180910390fd5b60085f8281526020019081526020015f206005015f9054906101000a900460ff161561111b576040517f08c379a00000000000000000000000000000000000000000000000000000000081526004016111129061532c565b60405180910390fd5b5f3390505f60085f8481526020019081526020015f205f015490508173ffffffffffffffffffffffffffffffffffffffff166108fc8290811502906040515f60405180830381858888f19350505050158015611179573d5f803e3d5ffd5b5061118383613611565b61118d8333613693565b827f2d5f5ed000d42aa6f6fc13400f7d7161cd1bea793fec354b11e3451f9f2b07c360405160405180910390a2505050565b3073ffffffffffffffffffffffffffffffffffffffff16636352211e826040518263ffffffff1660e01b81526004016111f8919061490a565b602060405180830381865afa92505050801561123257506040513d601f19601f8201168201806040525081019061122f91906151c1565b60015b611271576040517f08c379a000000000000000000000000000000000000000000000000000000000815260040161126890615236565b60405180910390fd5b506001151560075f8381526020019081526020015f205f3373ffffffffffffffffffffffffffffffffffffffff1673ffffffffffffffffffffffffffffffffffffffff1681526020019081526020015f205f9054906101000a900460ff16151514611311576040517f08c379a0000000000000000000000000000000000000000000000000000000008152600401611308906153ba565b60405180910390fd5b60085f8281526020019081526020015f206005015f9054906101000a900460ff16611371576040517f08c379a000000000000000000000000000000000000000000000000000000000815260040161136890615422565b60405180910390fd5b5f151560085f8381526020019081526020015f2060050160159054906101000a900460ff161515146113d8576040517f08c379a00000000000000000000000000000000000000000000000000000000081526004016113cf9061548a565b60405180910390fd5b4260085f8381526020019081526020015f206002015460085f8481526020019081526020015f206001015461140d91906154a8565b1161144d576040517f08c379a000000000000000000000000000000000000000000000000000000000815260040161144490615525565b60405180910390fd5b600160085f8381526020019081526020015f2060050160156101000a81548160ff021916908315150217905550807fc54419e57952d1437d40dd5b59e2a646b3b90caf014c939e27c87ea597a3ace560405160405180910390a250565b6007602052815f5260405f20602052805f5260405f205f915091509054906101000a900460ff1681565b5f60075f8481526020019081526020015f205f8373ffffffffffffffffffffffffffffffffffffffff1673ffffffffffffffffffffffffffffffffffffffff1681526020019081526020015f205f9054906101000a900460ff16905092915050565b6008602052805f5260405f205f91509050805f01549080600101549080600201549080600301805461156790614cd2565b80601f016020809104026020016040519081016040528092919081815260200182805461159390614cd2565b80156115de5780601f106115b5576101008083540402835291602001916115de565b820191905f5260205f20905b8154815290600101906020018083116115c157829003601f168201915b5050505050908060040180546115f390614cd2565b80601f016020809104026020016040519081016040528092919081815260200182805461161f90614cd2565b801561166a5780601f106116415761010080835404028352916020019161166a565b820191905f5260205f20905b81548152906001019060200180831161164d57829003601f168201915b505050505090806005015f9054906101000a900460ff16908060050160019054906101000a900473ffffffffffffffffffffffffffffffffffffffff16908060050160159054906101000a900460ff16908060050160169054906101000a900460ff16908060050160179054906101000a900460ff1690806006015490806007015490508c565b60011515600b5f8381526020019081526020015f2060030160019054906101000a900460ff16151514611759576040517f08c379a00000000000000000000000000000000000000000000000000000000081526004016117509061558d565b60405180910390fd5b5f600b5f8381526020019081526020015f206040518060a00160405290815f82015481526020016001820154815260200160028201805461179990614cd2565b80601f01602080910402602001604051908101604052809291908181526020018280546117c590614cd2565b80156118105780601f106117e757610100808354040283529160200191611810565b820191905f5260205f20905b8154815290600101906020018083116117f357829003601f168201915b50505050508152602001600382015f9054906101000a900460ff161515151581526020016003820160019054906101000a900460ff161515151581525050905060085f8381526020019081526020015f205f0154815f015110156118e6575f815f015160085f8581526020019081526020015f205f01546118919190614dbd565b90505f61189d84611c0b565b90508073ffffffffffffffffffffffffffffffffffffffff166108fc8390811502906040515f60405180830381858888f193505050501580156118e2573d5f803e3d5ffd5b5050505b805f015160085f8481526020019081526020015f205f0181905550806020015160085f8481526020019081526020015f2060020181905550806040015160085f8481526020019081526020015f206004019081611943919061501b565b5060085f8381526020019081526020015f2060050160179054906101000a900460ff16151581606001511515146119975780606001511561198c5761198782612977565b611996565b61199582612057565b5b5b5f600b5f8481526020019081526020015f2060030160016101000a81548160ff0219169083151502179055505050565b6119e183838360405180602001604052805f8152506128d6565b505050565b60011515600b5f8381526020019081526020015f2060030160019054906101000a900460ff16151514611a4e576040517f08c379a0000000000000000000000000000000000000000000000000000000008152600401611a459061558d565b60405180910390fd5b5f600b5f8381526020019081526020015f206040518060a00160405290815f820154815260200160018201548152602001600282018054611a8e90614cd2565b80601f0160208091040260200160405190810160405280929190818152602001828054611aba90614cd2565b8015611b055780601f10611adc57610100808354040283529160200191611b05565b820191905f5260205f20905b815481529060010190602001808311611ae857829003601f168201915b50505050508152602001600382015f9054906101000a900460ff161515151581526020016003820160019054906101000a900460ff161515151581525050905060085f8381526020019081526020015f205f0154815f01511115611bdb575f60085f8481526020019081526020015f205f0154825f0151611b869190614dbd565b90505f611b9284611c0b565b90508073ffffffffffffffffffffffffffffffffffffffff166108fc8390811502906040515f60405180830381858888f19350505050158015611bd7573d5f803e3d5ffd5b5050505b5f600b5f8481526020019081526020015f2060030160016101000a81548160ff0219169083151502179055505050565b5f611c158261332e565b9050919050565b5f84341015611c60576040517f08c379a0000000000000000000000000000000000000000000000000000000008152600401611c579061561b565b60405180910390fd5b60065f815480929190611c7290615639565b9190505550611c83336006546138c9565b5f8534611c909190614dbd565b90505f811115611cdf573373ffffffffffffffffffffffffffffffffffffffff166108fc8290811502906040515f60405180830381858888f19350505050158015611cdd573d5f803e3d5ffd5b505b5f6040518061018001604052808881526020014281526020018781526020018581526020018681526020015f151581526020018973ffffffffffffffffffffffffffffffffffffffff1681526020015f151581526020015f151581526020015f151581526020015f81526020015f81525090508060085f60065481526020019081526020015f205f820151815f015560208201518160010155604082015181600201556060820151816003019081611d97919061501b565b506080820151816004019081611dad919061501b565b5060a0820151816005015f6101000a81548160ff02191690831515021790555060c08201518160050160016101000a81548173ffffffffffffffffffffffffffffffffffffffff021916908373ffffffffffffffffffffffffffffffffffffffff16021790555060e08201518160050160156101000a81548160ff0219169083151502179055506101008201518160050160166101000a81548160ff0219169083151502179055506101208201518160050160176101000a81548160ff02191690831515021790555061014082015181600601556101608201518160070155905050600160075f60065481526020019081526020015f205f3373ffffffffffffffffffffffffffffffffffffffff1673ffffffffffffffffffffffffffffffffffffffff1681526020019081526020015f205f6101000a81548160ff02191690831515021790555060095f3373ffffffffffffffffffffffffffffffffffffffff1673ffffffffffffffffffffffffffffffffffffffff1681526020019081526020015f20600654908060018154018082558091505060019003905f5260205f20015f90919091909150557ff00d28232b285f24f2e38415deb2ceb31069e70d4505838b3911b4f02058502e600654604051611f89919061490a565b60405180910390a16006549250505095945050505050565b5f8073ffffffffffffffffffffffffffffffffffffffff168273ffffffffffffffffffffffffffffffffffffffff1603612012575f6040517f89c62b6400000000000000000000000000000000000000000000000000000000815260040161200991906144f6565b60405180910390fd5b60035f8373ffffffffffffffffffffffffffffffffffffffff1673ffffffffffffffffffffffffffffffffffffffff1681526020019081526020015f20549050919050565b3073ffffffffffffffffffffffffffffffffffffffff16636352211e826040518263ffffffff1660e01b8152600401612090919061490a565b602060405180830381865afa9250505080156120ca57506040513d601f19601f820116820180604052508101906120c791906151c1565b60015b612109576040517f08c379a000000000000000000000000000000000000000000000000000000000815260040161210090615236565b60405180910390fd5b506001151560075f8381526020019081526020015f205f3373ffffffffffffffffffffffffffffffffffffffff1673ffffffffffffffffffffffffffffffffffffffff1681526020019081526020015f205f9054906101000a900460ff161515146121a9576040517f08c379a00000000000000000000000000000000000000000000000000000000081526004016121a0906156f0565b60405180910390fd5b60085f8281526020019081526020015f206005015f9054906101000a900460ff16612209576040517f08c379a000000000000000000000000000000000000000000000000000000000815260040161220090615422565b60405180910390fd5b60085f8281526020019081526020015f2060050160179054906101000a900460ff1661226a576040517f08c379a000000000000000000000000000000000000000000000000000000000815260040161226190615758565b60405180910390fd5b60085f8281526020019081526020015f20600601544261228a9190614dbd565b60085f8381526020019081526020015f206007018190555060085f8281526020019081526020015f206007015460085f8381526020019081526020015f206002015f8282546122d991906154a8565b925050819055505f60085f8381526020019081526020015f20600601819055505f60085f8381526020019081526020015f2060050160176101000a81548160ff02191690831515021790555050565b606060095f8373ffffffffffffffffffffffffffffffffffffffff1673ffffffffffffffffffffffffffffffffffffffff1681526020019081526020015f208054806020026020016040519081016040528092919081815260200182805480156123af57602002820191905f5260205f20905b81548152602001906001019080831161239b575b50505050509050919050565b5f60085f8381526020019081526020015f206005015f9054906101000a900460ff169050919050565b3073ffffffffffffffffffffffffffffffffffffffff16636352211e826040518263ffffffff1660e01b815260040161241d919061490a565b602060405180830381865afa92505050801561245757506040513d601f19601f8201168201806040525081019061245491906151c1565b60015b612496576040517f08c379a000000000000000000000000000000000000000000000000000000000815260040161248d90615236565b60405180910390fd5b505f151560075f8381526020019081526020015f205f3373ffffffffffffffffffffffffffffffffffffffff1673ffffffffffffffffffffffffffffffffffffffff1681526020019081526020015f205f9054906101000a900460ff16151514612535576040517f08c379a000000000000000000000000000000000000000000000000000000000815260040161252c906157e6565b60405180910390fd5b60085f8281526020019081526020015f2060050160019054906101000a900473ffffffffffffffffffffffffffffffffffffffff1673ffffffffffffffffffffffffffffffffffffffff163373ffffffffffffffffffffffffffffffffffffffff16146125d7576040517f08c379a00000000000000000000000000000000000000000000000000000000081526004016125ce90615874565b60405180910390fd5b60085f8281526020019081526020015f206005015f9054906101000a900460ff1615612638576040517f08c379a000000000000000000000000000000000000000000000000000000000815260040161262f9061532c565b60405180910390fd5b5f151560085f8381526020019081526020015f2060050160159054906101000a900460ff1615151461269f576040517f08c379a0000000000000000000000000000000000000000000000000000000008152600401612696906158dc565b60405180910390fd5b4260085f8381526020019081526020015f206002015460085f8481526020019081526020015f20600101546126d491906154a8565b1015612715576040517f08c379a000000000000000000000000000000000000000000000000000000000815260040161270c90615944565b60405180910390fd5b600160085f8381526020019081526020015f206005015f6101000a81548160ff0219169083151502179055503360085f8381526020019081526020015f2060050160016101000a81548173ffffffffffffffffffffffffffffffffffffffff021916908373ffffffffffffffffffffffffffffffffffffffff160217905550600a5f3373ffffffffffffffffffffffffffffffffffffffff1673ffffffffffffffffffffffffffffffffffffffff1681526020019081526020015f2081908060018154018082558091505060019003905f5260205f20015f9091909190915055807fcd3b1fcca80f9caae633c3e13546995d3810e561957af92839f070c46571942c3360405161282591906144f6565b60405180910390a250565b60606001805461283f90614cd2565b80601f016020809104026020016040519081016040528092919081815260200182805461286b90614cd2565b80156128b65780601f1061288d576101008083540402835291602001916128b6565b820191905f5260205f20905b81548152906001019060200180831161289957829003601f168201915b5050505050905090565b6128d26128cb6133ed565b83836139bc565b5050565b6128e1848484610e58565b6128ed84848484613b25565b50505050565b5f6001151560085f8481526020019081526020015f2060050160159054906101000a900460ff1615150361292a5760019050612972565b60085f8381526020019081526020015f206002015460085f8481526020019081526020015f206001015461295e91906154a8565b42111561296e5760019050612972565b5f90505b919050565b3073ffffffffffffffffffffffffffffffffffffffff16636352211e826040518263ffffffff1660e01b81526004016129b0919061490a565b602060405180830381865afa9250505080156129ea57506040513d601f19601f820116820180604052508101906129e791906151c1565b60015b612a29576040517f08c379a0000000000000000000000000000000000000000000000000000000008152600401612a2090615236565b60405180910390fd5b506001151560075f8381526020019081526020015f205f3373ffffffffffffffffffffffffffffffffffffffff1673ffffffffffffffffffffffffffffffffffffffff1681526020019081526020015f205f9054906101000a900460ff16151514612ac9576040517f08c379a0000000000000000000000000000000000000000000000000000000008152600401612ac0906159d2565b60405180910390fd5b60085f8281526020019081526020015f206005015f9054906101000a900460ff16612b29576040517f08c379a0000000000000000000000000000000000000000000000000000000008152600401612b2090615422565b60405180910390fd5b4260085f8381526020019081526020015f206002015460085f8481526020019081526020015f2060010154612b5e91906154a8565b1015612b9f576040517f08c379a0000000000000000000000000000000000000000000000000000000008152600401612b9690615944565b60405180910390fd5b60085f8281526020019081526020015f2060050160179054906101000a900460ff1615612c01576040517f08c379a0000000000000000000000000000000000000000000000000000000008152600401612bf890615a3a565b60405180910390fd5b600160085f8381526020019081526020015f2060050160176101000a81548160ff0219169083151502179055504260085f8381526020019081526020015f206006018190555050565b6060612c558261332e565b505f612c5f613cd7565b90505f815111612c7d5760405180602001604052805f815250612ca8565b80612c8784613ced565b604051602001612c98929190615a92565b6040516020818303038152906040525b915050919050565b6060600a5f8373ffffffffffffffffffffffffffffffffffffffff1673ffffffffffffffffffffffffffffffffffffffff1681526020019081526020015f20805480602002602001604051908101604052809291908181526020018280548015612d3757602002820191905f5260205f20905b815481526020019060010190808311612d23575b50505050509050919050565b3073ffffffffffffffffffffffffffffffffffffffff16636352211e826040518263ffffffff1660e01b8152600401612d7c919061490a565b602060405180830381865afa925050508015612db657506040513d601f19601f82011682018060405250810190612db391906151c1565b60015b612df5576040517f08c379a0000000000000000000000000000000000000000000000000000000008152600401612dec90615236565b60405180910390fd5b5060085f8281526020019081526020015f206005015f9054906101000a900460ff16612e56576040517f08c379a0000000000000000000000000000000000000000000000000000000008152600401612e4d90615422565b60405180910390fd5b5f151560085f8381526020019081526020015f2060050160169054906101000a900460ff16151514612ebd576040517f08c379a0000000000000000000000000000000000000000000000000000000008152600401612eb490615aff565b60405180910390fd5b6001151560075f8381526020019081526020015f205f3373ffffffffffffffffffffffffffffffffffffffff1673ffffffffffffffffffffffffffffffffffffffff1681526020019081526020015f205f9054906101000a900460ff16151514612f5c576040517f08c379a0000000000000000000000000000000000000000000000000000000008152600401612f5390615b8d565b60405180910390fd5b6001151560085f8381526020019081526020015f2060050160159054906101000a900460ff1615151480612fc357504260085f8381526020019081526020015f206002015460085f8481526020019081526020015f2060010154612fc091906154a8565b11155b613002576040517f08c379a0000000000000000000000000000000000000000000000000000000008152600401612ff990615c1b565b60405180910390fd5b5f151560085f8381526020019081526020015f2060050160179054906101000a900460ff16151514613069576040517f08c379a000000000000000000000000000000000000000000000000000000000815260040161306090615c83565b60405180910390fd5b5f60085f8381526020019081526020015f2060050160019054906101000a900473ffffffffffffffffffffffffffffffffffffffff1690505f60085f8481526020019081526020015f205f015490508173ffffffffffffffffffffffffffffffffffffffff166108fc8290811502906040515f60405180830381858888f193505050501580156130fb573d5f803e3d5ffd5b50600160085f8581526020019081526020015f2060050160166101000a81548160ff021916908315150217905550827f2b52860c5e15aa76ac91d132433549dfe5214c66e36bdb998622ab221c7477c082604051613159919061490a565b60405180910390a2505050565b5f60055f8473ffffffffffffffffffffffffffffffffffffffff1673ffffffffffffffffffffffffffffffffffffffff1681526020019081526020015f205f8373ffffffffffffffffffffffffffffffffffffffff1673ffffffffffffffffffffffffffffffffffffffff1681526020019081526020015f205f9054906101000a900460ff16905092915050565b600b602052805f5260405f205f91509050805f01549080600101549080600201805461321f90614cd2565b80601f016020809104026020016040519081016040528092919081815260200182805461324b90614cd2565b80156132965780601f1061326d57610100808354040283529160200191613296565b820191905f5260205f20905b81548152906001019060200180831161327957829003601f168201915b505050505090806003015f9054906101000a900460ff16908060030160019054906101000a900460ff16905085565b5f7f01ffc9a7000000000000000000000000000000000000000000000000000000007bffffffffffffffffffffffffffffffffffffffffffffffffffffffff1916827bffffffffffffffffffffffffffffffffffffffffffffffffffffffff1916149050919050565b5f8061333983613db7565b90505f73ffffffffffffffffffffffffffffffffffffffff168173ffffffffffffffffffffffffffffffffffffffff16036133ab57826040517f7e2732890000000000000000000000000000000000000000000000000000000081526004016133a2919061490a565b60405180910390fd5b80915050919050565b5f60045f8381526020019081526020015f205f9054906101000a900473ffffffffffffffffffffffffffffffffffffffff169050919050565b5f33905090565b6134018383836001613df0565b505050565b5f8061341184613db7565b90505f73ffffffffffffffffffffffffffffffffffffffff168373ffffffffffffffffffffffffffffffffffffffff161461345257613451818486613faf565b5b5f73ffffffffffffffffffffffffffffffffffffffff168173ffffffffffffffffffffffffffffffffffffffff16146134dd576134915f855f80613df0565b600160035f8373ffffffffffffffffffffffffffffffffffffffff1673ffffffffffffffffffffffffffffffffffffffff1681526020019081526020015f205f82825403925050819055505b5f73ffffffffffffffffffffffffffffffffffffffff168573ffffffffffffffffffffffffffffffffffffffff161461355c57600160035f8773ffffffffffffffffffffffffffffffffffffffff1673ffffffffffffffffffffffffffffffffffffffff1681526020019081526020015f205f82825401925050819055505b8460025f8681526020019081526020015f205f6101000a81548173ffffffffffffffffffffffffffffffffffffffff021916908373ffffffffffffffffffffffffffffffffffffffff160217905550838573ffffffffffffffffffffffffffffffffffffffff168273ffffffffffffffffffffffffffffffffffffffff167fddf252ad1be2c89b69c2b068fc378daa952ba7f163c4a11628f55a4df523b3ef60405160405180910390a4809150509392505050565b5f61361d5f835f613406565b90505f73ffffffffffffffffffffffffffffffffffffffff168173ffffffffffffffffffffffffffffffffffffffff160361368f57816040517f7e273289000000000000000000000000000000000000000000000000000000008152600401613686919061490a565b60405180910390fd5b5050565b5f80600160095f8573ffffffffffffffffffffffffffffffffffffffff1673ffffffffffffffffffffffffffffffffffffffff1681526020019081526020015f20805490506136e29190614dbd565b90505f5b60095f8573ffffffffffffffffffffffffffffffffffffffff1673ffffffffffffffffffffffffffffffffffffffff1681526020019081526020015f20805490508110156137a7578460095f8673ffffffffffffffffffffffffffffffffffffffff1673ffffffffffffffffffffffffffffffffffffffff1681526020019081526020015f20828154811061377e5761377d615ca1565b5b905f5260205f20015403613794578092506137a7565b808061379f90615639565b9150506136e6565b508082146138635760095f8473ffffffffffffffffffffffffffffffffffffffff1673ffffffffffffffffffffffffffffffffffffffff1681526020019081526020015f2081815481106137fe576137fd615ca1565b5b905f5260205f20015460095f8573ffffffffffffffffffffffffffffffffffffffff1673ffffffffffffffffffffffffffffffffffffffff1681526020019081526020015f20838154811061385657613855615ca1565b5b905f5260205f2001819055505b60095f8473ffffffffffffffffffffffffffffffffffffffff1673ffffffffffffffffffffffffffffffffffffffff1681526020019081526020015f208054806138b0576138af615cce565b5b600190038181905f5260205f20015f9055905550505050565b5f73ffffffffffffffffffffffffffffffffffffffff168273ffffffffffffffffffffffffffffffffffffffff1603613939575f6040517f64a0ae9200000000000000000000000000000000000000000000000000000000815260040161393091906144f6565b60405180910390fd5b5f61394583835f613406565b90505f73ffffffffffffffffffffffffffffffffffffffff168173ffffffffffffffffffffffffffffffffffffffff16146139b7575f6040517f73c6ac6e0000000000000000000000000000000000000000000000000000000081526004016139ae91906144f6565b60405180910390fd5b505050565b5f73ffffffffffffffffffffffffffffffffffffffff168273ffffffffffffffffffffffffffffffffffffffff1603613a2c57816040517f5b08ba18000000000000000000000000000000000000000000000000000000008152600401613a2391906144f6565b60405180910390fd5b8060055f8573ffffffffffffffffffffffffffffffffffffffff1673ffffffffffffffffffffffffffffffffffffffff1681526020019081526020015f205f8473ffffffffffffffffffffffffffffffffffffffff1673ffffffffffffffffffffffffffffffffffffffff1681526020019081526020015f205f6101000a81548160ff0219169083151502179055508173ffffffffffffffffffffffffffffffffffffffff168373ffffffffffffffffffffffffffffffffffffffff167f17307eab39ab6107e8899845ad3d59bd9653f200f220920489ca2b5937696c3183604051613b18919061432e565b60405180910390a3505050565b5f8373ffffffffffffffffffffffffffffffffffffffff163b1115613cd1578273ffffffffffffffffffffffffffffffffffffffff1663150b7a02613b686133ed565b8685856040518563ffffffff1660e01b8152600401613b8a9493929190615d4d565b6020604051808303815f875af1925050508015613bc557506040513d601f19601f82011682018060405250810190613bc29190615dab565b60015b613c46573d805f8114613bf3576040519150601f19603f3d011682016040523d82523d5f602084013e613bf8565b606091505b505f815103613c3e57836040517f64a0ae92000000000000000000000000000000000000000000000000000000008152600401613c3591906144f6565b60405180910390fd5b805181602001fd5b63150b7a0260e01b7bffffffffffffffffffffffffffffffffffffffffffffffffffffffff1916817bffffffffffffffffffffffffffffffffffffffffffffffffffffffff191614613ccf57836040517f64a0ae92000000000000000000000000000000000000000000000000000000008152600401613cc691906144f6565b60405180910390fd5b505b50505050565b606060405180602001604052805f815250905090565b60605f6001613cfb84614072565b0190505f8167ffffffffffffffff811115613d1957613d18614555565b5b6040519080825280601f01601f191660200182016040528015613d4b5781602001600182028036833780820191505090505b5090505f82602001820190505b600115613dac578080600190039150507f3031323334353637383961626364656600000000000000000000000000000000600a86061a8153600a8581613da157613da0615dd6565b5b0494505f8503613d58575b819350505050919050565b5f60025f8381526020019081526020015f205f9054906101000a900473ffffffffffffffffffffffffffffffffffffffff169050919050565b8080613e2857505f73ffffffffffffffffffffffffffffffffffffffff168273ffffffffffffffffffffffffffffffffffffffff1614155b15613f5a575f613e378461332e565b90505f73ffffffffffffffffffffffffffffffffffffffff168373ffffffffffffffffffffffffffffffffffffffff1614158015613ea157508273ffffffffffffffffffffffffffffffffffffffff168173ffffffffffffffffffffffffffffffffffffffff1614155b8015613eb45750613eb28184613166565b155b15613ef657826040517fa9fbf51f000000000000000000000000000000000000000000000000000000008152600401613eed91906144f6565b60405180910390fd5b8115613f5857838573ffffffffffffffffffffffffffffffffffffffff168273ffffffffffffffffffffffffffffffffffffffff167f8c5be1e5ebec7d5bd14f71427d1e84f3dd0314c0f7b2291e5b200ac8c7c3b92560405160405180910390a45b505b8360045f8581526020019081526020015f205f6101000a81548173ffffffffffffffffffffffffffffffffffffffff021916908373ffffffffffffffffffffffffffffffffffffffff16021790555050505050565b613fba8383836141c3565b61406d575f73ffffffffffffffffffffffffffffffffffffffff168373ffffffffffffffffffffffffffffffffffffffff160361402e57806040517f7e273289000000000000000000000000000000000000000000000000000000008152600401614025919061490a565b60405180910390fd5b81816040517f177e802f000000000000000000000000000000000000000000000000000000008152600401614064929190615e03565b60405180910390fd5b505050565b5f805f90507a184f03e93ff9f4daa797ed6e38ed64bf6a1f01000000000000000083106140ce577a184f03e93ff9f4daa797ed6e38ed64bf6a1f01000000000000000083816140c4576140c3615dd6565b5b0492506040810190505b6d04ee2d6d415b85acef8100000000831061410b576d04ee2d6d415b85acef8100000000838161410157614100615dd6565b5b0492506020810190505b662386f26fc10000831061413a57662386f26fc1000083816141305761412f615dd6565b5b0492506010810190505b6305f5e1008310614163576305f5e100838161415957614158615dd6565b5b0492506008810190505b612710831061418857612710838161417e5761417d615dd6565b5b0492506004810190505b606483106141ab57606483816141a1576141a0615dd6565b5b0492506002810190505b600a83106141ba576001810190505b80915050919050565b5f8073ffffffffffffffffffffffffffffffffffffffff168373ffffffffffffffffffffffffffffffffffffffff161415801561427a57508273ffffffffffffffffffffffffffffffffffffffff168473ffffffffffffffffffffffffffffffffffffffff16148061423b575061423a8484613166565b5b8061427957508273ffffffffffffffffffffffffffffffffffffffff16614261836133b4565b73ffffffffffffffffffffffffffffffffffffffff16145b5b90509392505050565b5f604051905090565b5f80fd5b5f80fd5b5f7fffffffff0000000000000000000000000000000000000000000000000000000082169050919050565b6142c881614294565b81146142d2575f80fd5b50565b5f813590506142e3816142bf565b92915050565b5f602082840312156142fe576142fd61428c565b5b5f61430b848285016142d5565b91505092915050565b5f8115159050919050565b61432881614314565b82525050565b5f6020820190506143415f83018461431f565b92915050565b5f819050919050565b61435981614347565b8114614363575f80fd5b50565b5f8135905061437481614350565b92915050565b5f73ffffffffffffffffffffffffffffffffffffffff82169050919050565b5f6143a38261437a565b9050919050565b6143b381614399565b81146143bd575f80fd5b50565b5f813590506143ce816143aa565b92915050565b5f80604083850312156143ea576143e961428c565b5b5f6143f785828601614366565b9250506020614408858286016143c0565b9150509250929050565b5f81519050919050565b5f82825260208201905092915050565b5f5b8381101561444957808201518184015260208101905061442e565b5f8484015250505050565b5f601f19601f8301169050919050565b5f61446e82614412565b614478818561441c565b935061448881856020860161442c565b61449181614454565b840191505092915050565b5f6020820190508181035f8301526144b48184614464565b905092915050565b5f602082840312156144d1576144d061428c565b5b5f6144de84828501614366565b91505092915050565b6144f081614399565b82525050565b5f6020820190506145095f8301846144e7565b92915050565b5f80604083850312156145255761452461428c565b5b5f614532858286016143c0565b925050602061454385828601614366565b9150509250929050565b5f80fd5b5f80fd5b7f4e487b71000000000000000000000000000000000000000000000000000000005f52604160045260245ffd5b61458b82614454565b810181811067ffffffffffffffff821117156145aa576145a9614555565b5b80604052505050565b5f6145bc614283565b90506145c88282614582565b919050565b5f67ffffffffffffffff8211156145e7576145e6614555565b5b6145f082614454565b9050602081019050919050565b828183375f83830152505050565b5f61461d614618846145cd565b6145b3565b90508281526020810184848401111561463957614638614551565b5b6146448482856145fd565b509392505050565b5f82601f8301126146605761465f61454d565b5b813561467084826020860161460b565b91505092915050565b61468281614314565b811461468c575f80fd5b50565b5f8135905061469d81614679565b92915050565b5f805f805f60a086880312156146bc576146bb61428c565b5b5f6146c988828901614366565b95505060206146da88828901614366565b94505060406146eb88828901614366565b935050606086013567ffffffffffffffff81111561470c5761470b614290565b5b6147188882890161464c565b92505060806147298882890161468f565b9150509295509295909350565b5f805f6060848603121561474d5761474c61428c565b5b5f61475a868287016143c0565b935050602061476b868287016143c0565b925050604061477c86828701614366565b9150509250925092565b61478f81614347565b82525050565b5f610180820190506147a95f83018f614786565b6147b6602083018e614786565b6147c3604083018d614786565b81810360608301526147d5818c614464565b905081810360808301526147e9818b614464565b90506147f860a083018a61431f565b61480560c08301896144e7565b61481260e083018861431f565b61482061010083018761431f565b61482e61012083018661431f565b61483c610140830185614786565b61484a610160830184614786565b9d9c50505050505050505050505050565b5f805f805f60a086880312156148745761487361428c565b5b5f614881888289016143c0565b955050602061489288828901614366565b94505060406148a388828901614366565b935050606086013567ffffffffffffffff8111156148c4576148c3614290565b5b6148d08882890161464c565b925050608086013567ffffffffffffffff8111156148f1576148f0614290565b5b6148fd8882890161464c565b9150509295509295909350565b5f60208201905061491d5f830184614786565b92915050565b5f602082840312156149385761493761428c565b5b5f614945848285016143c0565b91505092915050565b5f81519050919050565b5f82825260208201905092915050565b5f819050602082019050919050565b61498081614347565b82525050565b5f6149918383614977565b60208301905092915050565b5f602082019050919050565b5f6149b38261494e565b6149bd8185614958565b93506149c883614968565b805f5b838110156149f85781516149df8882614986565b97506149ea8361499d565b9250506001810190506149cb565b5085935050505092915050565b5f6020820190508181035f830152614a1d81846149a9565b905092915050565b5f8060408385031215614a3b57614a3a61428c565b5b5f614a48858286016143c0565b9250506020614a598582860161468f565b9150509250929050565b5f67ffffffffffffffff821115614a7d57614a7c614555565b5b614a8682614454565b9050602081019050919050565b5f614aa5614aa084614a63565b6145b3565b905082815260208101848484011115614ac157614ac0614551565b5b614acc8482856145fd565b509392505050565b5f82601f830112614ae857614ae761454d565b5b8135614af8848260208601614a93565b91505092915050565b5f805f8060808587031215614b1957614b1861428c565b5b5f614b26878288016143c0565b9450506020614b37878288016143c0565b9350506040614b4887828801614366565b925050606085013567ffffffffffffffff811115614b6957614b68614290565b5b614b7587828801614ad4565b91505092959194509250565b5f8060408385031215614b9757614b9661428c565b5b5f614ba4858286016143c0565b9250506020614bb5858286016143c0565b9150509250929050565b5f60a082019050614bd25f830188614786565b614bdf6020830187614786565b8181036040830152614bf18186614464565b9050614c00606083018561431f565b614c0d608083018461431f565b9695505050505050565b7f536f6c6f20756e206d616e61676572206465206573746520636f6e747261746f5f8201527f207075656465207265766f636172206f74726f206d616e616765720000000000602082015250565b5f614c71603b8361441c565b9150614c7c82614c17565b604082019050919050565b5f6020820190508181035f830152614c9e81614c65565b9050919050565b7f4e487b71000000000000000000000000000000000000000000000000000000005f52602260045260245ffd5b5f6002820490506001821680614ce957607f821691505b602082108103614cfc57614cfb614ca5565b5b50919050565b7f59612068617920756e2063616d62696f2070726f70756573746f2070617261205f8201527f6573746520636f6e747261746f00000000000000000000000000000000000000602082015250565b5f614d5c602d8361441c565b9150614d6782614d02565b604082019050919050565b5f6020820190508181035f830152614d8981614d50565b9050919050565b7f4e487b71000000000000000000000000000000000000000000000000000000005f52601160045260245ffd5b5f614dc782614347565b9150614dd283614347565b9250828203905081811115614dea57614de9614d90565b5b92915050565b7f466f6e646f7320696e737566696369656e7465732070617261206375627269725f8201527f20656c20696e6372656d656e746f2064656c2073616c6172696f000000000000602082015250565b5f614e4a603a8361441c565b9150614e5582614df0565b604082019050919050565b5f6020820190508181035f830152614e7781614e3e565b9050919050565b5f819050815f5260205f209050919050565b5f6020601f8301049050919050565b5f82821b905092915050565b5f60088302614eda7fffffffffffffffffffffffffffffffffffffffffffffffffffffffffffffffff82614e9f565b614ee48683614e9f565b95508019841693508086168417925050509392505050565b5f819050919050565b5f614f1f614f1a614f1584614347565b614efc565b614347565b9050919050565b5f819050919050565b614f3883614f05565b614f4c614f4482614f26565b848454614eab565b825550505050565b5f90565b614f60614f54565b614f6b818484614f2f565b505050565b5b81811015614f8e57614f835f82614f58565b600181019050614f71565b5050565b601f821115614fd357614fa481614e7e565b614fad84614e90565b81016020851015614fbc578190505b614fd0614fc885614e90565b830182614f70565b50505b505050565b5f82821c905092915050565b5f614ff35f1984600802614fd8565b1980831691505092915050565b5f61500b8383614fe4565b9150826002028217905092915050565b61502482614412565b67ffffffffffffffff81111561503d5761503c614555565b5b6150478254614cd2565b615052828285614f92565b5f60209050601f831160018114615083575f8415615071578287015190505b61507b8582615000565b8655506150e2565b601f19841661509186614e7e565b5f5b828110156150b857848901518255600182019150602085019450602081019050615093565b868310156150d557848901516150d1601f891682614fe4565b8355505b6001600288020188555050505b505050505050565b7f536f6c6f20756e206d616e61676572206465206573746520636f6e747261746f5f8201527f20707565646520617369676e6172206f74726f206d616e616765720000000000602082015250565b5f615144603b8361441c565b915061514f826150ea565b604082019050919050565b5f6020820190508181035f83015261517181615138565b9050919050565b5f60608201905061518b5f8301866144e7565b6151986020830185614786565b6151a560408301846144e7565b949350505050565b5f815190506151bb816143aa565b92915050565b5f602082840312156151d6576151d561428c565b5b5f6151e3848285016151ad565b91505092915050565b7f456c20746f6b656e206e6f206578697374652e000000000000000000000000005f82015250565b5f61522060138361441c565b915061522b826151ec565b602082019050919050565b5f6020820190508181035f83015261524d81615214565b9050919050565b7f536f6c6f20756e206d616e616765722070756564652063616e63656c617220755f8201527f6e20636f6e747261746f00000000000000000000000000000000000000000000602082015250565b5f6152ae602a8361441c565b91506152b982615254565b604082019050919050565b5f6020820190508181035f8301526152db816152a2565b9050919050565b7f456c20636f6e747261746f207961206861207369646f206669726d61646f00005f82015250565b5f615316601e8361441c565b9150615321826152e2565b602082019050919050565b5f6020820190508181035f8301526153438161530a565b9050919050565b7f536f6c6f20756e206d616e616765722070756564652066696e616c697a6172205f8201527f756e20636f6e747261746f000000000000000000000000000000000000000000602082015250565b5f6153a4602b8361441c565b91506153af8261534a565b604082019050919050565b5f6020820190508181035f8301526153d181615398565b9050919050565b7f456c20636f6e747261746f206e6f206861207369646f206669726d61646f00005f82015250565b5f61540c601e8361441c565b9150615417826153d8565b602082019050919050565b5f6020820190508181035f83015261543981615400565b9050919050565b7f456c20636f6e747261746f2079612068612066696e616c697a61646f000000005f82015250565b5f615474601c8361441c565b915061547f82615440565b602082019050919050565b5f6020820190508181035f8301526154a181615468565b9050919050565b5f6154b282614347565b91506154bd83614347565b92508282019050808211156154d5576154d4614d90565b5b92915050565b7f456c20636f6e747261746f20796120686120657870697261646f0000000000005f82015250565b5f61550f601a8361441c565b915061551a826154db565b602082019050919050565b5f6020820190508181035f83015261553c81615503565b9050919050565b7f4e6f206861792063616d62696f732070726f70756573746f73000000000000005f82015250565b5f61557760198361441c565b915061558282615543565b602082019050919050565b5f6020820190508181035f8301526155a48161556b565b9050919050565b7f4465646520656e7669617220656c2073616c6172696f20636f6d6f2076616c6f5f8201527f722064656c20636f6e747261746f000000000000000000000000000000000000602082015250565b5f615605602e8361441c565b9150615610826155ab565b604082019050919050565b5f6020820190508181035f830152615632816155f9565b9050919050565b5f61564382614347565b91507fffffffffffffffffffffffffffffffffffffffffffffffffffffffffffffffff820361567557615674614d90565b5b600182019050919050565b7f536f6c6f20756e206d616e61676572207075656465207265616e7564617220755f8201527f6e20636f6e747261746f00000000000000000000000000000000000000000000602082015250565b5f6156da602a8361441c565b91506156e582615680565b604082019050919050565b5f6020820190508181035f830152615707816156ce565b9050919050565b7f456c20636f6e747261746f206e6f2065737461207061757361646f00000000005f82015250565b5f615742601b8361441c565b915061574d8261570e565b602082019050919050565b5f6020820190508181035f83015261576f81615736565b9050919050565b7f4e6f20707565646573206669726d61722074752070726f70696f20636f6e74725f8201527f61746f0000000000000000000000000000000000000000000000000000000000602082015250565b5f6157d060238361441c565b91506157db82615776565b604082019050919050565b5f6020820190508181035f8301526157fd816157c4565b9050919050565b7f536f6c6f20656c2074726162616a61646f72207075656465206669726d6172205f8201527f656c20636f6e747261746f000000000000000000000000000000000000000000602082015250565b5f61585e602b8361441c565b915061586982615804565b604082019050919050565b5f6020820190508181035f83015261588b81615852565b9050919050565b7f456c20636f6e747261746f2068612066696e616c697a61646f000000000000005f82015250565b5f6158c660198361441c565b91506158d182615892565b602082019050919050565b5f6020820190508181035f8301526158f3816158ba565b9050919050565b7f456c20636f6e747261746f20686120657870697261646f0000000000000000005f82015250565b5f61592e60178361441c565b9150615939826158fa565b602082019050919050565b5f6020820190508181035f83015261595b81615922565b9050919050565b7f536f6c6f20756e206d616e616765722070756564652070617573617220756e205f8201527f636f6e747261746f000000000000000000000000000000000000000000000000602082015250565b5f6159bc60288361441c565b91506159c782615962565b604082019050919050565b5f6020820190508181035f8301526159e9816159b0565b9050919050565b7f456c20636f6e747261746f2079612065737461207061757361646f00000000005f82015250565b5f615a24601b8361441c565b9150615a2f826159f0565b602082019050919050565b5f6020820190508181035f830152615a5181615a18565b9050919050565b5f81905092915050565b5f615a6c82614412565b615a768185615a58565b9350615a8681856020860161442c565b80840191505092915050565b5f615a9d8285615a62565b9150615aa98284615a62565b91508190509392505050565b7f456c2073616c6172696f207961206861207369646f206c6962657261646f00005f82015250565b5f615ae9601e8361441c565b9150615af482615ab5565b602082019050919050565b5f6020820190508181035f830152615b1681615add565b9050919050565b7f536f6c6f20756e206d616e61676572207075656465206c69626572617220656c5f8201527f2073616c6172696f000000000000000000000000000000000000000000000000602082015250565b5f615b7760288361441c565b9150615b8282615b1d565b604082019050919050565b5f6020820190508181035f830152615ba481615b6b565b9050919050565b7f456c20636f6e747261746f206e6f20686120657870697261646f2061756e206f5f8201527f206e6f2068612066696e616c697a61646f000000000000000000000000000000602082015250565b5f615c0560318361441c565b9150615c1082615bab565b604082019050919050565b5f6020820190508181035f830152615c3281615bf9565b9050919050565b7f456c20636f6e747261746f2065737461207061757361646f00000000000000005f82015250565b5f615c6d60188361441c565b9150615c7882615c39565b602082019050919050565b5f6020820190508181035f830152615c9a81615c61565b9050919050565b7f4e487b71000000000000000000000000000000000000000000000000000000005f52603260045260245ffd5b7f4e487b71000000000000000000000000000000000000000000000000000000005f52603160045260245ffd5b5f81519050919050565b5f82825260208201905092915050565b5f615d1f82615cfb565b615d298185615d05565b9350615d3981856020860161442c565b615d4281614454565b840191505092915050565b5f608082019050615d605f8301876144e7565b615d6d60208301866144e7565b615d7a6040830185614786565b8181036060830152615d8c8184615d15565b905095945050505050565b5f81519050615da5816142bf565b92915050565b5f60208284031215615dc057615dbf61428c565b5b5f615dcd84828501615d97565b91505092915050565b7f4e487b71000000000000000000000000000000000000000000000000000000005f52601260045260245ffd5b5f604082019050615e165f8301856144e7565b615e236020830184614786565b939250505056fea2646970667358221220a8138b18898947032d16574a9a6a21e2e2c1838d1a4b749492873119431dcda964736f6c63430008140033",
  "immutableReferences": {},
  "source": "// SPDX-License-Identifier: MIT\r\npragma solidity ^0.8.20;\r\n\r\nimport \"@openzeppelin/contracts/token/ERC721/ERC721.sol\";\r\n\r\ncontract MyContract is ERC721 {\r\n    uint256 tokenID;\r\n    mapping(uint256 => mapping(address => bool)) public tokenManagers;\r\n    mapping(uint256 => ContractDetails) public contractDetails;\r\n    mapping(address => uint256[]) private contractsOwner;\r\n    mapping(address => uint256[]) private activeContractsOfWorker;\r\n    mapping(uint256 => ChangeProposal) public changeProposals;\r\n\r\n    struct ContractDetails {\r\n        uint256 salary;\r\n        uint256 startDate;\r\n        uint256 duration;\r\n        string title;\r\n        string description;\r\n        bool isSigned;\r\n        address worker;\r\n        bool isFinished;\r\n        bool isReleased;\r\n        bool isPaused;\r\n        uint256 pauseTime;\r\n        uint256 pauseDuration;\r\n    }\r\n\r\n    struct ChangeProposal {\r\n        uint256 newSalary;\r\n        uint256 newDuration;\r\n        string newDescription;\r\n        bool isPaused;\r\n        bool isPending;\r\n    }\r\n\r\n    event ContractSigned(uint256 indexed tokenId, address worker);\r\n    event SalaryReleased(uint256 indexed tokenId, uint256 salary);\r\n    event TokenMinted(uint256 tokenId);\r\n    event ContractCancelled(uint256 indexed tokenId);\r\n    event ContractFinalized(uint256 indexed tokenId);\r\n    event Debug(\r\n        uint256 currentSalary,\r\n        uint256 newSalary,\r\n        uint256 salaryDifference,\r\n        uint256 msgValue\r\n    );\r\n\r\n    constructor() ERC721(\"MyToken\", \"MTK\") {}\r\n\r\n    function mint(\r\n        address _to,\r\n        uint256 _salary,\r\n        uint256 _duration,\r\n        string memory _description,\r\n        string memory _title\r\n    ) public payable returns (uint256) {\r\n        require(\r\n            msg.value >= _salary,\r\n            \"Dede enviar el salario como valor del contrato\"\r\n        );\r\n        tokenID++;\r\n        _mint(msg.sender, tokenID);\r\n        uint256 remainder = msg.value - _salary;\r\n        if (remainder > 0) {\r\n            payable(msg.sender).transfer(remainder);\r\n        }\r\n\r\n        ContractDetails memory newContract = ContractDetails({\r\n            salary: _salary,\r\n            startDate: block.timestamp,\r\n            duration: _duration,\r\n            title: _title,\r\n            description: _description,\r\n            isSigned: false,\r\n            worker: _to,\r\n            isFinished: false,\r\n            isReleased: false,\r\n            isPaused: false,\r\n            pauseTime: 0,\r\n            pauseDuration: 0\r\n        });\r\n\r\n        contractDetails[tokenID] = newContract;\r\n        tokenManagers[tokenID][msg.sender] = true;\r\n        contractsOwner[msg.sender].push(tokenID);\r\n        emit TokenMinted(tokenID);\r\n\r\n        return tokenID;\r\n    }\r\n\r\n    function signContract(uint256 _tokenID) public {\r\n        try this.ownerOf(_tokenID) {} catch {\r\n            revert(\"El token no existe.\"); // he intentado hacerlo con _exists pero no me ha funcionado\r\n        }\r\n        require(\r\n            tokenManagers[_tokenID][msg.sender] == false,\r\n            \"No puedes firmar tu propio contrato\"\r\n        );\r\n        require(\r\n            msg.sender == contractDetails[_tokenID].worker,\r\n            \"Solo el trabajador puede firmar el contrato\"\r\n        );\r\n        require(\r\n            !contractDetails[_tokenID].isSigned,\r\n            \"El contrato ya ha sido firmado\"\r\n        );\r\n        require(\r\n            contractDetails[_tokenID].isFinished == false,\r\n            \"El contrato ha finalizado\"\r\n        );\r\n        require(\r\n            contractDetails[_tokenID].startDate +\r\n                contractDetails[_tokenID].duration >=\r\n                block.timestamp,\r\n            \"El contrato ha expirado\"\r\n        );\r\n\r\n        contractDetails[_tokenID].isSigned = true;\r\n        contractDetails[_tokenID].worker = msg.sender;\r\n        activeContractsOfWorker[msg.sender].push(_tokenID);\r\n        emit ContractSigned(_tokenID, msg.sender);\r\n    }\r\n\r\n    function releaseSalary(uint256 _tokenID) public payable {\r\n        try this.ownerOf(_tokenID) {} catch {\r\n            revert(\"El token no existe.\"); // he intentado hacerlo con _exists pero no me ha funcionado\r\n        }\r\n        require(\r\n            contractDetails[_tokenID].isSigned,\r\n            \"El contrato no ha sido firmado\"\r\n        );\r\n        require(\r\n            contractDetails[_tokenID].isReleased == false,\r\n            \"El salario ya ha sido liberado\"\r\n        );\r\n        require(\r\n            tokenManagers[_tokenID][msg.sender] == true,\r\n            \"Solo un manager puede liberar el salario\"\r\n        );\r\n        require(\r\n            contractDetails[_tokenID].isFinished == true ||\r\n                contractDetails[_tokenID].startDate +\r\n                    contractDetails[_tokenID].duration <=\r\n                block.timestamp,\r\n            \"El contrato no ha expirado aun o no ha finalizado\"\r\n        );\r\n        require(\r\n            contractDetails[_tokenID].isPaused == false,\r\n            \"El contrato esta pausado\"\r\n        );\r\n\r\n        address payable worker = payable(contractDetails[_tokenID].worker);\r\n        uint256 salary = contractDetails[_tokenID].salary;\r\n        worker.transfer(salary);\r\n        contractDetails[_tokenID].isReleased = true;\r\n        emit SalaryReleased(_tokenID, salary);\r\n    }\r\n\r\n    function finalizeContract(uint256 _tokenID) public {\r\n        try this.ownerOf(_tokenID) {} catch {\r\n            revert(\"El token no existe.\"); // he intentado hacerlo con _exists pero no me ha funcionado\r\n        }\r\n        require(\r\n            tokenManagers[_tokenID][msg.sender] == true,\r\n            \"Solo un manager puede finalizar un contrato\"\r\n        );\r\n        require(\r\n            contractDetails[_tokenID].isSigned,\r\n            \"El contrato no ha sido firmado\"\r\n        );\r\n        require(\r\n            contractDetails[_tokenID].isFinished == false,\r\n            \"El contrato ya ha finalizado\"\r\n        );\r\n        require(\r\n            contractDetails[_tokenID].startDate +\r\n                contractDetails[_tokenID].duration >\r\n                block.timestamp,\r\n            \"El contrato ya ha expirado\"\r\n        );\r\n\r\n        contractDetails[_tokenID].isFinished = true;\r\n        emit ContractFinalized(_tokenID);\r\n    }\r\n\r\n    function pauseContract(uint256 _tokenID) public {\r\n        try this.ownerOf(_tokenID) {} catch {\r\n            revert(\"El token no existe.\"); // he intentado hacerlo con _exists pero no me ha funcionado\r\n        }\r\n        require(\r\n            tokenManagers[_tokenID][msg.sender] == true,\r\n            \"Solo un manager puede pausar un contrato\"\r\n        );\r\n        require(\r\n            contractDetails[_tokenID].isSigned,\r\n            \"El contrato no ha sido firmado\"\r\n        );\r\n        require(\r\n            contractDetails[_tokenID].startDate +\r\n                contractDetails[_tokenID].duration >=\r\n                block.timestamp,\r\n            \"El contrato ha expirado\"\r\n        );\r\n        require(\r\n            !contractDetails[_tokenID].isPaused,\r\n            \"El contrato ya esta pausado\"\r\n        );\r\n\r\n        contractDetails[_tokenID].isPaused = true;\r\n        contractDetails[_tokenID].pauseTime = block.timestamp;\r\n    }\r\n\r\n    function unPauseContract(uint256 _tokenID) public {\r\n        try this.ownerOf(_tokenID) {} catch {\r\n            revert(\"El token no existe.\"); // he intentado hacerlo con _exists pero no me ha funcionado\r\n        }\r\n        require(\r\n            tokenManagers[_tokenID][msg.sender] == true,\r\n            \"Solo un manager puede reanudar un contrato\"\r\n        );\r\n        require(\r\n            contractDetails[_tokenID].isSigned,\r\n            \"El contrato no ha sido firmado\"\r\n        );\r\n        require(\r\n            contractDetails[_tokenID].isPaused,\r\n            \"El contrato no esta pausado\"\r\n        );\r\n\r\n        contractDetails[_tokenID].pauseDuration =\r\n            block.timestamp -\r\n            contractDetails[_tokenID].pauseTime;\r\n\r\n        contractDetails[_tokenID].duration += contractDetails[_tokenID]\r\n            .pauseDuration;\r\n\r\n        contractDetails[_tokenID].pauseTime = 0;\r\n        contractDetails[_tokenID].isPaused = false;\r\n    }\r\n\r\n    function cancelContract(uint256 _tokenID) public {\r\n        try this.ownerOf(_tokenID) {} catch {\r\n            revert(\"El token no existe.\"); // he intentado hacerlo con _exists pero no me ha funcionado\r\n        }\r\n        require(\r\n            tokenManagers[_tokenID][msg.sender] == true,\r\n            \"Solo un manager puede cancelar un contrato\"\r\n        );\r\n        require(\r\n            !contractDetails[_tokenID].isSigned,\r\n            \"El contrato ya ha sido firmado\"\r\n        );\r\n\r\n        address payable owner = payable(msg.sender);\r\n        uint256 salary = contractDetails[_tokenID].salary;\r\n        owner.transfer(salary);\r\n        _burn(_tokenID);\r\n        removeContractFromOwner(_tokenID, msg.sender);\r\n        emit ContractCancelled(_tokenID);\r\n    }\r\n\r\n    function removeContractFromOwner(\r\n        uint256 _tokenId,\r\n        address _owner\r\n    ) internal {\r\n        uint256 contractIndex;\r\n        uint256 lastContractIndex = contractsOwner[_owner].length - 1;\r\n        for (uint i = 0; i < contractsOwner[_owner].length; i++) {\r\n            if (contractsOwner[_owner][i] == _tokenId) {\r\n                contractIndex = i;\r\n                break;\r\n            }\r\n        }\r\n\r\n        if (contractIndex != lastContractIndex) {\r\n            contractsOwner[_owner][contractIndex] = contractsOwner[_owner][\r\n                lastContractIndex\r\n            ];\r\n        }\r\n        contractsOwner[_owner].pop();\r\n    }\r\n\r\n    function assignManagerToToken(\r\n        uint256 _tokenId,\r\n        address _newManager\r\n    ) public {\r\n        require(\r\n            tokenManagers[_tokenId][msg.sender],\r\n            \"Solo un manager de este contrato puede asignar otro manager\"\r\n        );\r\n        tokenManagers[_tokenId][_newManager] = true;\r\n        contractsOwner[_newManager].push(tokenID);\r\n    }\r\n\r\n    function revokeManagerFromToken(uint256 _tokenId, address _manager) public {\r\n        require(\r\n            tokenManagers[_tokenId][msg.sender],\r\n            \"Solo un manager de este contrato puede revocar otro manager\"\r\n        );\r\n        tokenManagers[_tokenId][_manager] = false;\r\n    }\r\n\r\n    function isManagerOfToken(\r\n        uint256 _tokenId,\r\n        address _manager\r\n    ) public view returns (bool) {\r\n        return tokenManagers[_tokenId][_manager];\r\n    }\r\n\r\n    //funcion para proponer un cambio en un contrato\r\n    function proposeChange(\r\n        uint256 _tokenID,\r\n        uint256 _newSalary,\r\n        uint256 _newDuration,\r\n        string memory _newDescription,\r\n        bool _isPaused\r\n    ) public payable {\r\n        require(\r\n            changeProposals[_tokenID].isPending == false,\r\n            \"Ya hay un cambio propuesto para este contrato\"\r\n        );\r\n        uint256 currentSalary = contractDetails[_tokenID].salary;\r\n        if (_newSalary > currentSalary) {\r\n            uint256 salaryDifference = _newSalary - currentSalary;\r\n            require(\r\n                msg.value >= salaryDifference,\r\n                \"Fondos insuficientes para cubrir el incremento del salario\"\r\n            );\r\n\r\n            uint256 excessAmount = msg.value - salaryDifference;\r\n            if (excessAmount > 0) {\r\n                payable(msg.sender).transfer(excessAmount);\r\n            }\r\n        }\r\n\r\n        changeProposals[_tokenID] = ChangeProposal({\r\n            newSalary: _newSalary,\r\n            newDuration: _newDuration,\r\n            newDescription: _newDescription,\r\n            isPaused: _isPaused,\r\n            isPending: true\r\n        });\r\n    }\r\n\r\n    //funcion para rechazar un cambio propuesto\r\n    function rejectChange(uint256 _tokenID) public {\r\n        require(\r\n            changeProposals[_tokenID].isPending == true,\r\n            \"No hay cambios propuestos\"\r\n        );\r\n        ChangeProposal memory proposedChange = changeProposals[_tokenID];\r\n\r\n        if (proposedChange.newSalary > contractDetails[_tokenID].salary) {\r\n            uint256 salaryDifference = proposedChange.newSalary -\r\n                contractDetails[_tokenID].salary;\r\n            address owner = ownerOf(_tokenID);\r\n            payable(owner).transfer(salaryDifference);\r\n        }\r\n\r\n        changeProposals[_tokenID].isPending = false;\r\n    }\r\n\r\n    //Funcion para modificar un contrato que no haya sido firmado\r\n    function applyChange(uint256 _tokenID) public payable {\r\n        require(\r\n            changeProposals[_tokenID].isPending == true,\r\n            \"No hay cambios propuestos\"\r\n        );\r\n        ChangeProposal memory proposedChange = changeProposals[_tokenID];\r\n\r\n        if (proposedChange.newSalary < contractDetails[_tokenID].salary) {\r\n            uint256 refundAmount = contractDetails[_tokenID].salary -\r\n                proposedChange.newSalary;\r\n            address owner = ownerOf(_tokenID);\r\n            payable(owner).transfer(refundAmount);\r\n        }\r\n\r\n        contractDetails[_tokenID].salary = proposedChange.newSalary;\r\n        contractDetails[_tokenID].duration = proposedChange.newDuration;\r\n        contractDetails[_tokenID].description = proposedChange.newDescription;\r\n\r\n        if (proposedChange.isPaused != contractDetails[_tokenID].isPaused) {\r\n            if (proposedChange.isPaused) {\r\n                pauseContract(_tokenID);\r\n            } else {\r\n                unPauseContract(_tokenID);\r\n            }\r\n        }\r\n\r\n        changeProposals[_tokenID].isPending = false;\r\n    }\r\n\r\n    function getContractsFromOwner(\r\n        address _address\r\n    ) public view returns (uint256[] memory) {\r\n        return contractsOwner[_address];\r\n    }\r\n\r\n    function getContractsOfWorker(\r\n        address _address\r\n    ) public view returns (uint256[] memory) {\r\n        return activeContractsOfWorker[_address];\r\n    }\r\n\r\n    function isContractFinished(uint256 _tokenID) public view returns (bool) {\r\n        if (contractDetails[_tokenID].isFinished == true) {\r\n            return true;\r\n        }\r\n\r\n        if (\r\n            block.timestamp >\r\n            contractDetails[_tokenID].startDate +\r\n                contractDetails[_tokenID].duration\r\n        ) {\r\n            return true;\r\n        }\r\n\r\n        return false;\r\n    }\r\n\r\n    function isContractSigned(uint256 _tokenID) public view returns (bool) {\r\n        return contractDetails[_tokenID].isSigned;\r\n    }\r\n\r\n    function getOwnerOfContract(\r\n        uint256 _tokenID\r\n    ) public view returns (address) {\r\n        return ownerOf(_tokenID);\r\n    }\r\n}\r\n",
  "sourcePath": "E:\\AppContract\\ubu-contractme\\Code\\SmartContract\\contracts\\MyContract.sol",
  "compiler": {
    "name": "solc",
    "version": "0.8.20+commit.a1b79de6.Emscripten.clang"
  },
  "schemaVersion": "3.4.16",
  "updatedAt": "2024-01-26T10:30:41.568Z",
  "networkType": "ethereum",
  "devdoc": {
    "errors": {
      "ERC721IncorrectOwner(address,uint256,address)": [
        {
          "details": "Indicates an error related to the ownership over a particular token. Used in transfers.",
          "params": {
            "owner": "Address of the current owner of a token.",
            "sender": "Address whose tokens are being transferred.",
            "tokenId": "Identifier number of a token."
          }
        }
      ],
      "ERC721InsufficientApproval(address,uint256)": [
        {
          "details": "Indicates a failure with the `operator`s approval. Used in transfers.",
          "params": {
            "operator": "Address that may be allowed to operate on tokens without being their owner.",
            "tokenId": "Identifier number of a token."
          }
        }
      ],
      "ERC721InvalidApprover(address)": [
        {
          "details": "Indicates a failure with the `approver` of a token to be approved. Used in approvals.",
          "params": {
            "approver": "Address initiating an approval operation."
          }
        }
      ],
      "ERC721InvalidOperator(address)": [
        {
          "details": "Indicates a failure with the `operator` to be approved. Used in approvals.",
          "params": {
            "operator": "Address that may be allowed to operate on tokens without being their owner."
          }
        }
      ],
      "ERC721InvalidOwner(address)": [
        {
          "details": "Indicates that an address can't be an owner. For example, `address(0)` is a forbidden owner in EIP-20. Used in balance queries.",
          "params": {
            "owner": "Address of the current owner of a token."
          }
        }
      ],
      "ERC721InvalidReceiver(address)": [
        {
          "details": "Indicates a failure with the token `receiver`. Used in transfers.",
          "params": {
            "receiver": "Address to which tokens are being transferred."
          }
        }
      ],
      "ERC721InvalidSender(address)": [
        {
          "details": "Indicates a failure with the token `sender`. Used in transfers.",
          "params": {
            "sender": "Address whose tokens are being transferred."
          }
        }
      ],
      "ERC721NonexistentToken(uint256)": [
        {
          "details": "Indicates a `tokenId` whose `owner` is the zero address.",
          "params": {
            "tokenId": "Identifier number of a token."
          }
        }
      ]
    },
    "events": {
      "Approval(address,address,uint256)": {
        "details": "Emitted when `owner` enables `approved` to manage the `tokenId` token."
      },
      "ApprovalForAll(address,address,bool)": {
        "details": "Emitted when `owner` enables or disables (`approved`) `operator` to manage all of its assets."
      },
      "Transfer(address,address,uint256)": {
        "details": "Emitted when `tokenId` token is transferred from `from` to `to`."
      }
    },
    "kind": "dev",
    "methods": {
      "approve(address,uint256)": {
        "details": "See {IERC721-approve}."
      },
      "balanceOf(address)": {
        "details": "See {IERC721-balanceOf}."
      },
      "getApproved(uint256)": {
        "details": "See {IERC721-getApproved}."
      },
      "isApprovedForAll(address,address)": {
        "details": "See {IERC721-isApprovedForAll}."
      },
      "name()": {
        "details": "See {IERC721Metadata-name}."
      },
      "ownerOf(uint256)": {
        "details": "See {IERC721-ownerOf}."
      },
      "safeTransferFrom(address,address,uint256)": {
        "details": "See {IERC721-safeTransferFrom}."
      },
      "safeTransferFrom(address,address,uint256,bytes)": {
        "details": "See {IERC721-safeTransferFrom}."
      },
      "setApprovalForAll(address,bool)": {
        "details": "See {IERC721-setApprovalForAll}."
      },
      "supportsInterface(bytes4)": {
        "details": "See {IERC165-supportsInterface}."
      },
      "symbol()": {
        "details": "See {IERC721Metadata-symbol}."
      },
      "tokenURI(uint256)": {
        "details": "See {IERC721Metadata-tokenURI}."
      },
      "transferFrom(address,address,uint256)": {
        "details": "See {IERC721-transferFrom}."
      }
    },
    "version": 1
  },
  "userdoc": {
    "kind": "user",
    "methods": {},
    "version": 1
  }
}