{
  "contractName": "MyContractAux",
  "abi": [
    {
      "inputs": [
        {
          "internalType": "address",
          "name": "sender",
          "type": "address"
        },
        {
          "internalType": "uint256",
          "name": "tokenId",
          "type": "uint256"
        },
        {
          "internalType": "address",
          "name": "owner",
          "type": "address"
        }
      ],
      "name": "ERC721IncorrectOwner",
      "type": "error"
    },
    {
      "inputs": [
        {
          "internalType": "address",
          "name": "operator",
          "type": "address"
        },
        {
          "internalType": "uint256",
          "name": "tokenId",
          "type": "uint256"
        }
      ],
      "name": "ERC721InsufficientApproval",
      "type": "error"
    },
    {
      "inputs": [
        {
          "internalType": "address",
          "name": "approver",
          "type": "address"
        }
      ],
      "name": "ERC721InvalidApprover",
      "type": "error"
    },
    {
      "inputs": [
        {
          "internalType": "address",
          "name": "operator",
          "type": "address"
        }
      ],
      "name": "ERC721InvalidOperator",
      "type": "error"
    },
    {
      "inputs": [
        {
          "internalType": "address",
          "name": "owner",
          "type": "address"
        }
      ],
      "name": "ERC721InvalidOwner",
      "type": "error"
    },
    {
      "inputs": [
        {
          "internalType": "address",
          "name": "receiver",
          "type": "address"
        }
      ],
      "name": "ERC721InvalidReceiver",
      "type": "error"
    },
    {
      "inputs": [
        {
          "internalType": "address",
          "name": "sender",
          "type": "address"
        }
      ],
      "name": "ERC721InvalidSender",
      "type": "error"
    },
    {
      "inputs": [
        {
          "internalType": "uint256",
          "name": "tokenId",
          "type": "uint256"
        }
      ],
      "name": "ERC721NonexistentToken",
      "type": "error"
    },
    {
      "anonymous": false,
      "inputs": [
        {
          "indexed": true,
          "internalType": "address",
          "name": "owner",
          "type": "address"
        },
        {
          "indexed": true,
          "internalType": "address",
          "name": "approved",
          "type": "address"
        },
        {
          "indexed": true,
          "internalType": "uint256",
          "name": "tokenId",
          "type": "uint256"
        }
      ],
      "name": "Approval",
      "type": "event"
    },
    {
      "anonymous": false,
      "inputs": [
        {
          "indexed": true,
          "internalType": "uint256",
          "name": "tokenId",
          "type": "uint256"
        },
        {
          "indexed": true,
          "internalType": "address",
          "name": "employer",
          "type": "address"
        },
        {
          "indexed": false,
          "internalType": "uint256",
          "name": "salary",
          "type": "uint256"
        },
        {
          "indexed": false,
          "internalType": "uint256",
          "name": "newSalary",
          "type": "uint256"
        },
        {
          "indexed": false,
          "internalType": "uint256",
          "name": "timestamp",
          "type": "uint256"
        }
      ],
      "name": "ApprovalChanges",
      "type": "event"
    },
    {
      "anonymous": false,
      "inputs": [
        {
          "indexed": true,
          "internalType": "address",
          "name": "owner",
          "type": "address"
        },
        {
          "indexed": true,
          "internalType": "address",
          "name": "operator",
          "type": "address"
        },
        {
          "indexed": false,
          "internalType": "bool",
          "name": "approved",
          "type": "bool"
        }
      ],
      "name": "ApprovalForAll",
      "type": "event"
    },
    {
      "anonymous": false,
      "inputs": [
        {
          "indexed": true,
          "internalType": "uint256",
          "name": "tokenId",
          "type": "uint256"
        },
        {
          "indexed": true,
          "internalType": "address",
          "name": "employer",
          "type": "address"
        },
        {
          "indexed": true,
          "internalType": "address",
          "name": "worker",
          "type": "address"
        },
        {
          "indexed": false,
          "internalType": "uint256",
          "name": "salary",
          "type": "uint256"
        },
        {
          "indexed": false,
          "internalType": "uint256",
          "name": "timestamp",
          "type": "uint256"
        }
      ],
      "name": "ContractCancelled",
      "type": "event"
    },
    {
      "anonymous": false,
      "inputs": [
        {
          "indexed": true,
          "internalType": "uint256",
          "name": "tokenId",
          "type": "uint256"
        },
        {
          "indexed": true,
          "internalType": "address",
          "name": "employer",
          "type": "address"
        },
        {
          "indexed": true,
          "internalType": "address",
          "name": "worker",
          "type": "address"
        },
        {
          "indexed": false,
          "internalType": "uint256",
          "name": "timestamp",
          "type": "uint256"
        }
      ],
      "name": "ContractFinalized",
      "type": "event"
    },
    {
      "anonymous": false,
      "inputs": [
        {
          "indexed": true,
          "internalType": "uint256",
          "name": "tokenId",
          "type": "uint256"
        },
        {
          "indexed": true,
          "internalType": "address",
          "name": "employer",
          "type": "address"
        },
        {
          "indexed": true,
          "internalType": "address",
          "name": "worker",
          "type": "address"
        },
        {
          "indexed": false,
          "internalType": "uint256",
          "name": "timestamp",
          "type": "uint256"
        }
      ],
      "name": "ContractSigned",
      "type": "event"
    },
    {
      "anonymous": false,
      "inputs": [
        {
          "indexed": true,
          "internalType": "uint256",
          "name": "tokenId",
          "type": "uint256"
        },
        {
          "indexed": true,
          "internalType": "address",
          "name": "employer",
          "type": "address"
        },
        {
          "indexed": false,
          "internalType": "uint256",
          "name": "timestamp",
          "type": "uint256"
        }
      ],
      "name": "RejectChanges",
      "type": "event"
    },
    {
      "anonymous": false,
      "inputs": [
        {
          "indexed": true,
          "internalType": "uint256",
          "name": "tokenId",
          "type": "uint256"
        },
        {
          "indexed": false,
          "internalType": "uint256",
          "name": "salary",
          "type": "uint256"
        },
        {
          "indexed": true,
          "internalType": "address",
          "name": "employer",
          "type": "address"
        },
        {
          "indexed": true,
          "internalType": "address",
          "name": "worker",
          "type": "address"
        },
        {
          "indexed": false,
          "internalType": "uint256",
          "name": "timestamp",
          "type": "uint256"
        }
      ],
      "name": "SalaryReleased",
      "type": "event"
    },
    {
      "anonymous": false,
      "inputs": [
        {
          "indexed": false,
          "internalType": "uint256",
          "name": "tokenId",
          "type": "uint256"
        },
        {
          "indexed": true,
          "internalType": "address",
          "name": "employer",
          "type": "address"
        },
        {
          "indexed": false,
          "internalType": "uint256",
          "name": "salary",
          "type": "uint256"
        },
        {
          "indexed": false,
          "internalType": "uint256",
          "name": "timestamp",
          "type": "uint256"
        }
      ],
      "name": "TokenMinted",
      "type": "event"
    },
    {
      "anonymous": false,
      "inputs": [
        {
          "indexed": true,
          "internalType": "address",
          "name": "from",
          "type": "address"
        },
        {
          "indexed": true,
          "internalType": "address",
          "name": "to",
          "type": "address"
        },
        {
          "indexed": true,
          "internalType": "uint256",
          "name": "tokenId",
          "type": "uint256"
        }
      ],
      "name": "Transfer",
      "type": "event"
    },
    {
      "inputs": [
        {
          "internalType": "address",
          "name": "",
          "type": "address"
        },
        {
          "internalType": "uint256",
          "name": "",
          "type": "uint256"
        }
      ],
      "name": "activeContractsOfWorker",
      "outputs": [
        {
          "internalType": "uint256",
          "name": "",
          "type": "uint256"
        }
      ],
      "stateMutability": "view",
      "type": "function",
      "constant": true
    },
    {
      "inputs": [
        {
          "internalType": "uint256",
          "name": "_tokenID",
          "type": "uint256"
        }
      ],
      "name": "applyChange",
      "outputs": [],
      "stateMutability": "payable",
      "type": "function",
      "payable": true
    },
    {
      "inputs": [
        {
          "internalType": "address",
          "name": "to",
          "type": "address"
        },
        {
          "internalType": "uint256",
          "name": "tokenId",
          "type": "uint256"
        }
      ],
      "name": "approve",
      "outputs": [],
      "stateMutability": "nonpayable",
      "type": "function"
    },
    {
      "inputs": [
        {
          "internalType": "uint256",
          "name": "_tokenID",
          "type": "uint256"
        },
        {
          "internalType": "address",
          "name": "_newManager",
          "type": "address"
        }
      ],
      "name": "assignManagerToToken",
      "outputs": [],
      "stateMutability": "nonpayable",
      "type": "function"
    },
    {
      "inputs": [
        {
          "internalType": "address",
          "name": "owner",
          "type": "address"
        }
      ],
      "name": "balanceOf",
      "outputs": [
        {
          "internalType": "uint256",
          "name": "",
          "type": "uint256"
        }
      ],
      "stateMutability": "view",
      "type": "function",
      "constant": true
    },
    {
      "inputs": [
        {
          "internalType": "uint256",
          "name": "_tokenID",
          "type": "uint256"
        }
      ],
      "name": "cancelContract",
      "outputs": [],
      "stateMutability": "nonpayable",
      "type": "function"
    },
    {
      "inputs": [
        {
          "internalType": "uint256",
          "name": "",
          "type": "uint256"
        }
      ],
      "name": "changeProposals",
      "outputs": [
        {
          "internalType": "string",
          "name": "newTitle",
          "type": "string"
        },
        {
          "internalType": "uint256",
          "name": "newSalary",
          "type": "uint256"
        },
        {
          "internalType": "uint256",
          "name": "newDuration",
          "type": "uint256"
        },
        {
          "internalType": "string",
          "name": "newDescription",
          "type": "string"
        },
        {
          "internalType": "bool",
          "name": "isPaused",
          "type": "bool"
        },
        {
          "internalType": "bool",
          "name": "isPending",
          "type": "bool"
        }
      ],
      "stateMutability": "view",
      "type": "function",
      "constant": true
    },
    {
      "inputs": [
        {
          "internalType": "uint256",
          "name": "",
          "type": "uint256"
        }
      ],
      "name": "contractDetails",
      "outputs": [
        {
          "internalType": "uint256",
          "name": "salary",
          "type": "uint256"
        },
        {
          "internalType": "uint256",
          "name": "startDate",
          "type": "uint256"
        },
        {
          "internalType": "uint256",
          "name": "duration",
          "type": "uint256"
        },
        {
          "internalType": "string",
          "name": "title",
          "type": "string"
        },
        {
          "internalType": "string",
          "name": "description",
          "type": "string"
        },
        {
          "internalType": "bool",
          "name": "isSigned",
          "type": "bool"
        },
        {
          "internalType": "address",
          "name": "worker",
          "type": "address"
        },
        {
          "internalType": "bool",
          "name": "isFinished",
          "type": "bool"
        },
        {
          "internalType": "bool",
          "name": "isReleased",
          "type": "bool"
        },
        {
          "internalType": "bool",
          "name": "isPaused",
          "type": "bool"
        },
        {
          "internalType": "uint256",
          "name": "pauseTime",
          "type": "uint256"
        },
        {
          "internalType": "uint256",
          "name": "pauseDuration",
          "type": "uint256"
        }
      ],
      "stateMutability": "view",
      "type": "function",
      "constant": true
    },
    {
      "inputs": [
        {
          "internalType": "address",
          "name": "",
          "type": "address"
        },
        {
          "internalType": "uint256",
          "name": "",
          "type": "uint256"
        }
      ],
      "name": "contractsOwner",
      "outputs": [
        {
          "internalType": "uint256",
          "name": "",
          "type": "uint256"
        }
      ],
      "stateMutability": "view",
      "type": "function",
      "constant": true
    },
    {
      "inputs": [
        {
          "internalType": "uint256",
          "name": "_tokenID",
          "type": "uint256"
        }
      ],
      "name": "finalizeContract",
      "outputs": [],
      "stateMutability": "nonpayable",
      "type": "function"
    },
    {
      "inputs": [
        {
          "internalType": "uint256",
          "name": "tokenId",
          "type": "uint256"
        }
      ],
      "name": "getApproved",
      "outputs": [
        {
          "internalType": "address",
          "name": "",
          "type": "address"
        }
      ],
      "stateMutability": "view",
      "type": "function",
      "constant": true
    },
    {
      "inputs": [
        {
          "internalType": "address",
          "name": "owner",
          "type": "address"
        },
        {
          "internalType": "address",
          "name": "operator",
          "type": "address"
        }
      ],
      "name": "isApprovedForAll",
      "outputs": [
        {
          "internalType": "bool",
          "name": "",
          "type": "bool"
        }
      ],
      "stateMutability": "view",
      "type": "function",
      "constant": true
    },
    {
      "inputs": [
        {
          "internalType": "uint256",
          "name": "_tokenID",
          "type": "uint256"
        }
      ],
      "name": "isContractFinished",
      "outputs": [
        {
          "internalType": "bool",
          "name": "",
          "type": "bool"
        }
      ],
      "stateMutability": "view",
      "type": "function",
      "constant": true
    },
    {
      "inputs": [
        {
          "internalType": "address",
          "name": "_to",
          "type": "address"
        },
        {
          "internalType": "uint256",
          "name": "_salary",
          "type": "uint256"
        },
        {
          "internalType": "uint256",
          "name": "_start",
          "type": "uint256"
        },
        {
          "internalType": "uint256",
          "name": "_duration",
          "type": "uint256"
        },
        {
          "internalType": "string",
          "name": "_description",
          "type": "string"
        },
        {
          "internalType": "string",
          "name": "_title",
          "type": "string"
        }
      ],
      "name": "mint",
      "outputs": [
        {
          "internalType": "uint256",
          "name": "",
          "type": "uint256"
        }
      ],
      "stateMutability": "payable",
      "type": "function",
      "payable": true
    },
    {
      "inputs": [],
      "name": "name",
      "outputs": [
        {
          "internalType": "string",
          "name": "",
          "type": "string"
        }
      ],
      "stateMutability": "view",
      "type": "function",
      "constant": true
    },
    {
      "inputs": [
        {
          "internalType": "uint256",
          "name": "tokenId",
          "type": "uint256"
        }
      ],
      "name": "ownerOf",
      "outputs": [
        {
          "internalType": "address",
          "name": "",
          "type": "address"
        }
      ],
      "stateMutability": "view",
      "type": "function",
      "constant": true
    },
    {
      "inputs": [
        {
          "internalType": "uint256",
          "name": "_tokenID",
          "type": "uint256"
        }
      ],
      "name": "pauseContract",
      "outputs": [],
      "stateMutability": "nonpayable",
      "type": "function"
    },
    {
      "inputs": [
        {
          "internalType": "uint256",
          "name": "_tokenID",
          "type": "uint256"
        },
        {
          "internalType": "string",
          "name": "_newTitle",
          "type": "string"
        },
        {
          "internalType": "uint256",
          "name": "_newSalary",
          "type": "uint256"
        },
        {
          "internalType": "uint256",
          "name": "_newDuration",
          "type": "uint256"
        },
        {
          "internalType": "string",
          "name": "_newDescription",
          "type": "string"
        },
        {
          "internalType": "bool",
          "name": "_isPaused",
          "type": "bool"
        }
      ],
      "name": "proposeChange",
      "outputs": [],
      "stateMutability": "payable",
      "type": "function",
      "payable": true
    },
    {
      "inputs": [
        {
          "internalType": "uint256",
          "name": "_tokenID",
          "type": "uint256"
        }
      ],
      "name": "rejectChange",
      "outputs": [],
      "stateMutability": "nonpayable",
      "type": "function"
    },
    {
      "inputs": [
        {
          "internalType": "uint256",
          "name": "_tokenID",
          "type": "uint256"
        }
      ],
      "name": "releaseSalary",
      "outputs": [],
      "stateMutability": "payable",
      "type": "function",
      "payable": true
    },
    {
      "inputs": [
        {
          "internalType": "uint256",
          "name": "_tokenId",
          "type": "uint256"
        },
        {
          "internalType": "address",
          "name": "_manager",
          "type": "address"
        }
      ],
      "name": "revokeManagerFromToken",
      "outputs": [],
      "stateMutability": "nonpayable",
      "type": "function"
    },
    {
      "inputs": [
        {
          "internalType": "address",
          "name": "from",
          "type": "address"
        },
        {
          "internalType": "address",
          "name": "to",
          "type": "address"
        },
        {
          "internalType": "uint256",
          "name": "tokenId",
          "type": "uint256"
        }
      ],
      "name": "safeTransferFrom",
      "outputs": [],
      "stateMutability": "nonpayable",
      "type": "function"
    },
    {
      "inputs": [
        {
          "internalType": "address",
          "name": "from",
          "type": "address"
        },
        {
          "internalType": "address",
          "name": "to",
          "type": "address"
        },
        {
          "internalType": "uint256",
          "name": "tokenId",
          "type": "uint256"
        },
        {
          "internalType": "bytes",
          "name": "data",
          "type": "bytes"
        }
      ],
      "name": "safeTransferFrom",
      "outputs": [],
      "stateMutability": "nonpayable",
      "type": "function"
    },
    {
      "inputs": [
        {
          "internalType": "address",
          "name": "operator",
          "type": "address"
        },
        {
          "internalType": "bool",
          "name": "approved",
          "type": "bool"
        }
      ],
      "name": "setApprovalForAll",
      "outputs": [],
      "stateMutability": "nonpayable",
      "type": "function"
    },
    {
      "inputs": [
        {
          "internalType": "uint256",
          "name": "_tokenID",
          "type": "uint256"
        }
      ],
      "name": "signContract",
      "outputs": [],
      "stateMutability": "nonpayable",
      "type": "function"
    },
    {
      "inputs": [
        {
          "internalType": "bytes4",
          "name": "interfaceId",
          "type": "bytes4"
        }
      ],
      "name": "supportsInterface",
      "outputs": [
        {
          "internalType": "bool",
          "name": "",
          "type": "bool"
        }
      ],
      "stateMutability": "view",
      "type": "function",
      "constant": true
    },
    {
      "inputs": [],
      "name": "symbol",
      "outputs": [
        {
          "internalType": "string",
          "name": "",
          "type": "string"
        }
      ],
      "stateMutability": "view",
      "type": "function",
      "constant": true
    },
    {
      "inputs": [],
      "name": "tokenID",
      "outputs": [
        {
          "internalType": "uint256",
          "name": "",
          "type": "uint256"
        }
      ],
      "stateMutability": "view",
      "type": "function",
      "constant": true
    },
    {
      "inputs": [
        {
          "internalType": "uint256",
          "name": "",
          "type": "uint256"
        },
        {
          "internalType": "address",
          "name": "",
          "type": "address"
        }
      ],
      "name": "tokenManagers",
      "outputs": [
        {
          "internalType": "bool",
          "name": "",
          "type": "bool"
        }
      ],
      "stateMutability": "view",
      "type": "function",
      "constant": true
    },
    {
      "inputs": [
        {
          "internalType": "uint256",
          "name": "",
          "type": "uint256"
        },
        {
          "internalType": "uint256",
          "name": "",
          "type": "uint256"
        }
      ],
      "name": "tokenManagersList",
      "outputs": [
        {
          "internalType": "address",
          "name": "",
          "type": "address"
        }
      ],
      "stateMutability": "view",
      "type": "function",
      "constant": true
    },
    {
      "inputs": [
        {
          "internalType": "uint256",
          "name": "tokenId",
          "type": "uint256"
        }
      ],
      "name": "tokenURI",
      "outputs": [
        {
          "internalType": "string",
          "name": "",
          "type": "string"
        }
      ],
      "stateMutability": "view",
      "type": "function",
      "constant": true
    },
    {
      "inputs": [
        {
          "internalType": "address",
          "name": "from",
          "type": "address"
        },
        {
          "internalType": "address",
          "name": "to",
          "type": "address"
        },
        {
          "internalType": "uint256",
          "name": "tokenId",
          "type": "uint256"
        }
      ],
      "name": "transferFrom",
      "outputs": [],
      "stateMutability": "nonpayable",
      "type": "function"
    },
    {
      "inputs": [
        {
          "internalType": "uint256",
          "name": "_tokenID",
          "type": "uint256"
        }
      ],
      "name": "unPauseContract",
      "outputs": [],
      "stateMutability": "nonpayable",
      "type": "function"
    },
    {
      "inputs": [
        {
          "internalType": "address",
          "name": "",
          "type": "address"
        },
        {
          "internalType": "uint256",
          "name": "",
          "type": "uint256"
        }
      ],
      "name": "unsignedContractsOfWorker",
      "outputs": [
        {
          "internalType": "uint256",
          "name": "",
          "type": "uint256"
        }
      ],
      "stateMutability": "view",
      "type": "function",
      "constant": true
    },
    {
      "inputs": [
        {
          "internalType": "uint256",
          "name": "_tokenId",
          "type": "uint256"
        }
      ],
      "name": "getManagersOfToken",
      "outputs": [
        {
          "internalType": "address[]",
          "name": "",
          "type": "address[]"
        }
      ],
      "stateMutability": "view",
      "type": "function",
      "constant": true
    },
    {
      "inputs": [
        {
          "internalType": "address",
          "name": "_address",
          "type": "address"
        }
      ],
      "name": "getContractsFromOwner",
      "outputs": [
        {
          "internalType": "uint256[]",
          "name": "",
          "type": "uint256[]"
        }
      ],
      "stateMutability": "view",
      "type": "function",
      "constant": true
    },
    {
      "inputs": [
        {
          "internalType": "address",
          "name": "_address",
          "type": "address"
        }
      ],
      "name": "getContractsOfWorker",
      "outputs": [
        {
          "internalType": "uint256[]",
          "name": "",
          "type": "uint256[]"
        }
      ],
      "stateMutability": "view",
      "type": "function",
      "constant": true
    },
    {
      "inputs": [
        {
          "internalType": "address",
          "name": "worker",
          "type": "address"
        }
      ],
      "name": "getUnsignedContractsOfWorker",
      "outputs": [
        {
          "internalType": "uint256[]",
          "name": "",
          "type": "uint256[]"
        }
      ],
      "stateMutability": "view",
      "type": "function",
      "constant": true
    },
    {
      "inputs": [
        {
          "internalType": "uint256",
          "name": "_tokenId",
          "type": "uint256"
        }
      ],
      "name": "tokenExists",
      "outputs": [
        {
          "internalType": "bool",
          "name": "",
          "type": "bool"
        }
      ],
      "stateMutability": "view",
      "type": "function",
      "constant": true
    },
    {
      "inputs": [
        {
          "internalType": "uint256",
          "name": "_tokenID",
          "type": "uint256"
        }
      ],
      "name": "isContractSigned",
      "outputs": [
        {
          "internalType": "bool",
          "name": "",
          "type": "bool"
        }
      ],
      "stateMutability": "view",
      "type": "function",
      "constant": true
    },
    {
      "inputs": [
        {
          "internalType": "uint256",
          "name": "_tokenID",
          "type": "uint256"
        }
      ],
      "name": "getOwnerOfContract",
      "outputs": [
        {
          "internalType": "address",
          "name": "",
          "type": "address"
        }
      ],
      "stateMutability": "view",
      "type": "function",
      "constant": true
    }
  ],
  "bytecode": "0x608060405234801562000010575f80fd5b506040518060400160405280600781526020017f4d79546f6b656e000000000000000000000000000000000000000000000000008152506040518060400160405280600381526020017f4d544b0000000000000000000000000000000000000000000000000000000000815250815f90816200008d91906200030c565b5080600190816200009f91906200030c565b505050620003f0565b5f81519050919050565b7f4e487b71000000000000000000000000000000000000000000000000000000005f52604160045260245ffd5b7f4e487b71000000000000000000000000000000000000000000000000000000005f52602260045260245ffd5b5f60028204905060018216806200012457607f821691505b6020821081036200013a5762000139620000df565b5b50919050565b5f819050815f5260205f209050919050565b5f6020601f8301049050919050565b5f82821b905092915050565b5f600883026200019e7fffffffffffffffffffffffffffffffffffffffffffffffffffffffffffffffff8262000161565b620001aa868362000161565b95508019841693508086168417925050509392505050565b5f819050919050565b5f819050919050565b5f620001f4620001ee620001e884620001c2565b620001cb565b620001c2565b9050919050565b5f819050919050565b6200020f83620001d4565b620002276200021e82620001fb565b8484546200016d565b825550505050565b5f90565b6200023d6200022f565b6200024a81848462000204565b505050565b5b818110156200027157620002655f8262000233565b60018101905062000250565b5050565b601f821115620002c0576200028a8162000140565b620002958462000152565b81016020851015620002a5578190505b620002bd620002b48562000152565b8301826200024f565b50505b505050565b5f82821c905092915050565b5f620002e25f1984600802620002c5565b1980831691505092915050565b5f620002fc8383620002d1565b9150826002028217905092915050565b6200031782620000a8565b67ffffffffffffffff811115620003335762000332620000b2565b5b6200033f82546200010c565b6200034c82828562000275565b5f60209050601f83116001811462000382575f84156200036d578287015190505b620003798582620002ef565b865550620003e8565b601f198416620003928662000140565b5f5b82811015620003bb5784890151825560018201915060208501945060208101905062000394565b86831015620003db5784890151620003d7601f891682620002d1565b8355505b6001600288020188555050505b505050505050565b615faa80620003fe5f395ff3fe608060405260043610610244575f3560e01c80635376574411610138578063a8dd8964116100b5578063c87b56dd11610079578063c87b56dd14610901578063d053b4511461093d578063e1b1462014610979578063e2c07c7b146109b5578063e985e9c5146109d1578063fc5a4efe14610a0d57610244565b8063a8dd896414610809578063b88d4fde14610839578063bc3a8e9e14610861578063bce871561461089d578063c2852f38146108d957610244565b806393a43c19116100fc57806393a43c19146107295780639537e8d11461076557806395d89b411461078d578063a22cb465146107b7578063a5c42ef1146107df57610244565b806353765744146106115780636352211e1461064d57806370a082311461068957806389b83d3e146106c557806390d16ce4146106ed57610244565b806328047450116101c6578063409283d01161018a578063409283d01461054d57806342842e0e1461056957806345f18460146105915780634ec3e2aa146105cd5780634f73d79d146105f557610244565b8063280474501461043e5780632907eb1614610466578063294a79311461048e5780633330a55f146104ca57806336a2d6f51461051157610244565b8063095ea7b31161020d578063095ea7b31461034e57806323133e4c146103765780632355e217146103b257806323b872dd146103da57806323e0f2371461040257610244565b8062923f9e1461024857806301ffc9a714610284578063045b6a4e146102c057806306fdde03146102e8578063081812fc14610312575b5f80fd5b348015610253575f80fd5b5061026e60048036038101906102699190614be7565b610a4e565b60405161027b9190614c2c565b60405180910390f35b34801561028f575f80fd5b506102aa60048036038101906102a59190614c9a565b610ad9565b6040516102b79190614c2c565b60405180910390f35b3480156102cb575f80fd5b506102e660048036038101906102e19190614d1f565b610bba565b005b3480156102f3575f80fd5b506102fc610dc0565b6040516103099190614de7565b60405180910390f35b34801561031d575f80fd5b5061033860048036038101906103339190614be7565b610e4f565b6040516103459190614e16565b60405180910390f35b348015610359575f80fd5b50610374600480360381019061036f9190614e2f565b610e6a565b005b348015610381575f80fd5b5061039c60048036038101906103979190614e6d565b610e80565b6040516103a99190614f4f565b60405180910390f35b3480156103bd575f80fd5b506103d860048036038101906103d39190614d1f565b6110a4565b005b3480156103e5575f80fd5b5061040060048036038101906103fb9190614f6f565b611352565b005b34801561040d575f80fd5b5061042860048036038101906104239190614be7565b611451565b6040516104359190614e16565b60405180910390f35b348015610449575f80fd5b50610464600480360381019061045f9190614be7565b611462565b005b348015610471575f80fd5b5061048c60048036038101906104879190614be7565b611729565b005b348015610499575f80fd5b506104b460048036038101906104af9190614d1f565b6119bd565b6040516104c19190614c2c565b60405180910390f35b3480156104d5575f80fd5b506104f060048036038101906104eb9190614be7565b6119e7565b6040516105089c9b9a99989796959493929190614fce565b60405180910390f35b34801561051c575f80fd5b5061053760048036038101906105329190615094565b611ba2565b6040516105449190614e16565b60405180910390f35b61056760048036038101906105629190614be7565b611bea565b005b348015610574575f80fd5b5061058f600480360381019061058a9190614f6f565b611fd4565b005b34801561059c575f80fd5b506105b760048036038101906105b29190614e2f565b611ff3565b6040516105c491906150d2565b60405180910390f35b3480156105d8575f80fd5b506105f360048036038101906105ee9190614be7565b61201e565b005b61060f600480360381019061060a9190615241565b612337565b005b34801561061c575f80fd5b5061063760048036038101906106329190614be7565b6125d1565b60405161064491906153b9565b60405180910390f35b348015610658575f80fd5b50610673600480360381019061066e9190614be7565b61266d565b6040516106809190614e16565b60405180910390f35b348015610694575f80fd5b506106af60048036038101906106aa9190614e6d565b61267e565b6040516106bc91906150d2565b60405180910390f35b3480156106d0575f80fd5b506106eb60048036038101906106e69190614be7565b612734565b005b3480156106f8575f80fd5b50610713600480360381019061070e9190614e6d565b612855565b6040516107209190614f4f565b60405180910390f35b348015610734575f80fd5b5061074f600480360381019061074a9190614be7565b6128e8565b60405161075c9190614c2c565b60405180910390f35b348015610770575f80fd5b5061078b60048036038101906107869190614be7565b612911565b005b348015610798575f80fd5b506107a1612c8f565b6040516107ae9190614de7565b60405180910390f35b3480156107c2575f80fd5b506107dd60048036038101906107d891906153d9565b612d1f565b005b3480156107ea575f80fd5b506107f3612d35565b60405161080091906150d2565b60405180910390f35b610823600480360381019061081e9190615417565b612d3b565b60405161083091906150d2565b60405180910390f35b348015610844575f80fd5b5061085f600480360381019061085a9190615576565b61314a565b005b34801561086c575f80fd5b5061088760048036038101906108829190614e2f565b613167565b60405161089491906150d2565b60405180910390f35b3480156108a8575f80fd5b506108c360048036038101906108be9190614be7565b613192565b6040516108d09190614c2c565b60405180910390f35b3480156108e4575f80fd5b506108ff60048036038101906108fa9190614be7565b6132e8565b005b34801561090c575f80fd5b5061092760048036038101906109229190614be7565b613393565b6040516109349190614de7565b60405180910390f35b348015610948575f80fd5b50610963600480360381019061095e9190614e6d565b6133f9565b6040516109709190614f4f565b60405180910390f35b348015610984575f80fd5b5061099f600480360381019061099a9190614e2f565b61348c565b6040516109ac91906150d2565b60405180910390f35b6109cf60048036038101906109ca9190614be7565b6134b7565b005b3480156109dc575f80fd5b506109f760048036038101906109f291906155f6565b6137a7565b604051610a049190614c2c565b60405180910390f35b348015610a18575f80fd5b50610a336004803603810190610a2e9190614be7565b613835565b604051610a4596959493929190615634565b60405180910390f35b5f3073ffffffffffffffffffffffffffffffffffffffff16636352211e836040518263ffffffff1660e01b8152600401610a8891906150d2565b602060405180830381865afa925050508015610ac257506040513d601f19601f82011682018060405250810190610abf91906156b5565b60015b610ace575f9050610ad4565b50600190505b919050565b5f7f80ac58cd000000000000000000000000000000000000000000000000000000007bffffffffffffffffffffffffffffffffffffffffffffffffffffffff1916827bffffffffffffffffffffffffffffffffffffffffffffffffffffffff19161480610ba357507f5b5e139f000000000000000000000000000000000000000000000000000000007bffffffffffffffffffffffffffffffffffffffffffffffffffffffff1916827bffffffffffffffffffffffffffffffffffffffffffffffffffffffff1916145b80610bb35750610bb282613992565b5b9050919050565b610bc38261266d565b73ffffffffffffffffffffffffffffffffffffffff163373ffffffffffffffffffffffffffffffffffffffff16148015610c52575060085f8381526020019081526020015f205f8273ffffffffffffffffffffffffffffffffffffffff1673ffffffffffffffffffffffffffffffffffffffff1681526020019081526020015f205f9054906101000a900460ff165b610c91576040517f08c379a0000000000000000000000000000000000000000000000000000000008152600401610c889061572a565b60405180910390fd5b5f5b600c5f8481526020019081526020015f2080549050811015610d4e578173ffffffffffffffffffffffffffffffffffffffff16600c5f8581526020019081526020015f208281548110610ce957610ce8615748565b5b905f5260205f20015f9054906101000a900473ffffffffffffffffffffffffffffffffffffffff1673ffffffffffffffffffffffffffffffffffffffff1603610d3b57610d3683826139fb565b610d4e565b8080610d46906157a2565b915050610c93565b505f60085f8481526020019081526020015f205f8373ffffffffffffffffffffffffffffffffffffffff1673ffffffffffffffffffffffffffffffffffffffff1681526020019081526020015f205f6101000a81548160ff021916908315150217905550610dbc8282613b25565b5050565b60605f8054610dce90615816565b80601f0160208091040260200160405190810160405280929190818152602001828054610dfa90615816565b8015610e455780601f10610e1c57610100808354040283529160200191610e45565b820191905f5260205f20905b815481529060010190602001808311610e2857829003601f168201915b5050505050905090565b5f610e5982613e84565b50610e6382613f0a565b9050919050565b610e7c8282610e77613f43565b613f4a565b5050565b60605f600b5f8473ffffffffffffffffffffffffffffffffffffffff1673ffffffffffffffffffffffffffffffffffffffff1681526020019081526020015f208054905090505f8167ffffffffffffffff811115610ee157610ee06150f3565b5b604051908082528060200260200182016040528015610f0f5781602001602082028036833780820191505090505b5090505f805b83811015610ff3575f600b5f8873ffffffffffffffffffffffffffffffffffffffff1673ffffffffffffffffffffffffffffffffffffffff1681526020019081526020015f208281548110610f6d57610f6c615748565b5b905f5260205f200154905060065f8281526020019081526020015f206005015f9054906101000a900460ff16158015610fab5750610faa81610a4e565b5b15610fdf5780848481518110610fc457610fc3615748565b5b6020026020010181815250508280610fdb906157a2565b9350505b508080610feb906157a2565b915050610f15565b505f8167ffffffffffffffff81111561100f5761100e6150f3565b5b60405190808252806020026020018201604052801561103d5781602001602082028036833780820191505090505b5090505f5b828110156110975783818151811061105d5761105c615748565b5b602002602001015182828151811061107857611077615748565b5b602002602001018181525050808061108f906157a2565b915050611042565b5080945050505050919050565b6110ad8261266d565b73ffffffffffffffffffffffffffffffffffffffff163373ffffffffffffffffffffffffffffffffffffffff1614801561113d575060085f8381526020019081526020015f205f8273ffffffffffffffffffffffffffffffffffffffff1673ffffffffffffffffffffffffffffffffffffffff1681526020019081526020015f205f9054906101000a900460ff16155b801561117d575061114d8261266d565b73ffffffffffffffffffffffffffffffffffffffff168173ffffffffffffffffffffffffffffffffffffffff1614155b6111bc576040517f08c379a00000000000000000000000000000000000000000000000000000000081526004016111b39061572a565b60405180910390fd5b60085f8381526020019081526020015f205f8273ffffffffffffffffffffffffffffffffffffffff1673ffffffffffffffffffffffffffffffffffffffff1681526020019081526020015f205f9054906101000a900460ff1661134e57600160085f8481526020019081526020015f205f8373ffffffffffffffffffffffffffffffffffffffff1673ffffffffffffffffffffffffffffffffffffffff1681526020019081526020015f205f6101000a81548160ff021916908315150217905550600c5f8381526020019081526020015f2081908060018154018082558091505060019003905f5260205f20015f9091909190916101000a81548173ffffffffffffffffffffffffffffffffffffffff021916908373ffffffffffffffffffffffffffffffffffffffff16021790555060095f8273ffffffffffffffffffffffffffffffffffffffff1673ffffffffffffffffffffffffffffffffffffffff1681526020019081526020015f2082908060018154018082558091505060019003905f5260205f20015f90919091909150555b5050565b5f73ffffffffffffffffffffffffffffffffffffffff168273ffffffffffffffffffffffffffffffffffffffff16036113c2575f6040517f64a0ae920000000000000000000000000000000000000000000000000000000081526004016113b99190614e16565b60405180910390fd5b5f6113d583836113d0613f43565b613f5c565b90508373ffffffffffffffffffffffffffffffffffffffff168173ffffffffffffffffffffffffffffffffffffffff161461144b578382826040517f64283d7b00000000000000000000000000000000000000000000000000000000815260040161144293929190615846565b60405180910390fd5b50505050565b5f61145b8261266d565b9050919050565b3073ffffffffffffffffffffffffffffffffffffffff16636352211e826040518263ffffffff1660e01b815260040161149b91906150d2565b602060405180830381865afa9250505080156114d557506040513d601f19601f820116820180604052508101906114d291906156b5565b60015b611514576040517f08c379a000000000000000000000000000000000000000000000000000000000815260040161150b906158c5565b60405180910390fd5b506001151560085f8381526020019081526020015f205f3373ffffffffffffffffffffffffffffffffffffffff1673ffffffffffffffffffffffffffffffffffffffff1681526020019081526020015f205f9054906101000a900460ff16151514801561159f575060065f8281526020019081526020015f206005015f9054906101000a900460ff16155b80156115cf57505f151560065f8381526020019081526020015f2060050160159054906101000a900460ff161515145b61160e576040517f08c379a00000000000000000000000000000000000000000000000000000000081526004016116059061572a565b60405180910390fd5b5f6116188261266d565b90505f60065f8481526020019081526020015f205f015490508173ffffffffffffffffffffffffffffffffffffffff166108fc8290811502906040515f60405180830381858888f19350505050158015611674573d5f803e3d5ffd5b5061167f8383613b25565b61168883614167565b60065f8481526020019081526020015f2060050160019054906101000a900473ffffffffffffffffffffffffffffffffffffffff1673ffffffffffffffffffffffffffffffffffffffff168273ffffffffffffffffffffffffffffffffffffffff16847f344201ab2f1b413c381fe1cb1ae7d24db70f386bce6c330c4c705bba56d233fa844260405161171c9291906158e3565b60405180910390a4505050565b3073ffffffffffffffffffffffffffffffffffffffff16636352211e826040518263ffffffff1660e01b815260040161176291906150d2565b602060405180830381865afa92505050801561179c57506040513d601f19601f8201168201806040525081019061179991906156b5565b60015b6117db576040517f08c379a00000000000000000000000000000000000000000000000000000000081526004016117d2906158c5565b60405180910390fd5b506001151560085f8381526020019081526020015f205f3373ffffffffffffffffffffffffffffffffffffffff1673ffffffffffffffffffffffffffffffffffffffff1681526020019081526020015f205f9054906101000a900460ff161515148015611865575060065f8281526020019081526020015f206005015f9054906101000a900460ff165b801561189557505f151560065f8381526020019081526020015f2060050160159054906101000a900460ff161515145b80156118ac57505f15156118a882613192565b1515145b6118eb576040517f08c379a00000000000000000000000000000000000000000000000000000000081526004016118e29061572a565b60405180910390fd5b600160065f8381526020019081526020015f2060050160156101000a81548160ff02191690831515021790555060065f8281526020019081526020015f2060050160019054906101000a900473ffffffffffffffffffffffffffffffffffffffff1673ffffffffffffffffffffffffffffffffffffffff1661196c8261266d565b73ffffffffffffffffffffffffffffffffffffffff16827f86ea1596926f4e3b70b3169cd39eb59f8ada5f00ef929f33bdf925066cc52e8d426040516119b291906150d2565b60405180910390a450565b6008602052815f5260405f20602052805f5260405f205f915091509054906101000a900460ff1681565b6006602052805f5260405f205f91509050805f015490806001015490806002015490806003018054611a1890615816565b80601f0160208091040260200160405190810160405280929190818152602001828054611a4490615816565b8015611a8f5780601f10611a6657610100808354040283529160200191611a8f565b820191905f5260205f20905b815481529060010190602001808311611a7257829003601f168201915b505050505090806004018054611aa490615816565b80601f0160208091040260200160405190810160405280929190818152602001828054611ad090615816565b8015611b1b5780601f10611af257610100808354040283529160200191611b1b565b820191905f5260205f20905b815481529060010190602001808311611afe57829003601f168201915b505050505090806005015f9054906101000a900460ff16908060050160019054906101000a900473ffffffffffffffffffffffffffffffffffffffff16908060050160159054906101000a900460ff16908060050160169054906101000a900460ff16908060050160179054906101000a900460ff1690806006015490806007015490508c565b600c602052815f5260405f208181548110611bbb575f80fd5b905f5260205f20015f915091509054906101000a900473ffffffffffffffffffffffffffffffffffffffff1681565b60075f8281526020019081526020015f2060040160019054906101000a900460ff168015611c1e5750611c1c81613192565b155b611c5d576040517f08c379a0000000000000000000000000000000000000000000000000000000008152600401611c549061572a565b60405180910390fd5b5f60075f8381526020019081526020015f206040518060c00160405290815f82018054611c8990615816565b80601f0160208091040260200160405190810160405280929190818152602001828054611cb590615816565b8015611d005780601f10611cd757610100808354040283529160200191611d00565b820191905f5260205f20905b815481529060010190602001808311611ce357829003601f168201915b505050505081526020016001820154815260200160028201548152602001600382018054611d2d90615816565b80601f0160208091040260200160405190810160405280929190818152602001828054611d5990615816565b8015611da45780601f10611d7b57610100808354040283529160200191611da4565b820191905f5260205f20905b815481529060010190602001808311611d8757829003601f168201915b50505050508152602001600482015f9054906101000a900460ff161515151581526020016004820160019054906101000a900460ff16151515158152505090505f60065f8481526020019081526020015f205f015490508082602001511015611e6d575f826020015182611e18919061590a565b90505f611e248561266d565b90508073ffffffffffffffffffffffffffffffffffffffff166108fc8390811502906040515f60405180830381858888f19350505050158015611e69573d5f803e3d5ffd5b5050505b815f015160065f8581526020019081526020015f206003019081611e919190615ada565b50816020015160065f8581526020019081526020015f205f0181905550816040015160065f8581526020019081526020015f2060020181905550816060015160065f8581526020019081526020015f206004019081611ef09190615ada565b5060065f8481526020019081526020015f2060050160179054906101000a900460ff1615158260800151151514611f4457816080015115611f3957611f34836132e8565b611f43565b611f4283612734565b5b5b5f60075f8581526020019081526020015f2060040160016101000a81548160ff021916908315150217905550611f798361266d565b73ffffffffffffffffffffffffffffffffffffffff16837feae34dfcd93cfebf9280a6861befb7759d5cd39c50230ea4236c640577b57e9183856020015142604051611fc793929190615ba9565b60405180910390a3505050565b611fee83838360405180602001604052805f81525061314a565b505050565b600b602052815f5260405f20818154811061200c575f80fd5b905f5260205f20015f91509150505481565b60075f8281526020019081526020015f2060040160019054906101000a900460ff168015612052575061205081613192565b155b612091576040517f08c379a00000000000000000000000000000000000000000000000000000000081526004016120889061572a565b60405180910390fd5b5f60075f8381526020019081526020015f206040518060c00160405290815f820180546120bd90615816565b80601f01602080910402602001604051908101604052809291908181526020018280546120e990615816565b80156121345780601f1061210b57610100808354040283529160200191612134565b820191905f5260205f20905b81548152906001019060200180831161211757829003601f168201915b50505050508152602001600182015481526020016002820154815260200160038201805461216190615816565b80601f016020809104026020016040519081016040528092919081815260200182805461218d90615816565b80156121d85780601f106121af576101008083540402835291602001916121d8565b820191905f5260205f20905b8154815290600101906020018083116121bb57829003601f168201915b50505050508152602001600482015f9054906101000a900460ff161515151581526020016004820160019054906101000a900460ff161515151581525050905060065f8381526020019081526020015f205f0154816020015111156122b0575f60065f8481526020019081526020015f205f0154826020015161225b919061590a565b90505f6122678461266d565b90508073ffffffffffffffffffffffffffffffffffffffff166108fc8390811502906040515f60405180830381858888f193505050501580156122ac573d5f803e3d5ffd5b5050505b5f60075f8481526020019081526020015f2060040160016101000a81548160ff0219169083151502179055506122e58261266d565b73ffffffffffffffffffffffffffffffffffffffff16827f15934a3417e41a8dee207a62290629c5e540abd33988563c1e3f0a719def99a94260405161232b91906150d2565b60405180910390a35050565b60065f8781526020019081526020015f206005015f9054906101000a900460ff16801561236a575061236886613192565b155b8015612395575060075f8781526020019081526020015f2060040160019054906101000a900460ff16155b80156123f6575060085f8781526020019081526020015f205f3373ffffffffffffffffffffffffffffffffffffffff1673ffffffffffffffffffffffffffffffffffffffff1681526020019081526020015f205f9054906101000a900460ff165b612435576040517f08c379a000000000000000000000000000000000000000000000000000000000815260040161242c9061572a565b60405180910390fd5b5f60065f8881526020019081526020015f205f0154905080851115612505575f8186612461919061590a565b9050803410156124a6576040517f08c379a000000000000000000000000000000000000000000000000000000000815260040161249d90615c4e565b60405180910390fd5b5f81346124b3919061590a565b90505f811115612502573373ffffffffffffffffffffffffffffffffffffffff166108fc8290811502906040515f60405180830381858888f19350505050158015612500573d5f803e3d5ffd5b505b50505b6040518060c0016040528087815260200186815260200185815260200184815260200183151581526020016001151581525060075f8981526020019081526020015f205f820151815f01908161255b9190615ada565b50602082015181600101556040820151816002015560608201518160030190816125859190615ada565b506080820151816004015f6101000a81548160ff02191690831515021790555060a08201518160040160016101000a81548160ff02191690831515021790555090505050505050505050565b6060600c5f8381526020019081526020015f2080548060200260200160405190810160405280929190818152602001828054801561266157602002820191905f5260205f20905b815f9054906101000a900473ffffffffffffffffffffffffffffffffffffffff1673ffffffffffffffffffffffffffffffffffffffff1681526020019060010190808311612618575b50505050509050919050565b5f61267782613e84565b9050919050565b5f8073ffffffffffffffffffffffffffffffffffffffff168273ffffffffffffffffffffffffffffffffffffffff16036126ef575f6040517f89c62b640000000000000000000000000000000000000000000000000000000081526004016126e69190614e16565b60405180910390fd5b60035f8373ffffffffffffffffffffffffffffffffffffffff1673ffffffffffffffffffffffffffffffffffffffff1681526020019081526020015f20549050919050565b60065f8281526020019081526020015f2060050160179054906101000a900460ff16612795576040517f08c379a000000000000000000000000000000000000000000000000000000000815260040161278c9061572a565b60405180910390fd5b5f60065f8381526020019081526020015f2060060154426127b6919061590a565b90508060065f8481526020019081526020015f206002015f8282546127db9190615c6c565b925050819055508060065f8481526020019081526020015f206007015f8282546128059190615c6c565b925050819055505f60065f8481526020019081526020015f20600601819055505f60065f8481526020019081526020015f2060050160176101000a81548160ff0219169083151502179055505050565b606060095f8373ffffffffffffffffffffffffffffffffffffffff1673ffffffffffffffffffffffffffffffffffffffff1681526020019081526020015f208054806020026020016040519081016040528092919081815260200182805480156128dc57602002820191905f5260205f20905b8154815260200190600101908083116128c8575b50505050509050919050565b5f60065f8381526020019081526020015f206005015f9054906101000a900460ff169050919050565b3073ffffffffffffffffffffffffffffffffffffffff16636352211e826040518263ffffffff1660e01b815260040161294a91906150d2565b602060405180830381865afa92505050801561298457506040513d601f19601f8201168201806040525081019061298191906156b5565b60015b6129c3576040517f08c379a00000000000000000000000000000000000000000000000000000000081526004016129ba906158c5565b60405180910390fd5b505f151560085f8381526020019081526020015f205f3373ffffffffffffffffffffffffffffffffffffffff1673ffffffffffffffffffffffffffffffffffffffff1681526020019081526020015f205f9054906101000a900460ff161515148015612a8e575060065f8281526020019081526020015f2060050160019054906101000a900473ffffffffffffffffffffffffffffffffffffffff1673ffffffffffffffffffffffffffffffffffffffff163373ffffffffffffffffffffffffffffffffffffffff16145b8015612ab8575060065f8281526020019081526020015f206005015f9054906101000a900460ff16155b8015612ae857505f151560065f8381526020019081526020015f2060050160159054906101000a900460ff161515145b8015612aff57505f1515612afb82613192565b1515145b612b3e576040517f08c379a0000000000000000000000000000000000000000000000000000000008152600401612b359061572a565b60405180910390fd5b600160065f8381526020019081526020015f206005015f6101000a81548160ff0219169083151502179055503360065f8381526020019081526020015f2060050160016101000a81548173ffffffffffffffffffffffffffffffffffffffff021916908373ffffffffffffffffffffffffffffffffffffffff160217905550600a5f3373ffffffffffffffffffffffffffffffffffffffff1673ffffffffffffffffffffffffffffffffffffffff1681526020019081526020015f2081908060018154018082558091505060019003905f5260205f20015f90919091909150553373ffffffffffffffffffffffffffffffffffffffff16612c3e8261266d565b73ffffffffffffffffffffffffffffffffffffffff16827f9678f981bcf017d96c4d9fb4124afb0d1c62735df0ad70bef9fd0f5c18bda4fb42604051612c8491906150d2565b60405180910390a450565b606060018054612c9e90615816565b80601f0160208091040260200160405190810160405280929190818152602001828054612cca90615816565b8015612d155780601f10612cec57610100808354040283529160200191612d15565b820191905f5260205f20905b815481529060010190602001808311612cf857829003601f168201915b5050505050905090565b612d31612d2a613f43565b83836141e9565b5050565b600d5481565b5f85341015612d7f576040517f08c379a0000000000000000000000000000000000000000000000000000000008152600401612d7690615d0f565b60405180910390fd5b600d5f815480929190612d91906157a2565b9190505550612da233600d54614352565b5f8634612daf919061590a565b90505f811115612dfe573373ffffffffffffffffffffffffffffffffffffffff166108fc8290811502906040515f60405180830381858888f19350505050158015612dfc573d5f803e3d5ffd5b505b5f6040518061018001604052808981526020014289612e1d9190615c6c565b81526020018781526020018581526020018681526020015f151581526020018a73ffffffffffffffffffffffffffffffffffffffff1681526020015f151581526020015f151581526020015f151581526020015f81526020015f81525090508060065f600d5481526020019081526020015f205f820151815f015560208201518160010155604082015181600201556060820151816003019081612ec19190615ada565b506080820151816004019081612ed79190615ada565b5060a0820151816005015f6101000a81548160ff02191690831515021790555060c08201518160050160016101000a81548173ffffffffffffffffffffffffffffffffffffffff021916908373ffffffffffffffffffffffffffffffffffffffff16021790555060e08201518160050160156101000a81548160ff0219169083151502179055506101008201518160050160166101000a81548160ff0219169083151502179055506101208201518160050160176101000a81548160ff02191690831515021790555061014082015181600601556101608201518160070155905050600160085f600d5481526020019081526020015f205f3373ffffffffffffffffffffffffffffffffffffffff1673ffffffffffffffffffffffffffffffffffffffff1681526020019081526020015f205f6101000a81548160ff02191690831515021790555060095f3373ffffffffffffffffffffffffffffffffffffffff1673ffffffffffffffffffffffffffffffffffffffff1681526020019081526020015f20600d54908060018154018082558091505060019003905f5260205f20015f9091909190915055600b5f8a73ffffffffffffffffffffffffffffffffffffffff1673ffffffffffffffffffffffffffffffffffffffff1681526020019081526020015f20600d54908060018154018082558091505060019003905f5260205f20015f90919091909150553373ffffffffffffffffffffffffffffffffffffffff167f81fd5f457056a8b19e623dc52551a385bfcafd0914d3942446ecab71d19b123b600d548a4260405161313193929190615ba9565b60405180910390a2600d54925050509695505050505050565b613155848484611352565b61316184848484614445565b50505050565b600a602052815f5260405f208181548110613180575f80fd5b905f5260205f20015f91509150505481565b5f3073ffffffffffffffffffffffffffffffffffffffff16636352211e836040518263ffffffff1660e01b81526004016131cc91906150d2565b602060405180830381865afa92505050801561320657506040513d601f19601f8201168201806040525081019061320391906156b5565b60015b613245576040517f08c379a000000000000000000000000000000000000000000000000000000000815260040161323c906158c5565b60405180910390fd5b506001151560065f8481526020019081526020015f2060050160159054906101000a900460ff1615150361327c57600190506132e3565b60065f8381526020019081526020015f206007015460065f8481526020019081526020015f206002015460065f8581526020019081526020015f20600101546132c59190615c6c565b6132cf9190615c6c565b4211156132df57600190506132e3565b5f90505b919050565b60065f8281526020019081526020015f2060050160179054906101000a900460ff161561334a576040517f08c379a00000000000000000000000000000000000000000000000000000000081526004016133419061572a565b60405180910390fd5b600160065f8381526020019081526020015f2060050160176101000a81548160ff0219169083151502179055504260065f8381526020019081526020015f206006018190555050565b606061339e82613e84565b505f6133a86145f7565b90505f8151116133c65760405180602001604052805f8152506133f1565b806133d08461460d565b6040516020016133e1929190615d67565b6040516020818303038152906040525b915050919050565b6060600a5f8373ffffffffffffffffffffffffffffffffffffffff1673ffffffffffffffffffffffffffffffffffffffff1681526020019081526020015f2080548060200260200160405190810160405280929190818152602001828054801561348057602002820191905f5260205f20905b81548152602001906001019080831161346c575b50505050509050919050565b6009602052815f5260405f2081815481106134a5575f80fd5b905f5260205f20015f91509150505481565b3073ffffffffffffffffffffffffffffffffffffffff16636352211e826040518263ffffffff1660e01b81526004016134f091906150d2565b602060405180830381865afa92505050801561352a57506040513d601f19601f8201168201806040525081019061352791906156b5565b60015b613569576040517f08c379a0000000000000000000000000000000000000000000000000000000008152600401613560906158c5565b60405180910390fd5b5060065f8281526020019081526020015f206005015f9054906101000a900460ff1680156135bb57505f151560065f8381526020019081526020015f2060050160169054906101000a900460ff161515145b801561362357506001151560085f8381526020019081526020015f205f3373ffffffffffffffffffffffffffffffffffffffff1673ffffffffffffffffffffffffffffffffffffffff1681526020019081526020015f205f9054906101000a900460ff161515145b801561363b57506001151561363782613192565b1515145b61367a576040517f08c379a00000000000000000000000000000000000000000000000000000000081526004016136719061572a565b60405180910390fd5b5f60065f8381526020019081526020015f2060050160019054906101000a900473ffffffffffffffffffffffffffffffffffffffff1690505f60065f8481526020019081526020015f205f015490508173ffffffffffffffffffffffffffffffffffffffff166108fc8290811502906040515f60405180830381858888f1935050505015801561370c573d5f803e3d5ffd5b50600160065f8581526020019081526020015f2060050160166101000a81548160ff0219169083151502179055508173ffffffffffffffffffffffffffffffffffffffff163373ffffffffffffffffffffffffffffffffffffffff16847f4b5aadc9a65abf047bc2152ff605000b1dd64e7cb420aba7862457538885bfee844260405161379a9291906158e3565b60405180910390a4505050565b5f60055f8473ffffffffffffffffffffffffffffffffffffffff1673ffffffffffffffffffffffffffffffffffffffff1681526020019081526020015f205f8373ffffffffffffffffffffffffffffffffffffffff1673ffffffffffffffffffffffffffffffffffffffff1681526020019081526020015f205f9054906101000a900460ff16905092915050565b6007602052805f5260405f205f91509050805f01805461385490615816565b80601f016020809104026020016040519081016040528092919081815260200182805461388090615816565b80156138cb5780601f106138a2576101008083540402835291602001916138cb565b820191905f5260205f20905b8154815290600101906020018083116138ae57829003601f168201915b5050505050908060010154908060020154908060030180546138ec90615816565b80601f016020809104026020016040519081016040528092919081815260200182805461391890615816565b80156139635780601f1061393a57610100808354040283529160200191613963565b820191905f5260205f20905b81548152906001019060200180831161394657829003601f168201915b505050505090806004015f9054906101000a900460ff16908060040160019054906101000a900460ff16905086565b5f7f01ffc9a7000000000000000000000000000000000000000000000000000000007bffffffffffffffffffffffffffffffffffffffffffffffffffffffff1916827bffffffffffffffffffffffffffffffffffffffffffffffffffffffff1916149050919050565b600c5f8381526020019081526020015f206001600c5f8581526020019081526020015f2080549050613a2d919061590a565b81548110613a3e57613a3d615748565b5b905f5260205f20015f9054906101000a900473ffffffffffffffffffffffffffffffffffffffff16600c5f8481526020019081526020015f208281548110613a8957613a88615748565b5b905f5260205f20015f6101000a81548173ffffffffffffffffffffffffffffffffffffffff021916908373ffffffffffffffffffffffffffffffffffffffff160217905550600c5f8381526020019081526020015f20805480613aef57613aee615d8a565b5b600190038181905f5260205f20015f6101000a81549073ffffffffffffffffffffffffffffffffffffffff021916905590555050565b3073ffffffffffffffffffffffffffffffffffffffff16636352211e836040518263ffffffff1660e01b8152600401613b5e91906150d2565b602060405180830381865afa925050508015613b9857506040513d601f19601f82011682018060405250810190613b9591906156b5565b60015b613bd7576040517f08c379a0000000000000000000000000000000000000000000000000000000008152600401613bce906158c5565b60405180910390fd5b508073ffffffffffffffffffffffffffffffffffffffff16613bf88361266d565b73ffffffffffffffffffffffffffffffffffffffff1614613c4e576040517f08c379a0000000000000000000000000000000000000000000000000000000008152600401613c4590615e27565b60405180910390fd5b5f80600160095f8573ffffffffffffffffffffffffffffffffffffffff1673ffffffffffffffffffffffffffffffffffffffff1681526020019081526020015f2080549050613c9d919061590a565b90505f5b60095f8573ffffffffffffffffffffffffffffffffffffffff1673ffffffffffffffffffffffffffffffffffffffff1681526020019081526020015f2080549050811015613d62578460095f8673ffffffffffffffffffffffffffffffffffffffff1673ffffffffffffffffffffffffffffffffffffffff1681526020019081526020015f208281548110613d3957613d38615748565b5b905f5260205f20015403613d4f57809250613d62565b8080613d5a906157a2565b915050613ca1565b50808214613e1e5760095f8473ffffffffffffffffffffffffffffffffffffffff1673ffffffffffffffffffffffffffffffffffffffff1681526020019081526020015f208181548110613db957613db8615748565b5b905f5260205f20015460095f8573ffffffffffffffffffffffffffffffffffffffff1673ffffffffffffffffffffffffffffffffffffffff1681526020019081526020015f208381548110613e1157613e10615748565b5b905f5260205f2001819055505b60095f8473ffffffffffffffffffffffffffffffffffffffff1673ffffffffffffffffffffffffffffffffffffffff1681526020019081526020015f20805480613e6b57613e6a615d8a565b5b600190038181905f5260205f20015f9055905550505050565b5f80613e8f836146d7565b90505f73ffffffffffffffffffffffffffffffffffffffff168173ffffffffffffffffffffffffffffffffffffffff1603613f0157826040517f7e273289000000000000000000000000000000000000000000000000000000008152600401613ef891906150d2565b60405180910390fd5b80915050919050565b5f60045f8381526020019081526020015f205f9054906101000a900473ffffffffffffffffffffffffffffffffffffffff169050919050565b5f33905090565b613f578383836001614710565b505050565b5f80613f67846146d7565b90505f73ffffffffffffffffffffffffffffffffffffffff168373ffffffffffffffffffffffffffffffffffffffff1614613fa857613fa78184866148cf565b5b5f73ffffffffffffffffffffffffffffffffffffffff168173ffffffffffffffffffffffffffffffffffffffff161461403357613fe75f855f80614710565b600160035f8373ffffffffffffffffffffffffffffffffffffffff1673ffffffffffffffffffffffffffffffffffffffff1681526020019081526020015f205f82825403925050819055505b5f73ffffffffffffffffffffffffffffffffffffffff168573ffffffffffffffffffffffffffffffffffffffff16146140b257600160035f8773ffffffffffffffffffffffffffffffffffffffff1673ffffffffffffffffffffffffffffffffffffffff1681526020019081526020015f205f82825401925050819055505b8460025f8681526020019081526020015f205f6101000a81548173ffffffffffffffffffffffffffffffffffffffff021916908373ffffffffffffffffffffffffffffffffffffffff160217905550838573ffffffffffffffffffffffffffffffffffffffff168273ffffffffffffffffffffffffffffffffffffffff167fddf252ad1be2c89b69c2b068fc378daa952ba7f163c4a11628f55a4df523b3ef60405160405180910390a4809150509392505050565b5f6141735f835f613f5c565b90505f73ffffffffffffffffffffffffffffffffffffffff168173ffffffffffffffffffffffffffffffffffffffff16036141e557816040517f7e2732890000000000000000000000000000000000000000000000000000000081526004016141dc91906150d2565b60405180910390fd5b5050565b5f73ffffffffffffffffffffffffffffffffffffffff168273ffffffffffffffffffffffffffffffffffffffff160361425957816040517f5b08ba180000000000000000000000000000000000000000000000000000000081526004016142509190614e16565b60405180910390fd5b8060055f8573ffffffffffffffffffffffffffffffffffffffff1673ffffffffffffffffffffffffffffffffffffffff1681526020019081526020015f205f8473ffffffffffffffffffffffffffffffffffffffff1673ffffffffffffffffffffffffffffffffffffffff1681526020019081526020015f205f6101000a81548160ff0219169083151502179055508173ffffffffffffffffffffffffffffffffffffffff168373ffffffffffffffffffffffffffffffffffffffff167f17307eab39ab6107e8899845ad3d59bd9653f200f220920489ca2b5937696c31836040516143459190614c2c565b60405180910390a3505050565b5f73ffffffffffffffffffffffffffffffffffffffff168273ffffffffffffffffffffffffffffffffffffffff16036143c2575f6040517f64a0ae920000000000000000000000000000000000000000000000000000000081526004016143b99190614e16565b60405180910390fd5b5f6143ce83835f613f5c565b90505f73ffffffffffffffffffffffffffffffffffffffff168173ffffffffffffffffffffffffffffffffffffffff1614614440575f6040517f73c6ac6e0000000000000000000000000000000000000000000000000000000081526004016144379190614e16565b60405180910390fd5b505050565b5f8373ffffffffffffffffffffffffffffffffffffffff163b11156145f1578273ffffffffffffffffffffffffffffffffffffffff1663150b7a02614488613f43565b8685856040518563ffffffff1660e01b81526004016144aa9493929190615e97565b6020604051808303815f875af19250505080156144e557506040513d601f19601f820116820180604052508101906144e29190615ef5565b60015b614566573d805f8114614513576040519150601f19603f3d011682016040523d82523d5f602084013e614518565b606091505b505f81510361455e57836040517f64a0ae920000000000000000000000000000000000000000000000000000000081526004016145559190614e16565b60405180910390fd5b805181602001fd5b63150b7a0260e01b7bffffffffffffffffffffffffffffffffffffffffffffffffffffffff1916817bffffffffffffffffffffffffffffffffffffffffffffffffffffffff1916146145ef57836040517f64a0ae920000000000000000000000000000000000000000000000000000000081526004016145e69190614e16565b60405180910390fd5b505b50505050565b606060405180602001604052805f815250905090565b60605f600161461b84614992565b0190505f8167ffffffffffffffff811115614639576146386150f3565b5b6040519080825280601f01601f19166020018201604052801561466b5781602001600182028036833780820191505090505b5090505f82602001820190505b6001156146cc578080600190039150507f3031323334353637383961626364656600000000000000000000000000000000600a86061a8153600a85816146c1576146c0615f20565b5b0494505f8503614678575b819350505050919050565b5f60025f8381526020019081526020015f205f9054906101000a900473ffffffffffffffffffffffffffffffffffffffff169050919050565b808061474857505f73ffffffffffffffffffffffffffffffffffffffff168273ffffffffffffffffffffffffffffffffffffffff1614155b1561487a575f61475784613e84565b90505f73ffffffffffffffffffffffffffffffffffffffff168373ffffffffffffffffffffffffffffffffffffffff16141580156147c157508273ffffffffffffffffffffffffffffffffffffffff168173ffffffffffffffffffffffffffffffffffffffff1614155b80156147d457506147d281846137a7565b155b1561481657826040517fa9fbf51f00000000000000000000000000000000000000000000000000000000815260040161480d9190614e16565b60405180910390fd5b811561487857838573ffffffffffffffffffffffffffffffffffffffff168273ffffffffffffffffffffffffffffffffffffffff167f8c5be1e5ebec7d5bd14f71427d1e84f3dd0314c0f7b2291e5b200ac8c7c3b92560405160405180910390a45b505b8360045f8581526020019081526020015f205f6101000a81548173ffffffffffffffffffffffffffffffffffffffff021916908373ffffffffffffffffffffffffffffffffffffffff16021790555050505050565b6148da838383614ae3565b61498d575f73ffffffffffffffffffffffffffffffffffffffff168373ffffffffffffffffffffffffffffffffffffffff160361494e57806040517f7e27328900000000000000000000000000000000000000000000000000000000815260040161494591906150d2565b60405180910390fd5b81816040517f177e802f000000000000000000000000000000000000000000000000000000008152600401614984929190615f4d565b60405180910390fd5b505050565b5f805f90507a184f03e93ff9f4daa797ed6e38ed64bf6a1f01000000000000000083106149ee577a184f03e93ff9f4daa797ed6e38ed64bf6a1f01000000000000000083816149e4576149e3615f20565b5b0492506040810190505b6d04ee2d6d415b85acef81000000008310614a2b576d04ee2d6d415b85acef81000000008381614a2157614a20615f20565b5b0492506020810190505b662386f26fc100008310614a5a57662386f26fc100008381614a5057614a4f615f20565b5b0492506010810190505b6305f5e1008310614a83576305f5e1008381614a7957614a78615f20565b5b0492506008810190505b6127108310614aa8576127108381614a9e57614a9d615f20565b5b0492506004810190505b60648310614acb5760648381614ac157614ac0615f20565b5b0492506002810190505b600a8310614ada576001810190505b80915050919050565b5f8073ffffffffffffffffffffffffffffffffffffffff168373ffffffffffffffffffffffffffffffffffffffff1614158015614b9a57508273ffffffffffffffffffffffffffffffffffffffff168473ffffffffffffffffffffffffffffffffffffffff161480614b5b5750614b5a84846137a7565b5b80614b9957508273ffffffffffffffffffffffffffffffffffffffff16614b8183613f0a565b73ffffffffffffffffffffffffffffffffffffffff16145b5b90509392505050565b5f604051905090565b5f80fd5b5f80fd5b5f819050919050565b614bc681614bb4565b8114614bd0575f80fd5b50565b5f81359050614be181614bbd565b92915050565b5f60208284031215614bfc57614bfb614bac565b5b5f614c0984828501614bd3565b91505092915050565b5f8115159050919050565b614c2681614c12565b82525050565b5f602082019050614c3f5f830184614c1d565b92915050565b5f7fffffffff0000000000000000000000000000000000000000000000000000000082169050919050565b614c7981614c45565b8114614c83575f80fd5b50565b5f81359050614c9481614c70565b92915050565b5f60208284031215614caf57614cae614bac565b5b5f614cbc84828501614c86565b91505092915050565b5f73ffffffffffffffffffffffffffffffffffffffff82169050919050565b5f614cee82614cc5565b9050919050565b614cfe81614ce4565b8114614d08575f80fd5b50565b5f81359050614d1981614cf5565b92915050565b5f8060408385031215614d3557614d34614bac565b5b5f614d4285828601614bd3565b9250506020614d5385828601614d0b565b9150509250929050565b5f81519050919050565b5f82825260208201905092915050565b5f5b83811015614d94578082015181840152602081019050614d79565b5f8484015250505050565b5f601f19601f8301169050919050565b5f614db982614d5d565b614dc38185614d67565b9350614dd3818560208601614d77565b614ddc81614d9f565b840191505092915050565b5f6020820190508181035f830152614dff8184614daf565b905092915050565b614e1081614ce4565b82525050565b5f602082019050614e295f830184614e07565b92915050565b5f8060408385031215614e4557614e44614bac565b5b5f614e5285828601614d0b565b9250506020614e6385828601614bd3565b9150509250929050565b5f60208284031215614e8257614e81614bac565b5b5f614e8f84828501614d0b565b91505092915050565b5f81519050919050565b5f82825260208201905092915050565b5f819050602082019050919050565b614eca81614bb4565b82525050565b5f614edb8383614ec1565b60208301905092915050565b5f602082019050919050565b5f614efd82614e98565b614f078185614ea2565b9350614f1283614eb2565b805f5b83811015614f42578151614f298882614ed0565b9750614f3483614ee7565b925050600181019050614f15565b5085935050505092915050565b5f6020820190508181035f830152614f678184614ef3565b905092915050565b5f805f60608486031215614f8657614f85614bac565b5b5f614f9386828701614d0b565b9350506020614fa486828701614d0b565b9250506040614fb586828701614bd3565b9150509250925092565b614fc881614bb4565b82525050565b5f61018082019050614fe25f83018f614fbf565b614fef602083018e614fbf565b614ffc604083018d614fbf565b818103606083015261500e818c614daf565b90508181036080830152615022818b614daf565b905061503160a083018a614c1d565b61503e60c0830189614e07565b61504b60e0830188614c1d565b615059610100830187614c1d565b615067610120830186614c1d565b615075610140830185614fbf565b615083610160830184614fbf565b9d9c50505050505050505050505050565b5f80604083850312156150aa576150a9614bac565b5b5f6150b785828601614bd3565b92505060206150c885828601614bd3565b9150509250929050565b5f6020820190506150e55f830184614fbf565b92915050565b5f80fd5b5f80fd5b7f4e487b71000000000000000000000000000000000000000000000000000000005f52604160045260245ffd5b61512982614d9f565b810181811067ffffffffffffffff82111715615148576151476150f3565b5b80604052505050565b5f61515a614ba3565b90506151668282615120565b919050565b5f67ffffffffffffffff821115615185576151846150f3565b5b61518e82614d9f565b9050602081019050919050565b828183375f83830152505050565b5f6151bb6151b68461516b565b615151565b9050828152602081018484840111156151d7576151d66150ef565b5b6151e284828561519b565b509392505050565b5f82601f8301126151fe576151fd6150eb565b5b813561520e8482602086016151a9565b91505092915050565b61522081614c12565b811461522a575f80fd5b50565b5f8135905061523b81615217565b92915050565b5f805f805f8060c0878903121561525b5761525a614bac565b5b5f61526889828a01614bd3565b965050602087013567ffffffffffffffff81111561528957615288614bb0565b5b61529589828a016151ea565b95505060406152a689828a01614bd3565b94505060606152b789828a01614bd3565b935050608087013567ffffffffffffffff8111156152d8576152d7614bb0565b5b6152e489828a016151ea565b92505060a06152f589828a0161522d565b9150509295509295509295565b5f81519050919050565b5f82825260208201905092915050565b5f819050602082019050919050565b61533481614ce4565b82525050565b5f615345838361532b565b60208301905092915050565b5f602082019050919050565b5f61536782615302565b615371818561530c565b935061537c8361531c565b805f5b838110156153ac578151615393888261533a565b975061539e83615351565b92505060018101905061537f565b5085935050505092915050565b5f6020820190508181035f8301526153d1818461535d565b905092915050565b5f80604083850312156153ef576153ee614bac565b5b5f6153fc85828601614d0b565b925050602061540d8582860161522d565b9150509250929050565b5f805f805f8060c0878903121561543157615430614bac565b5b5f61543e89828a01614d0b565b965050602061544f89828a01614bd3565b955050604061546089828a01614bd3565b945050606061547189828a01614bd3565b935050608087013567ffffffffffffffff81111561549257615491614bb0565b5b61549e89828a016151ea565b92505060a087013567ffffffffffffffff8111156154bf576154be614bb0565b5b6154cb89828a016151ea565b9150509295509295509295565b5f67ffffffffffffffff8211156154f2576154f16150f3565b5b6154fb82614d9f565b9050602081019050919050565b5f61551a615515846154d8565b615151565b905082815260208101848484011115615536576155356150ef565b5b61554184828561519b565b509392505050565b5f82601f83011261555d5761555c6150eb565b5b813561556d848260208601615508565b91505092915050565b5f805f806080858703121561558e5761558d614bac565b5b5f61559b87828801614d0b565b94505060206155ac87828801614d0b565b93505060406155bd87828801614bd3565b925050606085013567ffffffffffffffff8111156155de576155dd614bb0565b5b6155ea87828801615549565b91505092959194509250565b5f806040838503121561560c5761560b614bac565b5b5f61561985828601614d0b565b925050602061562a85828601614d0b565b9150509250929050565b5f60c0820190508181035f83015261564c8189614daf565b905061565b6020830188614fbf565b6156686040830187614fbf565b818103606083015261567a8186614daf565b90506156896080830185614c1d565b61569660a0830184614c1d565b979650505050505050565b5f815190506156af81614cf5565b92915050565b5f602082840312156156ca576156c9614bac565b5b5f6156d7848285016156a1565b91505092915050565b7f4572726f723a20636f6e646963696f6e6573206e6f2063756d706c696461732e5f82015250565b5f615714602083614d67565b915061571f826156e0565b602082019050919050565b5f6020820190508181035f83015261574181615708565b9050919050565b7f4e487b71000000000000000000000000000000000000000000000000000000005f52603260045260245ffd5b7f4e487b71000000000000000000000000000000000000000000000000000000005f52601160045260245ffd5b5f6157ac82614bb4565b91507fffffffffffffffffffffffffffffffffffffffffffffffffffffffffffffffff82036157de576157dd615775565b5b600182019050919050565b7f4e487b71000000000000000000000000000000000000000000000000000000005f52602260045260245ffd5b5f600282049050600182168061582d57607f821691505b6020821081036158405761583f6157e9565b5b50919050565b5f6060820190506158595f830186614e07565b6158666020830185614fbf565b6158736040830184614e07565b949350505050565b7f456c20746f6b656e206e6f206578697374652e000000000000000000000000005f82015250565b5f6158af601383614d67565b91506158ba8261587b565b602082019050919050565b5f6020820190508181035f8301526158dc816158a3565b9050919050565b5f6040820190506158f65f830185614fbf565b6159036020830184614fbf565b9392505050565b5f61591482614bb4565b915061591f83614bb4565b925082820390508181111561593757615936615775565b5b92915050565b5f819050815f5260205f209050919050565b5f6020601f8301049050919050565b5f82821b905092915050565b5f600883026159997fffffffffffffffffffffffffffffffffffffffffffffffffffffffffffffffff8261595e565b6159a3868361595e565b95508019841693508086168417925050509392505050565b5f819050919050565b5f6159de6159d96159d484614bb4565b6159bb565b614bb4565b9050919050565b5f819050919050565b6159f7836159c4565b615a0b615a03826159e5565b84845461596a565b825550505050565b5f90565b615a1f615a13565b615a2a8184846159ee565b505050565b5b81811015615a4d57615a425f82615a17565b600181019050615a30565b5050565b601f821115615a9257615a638161593d565b615a6c8461594f565b81016020851015615a7b578190505b615a8f615a878561594f565b830182615a2f565b50505b505050565b5f82821c905092915050565b5f615ab25f1984600802615a97565b1980831691505092915050565b5f615aca8383615aa3565b9150826002028217905092915050565b615ae382614d5d565b67ffffffffffffffff811115615afc57615afb6150f3565b5b615b068254615816565b615b11828285615a51565b5f60209050601f831160018114615b42575f8415615b30578287015190505b615b3a8582615abf565b865550615ba1565b601f198416615b508661593d565b5f5b82811015615b7757848901518255600182019150602085019450602081019050615b52565b86831015615b945784890151615b90601f891682615aa3565b8355505b6001600288020188555050505b505050505050565b5f606082019050615bbc5f830186614fbf565b615bc96020830185614fbf565b615bd66040830184614fbf565b949350505050565b7f466f6e646f7320696e737566696369656e7465732070617261206375627269725f8201527f20656c20696e6372656d656e746f2064656c2073616c6172696f000000000000602082015250565b5f615c38603a83614d67565b9150615c4382615bde565b604082019050919050565b5f6020820190508181035f830152615c6581615c2c565b9050919050565b5f615c7682614bb4565b9150615c8183614bb4565b9250828201905080821115615c9957615c98615775565b5b92915050565b7f4465646520656e7669617220656c2073616c6172696f20636f6d6f2076616c6f5f8201527f722064656c20636f6e747261746f000000000000000000000000000000000000602082015250565b5f615cf9602e83614d67565b9150615d0482615c9f565b604082019050919050565b5f6020820190508181035f830152615d2681615ced565b9050919050565b5f81905092915050565b5f615d4182614d5d565b615d4b8185615d2d565b9350615d5b818560208601614d77565b80840191505092915050565b5f615d728285615d37565b9150615d7e8284615d37565b91508190509392505050565b7f4e487b71000000000000000000000000000000000000000000000000000000005f52603160045260245ffd5b7f456c2070726f706965746172696f206e6f20636f696e6369646520636f6e20655f8201527f6c2070726f706965746172696f2064656c20746f6b656e000000000000000000602082015250565b5f615e11603783614d67565b9150615e1c82615db7565b604082019050919050565b5f6020820190508181035f830152615e3e81615e05565b9050919050565b5f81519050919050565b5f82825260208201905092915050565b5f615e6982615e45565b615e738185615e4f565b9350615e83818560208601614d77565b615e8c81614d9f565b840191505092915050565b5f608082019050615eaa5f830187614e07565b615eb76020830186614e07565b615ec46040830185614fbf565b8181036060830152615ed68184615e5f565b905095945050505050565b5f81519050615eef81614c70565b92915050565b5f60208284031215615f0a57615f09614bac565b5b5f615f1784828501615ee1565b91505092915050565b7f4e487b71000000000000000000000000000000000000000000000000000000005f52601260045260245ffd5b5f604082019050615f605f830185614e07565b615f6d6020830184614fbf565b939250505056fea26469706673582212206e12bada890e33683695fd3489ffd550601e4d4dd21b19f8b51f3b15348f20a264736f6c63430008140033",
  "immutableReferences": {},
  "source": "// SPDX-License-Identifier: MIT\r\npragma solidity ^0.8.20;\r\n\r\nimport \"./MyContractManagement.sol\";\r\nimport \"./MyContractChanges.sol\";\r\n\r\ncontract MyContractAux is MyContractManagement, MyContractChanges{\r\n\r\n    function getManagersOfToken(\r\n        uint256 _tokenId\r\n    ) public view returns (address[] memory) {\r\n        return tokenManagersList[_tokenId];\r\n    }\r\n\r\n    /*\r\n    function isManagerOfToken(\r\n        uint256 _tokenId,\r\n        address _manager\r\n    ) public view returns (bool) {\r\n        return tokenManagers[_tokenId][_manager];\r\n    }\r\n    */\r\n\r\n\r\n    function getContractsFromOwner(\r\n        address _address\r\n    ) public view returns (uint256[] memory) {\r\n        return contractsOwner[_address];\r\n    }\r\n\r\n\r\n    function getContractsOfWorker(\r\n        address _address\r\n    ) public view returns (uint256[] memory) {\r\n        return activeContractsOfWorker[_address];\r\n    }\r\n\r\n\r\n    function getUnsignedContractsOfWorker(\r\n        address worker\r\n    ) public view returns (uint256[] memory) {\r\n        uint256 totalContracts = unsignedContractsOfWorker[worker].length;\r\n        uint256[] memory tempContracts = new uint256[](totalContracts);\r\n        uint256 count = 0;\r\n\r\n        for (uint256 i = 0; i < totalContracts; i++) {\r\n            uint256 contractId = unsignedContractsOfWorker[worker][i];\r\n\r\n            if (\r\n                !contractDetails[contractId].isSigned && tokenExists(contractId)\r\n            ) {\r\n                tempContracts[count] = contractId;\r\n                count++;\r\n            }\r\n        }\r\n\r\n        uint256[] memory result = new uint256[](count);\r\n        for (uint256 j = 0; j < count; j++) {\r\n            result[j] = tempContracts[j];\r\n        }\r\n        return result;\r\n    }\r\n\r\n\r\n    function tokenExists(uint256 _tokenId) public view returns (bool) {\r\n        try this.ownerOf(_tokenId) {\r\n            return true;\r\n        } catch {\r\n            return false;\r\n        }\r\n    }\r\n\r\n\r\n    function isContractSigned(uint256 _tokenID) public view returns (bool) {\r\n        return contractDetails[_tokenID].isSigned;\r\n    }\r\n\r\n\r\n    function getOwnerOfContract(\r\n        uint256 _tokenID\r\n    ) public view returns (address) {\r\n        return ownerOf(_tokenID);\r\n    }\r\n}\r\n",
  "sourcePath": "E:\\AppContract\\ubu-contractme\\Code\\SmartContract\\contracts\\MyContractAux.sol",
  "compiler": {
    "name": "solc",
    "version": "0.8.20+commit.a1b79de6.Emscripten.clang"
  },
  "schemaVersion": "3.4.16",
  "updatedAt": "2024-02-25T19:55:29.666Z",
  "networkType": "ethereum",
  "devdoc": {
    "errors": {
      "ERC721IncorrectOwner(address,uint256,address)": [
        {
          "details": "Indicates an error related to the ownership over a particular token. Used in transfers.",
          "params": {
            "owner": "Address of the current owner of a token.",
            "sender": "Address whose tokens are being transferred.",
            "tokenId": "Identifier number of a token."
          }
        }
      ],
      "ERC721InsufficientApproval(address,uint256)": [
        {
          "details": "Indicates a failure with the `operator`s approval. Used in transfers.",
          "params": {
            "operator": "Address that may be allowed to operate on tokens without being their owner.",
            "tokenId": "Identifier number of a token."
          }
        }
      ],
      "ERC721InvalidApprover(address)": [
        {
          "details": "Indicates a failure with the `approver` of a token to be approved. Used in approvals.",
          "params": {
            "approver": "Address initiating an approval operation."
          }
        }
      ],
      "ERC721InvalidOperator(address)": [
        {
          "details": "Indicates a failure with the `operator` to be approved. Used in approvals.",
          "params": {
            "operator": "Address that may be allowed to operate on tokens without being their owner."
          }
        }
      ],
      "ERC721InvalidOwner(address)": [
        {
          "details": "Indicates that an address can't be an owner. For example, `address(0)` is a forbidden owner in EIP-20. Used in balance queries.",
          "params": {
            "owner": "Address of the current owner of a token."
          }
        }
      ],
      "ERC721InvalidReceiver(address)": [
        {
          "details": "Indicates a failure with the token `receiver`. Used in transfers.",
          "params": {
            "receiver": "Address to which tokens are being transferred."
          }
        }
      ],
      "ERC721InvalidSender(address)": [
        {
          "details": "Indicates a failure with the token `sender`. Used in transfers.",
          "params": {
            "sender": "Address whose tokens are being transferred."
          }
        }
      ],
      "ERC721NonexistentToken(uint256)": [
        {
          "details": "Indicates a `tokenId` whose `owner` is the zero address.",
          "params": {
            "tokenId": "Identifier number of a token."
          }
        }
      ]
    },
    "events": {
      "Approval(address,address,uint256)": {
        "details": "Emitted when `owner` enables `approved` to manage the `tokenId` token."
      },
      "ApprovalForAll(address,address,bool)": {
        "details": "Emitted when `owner` enables or disables (`approved`) `operator` to manage all of its assets."
      },
      "Transfer(address,address,uint256)": {
        "details": "Emitted when `tokenId` token is transferred from `from` to `to`."
      }
    },
    "kind": "dev",
    "methods": {
      "approve(address,uint256)": {
        "details": "See {IERC721-approve}."
      },
      "balanceOf(address)": {
        "details": "See {IERC721-balanceOf}."
      },
      "getApproved(uint256)": {
        "details": "See {IERC721-getApproved}."
      },
      "isApprovedForAll(address,address)": {
        "details": "See {IERC721-isApprovedForAll}."
      },
      "name()": {
        "details": "See {IERC721Metadata-name}."
      },
      "ownerOf(uint256)": {
        "details": "See {IERC721-ownerOf}."
      },
      "safeTransferFrom(address,address,uint256)": {
        "details": "See {IERC721-safeTransferFrom}."
      },
      "safeTransferFrom(address,address,uint256,bytes)": {
        "details": "See {IERC721-safeTransferFrom}."
      },
      "setApprovalForAll(address,bool)": {
        "details": "See {IERC721-setApprovalForAll}."
      },
      "supportsInterface(bytes4)": {
        "details": "See {IERC165-supportsInterface}."
      },
      "symbol()": {
        "details": "See {IERC721Metadata-symbol}."
      },
      "tokenURI(uint256)": {
        "details": "See {IERC721Metadata-tokenURI}."
      },
      "transferFrom(address,address,uint256)": {
        "details": "See {IERC721-transferFrom}."
      }
    },
    "version": 1
  },
  "userdoc": {
    "kind": "user",
    "methods": {},
    "version": 1
  }
}