{
  "contractName": "MyContract",
  "abi": [
    {
      "inputs": [],
      "stateMutability": "nonpayable",
      "type": "constructor"
    },
    {
      "inputs": [
        {
          "internalType": "address",
          "name": "sender",
          "type": "address"
        },
        {
          "internalType": "uint256",
          "name": "tokenId",
          "type": "uint256"
        },
        {
          "internalType": "address",
          "name": "owner",
          "type": "address"
        }
      ],
      "name": "ERC721IncorrectOwner",
      "type": "error"
    },
    {
      "inputs": [
        {
          "internalType": "address",
          "name": "operator",
          "type": "address"
        },
        {
          "internalType": "uint256",
          "name": "tokenId",
          "type": "uint256"
        }
      ],
      "name": "ERC721InsufficientApproval",
      "type": "error"
    },
    {
      "inputs": [
        {
          "internalType": "address",
          "name": "approver",
          "type": "address"
        }
      ],
      "name": "ERC721InvalidApprover",
      "type": "error"
    },
    {
      "inputs": [
        {
          "internalType": "address",
          "name": "operator",
          "type": "address"
        }
      ],
      "name": "ERC721InvalidOperator",
      "type": "error"
    },
    {
      "inputs": [
        {
          "internalType": "address",
          "name": "owner",
          "type": "address"
        }
      ],
      "name": "ERC721InvalidOwner",
      "type": "error"
    },
    {
      "inputs": [
        {
          "internalType": "address",
          "name": "receiver",
          "type": "address"
        }
      ],
      "name": "ERC721InvalidReceiver",
      "type": "error"
    },
    {
      "inputs": [
        {
          "internalType": "address",
          "name": "sender",
          "type": "address"
        }
      ],
      "name": "ERC721InvalidSender",
      "type": "error"
    },
    {
      "inputs": [
        {
          "internalType": "uint256",
          "name": "tokenId",
          "type": "uint256"
        }
      ],
      "name": "ERC721NonexistentToken",
      "type": "error"
    },
    {
      "anonymous": false,
      "inputs": [
        {
          "indexed": true,
          "internalType": "address",
          "name": "owner",
          "type": "address"
        },
        {
          "indexed": true,
          "internalType": "address",
          "name": "approved",
          "type": "address"
        },
        {
          "indexed": true,
          "internalType": "uint256",
          "name": "tokenId",
          "type": "uint256"
        }
      ],
      "name": "Approval",
      "type": "event"
    },
    {
      "anonymous": false,
      "inputs": [
        {
          "indexed": true,
          "internalType": "uint256",
          "name": "tokenId",
          "type": "uint256"
        },
        {
          "indexed": true,
          "internalType": "address",
          "name": "employer",
          "type": "address"
        },
        {
          "indexed": false,
          "internalType": "uint256",
          "name": "salary",
          "type": "uint256"
        },
        {
          "indexed": false,
          "internalType": "uint256",
          "name": "newSalary",
          "type": "uint256"
        }
      ],
      "name": "ApprovalChanges",
      "type": "event"
    },
    {
      "anonymous": false,
      "inputs": [
        {
          "indexed": true,
          "internalType": "address",
          "name": "owner",
          "type": "address"
        },
        {
          "indexed": true,
          "internalType": "address",
          "name": "operator",
          "type": "address"
        },
        {
          "indexed": false,
          "internalType": "bool",
          "name": "approved",
          "type": "bool"
        }
      ],
      "name": "ApprovalForAll",
      "type": "event"
    },
    {
      "anonymous": false,
      "inputs": [
        {
          "indexed": true,
          "internalType": "uint256",
          "name": "tokenId",
          "type": "uint256"
        },
        {
          "indexed": true,
          "internalType": "address",
          "name": "employer",
          "type": "address"
        },
        {
          "indexed": false,
          "internalType": "uint256",
          "name": "salary",
          "type": "uint256"
        }
      ],
      "name": "ContractCancelled",
      "type": "event"
    },
    {
      "anonymous": false,
      "inputs": [
        {
          "indexed": true,
          "internalType": "uint256",
          "name": "tokenId",
          "type": "uint256"
        },
        {
          "indexed": true,
          "internalType": "address",
          "name": "worker",
          "type": "address"
        }
      ],
      "name": "ContractSigned",
      "type": "event"
    },
    {
      "anonymous": false,
      "inputs": [
        {
          "indexed": true,
          "internalType": "uint256",
          "name": "tokenId",
          "type": "uint256"
        },
        {
          "indexed": false,
          "internalType": "uint256",
          "name": "salary",
          "type": "uint256"
        },
        {
          "indexed": true,
          "internalType": "address",
          "name": "worker",
          "type": "address"
        }
      ],
      "name": "SalaryReleased",
      "type": "event"
    },
    {
      "anonymous": false,
      "inputs": [
        {
          "indexed": false,
          "internalType": "uint256",
          "name": "tokenId",
          "type": "uint256"
        },
        {
          "indexed": true,
          "internalType": "address",
          "name": "employer",
          "type": "address"
        },
        {
          "indexed": false,
          "internalType": "uint256",
          "name": "salary",
          "type": "uint256"
        }
      ],
      "name": "TokenMinted",
      "type": "event"
    },
    {
      "anonymous": false,
      "inputs": [
        {
          "indexed": true,
          "internalType": "address",
          "name": "from",
          "type": "address"
        },
        {
          "indexed": true,
          "internalType": "address",
          "name": "to",
          "type": "address"
        },
        {
          "indexed": true,
          "internalType": "uint256",
          "name": "tokenId",
          "type": "uint256"
        }
      ],
      "name": "Transfer",
      "type": "event"
    },
    {
      "inputs": [
        {
          "internalType": "address",
          "name": "to",
          "type": "address"
        },
        {
          "internalType": "uint256",
          "name": "tokenId",
          "type": "uint256"
        }
      ],
      "name": "approve",
      "outputs": [],
      "stateMutability": "nonpayable",
      "type": "function"
    },
    {
      "inputs": [
        {
          "internalType": "address",
          "name": "owner",
          "type": "address"
        }
      ],
      "name": "balanceOf",
      "outputs": [
        {
          "internalType": "uint256",
          "name": "",
          "type": "uint256"
        }
      ],
      "stateMutability": "view",
      "type": "function",
      "constant": true
    },
    {
      "inputs": [
        {
          "internalType": "uint256",
          "name": "",
          "type": "uint256"
        }
      ],
      "name": "changeProposals",
      "outputs": [
        {
          "internalType": "string",
          "name": "newTitle",
          "type": "string"
        },
        {
          "internalType": "uint256",
          "name": "newSalary",
          "type": "uint256"
        },
        {
          "internalType": "uint256",
          "name": "newDuration",
          "type": "uint256"
        },
        {
          "internalType": "string",
          "name": "newDescription",
          "type": "string"
        },
        {
          "internalType": "bool",
          "name": "isPaused",
          "type": "bool"
        },
        {
          "internalType": "bool",
          "name": "isPending",
          "type": "bool"
        }
      ],
      "stateMutability": "view",
      "type": "function",
      "constant": true
    },
    {
      "inputs": [
        {
          "internalType": "uint256",
          "name": "",
          "type": "uint256"
        }
      ],
      "name": "contractDetails",
      "outputs": [
        {
          "internalType": "uint256",
          "name": "salary",
          "type": "uint256"
        },
        {
          "internalType": "uint256",
          "name": "startDate",
          "type": "uint256"
        },
        {
          "internalType": "uint256",
          "name": "duration",
          "type": "uint256"
        },
        {
          "internalType": "string",
          "name": "title",
          "type": "string"
        },
        {
          "internalType": "string",
          "name": "description",
          "type": "string"
        },
        {
          "internalType": "bool",
          "name": "isSigned",
          "type": "bool"
        },
        {
          "internalType": "address",
          "name": "worker",
          "type": "address"
        },
        {
          "internalType": "bool",
          "name": "isFinished",
          "type": "bool"
        },
        {
          "internalType": "bool",
          "name": "isReleased",
          "type": "bool"
        },
        {
          "internalType": "bool",
          "name": "isPaused",
          "type": "bool"
        },
        {
          "internalType": "uint256",
          "name": "pauseTime",
          "type": "uint256"
        },
        {
          "internalType": "uint256",
          "name": "pauseDuration",
          "type": "uint256"
        }
      ],
      "stateMutability": "view",
      "type": "function",
      "constant": true
    },
    {
      "inputs": [
        {
          "internalType": "uint256",
          "name": "tokenId",
          "type": "uint256"
        }
      ],
      "name": "getApproved",
      "outputs": [
        {
          "internalType": "address",
          "name": "",
          "type": "address"
        }
      ],
      "stateMutability": "view",
      "type": "function",
      "constant": true
    },
    {
      "inputs": [
        {
          "internalType": "address",
          "name": "owner",
          "type": "address"
        },
        {
          "internalType": "address",
          "name": "operator",
          "type": "address"
        }
      ],
      "name": "isApprovedForAll",
      "outputs": [
        {
          "internalType": "bool",
          "name": "",
          "type": "bool"
        }
      ],
      "stateMutability": "view",
      "type": "function",
      "constant": true
    },
    {
      "inputs": [],
      "name": "name",
      "outputs": [
        {
          "internalType": "string",
          "name": "",
          "type": "string"
        }
      ],
      "stateMutability": "view",
      "type": "function",
      "constant": true
    },
    {
      "inputs": [
        {
          "internalType": "uint256",
          "name": "tokenId",
          "type": "uint256"
        }
      ],
      "name": "ownerOf",
      "outputs": [
        {
          "internalType": "address",
          "name": "",
          "type": "address"
        }
      ],
      "stateMutability": "view",
      "type": "function",
      "constant": true
    },
    {
      "inputs": [
        {
          "internalType": "address",
          "name": "from",
          "type": "address"
        },
        {
          "internalType": "address",
          "name": "to",
          "type": "address"
        },
        {
          "internalType": "uint256",
          "name": "tokenId",
          "type": "uint256"
        }
      ],
      "name": "safeTransferFrom",
      "outputs": [],
      "stateMutability": "nonpayable",
      "type": "function"
    },
    {
      "inputs": [
        {
          "internalType": "address",
          "name": "from",
          "type": "address"
        },
        {
          "internalType": "address",
          "name": "to",
          "type": "address"
        },
        {
          "internalType": "uint256",
          "name": "tokenId",
          "type": "uint256"
        },
        {
          "internalType": "bytes",
          "name": "data",
          "type": "bytes"
        }
      ],
      "name": "safeTransferFrom",
      "outputs": [],
      "stateMutability": "nonpayable",
      "type": "function"
    },
    {
      "inputs": [
        {
          "internalType": "address",
          "name": "operator",
          "type": "address"
        },
        {
          "internalType": "bool",
          "name": "approved",
          "type": "bool"
        }
      ],
      "name": "setApprovalForAll",
      "outputs": [],
      "stateMutability": "nonpayable",
      "type": "function"
    },
    {
      "inputs": [
        {
          "internalType": "bytes4",
          "name": "interfaceId",
          "type": "bytes4"
        }
      ],
      "name": "supportsInterface",
      "outputs": [
        {
          "internalType": "bool",
          "name": "",
          "type": "bool"
        }
      ],
      "stateMutability": "view",
      "type": "function",
      "constant": true
    },
    {
      "inputs": [],
      "name": "symbol",
      "outputs": [
        {
          "internalType": "string",
          "name": "",
          "type": "string"
        }
      ],
      "stateMutability": "view",
      "type": "function",
      "constant": true
    },
    {
      "inputs": [
        {
          "internalType": "uint256",
          "name": "",
          "type": "uint256"
        },
        {
          "internalType": "address",
          "name": "",
          "type": "address"
        }
      ],
      "name": "tokenManagers",
      "outputs": [
        {
          "internalType": "bool",
          "name": "",
          "type": "bool"
        }
      ],
      "stateMutability": "view",
      "type": "function",
      "constant": true
    },
    {
      "inputs": [
        {
          "internalType": "uint256",
          "name": "tokenId",
          "type": "uint256"
        }
      ],
      "name": "tokenURI",
      "outputs": [
        {
          "internalType": "string",
          "name": "",
          "type": "string"
        }
      ],
      "stateMutability": "view",
      "type": "function",
      "constant": true
    },
    {
      "inputs": [
        {
          "internalType": "address",
          "name": "from",
          "type": "address"
        },
        {
          "internalType": "address",
          "name": "to",
          "type": "address"
        },
        {
          "internalType": "uint256",
          "name": "tokenId",
          "type": "uint256"
        }
      ],
      "name": "transferFrom",
      "outputs": [],
      "stateMutability": "nonpayable",
      "type": "function"
    },
    {
      "inputs": [
        {
          "internalType": "address",
          "name": "_to",
          "type": "address"
        },
        {
          "internalType": "uint256",
          "name": "_salary",
          "type": "uint256"
        },
        {
          "internalType": "uint256",
          "name": "_duration",
          "type": "uint256"
        },
        {
          "internalType": "string",
          "name": "_description",
          "type": "string"
        },
        {
          "internalType": "string",
          "name": "_title",
          "type": "string"
        }
      ],
      "name": "mint",
      "outputs": [
        {
          "internalType": "uint256",
          "name": "",
          "type": "uint256"
        }
      ],
      "stateMutability": "payable",
      "type": "function",
      "payable": true
    },
    {
      "inputs": [
        {
          "internalType": "uint256",
          "name": "_tokenID",
          "type": "uint256"
        }
      ],
      "name": "signContract",
      "outputs": [],
      "stateMutability": "nonpayable",
      "type": "function"
    },
    {
      "inputs": [
        {
          "internalType": "uint256",
          "name": "_tokenID",
          "type": "uint256"
        }
      ],
      "name": "releaseSalary",
      "outputs": [],
      "stateMutability": "payable",
      "type": "function",
      "payable": true
    },
    {
      "inputs": [
        {
          "internalType": "uint256",
          "name": "_tokenID",
          "type": "uint256"
        }
      ],
      "name": "finalizeContract",
      "outputs": [],
      "stateMutability": "nonpayable",
      "type": "function"
    },
    {
      "inputs": [
        {
          "internalType": "uint256",
          "name": "_tokenID",
          "type": "uint256"
        }
      ],
      "name": "pauseContract",
      "outputs": [],
      "stateMutability": "nonpayable",
      "type": "function"
    },
    {
      "inputs": [
        {
          "internalType": "uint256",
          "name": "_tokenID",
          "type": "uint256"
        }
      ],
      "name": "unPauseContract",
      "outputs": [],
      "stateMutability": "nonpayable",
      "type": "function"
    },
    {
      "inputs": [
        {
          "internalType": "uint256",
          "name": "_tokenID",
          "type": "uint256"
        }
      ],
      "name": "cancelContract",
      "outputs": [],
      "stateMutability": "nonpayable",
      "type": "function"
    },
    {
      "inputs": [
        {
          "internalType": "uint256",
          "name": "_tokenId",
          "type": "uint256"
        },
        {
          "internalType": "address",
          "name": "_newManager",
          "type": "address"
        }
      ],
      "name": "assignManagerToToken",
      "outputs": [],
      "stateMutability": "nonpayable",
      "type": "function"
    },
    {
      "inputs": [
        {
          "internalType": "uint256",
          "name": "_tokenId",
          "type": "uint256"
        },
        {
          "internalType": "address",
          "name": "_manager",
          "type": "address"
        }
      ],
      "name": "revokeManagerFromToken",
      "outputs": [],
      "stateMutability": "nonpayable",
      "type": "function"
    },
    {
      "inputs": [
        {
          "internalType": "uint256",
          "name": "_tokenId",
          "type": "uint256"
        }
      ],
      "name": "getManagersOfToken",
      "outputs": [
        {
          "internalType": "address[]",
          "name": "",
          "type": "address[]"
        }
      ],
      "stateMutability": "view",
      "type": "function",
      "constant": true
    },
    {
      "inputs": [
        {
          "internalType": "uint256",
          "name": "_tokenId",
          "type": "uint256"
        },
        {
          "internalType": "address",
          "name": "_manager",
          "type": "address"
        }
      ],
      "name": "isManagerOfToken",
      "outputs": [
        {
          "internalType": "bool",
          "name": "",
          "type": "bool"
        }
      ],
      "stateMutability": "view",
      "type": "function",
      "constant": true
    },
    {
      "inputs": [
        {
          "internalType": "uint256",
          "name": "_tokenID",
          "type": "uint256"
        },
        {
          "internalType": "string",
          "name": "_newTitle",
          "type": "string"
        },
        {
          "internalType": "uint256",
          "name": "_newSalary",
          "type": "uint256"
        },
        {
          "internalType": "uint256",
          "name": "_newDuration",
          "type": "uint256"
        },
        {
          "internalType": "string",
          "name": "_newDescription",
          "type": "string"
        },
        {
          "internalType": "bool",
          "name": "_isPaused",
          "type": "bool"
        }
      ],
      "name": "proposeChange",
      "outputs": [],
      "stateMutability": "payable",
      "type": "function",
      "payable": true
    },
    {
      "inputs": [
        {
          "internalType": "uint256",
          "name": "_tokenID",
          "type": "uint256"
        }
      ],
      "name": "rejectChange",
      "outputs": [],
      "stateMutability": "nonpayable",
      "type": "function"
    },
    {
      "inputs": [
        {
          "internalType": "uint256",
          "name": "_tokenID",
          "type": "uint256"
        }
      ],
      "name": "applyChange",
      "outputs": [],
      "stateMutability": "payable",
      "type": "function",
      "payable": true
    },
    {
      "inputs": [
        {
          "internalType": "address",
          "name": "_address",
          "type": "address"
        }
      ],
      "name": "getContractsFromOwner",
      "outputs": [
        {
          "internalType": "uint256[]",
          "name": "",
          "type": "uint256[]"
        }
      ],
      "stateMutability": "view",
      "type": "function",
      "constant": true
    },
    {
      "inputs": [
        {
          "internalType": "address",
          "name": "_address",
          "type": "address"
        }
      ],
      "name": "getContractsOfWorker",
      "outputs": [
        {
          "internalType": "uint256[]",
          "name": "",
          "type": "uint256[]"
        }
      ],
      "stateMutability": "view",
      "type": "function",
      "constant": true
    },
    {
      "inputs": [
        {
          "internalType": "address",
          "name": "worker",
          "type": "address"
        }
      ],
      "name": "getUnsignedContractsOfWorker",
      "outputs": [
        {
          "internalType": "uint256[]",
          "name": "",
          "type": "uint256[]"
        }
      ],
      "stateMutability": "view",
      "type": "function",
      "constant": true
    },
    {
      "inputs": [
        {
          "internalType": "uint256",
          "name": "_tokenId",
          "type": "uint256"
        }
      ],
      "name": "tokenExists",
      "outputs": [
        {
          "internalType": "bool",
          "name": "",
          "type": "bool"
        }
      ],
      "stateMutability": "view",
      "type": "function",
      "constant": true
    },
    {
      "inputs": [
        {
          "internalType": "uint256",
          "name": "_tokenID",
          "type": "uint256"
        }
      ],
      "name": "isContractFinished",
      "outputs": [
        {
          "internalType": "bool",
          "name": "",
          "type": "bool"
        }
      ],
      "stateMutability": "view",
      "type": "function",
      "constant": true
    },
    {
      "inputs": [
        {
          "internalType": "uint256",
          "name": "_tokenID",
          "type": "uint256"
        }
      ],
      "name": "isContractSigned",
      "outputs": [
        {
          "internalType": "bool",
          "name": "",
          "type": "bool"
        }
      ],
      "stateMutability": "view",
      "type": "function",
      "constant": true
    },
    {
      "inputs": [
        {
          "internalType": "uint256",
          "name": "_tokenID",
          "type": "uint256"
        }
      ],
      "name": "getOwnerOfContract",
      "outputs": [
        {
          "internalType": "address",
          "name": "",
          "type": "address"
        }
      ],
      "stateMutability": "view",
      "type": "function",
      "constant": true
    }
  ],
  "bytecode": "0x608060405234801562000010575f80fd5b506040518060400160405280600781526020017f4d79546f6b656e000000000000000000000000000000000000000000000000008152506040518060400160405280600381526020017f4d544b0000000000000000000000000000000000000000000000000000000000815250815f90816200008d91906200030c565b5080600190816200009f91906200030c565b505050620003f0565b5f81519050919050565b7f4e487b71000000000000000000000000000000000000000000000000000000005f52604160045260245ffd5b7f4e487b71000000000000000000000000000000000000000000000000000000005f52602260045260245ffd5b5f60028204905060018216806200012457607f821691505b6020821081036200013a5762000139620000df565b5b50919050565b5f819050815f5260205f209050919050565b5f6020601f8301049050919050565b5f82821b905092915050565b5f600883026200019e7fffffffffffffffffffffffffffffffffffffffffffffffffffffffffffffffff8262000161565b620001aa868362000161565b95508019841693508086168417925050509392505050565b5f819050919050565b5f819050919050565b5f620001f4620001ee620001e884620001c2565b620001cb565b620001c2565b9050919050565b5f819050919050565b6200020f83620001d4565b620002276200021e82620001fb565b8484546200016d565b825550505050565b5f90565b6200023d6200022f565b6200024a81848462000204565b505050565b5b818110156200027157620002655f8262000233565b60018101905062000250565b5050565b601f821115620002c0576200028a8162000140565b620002958462000152565b81016020851015620002a5578190505b620002bd620002b48562000152565b8301826200024f565b50505b505050565b5f82821c905092915050565b5f620002e25f1984600802620002c5565b1980831691505092915050565b5f620002fc8383620002d1565b9150826002028217905092915050565b6200031782620000a8565b67ffffffffffffffff811115620003335762000332620000b2565b5b6200033f82546200010c565b6200034c82828562000275565b5f60209050601f83116001811462000382575f84156200036d578287015190505b620003798582620002ef565b865550620003e8565b601f198416620003928662000140565b5f5b82811015620003bb5784890151825560018201915060208501945060208101905062000394565b86831015620003db5784890151620003d7601f891682620002d1565b8355505b6001600288020188555050505b505050505050565b615cb080620003fe5f395ff3fe608060405260043610610218575f3560e01c80634f73d79d1161012257806395d89b41116100aa578063c87b56dd1161006e578063c87b56dd14610833578063d053b4511461086f578063e2c07c7b146108ab578063e985e9c5146108c7578063fc5a4efe1461090357610218565b806395d89b4114610755578063a22cb4651461077f578063b88d4fde146107a7578063bce87156146107cf578063c2852f381461080b57610218565b806370a08231116100f157806370a082311461065157806389b83d3e1461068d57806390d16ce4146106b557806393a43c19146106f15780639537e8d11461072d57610218565b80634f73d79d1461058d57806353765744146105a95780636352211e146105e55780636d0136181461062157610218565b806323e0f237116101a557806331432e451161017457806331432e451461049e5780633330a55f146104da578063409283d01461052157806342842e0e1461053d5780634ec3e2aa1461056557610218565b806323e0f237146103d657806328047450146104125780632907eb161461043a578063294a79311461046257610218565b8063081812fc116101ec578063081812fc146102e6578063095ea7b31461032257806323133e4c1461034a5780632355e2171461038657806323b872dd146103ae57610218565b8062923f9e1461021c57806301ffc9a714610258578063045b6a4e1461029457806306fdde03146102bc575b5f80fd5b348015610227575f80fd5b50610242600480360381019061023d9190614420565b610944565b60405161024f9190614465565b60405180910390f35b348015610263575f80fd5b5061027e600480360381019061027991906144d3565b6109cf565b60405161028b9190614465565b60405180910390f35b34801561029f575f80fd5b506102ba60048036038101906102b59190614558565b610ab0565b005b3480156102c7575f80fd5b506102d0610bdf565b6040516102dd9190614620565b60405180910390f35b3480156102f1575f80fd5b5061030c60048036038101906103079190614420565b610c6e565b604051610319919061464f565b60405180910390f35b34801561032d575f80fd5b5061034860048036038101906103439190614668565b610c89565b005b348015610355575f80fd5b50610370600480360381019061036b91906146a6565b610c9f565b60405161037d9190614788565b60405180910390f35b348015610391575f80fd5b506103ac60048036038101906103a79190614558565b610ec3565b005b3480156103b9575f80fd5b506103d460048036038101906103cf91906147a8565b611059565b005b3480156103e1575f80fd5b506103fc60048036038101906103f79190614420565b611158565b604051610409919061464f565b60405180910390f35b34801561041d575f80fd5b5061043860048036038101906104339190614420565b611169565b005b348015610445575f80fd5b50610460600480360381019061045b9190614420565b611298565b005b34801561046d575f80fd5b5061048860048036038101906104839190614558565b61147c565b6040516104959190614465565b60405180910390f35b3480156104a9575f80fd5b506104c460048036038101906104bf9190614558565b6114a6565b6040516104d19190614465565b60405180910390f35b3480156104e5575f80fd5b5061050060048036038101906104fb9190614420565b611508565b6040516105189c9b9a99989796959493929190614807565b60405180910390f35b61053b60048036038101906105369190614420565b6116c3565b005b348015610548575f80fd5b50610563600480360381019061055e91906147a8565b611a38565b005b348015610570575f80fd5b5061058b60048036038101906105869190614420565b611a57565b005b6105a760048036038101906105a29190614a23565b611ca6565b005b3480156105b4575f80fd5b506105cf60048036038101906105ca9190614420565b611e42565b6040516105dc9190614b9b565b60405180910390f35b3480156105f0575f80fd5b5061060b60048036038101906106069190614420565b611ede565b604051610618919061464f565b60405180910390f35b61063b60048036038101906106369190614bbb565b611eef565b6040516106489190614c6a565b60405180910390f35b34801561065c575f80fd5b50610677600480360381019061067291906146a6565b6122f0565b6040516106849190614c6a565b60405180910390f35b348015610698575f80fd5b506106b360048036038101906106ae9190614420565b6123a6565b005b3480156106c0575f80fd5b506106db60048036038101906106d691906146a6565b612535565b6040516106e89190614788565b60405180910390f35b3480156106fc575f80fd5b5061071760048036038101906107129190614420565b6125c8565b6040516107249190614465565b60405180910390f35b348015610738575f80fd5b50610753600480360381019061074e9190614420565b6125f1565b005b348015610760575f80fd5b50610769612a21565b6040516107769190614620565b60405180910390f35b34801561078a575f80fd5b506107a560048036038101906107a09190614c83565b612ab1565b005b3480156107b2575f80fd5b506107cd60048036038101906107c89190614d5f565b612ac7565b005b3480156107da575f80fd5b506107f560048036038101906107f09190614420565b612ae4565b6040516108029190614465565b60405180910390f35b348015610816575f80fd5b50610831600480360381019061082c9190614420565b612b87565b005b34801561083e575f80fd5b5061085960048036038101906108549190614420565b612ce0565b6040516108669190614620565b60405180910390f35b34801561087a575f80fd5b50610895600480360381019061089091906146a6565b612d46565b6040516108a29190614788565b60405180910390f35b6108c560048036038101906108c09190614420565b612dd9565b005b3480156108d2575f80fd5b506108ed60048036038101906108e89190614ddf565b613109565b6040516108fa9190614465565b60405180910390f35b34801561090e575f80fd5b5061092960048036038101906109249190614420565b613197565b60405161093b96959493929190614e1d565b60405180910390f35b5f3073ffffffffffffffffffffffffffffffffffffffff16636352211e836040518263ffffffff1660e01b815260040161097e9190614c6a565b602060405180830381865afa9250505080156109b857506040513d601f19601f820116820180604052508101906109b59190614e9e565b60015b6109c4575f90506109ca565b50600190505b919050565b5f7f80ac58cd000000000000000000000000000000000000000000000000000000007bffffffffffffffffffffffffffffffffffffffffffffffffffffffff1916827bffffffffffffffffffffffffffffffffffffffffffffffffffffffff19161480610a9957507f5b5e139f000000000000000000000000000000000000000000000000000000007bffffffffffffffffffffffffffffffffffffffffffffffffffffffff1916827bffffffffffffffffffffffffffffffffffffffffffffffffffffffff1916145b80610aa95750610aa8826132f4565b5b9050919050565b5f5b60085f8481526020019081526020015f2080549050811015610b6d578173ffffffffffffffffffffffffffffffffffffffff1660085f8581526020019081526020015f208281548110610b0857610b07614ec9565b5b905f5260205f20015f9054906101000a900473ffffffffffffffffffffffffffffffffffffffff1673ffffffffffffffffffffffffffffffffffffffff1603610b5a57610b55838261335d565b610b6d565b8080610b6590614f23565b915050610ab2565b505f60075f8481526020019081526020015f205f8373ffffffffffffffffffffffffffffffffffffffff1673ffffffffffffffffffffffffffffffffffffffff1681526020019081526020015f205f6101000a81548160ff021916908315150217905550610bdb8282613487565b5050565b60605f8054610bed90614f97565b80601f0160208091040260200160405190810160405280929190818152602001828054610c1990614f97565b8015610c645780601f10610c3b57610100808354040283529160200191610c64565b820191905f5260205f20905b815481529060010190602001808311610c4757829003601f168201915b5050505050905090565b5f610c78826136bd565b50610c8282613743565b9050919050565b610c9b8282610c9661377c565b613783565b5050565b60605f600c5f8473ffffffffffffffffffffffffffffffffffffffff1673ffffffffffffffffffffffffffffffffffffffff1681526020019081526020015f208054905090505f8167ffffffffffffffff811115610d0057610cff6148d5565b5b604051908082528060200260200182016040528015610d2e5781602001602082028036833780820191505090505b5090505f805b83811015610e12575f600c5f8873ffffffffffffffffffffffffffffffffffffffff1673ffffffffffffffffffffffffffffffffffffffff1681526020019081526020015f208281548110610d8c57610d8b614ec9565b5b905f5260205f200154905060095f8281526020019081526020015f206005015f9054906101000a900460ff16158015610dca5750610dc981610944565b5b15610dfe5780848481518110610de357610de2614ec9565b5b6020026020010181815250508280610dfa90614f23565b9350505b508080610e0a90614f23565b915050610d34565b505f8167ffffffffffffffff811115610e2e57610e2d6148d5565b5b604051908082528060200260200182016040528015610e5c5781602001602082028036833780820191505090505b5090505f5b82811015610eb657838181518110610e7c57610e7b614ec9565b5b6020026020010151828281518110610e9757610e96614ec9565b5b6020026020010181815250508080610eae90614f23565b915050610e61565b5080945050505050919050565b60075f8381526020019081526020015f205f8273ffffffffffffffffffffffffffffffffffffffff1673ffffffffffffffffffffffffffffffffffffffff1681526020019081526020015f205f9054906101000a900460ff1661105557600160075f8481526020019081526020015f205f8373ffffffffffffffffffffffffffffffffffffffff1673ffffffffffffffffffffffffffffffffffffffff1681526020019081526020015f205f6101000a81548160ff02191690831515021790555060085f8381526020019081526020015f2081908060018154018082558091505060019003905f5260205f20015f9091909190916101000a81548173ffffffffffffffffffffffffffffffffffffffff021916908373ffffffffffffffffffffffffffffffffffffffff160217905550600a5f8273ffffffffffffffffffffffffffffffffffffffff1673ffffffffffffffffffffffffffffffffffffffff1681526020019081526020015f2082908060018154018082558091505060019003905f5260205f20015f90919091909150555b5050565b5f73ffffffffffffffffffffffffffffffffffffffff168273ffffffffffffffffffffffffffffffffffffffff16036110c9575f6040517f64a0ae920000000000000000000000000000000000000000000000000000000081526004016110c0919061464f565b60405180910390fd5b5f6110dc83836110d761377c565b613795565b90508373ffffffffffffffffffffffffffffffffffffffff168173ffffffffffffffffffffffffffffffffffffffff1614611152578382826040517f64283d7b00000000000000000000000000000000000000000000000000000000815260040161114993929190614fc7565b60405180910390fd5b50505050565b5f61116282611ede565b9050919050565b60095f8281526020019081526020015f206005015f9054906101000a900460ff16156111ca576040517f08c379a00000000000000000000000000000000000000000000000000000000081526004016111c190615046565b60405180910390fd5b5f6111d482611ede565b90505f60095f8481526020019081526020015f205f015490508173ffffffffffffffffffffffffffffffffffffffff166108fc8290811502906040515f60405180830381858888f19350505050158015611230573d5f803e3d5ffd5b5061123b8383613487565b611244836139a0565b8173ffffffffffffffffffffffffffffffffffffffff16837f25e39f21e1387feb8e09cdd18390c7d364c13212c9bda36aeb7ceb4cdb9e5d0d8360405161128b9190614c6a565b60405180910390a3505050565b6001151560075f8381526020019081526020015f205f3373ffffffffffffffffffffffffffffffffffffffff1673ffffffffffffffffffffffffffffffffffffffff1681526020019081526020015f205f9054906101000a900460ff16151514611337576040517f08c379a000000000000000000000000000000000000000000000000000000000815260040161132e906150d4565b60405180910390fd5b60095f8281526020019081526020015f206005015f9054906101000a900460ff16611397576040517f08c379a000000000000000000000000000000000000000000000000000000000815260040161138e9061513c565b60405180910390fd5b5f151560095f8381526020019081526020015f2060050160159054906101000a900460ff161515146113fe576040517f08c379a00000000000000000000000000000000000000000000000000000000081526004016113f5906151a4565b60405180910390fd5b5f151561140a82612ae4565b15151461144c576040517f08c379a00000000000000000000000000000000000000000000000000000000081526004016114439061520c565b60405180910390fd5b600160095f8381526020019081526020015f2060050160156101000a81548160ff02191690831515021790555050565b6007602052815f5260405f20602052805f5260405f205f915091509054906101000a900460ff1681565b5f60075f8481526020019081526020015f205f8373ffffffffffffffffffffffffffffffffffffffff1673ffffffffffffffffffffffffffffffffffffffff1681526020019081526020015f205f9054906101000a900460ff16905092915050565b6009602052805f5260405f205f91509050805f01549080600101549080600201549080600301805461153990614f97565b80601f016020809104026020016040519081016040528092919081815260200182805461156590614f97565b80156115b05780601f10611587576101008083540402835291602001916115b0565b820191905f5260205f20905b81548152906001019060200180831161159357829003601f168201915b5050505050908060040180546115c590614f97565b80601f01602080910402602001604051908101604052809291908181526020018280546115f190614f97565b801561163c5780601f106116135761010080835404028352916020019161163c565b820191905f5260205f20905b81548152906001019060200180831161161f57829003601f168201915b505050505090806005015f9054906101000a900460ff16908060050160019054906101000a900473ffffffffffffffffffffffffffffffffffffffff16908060050160159054906101000a900460ff16908060050160169054906101000a900460ff16908060050160179054906101000a900460ff1690806006015490806007015490508c565b5f600d5f8381526020019081526020015f206040518060c00160405290815f820180546116ef90614f97565b80601f016020809104026020016040519081016040528092919081815260200182805461171b90614f97565b80156117665780601f1061173d57610100808354040283529160200191611766565b820191905f5260205f20905b81548152906001019060200180831161174957829003601f168201915b50505050508152602001600182015481526020016002820154815260200160038201805461179390614f97565b80601f01602080910402602001604051908101604052809291908181526020018280546117bf90614f97565b801561180a5780601f106117e15761010080835404028352916020019161180a565b820191905f5260205f20905b8154815290600101906020018083116117ed57829003601f168201915b50505050508152602001600482015f9054906101000a900460ff161515151581526020016004820160019054906101000a900460ff16151515158152505090505f60095f8481526020019081526020015f205f0154905080826020015110156118d3575f82602001518261187e919061522a565b90505f61188a85611ede565b90508073ffffffffffffffffffffffffffffffffffffffff166108fc8390811502906040515f60405180830381858888f193505050501580156118cf573d5f803e3d5ffd5b5050505b815f015160095f8581526020019081526020015f2060030190816118f791906153fa565b50816020015160095f8581526020019081526020015f205f0181905550816040015160095f8581526020019081526020015f2060020181905550816060015160095f8581526020019081526020015f20600401908161195691906153fa565b5060095f8481526020019081526020015f2060050160179054906101000a900460ff16151582608001511515146119aa5781608001511561199f5761199a83612b87565b6119a9565b6119a8836123a6565b5b5b5f600d5f8581526020019081526020015f2060040160016101000a81548160ff0219169083151502179055506119df83611ede565b73ffffffffffffffffffffffffffffffffffffffff16837fdcd8a9293339e5934d4815b509b4a019bd7d50454390e0f1a3fa2dc41cc9a2aa838560200151604051611a2b9291906154c9565b60405180910390a3505050565b611a5283838360405180602001604052805f815250612ac7565b505050565b5f600d5f8381526020019081526020015f206040518060c00160405290815f82018054611a8390614f97565b80601f0160208091040260200160405190810160405280929190818152602001828054611aaf90614f97565b8015611afa5780601f10611ad157610100808354040283529160200191611afa565b820191905f5260205f20905b815481529060010190602001808311611add57829003601f168201915b505050505081526020016001820154815260200160028201548152602001600382018054611b2790614f97565b80601f0160208091040260200160405190810160405280929190818152602001828054611b5390614f97565b8015611b9e5780601f10611b7557610100808354040283529160200191611b9e565b820191905f5260205f20905b815481529060010190602001808311611b8157829003601f168201915b50505050508152602001600482015f9054906101000a900460ff161515151581526020016004820160019054906101000a900460ff161515151581525050905060095f8381526020019081526020015f205f015481602001511115611c76575f60095f8481526020019081526020015f205f01548260200151611c21919061522a565b90505f611c2d84611ede565b90508073ffffffffffffffffffffffffffffffffffffffff166108fc8390811502906040515f60405180830381858888f19350505050158015611c72573d5f803e3d5ffd5b5050505b5f600d5f8481526020019081526020015f2060040160016101000a81548160ff0219169083151502179055505050565b5f60095f8881526020019081526020015f205f0154905080851115611d76575f8186611cd2919061522a565b905080341015611d17576040517f08c379a0000000000000000000000000000000000000000000000000000000008152600401611d0e90615560565b60405180910390fd5b5f8134611d24919061522a565b90505f811115611d73573373ffffffffffffffffffffffffffffffffffffffff166108fc8290811502906040515f60405180830381858888f19350505050158015611d71573d5f803e3d5ffd5b505b50505b6040518060c00160405280878152602001868152602001858152602001848152602001831515815260200160011515815250600d5f8981526020019081526020015f205f820151815f019081611dcc91906153fa565b5060208201518160010155604082015181600201556060820151816003019081611df691906153fa565b506080820151816004015f6101000a81548160ff02191690831515021790555060a08201518160040160016101000a81548160ff02191690831515021790555090505050505050505050565b606060085f8381526020019081526020015f20805480602002602001604051908101604052809291908181526020018280548015611ed257602002820191905f5260205f20905b815f9054906101000a900473ffffffffffffffffffffffffffffffffffffffff1673ffffffffffffffffffffffffffffffffffffffff1681526020019060010190808311611e89575b50505050509050919050565b5f611ee8826136bd565b9050919050565b5f84341015611f33576040517f08c379a0000000000000000000000000000000000000000000000000000000008152600401611f2a906155ee565b60405180910390fd5b60065f815480929190611f4590614f23565b9190505550611f5633600654613a22565b5f8534611f63919061522a565b90505f811115611fb2573373ffffffffffffffffffffffffffffffffffffffff166108fc8290811502906040515f60405180830381858888f19350505050158015611fb0573d5f803e3d5ffd5b505b5f6040518061018001604052808881526020014281526020018781526020018581526020018681526020015f151581526020018973ffffffffffffffffffffffffffffffffffffffff1681526020015f151581526020015f151581526020015f151581526020015f81526020015f81525090508060095f60065481526020019081526020015f205f820151815f01556020820151816001015560408201518160020155606082015181600301908161206a91906153fa565b50608082015181600401908161208091906153fa565b5060a0820151816005015f6101000a81548160ff02191690831515021790555060c08201518160050160016101000a81548173ffffffffffffffffffffffffffffffffffffffff021916908373ffffffffffffffffffffffffffffffffffffffff16021790555060e08201518160050160156101000a81548160ff0219169083151502179055506101008201518160050160166101000a81548160ff0219169083151502179055506101208201518160050160176101000a81548160ff02191690831515021790555061014082015181600601556101608201518160070155905050600160075f60065481526020019081526020015f205f3373ffffffffffffffffffffffffffffffffffffffff1673ffffffffffffffffffffffffffffffffffffffff1681526020019081526020015f205f6101000a81548160ff021916908315150217905550600a5f3373ffffffffffffffffffffffffffffffffffffffff1673ffffffffffffffffffffffffffffffffffffffff1681526020019081526020015f20600654908060018154018082558091505060019003905f5260205f20015f9091909190915055600c5f8973ffffffffffffffffffffffffffffffffffffffff1673ffffffffffffffffffffffffffffffffffffffff1681526020019081526020015f20600654908060018154018082558091505060019003905f5260205f20015f90919091909150553373ffffffffffffffffffffffffffffffffffffffff167f2d03118aa776f7008445f6ca8490a6782ede2db364d741513555ba656ab1879f600654896040516122d89291906154c9565b60405180910390a26006549250505095945050505050565b5f8073ffffffffffffffffffffffffffffffffffffffff168273ffffffffffffffffffffffffffffffffffffffff1603612361575f6040517f89c62b64000000000000000000000000000000000000000000000000000000008152600401612358919061464f565b60405180910390fd5b60035f8373ffffffffffffffffffffffffffffffffffffffff1673ffffffffffffffffffffffffffffffffffffffff1681526020019081526020015f20549050919050565b60095f8281526020019081526020015f206005015f9054906101000a900460ff16612406576040517f08c379a00000000000000000000000000000000000000000000000000000000081526004016123fd9061513c565b60405180910390fd5b60095f8281526020019081526020015f2060050160179054906101000a900460ff16612467576040517f08c379a000000000000000000000000000000000000000000000000000000000815260040161245e90615656565b60405180910390fd5b5f151561247382612ae4565b1515146124b5576040517f08c379a00000000000000000000000000000000000000000000000000000000081526004016124ac9061520c565b60405180910390fd5b60095f8281526020019081526020015f2060060154426124d5919061522a565b60095f8381526020019081526020015f20600701819055505f60095f8381526020019081526020015f20600601819055505f60095f8381526020019081526020015f2060050160176101000a81548160ff02191690831515021790555050565b6060600a5f8373ffffffffffffffffffffffffffffffffffffffff1673ffffffffffffffffffffffffffffffffffffffff1681526020019081526020015f208054806020026020016040519081016040528092919081815260200182805480156125bc57602002820191905f5260205f20905b8154815260200190600101908083116125a8575b50505050509050919050565b5f60095f8381526020019081526020015f206005015f9054906101000a900460ff169050919050565b3073ffffffffffffffffffffffffffffffffffffffff16636352211e826040518263ffffffff1660e01b815260040161262a9190614c6a565b602060405180830381865afa92505050801561266457506040513d601f19601f820116820180604052508101906126619190614e9e565b60015b6126a3576040517f08c379a000000000000000000000000000000000000000000000000000000000815260040161269a906156be565b60405180910390fd5b505f151560075f8381526020019081526020015f205f3373ffffffffffffffffffffffffffffffffffffffff1673ffffffffffffffffffffffffffffffffffffffff1681526020019081526020015f205f9054906101000a900460ff16151514612742576040517f08c379a00000000000000000000000000000000000000000000000000000000081526004016127399061574c565b60405180910390fd5b60095f8281526020019081526020015f2060050160019054906101000a900473ffffffffffffffffffffffffffffffffffffffff1673ffffffffffffffffffffffffffffffffffffffff163373ffffffffffffffffffffffffffffffffffffffff16146127e4576040517f08c379a00000000000000000000000000000000000000000000000000000000081526004016127db906157da565b60405180910390fd5b60095f8281526020019081526020015f206005015f9054906101000a900460ff1615612845576040517f08c379a000000000000000000000000000000000000000000000000000000000815260040161283c90615046565b60405180910390fd5b5f151560095f8381526020019081526020015f2060050160159054906101000a900460ff161515146128ac576040517f08c379a00000000000000000000000000000000000000000000000000000000081526004016128a390615842565b60405180910390fd5b5f15156128b882612ae4565b1515146128fa576040517f08c379a00000000000000000000000000000000000000000000000000000000081526004016128f19061520c565b60405180910390fd5b600160095f8381526020019081526020015f206005015f6101000a81548160ff0219169083151502179055503360095f8381526020019081526020015f2060050160016101000a81548173ffffffffffffffffffffffffffffffffffffffff021916908373ffffffffffffffffffffffffffffffffffffffff160217905550600b5f3373ffffffffffffffffffffffffffffffffffffffff1673ffffffffffffffffffffffffffffffffffffffff1681526020019081526020015f2081908060018154018082558091505060019003905f5260205f20015f90919091909150553373ffffffffffffffffffffffffffffffffffffffff16817fcd3b1fcca80f9caae633c3e13546995d3810e561957af92839f070c46571942c60405160405180910390a350565b606060018054612a3090614f97565b80601f0160208091040260200160405190810160405280929190818152602001828054612a5c90614f97565b8015612aa75780601f10612a7e57610100808354040283529160200191612aa7565b820191905f5260205f20905b815481529060010190602001808311612a8a57829003601f168201915b5050505050905090565b612ac3612abc61377c565b8383613b15565b5050565b612ad2848484611059565b612ade84848484613c7e565b50505050565b5f6001151560095f8481526020019081526020015f2060050160159054906101000a900460ff16151503612b1b5760019050612b82565b60095f8381526020019081526020015f206007015460095f8481526020019081526020015f206002015460095f8581526020019081526020015f2060010154612b649190615860565b612b6e9190615860565b421115612b7e5760019050612b82565b5f90505b919050565b60095f8281526020019081526020015f206005015f9054906101000a900460ff16612be7576040517f08c379a0000000000000000000000000000000000000000000000000000000008152600401612bde9061513c565b60405180910390fd5b5f1515612bf382612ae4565b151514612c35576040517f08c379a0000000000000000000000000000000000000000000000000000000008152600401612c2c9061520c565b60405180910390fd5b60095f8281526020019081526020015f2060050160179054906101000a900460ff1615612c97576040517f08c379a0000000000000000000000000000000000000000000000000000000008152600401612c8e906158dd565b60405180910390fd5b600160095f8381526020019081526020015f2060050160176101000a81548160ff0219169083151502179055504260095f8381526020019081526020015f206006018190555050565b6060612ceb826136bd565b505f612cf5613e30565b90505f815111612d135760405180602001604052805f815250612d3e565b80612d1d84613e46565b604051602001612d2e929190615935565b6040516020818303038152906040525b915050919050565b6060600b5f8373ffffffffffffffffffffffffffffffffffffffff1673ffffffffffffffffffffffffffffffffffffffff1681526020019081526020015f20805480602002602001604051908101604052809291908181526020018280548015612dcd57602002820191905f5260205f20905b815481526020019060010190808311612db9575b50505050509050919050565b60095f8281526020019081526020015f206005015f9054906101000a900460ff16612e39576040517f08c379a0000000000000000000000000000000000000000000000000000000008152600401612e309061513c565b60405180910390fd5b5f151560095f8381526020019081526020015f2060050160169054906101000a900460ff16151514612ea0576040517f08c379a0000000000000000000000000000000000000000000000000000000008152600401612e97906159a2565b60405180910390fd5b6001151560075f8381526020019081526020015f205f3373ffffffffffffffffffffffffffffffffffffffff1673ffffffffffffffffffffffffffffffffffffffff1681526020019081526020015f205f9054906101000a900460ff16151514612f3f576040517f08c379a0000000000000000000000000000000000000000000000000000000008152600401612f3690615a30565b60405180910390fd5b60011515612f4c82612ae4565b151514612f8e576040517f08c379a0000000000000000000000000000000000000000000000000000000008152600401612f8590615a98565b60405180910390fd5b5f151560095f8381526020019081526020015f2060050160179054906101000a900460ff16151514612ff5576040517f08c379a0000000000000000000000000000000000000000000000000000000008152600401612fec90615b00565b60405180910390fd5b5f60095f8381526020019081526020015f2060050160019054906101000a900473ffffffffffffffffffffffffffffffffffffffff1690505f60095f8481526020019081526020015f205f015490508173ffffffffffffffffffffffffffffffffffffffff166108fc8290811502906040515f60405180830381858888f19350505050158015613087573d5f803e3d5ffd5b50600160095f8581526020019081526020015f2060050160166101000a81548160ff0219169083151502179055508173ffffffffffffffffffffffffffffffffffffffff16837f349a56b0d9097cc12a56a6202aabfc3b558988ed5768b3e413301735bf6dcffd836040516130fc9190614c6a565b60405180910390a3505050565b5f60055f8473ffffffffffffffffffffffffffffffffffffffff1673ffffffffffffffffffffffffffffffffffffffff1681526020019081526020015f205f8373ffffffffffffffffffffffffffffffffffffffff1673ffffffffffffffffffffffffffffffffffffffff1681526020019081526020015f205f9054906101000a900460ff16905092915050565b600d602052805f5260405f205f91509050805f0180546131b690614f97565b80601f01602080910402602001604051908101604052809291908181526020018280546131e290614f97565b801561322d5780601f106132045761010080835404028352916020019161322d565b820191905f5260205f20905b81548152906001019060200180831161321057829003601f168201915b50505050509080600101549080600201549080600301805461324e90614f97565b80601f016020809104026020016040519081016040528092919081815260200182805461327a90614f97565b80156132c55780601f1061329c576101008083540402835291602001916132c5565b820191905f5260205f20905b8154815290600101906020018083116132a857829003601f168201915b505050505090806004015f9054906101000a900460ff16908060040160019054906101000a900460ff16905086565b5f7f01ffc9a7000000000000000000000000000000000000000000000000000000007bffffffffffffffffffffffffffffffffffffffffffffffffffffffff1916827bffffffffffffffffffffffffffffffffffffffffffffffffffffffff1916149050919050565b60085f8381526020019081526020015f20600160085f8581526020019081526020015f208054905061338f919061522a565b815481106133a05761339f614ec9565b5b905f5260205f20015f9054906101000a900473ffffffffffffffffffffffffffffffffffffffff1660085f8481526020019081526020015f2082815481106133eb576133ea614ec9565b5b905f5260205f20015f6101000a81548173ffffffffffffffffffffffffffffffffffffffff021916908373ffffffffffffffffffffffffffffffffffffffff16021790555060085f8381526020019081526020015f2080548061345157613450615b1e565b5b600190038181905f5260205f20015f6101000a81549073ffffffffffffffffffffffffffffffffffffffff021916905590555050565b5f806001600a5f8573ffffffffffffffffffffffffffffffffffffffff1673ffffffffffffffffffffffffffffffffffffffff1681526020019081526020015f20805490506134d6919061522a565b90505f5b600a5f8573ffffffffffffffffffffffffffffffffffffffff1673ffffffffffffffffffffffffffffffffffffffff1681526020019081526020015f208054905081101561359b5784600a5f8673ffffffffffffffffffffffffffffffffffffffff1673ffffffffffffffffffffffffffffffffffffffff1681526020019081526020015f20828154811061357257613571614ec9565b5b905f5260205f200154036135885780925061359b565b808061359390614f23565b9150506134da565b5080821461365757600a5f8473ffffffffffffffffffffffffffffffffffffffff1673ffffffffffffffffffffffffffffffffffffffff1681526020019081526020015f2081815481106135f2576135f1614ec9565b5b905f5260205f200154600a5f8573ffffffffffffffffffffffffffffffffffffffff1673ffffffffffffffffffffffffffffffffffffffff1681526020019081526020015f20838154811061364a57613649614ec9565b5b905f5260205f2001819055505b600a5f8473ffffffffffffffffffffffffffffffffffffffff1673ffffffffffffffffffffffffffffffffffffffff1681526020019081526020015f208054806136a4576136a3615b1e565b5b600190038181905f5260205f20015f9055905550505050565b5f806136c883613f10565b90505f73ffffffffffffffffffffffffffffffffffffffff168173ffffffffffffffffffffffffffffffffffffffff160361373a57826040517f7e2732890000000000000000000000000000000000000000000000000000000081526004016137319190614c6a565b60405180910390fd5b80915050919050565b5f60045f8381526020019081526020015f205f9054906101000a900473ffffffffffffffffffffffffffffffffffffffff169050919050565b5f33905090565b6137908383836001613f49565b505050565b5f806137a084613f10565b90505f73ffffffffffffffffffffffffffffffffffffffff168373ffffffffffffffffffffffffffffffffffffffff16146137e1576137e0818486614108565b5b5f73ffffffffffffffffffffffffffffffffffffffff168173ffffffffffffffffffffffffffffffffffffffff161461386c576138205f855f80613f49565b600160035f8373ffffffffffffffffffffffffffffffffffffffff1673ffffffffffffffffffffffffffffffffffffffff1681526020019081526020015f205f82825403925050819055505b5f73ffffffffffffffffffffffffffffffffffffffff168573ffffffffffffffffffffffffffffffffffffffff16146138eb57600160035f8773ffffffffffffffffffffffffffffffffffffffff1673ffffffffffffffffffffffffffffffffffffffff1681526020019081526020015f205f82825401925050819055505b8460025f8681526020019081526020015f205f6101000a81548173ffffffffffffffffffffffffffffffffffffffff021916908373ffffffffffffffffffffffffffffffffffffffff160217905550838573ffffffffffffffffffffffffffffffffffffffff168273ffffffffffffffffffffffffffffffffffffffff167fddf252ad1be2c89b69c2b068fc378daa952ba7f163c4a11628f55a4df523b3ef60405160405180910390a4809150509392505050565b5f6139ac5f835f613795565b90505f73ffffffffffffffffffffffffffffffffffffffff168173ffffffffffffffffffffffffffffffffffffffff1603613a1e57816040517f7e273289000000000000000000000000000000000000000000000000000000008152600401613a159190614c6a565b60405180910390fd5b5050565b5f73ffffffffffffffffffffffffffffffffffffffff168273ffffffffffffffffffffffffffffffffffffffff1603613a92575f6040517f64a0ae92000000000000000000000000000000000000000000000000000000008152600401613a89919061464f565b60405180910390fd5b5f613a9e83835f613795565b90505f73ffffffffffffffffffffffffffffffffffffffff168173ffffffffffffffffffffffffffffffffffffffff1614613b10575f6040517f73c6ac6e000000000000000000000000000000000000000000000000000000008152600401613b07919061464f565b60405180910390fd5b505050565b5f73ffffffffffffffffffffffffffffffffffffffff168273ffffffffffffffffffffffffffffffffffffffff1603613b8557816040517f5b08ba18000000000000000000000000000000000000000000000000000000008152600401613b7c919061464f565b60405180910390fd5b8060055f8573ffffffffffffffffffffffffffffffffffffffff1673ffffffffffffffffffffffffffffffffffffffff1681526020019081526020015f205f8473ffffffffffffffffffffffffffffffffffffffff1673ffffffffffffffffffffffffffffffffffffffff1681526020019081526020015f205f6101000a81548160ff0219169083151502179055508173ffffffffffffffffffffffffffffffffffffffff168373ffffffffffffffffffffffffffffffffffffffff167f17307eab39ab6107e8899845ad3d59bd9653f200f220920489ca2b5937696c3183604051613c719190614465565b60405180910390a3505050565b5f8373ffffffffffffffffffffffffffffffffffffffff163b1115613e2a578273ffffffffffffffffffffffffffffffffffffffff1663150b7a02613cc161377c565b8685856040518563ffffffff1660e01b8152600401613ce39493929190615b9d565b6020604051808303815f875af1925050508015613d1e57506040513d601f19601f82011682018060405250810190613d1b9190615bfb565b60015b613d9f573d805f8114613d4c576040519150601f19603f3d011682016040523d82523d5f602084013e613d51565b606091505b505f815103613d9757836040517f64a0ae92000000000000000000000000000000000000000000000000000000008152600401613d8e919061464f565b60405180910390fd5b805181602001fd5b63150b7a0260e01b7bffffffffffffffffffffffffffffffffffffffffffffffffffffffff1916817bffffffffffffffffffffffffffffffffffffffffffffffffffffffff191614613e2857836040517f64a0ae92000000000000000000000000000000000000000000000000000000008152600401613e1f919061464f565b60405180910390fd5b505b50505050565b606060405180602001604052805f815250905090565b60605f6001613e54846141cb565b0190505f8167ffffffffffffffff811115613e7257613e716148d5565b5b6040519080825280601f01601f191660200182016040528015613ea45781602001600182028036833780820191505090505b5090505f82602001820190505b600115613f05578080600190039150507f3031323334353637383961626364656600000000000000000000000000000000600a86061a8153600a8581613efa57613ef9615c26565b5b0494505f8503613eb1575b819350505050919050565b5f60025f8381526020019081526020015f205f9054906101000a900473ffffffffffffffffffffffffffffffffffffffff169050919050565b8080613f8157505f73ffffffffffffffffffffffffffffffffffffffff168273ffffffffffffffffffffffffffffffffffffffff1614155b156140b3575f613f90846136bd565b90505f73ffffffffffffffffffffffffffffffffffffffff168373ffffffffffffffffffffffffffffffffffffffff1614158015613ffa57508273ffffffffffffffffffffffffffffffffffffffff168173ffffffffffffffffffffffffffffffffffffffff1614155b801561400d575061400b8184613109565b155b1561404f57826040517fa9fbf51f000000000000000000000000000000000000000000000000000000008152600401614046919061464f565b60405180910390fd5b81156140b157838573ffffffffffffffffffffffffffffffffffffffff168273ffffffffffffffffffffffffffffffffffffffff167f8c5be1e5ebec7d5bd14f71427d1e84f3dd0314c0f7b2291e5b200ac8c7c3b92560405160405180910390a45b505b8360045f8581526020019081526020015f205f6101000a81548173ffffffffffffffffffffffffffffffffffffffff021916908373ffffffffffffffffffffffffffffffffffffffff16021790555050505050565b61411383838361431c565b6141c6575f73ffffffffffffffffffffffffffffffffffffffff168373ffffffffffffffffffffffffffffffffffffffff160361418757806040517f7e27328900000000000000000000000000000000000000000000000000000000815260040161417e9190614c6a565b60405180910390fd5b81816040517f177e802f0000000000000000000000000000000000000000000000000000000081526004016141bd929190615c53565b60405180910390fd5b505050565b5f805f90507a184f03e93ff9f4daa797ed6e38ed64bf6a1f0100000000000000008310614227577a184f03e93ff9f4daa797ed6e38ed64bf6a1f010000000000000000838161421d5761421c615c26565b5b0492506040810190505b6d04ee2d6d415b85acef81000000008310614264576d04ee2d6d415b85acef8100000000838161425a57614259615c26565b5b0492506020810190505b662386f26fc10000831061429357662386f26fc10000838161428957614288615c26565b5b0492506010810190505b6305f5e10083106142bc576305f5e10083816142b2576142b1615c26565b5b0492506008810190505b61271083106142e15761271083816142d7576142d6615c26565b5b0492506004810190505b6064831061430457606483816142fa576142f9615c26565b5b0492506002810190505b600a8310614313576001810190505b80915050919050565b5f8073ffffffffffffffffffffffffffffffffffffffff168373ffffffffffffffffffffffffffffffffffffffff16141580156143d357508273ffffffffffffffffffffffffffffffffffffffff168473ffffffffffffffffffffffffffffffffffffffff16148061439457506143938484613109565b5b806143d257508273ffffffffffffffffffffffffffffffffffffffff166143ba83613743565b73ffffffffffffffffffffffffffffffffffffffff16145b5b90509392505050565b5f604051905090565b5f80fd5b5f80fd5b5f819050919050565b6143ff816143ed565b8114614409575f80fd5b50565b5f8135905061441a816143f6565b92915050565b5f60208284031215614435576144346143e5565b5b5f6144428482850161440c565b91505092915050565b5f8115159050919050565b61445f8161444b565b82525050565b5f6020820190506144785f830184614456565b92915050565b5f7fffffffff0000000000000000000000000000000000000000000000000000000082169050919050565b6144b28161447e565b81146144bc575f80fd5b50565b5f813590506144cd816144a9565b92915050565b5f602082840312156144e8576144e76143e5565b5b5f6144f5848285016144bf565b91505092915050565b5f73ffffffffffffffffffffffffffffffffffffffff82169050919050565b5f614527826144fe565b9050919050565b6145378161451d565b8114614541575f80fd5b50565b5f813590506145528161452e565b92915050565b5f806040838503121561456e5761456d6143e5565b5b5f61457b8582860161440c565b925050602061458c85828601614544565b9150509250929050565b5f81519050919050565b5f82825260208201905092915050565b5f5b838110156145cd5780820151818401526020810190506145b2565b5f8484015250505050565b5f601f19601f8301169050919050565b5f6145f282614596565b6145fc81856145a0565b935061460c8185602086016145b0565b614615816145d8565b840191505092915050565b5f6020820190508181035f83015261463881846145e8565b905092915050565b6146498161451d565b82525050565b5f6020820190506146625f830184614640565b92915050565b5f806040838503121561467e5761467d6143e5565b5b5f61468b85828601614544565b925050602061469c8582860161440c565b9150509250929050565b5f602082840312156146bb576146ba6143e5565b5b5f6146c884828501614544565b91505092915050565b5f81519050919050565b5f82825260208201905092915050565b5f819050602082019050919050565b614703816143ed565b82525050565b5f61471483836146fa565b60208301905092915050565b5f602082019050919050565b5f614736826146d1565b61474081856146db565b935061474b836146eb565b805f5b8381101561477b5781516147628882614709565b975061476d83614720565b92505060018101905061474e565b5085935050505092915050565b5f6020820190508181035f8301526147a0818461472c565b905092915050565b5f805f606084860312156147bf576147be6143e5565b5b5f6147cc86828701614544565b93505060206147dd86828701614544565b92505060406147ee8682870161440c565b9150509250925092565b614801816143ed565b82525050565b5f6101808201905061481b5f83018f6147f8565b614828602083018e6147f8565b614835604083018d6147f8565b8181036060830152614847818c6145e8565b9050818103608083015261485b818b6145e8565b905061486a60a083018a614456565b61487760c0830189614640565b61488460e0830188614456565b614892610100830187614456565b6148a0610120830186614456565b6148ae6101408301856147f8565b6148bc6101608301846147f8565b9d9c50505050505050505050505050565b5f80fd5b5f80fd5b7f4e487b71000000000000000000000000000000000000000000000000000000005f52604160045260245ffd5b61490b826145d8565b810181811067ffffffffffffffff8211171561492a576149296148d5565b5b80604052505050565b5f61493c6143dc565b90506149488282614902565b919050565b5f67ffffffffffffffff821115614967576149666148d5565b5b614970826145d8565b9050602081019050919050565b828183375f83830152505050565b5f61499d6149988461494d565b614933565b9050828152602081018484840111156149b9576149b86148d1565b5b6149c484828561497d565b509392505050565b5f82601f8301126149e0576149df6148cd565b5b81356149f084826020860161498b565b91505092915050565b614a028161444b565b8114614a0c575f80fd5b50565b5f81359050614a1d816149f9565b92915050565b5f805f805f8060c08789031215614a3d57614a3c6143e5565b5b5f614a4a89828a0161440c565b965050602087013567ffffffffffffffff811115614a6b57614a6a6143e9565b5b614a7789828a016149cc565b9550506040614a8889828a0161440c565b9450506060614a9989828a0161440c565b935050608087013567ffffffffffffffff811115614aba57614ab96143e9565b5b614ac689828a016149cc565b92505060a0614ad789828a01614a0f565b9150509295509295509295565b5f81519050919050565b5f82825260208201905092915050565b5f819050602082019050919050565b614b168161451d565b82525050565b5f614b278383614b0d565b60208301905092915050565b5f602082019050919050565b5f614b4982614ae4565b614b538185614aee565b9350614b5e83614afe565b805f5b83811015614b8e578151614b758882614b1c565b9750614b8083614b33565b925050600181019050614b61565b5085935050505092915050565b5f6020820190508181035f830152614bb38184614b3f565b905092915050565b5f805f805f60a08688031215614bd457614bd36143e5565b5b5f614be188828901614544565b9550506020614bf28882890161440c565b9450506040614c038882890161440c565b935050606086013567ffffffffffffffff811115614c2457614c236143e9565b5b614c30888289016149cc565b925050608086013567ffffffffffffffff811115614c5157614c506143e9565b5b614c5d888289016149cc565b9150509295509295909350565b5f602082019050614c7d5f8301846147f8565b92915050565b5f8060408385031215614c9957614c986143e5565b5b5f614ca685828601614544565b9250506020614cb785828601614a0f565b9150509250929050565b5f67ffffffffffffffff821115614cdb57614cda6148d5565b5b614ce4826145d8565b9050602081019050919050565b5f614d03614cfe84614cc1565b614933565b905082815260208101848484011115614d1f57614d1e6148d1565b5b614d2a84828561497d565b509392505050565b5f82601f830112614d4657614d456148cd565b5b8135614d56848260208601614cf1565b91505092915050565b5f805f8060808587031215614d7757614d766143e5565b5b5f614d8487828801614544565b9450506020614d9587828801614544565b9350506040614da68782880161440c565b925050606085013567ffffffffffffffff811115614dc757614dc66143e9565b5b614dd387828801614d32565b91505092959194509250565b5f8060408385031215614df557614df46143e5565b5b5f614e0285828601614544565b9250506020614e1385828601614544565b9150509250929050565b5f60c0820190508181035f830152614e3581896145e8565b9050614e4460208301886147f8565b614e5160408301876147f8565b8181036060830152614e6381866145e8565b9050614e726080830185614456565b614e7f60a0830184614456565b979650505050505050565b5f81519050614e988161452e565b92915050565b5f60208284031215614eb357614eb26143e5565b5b5f614ec084828501614e8a565b91505092915050565b7f4e487b71000000000000000000000000000000000000000000000000000000005f52603260045260245ffd5b7f4e487b71000000000000000000000000000000000000000000000000000000005f52601160045260245ffd5b5f614f2d826143ed565b91507fffffffffffffffffffffffffffffffffffffffffffffffffffffffffffffffff8203614f5f57614f5e614ef6565b5b600182019050919050565b7f4e487b71000000000000000000000000000000000000000000000000000000005f52602260045260245ffd5b5f6002820490506001821680614fae57607f821691505b602082108103614fc157614fc0614f6a565b5b50919050565b5f606082019050614fda5f830186614640565b614fe760208301856147f8565b614ff46040830184614640565b949350505050565b7f456c20636f6e747261746f207961206861207369646f206669726d61646f00005f82015250565b5f615030601e836145a0565b915061503b82614ffc565b602082019050919050565b5f6020820190508181035f83015261505d81615024565b9050919050565b7f536f6c6f20756e206d616e616765722070756564652066696e616c697a6172205f8201527f756e20636f6e747261746f000000000000000000000000000000000000000000602082015250565b5f6150be602b836145a0565b91506150c982615064565b604082019050919050565b5f6020820190508181035f8301526150eb816150b2565b9050919050565b7f456c20636f6e747261746f206e6f206861207369646f206669726d61646f00005f82015250565b5f615126601e836145a0565b9150615131826150f2565b602082019050919050565b5f6020820190508181035f8301526151538161511a565b9050919050565b7f456c20636f6e747261746f2079612068612066696e616c697a61646f000000005f82015250565b5f61518e601c836145a0565b91506151998261515a565b602082019050919050565b5f6020820190508181035f8301526151bb81615182565b9050919050565b7f456c20636f6e747261746f20686120657870697261646f0000000000000000005f82015250565b5f6151f66017836145a0565b9150615201826151c2565b602082019050919050565b5f6020820190508181035f830152615223816151ea565b9050919050565b5f615234826143ed565b915061523f836143ed565b925082820390508181111561525757615256614ef6565b5b92915050565b5f819050815f5260205f209050919050565b5f6020601f8301049050919050565b5f82821b905092915050565b5f600883026152b97fffffffffffffffffffffffffffffffffffffffffffffffffffffffffffffffff8261527e565b6152c3868361527e565b95508019841693508086168417925050509392505050565b5f819050919050565b5f6152fe6152f96152f4846143ed565b6152db565b6143ed565b9050919050565b5f819050919050565b615317836152e4565b61532b61532382615305565b84845461528a565b825550505050565b5f90565b61533f615333565b61534a81848461530e565b505050565b5b8181101561536d576153625f82615337565b600181019050615350565b5050565b601f8211156153b2576153838161525d565b61538c8461526f565b8101602085101561539b578190505b6153af6153a78561526f565b83018261534f565b50505b505050565b5f82821c905092915050565b5f6153d25f19846008026153b7565b1980831691505092915050565b5f6153ea83836153c3565b9150826002028217905092915050565b61540382614596565b67ffffffffffffffff81111561541c5761541b6148d5565b5b6154268254614f97565b615431828285615371565b5f60209050601f831160018114615462575f8415615450578287015190505b61545a85826153df565b8655506154c1565b601f1984166154708661525d565b5f5b8281101561549757848901518255600182019150602085019450602081019050615472565b868310156154b457848901516154b0601f8916826153c3565b8355505b6001600288020188555050505b505050505050565b5f6040820190506154dc5f8301856147f8565b6154e960208301846147f8565b9392505050565b7f466f6e646f7320696e737566696369656e7465732070617261206375627269725f8201527f20656c20696e6372656d656e746f2064656c2073616c6172696f000000000000602082015250565b5f61554a603a836145a0565b9150615555826154f0565b604082019050919050565b5f6020820190508181035f8301526155778161553e565b9050919050565b7f4465646520656e7669617220656c2073616c6172696f20636f6d6f2076616c6f5f8201527f722064656c20636f6e747261746f000000000000000000000000000000000000602082015250565b5f6155d8602e836145a0565b91506155e38261557e565b604082019050919050565b5f6020820190508181035f830152615605816155cc565b9050919050565b7f456c20636f6e747261746f206e6f2065737461207061757361646f00000000005f82015250565b5f615640601b836145a0565b915061564b8261560c565b602082019050919050565b5f6020820190508181035f83015261566d81615634565b9050919050565b7f456c20746f6b656e206e6f206578697374652e000000000000000000000000005f82015250565b5f6156a86013836145a0565b91506156b382615674565b602082019050919050565b5f6020820190508181035f8301526156d58161569c565b9050919050565b7f4e6f20707565646573206669726d61722074752070726f70696f20636f6e74725f8201527f61746f0000000000000000000000000000000000000000000000000000000000602082015250565b5f6157366023836145a0565b9150615741826156dc565b604082019050919050565b5f6020820190508181035f8301526157638161572a565b9050919050565b7f536f6c6f20656c2074726162616a61646f72207075656465206669726d6172205f8201527f656c20636f6e747261746f000000000000000000000000000000000000000000602082015250565b5f6157c4602b836145a0565b91506157cf8261576a565b604082019050919050565b5f6020820190508181035f8301526157f1816157b8565b9050919050565b7f456c20636f6e747261746f2068612066696e616c697a61646f000000000000005f82015250565b5f61582c6019836145a0565b9150615837826157f8565b602082019050919050565b5f6020820190508181035f83015261585981615820565b9050919050565b5f61586a826143ed565b9150615875836143ed565b925082820190508082111561588d5761588c614ef6565b5b92915050565b7f456c20636f6e747261746f2079612065737461207061757361646f00000000005f82015250565b5f6158c7601b836145a0565b91506158d282615893565b602082019050919050565b5f6020820190508181035f8301526158f4816158bb565b9050919050565b5f81905092915050565b5f61590f82614596565b61591981856158fb565b93506159298185602086016145b0565b80840191505092915050565b5f6159408285615905565b915061594c8284615905565b91508190509392505050565b7f456c2073616c6172696f207961206861207369646f206c6962657261646f00005f82015250565b5f61598c601e836145a0565b915061599782615958565b602082019050919050565b5f6020820190508181035f8301526159b981615980565b9050919050565b7f536f6c6f20756e206d616e61676572207075656465206c69626572617220656c5f8201527f2073616c6172696f000000000000000000000000000000000000000000000000602082015250565b5f615a1a6028836145a0565b9150615a25826159c0565b604082019050919050565b5f6020820190508181035f830152615a4781615a0e565b9050919050565b7f456c20636f6e747261746f206e6f20686120657870697261646f0000000000005f82015250565b5f615a82601a836145a0565b9150615a8d82615a4e565b602082019050919050565b5f6020820190508181035f830152615aaf81615a76565b9050919050565b7f456c20636f6e747261746f2065737461207061757361646f00000000000000005f82015250565b5f615aea6018836145a0565b9150615af582615ab6565b602082019050919050565b5f6020820190508181035f830152615b1781615ade565b9050919050565b7f4e487b71000000000000000000000000000000000000000000000000000000005f52603160045260245ffd5b5f81519050919050565b5f82825260208201905092915050565b5f615b6f82615b4b565b615b798185615b55565b9350615b898185602086016145b0565b615b92816145d8565b840191505092915050565b5f608082019050615bb05f830187614640565b615bbd6020830186614640565b615bca60408301856147f8565b8181036060830152615bdc8184615b65565b905095945050505050565b5f81519050615bf5816144a9565b92915050565b5f60208284031215615c1057615c0f6143e5565b5b5f615c1d84828501615be7565b91505092915050565b7f4e487b71000000000000000000000000000000000000000000000000000000005f52601260045260245ffd5b5f604082019050615c665f830185614640565b615c7360208301846147f8565b939250505056fea2646970667358221220050078c4b60b0ba4b8c3fb86cd1dbfc4963c76392ca6eedb9839e3d723c344a764736f6c63430008140033",
  "immutableReferences": {},
  "source": "// SPDX-License-Identifier: MIT\r\npragma solidity ^0.8.20;\r\n\r\nimport \"@openzeppelin/contracts/token/ERC721/ERC721.sol\";\r\n\r\ncontract MyContract is ERC721 {\r\n    uint256 tokenID;\r\n    mapping(uint256 => mapping(address => bool)) public tokenManagers;\r\n    mapping(uint256 => address[]) private tokenManagersList;\r\n    mapping(uint256 => ContractDetails) public contractDetails;\r\n    mapping(address => uint256[]) private contractsOwner;\r\n    mapping(address => uint256[]) private activeContractsOfWorker;\r\n    mapping(address => uint256[]) private unsignedContractsOfWorker;\r\n    mapping(uint256 => ChangeProposal) public changeProposals;\r\n\r\n    struct ContractDetails {\r\n        uint256 salary;\r\n        uint256 startDate;\r\n        uint256 duration;\r\n        string title;\r\n        string description;\r\n        bool isSigned;\r\n        address worker;\r\n        bool isFinished;\r\n        bool isReleased;\r\n        bool isPaused;\r\n        uint256 pauseTime;\r\n        uint256 pauseDuration;\r\n    }\r\n\r\n    struct ChangeProposal {\r\n        string newTitle;\r\n        uint256 newSalary;\r\n        uint256 newDuration;\r\n        string newDescription;\r\n        bool isPaused;\r\n        bool isPending;\r\n    }\r\n\r\n    event ContractSigned(uint256 indexed tokenId, address indexed worker);\r\n    event SalaryReleased(\r\n        uint256 indexed tokenId,\r\n        uint256 salary,\r\n        address indexed worker\r\n    );\r\n    event TokenMinted(\r\n        uint256 tokenId,\r\n        address indexed employer,\r\n        uint256 salary\r\n    );\r\n    event ContractCancelled(\r\n        uint256 indexed tokenId,\r\n        address indexed employer,\r\n        uint256 salary\r\n    );\r\n    event ApprovalChanges(\r\n        uint256 indexed tokenId,\r\n        address indexed employer,\r\n        uint256 salary,\r\n        uint256 newSalary\r\n    );\r\n\r\n    constructor() ERC721(\"MyToken\", \"MTK\") {}\r\n\r\n    function mint(\r\n        address _to,\r\n        uint256 _salary,\r\n        uint256 _duration,\r\n        string memory _description,\r\n        string memory _title\r\n    ) public payable returns (uint256) {\r\n        require(\r\n            msg.value >= _salary,\r\n            \"Dede enviar el salario como valor del contrato\"\r\n        );\r\n        tokenID++;\r\n        _mint(msg.sender, tokenID);\r\n        uint256 remainder = msg.value - _salary;\r\n        if (remainder > 0) {\r\n            payable(msg.sender).transfer(remainder);\r\n        }\r\n\r\n        ContractDetails memory newContract = ContractDetails({\r\n            salary: _salary,\r\n            startDate: block.timestamp,\r\n            duration: _duration,\r\n            title: _title,\r\n            description: _description,\r\n            isSigned: false,\r\n            worker: _to,\r\n            isFinished: false,\r\n            isReleased: false,\r\n            isPaused: false,\r\n            pauseTime: 0,\r\n            pauseDuration: 0\r\n        });\r\n\r\n        contractDetails[tokenID] = newContract;\r\n        tokenManagers[tokenID][msg.sender] = true;\r\n        contractsOwner[msg.sender].push(tokenID);\r\n        unsignedContractsOfWorker[_to].push(tokenID);\r\n        emit TokenMinted(tokenID, msg.sender, _salary);\r\n\r\n        return tokenID;\r\n    }\r\n\r\n    function signContract(uint256 _tokenID) public {\r\n        try this.ownerOf(_tokenID) {} catch {\r\n            revert(\"El token no existe.\"); // he intentado hacerlo con _exists pero no me ha funcionado\r\n        }\r\n        require(\r\n            tokenManagers[_tokenID][msg.sender] == false,\r\n            \"No puedes firmar tu propio contrato\"\r\n        );\r\n        require(\r\n            msg.sender == contractDetails[_tokenID].worker,\r\n            \"Solo el trabajador puede firmar el contrato\"\r\n        );\r\n        require(\r\n            !contractDetails[_tokenID].isSigned,\r\n            \"El contrato ya ha sido firmado\"\r\n        );\r\n        require(\r\n            contractDetails[_tokenID].isFinished == false,\r\n            \"El contrato ha finalizado\"\r\n        );\r\n        require(\r\n            isContractFinished(_tokenID) == false,\r\n            \"El contrato ha expirado\"\r\n        );\r\n\r\n        contractDetails[_tokenID].isSigned = true;\r\n        contractDetails[_tokenID].worker = msg.sender;\r\n        activeContractsOfWorker[msg.sender].push(_tokenID);\r\n        emit ContractSigned(_tokenID, msg.sender);\r\n    }\r\n\r\n    function releaseSalary(uint256 _tokenID) public payable {\r\n        require(\r\n            contractDetails[_tokenID].isSigned,\r\n            \"El contrato no ha sido firmado\"\r\n        );\r\n        require(\r\n            contractDetails[_tokenID].isReleased == false,\r\n            \"El salario ya ha sido liberado\"\r\n        );\r\n        require(\r\n            tokenManagers[_tokenID][msg.sender] == true,\r\n            \"Solo un manager puede liberar el salario\"\r\n        );\r\n        require(\r\n            isContractFinished(_tokenID) == true,\r\n            \"El contrato no ha expirado\"\r\n        );\r\n        require(\r\n            contractDetails[_tokenID].isPaused == false,\r\n            \"El contrato esta pausado\"\r\n        );\r\n\r\n        address payable worker = payable(contractDetails[_tokenID].worker);\r\n        uint256 salary = contractDetails[_tokenID].salary;\r\n        worker.transfer(salary);\r\n        contractDetails[_tokenID].isReleased = true;\r\n        emit SalaryReleased(_tokenID, salary, worker);\r\n    }\r\n\r\n    function finalizeContract(uint256 _tokenID) public {\r\n        require(\r\n            tokenManagers[_tokenID][msg.sender] == true,\r\n            \"Solo un manager puede finalizar un contrato\"\r\n        );\r\n        require(\r\n            contractDetails[_tokenID].isSigned,\r\n            \"El contrato no ha sido firmado\"\r\n        );\r\n        require(\r\n            contractDetails[_tokenID].isFinished == false,\r\n            \"El contrato ya ha finalizado\"\r\n        );\r\n        require(\r\n            isContractFinished(_tokenID) == false,\r\n            \"El contrato ha expirado\"\r\n        );\r\n\r\n        contractDetails[_tokenID].isFinished = true;\r\n    }\r\n\r\n    function pauseContract(uint256 _tokenID) public {\r\n        require(\r\n            contractDetails[_tokenID].isSigned,\r\n            \"El contrato no ha sido firmado\"\r\n        );\r\n        require(\r\n            isContractFinished(_tokenID) == false,\r\n            \"El contrato ha expirado\"\r\n        );\r\n        require(\r\n            !contractDetails[_tokenID].isPaused,\r\n            \"El contrato ya esta pausado\"\r\n        );\r\n\r\n        contractDetails[_tokenID].isPaused = true;\r\n        contractDetails[_tokenID].pauseTime = block.timestamp;\r\n    }\r\n\r\n    function unPauseContract(uint256 _tokenID) public {\r\n        require(\r\n            contractDetails[_tokenID].isSigned,\r\n            \"El contrato no ha sido firmado\"\r\n        );\r\n        require(\r\n            contractDetails[_tokenID].isPaused,\r\n            \"El contrato no esta pausado\"\r\n        );\r\n        require(\r\n            isContractFinished(_tokenID) == false,\r\n            \"El contrato ha expirado\"\r\n        );\r\n\r\n        contractDetails[_tokenID].pauseDuration =\r\n            block.timestamp -\r\n            contractDetails[_tokenID].pauseTime;\r\n\r\n        contractDetails[_tokenID].pauseTime = 0;\r\n        contractDetails[_tokenID].isPaused = false;\r\n    }\r\n\r\n    function cancelContract(uint256 _tokenID) public {\r\n        require(\r\n            !contractDetails[_tokenID].isSigned,\r\n            \"El contrato ya ha sido firmado\"\r\n        );\r\n\r\n        address payable owner = payable(ownerOf(_tokenID));\r\n        uint256 salary = contractDetails[_tokenID].salary;\r\n        owner.transfer(salary);\r\n        removeContractFromOwner(_tokenID, owner);\r\n        _burn(_tokenID);\r\n        emit ContractCancelled(_tokenID, owner, salary);\r\n    }\r\n\r\n    function removeContractFromOwner(\r\n        uint256 _tokenId,\r\n        address _owner\r\n    ) internal {\r\n        uint256 contractIndex;\r\n        uint256 lastContractIndex = contractsOwner[_owner].length - 1;\r\n\r\n        for (uint i = 0; i < contractsOwner[_owner].length; i++) {\r\n            if (contractsOwner[_owner][i] == _tokenId) {\r\n                contractIndex = i;\r\n                break;\r\n            }\r\n        }\r\n\r\n        if (contractIndex != lastContractIndex) {\r\n            contractsOwner[_owner][contractIndex] = contractsOwner[_owner][\r\n                lastContractIndex\r\n            ];\r\n        }\r\n        contractsOwner[_owner].pop();\r\n    }\r\n\r\n    function assignManagerToToken(\r\n        uint256 _tokenId,\r\n        address _newManager\r\n    ) public {\r\n        if (!tokenManagers[_tokenId][_newManager]) {\r\n            tokenManagers[_tokenId][_newManager] = true;\r\n            tokenManagersList[_tokenId].push(_newManager);\r\n            contractsOwner[_newManager].push(_tokenId);\r\n        }\r\n    }\r\n\r\n    function revokeManagerFromToken(uint256 _tokenId, address _manager) public {\r\n        for (uint256 i = 0; i < tokenManagersList[_tokenId].length; i++) {\r\n            if (tokenManagersList[_tokenId][i] == _manager) {\r\n                removeManagerFromList(_tokenId, i);\r\n                break;\r\n            }\r\n        }\r\n        tokenManagers[_tokenId][_manager] = false;\r\n        removeContractFromOwner(_tokenId, _manager);\r\n    }\r\n\r\n    function removeManagerFromList(uint256 _tokenId, uint256 _index) private {\r\n        tokenManagersList[_tokenId][_index] = tokenManagersList[_tokenId][\r\n            tokenManagersList[_tokenId].length - 1\r\n        ];\r\n        tokenManagersList[_tokenId].pop();\r\n    }\r\n\r\n    function getManagersOfToken(\r\n        uint256 _tokenId\r\n    ) public view returns (address[] memory) {\r\n        return tokenManagersList[_tokenId];\r\n    }\r\n\r\n    function isManagerOfToken(\r\n        uint256 _tokenId,\r\n        address _manager\r\n    ) public view returns (bool) {\r\n        return tokenManagers[_tokenId][_manager];\r\n    }\r\n\r\n    //funcion para proponer un cambio en un contrato\r\n    function proposeChange(\r\n        uint256 _tokenID,\r\n        string memory _newTitle,\r\n        uint256 _newSalary,\r\n        uint256 _newDuration,\r\n        string memory _newDescription,\r\n        bool _isPaused\r\n    ) public payable {\r\n        uint256 currentSalary = contractDetails[_tokenID].salary;\r\n        if (_newSalary > currentSalary) {\r\n            uint256 salaryDifference = _newSalary - currentSalary;\r\n            require(\r\n                msg.value >= salaryDifference,\r\n                \"Fondos insuficientes para cubrir el incremento del salario\"\r\n            );\r\n\r\n            uint256 excessAmount = msg.value - salaryDifference;\r\n            if (excessAmount > 0) {\r\n                payable(msg.sender).transfer(excessAmount);\r\n            }\r\n        }\r\n\r\n        changeProposals[_tokenID] = ChangeProposal({\r\n            newTitle: _newTitle,\r\n            newSalary: _newSalary,\r\n            newDuration: _newDuration,\r\n            newDescription: _newDescription,\r\n            isPaused: _isPaused,\r\n            isPending: true\r\n        });\r\n    }\r\n\r\n    //funcion para rechazar un cambio propuesto\r\n    function rejectChange(uint256 _tokenID) public {\r\n        ChangeProposal memory proposedChange = changeProposals[_tokenID];\r\n\r\n        if (proposedChange.newSalary > contractDetails[_tokenID].salary) {\r\n            uint256 salaryDifference = proposedChange.newSalary -\r\n                contractDetails[_tokenID].salary;\r\n            address owner = ownerOf(_tokenID);\r\n            payable(owner).transfer(salaryDifference);\r\n        }\r\n\r\n        changeProposals[_tokenID].isPending = false;\r\n    }\r\n\r\n    //Funcion para modificar un contrato que no haya sido firmado\r\n    function applyChange(uint256 _tokenID) public payable {\r\n        ChangeProposal memory proposedChange = changeProposals[_tokenID];\r\n        uint256 salary = contractDetails[_tokenID].salary;\r\n\r\n        if (proposedChange.newSalary < salary) {\r\n            uint256 refundAmount = salary - proposedChange.newSalary;\r\n            address owner = ownerOf(_tokenID);\r\n            payable(owner).transfer(refundAmount);\r\n        }\r\n\r\n        contractDetails[_tokenID].title = proposedChange.newTitle;\r\n        contractDetails[_tokenID].salary = proposedChange.newSalary;\r\n        contractDetails[_tokenID].duration = proposedChange.newDuration;\r\n        contractDetails[_tokenID].description = proposedChange.newDescription;\r\n\r\n        if (proposedChange.isPaused != contractDetails[_tokenID].isPaused) {\r\n            if (proposedChange.isPaused) {\r\n                pauseContract(_tokenID);\r\n            } else {\r\n                unPauseContract(_tokenID);\r\n            }\r\n        }\r\n\r\n        changeProposals[_tokenID].isPending = false;\r\n\r\n        emit ApprovalChanges(\r\n            _tokenID,\r\n            ownerOf(_tokenID),\r\n            salary,\r\n            proposedChange.newSalary\r\n        );\r\n    }\r\n\r\n    function getContractsFromOwner(\r\n        address _address\r\n    ) public view returns (uint256[] memory) {\r\n        return contractsOwner[_address];\r\n    }\r\n\r\n    function getContractsOfWorker(\r\n        address _address\r\n    ) public view returns (uint256[] memory) {\r\n        return activeContractsOfWorker[_address];\r\n    }\r\n\r\n    function getUnsignedContractsOfWorker(\r\n        address worker\r\n    ) public view returns (uint256[] memory) {\r\n        uint256 totalContracts = unsignedContractsOfWorker[worker].length;\r\n        uint256[] memory tempContracts = new uint256[](totalContracts);\r\n        uint256 count = 0;\r\n\r\n        for (uint256 i = 0; i < totalContracts; i++) {\r\n            uint256 contractId = unsignedContractsOfWorker[worker][i];\r\n\r\n            if (\r\n                !contractDetails[contractId].isSigned && tokenExists(contractId)\r\n            ) {\r\n                tempContracts[count] = contractId;\r\n                count++;\r\n            }\r\n        }\r\n\r\n        uint256[] memory result = new uint256[](count);\r\n        for (uint256 j = 0; j < count; j++) {\r\n            result[j] = tempContracts[j];\r\n        }\r\n\r\n        return result;\r\n    }\r\n\r\n    function tokenExists(uint256 _tokenId) public view returns (bool) {\r\n        try this.ownerOf(_tokenId) {\r\n            return true;\r\n        } catch {\r\n            return false;\r\n        }\r\n    }\r\n\r\n    function isContractFinished(uint256 _tokenID) public view returns (bool) {\r\n        if (contractDetails[_tokenID].isFinished == true) {\r\n            return true;\r\n        }\r\n\r\n        if (\r\n            block.timestamp >\r\n            contractDetails[_tokenID].startDate +\r\n                contractDetails[_tokenID].duration +\r\n                contractDetails[_tokenID].pauseDuration\r\n        ) {\r\n            return true;\r\n        }\r\n\r\n        return false;\r\n    }\r\n\r\n    function isContractSigned(uint256 _tokenID) public view returns (bool) {\r\n        return contractDetails[_tokenID].isSigned;\r\n    }\r\n\r\n    function getOwnerOfContract(\r\n        uint256 _tokenID\r\n    ) public view returns (address) {\r\n        return ownerOf(_tokenID);\r\n    }\r\n}\r\n",
  "sourcePath": "E:\\AppContract\\ubu-contractme\\Code\\SmartContract\\contracts\\MyContract.sol",
  "compiler": {
    "name": "solc",
    "version": "0.8.20+commit.a1b79de6.Emscripten.clang"
  },
  "schemaVersion": "3.4.16",
  "updatedAt": "2024-02-20T19:34:39.542Z",
  "networkType": "ethereum",
  "devdoc": {
    "errors": {
      "ERC721IncorrectOwner(address,uint256,address)": [
        {
          "details": "Indicates an error related to the ownership over a particular token. Used in transfers.",
          "params": {
            "owner": "Address of the current owner of a token.",
            "sender": "Address whose tokens are being transferred.",
            "tokenId": "Identifier number of a token."
          }
        }
      ],
      "ERC721InsufficientApproval(address,uint256)": [
        {
          "details": "Indicates a failure with the `operator`s approval. Used in transfers.",
          "params": {
            "operator": "Address that may be allowed to operate on tokens without being their owner.",
            "tokenId": "Identifier number of a token."
          }
        }
      ],
      "ERC721InvalidApprover(address)": [
        {
          "details": "Indicates a failure with the `approver` of a token to be approved. Used in approvals.",
          "params": {
            "approver": "Address initiating an approval operation."
          }
        }
      ],
      "ERC721InvalidOperator(address)": [
        {
          "details": "Indicates a failure with the `operator` to be approved. Used in approvals.",
          "params": {
            "operator": "Address that may be allowed to operate on tokens without being their owner."
          }
        }
      ],
      "ERC721InvalidOwner(address)": [
        {
          "details": "Indicates that an address can't be an owner. For example, `address(0)` is a forbidden owner in EIP-20. Used in balance queries.",
          "params": {
            "owner": "Address of the current owner of a token."
          }
        }
      ],
      "ERC721InvalidReceiver(address)": [
        {
          "details": "Indicates a failure with the token `receiver`. Used in transfers.",
          "params": {
            "receiver": "Address to which tokens are being transferred."
          }
        }
      ],
      "ERC721InvalidSender(address)": [
        {
          "details": "Indicates a failure with the token `sender`. Used in transfers.",
          "params": {
            "sender": "Address whose tokens are being transferred."
          }
        }
      ],
      "ERC721NonexistentToken(uint256)": [
        {
          "details": "Indicates a `tokenId` whose `owner` is the zero address.",
          "params": {
            "tokenId": "Identifier number of a token."
          }
        }
      ]
    },
    "events": {
      "Approval(address,address,uint256)": {
        "details": "Emitted when `owner` enables `approved` to manage the `tokenId` token."
      },
      "ApprovalForAll(address,address,bool)": {
        "details": "Emitted when `owner` enables or disables (`approved`) `operator` to manage all of its assets."
      },
      "Transfer(address,address,uint256)": {
        "details": "Emitted when `tokenId` token is transferred from `from` to `to`."
      }
    },
    "kind": "dev",
    "methods": {
      "approve(address,uint256)": {
        "details": "See {IERC721-approve}."
      },
      "balanceOf(address)": {
        "details": "See {IERC721-balanceOf}."
      },
      "getApproved(uint256)": {
        "details": "See {IERC721-getApproved}."
      },
      "isApprovedForAll(address,address)": {
        "details": "See {IERC721-isApprovedForAll}."
      },
      "name()": {
        "details": "See {IERC721Metadata-name}."
      },
      "ownerOf(uint256)": {
        "details": "See {IERC721-ownerOf}."
      },
      "safeTransferFrom(address,address,uint256)": {
        "details": "See {IERC721-safeTransferFrom}."
      },
      "safeTransferFrom(address,address,uint256,bytes)": {
        "details": "See {IERC721-safeTransferFrom}."
      },
      "setApprovalForAll(address,bool)": {
        "details": "See {IERC721-setApprovalForAll}."
      },
      "supportsInterface(bytes4)": {
        "details": "See {IERC165-supportsInterface}."
      },
      "symbol()": {
        "details": "See {IERC721Metadata-symbol}."
      },
      "tokenURI(uint256)": {
        "details": "See {IERC721Metadata-tokenURI}."
      },
      "transferFrom(address,address,uint256)": {
        "details": "See {IERC721-transferFrom}."
      }
    },
    "version": 1
  },
  "userdoc": {
    "kind": "user",
    "methods": {},
    "version": 1
  }
}