{
  "contractName": "MyContractAux",
  "abi": [
    {
      "inputs": [
        {
          "internalType": "address",
          "name": "sender",
          "type": "address"
        },
        {
          "internalType": "uint256",
          "name": "tokenId",
          "type": "uint256"
        },
        {
          "internalType": "address",
          "name": "owner",
          "type": "address"
        }
      ],
      "name": "ERC721IncorrectOwner",
      "type": "error"
    },
    {
      "inputs": [
        {
          "internalType": "address",
          "name": "operator",
          "type": "address"
        },
        {
          "internalType": "uint256",
          "name": "tokenId",
          "type": "uint256"
        }
      ],
      "name": "ERC721InsufficientApproval",
      "type": "error"
    },
    {
      "inputs": [
        {
          "internalType": "address",
          "name": "approver",
          "type": "address"
        }
      ],
      "name": "ERC721InvalidApprover",
      "type": "error"
    },
    {
      "inputs": [
        {
          "internalType": "address",
          "name": "operator",
          "type": "address"
        }
      ],
      "name": "ERC721InvalidOperator",
      "type": "error"
    },
    {
      "inputs": [
        {
          "internalType": "address",
          "name": "owner",
          "type": "address"
        }
      ],
      "name": "ERC721InvalidOwner",
      "type": "error"
    },
    {
      "inputs": [
        {
          "internalType": "address",
          "name": "receiver",
          "type": "address"
        }
      ],
      "name": "ERC721InvalidReceiver",
      "type": "error"
    },
    {
      "inputs": [
        {
          "internalType": "address",
          "name": "sender",
          "type": "address"
        }
      ],
      "name": "ERC721InvalidSender",
      "type": "error"
    },
    {
      "inputs": [
        {
          "internalType": "uint256",
          "name": "tokenId",
          "type": "uint256"
        }
      ],
      "name": "ERC721NonexistentToken",
      "type": "error"
    },
    {
      "anonymous": false,
      "inputs": [
        {
          "indexed": true,
          "internalType": "address",
          "name": "owner",
          "type": "address"
        },
        {
          "indexed": true,
          "internalType": "address",
          "name": "approved",
          "type": "address"
        },
        {
          "indexed": true,
          "internalType": "uint256",
          "name": "tokenId",
          "type": "uint256"
        }
      ],
      "name": "Approval",
      "type": "event"
    },
    {
      "anonymous": false,
      "inputs": [
        {
          "indexed": true,
          "internalType": "uint256",
          "name": "tokenId",
          "type": "uint256"
        },
        {
          "indexed": true,
          "internalType": "address",
          "name": "employer",
          "type": "address"
        },
        {
          "indexed": false,
          "internalType": "uint256",
          "name": "salary",
          "type": "uint256"
        },
        {
          "indexed": false,
          "internalType": "uint256",
          "name": "newSalary",
          "type": "uint256"
        },
        {
          "indexed": false,
          "internalType": "uint256",
          "name": "timestamp",
          "type": "uint256"
        }
      ],
      "name": "ApprovalChanges",
      "type": "event"
    },
    {
      "anonymous": false,
      "inputs": [
        {
          "indexed": true,
          "internalType": "address",
          "name": "owner",
          "type": "address"
        },
        {
          "indexed": true,
          "internalType": "address",
          "name": "operator",
          "type": "address"
        },
        {
          "indexed": false,
          "internalType": "bool",
          "name": "approved",
          "type": "bool"
        }
      ],
      "name": "ApprovalForAll",
      "type": "event"
    },
    {
      "anonymous": false,
      "inputs": [
        {
          "indexed": true,
          "internalType": "uint256",
          "name": "tokenId",
          "type": "uint256"
        },
        {
          "indexed": true,
          "internalType": "address",
          "name": "employer",
          "type": "address"
        },
        {
          "indexed": true,
          "internalType": "address",
          "name": "worker",
          "type": "address"
        },
        {
          "indexed": false,
          "internalType": "uint256",
          "name": "salary",
          "type": "uint256"
        },
        {
          "indexed": false,
          "internalType": "uint256",
          "name": "timestamp",
          "type": "uint256"
        }
      ],
      "name": "ContractCancelled",
      "type": "event"
    },
    {
      "anonymous": false,
      "inputs": [
        {
          "indexed": true,
          "internalType": "uint256",
          "name": "tokenId",
          "type": "uint256"
        },
        {
          "indexed": true,
          "internalType": "address",
          "name": "employer",
          "type": "address"
        },
        {
          "indexed": true,
          "internalType": "address",
          "name": "worker",
          "type": "address"
        },
        {
          "indexed": false,
          "internalType": "uint256",
          "name": "timestamp",
          "type": "uint256"
        }
      ],
      "name": "ContractFinalized",
      "type": "event"
    },
    {
      "anonymous": false,
      "inputs": [
        {
          "indexed": true,
          "internalType": "uint256",
          "name": "tokenId",
          "type": "uint256"
        },
        {
          "indexed": true,
          "internalType": "address",
          "name": "employer",
          "type": "address"
        },
        {
          "indexed": true,
          "internalType": "address",
          "name": "worker",
          "type": "address"
        },
        {
          "indexed": false,
          "internalType": "uint256",
          "name": "timestamp",
          "type": "uint256"
        }
      ],
      "name": "ContractSigned",
      "type": "event"
    },
    {
      "anonymous": false,
      "inputs": [
        {
          "indexed": true,
          "internalType": "uint256",
          "name": "tokenId",
          "type": "uint256"
        },
        {
          "indexed": true,
          "internalType": "address",
          "name": "employer",
          "type": "address"
        },
        {
          "indexed": false,
          "internalType": "uint256",
          "name": "timestamp",
          "type": "uint256"
        }
      ],
      "name": "RejectChanges",
      "type": "event"
    },
    {
      "anonymous": false,
      "inputs": [
        {
          "indexed": true,
          "internalType": "uint256",
          "name": "tokenId",
          "type": "uint256"
        },
        {
          "indexed": false,
          "internalType": "uint256",
          "name": "salary",
          "type": "uint256"
        },
        {
          "indexed": true,
          "internalType": "address",
          "name": "employer",
          "type": "address"
        },
        {
          "indexed": true,
          "internalType": "address",
          "name": "worker",
          "type": "address"
        },
        {
          "indexed": false,
          "internalType": "uint256",
          "name": "timestamp",
          "type": "uint256"
        }
      ],
      "name": "SalaryReleased",
      "type": "event"
    },
    {
      "anonymous": false,
      "inputs": [
        {
          "indexed": false,
          "internalType": "uint256",
          "name": "tokenId",
          "type": "uint256"
        },
        {
          "indexed": true,
          "internalType": "address",
          "name": "employer",
          "type": "address"
        },
        {
          "indexed": false,
          "internalType": "uint256",
          "name": "salary",
          "type": "uint256"
        },
        {
          "indexed": false,
          "internalType": "uint256",
          "name": "timestamp",
          "type": "uint256"
        }
      ],
      "name": "TokenMinted",
      "type": "event"
    },
    {
      "anonymous": false,
      "inputs": [
        {
          "indexed": true,
          "internalType": "address",
          "name": "from",
          "type": "address"
        },
        {
          "indexed": true,
          "internalType": "address",
          "name": "to",
          "type": "address"
        },
        {
          "indexed": true,
          "internalType": "uint256",
          "name": "tokenId",
          "type": "uint256"
        }
      ],
      "name": "Transfer",
      "type": "event"
    },
    {
      "inputs": [
        {
          "internalType": "address",
          "name": "",
          "type": "address"
        },
        {
          "internalType": "uint256",
          "name": "",
          "type": "uint256"
        }
      ],
      "name": "activeContractsOfWorker",
      "outputs": [
        {
          "internalType": "uint256",
          "name": "",
          "type": "uint256"
        }
      ],
      "stateMutability": "view",
      "type": "function",
      "constant": true
    },
    {
      "inputs": [
        {
          "internalType": "uint256",
          "name": "_tokenID",
          "type": "uint256"
        }
      ],
      "name": "applyChange",
      "outputs": [],
      "stateMutability": "payable",
      "type": "function",
      "payable": true
    },
    {
      "inputs": [
        {
          "internalType": "address",
          "name": "to",
          "type": "address"
        },
        {
          "internalType": "uint256",
          "name": "tokenId",
          "type": "uint256"
        }
      ],
      "name": "approve",
      "outputs": [],
      "stateMutability": "nonpayable",
      "type": "function"
    },
    {
      "inputs": [
        {
          "internalType": "uint256",
          "name": "_tokenID",
          "type": "uint256"
        },
        {
          "internalType": "address",
          "name": "_newManager",
          "type": "address"
        }
      ],
      "name": "assignManagerToToken",
      "outputs": [],
      "stateMutability": "nonpayable",
      "type": "function"
    },
    {
      "inputs": [
        {
          "internalType": "address",
          "name": "owner",
          "type": "address"
        }
      ],
      "name": "balanceOf",
      "outputs": [
        {
          "internalType": "uint256",
          "name": "",
          "type": "uint256"
        }
      ],
      "stateMutability": "view",
      "type": "function",
      "constant": true
    },
    {
      "inputs": [
        {
          "internalType": "uint256",
          "name": "_tokenID",
          "type": "uint256"
        }
      ],
      "name": "cancelContract",
      "outputs": [],
      "stateMutability": "nonpayable",
      "type": "function"
    },
    {
      "inputs": [
        {
          "internalType": "uint256",
          "name": "",
          "type": "uint256"
        }
      ],
      "name": "changeProposals",
      "outputs": [
        {
          "internalType": "string",
          "name": "newTitle",
          "type": "string"
        },
        {
          "internalType": "uint256",
          "name": "newSalary",
          "type": "uint256"
        },
        {
          "internalType": "uint256",
          "name": "newDuration",
          "type": "uint256"
        },
        {
          "internalType": "string",
          "name": "newDescription",
          "type": "string"
        },
        {
          "internalType": "bool",
          "name": "isPaused",
          "type": "bool"
        },
        {
          "internalType": "bool",
          "name": "isPending",
          "type": "bool"
        }
      ],
      "stateMutability": "view",
      "type": "function",
      "constant": true
    },
    {
      "inputs": [
        {
          "internalType": "uint256",
          "name": "",
          "type": "uint256"
        }
      ],
      "name": "contractDetails",
      "outputs": [
        {
          "internalType": "uint256",
          "name": "salary",
          "type": "uint256"
        },
        {
          "internalType": "uint256",
          "name": "startDate",
          "type": "uint256"
        },
        {
          "internalType": "uint256",
          "name": "duration",
          "type": "uint256"
        },
        {
          "internalType": "string",
          "name": "title",
          "type": "string"
        },
        {
          "internalType": "string",
          "name": "description",
          "type": "string"
        },
        {
          "internalType": "bool",
          "name": "isSigned",
          "type": "bool"
        },
        {
          "internalType": "address",
          "name": "worker",
          "type": "address"
        },
        {
          "internalType": "bool",
          "name": "isFinished",
          "type": "bool"
        },
        {
          "internalType": "bool",
          "name": "isReleased",
          "type": "bool"
        },
        {
          "internalType": "bool",
          "name": "isPaused",
          "type": "bool"
        },
        {
          "internalType": "uint256",
          "name": "pauseTime",
          "type": "uint256"
        },
        {
          "internalType": "uint256",
          "name": "pauseDuration",
          "type": "uint256"
        }
      ],
      "stateMutability": "view",
      "type": "function",
      "constant": true
    },
    {
      "inputs": [
        {
          "internalType": "address",
          "name": "",
          "type": "address"
        },
        {
          "internalType": "uint256",
          "name": "",
          "type": "uint256"
        }
      ],
      "name": "contractsOwner",
      "outputs": [
        {
          "internalType": "uint256",
          "name": "",
          "type": "uint256"
        }
      ],
      "stateMutability": "view",
      "type": "function",
      "constant": true
    },
    {
      "inputs": [
        {
          "internalType": "uint256",
          "name": "_tokenID",
          "type": "uint256"
        }
      ],
      "name": "finalizeContract",
      "outputs": [],
      "stateMutability": "nonpayable",
      "type": "function"
    },
    {
      "inputs": [
        {
          "internalType": "uint256",
          "name": "tokenId",
          "type": "uint256"
        }
      ],
      "name": "getApproved",
      "outputs": [
        {
          "internalType": "address",
          "name": "",
          "type": "address"
        }
      ],
      "stateMutability": "view",
      "type": "function",
      "constant": true
    },
    {
      "inputs": [
        {
          "internalType": "address",
          "name": "owner",
          "type": "address"
        },
        {
          "internalType": "address",
          "name": "operator",
          "type": "address"
        }
      ],
      "name": "isApprovedForAll",
      "outputs": [
        {
          "internalType": "bool",
          "name": "",
          "type": "bool"
        }
      ],
      "stateMutability": "view",
      "type": "function",
      "constant": true
    },
    {
      "inputs": [
        {
          "internalType": "uint256",
          "name": "_tokenID",
          "type": "uint256"
        }
      ],
      "name": "isContractFinished",
      "outputs": [
        {
          "internalType": "bool",
          "name": "",
          "type": "bool"
        }
      ],
      "stateMutability": "view",
      "type": "function",
      "constant": true
    },
    {
      "inputs": [
        {
          "internalType": "address",
          "name": "_to",
          "type": "address"
        },
        {
          "internalType": "uint256",
          "name": "_salary",
          "type": "uint256"
        },
        {
          "internalType": "uint256",
          "name": "_start",
          "type": "uint256"
        },
        {
          "internalType": "uint256",
          "name": "_duration",
          "type": "uint256"
        },
        {
          "internalType": "string",
          "name": "_description",
          "type": "string"
        },
        {
          "internalType": "string",
          "name": "_title",
          "type": "string"
        }
      ],
      "name": "mint",
      "outputs": [
        {
          "internalType": "uint256",
          "name": "",
          "type": "uint256"
        }
      ],
      "stateMutability": "payable",
      "type": "function",
      "payable": true
    },
    {
      "inputs": [],
      "name": "name",
      "outputs": [
        {
          "internalType": "string",
          "name": "",
          "type": "string"
        }
      ],
      "stateMutability": "view",
      "type": "function",
      "constant": true
    },
    {
      "inputs": [
        {
          "internalType": "uint256",
          "name": "tokenId",
          "type": "uint256"
        }
      ],
      "name": "ownerOf",
      "outputs": [
        {
          "internalType": "address",
          "name": "",
          "type": "address"
        }
      ],
      "stateMutability": "view",
      "type": "function",
      "constant": true
    },
    {
      "inputs": [
        {
          "internalType": "uint256",
          "name": "_tokenID",
          "type": "uint256"
        }
      ],
      "name": "pauseContract",
      "outputs": [],
      "stateMutability": "nonpayable",
      "type": "function"
    },
    {
      "inputs": [
        {
          "internalType": "uint256",
          "name": "_tokenID",
          "type": "uint256"
        },
        {
          "internalType": "string",
          "name": "_newTitle",
          "type": "string"
        },
        {
          "internalType": "uint256",
          "name": "_newSalary",
          "type": "uint256"
        },
        {
          "internalType": "uint256",
          "name": "_newDuration",
          "type": "uint256"
        },
        {
          "internalType": "string",
          "name": "_newDescription",
          "type": "string"
        },
        {
          "internalType": "bool",
          "name": "_isPaused",
          "type": "bool"
        }
      ],
      "name": "proposeChange",
      "outputs": [],
      "stateMutability": "payable",
      "type": "function",
      "payable": true
    },
    {
      "inputs": [
        {
          "internalType": "uint256",
          "name": "_tokenID",
          "type": "uint256"
        }
      ],
      "name": "rejectChange",
      "outputs": [],
      "stateMutability": "nonpayable",
      "type": "function"
    },
    {
      "inputs": [
        {
          "internalType": "uint256",
          "name": "_tokenID",
          "type": "uint256"
        }
      ],
      "name": "releaseSalary",
      "outputs": [],
      "stateMutability": "payable",
      "type": "function",
      "payable": true
    },
    {
      "inputs": [
        {
          "internalType": "uint256",
          "name": "_tokenId",
          "type": "uint256"
        },
        {
          "internalType": "address",
          "name": "_manager",
          "type": "address"
        }
      ],
      "name": "revokeManagerFromToken",
      "outputs": [],
      "stateMutability": "nonpayable",
      "type": "function"
    },
    {
      "inputs": [
        {
          "internalType": "address",
          "name": "from",
          "type": "address"
        },
        {
          "internalType": "address",
          "name": "to",
          "type": "address"
        },
        {
          "internalType": "uint256",
          "name": "tokenId",
          "type": "uint256"
        }
      ],
      "name": "safeTransferFrom",
      "outputs": [],
      "stateMutability": "nonpayable",
      "type": "function"
    },
    {
      "inputs": [
        {
          "internalType": "address",
          "name": "from",
          "type": "address"
        },
        {
          "internalType": "address",
          "name": "to",
          "type": "address"
        },
        {
          "internalType": "uint256",
          "name": "tokenId",
          "type": "uint256"
        },
        {
          "internalType": "bytes",
          "name": "data",
          "type": "bytes"
        }
      ],
      "name": "safeTransferFrom",
      "outputs": [],
      "stateMutability": "nonpayable",
      "type": "function"
    },
    {
      "inputs": [
        {
          "internalType": "address",
          "name": "operator",
          "type": "address"
        },
        {
          "internalType": "bool",
          "name": "approved",
          "type": "bool"
        }
      ],
      "name": "setApprovalForAll",
      "outputs": [],
      "stateMutability": "nonpayable",
      "type": "function"
    },
    {
      "inputs": [
        {
          "internalType": "uint256",
          "name": "_tokenID",
          "type": "uint256"
        }
      ],
      "name": "signContract",
      "outputs": [],
      "stateMutability": "nonpayable",
      "type": "function"
    },
    {
      "inputs": [
        {
          "internalType": "bytes4",
          "name": "interfaceId",
          "type": "bytes4"
        }
      ],
      "name": "supportsInterface",
      "outputs": [
        {
          "internalType": "bool",
          "name": "",
          "type": "bool"
        }
      ],
      "stateMutability": "view",
      "type": "function",
      "constant": true
    },
    {
      "inputs": [],
      "name": "symbol",
      "outputs": [
        {
          "internalType": "string",
          "name": "",
          "type": "string"
        }
      ],
      "stateMutability": "view",
      "type": "function",
      "constant": true
    },
    {
      "inputs": [],
      "name": "tokenID",
      "outputs": [
        {
          "internalType": "uint256",
          "name": "",
          "type": "uint256"
        }
      ],
      "stateMutability": "view",
      "type": "function",
      "constant": true
    },
    {
      "inputs": [
        {
          "internalType": "uint256",
          "name": "",
          "type": "uint256"
        },
        {
          "internalType": "address",
          "name": "",
          "type": "address"
        }
      ],
      "name": "tokenManagers",
      "outputs": [
        {
          "internalType": "bool",
          "name": "",
          "type": "bool"
        }
      ],
      "stateMutability": "view",
      "type": "function",
      "constant": true
    },
    {
      "inputs": [
        {
          "internalType": "uint256",
          "name": "",
          "type": "uint256"
        },
        {
          "internalType": "uint256",
          "name": "",
          "type": "uint256"
        }
      ],
      "name": "tokenManagersList",
      "outputs": [
        {
          "internalType": "address",
          "name": "",
          "type": "address"
        }
      ],
      "stateMutability": "view",
      "type": "function",
      "constant": true
    },
    {
      "inputs": [
        {
          "internalType": "uint256",
          "name": "tokenId",
          "type": "uint256"
        }
      ],
      "name": "tokenURI",
      "outputs": [
        {
          "internalType": "string",
          "name": "",
          "type": "string"
        }
      ],
      "stateMutability": "view",
      "type": "function",
      "constant": true
    },
    {
      "inputs": [
        {
          "internalType": "address",
          "name": "from",
          "type": "address"
        },
        {
          "internalType": "address",
          "name": "to",
          "type": "address"
        },
        {
          "internalType": "uint256",
          "name": "tokenId",
          "type": "uint256"
        }
      ],
      "name": "transferFrom",
      "outputs": [],
      "stateMutability": "nonpayable",
      "type": "function"
    },
    {
      "inputs": [
        {
          "internalType": "uint256",
          "name": "_tokenID",
          "type": "uint256"
        }
      ],
      "name": "unPauseContract",
      "outputs": [],
      "stateMutability": "nonpayable",
      "type": "function"
    },
    {
      "inputs": [
        {
          "internalType": "address",
          "name": "",
          "type": "address"
        },
        {
          "internalType": "uint256",
          "name": "",
          "type": "uint256"
        }
      ],
      "name": "unsignedContractsOfWorker",
      "outputs": [
        {
          "internalType": "uint256",
          "name": "",
          "type": "uint256"
        }
      ],
      "stateMutability": "view",
      "type": "function",
      "constant": true
    },
    {
      "inputs": [
        {
          "internalType": "uint256",
          "name": "_tokenId",
          "type": "uint256"
        }
      ],
      "name": "getManagersOfToken",
      "outputs": [
        {
          "internalType": "address[]",
          "name": "",
          "type": "address[]"
        }
      ],
      "stateMutability": "view",
      "type": "function",
      "constant": true
    },
    {
      "inputs": [
        {
          "internalType": "address",
          "name": "_address",
          "type": "address"
        }
      ],
      "name": "getContractsFromOwner",
      "outputs": [
        {
          "internalType": "uint256[]",
          "name": "",
          "type": "uint256[]"
        }
      ],
      "stateMutability": "view",
      "type": "function",
      "constant": true
    },
    {
      "inputs": [
        {
          "internalType": "address",
          "name": "_address",
          "type": "address"
        }
      ],
      "name": "getContractsOfWorker",
      "outputs": [
        {
          "internalType": "uint256[]",
          "name": "",
          "type": "uint256[]"
        }
      ],
      "stateMutability": "view",
      "type": "function",
      "constant": true
    },
    {
      "inputs": [
        {
          "internalType": "address",
          "name": "worker",
          "type": "address"
        }
      ],
      "name": "getUnsignedContractsOfWorker",
      "outputs": [
        {
          "internalType": "uint256[]",
          "name": "",
          "type": "uint256[]"
        }
      ],
      "stateMutability": "view",
      "type": "function",
      "constant": true
    },
    {
      "inputs": [
        {
          "internalType": "uint256",
          "name": "_tokenId",
          "type": "uint256"
        }
      ],
      "name": "tokenExists",
      "outputs": [
        {
          "internalType": "bool",
          "name": "",
          "type": "bool"
        }
      ],
      "stateMutability": "view",
      "type": "function",
      "constant": true
    },
    {
      "inputs": [
        {
          "internalType": "uint256",
          "name": "_tokenID",
          "type": "uint256"
        }
      ],
      "name": "isContractSigned",
      "outputs": [
        {
          "internalType": "bool",
          "name": "",
          "type": "bool"
        }
      ],
      "stateMutability": "view",
      "type": "function",
      "constant": true
    },
    {
      "inputs": [
        {
          "internalType": "uint256",
          "name": "_tokenID",
          "type": "uint256"
        }
      ],
      "name": "getOwnerOfContract",
      "outputs": [
        {
          "internalType": "address",
          "name": "",
          "type": "address"
        }
      ],
      "stateMutability": "view",
      "type": "function",
      "constant": true
    }
  ],
  "bytecode": "0x608060405234801562000010575f80fd5b506040518060400160405280600781526020016626bcaa37b5b2b760c91b815250604051806040016040528060038152602001624d544b60e81b815250815f90816200005d919062000115565b5060016200006c828262000115565b505050620001dd565b634e487b7160e01b5f52604160045260245ffd5b600181811c908216806200009e57607f821691505b602082108103620000bd57634e487b7160e01b5f52602260045260245ffd5b50919050565b601f82111562000110575f81815260208120601f850160051c81016020861015620000eb5750805b601f850160051c820191505b818110156200010c57828155600101620000f7565b5050505b505050565b81516001600160401b0381111562000131576200013162000075565b620001498162000142845462000089565b84620000c3565b602080601f8311600181146200017f575f8415620001675750858301515b5f19600386901b1c1916600185901b1785556200010c565b5f85815260208120601f198616915b82811015620001af578886015182559484019460019091019084016200018e565b5085821015620001cd57878501515f19600388901b60f8161c191681555b5050505050600190811b01905550565b61398b80620001eb5f395ff3fe60806040526004361061023d575f3560e01c80635376574411610134578063a8dd8964116100b3578063c87b56dd11610078578063c87b56dd146106e2578063d053b45114610701578063e1b1462014610720578063e2c07c7b1461073f578063e985e9c514610752578063fc5a4efe14610771575f80fd5b8063a8dd896414610653578063b88d4fde14610666578063bc3a8e9e14610685578063bce87156146106a4578063c2852f38146106c3575f80fd5b806393a43c19116100f957806393a43c19146105bb5780639537e8d1146105ec57806395d89b411461060b578063a22cb4651461061f578063a5c42ef11461063e575f80fd5b806353765744146105135780636352211e1461053f57806370a082311461055e57806389b83d3e1461057d57806390d16ce41461059c575f80fd5b806328047450116101c0578063409283d011610185578063409283d01461048257806342842e0e1461049557806345f18460146104b45780634ec3e2aa146104e15780634f73d79d14610500575f80fd5b806328047450146103b55780632907eb16146103d4578063294a7931146103f35780633330a55f1461042c57806336a2d6f514610463575f80fd5b8063095ea7b311610206578063095ea7b31461030d57806323133e4c1461032c5780632355e2171461035857806323b872dd1461037757806323e0f23714610396575f80fd5b8062923f9e1461024157806301ffc9a714610275578063045b6a4e1461029457806306fdde03146102b5578063081812fc146102d6575b5f80fd5b34801561024c575f80fd5b5061026061025b366004613109565b6107a2565b60405190151581526020015b60405180910390f35b348015610280575f80fd5b5061026061028f366004613138565b610815565b34801561029f575f80fd5b506102b36102ae366004613167565b610866565b005b3480156102c0575f80fd5b506102c9610989565b60405161026c91906131e2565b3480156102e1575f80fd5b506102f56102f0366004613109565b610a18565b6040516001600160a01b03909116815260200161026c565b348015610318575f80fd5b506102b36103273660046131f4565b610a3f565b348015610337575f80fd5b5061034b61034636600461321e565b610a4a565b60405161026c9190613239565b348015610363575f80fd5b506102b3610372366004613167565b610bfb565b348015610382575f80fd5b506102b361039136600461327c565b610d24565b3480156103a1575f80fd5b506102f56103b0366004613109565b610dad565b3480156103c0575f80fd5b506102b36103cf366004613109565b610db7565b3480156103df575f80fd5b506102b36103ee366004613109565b610f7c565b3480156103fe575f80fd5b5061026061040d366004613167565b600860209081525f928352604080842090915290825290205460ff1681565b348015610437575f80fd5b5061044b610446366004613109565b611101565b60405161026c9c9b9a999897969594939291906132ba565b34801561046e575f80fd5b506102f561047d366004613349565b611282565b6102b3610490366004613109565b6112b6565b3480156104a0575f80fd5b506102b36104af36600461327c565b611601565b3480156104bf575f80fd5b506104d36104ce3660046131f4565b611620565b60405190815260200161026c565b3480156104ec575f80fd5b506102b36104fb366004613109565b61164b565b6102b361050e36600461341d565b6118e8565b34801561051e575f80fd5b5061053261052d366004613109565b611afb565b60405161026c91906134a7565b34801561054a575f80fd5b506102f5610559366004613109565b611b64565b348015610569575f80fd5b506104d361057836600461321e565b611b6e565b348015610588575f80fd5b506102b3610597366004613109565b611bb3565b3480156105a7575f80fd5b5061034b6105b636600461321e565b611c7b565b3480156105c6575f80fd5b506102606105d5366004613109565b5f9081526006602052604090206005015460ff1690565b3480156105f7575f80fd5b506102b3610606366004613109565b611ce3565b348015610616575f80fd5b506102c9611e76565b34801561062a575f80fd5b506102b36106393660046134e7565b611e85565b348015610649575f80fd5b506104d3600d5481565b6104d361066136600461351a565b611e90565b348015610671575f80fd5b506102b36106803660046135a6565b61217f565b348015610690575f80fd5b506104d361069f3660046131f4565b612196565b3480156106af575f80fd5b506102606106be366004613109565b6121af565b3480156106ce575f80fd5b506102b36106dd366004613109565b61229a565b3480156106ed575f80fd5b506102c96106fc366004613109565b6122fd565b34801561070c575f80fd5b5061034b61071b36600461321e565b61236e565b34801561072b575f80fd5b506104d361073a3660046131f4565b6123d5565b6102b361074d366004613109565b6123ee565b34801561075d575f80fd5b5061026061076c366004613621565b6125b0565b34801561077c575f80fd5b5061079061078b366004613109565b6125dd565b60405161026c9695949392919061364d565b6040516331a9108f60e11b8152600481018290525f903090636352211e90602401602060405180830381865afa9250505080156107fc575060408051601f3d908101601f191682019092526107f991810190613698565b60015b61080757505f919050565b50600192915050565b919050565b5f6001600160e01b031982166380ac58cd60e01b148061084557506001600160e01b03198216635b5e139f60e01b145b8061086057506301ffc9a760e01b6001600160e01b03198316145b92915050565b61086f82611b64565b6001600160a01b0316336001600160a01b03161480156108b057505f8281526008602090815260408083206001600160a01b038516845290915290205460ff165b6108d55760405162461bcd60e51b81526004016108cc906136b3565b60405180910390fd5b5f5b5f838152600c6020526040902054811015610951575f838152600c6020526040902080546001600160a01b038416919083908110610917576109176136e8565b5f918252602090912001546001600160a01b03160361093f5761093a8382612722565b610951565b8061094981613710565b9150506108d7565b505f8281526008602090815260408083206001600160a01b03851684529091529020805460ff1916905561098582826127f0565b5050565b60605f805461099790613728565b80601f01602080910402602001604051908101604052809291908181526020018280546109c390613728565b8015610a0e5780601f106109e557610100808354040283529160200191610a0e565b820191905f5260205f20905b8154815290600101906020018083116109f157829003601f168201915b5050505050905090565b5f610a2282612a4a565b505f828152600460205260409020546001600160a01b0316610860565b610985828233612a82565b6001600160a01b0381165f908152600b60205260408120546060918167ffffffffffffffff811115610a7e57610a7e613369565b604051908082528060200260200182016040528015610aa7578160200160208202803683370190505b5090505f805b83811015610b57576001600160a01b0386165f908152600b60205260408120805483908110610ade57610ade6136e8565b5f918252602080832090910154808352600690915260409091206005015490915060ff16158015610b135750610b13816107a2565b15610b445780848481518110610b2b57610b2b6136e8565b602090810291909101015282610b4081613710565b9350505b5080610b4f81613710565b915050610aad565b505f8167ffffffffffffffff811115610b7257610b72613369565b604051908082528060200260200182016040528015610b9b578160200160208202803683370190505b5090505f5b82811015610bf157838181518110610bba57610bba6136e8565b6020026020010151828281518110610bd457610bd46136e8565b602090810291909101015280610be981613710565b915050610ba0565b5095945050505050565b610c0482611b64565b6001600160a01b0316336001600160a01b0316148015610c4657505f8281526008602090815260408083206001600160a01b038516845290915290205460ff16155b8015610c6c5750610c5682611b64565b6001600160a01b0316816001600160a01b031614155b610c885760405162461bcd60e51b81526004016108cc906136b3565b5f8281526008602090815260408083206001600160a01b038516845290915290205460ff16610985575f8281526008602090815260408083206001600160a01b0394909416808452938252808320805460ff19166001908117909155858452600c8352818420805480830182559085528385200180546001600160a01b0319168617905593835260098252822080549384018155825290200155565b6001600160a01b038216610d4d57604051633250574960e11b81525f60048201526024016108cc565b5f610d59838333612a8f565b9050836001600160a01b0316816001600160a01b031614610da7576040516364283d7b60e01b81526001600160a01b03808616600483015260248201849052821660448201526064016108cc565b50505050565b5f61086082611b64565b6040516331a9108f60e11b8152600481018290523090636352211e90602401602060405180830381865afa925050508015610e0f575060408051601f3d908101601f19168201909252610e0c91810190613698565b60015b610e2b5760405162461bcd60e51b81526004016108cc90613760565b505f81815260086020908152604080832033845290915290205460ff1615156001148015610e6a57505f8181526006602052604090206005015460ff16155b8015610e8e57505f81815260066020526040902060050154600160a81b900460ff16155b610eaa5760405162461bcd60e51b81526004016108cc906136b3565b5f610eb482611b64565b5f83815260066020526040808220549051929350916001600160a01b0384169183156108fc02918491818181858888f19350505050158015610ef8573d5f803e3d5ffd5b50610f0383836127f0565b610f0c83612b81565b5f83815260066020526040908190206005015490516001600160a01b0361010090920482169184169085907f344201ab2f1b413c381fe1cb1ae7d24db70f386bce6c330c4c705bba56d233fa90610f6f9086904290918252602082015260400190565b60405180910390a4505050565b6040516331a9108f60e11b8152600481018290523090636352211e90602401602060405180830381865afa925050508015610fd4575060408051601f3d908101601f19168201909252610fd191810190613698565b60015b610ff05760405162461bcd60e51b81526004016108cc90613760565b505f81815260086020908152604080832033845290915290205460ff161515600114801561102e57505f8181526006602052604090206005015460ff165b801561105257505f81815260066020526040902060050154600160a81b900460ff16155b80156110645750611062816121af565b155b6110805760405162461bcd60e51b81526004016108cc906136b3565b5f818152600660205260409020600501805460ff60a81b1916600160a81b17908190556001600160a01b03610100909104166110bb82611b64565b6001600160a01b0316827f86ea1596926f4e3b70b3169cd39eb59f8ada5f00ef929f33bdf925066cc52e8d426040516110f691815260200190565b60405180910390a450565b60066020525f908152604090208054600182015460028301546003840180549394929391929161113090613728565b80601f016020809104026020016040519081016040528092919081815260200182805461115c90613728565b80156111a75780601f1061117e576101008083540402835291602001916111a7565b820191905f5260205f20905b81548152906001019060200180831161118a57829003601f168201915b5050505050908060040180546111bc90613728565b80601f01602080910402602001604051908101604052809291908181526020018280546111e890613728565b80156112335780601f1061120a57610100808354040283529160200191611233565b820191905f5260205f20905b81548152906001019060200180831161121657829003601f168201915b50505060058401546006850154600790950154939460ff808316956001600160a01b036101008504169550600160a81b840482169450600160b01b8404821693600160b81b900490911691908c565b600c602052815f5260405f20818154811061129b575f80fd5b5f918252602090912001546001600160a01b03169150829050565b5f81815260076020526040902060040154610100900460ff1680156112e157506112df816121af565b155b6112fd5760405162461bcd60e51b81526004016108cc906136b3565b5f81815260076020526040808220815160c0810190925280548290829061132390613728565b80601f016020809104026020016040519081016040528092919081815260200182805461134f90613728565b801561139a5780601f106113715761010080835404028352916020019161139a565b820191905f5260205f20905b81548152906001019060200180831161137d57829003601f168201915b5050505050815260200160018201548152602001600282015481526020016003820180546113c790613728565b80601f01602080910402602001604051908101604052809291908181526020018280546113f390613728565b801561143e5780601f106114155761010080835404028352916020019161143e565b820191905f5260205f20905b81548152906001019060200180831161142157829003601f168201915b50505091835250506004919091015460ff80821615156020808501919091526101009092041615156040928301525f85815260068252919091205490820151919250908111156114df575f826020015182611499919061378d565b90505f6114a585611b64565b6040519091506001600160a01b0382169083156108fc029084905f818181858888f193505050501580156114db573d5f803e3d5ffd5b5050505b81515f848152600660205260409020600301906114fc90826137ed565b506020808301515f8581526006909252604091829020908155908301516002820155606083015160049091019061153390826137ed565b505f838152600660205260409020600501546080830151600160b81b90910460ff1615159015151461158057816080015115611577576115728361229a565b611580565b61158083611bb3565b5f838152600760205260409020600401805461ff00191690556115a283611b64565b6001600160a01b0316837feae34dfcd93cfebf9280a6861befb7759d5cd39c50230ea4236c640577b57e91838560200151426040516115f4939291909283526020830191909152604082015260600190565b60405180910390a3505050565b61161b83838360405180602001604052805f81525061217f565b505050565b600b602052815f5260405f208181548110611639575f80fd5b905f5260205f20015f91509150505481565b5f81815260076020526040902060040154610100900460ff1680156116765750611674816121af565b155b6116925760405162461bcd60e51b81526004016108cc906136b3565b5f81815260076020526040808220815160c081019092528054829082906116b890613728565b80601f01602080910402602001604051908101604052809291908181526020018280546116e490613728565b801561172f5780601f106117065761010080835404028352916020019161172f565b820191905f5260205f20905b81548152906001019060200180831161171257829003601f168201915b50505050508152602001600182015481526020016002820154815260200160038201805461175c90613728565b80601f016020809104026020016040519081016040528092919081815260200182805461178890613728565b80156117d35780601f106117aa576101008083540402835291602001916117d3565b820191905f5260205f20905b8154815290600101906020018083116117b657829003601f168201915b50505091835250506004919091015460ff80821615156020808501919091526101009092041615156040928301525f85815260068252919091205490820151919250101561187f575f82815260066020908152604082205490830151611839919061378d565b90505f61184584611b64565b6040519091506001600160a01b0382169083156108fc029084905f818181858888f1935050505015801561187b573d5f803e3d5ffd5b5050505b5f828152600760205260409020600401805461ff00191690556118a182611b64565b6001600160a01b0316827f15934a3417e41a8dee207a62290629c5e540abd33988563c1e3f0a719def99a9426040516118dc91815260200190565b60405180910390a35050565b5f8681526006602052604090206005015460ff16801561190e575061190c866121af565b155b801561193057505f86815260076020526040902060040154610100900460ff16155b801561195457505f86815260086020908152604080832033845290915290205460ff165b6119705760405162461bcd60e51b81526004016108cc906136b3565b5f8681526006602052604090205480851115611a4b575f611991828761378d565b905080341015611a095760405162461bcd60e51b815260206004820152603a60248201527f466f6e646f7320696e737566696369656e74657320706172612063756272697260448201527f20656c20696e6372656d656e746f2064656c2073616c6172696f00000000000060648201526084016108cc565b5f611a14823461378d565b90508015611a4857604051339082156108fc029083905f818181858888f19350505050158015611a46573d5f803e3d5ffd5b505b50505b6040805160c0810182528781526020808201889052818301879052606082018690528415156080830152600160a08301525f8a815260079091529190912081518190611a9790826137ed565b50602082015160018201556040820151600282015560608201516003820190611ac090826137ed565b5060808201516004909101805460a09093015115156101000261ff00199215159290921661ffff199093169290921717905550505050505050565b5f818152600c6020908152604091829020805483518184028101840190945280845260609392830182828015611b5857602002820191905f5260205f20905b81546001600160a01b03168152600190910190602001808311611b3a575b50505050509050919050565b5f61086082612a4a565b5f6001600160a01b038216611b98576040516322718ad960e21b81525f60048201526024016108cc565b506001600160a01b03165f9081526003602052604090205490565b5f81815260066020526040902060050154600160b81b900460ff16611bea5760405162461bcd60e51b81526004016108cc906136b3565b5f81815260066020819052604082200154611c05904261378d565b90508060065f8481526020019081526020015f206002015f828254611c2a91906138a9565b90915550505f8281526006602052604081206007018054839290611c4f9084906138a9565b9091555050505f908152600660208190526040822090810191909155600501805460ff60b81b19169055565b6001600160a01b0381165f90815260096020908152604091829020805483518184028101840190945280845260609392830182828015611b5857602002820191905f5260205f20905b815481526020019060010190808311611cc45750505050509050919050565b6040516331a9108f60e11b8152600481018290523090636352211e90602401602060405180830381865afa925050508015611d3b575060408051601f3d908101601f19168201909252611d3891810190613698565b60015b611d575760405162461bcd60e51b81526004016108cc90613760565b505f81815260086020908152604080832033845290915290205460ff16158015611d9257505f8181526006602052604090206005015460ff16155b8015611db657505f81815260066020526040902060050154600160a81b900460ff16155b8015611dc85750611dc6816121af565b155b611de45760405162461bcd60e51b81526004016108cc906136b3565b5f81815260066020908152604080832060050180543361010081026001600160a81b0319909216919091176001908117909255808552600a84529184208054918201815584529190922001829055611e3b82611b64565b6001600160a01b0316827f9678f981bcf017d96c4d9fb4124afb0d1c62735df0ad70bef9fd0f5c18bda4fb426040516110f691815260200190565b60606001805461099790613728565b610985338383612bb9565b5f85341015611ef85760405162461bcd60e51b815260206004820152602e60248201527f4465646520656e7669617220656c2073616c6172696f20636f6d6f2076616c6f60448201526d722064656c20636f6e747261746f60901b60648201526084016108cc565b600d8054905f611f0783613710565b9190505550611f1833600d54612c4f565b5f611f23873461378d565b90508015611f5757604051339082156108fc029083905f818181858888f19350505050158015611f55573d5f803e3d5ffd5b505b5f6040518061018001604052808981526020014289611f7691906138a9565b81526020808201899052604080830188905260608084018a90525f608085018190526001600160a01b038f1660a086015260c0850181905260e0850181905261010085018190526101208501819052610140909401849052600d5484526006835292819020845181559184015160018301558301516002820155908201519192508291600382019061200890826137ed565b506080820151600482019061201d90826137ed565b5060a082015160058201805460c085015160e0860151610100808801516101208901516001600160a81b0319909516961515610100600160a81b031916969096176001600160a01b039384169091021761ffff60a81b1916600160a81b9115159190910260ff60b01b191617600160b01b941515949094029390931760ff60b81b1916600160b81b91151591909102179055610140830151600683015561016090920151600790910155600d80545f90815260086020908152604080832033808552908352818420805460ff191660019081179091556009845282852086548154808401835591875285872090910155958f168452600b83528184208554815497880182559085529383902090950192909255915481519081529182018b905242908201527f81fd5f457056a8b19e623dc52551a385bfcafd0914d3942446ecab71d19b123b9060600160405180910390a25050600d54979650505050505050565b61218a848484610d24565b610da784848484612cb0565b600a602052815f5260405f208181548110611639575f80fd5b6040516331a9108f60e11b8152600481018290525f903090636352211e90602401602060405180830381865afa925050508015612209575060408051601f3d908101601f1916820190925261220691810190613698565b60015b6122255760405162461bcd60e51b81526004016108cc90613760565b505f82815260066020526040902060050154600160a81b900460ff16151560010361225257506001919050565b5f82815260066020526040902060078101546002820154600190920154909161227a916138a9565b61228491906138a9565b42111561229357506001919050565b505f919050565b5f81815260066020526040902060050154600160b81b900460ff16156122d25760405162461bcd60e51b81526004016108cc906136b3565b5f90815260066020819052604090912060058101805460ff60b81b1916600160b81b17905542910155565b606061230882612a4a565b505f61231e60408051602081019091525f815290565b90505f81511161233c5760405180602001604052805f815250612367565b8061234684612dd6565b6040516020016123579291906138bc565b6040516020818303038152906040525b9392505050565b6001600160a01b0381165f908152600a6020908152604091829020805483518184028101840190945280845260609392830182828015611b5857602002820191905f5260205f2090815481526020019060010190808311611cc45750505050509050919050565b6009602052815f5260405f208181548110611639575f80fd5b6040516331a9108f60e11b8152600481018290523090636352211e90602401602060405180830381865afa925050508015612446575060408051601f3d908101601f1916820190925261244391810190613698565b60015b6124625760405162461bcd60e51b81526004016108cc90613760565b505f8181526006602052604090206005015460ff16801561249b57505f81815260066020526040902060050154600160b01b900460ff16155b80156124c457505f81815260086020908152604080832033845290915290205460ff1615156001145b80156124da57506124d4816121af565b15156001145b6124f65760405162461bcd60e51b81526004016108cc906136b3565b5f818152600660205260408082206005810154905491516101009091046001600160a01b03169283916108fc84150291849190818181858888f19350505050158015612544573d5f803e3d5ffd5b505f8381526006602052604090819020600501805460ff60b01b1916600160b01b179055516001600160a01b03831690339085907f4b5aadc9a65abf047bc2152ff605000b1dd64e7cb420aba7862457538885bfee90610f6f9086904290918252602082015260400190565b6001600160a01b039182165f90815260056020908152604080832093909416825291909152205460ff1690565b60076020525f90815260409020805481906125f790613728565b80601f016020809104026020016040519081016040528092919081815260200182805461262390613728565b801561266e5780601f106126455761010080835404028352916020019161266e565b820191905f5260205f20905b81548152906001019060200180831161265157829003601f168201915b50505050509080600101549080600201549080600301805461268f90613728565b80601f01602080910402602001604051908101604052809291908181526020018280546126bb90613728565b80156127065780601f106126dd57610100808354040283529160200191612706565b820191905f5260205f20905b8154815290600101906020018083116126e957829003601f168201915b5050506004909301549192505060ff8082169161010090041686565b5f828152600c60205260409020805461273d9060019061378d565b8154811061274d5761274d6136e8565b5f918252602080832090910154848352600c909152604090912080546001600160a01b039092169183908110612785576127856136e8565b5f91825260208083209190910180546001600160a01b0319166001600160a01b039490941693909317909255838152600c909152604090208054806127cc576127cc6138ea565b5f8281526020902081015f1990810180546001600160a01b03191690550190555050565b6040516331a9108f60e11b8152600481018390523090636352211e90602401602060405180830381865afa925050508015612848575060408051601f3d908101601f1916820190925261284591810190613698565b60015b6128645760405162461bcd60e51b81526004016108cc90613760565b50806001600160a01b031661287883611b64565b6001600160a01b0316146128f45760405162461bcd60e51b815260206004820152603760248201527f456c2070726f706965746172696f206e6f20636f696e6369646520636f6e206560448201527f6c2070726f706965746172696f2064656c20746f6b656e00000000000000000060648201526084016108cc565b6001600160a01b0381165f90815260096020526040812054819061291a9060019061378d565b90505f5b6001600160a01b0384165f90815260096020526040902054811015612991576001600160a01b0384165f908152600960205260409020805486919083908110612969576129696136e8565b905f5260205f2001540361297f57809250612991565b8061298981613710565b91505061291e565b50808214612a0b576001600160a01b0383165f9081526009602052604090208054829081106129c2576129c26136e8565b905f5260205f20015460095f856001600160a01b03166001600160a01b031681526020019081526020015f2083815481106129ff576129ff6136e8565b5f918252602090912001555b6001600160a01b0383165f908152600960205260409020805480612a3157612a316138ea565b600190038181905f5260205f20015f9055905550505050565b5f818152600260205260408120546001600160a01b03168061086057604051637e27328960e01b8152600481018490526024016108cc565b61161b8383836001612e66565b5f828152600260205260408120546001600160a01b0390811690831615612abb57612abb818486612f6a565b6001600160a01b03811615612af557612ad65f855f80612e66565b6001600160a01b0381165f90815260036020526040902080545f190190555b6001600160a01b03851615612b23576001600160a01b0385165f908152600360205260409020805460010190555b5f8481526002602052604080822080546001600160a01b0319166001600160a01b0389811691821790925591518793918516917fddf252ad1be2c89b69c2b068fc378daa952ba7f163c4a11628f55a4df523b3ef91a4949350505050565b5f612b8d5f835f612a8f565b90506001600160a01b03811661098557604051637e27328960e01b8152600481018390526024016108cc565b6001600160a01b038216612beb57604051630b61174360e31b81526001600160a01b03831660048201526024016108cc565b6001600160a01b038381165f81815260056020908152604080832094871680845294825291829020805460ff191686151590811790915591519182527f17307eab39ab6107e8899845ad3d59bd9653f200f220920489ca2b5937696c3191016115f4565b6001600160a01b038216612c7857604051633250574960e11b81525f60048201526024016108cc565b5f612c8483835f612a8f565b90506001600160a01b0381161561161b576040516339e3563760e11b81525f60048201526024016108cc565b6001600160a01b0383163b15610da757604051630a85bd0160e11b81526001600160a01b0384169063150b7a0290612cf29033908890879087906004016138fe565b6020604051808303815f875af1925050508015612d2c575060408051601f3d908101601f19168201909252612d299181019061393a565b60015b612d93573d808015612d59576040519150601f19603f3d011682016040523d82523d5f602084013e612d5e565b606091505b5080515f03612d8b57604051633250574960e11b81526001600160a01b03851660048201526024016108cc565b805181602001fd5b6001600160e01b03198116630a85bd0160e11b14612dcf57604051633250574960e11b81526001600160a01b03851660048201526024016108cc565b5050505050565b60605f612de283612fce565b60010190505f8167ffffffffffffffff811115612e0157612e01613369565b6040519080825280601f01601f191660200182016040528015612e2b576020820181803683370190505b5090508181016020015b5f19016f181899199a1a9b1b9c1cb0b131b232b360811b600a86061a8153600a8504945084612e3557509392505050565b8080612e7a57506001600160a01b03821615155b15612f3b575f612e8984612a4a565b90506001600160a01b03831615801590612eb55750826001600160a01b0316816001600160a01b031614155b8015612ec85750612ec681846125b0565b155b15612ef15760405163a9fbf51f60e01b81526001600160a01b03841660048201526024016108cc565b8115612f395783856001600160a01b0316826001600160a01b03167f8c5be1e5ebec7d5bd14f71427d1e84f3dd0314c0f7b2291e5b200ac8c7c3b92560405160405180910390a45b505b50505f90815260046020526040902080546001600160a01b0319166001600160a01b0392909216919091179055565b612f758383836130a5565b61161b576001600160a01b038316612fa357604051637e27328960e01b8152600481018290526024016108cc565b60405163177e802f60e01b81526001600160a01b0383166004820152602481018290526044016108cc565b5f8072184f03e93ff9f4daa797ed6e38ed64bf6a1f0160401b831061300c5772184f03e93ff9f4daa797ed6e38ed64bf6a1f0160401b830492506040015b6d04ee2d6d415b85acef81000000008310613038576d04ee2d6d415b85acef8100000000830492506020015b662386f26fc10000831061305657662386f26fc10000830492506010015b6305f5e100831061306e576305f5e100830492506008015b612710831061308257612710830492506004015b60648310613094576064830492506002015b600a83106108605760010192915050565b5f6001600160a01b038316158015906131015750826001600160a01b0316846001600160a01b031614806130de57506130de84846125b0565b8061310157505f828152600460205260409020546001600160a01b038481169116145b949350505050565b5f60208284031215613119575f80fd5b5035919050565b6001600160e01b031981168114613135575f80fd5b50565b5f60208284031215613148575f80fd5b813561236781613120565b6001600160a01b0381168114613135575f80fd5b5f8060408385031215613178575f80fd5b82359150602083013561318a81613153565b809150509250929050565b5f5b838110156131af578181015183820152602001613197565b50505f910152565b5f81518084526131ce816020860160208601613195565b601f01601f19169290920160200192915050565b602081525f61236760208301846131b7565b5f8060408385031215613205575f80fd5b823561321081613153565b946020939093013593505050565b5f6020828403121561322e575f80fd5b813561236781613153565b602080825282518282018190525f9190848201906040850190845b8181101561327057835183529284019291840191600101613254565b50909695505050505050565b5f805f6060848603121561328e575f80fd5b833561329981613153565b925060208401356132a981613153565b929592945050506040919091013590565b5f6101808e83528d60208401528c60408401528060608401526132df8184018d6131b7565b905082810360808401526132f3818c6131b7565b8a151560a08501526001600160a01b038a1660c085015288151560e0850152871515610100850152861515610120850152915061332d9050565b61014082019390935261016001529a9950505050505050505050565b5f806040838503121561335a575f80fd5b50508035926020909101359150565b634e487b7160e01b5f52604160045260245ffd5b5f67ffffffffffffffff8084111561339757613397613369565b604051601f8501601f19908116603f011681019082821181831017156133bf576133bf613369565b816040528093508581528686860111156133d7575f80fd5b858560208301375f602087830101525050509392505050565b5f82601f8301126133ff575f80fd5b6123678383356020850161337d565b80358015158114610810575f80fd5b5f805f805f8060c08789031215613432575f80fd5b86359550602087013567ffffffffffffffff80821115613450575f80fd5b61345c8a838b016133f0565b96506040890135955060608901359450608089013591508082111561347f575f80fd5b5061348c89828a016133f0565b92505061349b60a0880161340e565b90509295509295509295565b602080825282518282018190525f9190848201906040850190845b818110156132705783516001600160a01b0316835292840192918401916001016134c2565b5f80604083850312156134f8575f80fd5b823561350381613153565b91506135116020840161340e565b90509250929050565b5f805f805f8060c0878903121561352f575f80fd5b863561353a81613153565b9550602087013594506040870135935060608701359250608087013567ffffffffffffffff8082111561356b575f80fd5b6135778a838b016133f0565b935060a089013591508082111561358c575f80fd5b5061359989828a016133f0565b9150509295509295509295565b5f805f80608085870312156135b9575f80fd5b84356135c481613153565b935060208501356135d481613153565b925060408501359150606085013567ffffffffffffffff8111156135f6575f80fd5b8501601f81018713613606575f80fd5b6136158782356020840161337d565b91505092959194509250565b5f8060408385031215613632575f80fd5b823561363d81613153565b9150602083013561318a81613153565b60c081525f61365f60c08301896131b7565b876020840152866040840152828103606084015261367d81876131b7565b9415156080840152505090151560a090910152949350505050565b5f602082840312156136a8575f80fd5b815161236781613153565b6020808252818101527f4572726f723a20636f6e646963696f6e6573206e6f2063756d706c696461732e604082015260600190565b634e487b7160e01b5f52603260045260245ffd5b634e487b7160e01b5f52601160045260245ffd5b5f60018201613721576137216136fc565b5060010190565b600181811c9082168061373c57607f821691505b60208210810361375a57634e487b7160e01b5f52602260045260245ffd5b50919050565b60208082526013908201527222b6103a37b5b2b71037379032bc34b9ba329760691b604082015260600190565b81810381811115610860576108606136fc565b601f82111561161b575f81815260208120601f850160051c810160208610156137c65750805b601f850160051c820191505b818110156137e5578281556001016137d2565b505050505050565b815167ffffffffffffffff81111561380757613807613369565b61381b816138158454613728565b846137a0565b602080601f83116001811461384e575f84156138375750858301515b5f19600386901b1c1916600185901b1785556137e5565b5f85815260208120601f198616915b8281101561387c5788860151825594840194600190910190840161385d565b508582101561389957878501515f19600388901b60f8161c191681555b5050505050600190811b01905550565b80820180821115610860576108606136fc565b5f83516138cd818460208801613195565b8351908301906138e1818360208801613195565b01949350505050565b634e487b7160e01b5f52603160045260245ffd5b6001600160a01b03858116825284166020820152604081018390526080606082018190525f90613930908301846131b7565b9695505050505050565b5f6020828403121561394a575f80fd5b81516123678161312056fea26469706673582212201f910cab9f0c08d5ab2908d3418713503bf05a2d42375230e890f9bfe205293b64736f6c63430008140033",
  "immutableReferences": {},
  "source": "// SPDX-License-Identifier: MIT\r\npragma solidity ^0.8.20;\r\n\r\nimport \"./MyContractManagement.sol\";\r\nimport \"./MyContractChanges.sol\";\r\n\r\ncontract MyContractAux is MyContractManagement, MyContractChanges{\r\n\r\n    function getManagersOfToken(\r\n        uint256 _tokenId\r\n    ) public view returns (address[] memory) {\r\n        return tokenManagersList[_tokenId];\r\n    }\r\n\r\n    /*\r\n    function isManagerOfToken(\r\n        uint256 _tokenId,\r\n        address _manager\r\n    ) public view returns (bool) {\r\n        return tokenManagers[_tokenId][_manager];\r\n    }\r\n    */\r\n\r\n\r\n    function getContractsFromOwner(\r\n        address _address\r\n    ) public view returns (uint256[] memory) {\r\n        return contractsOwner[_address];\r\n    }\r\n\r\n\r\n    function getContractsOfWorker(\r\n        address _address\r\n    ) public view returns (uint256[] memory) {\r\n        return activeContractsOfWorker[_address];\r\n    }\r\n\r\n\r\n    function getUnsignedContractsOfWorker(\r\n        address worker\r\n    ) public view returns (uint256[] memory) {\r\n        uint256 totalContracts = unsignedContractsOfWorker[worker].length;\r\n        uint256[] memory tempContracts = new uint256[](totalContracts);\r\n        uint256 count = 0;\r\n\r\n        for (uint256 i = 0; i < totalContracts; i++) {\r\n            uint256 contractId = unsignedContractsOfWorker[worker][i];\r\n\r\n            if (\r\n                !contractDetails[contractId].isSigned && tokenExists(contractId)\r\n            ) {\r\n                tempContracts[count] = contractId;\r\n                count++;\r\n            }\r\n        }\r\n\r\n        uint256[] memory result = new uint256[](count);\r\n        for (uint256 j = 0; j < count; j++) {\r\n            result[j] = tempContracts[j];\r\n        }\r\n        return result;\r\n    }\r\n\r\n\r\n    function tokenExists(uint256 _tokenId) public view returns (bool) {\r\n        try this.ownerOf(_tokenId) {\r\n            return true;\r\n        } catch {\r\n            return false;\r\n        }\r\n    }\r\n\r\n\r\n    function isContractSigned(uint256 _tokenID) public view returns (bool) {\r\n        return contractDetails[_tokenID].isSigned;\r\n    }\r\n\r\n\r\n    function getOwnerOfContract(\r\n        uint256 _tokenID\r\n    ) public view returns (address) {\r\n        return ownerOf(_tokenID);\r\n    }\r\n}\r\n",
  "sourcePath": "E:\\AppContract\\ubu-contractme\\Code\\SmartContract\\contracts\\MyContractAux.sol",
  "compiler": {
    "name": "solc",
    "version": "0.8.20+commit.a1b79de6.Emscripten.clang"
  },
  "schemaVersion": "3.4.16",
  "updatedAt": "2024-03-22T12:29:29.820Z",
  "networkType": "ethereum",
  "devdoc": {
    "errors": {
      "ERC721IncorrectOwner(address,uint256,address)": [
        {
          "details": "Indicates an error related to the ownership over a particular token. Used in transfers.",
          "params": {
            "owner": "Address of the current owner of a token.",
            "sender": "Address whose tokens are being transferred.",
            "tokenId": "Identifier number of a token."
          }
        }
      ],
      "ERC721InsufficientApproval(address,uint256)": [
        {
          "details": "Indicates a failure with the `operator`s approval. Used in transfers.",
          "params": {
            "operator": "Address that may be allowed to operate on tokens without being their owner.",
            "tokenId": "Identifier number of a token."
          }
        }
      ],
      "ERC721InvalidApprover(address)": [
        {
          "details": "Indicates a failure with the `approver` of a token to be approved. Used in approvals.",
          "params": {
            "approver": "Address initiating an approval operation."
          }
        }
      ],
      "ERC721InvalidOperator(address)": [
        {
          "details": "Indicates a failure with the `operator` to be approved. Used in approvals.",
          "params": {
            "operator": "Address that may be allowed to operate on tokens without being their owner."
          }
        }
      ],
      "ERC721InvalidOwner(address)": [
        {
          "details": "Indicates that an address can't be an owner. For example, `address(0)` is a forbidden owner in EIP-20. Used in balance queries.",
          "params": {
            "owner": "Address of the current owner of a token."
          }
        }
      ],
      "ERC721InvalidReceiver(address)": [
        {
          "details": "Indicates a failure with the token `receiver`. Used in transfers.",
          "params": {
            "receiver": "Address to which tokens are being transferred."
          }
        }
      ],
      "ERC721InvalidSender(address)": [
        {
          "details": "Indicates a failure with the token `sender`. Used in transfers.",
          "params": {
            "sender": "Address whose tokens are being transferred."
          }
        }
      ],
      "ERC721NonexistentToken(uint256)": [
        {
          "details": "Indicates a `tokenId` whose `owner` is the zero address.",
          "params": {
            "tokenId": "Identifier number of a token."
          }
        }
      ]
    },
    "events": {
      "Approval(address,address,uint256)": {
        "details": "Emitted when `owner` enables `approved` to manage the `tokenId` token."
      },
      "ApprovalForAll(address,address,bool)": {
        "details": "Emitted when `owner` enables or disables (`approved`) `operator` to manage all of its assets."
      },
      "Transfer(address,address,uint256)": {
        "details": "Emitted when `tokenId` token is transferred from `from` to `to`."
      }
    },
    "kind": "dev",
    "methods": {
      "approve(address,uint256)": {
        "details": "See {IERC721-approve}."
      },
      "balanceOf(address)": {
        "details": "See {IERC721-balanceOf}."
      },
      "getApproved(uint256)": {
        "details": "See {IERC721-getApproved}."
      },
      "isApprovedForAll(address,address)": {
        "details": "See {IERC721-isApprovedForAll}."
      },
      "name()": {
        "details": "See {IERC721Metadata-name}."
      },
      "ownerOf(uint256)": {
        "details": "See {IERC721-ownerOf}."
      },
      "safeTransferFrom(address,address,uint256)": {
        "details": "See {IERC721-safeTransferFrom}."
      },
      "safeTransferFrom(address,address,uint256,bytes)": {
        "details": "See {IERC721-safeTransferFrom}."
      },
      "setApprovalForAll(address,bool)": {
        "details": "See {IERC721-setApprovalForAll}."
      },
      "supportsInterface(bytes4)": {
        "details": "See {IERC165-supportsInterface}."
      },
      "symbol()": {
        "details": "See {IERC721Metadata-symbol}."
      },
      "tokenURI(uint256)": {
        "details": "See {IERC721Metadata-tokenURI}."
      },
      "transferFrom(address,address,uint256)": {
        "details": "See {IERC721-transferFrom}."
      }
    },
    "version": 1
  },
  "userdoc": {
    "kind": "user",
    "methods": {},
    "version": 1
  }
}