{
  "contractName": "MyContract",
  "abi": [
    {
      "inputs": [],
      "stateMutability": "nonpayable",
      "type": "constructor"
    },
    {
      "inputs": [
        {
          "internalType": "address",
          "name": "sender",
          "type": "address"
        },
        {
          "internalType": "uint256",
          "name": "tokenId",
          "type": "uint256"
        },
        {
          "internalType": "address",
          "name": "owner",
          "type": "address"
        }
      ],
      "name": "ERC721IncorrectOwner",
      "type": "error"
    },
    {
      "inputs": [
        {
          "internalType": "address",
          "name": "operator",
          "type": "address"
        },
        {
          "internalType": "uint256",
          "name": "tokenId",
          "type": "uint256"
        }
      ],
      "name": "ERC721InsufficientApproval",
      "type": "error"
    },
    {
      "inputs": [
        {
          "internalType": "address",
          "name": "approver",
          "type": "address"
        }
      ],
      "name": "ERC721InvalidApprover",
      "type": "error"
    },
    {
      "inputs": [
        {
          "internalType": "address",
          "name": "operator",
          "type": "address"
        }
      ],
      "name": "ERC721InvalidOperator",
      "type": "error"
    },
    {
      "inputs": [
        {
          "internalType": "address",
          "name": "owner",
          "type": "address"
        }
      ],
      "name": "ERC721InvalidOwner",
      "type": "error"
    },
    {
      "inputs": [
        {
          "internalType": "address",
          "name": "receiver",
          "type": "address"
        }
      ],
      "name": "ERC721InvalidReceiver",
      "type": "error"
    },
    {
      "inputs": [
        {
          "internalType": "address",
          "name": "sender",
          "type": "address"
        }
      ],
      "name": "ERC721InvalidSender",
      "type": "error"
    },
    {
      "inputs": [
        {
          "internalType": "uint256",
          "name": "tokenId",
          "type": "uint256"
        }
      ],
      "name": "ERC721NonexistentToken",
      "type": "error"
    },
    {
      "anonymous": false,
      "inputs": [
        {
          "indexed": true,
          "internalType": "address",
          "name": "owner",
          "type": "address"
        },
        {
          "indexed": true,
          "internalType": "address",
          "name": "approved",
          "type": "address"
        },
        {
          "indexed": true,
          "internalType": "uint256",
          "name": "tokenId",
          "type": "uint256"
        }
      ],
      "name": "Approval",
      "type": "event"
    },
    {
      "anonymous": false,
      "inputs": [
        {
          "indexed": true,
          "internalType": "address",
          "name": "owner",
          "type": "address"
        },
        {
          "indexed": true,
          "internalType": "address",
          "name": "operator",
          "type": "address"
        },
        {
          "indexed": false,
          "internalType": "bool",
          "name": "approved",
          "type": "bool"
        }
      ],
      "name": "ApprovalForAll",
      "type": "event"
    },
    {
      "anonymous": false,
      "inputs": [
        {
          "indexed": true,
          "internalType": "uint256",
          "name": "tokenId",
          "type": "uint256"
        }
      ],
      "name": "ContractCancelled",
      "type": "event"
    },
    {
      "anonymous": false,
      "inputs": [
        {
          "indexed": true,
          "internalType": "uint256",
          "name": "tokenId",
          "type": "uint256"
        }
      ],
      "name": "ContractFinalized",
      "type": "event"
    },
    {
      "anonymous": false,
      "inputs": [
        {
          "indexed": true,
          "internalType": "uint256",
          "name": "tokenId",
          "type": "uint256"
        },
        {
          "indexed": false,
          "internalType": "address",
          "name": "worker",
          "type": "address"
        }
      ],
      "name": "ContractSigned",
      "type": "event"
    },
    {
      "anonymous": false,
      "inputs": [
        {
          "indexed": false,
          "internalType": "uint256",
          "name": "currentSalary",
          "type": "uint256"
        },
        {
          "indexed": false,
          "internalType": "uint256",
          "name": "newSalary",
          "type": "uint256"
        },
        {
          "indexed": false,
          "internalType": "uint256",
          "name": "salaryDifference",
          "type": "uint256"
        },
        {
          "indexed": false,
          "internalType": "uint256",
          "name": "msgValue",
          "type": "uint256"
        }
      ],
      "name": "Debug",
      "type": "event"
    },
    {
      "anonymous": false,
      "inputs": [
        {
          "indexed": true,
          "internalType": "uint256",
          "name": "tokenId",
          "type": "uint256"
        },
        {
          "indexed": false,
          "internalType": "uint256",
          "name": "salary",
          "type": "uint256"
        }
      ],
      "name": "SalaryReleased",
      "type": "event"
    },
    {
      "anonymous": false,
      "inputs": [
        {
          "indexed": false,
          "internalType": "uint256",
          "name": "tokenId",
          "type": "uint256"
        }
      ],
      "name": "TokenMinted",
      "type": "event"
    },
    {
      "anonymous": false,
      "inputs": [
        {
          "indexed": true,
          "internalType": "address",
          "name": "from",
          "type": "address"
        },
        {
          "indexed": true,
          "internalType": "address",
          "name": "to",
          "type": "address"
        },
        {
          "indexed": true,
          "internalType": "uint256",
          "name": "tokenId",
          "type": "uint256"
        }
      ],
      "name": "Transfer",
      "type": "event"
    },
    {
      "inputs": [
        {
          "internalType": "address",
          "name": "to",
          "type": "address"
        },
        {
          "internalType": "uint256",
          "name": "tokenId",
          "type": "uint256"
        }
      ],
      "name": "approve",
      "outputs": [],
      "stateMutability": "nonpayable",
      "type": "function"
    },
    {
      "inputs": [
        {
          "internalType": "address",
          "name": "owner",
          "type": "address"
        }
      ],
      "name": "balanceOf",
      "outputs": [
        {
          "internalType": "uint256",
          "name": "",
          "type": "uint256"
        }
      ],
      "stateMutability": "view",
      "type": "function",
      "constant": true
    },
    {
      "inputs": [
        {
          "internalType": "uint256",
          "name": "",
          "type": "uint256"
        }
      ],
      "name": "changeProposals",
      "outputs": [
        {
          "internalType": "string",
          "name": "newTitle",
          "type": "string"
        },
        {
          "internalType": "uint256",
          "name": "newSalary",
          "type": "uint256"
        },
        {
          "internalType": "uint256",
          "name": "newDuration",
          "type": "uint256"
        },
        {
          "internalType": "string",
          "name": "newDescription",
          "type": "string"
        },
        {
          "internalType": "bool",
          "name": "isPaused",
          "type": "bool"
        },
        {
          "internalType": "bool",
          "name": "isPending",
          "type": "bool"
        }
      ],
      "stateMutability": "view",
      "type": "function",
      "constant": true
    },
    {
      "inputs": [
        {
          "internalType": "uint256",
          "name": "",
          "type": "uint256"
        }
      ],
      "name": "contractDetails",
      "outputs": [
        {
          "internalType": "uint256",
          "name": "salary",
          "type": "uint256"
        },
        {
          "internalType": "uint256",
          "name": "startDate",
          "type": "uint256"
        },
        {
          "internalType": "uint256",
          "name": "duration",
          "type": "uint256"
        },
        {
          "internalType": "string",
          "name": "title",
          "type": "string"
        },
        {
          "internalType": "string",
          "name": "description",
          "type": "string"
        },
        {
          "internalType": "bool",
          "name": "isSigned",
          "type": "bool"
        },
        {
          "internalType": "address",
          "name": "worker",
          "type": "address"
        },
        {
          "internalType": "bool",
          "name": "isFinished",
          "type": "bool"
        },
        {
          "internalType": "bool",
          "name": "isReleased",
          "type": "bool"
        },
        {
          "internalType": "bool",
          "name": "isPaused",
          "type": "bool"
        },
        {
          "internalType": "uint256",
          "name": "pauseTime",
          "type": "uint256"
        },
        {
          "internalType": "uint256",
          "name": "pauseDuration",
          "type": "uint256"
        }
      ],
      "stateMutability": "view",
      "type": "function",
      "constant": true
    },
    {
      "inputs": [
        {
          "internalType": "uint256",
          "name": "tokenId",
          "type": "uint256"
        }
      ],
      "name": "getApproved",
      "outputs": [
        {
          "internalType": "address",
          "name": "",
          "type": "address"
        }
      ],
      "stateMutability": "view",
      "type": "function",
      "constant": true
    },
    {
      "inputs": [
        {
          "internalType": "address",
          "name": "owner",
          "type": "address"
        },
        {
          "internalType": "address",
          "name": "operator",
          "type": "address"
        }
      ],
      "name": "isApprovedForAll",
      "outputs": [
        {
          "internalType": "bool",
          "name": "",
          "type": "bool"
        }
      ],
      "stateMutability": "view",
      "type": "function",
      "constant": true
    },
    {
      "inputs": [],
      "name": "name",
      "outputs": [
        {
          "internalType": "string",
          "name": "",
          "type": "string"
        }
      ],
      "stateMutability": "view",
      "type": "function",
      "constant": true
    },
    {
      "inputs": [
        {
          "internalType": "uint256",
          "name": "tokenId",
          "type": "uint256"
        }
      ],
      "name": "ownerOf",
      "outputs": [
        {
          "internalType": "address",
          "name": "",
          "type": "address"
        }
      ],
      "stateMutability": "view",
      "type": "function",
      "constant": true
    },
    {
      "inputs": [
        {
          "internalType": "address",
          "name": "from",
          "type": "address"
        },
        {
          "internalType": "address",
          "name": "to",
          "type": "address"
        },
        {
          "internalType": "uint256",
          "name": "tokenId",
          "type": "uint256"
        }
      ],
      "name": "safeTransferFrom",
      "outputs": [],
      "stateMutability": "nonpayable",
      "type": "function"
    },
    {
      "inputs": [
        {
          "internalType": "address",
          "name": "from",
          "type": "address"
        },
        {
          "internalType": "address",
          "name": "to",
          "type": "address"
        },
        {
          "internalType": "uint256",
          "name": "tokenId",
          "type": "uint256"
        },
        {
          "internalType": "bytes",
          "name": "data",
          "type": "bytes"
        }
      ],
      "name": "safeTransferFrom",
      "outputs": [],
      "stateMutability": "nonpayable",
      "type": "function"
    },
    {
      "inputs": [
        {
          "internalType": "address",
          "name": "operator",
          "type": "address"
        },
        {
          "internalType": "bool",
          "name": "approved",
          "type": "bool"
        }
      ],
      "name": "setApprovalForAll",
      "outputs": [],
      "stateMutability": "nonpayable",
      "type": "function"
    },
    {
      "inputs": [
        {
          "internalType": "bytes4",
          "name": "interfaceId",
          "type": "bytes4"
        }
      ],
      "name": "supportsInterface",
      "outputs": [
        {
          "internalType": "bool",
          "name": "",
          "type": "bool"
        }
      ],
      "stateMutability": "view",
      "type": "function",
      "constant": true
    },
    {
      "inputs": [],
      "name": "symbol",
      "outputs": [
        {
          "internalType": "string",
          "name": "",
          "type": "string"
        }
      ],
      "stateMutability": "view",
      "type": "function",
      "constant": true
    },
    {
      "inputs": [
        {
          "internalType": "uint256",
          "name": "",
          "type": "uint256"
        },
        {
          "internalType": "address",
          "name": "",
          "type": "address"
        }
      ],
      "name": "tokenManagers",
      "outputs": [
        {
          "internalType": "bool",
          "name": "",
          "type": "bool"
        }
      ],
      "stateMutability": "view",
      "type": "function",
      "constant": true
    },
    {
      "inputs": [
        {
          "internalType": "uint256",
          "name": "tokenId",
          "type": "uint256"
        }
      ],
      "name": "tokenURI",
      "outputs": [
        {
          "internalType": "string",
          "name": "",
          "type": "string"
        }
      ],
      "stateMutability": "view",
      "type": "function",
      "constant": true
    },
    {
      "inputs": [
        {
          "internalType": "address",
          "name": "from",
          "type": "address"
        },
        {
          "internalType": "address",
          "name": "to",
          "type": "address"
        },
        {
          "internalType": "uint256",
          "name": "tokenId",
          "type": "uint256"
        }
      ],
      "name": "transferFrom",
      "outputs": [],
      "stateMutability": "nonpayable",
      "type": "function"
    },
    {
      "inputs": [
        {
          "internalType": "address",
          "name": "_to",
          "type": "address"
        },
        {
          "internalType": "uint256",
          "name": "_salary",
          "type": "uint256"
        },
        {
          "internalType": "uint256",
          "name": "_duration",
          "type": "uint256"
        },
        {
          "internalType": "string",
          "name": "_description",
          "type": "string"
        },
        {
          "internalType": "string",
          "name": "_title",
          "type": "string"
        }
      ],
      "name": "mint",
      "outputs": [
        {
          "internalType": "uint256",
          "name": "",
          "type": "uint256"
        }
      ],
      "stateMutability": "payable",
      "type": "function",
      "payable": true
    },
    {
      "inputs": [
        {
          "internalType": "uint256",
          "name": "_tokenID",
          "type": "uint256"
        }
      ],
      "name": "signContract",
      "outputs": [],
      "stateMutability": "nonpayable",
      "type": "function"
    },
    {
      "inputs": [
        {
          "internalType": "uint256",
          "name": "_tokenID",
          "type": "uint256"
        }
      ],
      "name": "releaseSalary",
      "outputs": [],
      "stateMutability": "payable",
      "type": "function",
      "payable": true
    },
    {
      "inputs": [
        {
          "internalType": "uint256",
          "name": "_tokenID",
          "type": "uint256"
        }
      ],
      "name": "finalizeContract",
      "outputs": [],
      "stateMutability": "nonpayable",
      "type": "function"
    },
    {
      "inputs": [
        {
          "internalType": "uint256",
          "name": "_tokenID",
          "type": "uint256"
        }
      ],
      "name": "pauseContract",
      "outputs": [],
      "stateMutability": "nonpayable",
      "type": "function"
    },
    {
      "inputs": [
        {
          "internalType": "uint256",
          "name": "_tokenID",
          "type": "uint256"
        }
      ],
      "name": "unPauseContract",
      "outputs": [],
      "stateMutability": "nonpayable",
      "type": "function"
    },
    {
      "inputs": [
        {
          "internalType": "uint256",
          "name": "_tokenID",
          "type": "uint256"
        }
      ],
      "name": "cancelContract",
      "outputs": [],
      "stateMutability": "nonpayable",
      "type": "function"
    },
    {
      "inputs": [
        {
          "internalType": "uint256",
          "name": "_tokenId",
          "type": "uint256"
        },
        {
          "internalType": "address",
          "name": "_newManager",
          "type": "address"
        }
      ],
      "name": "assignManagerToToken",
      "outputs": [],
      "stateMutability": "nonpayable",
      "type": "function"
    },
    {
      "inputs": [
        {
          "internalType": "uint256",
          "name": "_tokenId",
          "type": "uint256"
        },
        {
          "internalType": "address",
          "name": "_manager",
          "type": "address"
        }
      ],
      "name": "revokeManagerFromToken",
      "outputs": [],
      "stateMutability": "nonpayable",
      "type": "function"
    },
    {
      "inputs": [
        {
          "internalType": "uint256",
          "name": "_tokenId",
          "type": "uint256"
        },
        {
          "internalType": "address",
          "name": "_manager",
          "type": "address"
        }
      ],
      "name": "isManagerOfToken",
      "outputs": [
        {
          "internalType": "bool",
          "name": "",
          "type": "bool"
        }
      ],
      "stateMutability": "view",
      "type": "function",
      "constant": true
    },
    {
      "inputs": [
        {
          "internalType": "uint256",
          "name": "_tokenID",
          "type": "uint256"
        },
        {
          "internalType": "string",
          "name": "_newTitle",
          "type": "string"
        },
        {
          "internalType": "uint256",
          "name": "_newSalary",
          "type": "uint256"
        },
        {
          "internalType": "uint256",
          "name": "_newDuration",
          "type": "uint256"
        },
        {
          "internalType": "string",
          "name": "_newDescription",
          "type": "string"
        },
        {
          "internalType": "bool",
          "name": "_isPaused",
          "type": "bool"
        }
      ],
      "name": "proposeChange",
      "outputs": [],
      "stateMutability": "payable",
      "type": "function",
      "payable": true
    },
    {
      "inputs": [
        {
          "internalType": "uint256",
          "name": "_tokenID",
          "type": "uint256"
        }
      ],
      "name": "rejectChange",
      "outputs": [],
      "stateMutability": "nonpayable",
      "type": "function"
    },
    {
      "inputs": [
        {
          "internalType": "uint256",
          "name": "_tokenID",
          "type": "uint256"
        }
      ],
      "name": "applyChange",
      "outputs": [],
      "stateMutability": "payable",
      "type": "function",
      "payable": true
    },
    {
      "inputs": [
        {
          "internalType": "address",
          "name": "_address",
          "type": "address"
        }
      ],
      "name": "getContractsFromOwner",
      "outputs": [
        {
          "internalType": "uint256[]",
          "name": "",
          "type": "uint256[]"
        }
      ],
      "stateMutability": "view",
      "type": "function",
      "constant": true
    },
    {
      "inputs": [
        {
          "internalType": "address",
          "name": "_address",
          "type": "address"
        }
      ],
      "name": "getContractsOfWorker",
      "outputs": [
        {
          "internalType": "uint256[]",
          "name": "",
          "type": "uint256[]"
        }
      ],
      "stateMutability": "view",
      "type": "function",
      "constant": true
    },
    {
      "inputs": [
        {
          "internalType": "address",
          "name": "worker",
          "type": "address"
        }
      ],
      "name": "getUnsignedContractsOfWorker",
      "outputs": [
        {
          "internalType": "uint256[]",
          "name": "",
          "type": "uint256[]"
        }
      ],
      "stateMutability": "view",
      "type": "function",
      "constant": true
    },
    {
      "inputs": [
        {
          "internalType": "uint256",
          "name": "_tokenId",
          "type": "uint256"
        }
      ],
      "name": "tokenExists",
      "outputs": [
        {
          "internalType": "bool",
          "name": "",
          "type": "bool"
        }
      ],
      "stateMutability": "view",
      "type": "function",
      "constant": true
    },
    {
      "inputs": [
        {
          "internalType": "uint256",
          "name": "_tokenID",
          "type": "uint256"
        }
      ],
      "name": "isContractFinished",
      "outputs": [
        {
          "internalType": "bool",
          "name": "",
          "type": "bool"
        }
      ],
      "stateMutability": "view",
      "type": "function",
      "constant": true
    },
    {
      "inputs": [
        {
          "internalType": "uint256",
          "name": "_tokenID",
          "type": "uint256"
        }
      ],
      "name": "isContractSigned",
      "outputs": [
        {
          "internalType": "bool",
          "name": "",
          "type": "bool"
        }
      ],
      "stateMutability": "view",
      "type": "function",
      "constant": true
    },
    {
      "inputs": [
        {
          "internalType": "uint256",
          "name": "_tokenID",
          "type": "uint256"
        }
      ],
      "name": "getOwnerOfContract",
      "outputs": [
        {
          "internalType": "address",
          "name": "",
          "type": "address"
        }
      ],
      "stateMutability": "view",
      "type": "function",
      "constant": true
    }
  ],
  "bytecode": "0x608060405234801562000010575f80fd5b506040518060400160405280600781526020017f4d79546f6b656e000000000000000000000000000000000000000000000000008152506040518060400160405280600381526020017f4d544b0000000000000000000000000000000000000000000000000000000000815250815f90816200008d91906200030c565b5080600190816200009f91906200030c565b505050620003f0565b5f81519050919050565b7f4e487b71000000000000000000000000000000000000000000000000000000005f52604160045260245ffd5b7f4e487b71000000000000000000000000000000000000000000000000000000005f52602260045260245ffd5b5f60028204905060018216806200012457607f821691505b6020821081036200013a5762000139620000df565b5b50919050565b5f819050815f5260205f209050919050565b5f6020601f8301049050919050565b5f82821b905092915050565b5f600883026200019e7fffffffffffffffffffffffffffffffffffffffffffffffffffffffffffffffff8262000161565b620001aa868362000161565b95508019841693508086168417925050509392505050565b5f819050919050565b5f819050919050565b5f620001f4620001ee620001e884620001c2565b620001cb565b620001c2565b9050919050565b5f819050919050565b6200020f83620001d4565b620002276200021e82620001fb565b8484546200016d565b825550505050565b5f90565b6200023d6200022f565b6200024a81848462000204565b505050565b5b818110156200027157620002655f8262000233565b60018101905062000250565b5050565b601f821115620002c0576200028a8162000140565b620002958462000152565b81016020851015620002a5578190505b620002bd620002b48562000152565b8301826200024f565b50505b505050565b5f82821c905092915050565b5f620002e25f1984600802620002c5565b1980831691505092915050565b5f620002fc8383620002d1565b9150826002028217905092915050565b6200031782620000a8565b67ffffffffffffffff811115620003335762000332620000b2565b5b6200033f82546200010c565b6200034c82828562000275565b5f60209050601f83116001811462000382575f84156200036d578287015190505b620003798582620002ef565b865550620003e8565b601f198416620003928662000140565b5f5b82811015620003bb5784890151825560018201915060208501945060208101905062000394565b86831015620003db5784890151620003d7601f891682620002d1565b8355505b6001600288020188555050505b505050505050565b615e9580620003fe5f395ff3fe60806040526004361061020d575f3560e01c80634f73d79d11610117578063a22cb4651161009f578063c87b56dd1161006e578063c87b56dd146107ec578063d053b45114610828578063e2c07c7b14610864578063e985e9c514610880578063fc5a4efe146108bc5761020d565b8063a22cb46514610738578063b88d4fde14610760578063bce8715614610788578063c2852f38146107c45761020d565b806389b83d3e116100e657806389b83d3e1461064657806390d16ce41461066e57806393a43c19146106aa5780639537e8d1146106e657806395d89b411461070e5761020d565b80634f73d79d146105825780636352211e1461059e5780636d013618146105da57806370a082311461060a5761020d565b806323e0f2371161019a57806331432e451161016957806331432e45146104935780633330a55f146104cf578063409283d01461051657806342842e0e146105325780634ec3e2aa1461055a5761020d565b806323e0f237146103cb57806328047450146104075780632907eb161461042f578063294a7931146104575761020d565b8063081812fc116101e1578063081812fc146102db578063095ea7b31461031757806323133e4c1461033f5780632355e2171461037b57806323b872dd146103a35761020d565b8062923f9e1461021157806301ffc9a71461024d578063045b6a4e1461028957806306fdde03146102b1575b5f80fd5b34801561021c575f80fd5b506102376004803603810190610232919061457f565b6108fd565b60405161024491906145c4565b60405180910390f35b348015610258575f80fd5b50610273600480360381019061026e9190614632565b610988565b60405161028091906145c4565b60405180910390f35b348015610294575f80fd5b506102af60048036038101906102aa91906146b7565b610a69565b005b3480156102bc575f80fd5b506102c5610b68565b6040516102d2919061477f565b60405180910390f35b3480156102e6575f80fd5b5061030160048036038101906102fc919061457f565b610bf7565b60405161030e91906147ae565b60405180910390f35b348015610322575f80fd5b5061033d600480360381019061033891906147c7565b610c12565b005b34801561034a575f80fd5b5061036560048036038101906103609190614805565b610c28565b60405161037291906148e7565b60405180910390f35b348015610386575f80fd5b506103a1600480360381019061039c91906146b7565b610e4c565b005b3480156103ae575f80fd5b506103c960048036038101906103c49190614907565b610faf565b005b3480156103d6575f80fd5b506103f160048036038101906103ec919061457f565b6110ae565b6040516103fe91906147ae565b60405180910390f35b348015610412575f80fd5b5061042d6004803603810190610428919061457f565b6110bf565b005b34801561043a575f80fd5b506104556004803603810190610450919061457f565b61127f565b005b348015610462575f80fd5b5061047d600480360381019061047891906146b7565b611543565b60405161048a91906145c4565b60405180910390f35b34801561049e575f80fd5b506104b960048036038101906104b491906146b7565b61156d565b6040516104c691906145c4565b60405180910390f35b3480156104da575f80fd5b506104f560048036038101906104f0919061457f565b6115cf565b60405161050d9c9b9a99989796959493929190614966565b60405180910390f35b610530600480360381019061052b919061457f565b61178a565b005b34801561053d575f80fd5b5061055860048036038101906105539190614907565b611b18565b005b348015610565575f80fd5b50610580600480360381019061057b919061457f565b611b37565b005b61059c60048036038101906105979190614b82565b611dee565b005b3480156105a9575f80fd5b506105c460048036038101906105bf919061457f565b611f8a565b6040516105d191906147ae565b60405180910390f35b6105f460048036038101906105ef9190614c43565b611f9b565b6040516106019190614cf2565b60405180910390f35b348015610615575f80fd5b50610630600480360381019061062b9190614805565b612383565b60405161063d9190614cf2565b60405180910390f35b348015610651575f80fd5b5061066c6004803603810190610667919061457f565b612439565b005b348015610679575f80fd5b50610694600480360381019061068f9190614805565b61267b565b6040516106a191906148e7565b60405180910390f35b3480156106b5575f80fd5b506106d060048036038101906106cb919061457f565b61270e565b6040516106dd91906145c4565b60405180910390f35b3480156106f1575f80fd5b5061070c6004803603810190610707919061457f565b612737565b005b348015610719575f80fd5b50610722612b5b565b60405161072f919061477f565b60405180910390f35b348015610743575f80fd5b5061075e60048036038101906107599190614d0b565b612beb565b005b34801561076b575f80fd5b5061078660048036038101906107819190614de7565b612c01565b005b348015610793575f80fd5b506107ae60048036038101906107a9919061457f565b612c1e565b6040516107bb91906145c4565b60405180910390f35b3480156107cf575f80fd5b506107ea60048036038101906107e5919061457f565b612cc1565b005b3480156107f7575f80fd5b50610812600480360381019061080d919061457f565b612ecd565b60405161081f919061477f565b60405180910390f35b348015610833575f80fd5b5061084e60048036038101906108499190614805565b612f33565b60405161085b91906148e7565b60405180910390f35b61087e6004803603810190610879919061457f565b612fc6565b005b34801561088b575f80fd5b506108a660048036038101906108a19190614e67565b613392565b6040516108b391906145c4565b60405180910390f35b3480156108c7575f80fd5b506108e260048036038101906108dd919061457f565b613420565b6040516108f496959493929190614ea5565b60405180910390f35b5f3073ffffffffffffffffffffffffffffffffffffffff16636352211e836040518263ffffffff1660e01b81526004016109379190614cf2565b602060405180830381865afa92505050801561097157506040513d601f19601f8201168201806040525081019061096e9190614f26565b60015b61097d575f9050610983565b50600190505b919050565b5f7f80ac58cd000000000000000000000000000000000000000000000000000000007bffffffffffffffffffffffffffffffffffffffffffffffffffffffff1916827bffffffffffffffffffffffffffffffffffffffffffffffffffffffff19161480610a5257507f5b5e139f000000000000000000000000000000000000000000000000000000007bffffffffffffffffffffffffffffffffffffffffffffffffffffffff1916827bffffffffffffffffffffffffffffffffffffffffffffffffffffffff1916145b80610a625750610a618261357d565b5b9050919050565b60075f8381526020019081526020015f205f3373ffffffffffffffffffffffffffffffffffffffff1673ffffffffffffffffffffffffffffffffffffffff1681526020019081526020015f205f9054906101000a900460ff16610b01576040517f08c379a0000000000000000000000000000000000000000000000000000000008152600401610af890614fc1565b60405180910390fd5b5f60075f8481526020019081526020015f205f8373ffffffffffffffffffffffffffffffffffffffff1673ffffffffffffffffffffffffffffffffffffffff1681526020019081526020015f205f6101000a81548160ff0219169083151502179055505050565b60605f8054610b769061500c565b80601f0160208091040260200160405190810160405280929190818152602001828054610ba29061500c565b8015610bed5780601f10610bc457610100808354040283529160200191610bed565b820191905f5260205f20905b815481529060010190602001808311610bd057829003601f168201915b5050505050905090565b5f610c01826135e6565b50610c0b8261366c565b9050919050565b610c248282610c1f6136a5565b6136ac565b5050565b60605f600b5f8473ffffffffffffffffffffffffffffffffffffffff1673ffffffffffffffffffffffffffffffffffffffff1681526020019081526020015f208054905090505f8167ffffffffffffffff811115610c8957610c88614a34565b5b604051908082528060200260200182016040528015610cb75781602001602082028036833780820191505090505b5090505f805b83811015610d9b575f600b5f8873ffffffffffffffffffffffffffffffffffffffff1673ffffffffffffffffffffffffffffffffffffffff1681526020019081526020015f208281548110610d1557610d1461503c565b5b905f5260205f200154905060085f8281526020019081526020015f206005015f9054906101000a900460ff16158015610d535750610d52816108fd565b5b15610d875780848481518110610d6c57610d6b61503c565b5b6020026020010181815250508280610d8390615096565b9350505b508080610d9390615096565b915050610cbd565b505f8167ffffffffffffffff811115610db757610db6614a34565b5b604051908082528060200260200182016040528015610de55781602001602082028036833780820191505090505b5090505f5b82811015610e3f57838181518110610e0557610e0461503c565b5b6020026020010151828281518110610e2057610e1f61503c565b5b6020026020010181815250508080610e3790615096565b915050610dea565b5080945050505050919050565b60075f8381526020019081526020015f205f3373ffffffffffffffffffffffffffffffffffffffff1673ffffffffffffffffffffffffffffffffffffffff1681526020019081526020015f205f9054906101000a900460ff16610ee4576040517f08c379a0000000000000000000000000000000000000000000000000000000008152600401610edb9061514d565b60405180910390fd5b600160075f8481526020019081526020015f205f8373ffffffffffffffffffffffffffffffffffffffff1673ffffffffffffffffffffffffffffffffffffffff1681526020019081526020015f205f6101000a81548160ff02191690831515021790555060095f8273ffffffffffffffffffffffffffffffffffffffff1673ffffffffffffffffffffffffffffffffffffffff1681526020019081526020015f20600654908060018154018082558091505060019003905f5260205f20015f90919091909150555050565b5f73ffffffffffffffffffffffffffffffffffffffff168273ffffffffffffffffffffffffffffffffffffffff160361101f575f6040517f64a0ae9200000000000000000000000000000000000000000000000000000000815260040161101691906147ae565b60405180910390fd5b5f611032838361102d6136a5565b6136be565b90508373ffffffffffffffffffffffffffffffffffffffff168173ffffffffffffffffffffffffffffffffffffffff16146110a8578382826040517f64283d7b00000000000000000000000000000000000000000000000000000000815260040161109f9392919061516b565b60405180910390fd5b50505050565b5f6110b882611f8a565b9050919050565b3073ffffffffffffffffffffffffffffffffffffffff16636352211e826040518263ffffffff1660e01b81526004016110f89190614cf2565b602060405180830381865afa92505050801561113257506040513d601f19601f8201168201806040525081019061112f9190614f26565b60015b611171576040517f08c379a0000000000000000000000000000000000000000000000000000000008152600401611168906151ea565b60405180910390fd5b5060085f8281526020019081526020015f206005015f9054906101000a900460ff16156111d3576040517f08c379a00000000000000000000000000000000000000000000000000000000081526004016111ca90615252565b60405180910390fd5b5f6111dd82611f8a565b90505f60085f8481526020019081526020015f205f015490508173ffffffffffffffffffffffffffffffffffffffff166108fc8290811502906040515f60405180830381858888f19350505050158015611239573d5f803e3d5ffd5b5061124483836138c9565b61124d83613aff565b827f2d5f5ed000d42aa6f6fc13400f7d7161cd1bea793fec354b11e3451f9f2b07c360405160405180910390a2505050565b3073ffffffffffffffffffffffffffffffffffffffff16636352211e826040518263ffffffff1660e01b81526004016112b89190614cf2565b602060405180830381865afa9250505080156112f257506040513d601f19601f820116820180604052508101906112ef9190614f26565b60015b611331576040517f08c379a0000000000000000000000000000000000000000000000000000000008152600401611328906151ea565b60405180910390fd5b506001151560075f8381526020019081526020015f205f3373ffffffffffffffffffffffffffffffffffffffff1673ffffffffffffffffffffffffffffffffffffffff1681526020019081526020015f205f9054906101000a900460ff161515146113d1576040517f08c379a00000000000000000000000000000000000000000000000000000000081526004016113c8906152e0565b60405180910390fd5b60085f8281526020019081526020015f206005015f9054906101000a900460ff16611431576040517f08c379a000000000000000000000000000000000000000000000000000000000815260040161142890615348565b60405180910390fd5b5f151560085f8381526020019081526020015f2060050160159054906101000a900460ff16151514611498576040517f08c379a000000000000000000000000000000000000000000000000000000000815260040161148f906153b0565b60405180910390fd5b5f15156114a482612c1e565b1515146114e6576040517f08c379a00000000000000000000000000000000000000000000000000000000081526004016114dd90615418565b60405180910390fd5b600160085f8381526020019081526020015f2060050160156101000a81548160ff021916908315150217905550807fc54419e57952d1437d40dd5b59e2a646b3b90caf014c939e27c87ea597a3ace560405160405180910390a250565b6007602052815f5260405f20602052805f5260405f205f915091509054906101000a900460ff1681565b5f60075f8481526020019081526020015f205f8373ffffffffffffffffffffffffffffffffffffffff1673ffffffffffffffffffffffffffffffffffffffff1681526020019081526020015f205f9054906101000a900460ff16905092915050565b6008602052805f5260405f205f91509050805f0154908060010154908060020154908060030180546116009061500c565b80601f016020809104026020016040519081016040528092919081815260200182805461162c9061500c565b80156116775780601f1061164e57610100808354040283529160200191611677565b820191905f5260205f20905b81548152906001019060200180831161165a57829003601f168201915b50505050509080600401805461168c9061500c565b80601f01602080910402602001604051908101604052809291908181526020018280546116b89061500c565b80156117035780601f106116da57610100808354040283529160200191611703565b820191905f5260205f20905b8154815290600101906020018083116116e657829003601f168201915b505050505090806005015f9054906101000a900460ff16908060050160019054906101000a900473ffffffffffffffffffffffffffffffffffffffff16908060050160159054906101000a900460ff16908060050160169054906101000a900460ff16908060050160179054906101000a900460ff1690806006015490806007015490508c565b60011515600c5f8381526020019081526020015f2060040160019054906101000a900460ff161515146117f2576040517f08c379a00000000000000000000000000000000000000000000000000000000081526004016117e990615480565b60405180910390fd5b5f600c5f8381526020019081526020015f206040518060c00160405290815f8201805461181e9061500c565b80601f016020809104026020016040519081016040528092919081815260200182805461184a9061500c565b80156118955780601f1061186c57610100808354040283529160200191611895565b820191905f5260205f20905b81548152906001019060200180831161187857829003601f168201915b5050505050815260200160018201548152602001600282015481526020016003820180546118c29061500c565b80601f01602080910402602001604051908101604052809291908181526020018280546118ee9061500c565b80156119395780601f1061191057610100808354040283529160200191611939565b820191905f5260205f20905b81548152906001019060200180831161191c57829003601f168201915b50505050508152602001600482015f9054906101000a900460ff161515151581526020016004820160019054906101000a900460ff161515151581525050905060085f8381526020019081526020015f205f015481602001511015611a11575f816020015160085f8581526020019081526020015f205f01546119bc919061549e565b90505f6119c884611f8a565b90508073ffffffffffffffffffffffffffffffffffffffff166108fc8390811502906040515f60405180830381858888f19350505050158015611a0d573d5f803e3d5ffd5b5050505b805f015160085f8481526020019081526020015f206003019081611a35919061566e565b50806020015160085f8481526020019081526020015f205f0181905550806040015160085f8481526020019081526020015f2060020181905550806060015160085f8481526020019081526020015f206004019081611a94919061566e565b5060085f8381526020019081526020015f2060050160179054906101000a900460ff1615158160800151151514611ae857806080015115611add57611ad882612cc1565b611ae7565b611ae682612439565b5b5b5f600c5f8481526020019081526020015f2060040160016101000a81548160ff0219169083151502179055505050565b611b3283838360405180602001604052805f815250612c01565b505050565b60011515600c5f8381526020019081526020015f2060040160019054906101000a900460ff16151514611b9f576040517f08c379a0000000000000000000000000000000000000000000000000000000008152600401611b9690615480565b60405180910390fd5b5f600c5f8381526020019081526020015f206040518060c00160405290815f82018054611bcb9061500c565b80601f0160208091040260200160405190810160405280929190818152602001828054611bf79061500c565b8015611c425780601f10611c1957610100808354040283529160200191611c42565b820191905f5260205f20905b815481529060010190602001808311611c2557829003601f168201915b505050505081526020016001820154815260200160028201548152602001600382018054611c6f9061500c565b80601f0160208091040260200160405190810160405280929190818152602001828054611c9b9061500c565b8015611ce65780601f10611cbd57610100808354040283529160200191611ce6565b820191905f5260205f20905b815481529060010190602001808311611cc957829003601f168201915b50505050508152602001600482015f9054906101000a900460ff161515151581526020016004820160019054906101000a900460ff161515151581525050905060085f8381526020019081526020015f205f015481602001511115611dbe575f60085f8481526020019081526020015f205f01548260200151611d69919061549e565b90505f611d7584611f8a565b90508073ffffffffffffffffffffffffffffffffffffffff166108fc8390811502906040515f60405180830381858888f19350505050158015611dba573d5f803e3d5ffd5b5050505b5f600c5f8481526020019081526020015f2060040160016101000a81548160ff0219169083151502179055505050565b5f60085f8881526020019081526020015f205f0154905080851115611ebe575f8186611e1a919061549e565b905080341015611e5f576040517f08c379a0000000000000000000000000000000000000000000000000000000008152600401611e56906157ad565b60405180910390fd5b5f8134611e6c919061549e565b90505f811115611ebb573373ffffffffffffffffffffffffffffffffffffffff166108fc8290811502906040515f60405180830381858888f19350505050158015611eb9573d5f803e3d5ffd5b505b50505b6040518060c00160405280878152602001868152602001858152602001848152602001831515815260200160011515815250600c5f8981526020019081526020015f205f820151815f019081611f14919061566e565b5060208201518160010155604082015181600201556060820151816003019081611f3e919061566e565b506080820151816004015f6101000a81548160ff02191690831515021790555060a08201518160040160016101000a81548160ff02191690831515021790555090505050505050505050565b5f611f94826135e6565b9050919050565b5f84341015611fdf576040517f08c379a0000000000000000000000000000000000000000000000000000000008152600401611fd69061583b565b60405180910390fd5b60065f815480929190611ff190615096565b919050555061200233600654613b81565b5f853461200f919061549e565b90505f81111561205e573373ffffffffffffffffffffffffffffffffffffffff166108fc8290811502906040515f60405180830381858888f1935050505015801561205c573d5f803e3d5ffd5b505b5f6040518061018001604052808881526020014281526020018781526020018581526020018681526020015f151581526020018973ffffffffffffffffffffffffffffffffffffffff1681526020015f151581526020015f151581526020015f151581526020015f81526020015f81525090508060085f60065481526020019081526020015f205f820151815f015560208201518160010155604082015181600201556060820151816003019081612116919061566e565b50608082015181600401908161212c919061566e565b5060a0820151816005015f6101000a81548160ff02191690831515021790555060c08201518160050160016101000a81548173ffffffffffffffffffffffffffffffffffffffff021916908373ffffffffffffffffffffffffffffffffffffffff16021790555060e08201518160050160156101000a81548160ff0219169083151502179055506101008201518160050160166101000a81548160ff0219169083151502179055506101208201518160050160176101000a81548160ff02191690831515021790555061014082015181600601556101608201518160070155905050600160075f60065481526020019081526020015f205f3373ffffffffffffffffffffffffffffffffffffffff1673ffffffffffffffffffffffffffffffffffffffff1681526020019081526020015f205f6101000a81548160ff02191690831515021790555060095f3373ffffffffffffffffffffffffffffffffffffffff1673ffffffffffffffffffffffffffffffffffffffff1681526020019081526020015f20600654908060018154018082558091505060019003905f5260205f20015f9091909190915055600b5f8973ffffffffffffffffffffffffffffffffffffffff1673ffffffffffffffffffffffffffffffffffffffff1681526020019081526020015f20600654908060018154018082558091505060019003905f5260205f20015f90919091909150557ff00d28232b285f24f2e38415deb2ceb31069e70d4505838b3911b4f02058502e60065460405161236b9190614cf2565b60405180910390a16006549250505095945050505050565b5f8073ffffffffffffffffffffffffffffffffffffffff168273ffffffffffffffffffffffffffffffffffffffff16036123f4575f6040517f89c62b640000000000000000000000000000000000000000000000000000000081526004016123eb91906147ae565b60405180910390fd5b60035f8373ffffffffffffffffffffffffffffffffffffffff1673ffffffffffffffffffffffffffffffffffffffff1681526020019081526020015f20549050919050565b3073ffffffffffffffffffffffffffffffffffffffff16636352211e826040518263ffffffff1660e01b81526004016124729190614cf2565b602060405180830381865afa9250505080156124ac57506040513d601f19601f820116820180604052508101906124a99190614f26565b60015b6124eb576040517f08c379a00000000000000000000000000000000000000000000000000000000081526004016124e2906151ea565b60405180910390fd5b5060085f8281526020019081526020015f206005015f9054906101000a900460ff1661254c576040517f08c379a000000000000000000000000000000000000000000000000000000000815260040161254390615348565b60405180910390fd5b60085f8281526020019081526020015f2060050160179054906101000a900460ff166125ad576040517f08c379a00000000000000000000000000000000000000000000000000000000081526004016125a4906158a3565b60405180910390fd5b5f15156125b982612c1e565b1515146125fb576040517f08c379a00000000000000000000000000000000000000000000000000000000081526004016125f290615418565b60405180910390fd5b60085f8281526020019081526020015f20600601544261261b919061549e565b60085f8381526020019081526020015f20600701819055505f60085f8381526020019081526020015f20600601819055505f60085f8381526020019081526020015f2060050160176101000a81548160ff02191690831515021790555050565b606060095f8373ffffffffffffffffffffffffffffffffffffffff1673ffffffffffffffffffffffffffffffffffffffff1681526020019081526020015f2080548060200260200160405190810160405280929190818152602001828054801561270257602002820191905f5260205f20905b8154815260200190600101908083116126ee575b50505050509050919050565b5f60085f8381526020019081526020015f206005015f9054906101000a900460ff169050919050565b3073ffffffffffffffffffffffffffffffffffffffff16636352211e826040518263ffffffff1660e01b81526004016127709190614cf2565b602060405180830381865afa9250505080156127aa57506040513d601f19601f820116820180604052508101906127a79190614f26565b60015b6127e9576040517f08c379a00000000000000000000000000000000000000000000000000000000081526004016127e0906151ea565b60405180910390fd5b505f151560075f8381526020019081526020015f205f3373ffffffffffffffffffffffffffffffffffffffff1673ffffffffffffffffffffffffffffffffffffffff1681526020019081526020015f205f9054906101000a900460ff16151514612888576040517f08c379a000000000000000000000000000000000000000000000000000000000815260040161287f90615931565b60405180910390fd5b60085f8281526020019081526020015f2060050160019054906101000a900473ffffffffffffffffffffffffffffffffffffffff1673ffffffffffffffffffffffffffffffffffffffff163373ffffffffffffffffffffffffffffffffffffffff161461292a576040517f08c379a0000000000000000000000000000000000000000000000000000000008152600401612921906159bf565b60405180910390fd5b60085f8281526020019081526020015f206005015f9054906101000a900460ff161561298b576040517f08c379a000000000000000000000000000000000000000000000000000000000815260040161298290615252565b60405180910390fd5b5f151560085f8381526020019081526020015f2060050160159054906101000a900460ff161515146129f2576040517f08c379a00000000000000000000000000000000000000000000000000000000081526004016129e990615a27565b60405180910390fd5b5f15156129fe82612c1e565b151514612a40576040517f08c379a0000000000000000000000000000000000000000000000000000000008152600401612a3790615418565b60405180910390fd5b600160085f8381526020019081526020015f206005015f6101000a81548160ff0219169083151502179055503360085f8381526020019081526020015f2060050160016101000a81548173ffffffffffffffffffffffffffffffffffffffff021916908373ffffffffffffffffffffffffffffffffffffffff160217905550600a5f3373ffffffffffffffffffffffffffffffffffffffff1673ffffffffffffffffffffffffffffffffffffffff1681526020019081526020015f2081908060018154018082558091505060019003905f5260205f20015f9091909190915055807fcd3b1fcca80f9caae633c3e13546995d3810e561957af92839f070c46571942c33604051612b5091906147ae565b60405180910390a250565b606060018054612b6a9061500c565b80601f0160208091040260200160405190810160405280929190818152602001828054612b969061500c565b8015612be15780601f10612bb857610100808354040283529160200191612be1565b820191905f5260205f20905b815481529060010190602001808311612bc457829003601f168201915b5050505050905090565b612bfd612bf66136a5565b8383613c74565b5050565b612c0c848484610faf565b612c1884848484613ddd565b50505050565b5f6001151560085f8481526020019081526020015f2060050160159054906101000a900460ff16151503612c555760019050612cbc565b60085f8381526020019081526020015f206007015460085f8481526020019081526020015f206002015460085f8581526020019081526020015f2060010154612c9e9190615a45565b612ca89190615a45565b421115612cb85760019050612cbc565b5f90505b919050565b3073ffffffffffffffffffffffffffffffffffffffff16636352211e826040518263ffffffff1660e01b8152600401612cfa9190614cf2565b602060405180830381865afa925050508015612d3457506040513d601f19601f82011682018060405250810190612d319190614f26565b60015b612d73576040517f08c379a0000000000000000000000000000000000000000000000000000000008152600401612d6a906151ea565b60405180910390fd5b5060085f8281526020019081526020015f206005015f9054906101000a900460ff16612dd4576040517f08c379a0000000000000000000000000000000000000000000000000000000008152600401612dcb90615348565b60405180910390fd5b5f1515612de082612c1e565b151514612e22576040517f08c379a0000000000000000000000000000000000000000000000000000000008152600401612e1990615418565b60405180910390fd5b60085f8281526020019081526020015f2060050160179054906101000a900460ff1615612e84576040517f08c379a0000000000000000000000000000000000000000000000000000000008152600401612e7b90615ac2565b60405180910390fd5b600160085f8381526020019081526020015f2060050160176101000a81548160ff0219169083151502179055504260085f8381526020019081526020015f206006018190555050565b6060612ed8826135e6565b505f612ee2613f8f565b90505f815111612f005760405180602001604052805f815250612f2b565b80612f0a84613fa5565b604051602001612f1b929190615b1a565b6040516020818303038152906040525b915050919050565b6060600a5f8373ffffffffffffffffffffffffffffffffffffffff1673ffffffffffffffffffffffffffffffffffffffff1681526020019081526020015f20805480602002602001604051908101604052809291908181526020018280548015612fba57602002820191905f5260205f20905b815481526020019060010190808311612fa6575b50505050509050919050565b3073ffffffffffffffffffffffffffffffffffffffff16636352211e826040518263ffffffff1660e01b8152600401612fff9190614cf2565b602060405180830381865afa92505050801561303957506040513d601f19601f820116820180604052508101906130369190614f26565b60015b613078576040517f08c379a000000000000000000000000000000000000000000000000000000000815260040161306f906151ea565b60405180910390fd5b5060085f8281526020019081526020015f206005015f9054906101000a900460ff166130d9576040517f08c379a00000000000000000000000000000000000000000000000000000000081526004016130d090615348565b60405180910390fd5b5f151560085f8381526020019081526020015f2060050160169054906101000a900460ff16151514613140576040517f08c379a000000000000000000000000000000000000000000000000000000000815260040161313790615b87565b60405180910390fd5b6001151560075f8381526020019081526020015f205f3373ffffffffffffffffffffffffffffffffffffffff1673ffffffffffffffffffffffffffffffffffffffff1681526020019081526020015f205f9054906101000a900460ff161515146131df576040517f08c379a00000000000000000000000000000000000000000000000000000000081526004016131d690615c15565b60405180910390fd5b600115156131ec82612c1e565b15151461322e576040517f08c379a000000000000000000000000000000000000000000000000000000000815260040161322590615c7d565b60405180910390fd5b5f151560085f8381526020019081526020015f2060050160179054906101000a900460ff16151514613295576040517f08c379a000000000000000000000000000000000000000000000000000000000815260040161328c90615ce5565b60405180910390fd5b5f60085f8381526020019081526020015f2060050160019054906101000a900473ffffffffffffffffffffffffffffffffffffffff1690505f60085f8481526020019081526020015f205f015490508173ffffffffffffffffffffffffffffffffffffffff166108fc8290811502906040515f60405180830381858888f19350505050158015613327573d5f803e3d5ffd5b50600160085f8581526020019081526020015f2060050160166101000a81548160ff021916908315150217905550827f2b52860c5e15aa76ac91d132433549dfe5214c66e36bdb998622ab221c7477c0826040516133859190614cf2565b60405180910390a2505050565b5f60055f8473ffffffffffffffffffffffffffffffffffffffff1673ffffffffffffffffffffffffffffffffffffffff1681526020019081526020015f205f8373ffffffffffffffffffffffffffffffffffffffff1673ffffffffffffffffffffffffffffffffffffffff1681526020019081526020015f205f9054906101000a900460ff16905092915050565b600c602052805f5260405f205f91509050805f01805461343f9061500c565b80601f016020809104026020016040519081016040528092919081815260200182805461346b9061500c565b80156134b65780601f1061348d576101008083540402835291602001916134b6565b820191905f5260205f20905b81548152906001019060200180831161349957829003601f168201915b5050505050908060010154908060020154908060030180546134d79061500c565b80601f01602080910402602001604051908101604052809291908181526020018280546135039061500c565b801561354e5780601f106135255761010080835404028352916020019161354e565b820191905f5260205f20905b81548152906001019060200180831161353157829003601f168201915b505050505090806004015f9054906101000a900460ff16908060040160019054906101000a900460ff16905086565b5f7f01ffc9a7000000000000000000000000000000000000000000000000000000007bffffffffffffffffffffffffffffffffffffffffffffffffffffffff1916827bffffffffffffffffffffffffffffffffffffffffffffffffffffffff1916149050919050565b5f806135f18361406f565b90505f73ffffffffffffffffffffffffffffffffffffffff168173ffffffffffffffffffffffffffffffffffffffff160361366357826040517f7e27328900000000000000000000000000000000000000000000000000000000815260040161365a9190614cf2565b60405180910390fd5b80915050919050565b5f60045f8381526020019081526020015f205f9054906101000a900473ffffffffffffffffffffffffffffffffffffffff169050919050565b5f33905090565b6136b983838360016140a8565b505050565b5f806136c98461406f565b90505f73ffffffffffffffffffffffffffffffffffffffff168373ffffffffffffffffffffffffffffffffffffffff161461370a57613709818486614267565b5b5f73ffffffffffffffffffffffffffffffffffffffff168173ffffffffffffffffffffffffffffffffffffffff1614613795576137495f855f806140a8565b600160035f8373ffffffffffffffffffffffffffffffffffffffff1673ffffffffffffffffffffffffffffffffffffffff1681526020019081526020015f205f82825403925050819055505b5f73ffffffffffffffffffffffffffffffffffffffff168573ffffffffffffffffffffffffffffffffffffffff161461381457600160035f8773ffffffffffffffffffffffffffffffffffffffff1673ffffffffffffffffffffffffffffffffffffffff1681526020019081526020015f205f82825401925050819055505b8460025f8681526020019081526020015f205f6101000a81548173ffffffffffffffffffffffffffffffffffffffff021916908373ffffffffffffffffffffffffffffffffffffffff160217905550838573ffffffffffffffffffffffffffffffffffffffff168273ffffffffffffffffffffffffffffffffffffffff167fddf252ad1be2c89b69c2b068fc378daa952ba7f163c4a11628f55a4df523b3ef60405160405180910390a4809150509392505050565b5f80600160095f8573ffffffffffffffffffffffffffffffffffffffff1673ffffffffffffffffffffffffffffffffffffffff1681526020019081526020015f2080549050613918919061549e565b90505f5b60095f8573ffffffffffffffffffffffffffffffffffffffff1673ffffffffffffffffffffffffffffffffffffffff1681526020019081526020015f20805490508110156139dd578460095f8673ffffffffffffffffffffffffffffffffffffffff1673ffffffffffffffffffffffffffffffffffffffff1681526020019081526020015f2082815481106139b4576139b361503c565b5b905f5260205f200154036139ca578092506139dd565b80806139d590615096565b91505061391c565b50808214613a995760095f8473ffffffffffffffffffffffffffffffffffffffff1673ffffffffffffffffffffffffffffffffffffffff1681526020019081526020015f208181548110613a3457613a3361503c565b5b905f5260205f20015460095f8573ffffffffffffffffffffffffffffffffffffffff1673ffffffffffffffffffffffffffffffffffffffff1681526020019081526020015f208381548110613a8c57613a8b61503c565b5b905f5260205f2001819055505b60095f8473ffffffffffffffffffffffffffffffffffffffff1673ffffffffffffffffffffffffffffffffffffffff1681526020019081526020015f20805480613ae657613ae5615d03565b5b600190038181905f5260205f20015f9055905550505050565b5f613b0b5f835f6136be565b90505f73ffffffffffffffffffffffffffffffffffffffff168173ffffffffffffffffffffffffffffffffffffffff1603613b7d57816040517f7e273289000000000000000000000000000000000000000000000000000000008152600401613b749190614cf2565b60405180910390fd5b5050565b5f73ffffffffffffffffffffffffffffffffffffffff168273ffffffffffffffffffffffffffffffffffffffff1603613bf1575f6040517f64a0ae92000000000000000000000000000000000000000000000000000000008152600401613be891906147ae565b60405180910390fd5b5f613bfd83835f6136be565b90505f73ffffffffffffffffffffffffffffffffffffffff168173ffffffffffffffffffffffffffffffffffffffff1614613c6f575f6040517f73c6ac6e000000000000000000000000000000000000000000000000000000008152600401613c6691906147ae565b60405180910390fd5b505050565b5f73ffffffffffffffffffffffffffffffffffffffff168273ffffffffffffffffffffffffffffffffffffffff1603613ce457816040517f5b08ba18000000000000000000000000000000000000000000000000000000008152600401613cdb91906147ae565b60405180910390fd5b8060055f8573ffffffffffffffffffffffffffffffffffffffff1673ffffffffffffffffffffffffffffffffffffffff1681526020019081526020015f205f8473ffffffffffffffffffffffffffffffffffffffff1673ffffffffffffffffffffffffffffffffffffffff1681526020019081526020015f205f6101000a81548160ff0219169083151502179055508173ffffffffffffffffffffffffffffffffffffffff168373ffffffffffffffffffffffffffffffffffffffff167f17307eab39ab6107e8899845ad3d59bd9653f200f220920489ca2b5937696c3183604051613dd091906145c4565b60405180910390a3505050565b5f8373ffffffffffffffffffffffffffffffffffffffff163b1115613f89578273ffffffffffffffffffffffffffffffffffffffff1663150b7a02613e206136a5565b8685856040518563ffffffff1660e01b8152600401613e429493929190615d82565b6020604051808303815f875af1925050508015613e7d57506040513d601f19601f82011682018060405250810190613e7a9190615de0565b60015b613efe573d805f8114613eab576040519150601f19603f3d011682016040523d82523d5f602084013e613eb0565b606091505b505f815103613ef657836040517f64a0ae92000000000000000000000000000000000000000000000000000000008152600401613eed91906147ae565b60405180910390fd5b805181602001fd5b63150b7a0260e01b7bffffffffffffffffffffffffffffffffffffffffffffffffffffffff1916817bffffffffffffffffffffffffffffffffffffffffffffffffffffffff191614613f8757836040517f64a0ae92000000000000000000000000000000000000000000000000000000008152600401613f7e91906147ae565b60405180910390fd5b505b50505050565b606060405180602001604052805f815250905090565b60605f6001613fb38461432a565b0190505f8167ffffffffffffffff811115613fd157613fd0614a34565b5b6040519080825280601f01601f1916602001820160405280156140035781602001600182028036833780820191505090505b5090505f82602001820190505b600115614064578080600190039150507f3031323334353637383961626364656600000000000000000000000000000000600a86061a8153600a858161405957614058615e0b565b5b0494505f8503614010575b819350505050919050565b5f60025f8381526020019081526020015f205f9054906101000a900473ffffffffffffffffffffffffffffffffffffffff169050919050565b80806140e057505f73ffffffffffffffffffffffffffffffffffffffff168273ffffffffffffffffffffffffffffffffffffffff1614155b15614212575f6140ef846135e6565b90505f73ffffffffffffffffffffffffffffffffffffffff168373ffffffffffffffffffffffffffffffffffffffff161415801561415957508273ffffffffffffffffffffffffffffffffffffffff168173ffffffffffffffffffffffffffffffffffffffff1614155b801561416c575061416a8184613392565b155b156141ae57826040517fa9fbf51f0000000000000000000000000000000000000000000000000000000081526004016141a591906147ae565b60405180910390fd5b811561421057838573ffffffffffffffffffffffffffffffffffffffff168273ffffffffffffffffffffffffffffffffffffffff167f8c5be1e5ebec7d5bd14f71427d1e84f3dd0314c0f7b2291e5b200ac8c7c3b92560405160405180910390a45b505b8360045f8581526020019081526020015f205f6101000a81548173ffffffffffffffffffffffffffffffffffffffff021916908373ffffffffffffffffffffffffffffffffffffffff16021790555050505050565b61427283838361447b565b614325575f73ffffffffffffffffffffffffffffffffffffffff168373ffffffffffffffffffffffffffffffffffffffff16036142e657806040517f7e2732890000000000000000000000000000000000000000000000000000000081526004016142dd9190614cf2565b60405180910390fd5b81816040517f177e802f00000000000000000000000000000000000000000000000000000000815260040161431c929190615e38565b60405180910390fd5b505050565b5f805f90507a184f03e93ff9f4daa797ed6e38ed64bf6a1f0100000000000000008310614386577a184f03e93ff9f4daa797ed6e38ed64bf6a1f010000000000000000838161437c5761437b615e0b565b5b0492506040810190505b6d04ee2d6d415b85acef810000000083106143c3576d04ee2d6d415b85acef810000000083816143b9576143b8615e0b565b5b0492506020810190505b662386f26fc1000083106143f257662386f26fc1000083816143e8576143e7615e0b565b5b0492506010810190505b6305f5e100831061441b576305f5e100838161441157614410615e0b565b5b0492506008810190505b612710831061444057612710838161443657614435615e0b565b5b0492506004810190505b60648310614463576064838161445957614458615e0b565b5b0492506002810190505b600a8310614472576001810190505b80915050919050565b5f8073ffffffffffffffffffffffffffffffffffffffff168373ffffffffffffffffffffffffffffffffffffffff161415801561453257508273ffffffffffffffffffffffffffffffffffffffff168473ffffffffffffffffffffffffffffffffffffffff1614806144f357506144f28484613392565b5b8061453157508273ffffffffffffffffffffffffffffffffffffffff166145198361366c565b73ffffffffffffffffffffffffffffffffffffffff16145b5b90509392505050565b5f604051905090565b5f80fd5b5f80fd5b5f819050919050565b61455e8161454c565b8114614568575f80fd5b50565b5f8135905061457981614555565b92915050565b5f6020828403121561459457614593614544565b5b5f6145a18482850161456b565b91505092915050565b5f8115159050919050565b6145be816145aa565b82525050565b5f6020820190506145d75f8301846145b5565b92915050565b5f7fffffffff0000000000000000000000000000000000000000000000000000000082169050919050565b614611816145dd565b811461461b575f80fd5b50565b5f8135905061462c81614608565b92915050565b5f6020828403121561464757614646614544565b5b5f6146548482850161461e565b91505092915050565b5f73ffffffffffffffffffffffffffffffffffffffff82169050919050565b5f6146868261465d565b9050919050565b6146968161467c565b81146146a0575f80fd5b50565b5f813590506146b18161468d565b92915050565b5f80604083850312156146cd576146cc614544565b5b5f6146da8582860161456b565b92505060206146eb858286016146a3565b9150509250929050565b5f81519050919050565b5f82825260208201905092915050565b5f5b8381101561472c578082015181840152602081019050614711565b5f8484015250505050565b5f601f19601f8301169050919050565b5f614751826146f5565b61475b81856146ff565b935061476b81856020860161470f565b61477481614737565b840191505092915050565b5f6020820190508181035f8301526147978184614747565b905092915050565b6147a88161467c565b82525050565b5f6020820190506147c15f83018461479f565b92915050565b5f80604083850312156147dd576147dc614544565b5b5f6147ea858286016146a3565b92505060206147fb8582860161456b565b9150509250929050565b5f6020828403121561481a57614819614544565b5b5f614827848285016146a3565b91505092915050565b5f81519050919050565b5f82825260208201905092915050565b5f819050602082019050919050565b6148628161454c565b82525050565b5f6148738383614859565b60208301905092915050565b5f602082019050919050565b5f61489582614830565b61489f818561483a565b93506148aa8361484a565b805f5b838110156148da5781516148c18882614868565b97506148cc8361487f565b9250506001810190506148ad565b5085935050505092915050565b5f6020820190508181035f8301526148ff818461488b565b905092915050565b5f805f6060848603121561491e5761491d614544565b5b5f61492b868287016146a3565b935050602061493c868287016146a3565b925050604061494d8682870161456b565b9150509250925092565b6149608161454c565b82525050565b5f6101808201905061497a5f83018f614957565b614987602083018e614957565b614994604083018d614957565b81810360608301526149a6818c614747565b905081810360808301526149ba818b614747565b90506149c960a083018a6145b5565b6149d660c083018961479f565b6149e360e08301886145b5565b6149f16101008301876145b5565b6149ff6101208301866145b5565b614a0d610140830185614957565b614a1b610160830184614957565b9d9c50505050505050505050505050565b5f80fd5b5f80fd5b7f4e487b71000000000000000000000000000000000000000000000000000000005f52604160045260245ffd5b614a6a82614737565b810181811067ffffffffffffffff82111715614a8957614a88614a34565b5b80604052505050565b5f614a9b61453b565b9050614aa78282614a61565b919050565b5f67ffffffffffffffff821115614ac657614ac5614a34565b5b614acf82614737565b9050602081019050919050565b828183375f83830152505050565b5f614afc614af784614aac565b614a92565b905082815260208101848484011115614b1857614b17614a30565b5b614b23848285614adc565b509392505050565b5f82601f830112614b3f57614b3e614a2c565b5b8135614b4f848260208601614aea565b91505092915050565b614b61816145aa565b8114614b6b575f80fd5b50565b5f81359050614b7c81614b58565b92915050565b5f805f805f8060c08789031215614b9c57614b9b614544565b5b5f614ba989828a0161456b565b965050602087013567ffffffffffffffff811115614bca57614bc9614548565b5b614bd689828a01614b2b565b9550506040614be789828a0161456b565b9450506060614bf889828a0161456b565b935050608087013567ffffffffffffffff811115614c1957614c18614548565b5b614c2589828a01614b2b565b92505060a0614c3689828a01614b6e565b9150509295509295509295565b5f805f805f60a08688031215614c5c57614c5b614544565b5b5f614c69888289016146a3565b9550506020614c7a8882890161456b565b9450506040614c8b8882890161456b565b935050606086013567ffffffffffffffff811115614cac57614cab614548565b5b614cb888828901614b2b565b925050608086013567ffffffffffffffff811115614cd957614cd8614548565b5b614ce588828901614b2b565b9150509295509295909350565b5f602082019050614d055f830184614957565b92915050565b5f8060408385031215614d2157614d20614544565b5b5f614d2e858286016146a3565b9250506020614d3f85828601614b6e565b9150509250929050565b5f67ffffffffffffffff821115614d6357614d62614a34565b5b614d6c82614737565b9050602081019050919050565b5f614d8b614d8684614d49565b614a92565b905082815260208101848484011115614da757614da6614a30565b5b614db2848285614adc565b509392505050565b5f82601f830112614dce57614dcd614a2c565b5b8135614dde848260208601614d79565b91505092915050565b5f805f8060808587031215614dff57614dfe614544565b5b5f614e0c878288016146a3565b9450506020614e1d878288016146a3565b9350506040614e2e8782880161456b565b925050606085013567ffffffffffffffff811115614e4f57614e4e614548565b5b614e5b87828801614dba565b91505092959194509250565b5f8060408385031215614e7d57614e7c614544565b5b5f614e8a858286016146a3565b9250506020614e9b858286016146a3565b9150509250929050565b5f60c0820190508181035f830152614ebd8189614747565b9050614ecc6020830188614957565b614ed96040830187614957565b8181036060830152614eeb8186614747565b9050614efa60808301856145b5565b614f0760a08301846145b5565b979650505050505050565b5f81519050614f208161468d565b92915050565b5f60208284031215614f3b57614f3a614544565b5b5f614f4884828501614f12565b91505092915050565b7f536f6c6f20756e206d616e61676572206465206573746520636f6e747261746f5f8201527f207075656465207265766f636172206f74726f206d616e616765720000000000602082015250565b5f614fab603b836146ff565b9150614fb682614f51565b604082019050919050565b5f6020820190508181035f830152614fd881614f9f565b9050919050565b7f4e487b71000000000000000000000000000000000000000000000000000000005f52602260045260245ffd5b5f600282049050600182168061502357607f821691505b60208210810361503657615035614fdf565b5b50919050565b7f4e487b71000000000000000000000000000000000000000000000000000000005f52603260045260245ffd5b7f4e487b71000000000000000000000000000000000000000000000000000000005f52601160045260245ffd5b5f6150a08261454c565b91507fffffffffffffffffffffffffffffffffffffffffffffffffffffffffffffffff82036150d2576150d1615069565b5b600182019050919050565b7f536f6c6f20756e206d616e61676572206465206573746520636f6e747261746f5f8201527f20707565646520617369676e6172206f74726f206d616e616765720000000000602082015250565b5f615137603b836146ff565b9150615142826150dd565b604082019050919050565b5f6020820190508181035f8301526151648161512b565b9050919050565b5f60608201905061517e5f83018661479f565b61518b6020830185614957565b615198604083018461479f565b949350505050565b7f456c20746f6b656e206e6f206578697374652e000000000000000000000000005f82015250565b5f6151d46013836146ff565b91506151df826151a0565b602082019050919050565b5f6020820190508181035f830152615201816151c8565b9050919050565b7f456c20636f6e747261746f207961206861207369646f206669726d61646f00005f82015250565b5f61523c601e836146ff565b915061524782615208565b602082019050919050565b5f6020820190508181035f83015261526981615230565b9050919050565b7f536f6c6f20756e206d616e616765722070756564652066696e616c697a6172205f8201527f756e20636f6e747261746f000000000000000000000000000000000000000000602082015250565b5f6152ca602b836146ff565b91506152d582615270565b604082019050919050565b5f6020820190508181035f8301526152f7816152be565b9050919050565b7f456c20636f6e747261746f206e6f206861207369646f206669726d61646f00005f82015250565b5f615332601e836146ff565b915061533d826152fe565b602082019050919050565b5f6020820190508181035f83015261535f81615326565b9050919050565b7f456c20636f6e747261746f2079612068612066696e616c697a61646f000000005f82015250565b5f61539a601c836146ff565b91506153a582615366565b602082019050919050565b5f6020820190508181035f8301526153c78161538e565b9050919050565b7f456c20636f6e747261746f20686120657870697261646f0000000000000000005f82015250565b5f6154026017836146ff565b915061540d826153ce565b602082019050919050565b5f6020820190508181035f83015261542f816153f6565b9050919050565b7f4e6f206861792063616d62696f732070726f70756573746f73000000000000005f82015250565b5f61546a6019836146ff565b915061547582615436565b602082019050919050565b5f6020820190508181035f8301526154978161545e565b9050919050565b5f6154a88261454c565b91506154b38361454c565b92508282039050818111156154cb576154ca615069565b5b92915050565b5f819050815f5260205f209050919050565b5f6020601f8301049050919050565b5f82821b905092915050565b5f6008830261552d7fffffffffffffffffffffffffffffffffffffffffffffffffffffffffffffffff826154f2565b61553786836154f2565b95508019841693508086168417925050509392505050565b5f819050919050565b5f61557261556d6155688461454c565b61554f565b61454c565b9050919050565b5f819050919050565b61558b83615558565b61559f61559782615579565b8484546154fe565b825550505050565b5f90565b6155b36155a7565b6155be818484615582565b505050565b5b818110156155e1576155d65f826155ab565b6001810190506155c4565b5050565b601f821115615626576155f7816154d1565b615600846154e3565b8101602085101561560f578190505b61562361561b856154e3565b8301826155c3565b50505b505050565b5f82821c905092915050565b5f6156465f198460080261562b565b1980831691505092915050565b5f61565e8383615637565b9150826002028217905092915050565b615677826146f5565b67ffffffffffffffff8111156156905761568f614a34565b5b61569a825461500c565b6156a58282856155e5565b5f60209050601f8311600181146156d6575f84156156c4578287015190505b6156ce8582615653565b865550615735565b601f1984166156e4866154d1565b5f5b8281101561570b578489015182556001820191506020850194506020810190506156e6565b868310156157285784890151615724601f891682615637565b8355505b6001600288020188555050505b505050505050565b7f466f6e646f7320696e737566696369656e7465732070617261206375627269725f8201527f20656c20696e6372656d656e746f2064656c2073616c6172696f000000000000602082015250565b5f615797603a836146ff565b91506157a28261573d565b604082019050919050565b5f6020820190508181035f8301526157c48161578b565b9050919050565b7f4465646520656e7669617220656c2073616c6172696f20636f6d6f2076616c6f5f8201527f722064656c20636f6e747261746f000000000000000000000000000000000000602082015250565b5f615825602e836146ff565b9150615830826157cb565b604082019050919050565b5f6020820190508181035f83015261585281615819565b9050919050565b7f456c20636f6e747261746f206e6f2065737461207061757361646f00000000005f82015250565b5f61588d601b836146ff565b915061589882615859565b602082019050919050565b5f6020820190508181035f8301526158ba81615881565b9050919050565b7f4e6f20707565646573206669726d61722074752070726f70696f20636f6e74725f8201527f61746f0000000000000000000000000000000000000000000000000000000000602082015250565b5f61591b6023836146ff565b9150615926826158c1565b604082019050919050565b5f6020820190508181035f8301526159488161590f565b9050919050565b7f536f6c6f20656c2074726162616a61646f72207075656465206669726d6172205f8201527f656c20636f6e747261746f000000000000000000000000000000000000000000602082015250565b5f6159a9602b836146ff565b91506159b48261594f565b604082019050919050565b5f6020820190508181035f8301526159d68161599d565b9050919050565b7f456c20636f6e747261746f2068612066696e616c697a61646f000000000000005f82015250565b5f615a116019836146ff565b9150615a1c826159dd565b602082019050919050565b5f6020820190508181035f830152615a3e81615a05565b9050919050565b5f615a4f8261454c565b9150615a5a8361454c565b9250828201905080821115615a7257615a71615069565b5b92915050565b7f456c20636f6e747261746f2079612065737461207061757361646f00000000005f82015250565b5f615aac601b836146ff565b9150615ab782615a78565b602082019050919050565b5f6020820190508181035f830152615ad981615aa0565b9050919050565b5f81905092915050565b5f615af4826146f5565b615afe8185615ae0565b9350615b0e81856020860161470f565b80840191505092915050565b5f615b258285615aea565b9150615b318284615aea565b91508190509392505050565b7f456c2073616c6172696f207961206861207369646f206c6962657261646f00005f82015250565b5f615b71601e836146ff565b9150615b7c82615b3d565b602082019050919050565b5f6020820190508181035f830152615b9e81615b65565b9050919050565b7f536f6c6f20756e206d616e61676572207075656465206c69626572617220656c5f8201527f2073616c6172696f000000000000000000000000000000000000000000000000602082015250565b5f615bff6028836146ff565b9150615c0a82615ba5565b604082019050919050565b5f6020820190508181035f830152615c2c81615bf3565b9050919050565b7f456c20636f6e747261746f206e6f20686120657870697261646f0000000000005f82015250565b5f615c67601a836146ff565b9150615c7282615c33565b602082019050919050565b5f6020820190508181035f830152615c9481615c5b565b9050919050565b7f456c20636f6e747261746f2065737461207061757361646f00000000000000005f82015250565b5f615ccf6018836146ff565b9150615cda82615c9b565b602082019050919050565b5f6020820190508181035f830152615cfc81615cc3565b9050919050565b7f4e487b71000000000000000000000000000000000000000000000000000000005f52603160045260245ffd5b5f81519050919050565b5f82825260208201905092915050565b5f615d5482615d30565b615d5e8185615d3a565b9350615d6e81856020860161470f565b615d7781614737565b840191505092915050565b5f608082019050615d955f83018761479f565b615da2602083018661479f565b615daf6040830185614957565b8181036060830152615dc18184615d4a565b905095945050505050565b5f81519050615dda81614608565b92915050565b5f60208284031215615df557615df4614544565b5b5f615e0284828501615dcc565b91505092915050565b7f4e487b71000000000000000000000000000000000000000000000000000000005f52601260045260245ffd5b5f604082019050615e4b5f83018561479f565b615e586020830184614957565b939250505056fea2646970667358221220f3a4b1f92b8cb76a6b1672306d529a277ccd5f8c1a9dd020e7fc2db90ff36caf64736f6c63430008140033",
  "immutableReferences": {},
  "source": "// SPDX-License-Identifier: MIT\r\npragma solidity ^0.8.20;\r\n\r\nimport \"@openzeppelin/contracts/token/ERC721/ERC721.sol\";\r\n\r\ncontract MyContract is ERC721 {\r\n    uint256 tokenID;\r\n    mapping(uint256 => mapping(address => bool)) public tokenManagers;\r\n    mapping(uint256 => ContractDetails) public contractDetails;\r\n    mapping(address => uint256[]) private contractsOwner;\r\n    mapping(address => uint256[]) private activeContractsOfWorker;\r\n    mapping(address => uint256[]) private unsignedContractsOfWorker;\r\n    mapping(uint256 => ChangeProposal) public changeProposals;\r\n\r\n    struct ContractDetails {\r\n        uint256 salary;\r\n        uint256 startDate;\r\n        uint256 duration;\r\n        string title;\r\n        string description;\r\n        bool isSigned;\r\n        address worker;\r\n        bool isFinished;\r\n        bool isReleased;\r\n        bool isPaused;\r\n        uint256 pauseTime;\r\n        uint256 pauseDuration;\r\n    }\r\n\r\n    struct ChangeProposal {\r\n        string newTitle;\r\n        uint256 newSalary;\r\n        uint256 newDuration;\r\n        string newDescription;\r\n        bool isPaused;\r\n        bool isPending;\r\n    }\r\n\r\n    event ContractSigned(uint256 indexed tokenId, address worker);\r\n    event SalaryReleased(uint256 indexed tokenId, uint256 salary);\r\n    event TokenMinted(uint256 tokenId);\r\n    event ContractCancelled(uint256 indexed tokenId);\r\n    event ContractFinalized(uint256 indexed tokenId);\r\n    event Debug(\r\n        uint256 currentSalary,\r\n        uint256 newSalary,\r\n        uint256 salaryDifference,\r\n        uint256 msgValue\r\n    );\r\n\r\n    constructor() ERC721(\"MyToken\", \"MTK\") {}\r\n\r\n    function mint(\r\n        address _to,\r\n        uint256 _salary,\r\n        uint256 _duration,\r\n        string memory _description,\r\n        string memory _title\r\n    ) public payable returns (uint256) {\r\n        require(\r\n            msg.value >= _salary,\r\n            \"Dede enviar el salario como valor del contrato\"\r\n        );\r\n        tokenID++;\r\n        _mint(msg.sender, tokenID);\r\n        uint256 remainder = msg.value - _salary;\r\n        if (remainder > 0) {\r\n            payable(msg.sender).transfer(remainder);\r\n        }\r\n\r\n        ContractDetails memory newContract = ContractDetails({\r\n            salary: _salary,\r\n            startDate: block.timestamp,\r\n            duration: _duration,\r\n            title: _title,\r\n            description: _description,\r\n            isSigned: false,\r\n            worker: _to,\r\n            isFinished: false,\r\n            isReleased: false,\r\n            isPaused: false,\r\n            pauseTime: 0,\r\n            pauseDuration: 0\r\n        });\r\n\r\n        contractDetails[tokenID] = newContract;\r\n        tokenManagers[tokenID][msg.sender] = true;\r\n        contractsOwner[msg.sender].push(tokenID);\r\n        unsignedContractsOfWorker[_to].push(tokenID);\r\n        emit TokenMinted(tokenID);\r\n\r\n        return tokenID;\r\n    }\r\n\r\n    function signContract(uint256 _tokenID) public {\r\n        try this.ownerOf(_tokenID) {} catch {\r\n            revert(\"El token no existe.\"); // he intentado hacerlo con _exists pero no me ha funcionado\r\n        }\r\n        require(\r\n            tokenManagers[_tokenID][msg.sender] == false,\r\n            \"No puedes firmar tu propio contrato\"\r\n        );\r\n        require(\r\n            msg.sender == contractDetails[_tokenID].worker,\r\n            \"Solo el trabajador puede firmar el contrato\"\r\n        );\r\n        require(\r\n            !contractDetails[_tokenID].isSigned,\r\n            \"El contrato ya ha sido firmado\"\r\n        );\r\n        require(\r\n            contractDetails[_tokenID].isFinished == false,\r\n            \"El contrato ha finalizado\"\r\n        );\r\n        require(\r\n            isContractFinished(_tokenID) == false,\r\n            \"El contrato ha expirado\"\r\n        );\r\n\r\n        contractDetails[_tokenID].isSigned = true;\r\n        contractDetails[_tokenID].worker = msg.sender;\r\n        activeContractsOfWorker[msg.sender].push(_tokenID);\r\n        emit ContractSigned(_tokenID, msg.sender);\r\n    }\r\n\r\n    function releaseSalary(uint256 _tokenID) public payable {\r\n        try this.ownerOf(_tokenID) {} catch {\r\n            revert(\"El token no existe.\"); // he intentado hacerlo con _exists pero no me ha funcionado\r\n        }\r\n        require(\r\n            contractDetails[_tokenID].isSigned,\r\n            \"El contrato no ha sido firmado\"\r\n        );\r\n        require(\r\n            contractDetails[_tokenID].isReleased == false,\r\n            \"El salario ya ha sido liberado\"\r\n        );\r\n        require(\r\n            tokenManagers[_tokenID][msg.sender] == true,\r\n            \"Solo un manager puede liberar el salario\"\r\n        );\r\n        require(\r\n            isContractFinished(_tokenID) == true,\r\n            \"El contrato no ha expirado\"\r\n        );\r\n        require(\r\n            contractDetails[_tokenID].isPaused == false,\r\n            \"El contrato esta pausado\"\r\n        );\r\n\r\n        address payable worker = payable(contractDetails[_tokenID].worker);\r\n        uint256 salary = contractDetails[_tokenID].salary;\r\n        worker.transfer(salary);\r\n        contractDetails[_tokenID].isReleased = true;\r\n        emit SalaryReleased(_tokenID, salary);\r\n    }\r\n\r\n    function finalizeContract(uint256 _tokenID) public {\r\n        try this.ownerOf(_tokenID) {} catch {\r\n            revert(\"El token no existe.\"); // he intentado hacerlo con _exists pero no me ha funcionado\r\n        }\r\n        require(\r\n            tokenManagers[_tokenID][msg.sender] == true,\r\n            \"Solo un manager puede finalizar un contrato\"\r\n        );\r\n        require(\r\n            contractDetails[_tokenID].isSigned,\r\n            \"El contrato no ha sido firmado\"\r\n        );\r\n        require(\r\n            contractDetails[_tokenID].isFinished == false,\r\n            \"El contrato ya ha finalizado\"\r\n        );\r\n        require(\r\n            isContractFinished(_tokenID) == false,\r\n            \"El contrato ha expirado\"\r\n        );\r\n\r\n        contractDetails[_tokenID].isFinished = true;\r\n        emit ContractFinalized(_tokenID);\r\n    }\r\n\r\n    function pauseContract(uint256 _tokenID) public {\r\n        try this.ownerOf(_tokenID) {} catch {\r\n            revert(\"El token no existe.\"); // he intentado hacerlo con _exists pero no me ha funcionado\r\n        }\r\n        require(\r\n            contractDetails[_tokenID].isSigned,\r\n            \"El contrato no ha sido firmado\"\r\n        );\r\n        require(\r\n            isContractFinished(_tokenID) == false,\r\n            \"El contrato ha expirado\"\r\n        );\r\n        require(\r\n            !contractDetails[_tokenID].isPaused,\r\n            \"El contrato ya esta pausado\"\r\n        );\r\n\r\n        contractDetails[_tokenID].isPaused = true;\r\n        contractDetails[_tokenID].pauseTime = block.timestamp;\r\n    }\r\n\r\n    function unPauseContract(uint256 _tokenID) public {\r\n        try this.ownerOf(_tokenID) {} catch {\r\n            revert(\"El token no existe.\"); // he intentado hacerlo con _exists pero no me ha funcionado\r\n        }\r\n        require(\r\n            contractDetails[_tokenID].isSigned,\r\n            \"El contrato no ha sido firmado\"\r\n        );\r\n        require(\r\n            contractDetails[_tokenID].isPaused,\r\n            \"El contrato no esta pausado\"\r\n        );\r\n        require(\r\n            isContractFinished(_tokenID) == false,\r\n            \"El contrato ha expirado\"\r\n        );\r\n\r\n        contractDetails[_tokenID].pauseDuration =\r\n            block.timestamp -\r\n            contractDetails[_tokenID].pauseTime;\r\n\r\n        contractDetails[_tokenID].pauseTime = 0;\r\n        contractDetails[_tokenID].isPaused = false;\r\n    }\r\n\r\n    function cancelContract(uint256 _tokenID) public {\r\n        try this.ownerOf(_tokenID) {} catch {\r\n            revert(\"El token no existe.\"); // he intentado hacerlo con _exists pero no me ha funcionado\r\n        }\r\n        require(\r\n            !contractDetails[_tokenID].isSigned,\r\n            \"El contrato ya ha sido firmado\"\r\n        );\r\n\r\n        address payable owner = payable(ownerOf(_tokenID));\r\n        uint256 salary = contractDetails[_tokenID].salary;\r\n        owner.transfer(salary);\r\n        removeContractFromOwner(_tokenID, owner);\r\n        _burn(_tokenID);\r\n        emit ContractCancelled(_tokenID);\r\n    }\r\n\r\n    function removeContractFromOwner(\r\n        uint256 _tokenId,\r\n        address _owner\r\n    ) internal {\r\n        uint256 contractIndex;\r\n        uint256 lastContractIndex = contractsOwner[_owner].length - 1;\r\n\r\n        for (uint i = 0; i < contractsOwner[_owner].length; i++) {\r\n            if (contractsOwner[_owner][i] == _tokenId) {\r\n                contractIndex = i;\r\n                break;\r\n            }\r\n        }\r\n\r\n        if (contractIndex != lastContractIndex) {\r\n            contractsOwner[_owner][contractIndex] = contractsOwner[_owner][\r\n                lastContractIndex\r\n            ];\r\n        }\r\n        contractsOwner[_owner].pop();\r\n    }\r\n\r\n    function assignManagerToToken(\r\n        uint256 _tokenId,\r\n        address _newManager\r\n    ) public {\r\n        require(\r\n            tokenManagers[_tokenId][msg.sender],\r\n            \"Solo un manager de este contrato puede asignar otro manager\"\r\n        );\r\n        tokenManagers[_tokenId][_newManager] = true;\r\n        contractsOwner[_newManager].push(tokenID);\r\n    }\r\n\r\n    function revokeManagerFromToken(uint256 _tokenId, address _manager) public {\r\n        require(\r\n            tokenManagers[_tokenId][msg.sender],\r\n            \"Solo un manager de este contrato puede revocar otro manager\"\r\n        );\r\n        tokenManagers[_tokenId][_manager] = false;\r\n    }\r\n\r\n    function isManagerOfToken(\r\n        uint256 _tokenId,\r\n        address _manager\r\n    ) public view returns (bool) {\r\n        return tokenManagers[_tokenId][_manager];\r\n    }\r\n\r\n    //funcion para proponer un cambio en un contrato\r\n    function proposeChange(\r\n        uint256 _tokenID,\r\n        string memory _newTitle,\r\n        uint256 _newSalary,\r\n        uint256 _newDuration,\r\n        string memory _newDescription,\r\n        bool _isPaused\r\n    ) public payable {\r\n        uint256 currentSalary = contractDetails[_tokenID].salary;\r\n        if (_newSalary > currentSalary) {\r\n            uint256 salaryDifference = _newSalary - currentSalary;\r\n            require(\r\n                msg.value >= salaryDifference,\r\n                \"Fondos insuficientes para cubrir el incremento del salario\"\r\n            );\r\n\r\n            uint256 excessAmount = msg.value - salaryDifference;\r\n            if (excessAmount > 0) {\r\n                payable(msg.sender).transfer(excessAmount);\r\n            }\r\n        }\r\n\r\n        changeProposals[_tokenID] = ChangeProposal({\r\n            newTitle: _newTitle,\r\n            newSalary: _newSalary,\r\n            newDuration: _newDuration,\r\n            newDescription: _newDescription,\r\n            isPaused: _isPaused,\r\n            isPending: true\r\n        });\r\n    }\r\n\r\n    //funcion para rechazar un cambio propuesto\r\n    function rejectChange(uint256 _tokenID) public {\r\n        require(\r\n            changeProposals[_tokenID].isPending == true,\r\n            \"No hay cambios propuestos\"\r\n        );\r\n        ChangeProposal memory proposedChange = changeProposals[_tokenID];\r\n\r\n        if (proposedChange.newSalary > contractDetails[_tokenID].salary) {\r\n            uint256 salaryDifference = proposedChange.newSalary -\r\n                contractDetails[_tokenID].salary;\r\n            address owner = ownerOf(_tokenID);\r\n            payable(owner).transfer(salaryDifference);\r\n        }\r\n\r\n        changeProposals[_tokenID].isPending = false;\r\n    }\r\n\r\n    //Funcion para modificar un contrato que no haya sido firmado\r\n    function applyChange(uint256 _tokenID) public payable {\r\n        require(\r\n            changeProposals[_tokenID].isPending == true,\r\n            \"No hay cambios propuestos\"\r\n        );\r\n        ChangeProposal memory proposedChange = changeProposals[_tokenID];\r\n\r\n        if (proposedChange.newSalary < contractDetails[_tokenID].salary) {\r\n            uint256 refundAmount = contractDetails[_tokenID].salary -\r\n                proposedChange.newSalary;\r\n            address owner = ownerOf(_tokenID);\r\n            payable(owner).transfer(refundAmount);\r\n        }\r\n\r\n        contractDetails[_tokenID].title = proposedChange.newTitle;\r\n        contractDetails[_tokenID].salary = proposedChange.newSalary;\r\n        contractDetails[_tokenID].duration = proposedChange.newDuration;\r\n        contractDetails[_tokenID].description = proposedChange.newDescription;\r\n\r\n        if (proposedChange.isPaused != contractDetails[_tokenID].isPaused) {\r\n            if (proposedChange.isPaused) {\r\n                pauseContract(_tokenID);\r\n            } else {\r\n                unPauseContract(_tokenID);\r\n            }\r\n        }\r\n\r\n        changeProposals[_tokenID].isPending = false;\r\n    }\r\n\r\n    function getContractsFromOwner(\r\n        address _address\r\n    ) public view returns (uint256[] memory) {\r\n        return contractsOwner[_address];\r\n    }\r\n\r\n    function getContractsOfWorker(\r\n        address _address\r\n    ) public view returns (uint256[] memory) {\r\n        return activeContractsOfWorker[_address];\r\n    }\r\n\r\n    function getUnsignedContractsOfWorker(\r\n        address worker\r\n    ) public view returns (uint256[] memory) {\r\n        uint256 totalContracts = unsignedContractsOfWorker[worker].length;\r\n        uint256[] memory tempContracts = new uint256[](totalContracts);\r\n        uint256 count = 0;\r\n\r\n        for (uint256 i = 0; i < totalContracts; i++) {\r\n            uint256 contractId = unsignedContractsOfWorker[worker][i];\r\n\r\n            if (\r\n                !contractDetails[contractId].isSigned && tokenExists(contractId)\r\n            ) {\r\n                tempContracts[count] = contractId;\r\n                count++;\r\n            }\r\n        }\r\n\r\n        uint256[] memory result = new uint256[](count);\r\n        for (uint256 j = 0; j < count; j++) {\r\n            result[j] = tempContracts[j];\r\n        }\r\n\r\n        return result;\r\n    }\r\n\r\n    function tokenExists(uint256 _tokenId) public view returns (bool) {\r\n        try this.ownerOf(_tokenId) {\r\n            return true;\r\n        } catch {\r\n            return false;\r\n        }\r\n    }\r\n\r\n    function isContractFinished(uint256 _tokenID) public view returns (bool) {\r\n        if (contractDetails[_tokenID].isFinished == true) {\r\n            return true;\r\n        }\r\n\r\n        if (\r\n            block.timestamp >\r\n            contractDetails[_tokenID].startDate +\r\n                contractDetails[_tokenID].duration +\r\n                contractDetails[_tokenID].pauseDuration\r\n        ) {\r\n            return true;\r\n        }\r\n\r\n        return false;\r\n    }\r\n\r\n    function isContractSigned(uint256 _tokenID) public view returns (bool) {\r\n        return contractDetails[_tokenID].isSigned;\r\n    }\r\n\r\n    function getOwnerOfContract(\r\n        uint256 _tokenID\r\n    ) public view returns (address) {\r\n        return ownerOf(_tokenID);\r\n    }\r\n}\r\n",
  "sourcePath": "E:\\AppContract\\ubu-contractme\\Code\\SmartContract\\contracts\\MyContract.sol",
  "compiler": {
    "name": "solc",
    "version": "0.8.20+commit.a1b79de6.Emscripten.clang"
  },
  "schemaVersion": "3.4.16",
  "updatedAt": "2024-01-29T21:18:36.172Z",
  "networkType": "ethereum",
  "devdoc": {
    "errors": {
      "ERC721IncorrectOwner(address,uint256,address)": [
        {
          "details": "Indicates an error related to the ownership over a particular token. Used in transfers.",
          "params": {
            "owner": "Address of the current owner of a token.",
            "sender": "Address whose tokens are being transferred.",
            "tokenId": "Identifier number of a token."
          }
        }
      ],
      "ERC721InsufficientApproval(address,uint256)": [
        {
          "details": "Indicates a failure with the `operator`s approval. Used in transfers.",
          "params": {
            "operator": "Address that may be allowed to operate on tokens without being their owner.",
            "tokenId": "Identifier number of a token."
          }
        }
      ],
      "ERC721InvalidApprover(address)": [
        {
          "details": "Indicates a failure with the `approver` of a token to be approved. Used in approvals.",
          "params": {
            "approver": "Address initiating an approval operation."
          }
        }
      ],
      "ERC721InvalidOperator(address)": [
        {
          "details": "Indicates a failure with the `operator` to be approved. Used in approvals.",
          "params": {
            "operator": "Address that may be allowed to operate on tokens without being their owner."
          }
        }
      ],
      "ERC721InvalidOwner(address)": [
        {
          "details": "Indicates that an address can't be an owner. For example, `address(0)` is a forbidden owner in EIP-20. Used in balance queries.",
          "params": {
            "owner": "Address of the current owner of a token."
          }
        }
      ],
      "ERC721InvalidReceiver(address)": [
        {
          "details": "Indicates a failure with the token `receiver`. Used in transfers.",
          "params": {
            "receiver": "Address to which tokens are being transferred."
          }
        }
      ],
      "ERC721InvalidSender(address)": [
        {
          "details": "Indicates a failure with the token `sender`. Used in transfers.",
          "params": {
            "sender": "Address whose tokens are being transferred."
          }
        }
      ],
      "ERC721NonexistentToken(uint256)": [
        {
          "details": "Indicates a `tokenId` whose `owner` is the zero address.",
          "params": {
            "tokenId": "Identifier number of a token."
          }
        }
      ]
    },
    "events": {
      "Approval(address,address,uint256)": {
        "details": "Emitted when `owner` enables `approved` to manage the `tokenId` token."
      },
      "ApprovalForAll(address,address,bool)": {
        "details": "Emitted when `owner` enables or disables (`approved`) `operator` to manage all of its assets."
      },
      "Transfer(address,address,uint256)": {
        "details": "Emitted when `tokenId` token is transferred from `from` to `to`."
      }
    },
    "kind": "dev",
    "methods": {
      "approve(address,uint256)": {
        "details": "See {IERC721-approve}."
      },
      "balanceOf(address)": {
        "details": "See {IERC721-balanceOf}."
      },
      "getApproved(uint256)": {
        "details": "See {IERC721-getApproved}."
      },
      "isApprovedForAll(address,address)": {
        "details": "See {IERC721-isApprovedForAll}."
      },
      "name()": {
        "details": "See {IERC721Metadata-name}."
      },
      "ownerOf(uint256)": {
        "details": "See {IERC721-ownerOf}."
      },
      "safeTransferFrom(address,address,uint256)": {
        "details": "See {IERC721-safeTransferFrom}."
      },
      "safeTransferFrom(address,address,uint256,bytes)": {
        "details": "See {IERC721-safeTransferFrom}."
      },
      "setApprovalForAll(address,bool)": {
        "details": "See {IERC721-setApprovalForAll}."
      },
      "supportsInterface(bytes4)": {
        "details": "See {IERC165-supportsInterface}."
      },
      "symbol()": {
        "details": "See {IERC721Metadata-symbol}."
      },
      "tokenURI(uint256)": {
        "details": "See {IERC721Metadata-tokenURI}."
      },
      "transferFrom(address,address,uint256)": {
        "details": "See {IERC721-transferFrom}."
      }
    },
    "version": 1
  },
  "userdoc": {
    "kind": "user",
    "methods": {},
    "version": 1
  }
}