{
  "contractName": "MyContract",
  "abi": [
    {
      "inputs": [],
      "stateMutability": "nonpayable",
      "type": "constructor"
    },
    {
      "inputs": [
        {
          "internalType": "address",
          "name": "sender",
          "type": "address"
        },
        {
          "internalType": "uint256",
          "name": "tokenId",
          "type": "uint256"
        },
        {
          "internalType": "address",
          "name": "owner",
          "type": "address"
        }
      ],
      "name": "ERC721IncorrectOwner",
      "type": "error"
    },
    {
      "inputs": [
        {
          "internalType": "address",
          "name": "operator",
          "type": "address"
        },
        {
          "internalType": "uint256",
          "name": "tokenId",
          "type": "uint256"
        }
      ],
      "name": "ERC721InsufficientApproval",
      "type": "error"
    },
    {
      "inputs": [
        {
          "internalType": "address",
          "name": "approver",
          "type": "address"
        }
      ],
      "name": "ERC721InvalidApprover",
      "type": "error"
    },
    {
      "inputs": [
        {
          "internalType": "address",
          "name": "operator",
          "type": "address"
        }
      ],
      "name": "ERC721InvalidOperator",
      "type": "error"
    },
    {
      "inputs": [
        {
          "internalType": "address",
          "name": "owner",
          "type": "address"
        }
      ],
      "name": "ERC721InvalidOwner",
      "type": "error"
    },
    {
      "inputs": [
        {
          "internalType": "address",
          "name": "receiver",
          "type": "address"
        }
      ],
      "name": "ERC721InvalidReceiver",
      "type": "error"
    },
    {
      "inputs": [
        {
          "internalType": "address",
          "name": "sender",
          "type": "address"
        }
      ],
      "name": "ERC721InvalidSender",
      "type": "error"
    },
    {
      "inputs": [
        {
          "internalType": "uint256",
          "name": "tokenId",
          "type": "uint256"
        }
      ],
      "name": "ERC721NonexistentToken",
      "type": "error"
    },
    {
      "anonymous": false,
      "inputs": [
        {
          "indexed": true,
          "internalType": "address",
          "name": "owner",
          "type": "address"
        },
        {
          "indexed": true,
          "internalType": "address",
          "name": "approved",
          "type": "address"
        },
        {
          "indexed": true,
          "internalType": "uint256",
          "name": "tokenId",
          "type": "uint256"
        }
      ],
      "name": "Approval",
      "type": "event"
    },
    {
      "anonymous": false,
      "inputs": [
        {
          "indexed": true,
          "internalType": "address",
          "name": "owner",
          "type": "address"
        },
        {
          "indexed": true,
          "internalType": "address",
          "name": "operator",
          "type": "address"
        },
        {
          "indexed": false,
          "internalType": "bool",
          "name": "approved",
          "type": "bool"
        }
      ],
      "name": "ApprovalForAll",
      "type": "event"
    },
    {
      "anonymous": false,
      "inputs": [
        {
          "indexed": true,
          "internalType": "uint256",
          "name": "tokenId",
          "type": "uint256"
        }
      ],
      "name": "ContractCancelled",
      "type": "event"
    },
    {
      "anonymous": false,
      "inputs": [
        {
          "indexed": true,
          "internalType": "uint256",
          "name": "tokenId",
          "type": "uint256"
        },
        {
          "indexed": false,
          "internalType": "address",
          "name": "worker",
          "type": "address"
        }
      ],
      "name": "ContractSigned",
      "type": "event"
    },
    {
      "anonymous": false,
      "inputs": [
        {
          "indexed": true,
          "internalType": "uint256",
          "name": "tokenId",
          "type": "uint256"
        },
        {
          "indexed": false,
          "internalType": "uint256",
          "name": "salary",
          "type": "uint256"
        }
      ],
      "name": "SalaryReleased",
      "type": "event"
    },
    {
      "anonymous": false,
      "inputs": [
        {
          "indexed": false,
          "internalType": "uint256",
          "name": "tokenId",
          "type": "uint256"
        }
      ],
      "name": "TokenMinted",
      "type": "event"
    },
    {
      "anonymous": false,
      "inputs": [
        {
          "indexed": true,
          "internalType": "address",
          "name": "from",
          "type": "address"
        },
        {
          "indexed": true,
          "internalType": "address",
          "name": "to",
          "type": "address"
        },
        {
          "indexed": true,
          "internalType": "uint256",
          "name": "tokenId",
          "type": "uint256"
        }
      ],
      "name": "Transfer",
      "type": "event"
    },
    {
      "inputs": [
        {
          "internalType": "address",
          "name": "to",
          "type": "address"
        },
        {
          "internalType": "uint256",
          "name": "tokenId",
          "type": "uint256"
        }
      ],
      "name": "approve",
      "outputs": [],
      "stateMutability": "nonpayable",
      "type": "function"
    },
    {
      "inputs": [
        {
          "internalType": "address",
          "name": "owner",
          "type": "address"
        }
      ],
      "name": "balanceOf",
      "outputs": [
        {
          "internalType": "uint256",
          "name": "",
          "type": "uint256"
        }
      ],
      "stateMutability": "view",
      "type": "function",
      "constant": true
    },
    {
      "inputs": [
        {
          "internalType": "uint256",
          "name": "",
          "type": "uint256"
        }
      ],
      "name": "contractDetails",
      "outputs": [
        {
          "internalType": "uint256",
          "name": "salary",
          "type": "uint256"
        },
        {
          "internalType": "uint256",
          "name": "startDate",
          "type": "uint256"
        },
        {
          "internalType": "uint256",
          "name": "duration",
          "type": "uint256"
        },
        {
          "internalType": "string",
          "name": "description",
          "type": "string"
        },
        {
          "internalType": "bool",
          "name": "isSigned",
          "type": "bool"
        },
        {
          "internalType": "address",
          "name": "worker",
          "type": "address"
        },
        {
          "internalType": "bool",
          "name": "isFinished",
          "type": "bool"
        },
        {
          "internalType": "bool",
          "name": "isPaused",
          "type": "bool"
        },
        {
          "internalType": "uint256",
          "name": "pauseTime",
          "type": "uint256"
        },
        {
          "internalType": "uint256",
          "name": "pauseDuration",
          "type": "uint256"
        }
      ],
      "stateMutability": "view",
      "type": "function",
      "constant": true
    },
    {
      "inputs": [
        {
          "internalType": "uint256",
          "name": "tokenId",
          "type": "uint256"
        }
      ],
      "name": "getApproved",
      "outputs": [
        {
          "internalType": "address",
          "name": "",
          "type": "address"
        }
      ],
      "stateMutability": "view",
      "type": "function",
      "constant": true
    },
    {
      "inputs": [
        {
          "internalType": "address",
          "name": "owner",
          "type": "address"
        },
        {
          "internalType": "address",
          "name": "operator",
          "type": "address"
        }
      ],
      "name": "isApprovedForAll",
      "outputs": [
        {
          "internalType": "bool",
          "name": "",
          "type": "bool"
        }
      ],
      "stateMutability": "view",
      "type": "function",
      "constant": true
    },
    {
      "inputs": [],
      "name": "name",
      "outputs": [
        {
          "internalType": "string",
          "name": "",
          "type": "string"
        }
      ],
      "stateMutability": "view",
      "type": "function",
      "constant": true
    },
    {
      "inputs": [
        {
          "internalType": "uint256",
          "name": "tokenId",
          "type": "uint256"
        }
      ],
      "name": "ownerOf",
      "outputs": [
        {
          "internalType": "address",
          "name": "",
          "type": "address"
        }
      ],
      "stateMutability": "view",
      "type": "function",
      "constant": true
    },
    {
      "inputs": [
        {
          "internalType": "address",
          "name": "from",
          "type": "address"
        },
        {
          "internalType": "address",
          "name": "to",
          "type": "address"
        },
        {
          "internalType": "uint256",
          "name": "tokenId",
          "type": "uint256"
        }
      ],
      "name": "safeTransferFrom",
      "outputs": [],
      "stateMutability": "nonpayable",
      "type": "function"
    },
    {
      "inputs": [
        {
          "internalType": "address",
          "name": "from",
          "type": "address"
        },
        {
          "internalType": "address",
          "name": "to",
          "type": "address"
        },
        {
          "internalType": "uint256",
          "name": "tokenId",
          "type": "uint256"
        },
        {
          "internalType": "bytes",
          "name": "data",
          "type": "bytes"
        }
      ],
      "name": "safeTransferFrom",
      "outputs": [],
      "stateMutability": "nonpayable",
      "type": "function"
    },
    {
      "inputs": [
        {
          "internalType": "address",
          "name": "operator",
          "type": "address"
        },
        {
          "internalType": "bool",
          "name": "approved",
          "type": "bool"
        }
      ],
      "name": "setApprovalForAll",
      "outputs": [],
      "stateMutability": "nonpayable",
      "type": "function"
    },
    {
      "inputs": [
        {
          "internalType": "bytes4",
          "name": "interfaceId",
          "type": "bytes4"
        }
      ],
      "name": "supportsInterface",
      "outputs": [
        {
          "internalType": "bool",
          "name": "",
          "type": "bool"
        }
      ],
      "stateMutability": "view",
      "type": "function",
      "constant": true
    },
    {
      "inputs": [],
      "name": "symbol",
      "outputs": [
        {
          "internalType": "string",
          "name": "",
          "type": "string"
        }
      ],
      "stateMutability": "view",
      "type": "function",
      "constant": true
    },
    {
      "inputs": [
        {
          "internalType": "uint256",
          "name": "",
          "type": "uint256"
        },
        {
          "internalType": "address",
          "name": "",
          "type": "address"
        }
      ],
      "name": "tokenManagers",
      "outputs": [
        {
          "internalType": "bool",
          "name": "",
          "type": "bool"
        }
      ],
      "stateMutability": "view",
      "type": "function",
      "constant": true
    },
    {
      "inputs": [
        {
          "internalType": "uint256",
          "name": "tokenId",
          "type": "uint256"
        }
      ],
      "name": "tokenURI",
      "outputs": [
        {
          "internalType": "string",
          "name": "",
          "type": "string"
        }
      ],
      "stateMutability": "view",
      "type": "function",
      "constant": true
    },
    {
      "inputs": [
        {
          "internalType": "address",
          "name": "from",
          "type": "address"
        },
        {
          "internalType": "address",
          "name": "to",
          "type": "address"
        },
        {
          "internalType": "uint256",
          "name": "tokenId",
          "type": "uint256"
        }
      ],
      "name": "transferFrom",
      "outputs": [],
      "stateMutability": "nonpayable",
      "type": "function"
    },
    {
      "inputs": [
        {
          "internalType": "address",
          "name": "_to",
          "type": "address"
        },
        {
          "internalType": "uint256",
          "name": "_salary",
          "type": "uint256"
        },
        {
          "internalType": "uint256",
          "name": "_duration",
          "type": "uint256"
        },
        {
          "internalType": "string",
          "name": "_description",
          "type": "string"
        }
      ],
      "name": "mint",
      "outputs": [
        {
          "internalType": "uint256",
          "name": "",
          "type": "uint256"
        }
      ],
      "stateMutability": "payable",
      "type": "function",
      "payable": true
    },
    {
      "inputs": [
        {
          "internalType": "uint256",
          "name": "_tokenID",
          "type": "uint256"
        }
      ],
      "name": "signContract",
      "outputs": [],
      "stateMutability": "nonpayable",
      "type": "function"
    },
    {
      "inputs": [
        {
          "internalType": "uint256",
          "name": "_tokenID",
          "type": "uint256"
        }
      ],
      "name": "releaseSalary",
      "outputs": [],
      "stateMutability": "payable",
      "type": "function",
      "payable": true
    },
    {
      "inputs": [
        {
          "internalType": "uint256",
          "name": "_tokenID",
          "type": "uint256"
        }
      ],
      "name": "finalizeContract",
      "outputs": [],
      "stateMutability": "nonpayable",
      "type": "function"
    },
    {
      "inputs": [
        {
          "internalType": "uint256",
          "name": "_tokenID",
          "type": "uint256"
        }
      ],
      "name": "pauseContract",
      "outputs": [],
      "stateMutability": "nonpayable",
      "type": "function"
    },
    {
      "inputs": [
        {
          "internalType": "uint256",
          "name": "_tokenID",
          "type": "uint256"
        }
      ],
      "name": "unPauseContract",
      "outputs": [],
      "stateMutability": "nonpayable",
      "type": "function"
    },
    {
      "inputs": [
        {
          "internalType": "uint256",
          "name": "_tokenID",
          "type": "uint256"
        }
      ],
      "name": "cancelContract",
      "outputs": [],
      "stateMutability": "nonpayable",
      "type": "function"
    },
    {
      "inputs": [
        {
          "internalType": "uint256",
          "name": "_tokenId",
          "type": "uint256"
        },
        {
          "internalType": "address",
          "name": "_newManager",
          "type": "address"
        }
      ],
      "name": "assignManagerToToken",
      "outputs": [],
      "stateMutability": "nonpayable",
      "type": "function"
    },
    {
      "inputs": [
        {
          "internalType": "uint256",
          "name": "_tokenId",
          "type": "uint256"
        },
        {
          "internalType": "address",
          "name": "_manager",
          "type": "address"
        }
      ],
      "name": "revokeManagerFromToken",
      "outputs": [],
      "stateMutability": "nonpayable",
      "type": "function"
    },
    {
      "inputs": [
        {
          "internalType": "uint256",
          "name": "_tokenId",
          "type": "uint256"
        },
        {
          "internalType": "address",
          "name": "_manager",
          "type": "address"
        }
      ],
      "name": "isManagerOfToken",
      "outputs": [
        {
          "internalType": "bool",
          "name": "",
          "type": "bool"
        }
      ],
      "stateMutability": "view",
      "type": "function",
      "constant": true
    },
    {
      "inputs": [
        {
          "internalType": "uint256",
          "name": "_tokenID",
          "type": "uint256"
        },
        {
          "internalType": "uint256",
          "name": "_salary",
          "type": "uint256"
        },
        {
          "internalType": "uint256",
          "name": "_duration",
          "type": "uint256"
        },
        {
          "internalType": "string",
          "name": "_description",
          "type": "string"
        }
      ],
      "name": "modifyContract",
      "outputs": [],
      "stateMutability": "payable",
      "type": "function",
      "payable": true
    },
    {
      "inputs": [
        {
          "internalType": "address",
          "name": "_address",
          "type": "address"
        }
      ],
      "name": "getContractsFromOwner",
      "outputs": [
        {
          "internalType": "uint256[]",
          "name": "",
          "type": "uint256[]"
        }
      ],
      "stateMutability": "view",
      "type": "function",
      "constant": true
    },
    {
      "inputs": [
        {
          "internalType": "address",
          "name": "_address",
          "type": "address"
        }
      ],
      "name": "getContractsOfWorker",
      "outputs": [
        {
          "internalType": "uint256[]",
          "name": "",
          "type": "uint256[]"
        }
      ],
      "stateMutability": "view",
      "type": "function",
      "constant": true
    },
    {
      "inputs": [
        {
          "internalType": "uint256",
          "name": "_tokenID",
          "type": "uint256"
        }
      ],
      "name": "isContractPaused",
      "outputs": [
        {
          "internalType": "bool",
          "name": "",
          "type": "bool"
        }
      ],
      "stateMutability": "view",
      "type": "function",
      "constant": true
    },
    {
      "inputs": [
        {
          "internalType": "uint256",
          "name": "_tokenID",
          "type": "uint256"
        }
      ],
      "name": "isContractSigned",
      "outputs": [
        {
          "internalType": "bool",
          "name": "",
          "type": "bool"
        }
      ],
      "stateMutability": "view",
      "type": "function",
      "constant": true
    },
    {
      "inputs": [
        {
          "internalType": "uint256",
          "name": "_tokenID",
          "type": "uint256"
        }
      ],
      "name": "isContractFinished",
      "outputs": [
        {
          "internalType": "bool",
          "name": "",
          "type": "bool"
        }
      ],
      "stateMutability": "view",
      "type": "function",
      "constant": true
    }
  ],
  "bytecode": "0x608060405234801562000010575f80fd5b506040518060400160405280600781526020017f4d79546f6b656e000000000000000000000000000000000000000000000000008152506040518060400160405280600381526020017f4d544b0000000000000000000000000000000000000000000000000000000000815250815f90816200008d91906200030c565b5080600190816200009f91906200030c565b505050620003f0565b5f81519050919050565b7f4e487b71000000000000000000000000000000000000000000000000000000005f52604160045260245ffd5b7f4e487b71000000000000000000000000000000000000000000000000000000005f52602260045260245ffd5b5f60028204905060018216806200012457607f821691505b6020821081036200013a5762000139620000df565b5b50919050565b5f819050815f5260205f209050919050565b5f6020601f8301049050919050565b5f82821b905092915050565b5f600883026200019e7fffffffffffffffffffffffffffffffffffffffffffffffffffffffffffffffff8262000161565b620001aa868362000161565b95508019841693508086168417925050509392505050565b5f819050919050565b5f819050919050565b5f620001f4620001ee620001e884620001c2565b620001cb565b620001c2565b9050919050565b5f819050919050565b6200020f83620001d4565b620002276200021e82620001fb565b8484546200016d565b825550505050565b5f90565b6200023d6200022f565b6200024a81848462000204565b505050565b5b818110156200027157620002655f8262000233565b60018101905062000250565b5050565b601f821115620002c0576200028a8162000140565b620002958462000152565b81016020851015620002a5578190505b620002bd620002b48562000152565b8301826200024f565b50505b505050565b5f82821c905092915050565b5f620002e25f1984600802620002c5565b1980831691505092915050565b5f620002fc8383620002d1565b9150826002028217905092915050565b6200031782620000a8565b67ffffffffffffffff811115620003335762000332620000b2565b5b6200033f82546200010c565b6200034c82828562000275565b5f60209050601f83116001811462000382575f84156200036d578287015190505b620003798582620002ef565b865550620003e8565b601f198416620003928662000140565b5f5b82811015620003bb5784890151825560018201915060208501945060208101905062000394565b86831015620003db5784890151620003d7601f891682620002d1565b8355505b6001600288020188555050505b505050505050565b61542080620003fe5f395ff3fe6080604052600436106101d7575f3560e01c806370a0823111610101578063b88d4fde11610094578063c87b56dd11610063578063c87b56dd146106f8578063d053b45114610734578063e2c07c7b14610770578063e985e9c51461078c576101d7565b8063b88d4fde1461063c578063bb7fde7114610664578063bce8715614610694578063c2852f38146106d0576101d7565b80639537e8d1116100d05780639537e8d11461058657806395d89b41146105ae578063a22cb465146105d8578063b19795bc14610600576101d7565b806370a08231146104aa57806389b83d3e146104e657806390d16ce41461050e57806393a43c191461054a576101d7565b806328047450116101795780633330a55f116101485780633330a55f146103e557806342842e0e1461042a5780635cfa6850146104525780636352211e1461046e576101d7565b8063280474501461031d5780632907eb1614610345578063294a79311461036d57806331432e45146103a9576101d7565b8063081812fc116101b5578063081812fc14610269578063095ea7b3146102a55780632355e217146102cd57806323b872dd146102f5576101d7565b806301ffc9a7146101db578063045b6a4e1461021757806306fdde031461023f575b5f80fd5b3480156101e6575f80fd5b5061020160048036038101906101fc9190613a92565b6107c8565b60405161020e9190613ad7565b60405180910390f35b348015610222575f80fd5b5061023d60048036038101906102389190613b7d565b6108a9565b005b34801561024a575f80fd5b506102536109a8565b6040516102609190613c45565b60405180910390f35b348015610274575f80fd5b5061028f600480360381019061028a9190613c65565b610a37565b60405161029c9190613c9f565b60405180910390f35b3480156102b0575f80fd5b506102cb60048036038101906102c69190613cb8565b610a52565b005b3480156102d8575f80fd5b506102f360048036038101906102ee9190613b7d565b610a68565b005b348015610300575f80fd5b5061031b60048036038101906103169190613cf6565b610bcb565b005b348015610328575f80fd5b50610343600480360381019061033e9190613c65565b610cca565b005b348015610350575f80fd5b5061036b60048036038101906103669190613c65565b610f19565b005b348015610378575f80fd5b50610393600480360381019061038e9190613b7d565b6111d9565b6040516103a09190613ad7565b60405180910390f35b3480156103b4575f80fd5b506103cf60048036038101906103ca9190613b7d565b611203565b6040516103dc9190613ad7565b60405180910390f35b3480156103f0575f80fd5b5061040b60048036038101906104069190613c65565b611265565b6040516104219a99989796959493929190613d55565b60405180910390f35b348015610435575f80fd5b50610450600480360381019061044b9190613cf6565b611381565b005b61046c60048036038101906104679190613f22565b6113a0565b005b348015610479575f80fd5b50610494600480360381019061048f9190613c65565b6117be565b6040516104a19190613c9f565b60405180910390f35b3480156104b5575f80fd5b506104d060048036038101906104cb9190613fa2565b6117cf565b6040516104dd9190613fcd565b60405180910390f35b3480156104f1575f80fd5b5061050c60048036038101906105079190613c65565b611885565b005b348015610519575f80fd5b50610534600480360381019061052f9190613fa2565b611b58565b604051610541919061409d565b60405180910390f35b348015610555575f80fd5b50610570600480360381019061056b9190613c65565b611beb565b60405161057d9190613ad7565b60405180910390f35b348015610591575f80fd5b506105ac60048036038101906105a79190613c65565b611c14565b005b3480156105b9575f80fd5b506105c2612062565b6040516105cf9190613c45565b60405180910390f35b3480156105e3575f80fd5b506105fe60048036038101906105f991906140e7565b6120f2565b005b34801561060b575f80fd5b5061062660048036038101906106219190613c65565b612108565b6040516106339190613ad7565b60405180910390f35b348015610647575f80fd5b50610662600480360381019061065d91906141c3565b612132565b005b61067e60048036038101906106799190614243565b61214f565b60405161068b9190613fcd565b60405180910390f35b34801561069f575f80fd5b506106ba60048036038101906106b59190613c65565b61248d565b6040516106c79190613ad7565b60405180910390f35b3480156106db575f80fd5b506106f660048036038101906106f19190613c65565b6124b7565b005b348015610703575f80fd5b5061071e60048036038101906107199190613c65565b61278c565b60405161072b9190613c45565b60405180910390f35b34801561073f575f80fd5b5061075a60048036038101906107559190613fa2565b6127f2565b604051610767919061409d565b60405180910390f35b61078a60048036038101906107859190613c65565b612885565b005b348015610797575f80fd5b506107b260048036038101906107ad91906142c3565b612c16565b6040516107bf9190613ad7565b60405180910390f35b5f7f80ac58cd000000000000000000000000000000000000000000000000000000007bffffffffffffffffffffffffffffffffffffffffffffffffffffffff1916827bffffffffffffffffffffffffffffffffffffffffffffffffffffffff1916148061089257507f5b5e139f000000000000000000000000000000000000000000000000000000007bffffffffffffffffffffffffffffffffffffffffffffffffffffffff1916827bffffffffffffffffffffffffffffffffffffffffffffffffffffffff1916145b806108a257506108a182612ca4565b5b9050919050565b60075f8381526020019081526020015f205f3373ffffffffffffffffffffffffffffffffffffffff1673ffffffffffffffffffffffffffffffffffffffff1681526020019081526020015f205f9054906101000a900460ff16610941576040517f08c379a000000000000000000000000000000000000000000000000000000000815260040161093890614371565b60405180910390fd5b5f60075f8481526020019081526020015f205f8373ffffffffffffffffffffffffffffffffffffffff1673ffffffffffffffffffffffffffffffffffffffff1681526020019081526020015f205f6101000a81548160ff0219169083151502179055505050565b60605f80546109b6906143bc565b80601f01602080910402602001604051908101604052809291908181526020018280546109e2906143bc565b8015610a2d5780601f10610a0457610100808354040283529160200191610a2d565b820191905f5260205f20905b815481529060010190602001808311610a1057829003601f168201915b5050505050905090565b5f610a4182612d0d565b50610a4b82612d93565b9050919050565b610a648282610a5f612dcc565b612dd3565b5050565b60075f8381526020019081526020015f205f3373ffffffffffffffffffffffffffffffffffffffff1673ffffffffffffffffffffffffffffffffffffffff1681526020019081526020015f205f9054906101000a900460ff16610b00576040517f08c379a0000000000000000000000000000000000000000000000000000000008152600401610af79061445c565b60405180910390fd5b600160075f8481526020019081526020015f205f8373ffffffffffffffffffffffffffffffffffffffff1673ffffffffffffffffffffffffffffffffffffffff1681526020019081526020015f205f6101000a81548160ff02191690831515021790555060095f8273ffffffffffffffffffffffffffffffffffffffff1673ffffffffffffffffffffffffffffffffffffffff1681526020019081526020015f20600654908060018154018082558091505060019003905f5260205f20015f90919091909150555050565b5f73ffffffffffffffffffffffffffffffffffffffff168273ffffffffffffffffffffffffffffffffffffffff1603610c3b575f6040517f64a0ae92000000000000000000000000000000000000000000000000000000008152600401610c329190613c9f565b60405180910390fd5b5f610c4e8383610c49612dcc565b612de5565b90508373ffffffffffffffffffffffffffffffffffffffff168173ffffffffffffffffffffffffffffffffffffffff1614610cc4578382826040517f64283d7b000000000000000000000000000000000000000000000000000000008152600401610cbb9392919061447a565b60405180910390fd5b50505050565b3073ffffffffffffffffffffffffffffffffffffffff16636352211e826040518263ffffffff1660e01b8152600401610d039190613fcd565b602060405180830381865afa925050508015610d3d57506040513d601f19601f82011682018060405250810190610d3a91906144c3565b60015b610d7c576040517f08c379a0000000000000000000000000000000000000000000000000000000008152600401610d7390614538565b60405180910390fd5b506001151560075f60065481526020019081526020015f205f3373ffffffffffffffffffffffffffffffffffffffff1673ffffffffffffffffffffffffffffffffffffffff1681526020019081526020015f205f9054906101000a900460ff16151514610e1e576040517f08c379a0000000000000000000000000000000000000000000000000000000008152600401610e15906145c6565b60405180910390fd5b60085f8281526020019081526020015f206004015f9054906101000a900460ff1615610e7f576040517f08c379a0000000000000000000000000000000000000000000000000000000008152600401610e769061462e565b60405180910390fd5b5f3390505f60085f8481526020019081526020015f205f015490508173ffffffffffffffffffffffffffffffffffffffff166108fc8290811502906040515f60405180830381858888f19350505050158015610edd573d5f803e3d5ffd5b50610ee783612ff0565b827f2d5f5ed000d42aa6f6fc13400f7d7161cd1bea793fec354b11e3451f9f2b07c360405160405180910390a2505050565b3073ffffffffffffffffffffffffffffffffffffffff16636352211e826040518263ffffffff1660e01b8152600401610f529190613fcd565b602060405180830381865afa925050508015610f8c57506040513d601f19601f82011682018060405250810190610f8991906144c3565b60015b610fcb576040517f08c379a0000000000000000000000000000000000000000000000000000000008152600401610fc290614538565b60405180910390fd5b506001151560075f60065481526020019081526020015f205f3373ffffffffffffffffffffffffffffffffffffffff1673ffffffffffffffffffffffffffffffffffffffff1681526020019081526020015f205f9054906101000a900460ff1615151461106d576040517f08c379a0000000000000000000000000000000000000000000000000000000008152600401611064906146bc565b60405180910390fd5b60085f8281526020019081526020015f206004015f9054906101000a900460ff166110cd576040517f08c379a00000000000000000000000000000000000000000000000000000000081526004016110c490614724565b60405180910390fd5b5f151560085f8381526020019081526020015f2060040160159054906101000a900460ff16151514611134576040517f08c379a000000000000000000000000000000000000000000000000000000000815260040161112b9061478c565b60405180910390fd5b4260085f8381526020019081526020015f206002015460085f8481526020019081526020015f206001015461116991906147d7565b116111a9576040517f08c379a00000000000000000000000000000000000000000000000000000000081526004016111a090614854565b60405180910390fd5b600160085f8381526020019081526020015f2060040160156101000a81548160ff02191690831515021790555050565b6007602052815f5260405f20602052805f5260405f205f915091509054906101000a900460ff1681565b5f60075f8481526020019081526020015f205f8373ffffffffffffffffffffffffffffffffffffffff1673ffffffffffffffffffffffffffffffffffffffff1681526020019081526020015f205f9054906101000a900460ff16905092915050565b6008602052805f5260405f205f91509050805f015490806001015490806002015490806003018054611296906143bc565b80601f01602080910402602001604051908101604052809291908181526020018280546112c2906143bc565b801561130d5780601f106112e45761010080835404028352916020019161130d565b820191905f5260205f20905b8154815290600101906020018083116112f057829003601f168201915b505050505090806004015f9054906101000a900460ff16908060040160019054906101000a900473ffffffffffffffffffffffffffffffffffffffff16908060040160159054906101000a900460ff16908060040160169054906101000a900460ff1690806005015490806006015490508a565b61139b83838360405180602001604052805f815250612132565b505050565b3073ffffffffffffffffffffffffffffffffffffffff16636352211e856040518263ffffffff1660e01b81526004016113d99190613fcd565b602060405180830381865afa92505050801561141357506040513d601f19601f8201168201806040525081019061141091906144c3565b60015b611452576040517f08c379a000000000000000000000000000000000000000000000000000000000815260040161144990614538565b60405180910390fd5b506001151560075f60065481526020019081526020015f205f3373ffffffffffffffffffffffffffffffffffffffff1673ffffffffffffffffffffffffffffffffffffffff1681526020019081526020015f205f9054906101000a900460ff161515146114f4576040517f08c379a00000000000000000000000000000000000000000000000000000000081526004016114eb906148e2565b60405180910390fd5b60085f8581526020019081526020015f206004015f9054906101000a900460ff1615611555576040517f08c379a000000000000000000000000000000000000000000000000000000000815260040161154c9061462e565b60405180910390fd5b5f151560085f8681526020019081526020015f2060040160159054906101000a900460ff161515146115bc576040517f08c379a00000000000000000000000000000000000000000000000000000000081526004016115b39061494a565b60405180910390fd5b4260085f8681526020019081526020015f206002015460085f8781526020019081526020015f20600101546115f191906147d7565b1015611632576040517f08c379a0000000000000000000000000000000000000000000000000000000008152600401611629906149b2565b60405180910390fd5b5f60085f8681526020019081526020015f205f0154905080841115611706575f818561165e91906149d0565b9050803410156116a3576040517f08c379a000000000000000000000000000000000000000000000000000000000815260040161169a90614a73565b60405180910390fd5b5f81346116b091906149d0565b90505f8111156116ff573373ffffffffffffffffffffffffffffffffffffffff166108fc8290811502906040515f60405180830381858888f193505050501580156116fd573d5f803e3d5ffd5b505b5050611764565b80841015611763575f848261171b91906149d0565b90503373ffffffffffffffffffffffffffffffffffffffff166108fc8290811502906040515f60405180830381858888f19350505050158015611760573d5f803e3d5ffd5b50505b5b8360085f8781526020019081526020015f205f01819055508260085f8781526020019081526020015f20600201819055508160085f8781526020019081526020015f2060030190816117b69190614c2e565b505050505050565b5f6117c882612d0d565b9050919050565b5f8073ffffffffffffffffffffffffffffffffffffffff168273ffffffffffffffffffffffffffffffffffffffff1603611840575f6040517f89c62b640000000000000000000000000000000000000000000000000000000081526004016118379190613c9f565b60405180910390fd5b60035f8373ffffffffffffffffffffffffffffffffffffffff1673ffffffffffffffffffffffffffffffffffffffff1681526020019081526020015f20549050919050565b3073ffffffffffffffffffffffffffffffffffffffff16636352211e826040518263ffffffff1660e01b81526004016118be9190613fcd565b602060405180830381865afa9250505080156118f857506040513d601f19601f820116820180604052508101906118f591906144c3565b60015b611937576040517f08c379a000000000000000000000000000000000000000000000000000000000815260040161192e90614538565b60405180910390fd5b506001151560075f60065481526020019081526020015f205f3373ffffffffffffffffffffffffffffffffffffffff1673ffffffffffffffffffffffffffffffffffffffff1681526020019081526020015f205f9054906101000a900460ff161515146119d9576040517f08c379a00000000000000000000000000000000000000000000000000000000081526004016119d090614d6d565b60405180910390fd5b60085f8281526020019081526020015f206004015f9054906101000a900460ff16611a39576040517f08c379a0000000000000000000000000000000000000000000000000000000008152600401611a3090614724565b60405180910390fd5b60085f8281526020019081526020015f2060040160169054906101000a900460ff16611a9a576040517f08c379a0000000000000000000000000000000000000000000000000000000008152600401611a9190614dd5565b60405180910390fd5b60085f8281526020019081526020015f206005015442611aba91906149d0565b60085f8381526020019081526020015f206006018190555060085f8281526020019081526020015f206006015460085f8381526020019081526020015f206002015f828254611b0991906147d7565b925050819055505f60085f8381526020019081526020015f20600501819055505f60085f8381526020019081526020015f2060040160166101000a81548160ff02191690831515021790555050565b606060095f8373ffffffffffffffffffffffffffffffffffffffff1673ffffffffffffffffffffffffffffffffffffffff1681526020019081526020015f20805480602002602001604051908101604052809291908181526020018280548015611bdf57602002820191905f5260205f20905b815481526020019060010190808311611bcb575b50505050509050919050565b5f60085f8381526020019081526020015f206004015f9054906101000a900460ff169050919050565b3073ffffffffffffffffffffffffffffffffffffffff16636352211e826040518263ffffffff1660e01b8152600401611c4d9190613fcd565b602060405180830381865afa925050508015611c8757506040513d601f19601f82011682018060405250810190611c8491906144c3565b60015b611cc6576040517f08c379a0000000000000000000000000000000000000000000000000000000008152600401611cbd90614538565b60405180910390fd5b505f151560075f60065481526020019081526020015f205f3373ffffffffffffffffffffffffffffffffffffffff1673ffffffffffffffffffffffffffffffffffffffff1681526020019081526020015f205f9054906101000a900460ff16151514611d67576040517f08c379a0000000000000000000000000000000000000000000000000000000008152600401611d5e90614e63565b60405180910390fd5b60085f8281526020019081526020015f2060040160019054906101000a900473ffffffffffffffffffffffffffffffffffffffff1673ffffffffffffffffffffffffffffffffffffffff163373ffffffffffffffffffffffffffffffffffffffff1614611e09576040517f08c379a0000000000000000000000000000000000000000000000000000000008152600401611e0090614ef1565b60405180910390fd5b60085f8281526020019081526020015f206004015f9054906101000a900460ff1615611e6a576040517f08c379a0000000000000000000000000000000000000000000000000000000008152600401611e619061462e565b60405180910390fd5b5f151560085f8381526020019081526020015f2060040160159054906101000a900460ff16151514611ed1576040517f08c379a0000000000000000000000000000000000000000000000000000000008152600401611ec89061494a565b60405180910390fd5b4260085f8381526020019081526020015f206002015460085f8481526020019081526020015f2060010154611f0691906147d7565b1015611f47576040517f08c379a0000000000000000000000000000000000000000000000000000000008152600401611f3e906149b2565b60405180910390fd5b600160085f8381526020019081526020015f206004015f6101000a81548160ff0219169083151502179055503360085f8381526020019081526020015f2060040160016101000a81548173ffffffffffffffffffffffffffffffffffffffff021916908373ffffffffffffffffffffffffffffffffffffffff160217905550600a5f3373ffffffffffffffffffffffffffffffffffffffff1673ffffffffffffffffffffffffffffffffffffffff1681526020019081526020015f2081908060018154018082558091505060019003905f5260205f20015f9091909190915055807fcd3b1fcca80f9caae633c3e13546995d3810e561957af92839f070c46571942c336040516120579190613c9f565b60405180910390a250565b606060018054612071906143bc565b80601f016020809104026020016040519081016040528092919081815260200182805461209d906143bc565b80156120e85780601f106120bf576101008083540402835291602001916120e8565b820191905f5260205f20905b8154815290600101906020018083116120cb57829003601f168201915b5050505050905090565b6121046120fd612dcc565b8383613072565b5050565b5f60085f8381526020019081526020015f2060040160169054906101000a900460ff169050919050565b61213d848484610bcb565b612149848484846131db565b50505050565b5f83341015612193576040517f08c379a000000000000000000000000000000000000000000000000000000000815260040161218a90614f7f565b60405180910390fd5b60065f8154809291906121a590614f9d565b91905055506121b63360065461338d565b5f84346121c391906149d0565b90505f811115612212573373ffffffffffffffffffffffffffffffffffffffff166108fc8290811502906040515f60405180830381858888f19350505050158015612210573d5f803e3d5ffd5b505b5f6040518061014001604052808781526020014281526020018681526020018581526020015f151581526020018873ffffffffffffffffffffffffffffffffffffffff1681526020015f151581526020015f151581526020015f81526020015f81525090508060085f60065481526020019081526020015f205f820151815f0155602082015181600101556040820151816002015560608201518160030190816122bc9190614c2e565b506080820151816004015f6101000a81548160ff02191690831515021790555060a08201518160040160016101000a81548173ffffffffffffffffffffffffffffffffffffffff021916908373ffffffffffffffffffffffffffffffffffffffff16021790555060c08201518160040160156101000a81548160ff02191690831515021790555060e08201518160040160166101000a81548160ff02191690831515021790555061010082015181600501556101208201518160060155905050600160075f60065481526020019081526020015f205f3373ffffffffffffffffffffffffffffffffffffffff1673ffffffffffffffffffffffffffffffffffffffff1681526020019081526020015f205f6101000a81548160ff02191690831515021790555060095f3373ffffffffffffffffffffffffffffffffffffffff1673ffffffffffffffffffffffffffffffffffffffff1681526020019081526020015f20600654908060018154018082558091505060019003905f5260205f20015f90919091909150557ff00d28232b285f24f2e38415deb2ceb31069e70d4505838b3911b4f02058502e6006546040516124769190613fcd565b60405180910390a160065492505050949350505050565b5f60085f8381526020019081526020015f2060040160159054906101000a900460ff169050919050565b3073ffffffffffffffffffffffffffffffffffffffff16636352211e826040518263ffffffff1660e01b81526004016124f09190613fcd565b602060405180830381865afa92505050801561252a57506040513d601f19601f8201168201806040525081019061252791906144c3565b60015b612569576040517f08c379a000000000000000000000000000000000000000000000000000000000815260040161256090614538565b60405180910390fd5b506001151560075f60065481526020019081526020015f205f3373ffffffffffffffffffffffffffffffffffffffff1673ffffffffffffffffffffffffffffffffffffffff1681526020019081526020015f205f9054906101000a900460ff1615151461260b576040517f08c379a000000000000000000000000000000000000000000000000000000000815260040161260290615054565b60405180910390fd5b60085f8281526020019081526020015f206004015f9054906101000a900460ff1661266b576040517f08c379a000000000000000000000000000000000000000000000000000000000815260040161266290614724565b60405180910390fd5b4260085f8381526020019081526020015f206002015460085f8481526020019081526020015f20600101546126a091906147d7565b10156126e1576040517f08c379a00000000000000000000000000000000000000000000000000000000081526004016126d8906149b2565b60405180910390fd5b60085f8281526020019081526020015f2060040160169054906101000a900460ff1615612743576040517f08c379a000000000000000000000000000000000000000000000000000000000815260040161273a906150bc565b60405180910390fd5b600160085f8381526020019081526020015f2060040160166101000a81548160ff0219169083151502179055504260085f8381526020019081526020015f206005018190555050565b606061279782612d0d565b505f6127a1613480565b90505f8151116127bf5760405180602001604052805f8152506127ea565b806127c984613496565b6040516020016127da929190615114565b6040516020818303038152906040525b915050919050565b6060600a5f8373ffffffffffffffffffffffffffffffffffffffff1673ffffffffffffffffffffffffffffffffffffffff1681526020019081526020015f2080548060200260200160405190810160405280929190818152602001828054801561287957602002820191905f5260205f20905b815481526020019060010190808311612865575b50505050509050919050565b3073ffffffffffffffffffffffffffffffffffffffff16636352211e826040518263ffffffff1660e01b81526004016128be9190613fcd565b602060405180830381865afa9250505080156128f857506040513d601f19601f820116820180604052508101906128f591906144c3565b60015b612937576040517f08c379a000000000000000000000000000000000000000000000000000000000815260040161292e90614538565b60405180910390fd5b5060085f8281526020019081526020015f206004015f9054906101000a900460ff16612998576040517f08c379a000000000000000000000000000000000000000000000000000000000815260040161298f90614724565b60405180910390fd5b6001151560075f60065481526020019081526020015f205f3373ffffffffffffffffffffffffffffffffffffffff1673ffffffffffffffffffffffffffffffffffffffff1681526020019081526020015f205f9054906101000a900460ff16151514612a39576040517f08c379a0000000000000000000000000000000000000000000000000000000008152600401612a30906151a7565b60405180910390fd5b6001151560085f8381526020019081526020015f2060040160159054906101000a900460ff1615151480612aa057504260085f8381526020019081526020015f206002015460085f8481526020019081526020015f2060010154612a9d91906147d7565b11155b612adf576040517f08c379a0000000000000000000000000000000000000000000000000000000008152600401612ad690615235565b60405180910390fd5b5f151560085f8381526020019081526020015f2060040160169054906101000a900460ff16151514612b46576040517f08c379a0000000000000000000000000000000000000000000000000000000008152600401612b3d9061529d565b60405180910390fd5b5f60085f8381526020019081526020015f2060040160019054906101000a900473ffffffffffffffffffffffffffffffffffffffff1690505f60085f8481526020019081526020015f205f015490508173ffffffffffffffffffffffffffffffffffffffff166108fc8290811502906040515f60405180830381858888f19350505050158015612bd8573d5f803e3d5ffd5b50827f2b52860c5e15aa76ac91d132433549dfe5214c66e36bdb998622ab221c7477c082604051612c099190613fcd565b60405180910390a2505050565b5f60055f8473ffffffffffffffffffffffffffffffffffffffff1673ffffffffffffffffffffffffffffffffffffffff1681526020019081526020015f205f8373ffffffffffffffffffffffffffffffffffffffff1673ffffffffffffffffffffffffffffffffffffffff1681526020019081526020015f205f9054906101000a900460ff16905092915050565b5f7f01ffc9a7000000000000000000000000000000000000000000000000000000007bffffffffffffffffffffffffffffffffffffffffffffffffffffffff1916827bffffffffffffffffffffffffffffffffffffffffffffffffffffffff1916149050919050565b5f80612d1883613560565b90505f73ffffffffffffffffffffffffffffffffffffffff168173ffffffffffffffffffffffffffffffffffffffff1603612d8a57826040517f7e273289000000000000000000000000000000000000000000000000000000008152600401612d819190613fcd565b60405180910390fd5b80915050919050565b5f60045f8381526020019081526020015f205f9054906101000a900473ffffffffffffffffffffffffffffffffffffffff169050919050565b5f33905090565b612de08383836001613599565b505050565b5f80612df084613560565b90505f73ffffffffffffffffffffffffffffffffffffffff168373ffffffffffffffffffffffffffffffffffffffff1614612e3157612e30818486613758565b5b5f73ffffffffffffffffffffffffffffffffffffffff168173ffffffffffffffffffffffffffffffffffffffff1614612ebc57612e705f855f80613599565b600160035f8373ffffffffffffffffffffffffffffffffffffffff1673ffffffffffffffffffffffffffffffffffffffff1681526020019081526020015f205f82825403925050819055505b5f73ffffffffffffffffffffffffffffffffffffffff168573ffffffffffffffffffffffffffffffffffffffff1614612f3b57600160035f8773ffffffffffffffffffffffffffffffffffffffff1673ffffffffffffffffffffffffffffffffffffffff1681526020019081526020015f205f82825401925050819055505b8460025f8681526020019081526020015f205f6101000a81548173ffffffffffffffffffffffffffffffffffffffff021916908373ffffffffffffffffffffffffffffffffffffffff160217905550838573ffffffffffffffffffffffffffffffffffffffff168273ffffffffffffffffffffffffffffffffffffffff167fddf252ad1be2c89b69c2b068fc378daa952ba7f163c4a11628f55a4df523b3ef60405160405180910390a4809150509392505050565b5f612ffc5f835f612de5565b90505f73ffffffffffffffffffffffffffffffffffffffff168173ffffffffffffffffffffffffffffffffffffffff160361306e57816040517f7e2732890000000000000000000000000000000000000000000000000000000081526004016130659190613fcd565b60405180910390fd5b5050565b5f73ffffffffffffffffffffffffffffffffffffffff168273ffffffffffffffffffffffffffffffffffffffff16036130e257816040517f5b08ba180000000000000000000000000000000000000000000000000000000081526004016130d99190613c9f565b60405180910390fd5b8060055f8573ffffffffffffffffffffffffffffffffffffffff1673ffffffffffffffffffffffffffffffffffffffff1681526020019081526020015f205f8473ffffffffffffffffffffffffffffffffffffffff1673ffffffffffffffffffffffffffffffffffffffff1681526020019081526020015f205f6101000a81548160ff0219169083151502179055508173ffffffffffffffffffffffffffffffffffffffff168373ffffffffffffffffffffffffffffffffffffffff167f17307eab39ab6107e8899845ad3d59bd9653f200f220920489ca2b5937696c31836040516131ce9190613ad7565b60405180910390a3505050565b5f8373ffffffffffffffffffffffffffffffffffffffff163b1115613387578273ffffffffffffffffffffffffffffffffffffffff1663150b7a0261321e612dcc565b8685856040518563ffffffff1660e01b8152600401613240949392919061530d565b6020604051808303815f875af192505050801561327b57506040513d601f19601f82011682018060405250810190613278919061536b565b60015b6132fc573d805f81146132a9576040519150601f19603f3d011682016040523d82523d5f602084013e6132ae565b606091505b505f8151036132f457836040517f64a0ae920000000000000000000000000000000000000000000000000000000081526004016132eb9190613c9f565b60405180910390fd5b805181602001fd5b63150b7a0260e01b7bffffffffffffffffffffffffffffffffffffffffffffffffffffffff1916817bffffffffffffffffffffffffffffffffffffffffffffffffffffffff19161461338557836040517f64a0ae9200000000000000000000000000000000000000000000000000000000815260040161337c9190613c9f565b60405180910390fd5b505b50505050565b5f73ffffffffffffffffffffffffffffffffffffffff168273ffffffffffffffffffffffffffffffffffffffff16036133fd575f6040517f64a0ae920000000000000000000000000000000000000000000000000000000081526004016133f49190613c9f565b60405180910390fd5b5f61340983835f612de5565b90505f73ffffffffffffffffffffffffffffffffffffffff168173ffffffffffffffffffffffffffffffffffffffff161461347b575f6040517f73c6ac6e0000000000000000000000000000000000000000000000000000000081526004016134729190613c9f565b60405180910390fd5b505050565b606060405180602001604052805f815250905090565b60605f60016134a48461381b565b0190505f8167ffffffffffffffff8111156134c2576134c1613dfe565b5b6040519080825280601f01601f1916602001820160405280156134f45781602001600182028036833780820191505090505b5090505f82602001820190505b600115613555578080600190039150507f3031323334353637383961626364656600000000000000000000000000000000600a86061a8153600a858161354a57613549615396565b5b0494505f8503613501575b819350505050919050565b5f60025f8381526020019081526020015f205f9054906101000a900473ffffffffffffffffffffffffffffffffffffffff169050919050565b80806135d157505f73ffffffffffffffffffffffffffffffffffffffff168273ffffffffffffffffffffffffffffffffffffffff1614155b15613703575f6135e084612d0d565b90505f73ffffffffffffffffffffffffffffffffffffffff168373ffffffffffffffffffffffffffffffffffffffff161415801561364a57508273ffffffffffffffffffffffffffffffffffffffff168173ffffffffffffffffffffffffffffffffffffffff1614155b801561365d575061365b8184612c16565b155b1561369f57826040517fa9fbf51f0000000000000000000000000000000000000000000000000000000081526004016136969190613c9f565b60405180910390fd5b811561370157838573ffffffffffffffffffffffffffffffffffffffff168273ffffffffffffffffffffffffffffffffffffffff167f8c5be1e5ebec7d5bd14f71427d1e84f3dd0314c0f7b2291e5b200ac8c7c3b92560405160405180910390a45b505b8360045f8581526020019081526020015f205f6101000a81548173ffffffffffffffffffffffffffffffffffffffff021916908373ffffffffffffffffffffffffffffffffffffffff16021790555050505050565b61376383838361396c565b613816575f73ffffffffffffffffffffffffffffffffffffffff168373ffffffffffffffffffffffffffffffffffffffff16036137d757806040517f7e2732890000000000000000000000000000000000000000000000000000000081526004016137ce9190613fcd565b60405180910390fd5b81816040517f177e802f00000000000000000000000000000000000000000000000000000000815260040161380d9291906153c3565b60405180910390fd5b505050565b5f805f90507a184f03e93ff9f4daa797ed6e38ed64bf6a1f0100000000000000008310613877577a184f03e93ff9f4daa797ed6e38ed64bf6a1f010000000000000000838161386d5761386c615396565b5b0492506040810190505b6d04ee2d6d415b85acef810000000083106138b4576d04ee2d6d415b85acef810000000083816138aa576138a9615396565b5b0492506020810190505b662386f26fc1000083106138e357662386f26fc1000083816138d9576138d8615396565b5b0492506010810190505b6305f5e100831061390c576305f5e100838161390257613901615396565b5b0492506008810190505b612710831061393157612710838161392757613926615396565b5b0492506004810190505b60648310613954576064838161394a57613949615396565b5b0492506002810190505b600a8310613963576001810190505b80915050919050565b5f8073ffffffffffffffffffffffffffffffffffffffff168373ffffffffffffffffffffffffffffffffffffffff1614158015613a2357508273ffffffffffffffffffffffffffffffffffffffff168473ffffffffffffffffffffffffffffffffffffffff1614806139e457506139e38484612c16565b5b80613a2257508273ffffffffffffffffffffffffffffffffffffffff16613a0a83612d93565b73ffffffffffffffffffffffffffffffffffffffff16145b5b90509392505050565b5f604051905090565b5f80fd5b5f80fd5b5f7fffffffff0000000000000000000000000000000000000000000000000000000082169050919050565b613a7181613a3d565b8114613a7b575f80fd5b50565b5f81359050613a8c81613a68565b92915050565b5f60208284031215613aa757613aa6613a35565b5b5f613ab484828501613a7e565b91505092915050565b5f8115159050919050565b613ad181613abd565b82525050565b5f602082019050613aea5f830184613ac8565b92915050565b5f819050919050565b613b0281613af0565b8114613b0c575f80fd5b50565b5f81359050613b1d81613af9565b92915050565b5f73ffffffffffffffffffffffffffffffffffffffff82169050919050565b5f613b4c82613b23565b9050919050565b613b5c81613b42565b8114613b66575f80fd5b50565b5f81359050613b7781613b53565b92915050565b5f8060408385031215613b9357613b92613a35565b5b5f613ba085828601613b0f565b9250506020613bb185828601613b69565b9150509250929050565b5f81519050919050565b5f82825260208201905092915050565b5f5b83811015613bf2578082015181840152602081019050613bd7565b5f8484015250505050565b5f601f19601f8301169050919050565b5f613c1782613bbb565b613c218185613bc5565b9350613c31818560208601613bd5565b613c3a81613bfd565b840191505092915050565b5f6020820190508181035f830152613c5d8184613c0d565b905092915050565b5f60208284031215613c7a57613c79613a35565b5b5f613c8784828501613b0f565b91505092915050565b613c9981613b42565b82525050565b5f602082019050613cb25f830184613c90565b92915050565b5f8060408385031215613cce57613ccd613a35565b5b5f613cdb85828601613b69565b9250506020613cec85828601613b0f565b9150509250929050565b5f805f60608486031215613d0d57613d0c613a35565b5b5f613d1a86828701613b69565b9350506020613d2b86828701613b69565b9250506040613d3c86828701613b0f565b9150509250925092565b613d4f81613af0565b82525050565b5f61014082019050613d695f83018d613d46565b613d76602083018c613d46565b613d83604083018b613d46565b8181036060830152613d95818a613c0d565b9050613da46080830189613ac8565b613db160a0830188613c90565b613dbe60c0830187613ac8565b613dcb60e0830186613ac8565b613dd9610100830185613d46565b613de7610120830184613d46565b9b9a5050505050505050505050565b5f80fd5b5f80fd5b7f4e487b71000000000000000000000000000000000000000000000000000000005f52604160045260245ffd5b613e3482613bfd565b810181811067ffffffffffffffff82111715613e5357613e52613dfe565b5b80604052505050565b5f613e65613a2c565b9050613e718282613e2b565b919050565b5f67ffffffffffffffff821115613e9057613e8f613dfe565b5b613e9982613bfd565b9050602081019050919050565b828183375f83830152505050565b5f613ec6613ec184613e76565b613e5c565b905082815260208101848484011115613ee257613ee1613dfa565b5b613eed848285613ea6565b509392505050565b5f82601f830112613f0957613f08613df6565b5b8135613f19848260208601613eb4565b91505092915050565b5f805f8060808587031215613f3a57613f39613a35565b5b5f613f4787828801613b0f565b9450506020613f5887828801613b0f565b9350506040613f6987828801613b0f565b925050606085013567ffffffffffffffff811115613f8a57613f89613a39565b5b613f9687828801613ef5565b91505092959194509250565b5f60208284031215613fb757613fb6613a35565b5b5f613fc484828501613b69565b91505092915050565b5f602082019050613fe05f830184613d46565b92915050565b5f81519050919050565b5f82825260208201905092915050565b5f819050602082019050919050565b61401881613af0565b82525050565b5f614029838361400f565b60208301905092915050565b5f602082019050919050565b5f61404b82613fe6565b6140558185613ff0565b935061406083614000565b805f5b83811015614090578151614077888261401e565b975061408283614035565b925050600181019050614063565b5085935050505092915050565b5f6020820190508181035f8301526140b58184614041565b905092915050565b6140c681613abd565b81146140d0575f80fd5b50565b5f813590506140e1816140bd565b92915050565b5f80604083850312156140fd576140fc613a35565b5b5f61410a85828601613b69565b925050602061411b858286016140d3565b9150509250929050565b5f67ffffffffffffffff82111561413f5761413e613dfe565b5b61414882613bfd565b9050602081019050919050565b5f61416761416284614125565b613e5c565b90508281526020810184848401111561418357614182613dfa565b5b61418e848285613ea6565b509392505050565b5f82601f8301126141aa576141a9613df6565b5b81356141ba848260208601614155565b91505092915050565b5f805f80608085870312156141db576141da613a35565b5b5f6141e887828801613b69565b94505060206141f987828801613b69565b935050604061420a87828801613b0f565b925050606085013567ffffffffffffffff81111561422b5761422a613a39565b5b61423787828801614196565b91505092959194509250565b5f805f806080858703121561425b5761425a613a35565b5b5f61426887828801613b69565b945050602061427987828801613b0f565b935050604061428a87828801613b0f565b925050606085013567ffffffffffffffff8111156142ab576142aa613a39565b5b6142b787828801613ef5565b91505092959194509250565b5f80604083850312156142d9576142d8613a35565b5b5f6142e685828601613b69565b92505060206142f785828601613b69565b9150509250929050565b7f536f6c6f20756e206d616e61676572206465206573746520636f6e747261746f5f8201527f207075656465207265766f636172206f74726f206d616e616765720000000000602082015250565b5f61435b603b83613bc5565b915061436682614301565b604082019050919050565b5f6020820190508181035f8301526143888161434f565b9050919050565b7f4e487b71000000000000000000000000000000000000000000000000000000005f52602260045260245ffd5b5f60028204905060018216806143d357607f821691505b6020821081036143e6576143e561438f565b5b50919050565b7f536f6c6f20756e206d616e61676572206465206573746520636f6e747261746f5f8201527f20707565646520617369676e6172206f74726f206d616e616765720000000000602082015250565b5f614446603b83613bc5565b9150614451826143ec565b604082019050919050565b5f6020820190508181035f8301526144738161443a565b9050919050565b5f60608201905061448d5f830186613c90565b61449a6020830185613d46565b6144a76040830184613c90565b949350505050565b5f815190506144bd81613b53565b92915050565b5f602082840312156144d8576144d7613a35565b5b5f6144e5848285016144af565b91505092915050565b7f456c20746f6b656e206e6f206578697374652e000000000000000000000000005f82015250565b5f614522601383613bc5565b915061452d826144ee565b602082019050919050565b5f6020820190508181035f83015261454f81614516565b9050919050565b7f536f6c6f20756e206d616e616765722070756564652063616e63656c617220755f8201527f6e20636f6e747261746f00000000000000000000000000000000000000000000602082015250565b5f6145b0602a83613bc5565b91506145bb82614556565b604082019050919050565b5f6020820190508181035f8301526145dd816145a4565b9050919050565b7f456c20636f6e747261746f207961206861207369646f206669726d61646f00005f82015250565b5f614618601e83613bc5565b9150614623826145e4565b602082019050919050565b5f6020820190508181035f8301526146458161460c565b9050919050565b7f536f6c6f20756e206d616e616765722070756564652066696e616c697a6172205f8201527f756e20636f6e747261746f000000000000000000000000000000000000000000602082015250565b5f6146a6602b83613bc5565b91506146b18261464c565b604082019050919050565b5f6020820190508181035f8301526146d38161469a565b9050919050565b7f456c20636f6e747261746f206e6f206861207369646f206669726d61646f00005f82015250565b5f61470e601e83613bc5565b9150614719826146da565b602082019050919050565b5f6020820190508181035f83015261473b81614702565b9050919050565b7f456c20636f6e747261746f2079612068612066696e616c697a61646f000000005f82015250565b5f614776601c83613bc5565b915061478182614742565b602082019050919050565b5f6020820190508181035f8301526147a38161476a565b9050919050565b7f4e487b71000000000000000000000000000000000000000000000000000000005f52601160045260245ffd5b5f6147e182613af0565b91506147ec83613af0565b9250828201905080821115614804576148036147aa565b5b92915050565b7f456c20636f6e747261746f20796120686120657870697261646f0000000000005f82015250565b5f61483e601a83613bc5565b91506148498261480a565b602082019050919050565b5f6020820190508181035f83015261486b81614832565b9050919050565b7f536f6c6f20756e206d616e61676572207075656465206d6f64696669636172205f8201527f756e20636f6e747261746f000000000000000000000000000000000000000000602082015250565b5f6148cc602b83613bc5565b91506148d782614872565b604082019050919050565b5f6020820190508181035f8301526148f9816148c0565b9050919050565b7f456c20636f6e747261746f2068612066696e616c697a61646f000000000000005f82015250565b5f614934601983613bc5565b915061493f82614900565b602082019050919050565b5f6020820190508181035f83015261496181614928565b9050919050565b7f456c20636f6e747261746f20686120657870697261646f0000000000000000005f82015250565b5f61499c601783613bc5565b91506149a782614968565b602082019050919050565b5f6020820190508181035f8301526149c981614990565b9050919050565b5f6149da82613af0565b91506149e583613af0565b92508282039050818111156149fd576149fc6147aa565b5b92915050565b7f466f6e646f7320696e737566696369656e7465732070617261206375627269725f8201527f20656c20696e6372656d656e746f2064656c2073616c6172696f000000000000602082015250565b5f614a5d603a83613bc5565b9150614a6882614a03565b604082019050919050565b5f6020820190508181035f830152614a8a81614a51565b9050919050565b5f819050815f5260205f209050919050565b5f6020601f8301049050919050565b5f82821b905092915050565b5f60088302614aed7fffffffffffffffffffffffffffffffffffffffffffffffffffffffffffffffff82614ab2565b614af78683614ab2565b95508019841693508086168417925050509392505050565b5f819050919050565b5f614b32614b2d614b2884613af0565b614b0f565b613af0565b9050919050565b5f819050919050565b614b4b83614b18565b614b5f614b5782614b39565b848454614abe565b825550505050565b5f90565b614b73614b67565b614b7e818484614b42565b505050565b5b81811015614ba157614b965f82614b6b565b600181019050614b84565b5050565b601f821115614be657614bb781614a91565b614bc084614aa3565b81016020851015614bcf578190505b614be3614bdb85614aa3565b830182614b83565b50505b505050565b5f82821c905092915050565b5f614c065f1984600802614beb565b1980831691505092915050565b5f614c1e8383614bf7565b9150826002028217905092915050565b614c3782613bbb565b67ffffffffffffffff811115614c5057614c4f613dfe565b5b614c5a82546143bc565b614c65828285614ba5565b5f60209050601f831160018114614c96575f8415614c84578287015190505b614c8e8582614c13565b865550614cf5565b601f198416614ca486614a91565b5f5b82811015614ccb57848901518255600182019150602085019450602081019050614ca6565b86831015614ce85784890151614ce4601f891682614bf7565b8355505b6001600288020188555050505b505050505050565b7f536f6c6f20756e206d616e61676572207075656465207265616e7564617220755f8201527f6e20636f6e747261746f00000000000000000000000000000000000000000000602082015250565b5f614d57602a83613bc5565b9150614d6282614cfd565b604082019050919050565b5f6020820190508181035f830152614d8481614d4b565b9050919050565b7f456c20636f6e747261746f206e6f2065737461207061757361646f00000000005f82015250565b5f614dbf601b83613bc5565b9150614dca82614d8b565b602082019050919050565b5f6020820190508181035f830152614dec81614db3565b9050919050565b7f4e6f20707565646573206669726d61722074752070726f70696f20636f6e74725f8201527f61746f0000000000000000000000000000000000000000000000000000000000602082015250565b5f614e4d602383613bc5565b9150614e5882614df3565b604082019050919050565b5f6020820190508181035f830152614e7a81614e41565b9050919050565b7f536f6c6f20656c2074726162616a61646f72207075656465206669726d6172205f8201527f656c20636f6e747261746f000000000000000000000000000000000000000000602082015250565b5f614edb602b83613bc5565b9150614ee682614e81565b604082019050919050565b5f6020820190508181035f830152614f0881614ecf565b9050919050565b7f4465646520656e7669617220656c2073616c6172696f20636f6d6f2076616c6f5f8201527f722064656c20636f6e747261746f000000000000000000000000000000000000602082015250565b5f614f69602e83613bc5565b9150614f7482614f0f565b604082019050919050565b5f6020820190508181035f830152614f9681614f5d565b9050919050565b5f614fa782613af0565b91507fffffffffffffffffffffffffffffffffffffffffffffffffffffffffffffffff8203614fd957614fd86147aa565b5b600182019050919050565b7f536f6c6f20756e206d616e616765722070756564652070617573617220756e205f8201527f636f6e747261746f000000000000000000000000000000000000000000000000602082015250565b5f61503e602883613bc5565b915061504982614fe4565b604082019050919050565b5f6020820190508181035f83015261506b81615032565b9050919050565b7f456c20636f6e747261746f2079612065737461207061757361646f00000000005f82015250565b5f6150a6601b83613bc5565b91506150b182615072565b602082019050919050565b5f6020820190508181035f8301526150d38161509a565b9050919050565b5f81905092915050565b5f6150ee82613bbb565b6150f881856150da565b9350615108818560208601613bd5565b80840191505092915050565b5f61511f82856150e4565b915061512b82846150e4565b91508190509392505050565b7f536f6c6f20756e206d616e61676572207075656465206c69626572617220656c5f8201527f2073616c6172696f000000000000000000000000000000000000000000000000602082015250565b5f615191602883613bc5565b915061519c82615137565b604082019050919050565b5f6020820190508181035f8301526151be81615185565b9050919050565b7f456c20636f6e747261746f206e6f20686120657870697261646f2061756e206f5f8201527f206e6f2068612066696e616c697a61646f000000000000000000000000000000602082015250565b5f61521f603183613bc5565b915061522a826151c5565b604082019050919050565b5f6020820190508181035f83015261524c81615213565b9050919050565b7f456c20636f6e747261746f2065737461207061757361646f00000000000000005f82015250565b5f615287601883613bc5565b915061529282615253565b602082019050919050565b5f6020820190508181035f8301526152b48161527b565b9050919050565b5f81519050919050565b5f82825260208201905092915050565b5f6152df826152bb565b6152e981856152c5565b93506152f9818560208601613bd5565b61530281613bfd565b840191505092915050565b5f6080820190506153205f830187613c90565b61532d6020830186613c90565b61533a6040830185613d46565b818103606083015261534c81846152d5565b905095945050505050565b5f8151905061536581613a68565b92915050565b5f602082840312156153805761537f613a35565b5b5f61538d84828501615357565b91505092915050565b7f4e487b71000000000000000000000000000000000000000000000000000000005f52601260045260245ffd5b5f6040820190506153d65f830185613c90565b6153e36020830184613d46565b939250505056fea2646970667358221220f35aae7d8592847f3c158962f63ea19f7a285037ab1c48136c095b9cd2e800e364736f6c63430008140033",
  "immutableReferences": {},
  "source": "// SPDX-License-Identifier: MIT\r\npragma solidity ^0.8.20;\r\n\r\nimport \"@openzeppelin/contracts/token/ERC721/ERC721.sol\";\r\n\r\ncontract MyContract is ERC721 {\r\n    uint256 tokenID;\r\n    mapping(uint256 => mapping(address => bool)) public tokenManagers;\r\n    mapping(uint256 => ContractDetails) public contractDetails;\r\n    mapping(address => uint256[]) private contractsOwner;\r\n    mapping(address => uint256[]) private activeContractsOfWorker;\r\n    struct ContractDetails {\r\n        uint256 salary;\r\n        uint256 startDate;\r\n        uint256 duration;\r\n        string description;\r\n        bool isSigned;\r\n        address worker;\r\n        bool isFinished;\r\n        bool isPaused;\r\n        uint256 pauseTime;\r\n        uint256 pauseDuration;\r\n    }\r\n    event ContractSigned(uint256 indexed tokenId, address worker);\r\n    event SalaryReleased(uint256 indexed tokenId, uint256 salary);\r\n    event TokenMinted(uint256 tokenId);\r\n    event ContractCancelled(uint256 indexed tokenId);\r\n\r\n    constructor() ERC721(\"MyToken\", \"MTK\") {}\r\n\r\n    function mint(\r\n        address _to,\r\n        uint256 _salary,\r\n        uint256 _duration,\r\n        string memory _description\r\n    ) public payable returns (uint256) {\r\n        require(\r\n            msg.value >= _salary,\r\n            \"Dede enviar el salario como valor del contrato\"\r\n        );\r\n        tokenID++;\r\n        _mint(msg.sender, tokenID);\r\n        uint256 remainder = msg.value - _salary;\r\n        if (remainder > 0) {\r\n            payable(msg.sender).transfer(remainder);\r\n        }\r\n\r\n        ContractDetails memory newContract = ContractDetails({\r\n            salary: _salary,\r\n            startDate: block.timestamp, // en segundos\r\n            duration: _duration,\r\n            description: _description,\r\n            isSigned: false,\r\n            worker: _to,\r\n            isFinished: false,\r\n            isPaused: false,\r\n            pauseTime: 0,\r\n            pauseDuration: 0\r\n        });\r\n\r\n        contractDetails[tokenID] = newContract;\r\n        tokenManagers[tokenID][msg.sender] = true;\r\n        contractsOwner[msg.sender].push(tokenID);\r\n        emit TokenMinted(tokenID);\r\n\r\n        return tokenID;\r\n    }\r\n\r\n    function signContract(uint256 _tokenID) public {\r\n        try this.ownerOf(_tokenID) {} catch {\r\n            revert(\"El token no existe.\"); // he intentado hacerlo con _exists pero no me ha funcionado\r\n        }\r\n        require(\r\n            tokenManagers[tokenID][msg.sender] == false,\r\n            \"No puedes firmar tu propio contrato\"\r\n        );\r\n        require(\r\n            msg.sender == contractDetails[_tokenID].worker,\r\n            \"Solo el trabajador puede firmar el contrato\"\r\n        );\r\n        require(\r\n            !contractDetails[_tokenID].isSigned,\r\n            \"El contrato ya ha sido firmado\"\r\n        );\r\n        require(\r\n            contractDetails[_tokenID].isFinished == false,\r\n            \"El contrato ha finalizado\"\r\n        );\r\n        require(\r\n            contractDetails[_tokenID].startDate +\r\n                contractDetails[_tokenID].duration >=\r\n                block.timestamp,\r\n            \"El contrato ha expirado\"\r\n        );\r\n\r\n        contractDetails[_tokenID].isSigned = true;\r\n        contractDetails[_tokenID].worker = msg.sender;\r\n        activeContractsOfWorker[msg.sender].push(_tokenID);\r\n        emit ContractSigned(_tokenID, msg.sender);\r\n    }\r\n\r\n    function releaseSalary(uint256 _tokenID) public payable {\r\n        try this.ownerOf(_tokenID) {} catch {\r\n            revert(\"El token no existe.\"); // he intentado hacerlo con _exists pero no me ha funcionado\r\n        }\r\n        require(\r\n            contractDetails[_tokenID].isSigned,\r\n            \"El contrato no ha sido firmado\"\r\n        );\r\n        require(\r\n            tokenManagers[tokenID][msg.sender] == true,\r\n            \"Solo un manager puede liberar el salario\"\r\n        );\r\n        require(\r\n            contractDetails[_tokenID].isFinished == true ||\r\n                contractDetails[_tokenID].startDate +\r\n                    contractDetails[_tokenID].duration <=\r\n                block.timestamp,\r\n            \"El contrato no ha expirado aun o no ha finalizado\"\r\n        );\r\n        require(\r\n            contractDetails[_tokenID].isPaused == false,\r\n            \"El contrato esta pausado\"\r\n        );\r\n\r\n        address payable worker = payable(contractDetails[_tokenID].worker);\r\n        uint256 salary = contractDetails[_tokenID].salary;\r\n        worker.transfer(salary);\r\n        emit SalaryReleased(_tokenID, salary);\r\n    }\r\n\r\n    function finalizeContract(uint256 _tokenID) public {\r\n        try this.ownerOf(_tokenID) {} catch {\r\n            revert(\"El token no existe.\"); // he intentado hacerlo con _exists pero no me ha funcionado\r\n        }\r\n        require(\r\n            tokenManagers[tokenID][msg.sender] == true,\r\n            \"Solo un manager puede finalizar un contrato\"\r\n        );\r\n        require(\r\n            contractDetails[_tokenID].isSigned,\r\n            \"El contrato no ha sido firmado\"\r\n        );\r\n        require(\r\n            contractDetails[_tokenID].isFinished == false,\r\n            \"El contrato ya ha finalizado\"\r\n        );\r\n        require(\r\n            contractDetails[_tokenID].startDate +\r\n                contractDetails[_tokenID].duration >\r\n                block.timestamp,\r\n            \"El contrato ya ha expirado\"\r\n        );\r\n\r\n        contractDetails[_tokenID].isFinished = true;\r\n    }\r\n\r\n    function pauseContract(uint256 _tokenID) public {\r\n        try this.ownerOf(_tokenID) {} catch {\r\n            revert(\"El token no existe.\"); // he intentado hacerlo con _exists pero no me ha funcionado\r\n        }\r\n        require(\r\n            tokenManagers[tokenID][msg.sender] == true,\r\n            \"Solo un manager puede pausar un contrato\"\r\n        );\r\n        require(\r\n            contractDetails[_tokenID].isSigned,\r\n            \"El contrato no ha sido firmado\"\r\n        );\r\n        require(\r\n            contractDetails[_tokenID].startDate +\r\n                contractDetails[_tokenID].duration >=\r\n                block.timestamp,\r\n            \"El contrato ha expirado\"\r\n        );\r\n        require(\r\n            !contractDetails[_tokenID].isPaused,\r\n            \"El contrato ya esta pausado\"\r\n        );\r\n\r\n        contractDetails[_tokenID].isPaused = true;\r\n        contractDetails[_tokenID].pauseTime = block.timestamp;\r\n    }\r\n\r\n    function unPauseContract(uint256 _tokenID) public {\r\n        try this.ownerOf(_tokenID) {} catch {\r\n            revert(\"El token no existe.\"); // he intentado hacerlo con _exists pero no me ha funcionado\r\n        }\r\n        require(\r\n            tokenManagers[tokenID][msg.sender] == true,\r\n            \"Solo un manager puede reanudar un contrato\"\r\n        );\r\n        require(\r\n            contractDetails[_tokenID].isSigned,\r\n            \"El contrato no ha sido firmado\"\r\n        );\r\n        require(\r\n            contractDetails[_tokenID].isPaused,\r\n            \"El contrato no esta pausado\"\r\n        );\r\n\r\n        contractDetails[_tokenID].pauseDuration =\r\n            block.timestamp -\r\n            contractDetails[_tokenID].pauseTime;\r\n\r\n        contractDetails[_tokenID].duration += contractDetails[_tokenID]\r\n            .pauseDuration;\r\n\r\n        contractDetails[_tokenID].pauseTime = 0;\r\n        contractDetails[_tokenID].isPaused = false;\r\n    }\r\n\r\n    function cancelContract(uint256 _tokenID) public {\r\n        try this.ownerOf(_tokenID) {} catch {\r\n            revert(\"El token no existe.\"); // he intentado hacerlo con _exists pero no me ha funcionado\r\n        }\r\n        require(\r\n            tokenManagers[tokenID][msg.sender] == true,\r\n            \"Solo un manager puede cancelar un contrato\"\r\n        );\r\n        require(\r\n            !contractDetails[_tokenID].isSigned,\r\n            \"El contrato ya ha sido firmado\"\r\n        );\r\n\r\n        address payable owner = payable(msg.sender);\r\n        uint256 salary = contractDetails[_tokenID].salary;\r\n        owner.transfer(salary);\r\n        _burn(_tokenID);\r\n        emit ContractCancelled(_tokenID);\r\n    }\r\n\r\n    function assignManagerToToken(\r\n        uint256 _tokenId,\r\n        address _newManager\r\n    ) public {\r\n        require(\r\n            tokenManagers[_tokenId][msg.sender],\r\n            \"Solo un manager de este contrato puede asignar otro manager\"\r\n        );\r\n        tokenManagers[_tokenId][_newManager] = true;\r\n        contractsOwner[_newManager].push(tokenID);\r\n    }\r\n\r\n    function revokeManagerFromToken(uint256 _tokenId, address _manager) public {\r\n        require(\r\n            tokenManagers[_tokenId][msg.sender],\r\n            \"Solo un manager de este contrato puede revocar otro manager\"\r\n        );\r\n        tokenManagers[_tokenId][_manager] = false;\r\n    }\r\n\r\n    function isManagerOfToken(\r\n        uint256 _tokenId,\r\n        address _manager\r\n    ) public view returns (bool) {\r\n        return tokenManagers[_tokenId][_manager];\r\n    }\r\n\r\n    //Funcion para modificar un contrato que no haya sido firmado\r\n    function modifyContract(\r\n        uint256 _tokenID,\r\n        uint256 _salary,\r\n        uint256 _duration,\r\n        string memory _description\r\n    ) public payable {\r\n        try this.ownerOf(_tokenID) {} catch {\r\n            revert(\"El token no existe.\"); // he intentado hacerlo con _exists pero no me ha funcionado\r\n        }\r\n        require(\r\n            tokenManagers[tokenID][msg.sender] == true,\r\n            \"Solo un manager puede modificar un contrato\"\r\n        );\r\n        require(\r\n            !contractDetails[_tokenID].isSigned,\r\n            \"El contrato ya ha sido firmado\"\r\n        );\r\n        require(\r\n            contractDetails[_tokenID].isFinished == false,\r\n            \"El contrato ha finalizado\"\r\n        );\r\n        require(\r\n            contractDetails[_tokenID].startDate +\r\n                contractDetails[_tokenID].duration >=\r\n                block.timestamp,\r\n            \"El contrato ha expirado\"\r\n        );\r\n\r\n        uint256 currentSalary = contractDetails[_tokenID].salary;\r\n\r\n        if (_salary > currentSalary) {\r\n            uint256 salaryDifference = _salary - currentSalary;\r\n            require(\r\n                msg.value >= salaryDifference,\r\n                \"Fondos insuficientes para cubrir el incremento del salario\"\r\n            );\r\n\r\n            uint256 excessAmount = msg.value - salaryDifference;\r\n            if (excessAmount > 0) {\r\n                payable(msg.sender).transfer(excessAmount);\r\n            }\r\n        } else if (_salary < currentSalary) {\r\n            uint256 refundAmount = currentSalary - _salary;\r\n            payable(msg.sender).transfer(refundAmount);\r\n        }\r\n\r\n        contractDetails[_tokenID].salary = _salary;\r\n        contractDetails[_tokenID].duration = _duration;\r\n        contractDetails[_tokenID].description = _description;\r\n    }\r\n\r\n    function getContractsFromOwner(\r\n        address _address\r\n    ) public view returns (uint256[] memory) {\r\n        return contractsOwner[_address];\r\n    }\r\n\r\n    function getContractsOfWorker(\r\n        address _address\r\n    ) public view returns (uint256[] memory) {\r\n        return activeContractsOfWorker[_address];\r\n    }\r\n\r\n    function isContractPaused(uint256 _tokenID) public view returns (bool) {\r\n        return contractDetails[_tokenID].isPaused;\r\n    }\r\n\r\n    function isContractSigned(uint256 _tokenID) public view returns (bool) {\r\n        return contractDetails[_tokenID].isSigned;\r\n    }\r\n\r\n    function isContractFinished(uint256 _tokenID) public view returns (bool) {\r\n        return contractDetails[_tokenID].isFinished;\r\n    }\r\n}\r\n",
  "sourcePath": "E:\\AppContract\\ubu-contractme\\Code\\SmartContract\\contracts\\MyContract.sol",
  "compiler": {
    "name": "solc",
    "version": "0.8.20+commit.a1b79de6.Emscripten.clang"
  },
  "schemaVersion": "3.4.16",
  "updatedAt": "2024-01-19T20:47:26.174Z",
  "networkType": "ethereum",
  "devdoc": {
    "errors": {
      "ERC721IncorrectOwner(address,uint256,address)": [
        {
          "details": "Indicates an error related to the ownership over a particular token. Used in transfers.",
          "params": {
            "owner": "Address of the current owner of a token.",
            "sender": "Address whose tokens are being transferred.",
            "tokenId": "Identifier number of a token."
          }
        }
      ],
      "ERC721InsufficientApproval(address,uint256)": [
        {
          "details": "Indicates a failure with the `operator`s approval. Used in transfers.",
          "params": {
            "operator": "Address that may be allowed to operate on tokens without being their owner.",
            "tokenId": "Identifier number of a token."
          }
        }
      ],
      "ERC721InvalidApprover(address)": [
        {
          "details": "Indicates a failure with the `approver` of a token to be approved. Used in approvals.",
          "params": {
            "approver": "Address initiating an approval operation."
          }
        }
      ],
      "ERC721InvalidOperator(address)": [
        {
          "details": "Indicates a failure with the `operator` to be approved. Used in approvals.",
          "params": {
            "operator": "Address that may be allowed to operate on tokens without being their owner."
          }
        }
      ],
      "ERC721InvalidOwner(address)": [
        {
          "details": "Indicates that an address can't be an owner. For example, `address(0)` is a forbidden owner in EIP-20. Used in balance queries.",
          "params": {
            "owner": "Address of the current owner of a token."
          }
        }
      ],
      "ERC721InvalidReceiver(address)": [
        {
          "details": "Indicates a failure with the token `receiver`. Used in transfers.",
          "params": {
            "receiver": "Address to which tokens are being transferred."
          }
        }
      ],
      "ERC721InvalidSender(address)": [
        {
          "details": "Indicates a failure with the token `sender`. Used in transfers.",
          "params": {
            "sender": "Address whose tokens are being transferred."
          }
        }
      ],
      "ERC721NonexistentToken(uint256)": [
        {
          "details": "Indicates a `tokenId` whose `owner` is the zero address.",
          "params": {
            "tokenId": "Identifier number of a token."
          }
        }
      ]
    },
    "events": {
      "Approval(address,address,uint256)": {
        "details": "Emitted when `owner` enables `approved` to manage the `tokenId` token."
      },
      "ApprovalForAll(address,address,bool)": {
        "details": "Emitted when `owner` enables or disables (`approved`) `operator` to manage all of its assets."
      },
      "Transfer(address,address,uint256)": {
        "details": "Emitted when `tokenId` token is transferred from `from` to `to`."
      }
    },
    "kind": "dev",
    "methods": {
      "approve(address,uint256)": {
        "details": "See {IERC721-approve}."
      },
      "balanceOf(address)": {
        "details": "See {IERC721-balanceOf}."
      },
      "getApproved(uint256)": {
        "details": "See {IERC721-getApproved}."
      },
      "isApprovedForAll(address,address)": {
        "details": "See {IERC721-isApprovedForAll}."
      },
      "name()": {
        "details": "See {IERC721Metadata-name}."
      },
      "ownerOf(uint256)": {
        "details": "See {IERC721-ownerOf}."
      },
      "safeTransferFrom(address,address,uint256)": {
        "details": "See {IERC721-safeTransferFrom}."
      },
      "safeTransferFrom(address,address,uint256,bytes)": {
        "details": "See {IERC721-safeTransferFrom}."
      },
      "setApprovalForAll(address,bool)": {
        "details": "See {IERC721-setApprovalForAll}."
      },
      "supportsInterface(bytes4)": {
        "details": "See {IERC165-supportsInterface}."
      },
      "symbol()": {
        "details": "See {IERC721Metadata-symbol}."
      },
      "tokenURI(uint256)": {
        "details": "See {IERC721Metadata-tokenURI}."
      },
      "transferFrom(address,address,uint256)": {
        "details": "See {IERC721-transferFrom}."
      }
    },
    "version": 1
  },
  "userdoc": {
    "kind": "user",
    "methods": {},
    "version": 1
  }
}