{
  "contractName": "MyContractAux",
  "abi": [
    {
      "inputs": [
        {
          "internalType": "address",
          "name": "sender",
          "type": "address"
        },
        {
          "internalType": "uint256",
          "name": "tokenId",
          "type": "uint256"
        },
        {
          "internalType": "address",
          "name": "owner",
          "type": "address"
        }
      ],
      "name": "ERC721IncorrectOwner",
      "type": "error"
    },
    {
      "inputs": [
        {
          "internalType": "address",
          "name": "operator",
          "type": "address"
        },
        {
          "internalType": "uint256",
          "name": "tokenId",
          "type": "uint256"
        }
      ],
      "name": "ERC721InsufficientApproval",
      "type": "error"
    },
    {
      "inputs": [
        {
          "internalType": "address",
          "name": "approver",
          "type": "address"
        }
      ],
      "name": "ERC721InvalidApprover",
      "type": "error"
    },
    {
      "inputs": [
        {
          "internalType": "address",
          "name": "operator",
          "type": "address"
        }
      ],
      "name": "ERC721InvalidOperator",
      "type": "error"
    },
    {
      "inputs": [
        {
          "internalType": "address",
          "name": "owner",
          "type": "address"
        }
      ],
      "name": "ERC721InvalidOwner",
      "type": "error"
    },
    {
      "inputs": [
        {
          "internalType": "address",
          "name": "receiver",
          "type": "address"
        }
      ],
      "name": "ERC721InvalidReceiver",
      "type": "error"
    },
    {
      "inputs": [
        {
          "internalType": "address",
          "name": "sender",
          "type": "address"
        }
      ],
      "name": "ERC721InvalidSender",
      "type": "error"
    },
    {
      "inputs": [
        {
          "internalType": "uint256",
          "name": "tokenId",
          "type": "uint256"
        }
      ],
      "name": "ERC721NonexistentToken",
      "type": "error"
    },
    {
      "anonymous": false,
      "inputs": [
        {
          "indexed": true,
          "internalType": "address",
          "name": "owner",
          "type": "address"
        },
        {
          "indexed": true,
          "internalType": "address",
          "name": "approved",
          "type": "address"
        },
        {
          "indexed": true,
          "internalType": "uint256",
          "name": "tokenId",
          "type": "uint256"
        }
      ],
      "name": "Approval",
      "type": "event"
    },
    {
      "anonymous": false,
      "inputs": [
        {
          "indexed": true,
          "internalType": "uint256",
          "name": "tokenId",
          "type": "uint256"
        },
        {
          "indexed": true,
          "internalType": "address",
          "name": "employer",
          "type": "address"
        },
        {
          "indexed": true,
          "internalType": "address",
          "name": "worker",
          "type": "address"
        },
        {
          "indexed": false,
          "internalType": "uint256",
          "name": "salary",
          "type": "uint256"
        },
        {
          "indexed": false,
          "internalType": "uint256",
          "name": "newSalary",
          "type": "uint256"
        },
        {
          "indexed": false,
          "internalType": "uint256",
          "name": "timestamp",
          "type": "uint256"
        }
      ],
      "name": "ApprovalChanges",
      "type": "event"
    },
    {
      "anonymous": false,
      "inputs": [
        {
          "indexed": true,
          "internalType": "address",
          "name": "owner",
          "type": "address"
        },
        {
          "indexed": true,
          "internalType": "address",
          "name": "operator",
          "type": "address"
        },
        {
          "indexed": false,
          "internalType": "bool",
          "name": "approved",
          "type": "bool"
        }
      ],
      "name": "ApprovalForAll",
      "type": "event"
    },
    {
      "anonymous": false,
      "inputs": [
        {
          "indexed": true,
          "internalType": "uint256",
          "name": "tokenId",
          "type": "uint256"
        },
        {
          "indexed": true,
          "internalType": "address",
          "name": "employer",
          "type": "address"
        },
        {
          "indexed": true,
          "internalType": "address",
          "name": "worker",
          "type": "address"
        },
        {
          "indexed": false,
          "internalType": "uint256",
          "name": "salary",
          "type": "uint256"
        },
        {
          "indexed": false,
          "internalType": "uint256",
          "name": "newSalary",
          "type": "uint256"
        },
        {
          "indexed": false,
          "internalType": "uint256",
          "name": "timestamp",
          "type": "uint256"
        }
      ],
      "name": "ChangeProposed",
      "type": "event"
    },
    {
      "anonymous": false,
      "inputs": [
        {
          "indexed": true,
          "internalType": "uint256",
          "name": "tokenId",
          "type": "uint256"
        },
        {
          "indexed": true,
          "internalType": "address",
          "name": "employer",
          "type": "address"
        },
        {
          "indexed": true,
          "internalType": "address",
          "name": "worker",
          "type": "address"
        },
        {
          "indexed": false,
          "internalType": "uint256",
          "name": "salary",
          "type": "uint256"
        },
        {
          "indexed": false,
          "internalType": "uint256",
          "name": "timestamp",
          "type": "uint256"
        }
      ],
      "name": "ContractCancelled",
      "type": "event"
    },
    {
      "anonymous": false,
      "inputs": [
        {
          "indexed": true,
          "internalType": "uint256",
          "name": "tokenId",
          "type": "uint256"
        },
        {
          "indexed": true,
          "internalType": "address",
          "name": "employer",
          "type": "address"
        },
        {
          "indexed": true,
          "internalType": "address",
          "name": "worker",
          "type": "address"
        },
        {
          "indexed": false,
          "internalType": "uint256",
          "name": "timestamp",
          "type": "uint256"
        }
      ],
      "name": "ContractFinalized",
      "type": "event"
    },
    {
      "anonymous": false,
      "inputs": [
        {
          "indexed": true,
          "internalType": "uint256",
          "name": "tokenId",
          "type": "uint256"
        },
        {
          "indexed": true,
          "internalType": "address",
          "name": "employer",
          "type": "address"
        },
        {
          "indexed": true,
          "internalType": "address",
          "name": "worker",
          "type": "address"
        },
        {
          "indexed": false,
          "internalType": "uint256",
          "name": "timestamp",
          "type": "uint256"
        }
      ],
      "name": "ContractSigned",
      "type": "event"
    },
    {
      "anonymous": false,
      "inputs": [
        {
          "indexed": true,
          "internalType": "uint256",
          "name": "tokenId",
          "type": "uint256"
        },
        {
          "indexed": true,
          "internalType": "address",
          "name": "employer",
          "type": "address"
        },
        {
          "indexed": true,
          "internalType": "address",
          "name": "worker",
          "type": "address"
        },
        {
          "indexed": false,
          "internalType": "uint256",
          "name": "newSalary",
          "type": "uint256"
        },
        {
          "indexed": false,
          "internalType": "uint256",
          "name": "timestamp",
          "type": "uint256"
        }
      ],
      "name": "RejectChanges",
      "type": "event"
    },
    {
      "anonymous": false,
      "inputs": [
        {
          "indexed": true,
          "internalType": "uint256",
          "name": "tokenId",
          "type": "uint256"
        },
        {
          "indexed": false,
          "internalType": "uint256",
          "name": "salary",
          "type": "uint256"
        },
        {
          "indexed": true,
          "internalType": "address",
          "name": "employer",
          "type": "address"
        },
        {
          "indexed": true,
          "internalType": "address",
          "name": "worker",
          "type": "address"
        },
        {
          "indexed": false,
          "internalType": "uint256",
          "name": "timestamp",
          "type": "uint256"
        }
      ],
      "name": "SalaryReleased",
      "type": "event"
    },
    {
      "anonymous": false,
      "inputs": [
        {
          "indexed": false,
          "internalType": "uint256",
          "name": "tokenId",
          "type": "uint256"
        },
        {
          "indexed": true,
          "internalType": "address",
          "name": "employer",
          "type": "address"
        },
        {
          "indexed": true,
          "internalType": "address",
          "name": "worker",
          "type": "address"
        },
        {
          "indexed": false,
          "internalType": "uint256",
          "name": "salary",
          "type": "uint256"
        },
        {
          "indexed": false,
          "internalType": "uint256",
          "name": "timestamp",
          "type": "uint256"
        }
      ],
      "name": "TokenMinted",
      "type": "event"
    },
    {
      "anonymous": false,
      "inputs": [
        {
          "indexed": true,
          "internalType": "address",
          "name": "from",
          "type": "address"
        },
        {
          "indexed": true,
          "internalType": "address",
          "name": "to",
          "type": "address"
        },
        {
          "indexed": true,
          "internalType": "uint256",
          "name": "tokenId",
          "type": "uint256"
        }
      ],
      "name": "Transfer",
      "type": "event"
    },
    {
      "inputs": [
        {
          "internalType": "address",
          "name": "",
          "type": "address"
        },
        {
          "internalType": "uint256",
          "name": "",
          "type": "uint256"
        }
      ],
      "name": "activeContractsOfWorker",
      "outputs": [
        {
          "internalType": "uint256",
          "name": "",
          "type": "uint256"
        }
      ],
      "stateMutability": "view",
      "type": "function",
      "constant": true
    },
    {
      "inputs": [
        {
          "internalType": "uint256",
          "name": "_tokenID",
          "type": "uint256"
        }
      ],
      "name": "applyChange",
      "outputs": [],
      "stateMutability": "payable",
      "type": "function",
      "payable": true
    },
    {
      "inputs": [
        {
          "internalType": "address",
          "name": "to",
          "type": "address"
        },
        {
          "internalType": "uint256",
          "name": "tokenId",
          "type": "uint256"
        }
      ],
      "name": "approve",
      "outputs": [],
      "stateMutability": "nonpayable",
      "type": "function"
    },
    {
      "inputs": [
        {
          "internalType": "uint256",
          "name": "_tokenID",
          "type": "uint256"
        },
        {
          "internalType": "address",
          "name": "_newManager",
          "type": "address"
        }
      ],
      "name": "assignManagerToToken",
      "outputs": [],
      "stateMutability": "nonpayable",
      "type": "function"
    },
    {
      "inputs": [
        {
          "internalType": "address",
          "name": "owner",
          "type": "address"
        }
      ],
      "name": "balanceOf",
      "outputs": [
        {
          "internalType": "uint256",
          "name": "",
          "type": "uint256"
        }
      ],
      "stateMutability": "view",
      "type": "function",
      "constant": true
    },
    {
      "inputs": [
        {
          "internalType": "uint256",
          "name": "_tokenID",
          "type": "uint256"
        }
      ],
      "name": "cancelContract",
      "outputs": [],
      "stateMutability": "nonpayable",
      "type": "function"
    },
    {
      "inputs": [
        {
          "internalType": "uint256",
          "name": "",
          "type": "uint256"
        }
      ],
      "name": "changeProposals",
      "outputs": [
        {
          "internalType": "string",
          "name": "newTitle",
          "type": "string"
        },
        {
          "internalType": "uint256",
          "name": "newSalary",
          "type": "uint256"
        },
        {
          "internalType": "uint256",
          "name": "newDuration",
          "type": "uint256"
        },
        {
          "internalType": "string",
          "name": "newDescription",
          "type": "string"
        },
        {
          "internalType": "bool",
          "name": "isPaused",
          "type": "bool"
        },
        {
          "internalType": "bool",
          "name": "isPending",
          "type": "bool"
        }
      ],
      "stateMutability": "view",
      "type": "function",
      "constant": true
    },
    {
      "inputs": [
        {
          "internalType": "uint256",
          "name": "",
          "type": "uint256"
        }
      ],
      "name": "contractDetails",
      "outputs": [
        {
          "internalType": "uint256",
          "name": "salary",
          "type": "uint256"
        },
        {
          "internalType": "uint256",
          "name": "startDate",
          "type": "uint256"
        },
        {
          "internalType": "uint256",
          "name": "duration",
          "type": "uint256"
        },
        {
          "internalType": "string",
          "name": "title",
          "type": "string"
        },
        {
          "internalType": "string",
          "name": "description",
          "type": "string"
        },
        {
          "internalType": "bool",
          "name": "isSigned",
          "type": "bool"
        },
        {
          "internalType": "address",
          "name": "worker",
          "type": "address"
        },
        {
          "internalType": "bool",
          "name": "isFinished",
          "type": "bool"
        },
        {
          "internalType": "bool",
          "name": "isReleased",
          "type": "bool"
        },
        {
          "internalType": "bool",
          "name": "isPaused",
          "type": "bool"
        },
        {
          "internalType": "uint256",
          "name": "pauseTime",
          "type": "uint256"
        },
        {
          "internalType": "uint256",
          "name": "pauseDuration",
          "type": "uint256"
        }
      ],
      "stateMutability": "view",
      "type": "function",
      "constant": true
    },
    {
      "inputs": [
        {
          "internalType": "address",
          "name": "",
          "type": "address"
        },
        {
          "internalType": "uint256",
          "name": "",
          "type": "uint256"
        }
      ],
      "name": "contractsOwner",
      "outputs": [
        {
          "internalType": "uint256",
          "name": "",
          "type": "uint256"
        }
      ],
      "stateMutability": "view",
      "type": "function",
      "constant": true
    },
    {
      "inputs": [
        {
          "internalType": "uint256",
          "name": "_tokenID",
          "type": "uint256"
        }
      ],
      "name": "finalizeContract",
      "outputs": [],
      "stateMutability": "nonpayable",
      "type": "function"
    },
    {
      "inputs": [
        {
          "internalType": "uint256",
          "name": "tokenId",
          "type": "uint256"
        }
      ],
      "name": "getApproved",
      "outputs": [
        {
          "internalType": "address",
          "name": "",
          "type": "address"
        }
      ],
      "stateMutability": "view",
      "type": "function",
      "constant": true
    },
    {
      "inputs": [
        {
          "internalType": "address",
          "name": "owner",
          "type": "address"
        },
        {
          "internalType": "address",
          "name": "operator",
          "type": "address"
        }
      ],
      "name": "isApprovedForAll",
      "outputs": [
        {
          "internalType": "bool",
          "name": "",
          "type": "bool"
        }
      ],
      "stateMutability": "view",
      "type": "function",
      "constant": true
    },
    {
      "inputs": [
        {
          "internalType": "uint256",
          "name": "_tokenID",
          "type": "uint256"
        }
      ],
      "name": "isContractFinished",
      "outputs": [
        {
          "internalType": "bool",
          "name": "",
          "type": "bool"
        }
      ],
      "stateMutability": "view",
      "type": "function",
      "constant": true
    },
    {
      "inputs": [
        {
          "internalType": "address",
          "name": "_to",
          "type": "address"
        },
        {
          "internalType": "uint256",
          "name": "_salary",
          "type": "uint256"
        },
        {
          "internalType": "uint256",
          "name": "_start",
          "type": "uint256"
        },
        {
          "internalType": "uint256",
          "name": "_duration",
          "type": "uint256"
        },
        {
          "internalType": "string",
          "name": "_description",
          "type": "string"
        },
        {
          "internalType": "string",
          "name": "_title",
          "type": "string"
        }
      ],
      "name": "mint",
      "outputs": [
        {
          "internalType": "uint256",
          "name": "",
          "type": "uint256"
        }
      ],
      "stateMutability": "payable",
      "type": "function",
      "payable": true
    },
    {
      "inputs": [],
      "name": "name",
      "outputs": [
        {
          "internalType": "string",
          "name": "",
          "type": "string"
        }
      ],
      "stateMutability": "view",
      "type": "function",
      "constant": true
    },
    {
      "inputs": [
        {
          "internalType": "uint256",
          "name": "tokenId",
          "type": "uint256"
        }
      ],
      "name": "ownerOf",
      "outputs": [
        {
          "internalType": "address",
          "name": "",
          "type": "address"
        }
      ],
      "stateMutability": "view",
      "type": "function",
      "constant": true
    },
    {
      "inputs": [
        {
          "internalType": "uint256",
          "name": "_tokenID",
          "type": "uint256"
        }
      ],
      "name": "pauseContract",
      "outputs": [],
      "stateMutability": "nonpayable",
      "type": "function"
    },
    {
      "inputs": [
        {
          "internalType": "uint256",
          "name": "_tokenID",
          "type": "uint256"
        }
      ],
      "name": "releaseSalary",
      "outputs": [],
      "stateMutability": "payable",
      "type": "function",
      "payable": true
    },
    {
      "inputs": [
        {
          "internalType": "address",
          "name": "from",
          "type": "address"
        },
        {
          "internalType": "address",
          "name": "to",
          "type": "address"
        },
        {
          "internalType": "uint256",
          "name": "tokenId",
          "type": "uint256"
        }
      ],
      "name": "safeTransferFrom",
      "outputs": [],
      "stateMutability": "nonpayable",
      "type": "function"
    },
    {
      "inputs": [
        {
          "internalType": "address",
          "name": "from",
          "type": "address"
        },
        {
          "internalType": "address",
          "name": "to",
          "type": "address"
        },
        {
          "internalType": "uint256",
          "name": "tokenId",
          "type": "uint256"
        },
        {
          "internalType": "bytes",
          "name": "data",
          "type": "bytes"
        }
      ],
      "name": "safeTransferFrom",
      "outputs": [],
      "stateMutability": "nonpayable",
      "type": "function"
    },
    {
      "inputs": [
        {
          "internalType": "address",
          "name": "operator",
          "type": "address"
        },
        {
          "internalType": "bool",
          "name": "approved",
          "type": "bool"
        }
      ],
      "name": "setApprovalForAll",
      "outputs": [],
      "stateMutability": "nonpayable",
      "type": "function"
    },
    {
      "inputs": [
        {
          "internalType": "uint256",
          "name": "_tokenID",
          "type": "uint256"
        }
      ],
      "name": "signContract",
      "outputs": [],
      "stateMutability": "nonpayable",
      "type": "function"
    },
    {
      "inputs": [
        {
          "internalType": "bytes4",
          "name": "interfaceId",
          "type": "bytes4"
        }
      ],
      "name": "supportsInterface",
      "outputs": [
        {
          "internalType": "bool",
          "name": "",
          "type": "bool"
        }
      ],
      "stateMutability": "view",
      "type": "function",
      "constant": true
    },
    {
      "inputs": [],
      "name": "symbol",
      "outputs": [
        {
          "internalType": "string",
          "name": "",
          "type": "string"
        }
      ],
      "stateMutability": "view",
      "type": "function",
      "constant": true
    },
    {
      "inputs": [],
      "name": "tokenID",
      "outputs": [
        {
          "internalType": "uint256",
          "name": "",
          "type": "uint256"
        }
      ],
      "stateMutability": "view",
      "type": "function",
      "constant": true
    },
    {
      "inputs": [
        {
          "internalType": "uint256",
          "name": "",
          "type": "uint256"
        },
        {
          "internalType": "address",
          "name": "",
          "type": "address"
        }
      ],
      "name": "tokenManagers",
      "outputs": [
        {
          "internalType": "bool",
          "name": "",
          "type": "bool"
        }
      ],
      "stateMutability": "view",
      "type": "function",
      "constant": true
    },
    {
      "inputs": [
        {
          "internalType": "uint256",
          "name": "",
          "type": "uint256"
        },
        {
          "internalType": "uint256",
          "name": "",
          "type": "uint256"
        }
      ],
      "name": "tokenManagersList",
      "outputs": [
        {
          "internalType": "address",
          "name": "",
          "type": "address"
        }
      ],
      "stateMutability": "view",
      "type": "function",
      "constant": true
    },
    {
      "inputs": [
        {
          "internalType": "uint256",
          "name": "tokenId",
          "type": "uint256"
        }
      ],
      "name": "tokenURI",
      "outputs": [
        {
          "internalType": "string",
          "name": "",
          "type": "string"
        }
      ],
      "stateMutability": "view",
      "type": "function",
      "constant": true
    },
    {
      "inputs": [
        {
          "internalType": "address",
          "name": "from",
          "type": "address"
        },
        {
          "internalType": "address",
          "name": "to",
          "type": "address"
        },
        {
          "internalType": "uint256",
          "name": "tokenId",
          "type": "uint256"
        }
      ],
      "name": "transferFrom",
      "outputs": [],
      "stateMutability": "nonpayable",
      "type": "function"
    },
    {
      "inputs": [
        {
          "internalType": "uint256",
          "name": "_tokenID",
          "type": "uint256"
        }
      ],
      "name": "unPauseContract",
      "outputs": [],
      "stateMutability": "nonpayable",
      "type": "function"
    },
    {
      "inputs": [
        {
          "internalType": "address",
          "name": "",
          "type": "address"
        },
        {
          "internalType": "uint256",
          "name": "",
          "type": "uint256"
        }
      ],
      "name": "unsignedContractsOfWorker",
      "outputs": [
        {
          "internalType": "uint256",
          "name": "",
          "type": "uint256"
        }
      ],
      "stateMutability": "view",
      "type": "function",
      "constant": true
    },
    {
      "inputs": [
        {
          "internalType": "uint256",
          "name": "_tokenId",
          "type": "uint256"
        }
      ],
      "name": "getManagersOfToken",
      "outputs": [
        {
          "internalType": "address[]",
          "name": "",
          "type": "address[]"
        }
      ],
      "stateMutability": "view",
      "type": "function",
      "constant": true
    },
    {
      "inputs": [
        {
          "internalType": "uint256",
          "name": "_tokenId",
          "type": "uint256"
        },
        {
          "internalType": "address",
          "name": "_manager",
          "type": "address"
        }
      ],
      "name": "isManagerOfToken",
      "outputs": [
        {
          "internalType": "bool",
          "name": "",
          "type": "bool"
        }
      ],
      "stateMutability": "view",
      "type": "function",
      "constant": true
    },
    {
      "inputs": [
        {
          "internalType": "address",
          "name": "_address",
          "type": "address"
        }
      ],
      "name": "getContractsFromOwner",
      "outputs": [
        {
          "internalType": "uint256[]",
          "name": "",
          "type": "uint256[]"
        }
      ],
      "stateMutability": "view",
      "type": "function",
      "constant": true
    },
    {
      "inputs": [
        {
          "internalType": "address",
          "name": "_address",
          "type": "address"
        }
      ],
      "name": "getContractsOfWorker",
      "outputs": [
        {
          "internalType": "uint256[]",
          "name": "",
          "type": "uint256[]"
        }
      ],
      "stateMutability": "view",
      "type": "function",
      "constant": true
    },
    {
      "inputs": [
        {
          "internalType": "address",
          "name": "worker",
          "type": "address"
        }
      ],
      "name": "getUnsignedContractsOfWorker",
      "outputs": [
        {
          "internalType": "uint256[]",
          "name": "",
          "type": "uint256[]"
        }
      ],
      "stateMutability": "view",
      "type": "function",
      "constant": true
    },
    {
      "inputs": [
        {
          "internalType": "uint256",
          "name": "_tokenId",
          "type": "uint256"
        }
      ],
      "name": "tokenExists",
      "outputs": [
        {
          "internalType": "bool",
          "name": "",
          "type": "bool"
        }
      ],
      "stateMutability": "view",
      "type": "function",
      "constant": true
    },
    {
      "inputs": [
        {
          "internalType": "uint256",
          "name": "_tokenID",
          "type": "uint256"
        }
      ],
      "name": "isContractSigned",
      "outputs": [
        {
          "internalType": "bool",
          "name": "",
          "type": "bool"
        }
      ],
      "stateMutability": "view",
      "type": "function",
      "constant": true
    },
    {
      "inputs": [
        {
          "internalType": "uint256",
          "name": "_tokenID",
          "type": "uint256"
        }
      ],
      "name": "getOwnerOfContract",
      "outputs": [
        {
          "internalType": "address",
          "name": "",
          "type": "address"
        }
      ],
      "stateMutability": "view",
      "type": "function",
      "constant": true
    }
  ],
  "bytecode": "0x608060405234801562000010575f80fd5b506040518060400160405280600781526020016626bcaa37b5b2b760c91b815250604051806040016040528060038152602001624d544b60e81b815250815f90816200005d919062000115565b5060016200006c828262000115565b505050620001dd565b634e487b7160e01b5f52604160045260245ffd5b600181811c908216806200009e57607f821691505b602082108103620000bd57634e487b7160e01b5f52602260045260245ffd5b50919050565b601f82111562000110575f81815260208120601f850160051c81016020861015620000eb5750805b601f850160051c820191505b818110156200010c57828155600101620000f7565b5050505b505050565b81516001600160401b0381111562000131576200013162000075565b620001498162000142845462000089565b84620000c3565b602080601f8311600181146200017f575f8415620001675750858301515b5f19600386901b1c1916600185901b1785556200010c565b5f85815260208120601f198616915b82811015620001af578886015182559484019460019091019084016200018e565b5085821015620001cd57878501515f19600388901b60f8161c191681555b5050505050600190811b01905550565b61324f80620001eb5f395ff3fe608060405260043610610227575f3560e01c80636352211e11610129578063b88d4fde116100a8578063d053b4511161006d578063d053b451146106de578063e1b14620146106fd578063e2c07c7b1461071c578063e985e9c51461072f578063fc5a4efe1461074e575f80fd5b8063b88d4fde14610643578063bc3a8e9e14610662578063bce8715614610681578063c2852f38146106a0578063c87b56dd146106bf575f80fd5b80639537e8d1116100ee5780639537e8d1146105c957806395d89b41146105e8578063a22cb465146105fc578063a5c42ef11461061b578063a8dd896414610630575f80fd5b80636352211e1461051c57806370a082311461053b57806389b83d3e1461055a57806390d16ce41461057957806393a43c1914610598575f80fd5b806328047450116101b557806336a2d6f51161017a57806336a2d6f514610472578063409283d01461049157806342842e0e146104a457806345f18460146104c357806353765744146104f0575f80fd5b806328047450146103805780632907eb161461039f578063294a7931146103be57806331432e45146103f75780633330a55f1461043b575f80fd5b8063095ea7b3116101fb578063095ea7b3146102d657806323133e4c146102f75780632355e2171461032357806323b872dd1461034257806323e0f23714610361575f80fd5b8062923f9e1461022b57806301ffc9a71461025f57806306fdde031461027e578063081812fc1461029f575b5f80fd5b348015610236575f80fd5b5061024a610245366004612a69565b61077f565b60405190151581526020015b60405180910390f35b34801561026a575f80fd5b5061024a610279366004612a98565b6107ed565b348015610289575f80fd5b5061029261083e565b6040516102569190612b00565b3480156102aa575f80fd5b506102be6102b9366004612a69565b6108cd565b6040516001600160a01b039091168152602001610256565b3480156102e1575f80fd5b506102f56102f0366004612b26565b6108f4565b005b348015610302575f80fd5b50610316610311366004612b50565b610903565b6040516102569190612b6b565b34801561032e575f80fd5b506102f561033d366004612bae565b610ab4565b34801561034d575f80fd5b506102f561035c366004612bdc565b610be6565b34801561036c575f80fd5b506102be61037b366004612a69565b610c6f565b34801561038b575f80fd5b506102f561039a366004612a69565b610c79565b3480156103aa575f80fd5b506102f56103b9366004612a69565b610e3e565b3480156103c9575f80fd5b5061024a6103d8366004612bae565b600860209081525f928352604080842090915290825290205460ff1681565b348015610402575f80fd5b5061024a610411366004612bae565b5f9182526008602090815260408084206001600160a01b0393909316845291905290205460ff1690565b348015610446575f80fd5b5061045a610455366004612a69565b610fc3565b6040516102569c9b9a99989796959493929190612c1a565b34801561047d575f80fd5b506102be61048c366004612ca9565b611144565b6102f561049f366004612a69565b611178565b3480156104af575f80fd5b506102f56104be366004612bdc565b6114d2565b3480156104ce575f80fd5b506104e26104dd366004612b26565b6114f1565b604051908152602001610256565b3480156104fb575f80fd5b5061050f61050a366004612a69565b61151c565b6040516102569190612cc9565b348015610527575f80fd5b506102be610536366004612a69565b611585565b348015610546575f80fd5b506104e2610555366004612b50565b61158f565b348015610565575f80fd5b506102f5610574366004612a69565b6115d4565b348015610584575f80fd5b50610316610593366004612b50565b61169c565b3480156105a3575f80fd5b5061024a6105b2366004612a69565b5f9081526006602052604090206005015460ff1690565b3480156105d4575f80fd5b506102f56105e3366004612a69565b611704565b3480156105f3575f80fd5b50610292611897565b348015610607575f80fd5b506102f5610616366004612d09565b6118a6565b348015610626575f80fd5b506104e2600d5481565b6104e261063e366004612dde565b6118b1565b34801561064e575f80fd5b506102f561065d366004612e6a565b611ba5565b34801561066d575f80fd5b506104e261067c366004612b26565b611bbc565b34801561068c575f80fd5b5061024a61069b366004612a69565b611bd5565b3480156106ab575f80fd5b506102f56106ba366004612a69565b611cc0565b3480156106ca575f80fd5b506102926106d9366004612a69565b611d23565b3480156106e9575f80fd5b506103166106f8366004612b50565b611d94565b348015610708575f80fd5b506104e2610717366004612b26565b611dfb565b6102f561072a366004612a69565b611e14565b34801561073a575f80fd5b5061024a610749366004612ee5565b611fd6565b348015610759575f80fd5b5061076d610768366004612a69565b612003565b60405161025696959493929190612f11565b6040516331a9108f60e11b8152600481018290525f903090636352211e90602401602060405180830381865afa9250505080156107d9575060408051601f3d908101601f191682019092526107d691810190612f5c565b60015b6107e457505f919050565b50600192915050565b5f6001600160e01b031982166380ac58cd60e01b148061081d57506001600160e01b03198216635b5e139f60e01b145b8061083857506301ffc9a760e01b6001600160e01b03198316145b92915050565b60605f805461084c90612f77565b80601f016020809104026020016040519081016040528092919081815260200182805461087890612f77565b80156108c35780601f1061089a576101008083540402835291602001916108c3565b820191905f5260205f20905b8154815290600101906020018083116108a657829003601f168201915b5050505050905090565b5f6108d782612148565b505f828152600460205260409020546001600160a01b0316610838565b6108ff828233612180565b5050565b6001600160a01b0381165f908152600b60205260408120546060918167ffffffffffffffff81111561093757610937612d39565b604051908082528060200260200182016040528015610960578160200160208202803683370190505b5090505f805b83811015610a10576001600160a01b0386165f908152600b6020526040812080548390811061099757610997612faf565b5f918252602080832090910154808352600690915260409091206005015490915060ff161580156109cc57506109cc8161077f565b156109fd57808484815181106109e4576109e4612faf565b6020908102919091010152826109f981612fd7565b9350505b5080610a0881612fd7565b915050610966565b505f8167ffffffffffffffff811115610a2b57610a2b612d39565b604051908082528060200260200182016040528015610a54578160200160208202803683370190505b5090505f5b82811015610aaa57838181518110610a7357610a73612faf565b6020026020010151828281518110610a8d57610a8d612faf565b602090810291909101015280610aa281612fd7565b915050610a59565b5095945050505050565b610abd82611585565b6001600160a01b0316336001600160a01b0316148015610aff57505f8281526008602090815260408083206001600160a01b038516845290915290205460ff16155b8015610b255750610b0f82611585565b6001600160a01b0316816001600160a01b031614155b610b4a5760405162461bcd60e51b8152600401610b4190612fef565b60405180910390fd5b5f8281526008602090815260408083206001600160a01b038516845290915290205460ff166108ff575f8281526008602090815260408083206001600160a01b0394909416808452938252808320805460ff19166001908117909155858452600c8352818420805480830182559085528385200180546001600160a01b0319168617905593835260098252822080549384018155825290200155565b6001600160a01b038216610c0f57604051633250574960e11b81525f6004820152602401610b41565b5f610c1b83833361218d565b9050836001600160a01b0316816001600160a01b031614610c69576040516364283d7b60e01b81526001600160a01b0380861660048301526024820184905282166044820152606401610b41565b50505050565b5f61083882611585565b6040516331a9108f60e11b8152600481018290523090636352211e90602401602060405180830381865afa925050508015610cd1575060408051601f3d908101601f19168201909252610cce91810190612f5c565b60015b610ced5760405162461bcd60e51b8152600401610b4190613024565b505f81815260086020908152604080832033845290915290205460ff1615156001148015610d2c57505f8181526006602052604090206005015460ff16155b8015610d5057505f81815260066020526040902060050154600160a81b900460ff16155b610d6c5760405162461bcd60e51b8152600401610b4190612fef565b5f610d7682611585565b5f83815260066020526040808220549051929350916001600160a01b0384169183156108fc02918491818181858888f19350505050158015610dba573d5f803e3d5ffd5b50610dc5838361227f565b610dce836124d9565b5f83815260066020526040908190206005015490516001600160a01b0361010090920482169184169085907f344201ab2f1b413c381fe1cb1ae7d24db70f386bce6c330c4c705bba56d233fa90610e319086904290918252602082015260400190565b60405180910390a4505050565b6040516331a9108f60e11b8152600481018290523090636352211e90602401602060405180830381865afa925050508015610e96575060408051601f3d908101601f19168201909252610e9391810190612f5c565b60015b610eb25760405162461bcd60e51b8152600401610b4190613024565b505f81815260086020908152604080832033845290915290205460ff1615156001148015610ef057505f8181526006602052604090206005015460ff165b8015610f1457505f81815260066020526040902060050154600160a81b900460ff16155b8015610f265750610f2481611bd5565b155b610f425760405162461bcd60e51b8152600401610b4190612fef565b5f818152600660205260409020600501805460ff60a81b1916600160a81b17908190556001600160a01b0361010090910416610f7d82611585565b6001600160a01b0316827f86ea1596926f4e3b70b3169cd39eb59f8ada5f00ef929f33bdf925066cc52e8d42604051610fb891815260200190565b60405180910390a450565b60066020525f9081526040902080546001820154600283015460038401805493949293919291610ff290612f77565b80601f016020809104026020016040519081016040528092919081815260200182805461101e90612f77565b80156110695780601f1061104057610100808354040283529160200191611069565b820191905f5260205f20905b81548152906001019060200180831161104c57829003601f168201915b50505050509080600401805461107e90612f77565b80601f01602080910402602001604051908101604052809291908181526020018280546110aa90612f77565b80156110f55780601f106110cc576101008083540402835291602001916110f5565b820191905f5260205f20905b8154815290600101906020018083116110d857829003601f168201915b50505060058401546006850154600790950154939460ff808316956001600160a01b036101008504169550600160a81b840482169450600160b01b8404821693600160b81b900490911691908c565b600c602052815f5260405f20818154811061115d575f80fd5b5f918252602090912001546001600160a01b03169150829050565b5f81815260076020526040902060040154610100900460ff1680156111a357506111a181611bd5565b155b6111bf5760405162461bcd60e51b8152600401610b4190612fef565b5f81815260076020526040808220815160c081019092528054829082906111e590612f77565b80601f016020809104026020016040519081016040528092919081815260200182805461121190612f77565b801561125c5780601f106112335761010080835404028352916020019161125c565b820191905f5260205f20905b81548152906001019060200180831161123f57829003601f168201915b50505050508152602001600182015481526020016002820154815260200160038201805461128990612f77565b80601f01602080910402602001604051908101604052809291908181526020018280546112b590612f77565b80156113005780601f106112d757610100808354040283529160200191611300565b820191905f5260205f20905b8154815290600101906020018083116112e357829003601f168201915b50505091835250506004919091015460ff80821615156020808501919091526101009092041615156040928301525f85815260068252919091205490820151919250908111156113a1575f82602001518261135b9190613051565b90505f61136785611585565b6040519091506001600160a01b0382169083156108fc029084905f818181858888f1935050505015801561139d573d5f803e3d5ffd5b5050505b81515f848152600660205260409020600301906113be90826130b1565b506020808301515f858152600690925260409182902090815590830151600282015560608301516004909101906113f590826130b1565b505f838152600660205260409020600501546080830151600160b81b90910460ff16151590151514611442578160800151156114395761143483611cc0565b611442565b611442836115d4565b5f838152600760209081526040808320600401805461ff0019169055600690915290206005015461010090046001600160a01b031661148084611585565b6001600160a01b0316847f28e568ffd7b866d7ee8c7dcce7cff305f36a548fd8e7cda30ccea1f23a4a0b2b84866020015142604051610e31939291909283526020830191909152604082015260600190565b6114ec83838360405180602001604052805f815250611ba5565b505050565b600b602052815f5260405f20818154811061150a575f80fd5b905f5260205f20015f91509150505481565b5f818152600c602090815260409182902080548351818402810184019094528084526060939283018282801561157957602002820191905f5260205f20905b81546001600160a01b0316815260019091019060200180831161155b575b50505050509050919050565b5f61083882612148565b5f6001600160a01b0382166115b9576040516322718ad960e21b81525f6004820152602401610b41565b506001600160a01b03165f9081526003602052604090205490565b5f81815260066020526040902060050154600160b81b900460ff1661160b5760405162461bcd60e51b8152600401610b4190612fef565b5f818152600660208190526040822001546116269042613051565b90508060065f8481526020019081526020015f206002015f82825461164b919061316d565b90915550505f828152600660205260408120600701805483929061167090849061316d565b9091555050505f908152600660208190526040822090810191909155600501805460ff60b81b19169055565b6001600160a01b0381165f9081526009602090815260409182902080548351818402810184019094528084526060939283018282801561157957602002820191905f5260205f20905b8154815260200190600101908083116116e55750505050509050919050565b6040516331a9108f60e11b8152600481018290523090636352211e90602401602060405180830381865afa92505050801561175c575060408051601f3d908101601f1916820190925261175991810190612f5c565b60015b6117785760405162461bcd60e51b8152600401610b4190613024565b505f81815260086020908152604080832033845290915290205460ff161580156117b357505f8181526006602052604090206005015460ff16155b80156117d757505f81815260066020526040902060050154600160a81b900460ff16155b80156117e957506117e781611bd5565b155b6118055760405162461bcd60e51b8152600401610b4190612fef565b5f81815260066020908152604080832060050180543361010081026001600160a81b0319909216919091176001908117909255808552600a8452918420805491820181558452919092200182905561185c82611585565b6001600160a01b0316827f9678f981bcf017d96c4d9fb4124afb0d1c62735df0ad70bef9fd0f5c18bda4fb42604051610fb891815260200190565b60606001805461084c90612f77565b6108ff338383612511565b5f853410156119195760405162461bcd60e51b815260206004820152602e60248201527f4465646520656e7669617220656c2073616c6172696f20636f6d6f2076616c6f60448201526d722064656c20636f6e747261746f60901b6064820152608401610b41565b600d8054905f61192883612fd7565b919050555061193933600d546125af565b5f6119448734613051565b9050801561197857604051339082156108fc029083905f818181858888f19350505050158015611976573d5f803e3d5ffd5b505b5f6040518061018001604052808981526020014289611997919061316d565b81526020808201899052604080830188905260608084018a90525f608085018190526001600160a01b038f1660a086015260c0850181905260e0850181905261010085018190526101208501819052610140909401849052600d54845260068352928190208451815591840151600183015583015160028201559082015191925082916003820190611a2990826130b1565b5060808201516004820190611a3e90826130b1565b5060a082015160058201805460c085015160e0860151610100808801516101208901516001600160a81b0319909516961515610100600160a81b031916969096176001600160a01b039384169091021761ffff60a81b1916600160a81b9115159190910260ff60b01b191617600160b01b941515949094029390931760ff60b81b1916600160b81b91151591909102179055610140830151600683015561016090920151600790910155600d80545f90815260086020908152604080832033808552908352818420805460ff191660019081179091556009845282852086548154808401835591875285872090910155958f16808552600b84528285208654815498890182559086529484902090960193909355925483519081529081018c90524292810192909252907f10eeb30b12e63eae3023c3999b0545d717e8af33edac7f4a0b70b130bfba33599060600160405180910390a35050600d54979650505050505050565b611bb0848484610be6565b610c6984848484612610565b600a602052815f5260405f20818154811061150a575f80fd5b6040516331a9108f60e11b8152600481018290525f903090636352211e90602401602060405180830381865afa925050508015611c2f575060408051601f3d908101601f19168201909252611c2c91810190612f5c565b60015b611c4b5760405162461bcd60e51b8152600401610b4190613024565b505f82815260066020526040902060050154600160a81b900460ff161515600103611c7857506001919050565b5f828152600660205260409020600781015460028201546001909201549091611ca09161316d565b611caa919061316d565b421115611cb957506001919050565b505f919050565b5f81815260066020526040902060050154600160b81b900460ff1615611cf85760405162461bcd60e51b8152600401610b4190612fef565b5f90815260066020819052604090912060058101805460ff60b81b1916600160b81b17905542910155565b6060611d2e82612148565b505f611d4460408051602081019091525f815290565b90505f815111611d625760405180602001604052805f815250611d8d565b80611d6c84612736565b604051602001611d7d929190613180565b6040516020818303038152906040525b9392505050565b6001600160a01b0381165f908152600a602090815260409182902080548351818402810184019094528084526060939283018282801561157957602002820191905f5260205f20908154815260200190600101908083116116e55750505050509050919050565b6009602052815f5260405f20818154811061150a575f80fd5b6040516331a9108f60e11b8152600481018290523090636352211e90602401602060405180830381865afa925050508015611e6c575060408051601f3d908101601f19168201909252611e6991810190612f5c565b60015b611e885760405162461bcd60e51b8152600401610b4190613024565b505f8181526006602052604090206005015460ff168015611ec157505f81815260066020526040902060050154600160b01b900460ff16155b8015611eea57505f81815260086020908152604080832033845290915290205460ff1615156001145b8015611f005750611efa81611bd5565b15156001145b611f1c5760405162461bcd60e51b8152600401610b4190612fef565b5f818152600660205260408082206005810154905491516101009091046001600160a01b03169283916108fc84150291849190818181858888f19350505050158015611f6a573d5f803e3d5ffd5b505f8381526006602052604090819020600501805460ff60b01b1916600160b01b179055516001600160a01b03831690339085907f4b5aadc9a65abf047bc2152ff605000b1dd64e7cb420aba7862457538885bfee90610e319086904290918252602082015260400190565b6001600160a01b039182165f90815260056020908152604080832093909416825291909152205460ff1690565b60076020525f908152604090208054819061201d90612f77565b80601f016020809104026020016040519081016040528092919081815260200182805461204990612f77565b80156120945780601f1061206b57610100808354040283529160200191612094565b820191905f5260205f20905b81548152906001019060200180831161207757829003601f168201915b5050505050908060010154908060020154908060030180546120b590612f77565b80601f01602080910402602001604051908101604052809291908181526020018280546120e190612f77565b801561212c5780601f106121035761010080835404028352916020019161212c565b820191905f5260205f20905b81548152906001019060200180831161210f57829003601f168201915b5050506004909301549192505060ff8082169161010090041686565b5f818152600260205260408120546001600160a01b03168061083857604051637e27328960e01b815260048101849052602401610b41565b6114ec83838360016127c6565b5f828152600260205260408120546001600160a01b03908116908316156121b9576121b98184866128ca565b6001600160a01b038116156121f3576121d45f855f806127c6565b6001600160a01b0381165f90815260036020526040902080545f190190555b6001600160a01b03851615612221576001600160a01b0385165f908152600360205260409020805460010190555b5f8481526002602052604080822080546001600160a01b0319166001600160a01b0389811691821790925591518793918516917fddf252ad1be2c89b69c2b068fc378daa952ba7f163c4a11628f55a4df523b3ef91a4949350505050565b6040516331a9108f60e11b8152600481018390523090636352211e90602401602060405180830381865afa9250505080156122d7575060408051601f3d908101601f191682019092526122d491810190612f5c565b60015b6122f35760405162461bcd60e51b8152600401610b4190613024565b50806001600160a01b031661230783611585565b6001600160a01b0316146123835760405162461bcd60e51b815260206004820152603760248201527f456c2070726f706965746172696f206e6f20636f696e6369646520636f6e206560448201527f6c2070726f706965746172696f2064656c20746f6b656e0000000000000000006064820152608401610b41565b6001600160a01b0381165f9081526009602052604081205481906123a990600190613051565b90505f5b6001600160a01b0384165f90815260096020526040902054811015612420576001600160a01b0384165f9081526009602052604090208054869190839081106123f8576123f8612faf565b905f5260205f2001540361240e57809250612420565b8061241881612fd7565b9150506123ad565b5080821461249a576001600160a01b0383165f90815260096020526040902080548290811061245157612451612faf565b905f5260205f20015460095f856001600160a01b03166001600160a01b031681526020019081526020015f20838154811061248e5761248e612faf565b5f918252602090912001555b6001600160a01b0383165f9081526009602052604090208054806124c0576124c06131ae565b600190038181905f5260205f20015f9055905550505050565b5f6124e55f835f61218d565b90506001600160a01b0381166108ff57604051637e27328960e01b815260048101839052602401610b41565b6001600160a01b03821661254357604051630b61174360e31b81526001600160a01b0383166004820152602401610b41565b6001600160a01b038381165f81815260056020908152604080832094871680845294825291829020805460ff191686151590811790915591519182527f17307eab39ab6107e8899845ad3d59bd9653f200f220920489ca2b5937696c31910160405180910390a3505050565b6001600160a01b0382166125d857604051633250574960e11b81525f6004820152602401610b41565b5f6125e483835f61218d565b90506001600160a01b038116156114ec576040516339e3563760e11b81525f6004820152602401610b41565b6001600160a01b0383163b15610c6957604051630a85bd0160e11b81526001600160a01b0384169063150b7a02906126529033908890879087906004016131c2565b6020604051808303815f875af192505050801561268c575060408051601f3d908101601f19168201909252612689918101906131fe565b60015b6126f3573d8080156126b9576040519150601f19603f3d011682016040523d82523d5f602084013e6126be565b606091505b5080515f036126eb57604051633250574960e11b81526001600160a01b0385166004820152602401610b41565b805181602001fd5b6001600160e01b03198116630a85bd0160e11b1461272f57604051633250574960e11b81526001600160a01b0385166004820152602401610b41565b5050505050565b60605f6127428361292e565b60010190505f8167ffffffffffffffff81111561276157612761612d39565b6040519080825280601f01601f19166020018201604052801561278b576020820181803683370190505b5090508181016020015b5f19016f181899199a1a9b1b9c1cb0b131b232b360811b600a86061a8153600a850494508461279557509392505050565b80806127da57506001600160a01b03821615155b1561289b575f6127e984612148565b90506001600160a01b038316158015906128155750826001600160a01b0316816001600160a01b031614155b801561282857506128268184611fd6565b155b156128515760405163a9fbf51f60e01b81526001600160a01b0384166004820152602401610b41565b81156128995783856001600160a01b0316826001600160a01b03167f8c5be1e5ebec7d5bd14f71427d1e84f3dd0314c0f7b2291e5b200ac8c7c3b92560405160405180910390a45b505b50505f90815260046020526040902080546001600160a01b0319166001600160a01b0392909216919091179055565b6128d5838383612a05565b6114ec576001600160a01b03831661290357604051637e27328960e01b815260048101829052602401610b41565b60405163177e802f60e01b81526001600160a01b038316600482015260248101829052604401610b41565b5f8072184f03e93ff9f4daa797ed6e38ed64bf6a1f0160401b831061296c5772184f03e93ff9f4daa797ed6e38ed64bf6a1f0160401b830492506040015b6d04ee2d6d415b85acef81000000008310612998576d04ee2d6d415b85acef8100000000830492506020015b662386f26fc1000083106129b657662386f26fc10000830492506010015b6305f5e10083106129ce576305f5e100830492506008015b61271083106129e257612710830492506004015b606483106129f4576064830492506002015b600a83106108385760010192915050565b5f6001600160a01b03831615801590612a615750826001600160a01b0316846001600160a01b03161480612a3e5750612a3e8484611fd6565b80612a6157505f828152600460205260409020546001600160a01b038481169116145b949350505050565b5f60208284031215612a79575f80fd5b5035919050565b6001600160e01b031981168114612a95575f80fd5b50565b5f60208284031215612aa8575f80fd5b8135611d8d81612a80565b5f5b83811015612acd578181015183820152602001612ab5565b50505f910152565b5f8151808452612aec816020860160208601612ab3565b601f01601f19169290920160200192915050565b602081525f611d8d6020830184612ad5565b6001600160a01b0381168114612a95575f80fd5b5f8060408385031215612b37575f80fd5b8235612b4281612b12565b946020939093013593505050565b5f60208284031215612b60575f80fd5b8135611d8d81612b12565b602080825282518282018190525f9190848201906040850190845b81811015612ba257835183529284019291840191600101612b86565b50909695505050505050565b5f8060408385031215612bbf575f80fd5b823591506020830135612bd181612b12565b809150509250929050565b5f805f60608486031215612bee575f80fd5b8335612bf981612b12565b92506020840135612c0981612b12565b929592945050506040919091013590565b5f6101808e83528d60208401528c6040840152806060840152612c3f8184018d612ad5565b90508281036080840152612c53818c612ad5565b8a151560a08501526001600160a01b038a1660c085015288151560e08501528715156101008501528615156101208501529150612c8d9050565b61014082019390935261016001529a9950505050505050505050565b5f8060408385031215612cba575f80fd5b50508035926020909101359150565b602080825282518282018190525f9190848201906040850190845b81811015612ba25783516001600160a01b031683529284019291840191600101612ce4565b5f8060408385031215612d1a575f80fd5b8235612d2581612b12565b915060208301358015158114612bd1575f80fd5b634e487b7160e01b5f52604160045260245ffd5b5f67ffffffffffffffff80841115612d6757612d67612d39565b604051601f8501601f19908116603f01168101908282118183101715612d8f57612d8f612d39565b81604052809350858152868686011115612da7575f80fd5b858560208301375f602087830101525050509392505050565b5f82601f830112612dcf575f80fd5b611d8d83833560208501612d4d565b5f805f805f8060c08789031215612df3575f80fd5b8635612dfe81612b12565b9550602087013594506040870135935060608701359250608087013567ffffffffffffffff80821115612e2f575f80fd5b612e3b8a838b01612dc0565b935060a0890135915080821115612e50575f80fd5b50612e5d89828a01612dc0565b9150509295509295509295565b5f805f8060808587031215612e7d575f80fd5b8435612e8881612b12565b93506020850135612e9881612b12565b925060408501359150606085013567ffffffffffffffff811115612eba575f80fd5b8501601f81018713612eca575f80fd5b612ed987823560208401612d4d565b91505092959194509250565b5f8060408385031215612ef6575f80fd5b8235612f0181612b12565b91506020830135612bd181612b12565b60c081525f612f2360c0830189612ad5565b8760208401528660408401528281036060840152612f418187612ad5565b9415156080840152505090151560a090910152949350505050565b5f60208284031215612f6c575f80fd5b8151611d8d81612b12565b600181811c90821680612f8b57607f821691505b602082108103612fa957634e487b7160e01b5f52602260045260245ffd5b50919050565b634e487b7160e01b5f52603260045260245ffd5b634e487b7160e01b5f52601160045260245ffd5b5f60018201612fe857612fe8612fc3565b5060010190565b6020808252818101527f4572726f723a20636f6e646963696f6e6573206e6f2063756d706c696461732e604082015260600190565b60208082526013908201527222b6103a37b5b2b71037379032bc34b9ba329760691b604082015260600190565b8181038181111561083857610838612fc3565b601f8211156114ec575f81815260208120601f850160051c8101602086101561308a5750805b601f850160051c820191505b818110156130a957828155600101613096565b505050505050565b815167ffffffffffffffff8111156130cb576130cb612d39565b6130df816130d98454612f77565b84613064565b602080601f831160018114613112575f84156130fb5750858301515b5f19600386901b1c1916600185901b1785556130a9565b5f85815260208120601f198616915b8281101561314057888601518255948401946001909101908401613121565b508582101561315d57878501515f19600388901b60f8161c191681555b5050505050600190811b01905550565b8082018082111561083857610838612fc3565b5f8351613191818460208801612ab3565b8351908301906131a5818360208801612ab3565b01949350505050565b634e487b7160e01b5f52603160045260245ffd5b6001600160a01b03858116825284166020820152604081018390526080606082018190525f906131f490830184612ad5565b9695505050505050565b5f6020828403121561320e575f80fd5b8151611d8d81612a8056fea26469706673582212206f27a9ad80b827b8fa212e901f4b798c949d44267ad79e369ce33ba8b285e40464736f6c63430008140033",
  "immutableReferences": {},
  "source": "// SPDX-License-Identifier: MIT\r\npragma solidity ^0.8.20;\r\n\r\nimport \"./MyContractManagement.sol\";\r\nimport \"./MyContractChanges.sol\";\r\n\r\ncontract MyContractAux is MyContractManagement, MyContractChanges {\r\n    function getManagersOfToken(\r\n        uint256 _tokenId\r\n    ) public view returns (address[] memory) {\r\n        return tokenManagersList[_tokenId];\r\n    }\r\n\r\n    function isManagerOfToken(\r\n        uint256 _tokenId,\r\n        address _manager\r\n    ) public view returns (bool) {\r\n        return tokenManagers[_tokenId][_manager];\r\n    }\r\n\r\n    function getContractsFromOwner(\r\n        address _address\r\n    ) public view returns (uint256[] memory) {\r\n        return contractsOwner[_address];\r\n    }\r\n\r\n    function getContractsOfWorker(\r\n        address _address\r\n    ) public view returns (uint256[] memory) {\r\n        return activeContractsOfWorker[_address];\r\n    }\r\n\r\n    function getUnsignedContractsOfWorker(\r\n        address worker\r\n    ) public view returns (uint256[] memory) {\r\n        uint256 totalContracts = unsignedContractsOfWorker[worker].length;\r\n        uint256[] memory tempContracts = new uint256[](totalContracts);\r\n        uint256 count = 0;\r\n\r\n        for (uint256 i = 0; i < totalContracts; i++) {\r\n            uint256 contractId = unsignedContractsOfWorker[worker][i];\r\n\r\n            if (\r\n                !contractDetails[contractId].isSigned && tokenExists(contractId)\r\n            ) {\r\n                tempContracts[count] = contractId;\r\n                count++;\r\n            }\r\n        }\r\n\r\n        uint256[] memory result = new uint256[](count);\r\n        for (uint256 j = 0; j < count; j++) {\r\n            result[j] = tempContracts[j];\r\n        }\r\n        return result;\r\n    }\r\n\r\n    function tokenExists(uint256 _tokenId) public view returns (bool) {\r\n        try this.ownerOf(_tokenId) {\r\n            return true;\r\n        } catch {\r\n            return false;\r\n        }\r\n    }\r\n\r\n    function isContractSigned(uint256 _tokenID) public view returns (bool) {\r\n        return contractDetails[_tokenID].isSigned;\r\n    }\r\n\r\n    function getOwnerOfContract(\r\n        uint256 _tokenID\r\n    ) public view returns (address) {\r\n        return ownerOf(_tokenID);\r\n    }\r\n}\r\n",
  "sourcePath": "E:\\ubu-contractme\\Code\\SmartContract\\contracts\\MyContractAux.sol",
  "compiler": {
    "name": "solc",
    "version": "0.8.20+commit.a1b79de6.Emscripten.clang"
  },
  "schemaVersion": "3.4.16",
  "updatedAt": "2024-05-03T15:23:34.115Z",
  "networkType": "ethereum",
  "devdoc": {
    "errors": {
      "ERC721IncorrectOwner(address,uint256,address)": [
        {
          "details": "Indicates an error related to the ownership over a particular token. Used in transfers.",
          "params": {
            "owner": "Address of the current owner of a token.",
            "sender": "Address whose tokens are being transferred.",
            "tokenId": "Identifier number of a token."
          }
        }
      ],
      "ERC721InsufficientApproval(address,uint256)": [
        {
          "details": "Indicates a failure with the `operator`s approval. Used in transfers.",
          "params": {
            "operator": "Address that may be allowed to operate on tokens without being their owner.",
            "tokenId": "Identifier number of a token."
          }
        }
      ],
      "ERC721InvalidApprover(address)": [
        {
          "details": "Indicates a failure with the `approver` of a token to be approved. Used in approvals.",
          "params": {
            "approver": "Address initiating an approval operation."
          }
        }
      ],
      "ERC721InvalidOperator(address)": [
        {
          "details": "Indicates a failure with the `operator` to be approved. Used in approvals.",
          "params": {
            "operator": "Address that may be allowed to operate on tokens without being their owner."
          }
        }
      ],
      "ERC721InvalidOwner(address)": [
        {
          "details": "Indicates that an address can't be an owner. For example, `address(0)` is a forbidden owner in EIP-20. Used in balance queries.",
          "params": {
            "owner": "Address of the current owner of a token."
          }
        }
      ],
      "ERC721InvalidReceiver(address)": [
        {
          "details": "Indicates a failure with the token `receiver`. Used in transfers.",
          "params": {
            "receiver": "Address to which tokens are being transferred."
          }
        }
      ],
      "ERC721InvalidSender(address)": [
        {
          "details": "Indicates a failure with the token `sender`. Used in transfers.",
          "params": {
            "sender": "Address whose tokens are being transferred."
          }
        }
      ],
      "ERC721NonexistentToken(uint256)": [
        {
          "details": "Indicates a `tokenId` whose `owner` is the zero address.",
          "params": {
            "tokenId": "Identifier number of a token."
          }
        }
      ]
    },
    "events": {
      "Approval(address,address,uint256)": {
        "details": "Emitted when `owner` enables `approved` to manage the `tokenId` token."
      },
      "ApprovalForAll(address,address,bool)": {
        "details": "Emitted when `owner` enables or disables (`approved`) `operator` to manage all of its assets."
      },
      "Transfer(address,address,uint256)": {
        "details": "Emitted when `tokenId` token is transferred from `from` to `to`."
      }
    },
    "kind": "dev",
    "methods": {
      "approve(address,uint256)": {
        "details": "See {IERC721-approve}."
      },
      "balanceOf(address)": {
        "details": "See {IERC721-balanceOf}."
      },
      "getApproved(uint256)": {
        "details": "See {IERC721-getApproved}."
      },
      "isApprovedForAll(address,address)": {
        "details": "See {IERC721-isApprovedForAll}."
      },
      "name()": {
        "details": "See {IERC721Metadata-name}."
      },
      "ownerOf(uint256)": {
        "details": "See {IERC721-ownerOf}."
      },
      "safeTransferFrom(address,address,uint256)": {
        "details": "See {IERC721-safeTransferFrom}."
      },
      "safeTransferFrom(address,address,uint256,bytes)": {
        "details": "See {IERC721-safeTransferFrom}."
      },
      "setApprovalForAll(address,bool)": {
        "details": "See {IERC721-setApprovalForAll}."
      },
      "supportsInterface(bytes4)": {
        "details": "See {IERC165-supportsInterface}."
      },
      "symbol()": {
        "details": "See {IERC721Metadata-symbol}."
      },
      "tokenURI(uint256)": {
        "details": "See {IERC721Metadata-tokenURI}."
      },
      "transferFrom(address,address,uint256)": {
        "details": "See {IERC721-transferFrom}."
      }
    },
    "version": 1
  },
  "userdoc": {
    "kind": "user",
    "methods": {},
    "version": 1
  }
}